:020000021000EC
:10F000000000012079D30200A1D30200A3D30200A3
:10F01000A5D30200A7D30200A9D30200000000007C
:10F02000000000000000000000000000ABD3020060
:10F03000ADD3020000000000AFD30200B1D3020044
:10F04000FD300200B3D302006D3F0200854802008C
:10F05000B3D30200B3D3020039350200B3D30200A8
:10F06000B3D30200B3D30200B3D30200B3D3020080
:10F07000B3D30200B3D30200B3D30200B3D3020070
:10F08000B3D30200B5020200B3D30200B3D302002F
:10F0900085030200B3D30200FDEF0200B3D30200E8
:10F0A000B3D30200B3D30200B3D30200B3D3020040
:10F0B000B3D30200B3D30200000000000000000040
:10F0C000B3D30200B3D30200B3D30200B3D3020020
:10F0D000B3D30200B3D30200B3D302000000000098
:10F0E0000000000000000000000000000000000020
:10F0F0000000000000000000000000000000000010
:10F1000000000000000000000000000000000000FF
:10F1100000000000000000000000000000000000EF
:10F4000010B5054C237833B9044B13B10448AFF35E
:10F4100000800123237010BDD022002000000000D6
:10F420005C370400084B10B51BB108490848AFF31E
:10F4300000800848036803B910BD074B002BFBD0C0
:10F44000BDE81040184700BF00000000D422002093
:10F450005C370400B822002000000000154B002B90
:10F4600008BF134B9D46A3F5803A00218B460F46FB
:10F470001348144A121A00F065F80F4B002B00D005
:10F4800098470E4B002B00D0984700200021040025
:10F490000D000D48002802D00C48AFF3008000F0AA
:10F4A0002BF82000290006F0A9FD00F011F800BF9C
:10F4B0000000080000000120000000000000000023
:10F4C000D02200202C61002000000000000000007D
:10F4D00008B5074B044613B10021AFF30080054B7C
:10F4E0001868836A03B19847204600F033F800BFDC
:10F4F00000000000B013040070B50E4B0E4CE41A6F
:10F50000A41000251E46A54204D056F82530984781
:10F510000135F8E721F03EFF084C094BE41AA4102E
:10F5200000251E46A54204D056F8253098470135DF
:10F53000F8E770BDB0220020B0220020B4220020E5
:10F54000B022002002440346934202D003F8011B7C
:10F55000FAE77047FEE700BF2DE9F04FC7B0174646
:10F560001C46DDF844A10D46002900F01A81002B4D
:10F5700000F0F0800A23019300231A4606AE539B45
:10F5800020250AEB030B9146019809EB0003029337
:10F590003133F71806EB0903002861D05A4202F014
:10F5A0000302824228BF0246062800F2CA800246B1
:10F5B000012A06F8095003F1010100F0C080022A77
:10F5C0005D7003F1020100F0BA80032A9D7003F11F
:10F5D000030100F0B480042ADD7003F1040100F09F
:10F5E000AE80062A1D7103F1050140F0B0805D7107
:10F5F000991D96460198904230D0801A03900438A5
:10F600004FEA9008019800F1FF3CC2EB0C0C08F1A6
:10F610000100BCF1020F4FEA800813D94A444FF0B1
:10F62000203C012806EB020946F802C005D002285A
:10F63000C9F804C001D0C9F808C0039A90454144F4
:10F64000C6440BD001980D700EF10102824205D222
:10F650000EF1020E86454D7000D28D70019A134452
:10F66000DA1C781C03F1330CDDF848810CE002F859
:10F67000035C02F8025C02F8015C0332624500F8A8
:10F68000015C00F1010034D0A345F0D9A24588BF48
:10F69000509902F8015C96BFCAEB0401095D18F8A5
:10F6A00001104FEA211E5FFA8EF9BEF1090F01F039
:10F6B0000F0ED4BF09F1300909F13709BEF1090F66
:10F6C00002F8039C94BF0EF1300E0EF1370EA1F13B
:10F6D000200902F802ECB9F15E0F02F1030288BFC3
:10F6E0002E21624500F8011C04F1010400F1010023
:10F6F000CAD102990D2201F143094FF00A083A7468
:10F7000087F81180002783F830504B46B9461F46D2
:10F710003A4606EB0901002007F0E2FB81443F1A5C
:10F7200010B9B8F1010801D0002FF1D15C454FF0BC
:10F730000009FFF429AF204647B0BDE8F08F964698
:10F7400058E7002A7FF434AF1946964655E74FF044
:10F75000050E4FE7174B93E8030006AE04908DF8B3
:10F760001410042204A9304620F095FC2A6812499E
:10F7700007A820F0CFFC0028DDDB0A23051D01933C
:10F78000384620F0F3FCC22828BFC220024680463B
:10F790003946701920F07FFC08EB050300241A4657
:10F7A000EDE61BB90194254606AEE9E701910A464C
:10F7B00006AEE4E6BC130400B41304002DE9F041E6
:10F7C0009046C6B01F4611B3524B0C4693E8030057
:10F7D00006AE04908DF81410042204A9304620F0DF
:10F7E0005AFC22684C4907A820F094FC00280ADB48
:10F7F0004C9B051D062B00F28B80DFE803F03C4C90
:10F80000555F6B791300002046B0BDE8F0814C9B3A
:10F81000062B7BD8DFE803F02E3D46505C6A0400DF
:10F82000002506AE7869396997E80C000390FC68FA
:10F83000BF680097029101944146701920F06AFC5C
:10F840000446002CDFDB2C44B4F5807FDBD80A278C
:10F85000002506AE22467119002007F041FB054441
:10F86000241A08B9013F01D0002CF3D1012046B081
:10F87000BDE8F0810025404620F078FC4319FF2BBD
:10F880000446DED806AE41467019224620F003FC3D
:10F89000D7E7002506AE3A684146701920F03AFCD9
:10F8A0000446CEE7002506AE4146701997E80C00E5
:10F8B00020F030FC0446C4E7002506AEB96897E89E
:10F8C0000C0070190091414620F024FC0446B8E772
:10F8D000002506AEF968BC6897E80C007019019124
:10F8E0000094414620F016FC0446AAE7002506AE27
:10F8F0003969FC6897E80C00BF6800970291019491
:10F900004146701920F006FC04469AE700249EE761
:10F91000002498E7BC130400B413040070B50F4D25
:10F920002B7882B01BB10E4B1B78834212D001267C
:10F93000044600964FF480730A4A0B49002007F0F2
:10F940008DFB10B1082002B070BD054B2E701C70ED
:10F9500002B070BD002002B070BD00BFED230020DA
:10F96000EC230020EC220020C41304000048704760
:10F97000BDF701000048704759F50100C8B170B5E6
:10F9800005460020FFF7CAFF044600B170BDFFF72F
:10F99000EDFF0646FFF7EEFF074BFF22C3F8140406
:10F9A000C3F810641C605C60C3F80C549A60204675
:10F9B00070BD0720704700BFF02300200120FFF733
:10F9C000ADBF00BF2DE9F04383B002AB4FF000099B
:10F9D00003F8019D2C4C804618460F46A568266802
:10F9E00001F0A6F994E80C00A1680B4401339B1ABE
:10F9F000032B26D8012B1DD901204B4660F30103B0
:10FA000069F38203052060F3C503204DD4F80C642C
:10FA100001EA020004EB800069F3891365F39F2378
:10FA2000951C25600132C36002EA0105B04704EB72
:10FA30008501C8609DF8070001F0A2F903B0BDE898
:10FA4000F08302329DF80700226001F099F901224B
:10FA5000002362F3010369F3820305EA060268F3F7
:10FA6000C50304EB820269F3891367F39F23D36014
:10FA70000136D4F80C343540984704EB8504E06037
:10FA800003B0BDE8F08300BFF0230020CC130400D6
:10FA90002DE9F04782B002AB4FF0000A03F801AD48
:10FAA000304C8146184688461746A568266801F0FE
:10FAB0003FF994E80C00A1680B4401339B1A042B16
:10FAC00026D8012B1DD90120534660F301036AF3A8
:10FAD0008203052060F3C503234DD4F80C6401EACA
:10FAE000020004EB80006AF3891365F39F23951CE1
:10FAF00025600132C36002EA0105B04704EB8501CD
:10FB0000C8609DF8070001F03BF902B0BDE8F0873E
:10FB100003329DF80700226001F032F90121002331
:10FB200061F301036AF3820305EA060269F3C50380
:10FB300004EB820261F3891368F39F23D36006EB21
:10FB40000108D4F80C340236984708EA0508354015
:10FB500004EB880804EB8504C8F80C00E76002B0E9
:10FB6000BDE8F087F0230020CC1304002DE9F04F0E
:10FB700083B002AD002705F8017D344C834628464A
:10FB80008A4691469846A568266801F0D1F894E81F
:10FB90000C00A1680B4401339B1A052B26D8012BBE
:10FBA0001DD901203B4660F3010367F38203052062
:10FBB00060F3C503264DD4F80C6401EA020004EB9F
:10FBC000800067F3891365F39F23951C256001323C
:10FBD000C36002EA0105B04704EB8501C8609DF8E7
:10FBE000070001F0CDF803B0BDE8F08F04329DF8B6
:10FBF0000700226001F0C4F80122002362F3010330
:10FC000067F38203022105EA06026BF3C50304EBE6
:10FC1000820261F389136AF39F23D360D4F80C3412
:10FC20009847771CB31C03362F402B40354004EB1C
:10FC3000870704EB830304EB8504F860C3F80C909A
:10FC4000C4F80C8003B0BDE8F08F00BFF0230020A3
:10FC5000CC1304002DE9F04F83B00DF1080E0027FE
:10FC60000EF8017D364C834670468A46914698468A
:10FC7000A568266801F05CF894E80C00A1680B44C4
:10FC800001339B1A062B26D8012B1DD901203B4698
:10FC900060F3010367F38203052060F3C503294D78
:10FCA000D4F80C6401EA020004EB800067F38913C6
:10FCB00065F39F23951C25600132C36002EA0105AC
:10FCC000B04704EB8501C8609DF8070001F058F8C3
:10FCD00003B0BDE8F08F05329DF80700226001F007
:10FCE0004FF80122002362F3010367F3820303212B
:10FCF00005EA06026BF3C50304EB820261F3891384
:10FD00006AF39F23D360D4F80C349847771CB21C55
:10FD1000F31C2F402A402B4004EB870704EB8202A0
:10FD200004EB830304363540F86004EB8504C2F825
:10FD30000C90C3F80C800C9BE36003B0BDE8F08F1F
:10FD4000F0230020CC1304002DE9F047534E96E831
:10FD50000C009A428AB07FD0D6F808C004E0C4F301
:10FD6000891202EB945213440CEA0305023506EBA8
:10FD7000850201335468E2B212F00300EFD052075B
:10FD80005DBF03EA0C0106EB81010C310021022862
:10FD900003F101072CD0C4F38312C4F395290DF1AC
:10FDA000100A8AB1501C0DF1100A1844D0463D4685
:10FDB0000CEA050E06EB8E0E0135DEF80C3048F825
:10FDC000043B8542F4D117440092C4F3C200534669
:10FDD0004A46D6F81044314DA04738B177603068B4
:10FDE000C01B18BF01200AB0BDE8F0876F68F6E7B6
:10FDF00003F102082CEA08000CEA0707013006EBC1
:10FE0000870780004FEA94598145FA68234FC4F36D
:10FE1000891325D9002836D00CEA080E5FFA80FA3B
:10FE200007EB8E0ECAEB09000EF10C0E0C37C0B2B8
:10FE300003900297CDF804A0CDF800E0D6F8147432
:10FE4000C4F3C200B847484523D006EB850560F3EC
:10FE50008F146C607768C2E700200AB0BDE8F087B5
:10FE60000CEA080E07EB8E0E0EF10C0E0020CDF8FA
:10FE700000E0CDF80490D7F8147403900290C4F316
:10FE8000C200B847DFE707F10C0E5FFA89FA0746B0
:10FE9000CEE7033008EB9007A0E700BFF023002077
:10FEA0002DE9F84F244B1A788AB3DFF890B0DFF8C9
:10FEB0009090DFF890A00024012703E00134E4B221
:10FEC000944224D226B2D9F80050DBF8003015F85D
:10FED000360007FA00FE1EEA030F05EBC608EDD058
:10FEE000164A23EA0E03136003F01CFB15F8365084
:10FEF000DAF8003007FA05F6334000FA05F6B342A7
:10FF000007D00D4B01341A78E4B29442DAD3BDE83D
:10FF1000F88FD8F80430002BF3D098F80110A1F135
:10FF20000101B1FA81F14909091AB1FA81F14909CE
:10FF300028469847E5E700BF102800203828002011
:10FF40000C2800203428002070B50646114800F027
:10FF50008DFE40B9104D01242B68B4401C4203D0E3
:10FF600023EA04042C6070BD304603F0DBFA0B4A30
:10FF7000136860B123432E680949136034432C6031
:10FF8000044809680022BDE8704000F017BE23EA6B
:10FF90000403F0E71428002038280020342800202B
:10FFA00008280020042A01D8072070472DE9F041D5
:10FFB00082B088460546174603F080F9002834D001
:10FFC0001C4C1D481D491E4A1E4B2560002608F189
:10FFD000FF340F6080F8008016601E60E4B20327D3
:10FFE000B8F1000F03D11AE0DBB2C4B11C4623B252
:10FFF00005EBC30215F833009378134A8DF80530EA
:020000022000DC
:1000000001A98DF804708DF806608DF8076003F083
:100010005FF9631E0028E7D002B0BDE8F0810B4A0B
:100020000B48002100F0B8FDF6E703F005F90028C1
:10003000C6D0F1E70C280020102800200828002056
:10004000342800203828002049FF0100A1FE0100CB
:10005000E013040070B5084D2B785BB1074E002407
:100060003368012113F8340003F0FAF92B780134D6
:10007000A342F5D8002070BD102800200C280020D5
:1000800000B585B0ADF804100292039001AA0021DA
:1000900044F2010005F0A0FF05B05DF804FB00BFCD
:1000A00059B10AB909207047531E1A40FAD182602B
:1000B00001608380C260104670470E20704700BF09
:1000C00010B48468C26803468088121B904203D231
:1000D00004205DF8044B7047DA681C680240002079
:1000E000A154DA680132DA605DF8044B704700BF52
:1000F00003468068DA68904201D10520704710B449
:100100009A6898881C6802400020A25C0A709A686D
:1001100001329A605DF8044B704700BF12F0030390
:1001200001D007207047F0B4094D0A4F2B700A4DDB
:100130003A604C1C2B70094F094D0A4E3880E40080
:10014000A4B22244298032601846F0BC704700BF38
:10015000472800203C280020462800204428002072
:1001600048280020402800202DE9F0472C4D2B88FE
:100170008B4282B003D2092002B0BDE8F087064668
:1001800002A84FF0000800F8018D17460C4600F059
:10019000CFFD244B244A2548197813780088DBB218
:1001A000834238BF0133C9B238BF5FFA83F8414593
:1001B0001FD092F800801378DFF87890DBB283428A
:1001C0003ABF0133DBB200235FFA88F89DF80700DD
:1001D000137000F0D5FDD9F800300FFA88F24FEA1D
:1001E000C20A43F83270534406B144B900209880E3
:1001F000C2E79DF8070000F0C3FD0420BCE70C4BEC
:1002000028881B68314608FB003022461FF043FF58
:10021000D9F800309A440020AAF80440ACE700BFA7
:100220004428002046280020472800204828002095
:10023000402800203C2800202DE9F047174C184D9D
:1002400022782B789A4226D0DFF85C90DFF85C8029
:10025000144FDFF85CA02378D9F800203888D8F84C
:100260000060DBB20FFA83FC02EBCC0103FB006001
:10027000898852F83C3098472378BAF80020DBB2DE
:100280009A4203F101038CBFDBB200232370227872
:100290002B789A42DFD1BDE8F08700BF46280020C6
:1002A00047280020442800203C2800204028002027
:1002B000482800202DE9F843294A2A4B0025C2F896
:1002C0004051C2F84451C2F84851C2F84C51C2F8EA
:1002D0000051C2F804511B681BB32349D2F804250E
:1002E0000C68224F141B1A6824F07F44A242A846CF
:1002F00009D8197CDE69A41A1544A1B91EB1334688
:100300001A68A242F5D91A4B1A491A780B789A4200
:100310001ED01949194A41F823504FF48013C2F8EE
:100320000031BDE8F883D3F8149083F810803A6860
:100330009B694846194642B190470028DED0104AD2
:100340004FF4A771FFF79CFED8E71846C847D5E7DA
:10035000531CDBB2022B08BF00230B70D9E700BF90
:1003600000100140502800204C2800205428002074
:1003700058280020592800206428002000E100E0CF
:10038000E41304002DE9F04FA44AA5491378097835
:10039000A44889B000680090994200F0EB800133D6
:1003A000DBB2022B08BF002313709F4A52F8236070
:1003B000009B9C4A334423F07F4313604FF0010EAF
:1003C0009A4B079693F800A0994BCDF818A0D3F854
:1003D0000090964B5B7801931D46944BD3F804B084
:1003E0009B7802931C46934B1B7804938D4B0027FC
:1003F0001B68039351464A464B460597BC46384610
:100400002646B846A9421AD001EB410401311BF837
:100410003470C9B2B14208BF0021022F0BEBC404F3
:1004200000F08380032FEDD1002BEBD0DA69187434
:100430001346002AFAD1A9424FF0010CE4D1DDF8AD
:1004400018A0079E4746BCF1000F40F0A380059A14
:1004500012B1744A03991160002F40F09C82BEF1E2
:10046000000F40F0C681B9EB030218BF01220792CA
:10047000059375461E466B4ACDF810B0D2F800C001
:100480006B4ADFF8B891D646D2F800A0694A00233B
:10049000127800931F4606924FF001089B463DB329
:1004A0006A68A9682C46ED69CCEB020323F07F4310
:1004B0004B4572D80B4423606760A76084F81080B6
:1004C000E761002E00F08B80316899427ED2304681
:1004D00003E01168994269D21046C2695B1A002A8A
:1004E000F7D12360E2613346C4611E46002DD7D1A7
:1004F000019B9E4500F0A4800EEB4E03049911F879
:100500003320039210460EF1010E029A5FFA8EFE1E
:10051000724508BF4FF0000E012801EBC30364D001
:100520003346012200921E46E0E76468002B3FF448
:1005300069AF9C429A4601D115E0BA46DAF81C70C0
:10054000002F3FF45FAFBC42F7D1BA450CD0FC6935
:100550003F68CAF81C40002C3FF454AF23683B446A
:10056000236013464EE71F46DA6932B113464FF057
:10057000010CECE70026B64622E72F4B4FF00108AE
:10058000C3F80880C44613460392CDF81080CDF816
:100590001480DCE726490A6059E7C2EB0C0222F01E
:1005A0007F428A4209D28B1A236085E7C91A1160FB
:1005B0002360E2613346C46197E727606760A76004
:1005C00084F81080E76156B131680023CB1A33609C
:1005D0002346E661A2464FF0010B1E4686E72346FE
:1005E000A2464FF0010B1E4680E75C68227C009219
:1005F00082B99A686260D968A1601869E0605B6935
:10060000A361069B002B00F0F180009A62600093CA
:100610002A4649E733461E4668E700BF58280020AF
:10062000592800204C280020642800205C28002045
:10063000502800205A28002000100140FEFF7F00B3
:10064000009B5A46002B40F0AE8112B1824BC3F89A
:1006500000A0059BB34200F0BF80002E00F00A818D
:100660007E497F4CD1F8040525783368CCEB000235
:1006700022F07F420332002D50D17A4DDFF8ECE1B9
:10068000794F4FF48036C1F84463C1F804634FF4E6
:100690000036C5F880612E6001250D60DEF800602F
:1006A0002F2100BF00BF00BF00BF00BF00BF00BFC1
:1006B00000BFBE422FD000BF00BF00BF00BF00BFC1
:1006C00000BF00BF00BF00BF00BF00BF00BF00BF32
:1006D00000BF00BF00BF00BF00BF00BF00BF00BF22
:1006E00000BF00BF00BF00BF00BF00BF00BF00BF12
:1006F00000BF00BF00BF00BF00BF00BF00BF00BF02
:1007000000BF00BF00BF00BF00BF00BF00BF00BFF1
:1007100000BF00BF00BF0139C3D1257093422CBF79
:100720009C4494444D492CF07F43C1F84035D1F8A6
:100730000425121A1B1A22F07F4223F07F43033252
:100740009A424DD9D1F80435484AC1F8403512686B
:1007500045492F2300BF00BF00BF00BF00BF00BF3F
:1007600000BF00BF8A422FD000BF00BF00BF00BF44
:1007700000BF00BF00BF00BF00BF00BF00BF00BF81
:1007800000BF00BF00BF00BF00BF00BF00BF00BF71
:1007900000BF00BF00BF00BF00BF00BF00BF00BF61
:1007A00000BF00BF00BF00BF00BF00BF00BF00BF51
:1007B00000BF00BF00BF00BF00BF00BF00BF00BF41
:1007C00000BF00BF00BF00BF013BC3D1254B4FF4AA
:1007D0000032C3F8002103E0079B002B7FF43DAFFC
:1007E000234A0023137009B0BDE8F08F039B0093E8
:1007F0005AE6194ADDF800C0176800200546014690
:100800000446ABB11A68B2421BD8D8681C60B61A4D
:100810001144DA6938B10CEB010727F07F47DD613D
:1008200098605F601D46134617467046002BE9D15D
:10083000002840F0BC800023059301230793059E08
:1008400019E6002840F0AC80921B05931A60012342
:100850000793059E0FE600BF5028002000100140BE
:100860006C28002000E100E00024F4006022002059
:100870005A2800204F4A504B504D51484FF4803178
:100880004FF400370124C3F88070C2F848132F23B7
:10089000C2F80813546029681D4600BF00BF00BF9E
:1008A00000BF00BF00BF00BF00BF81422FD000BF0C
:1008B00000BF00BF00BF00BF00BF00BF00BF00BF40
:1008C00000BF00BF00BF00BF00BF00BF00BF00BF30
:1008D00000BF00BF00BF00BF00BF00BF00BF00BF20
:1008E00000BF00BF00BF00BF00BF00BF00BF00BF10
:1008F00000BF00BF00BF00BF00BF00BF00BF00BF00
:1009000000BF00BF00BF00BF00BF00BF00BF013D70
:10091000C3D194602B4A166000BF00BF00BF00BF68
:1009200000BF00BF00BF00BF81422FD000BF00BF8B
:1009300000BF00BF00BF00BF00BF00BF00BF00BFBF
:1009400000BF00BF00BF00BF00BF00BF00BF00BFAF
:1009500000BF00BF00BF00BF00BF00BF00BF00BF9F
:1009600000BF00BF00BF00BF00BF00BF00BF00BF8F
:1009700000BF00BF00BF00BF00BF00BF00BF00BF7F
:1009800000BF00BF00BF00BF00BF00BF013BC3D11D
:100990000D4B1E7024E70D4A9DF8101011705EE596
:1009A0000B490F6050E70B4B83F800E04DE6084B16
:1009B0001F6040E70010014000E100E060220020DD
:1009C0000024F4004C2800206C2800205A28002025
:1009D000502800205C2800202DE9F04712F0030485
:1009E00002D00720BDE8F087002AFAD05F4D604EA4
:1009F000DFF88891DFF888C14FF4803E4FF400376C
:100A00004FF00108C6F88070C5F848E32F27C5F8F5
:100A100008E3C5F80480D9F800E0B94600BF00BF7C
:100A200000BF00BF00BF00BF00BF00BFE6452FD022
:100A300000BF00BF00BF00BF00BF00BF00BF00BFBE
:100A400000BF00BF00BF00BF00BF00BF00BF00BFAE
:100A500000BF00BF00BF00BF00BF00BF00BF00BF9E
:100A600000BF00BF00BF00BF00BF00BF00BF00BF8E
:100A700000BF00BF00BF00BF00BF00BF00BF00BF7E
:100A800000BF00BF00BF00BF00BF00BF00BF00BF6E
:100A9000B9F10109C2D1C5F8088000BF00BF00BF8D
:100AA00000BF00BF00BF00BF00BFE6452FD000BFA2
:100AB00000BF00BF00BF00BF00BF00BF00BF00BF3E
:100AC00000BF00BF00BF00BF00BF00BF00BF00BF2E
:100AD00000BF00BF00BF00BF00BF00BF00BF00BF1E
:100AE00000BF00BF00BF00BF00BF00BF00BF00BF0E
:100AF00000BF00BF00BF00BF00BF00BF00BF00BFFE
:100B000000BF00BF00BF00BF00BF00BF00BF013F6C
:100B1000C3D1DFF870E0DFF870A0164FDFF86C90FB
:100B2000DFF86C80DFF86CC08EF80040CAF8003047
:100B30004FF4801EC023B9703C707C70C9F800402F
:100B400088F800408CF800400B49C6F880E186F830
:100B50001433C6F800E0C5F8080586F81133D5F857
:100B600004350B607A602046BDE8F0870010014034
:100B700000E100E05C2800204C28002060220020DA
:100B80000024F4006C280020542800205028002065
:100B90005828002059280020074B5B6823B12AB150
:100BA00020B10368187C18B10820704707207047EF
:100BB00059745A61704700BF5C2800202DE9F0434A
:100BC000274C636883B033B128B1042907D80720C4
:100BD00003B0BDE8F083082003B0BDE8F0834369AB
:100BE000002BF8D0054602A86B7C0026012B00F8EC
:100BF000016D0CBF8946B14690460F4600F098F84B
:100C00006378A07821785A1CD2B2904208BF32464D
:100C100091421FD003EB43036068DB00C11819D079
:100C20004FF0010E00F803E00E4B4D60D3F8043591
:100C30008B609DF80700CF60C1F81090C1F8148058
:100C4000627000F09DF8084B4FF480123046C3F8F4
:100C50000021C1E79DF8070000F092F80420BBE7EF
:100C60005C2800200010014000E100E0F0B51C4EBF
:100C7000736883B053B348B343693BB3054602A8D6
:100C8000002400F8014D2C7400F052F87378B0780D
:100C900031785A1CD2B2904208BF2246914218D0F5
:100CA00003EB43037168DB00CF1812D00220C85455
:100CB0007D609DF80700727000F062F8094B4FF4F8
:100CC00080122046C3F8002103B0F0BD082003B015
:100CD000F0BD9DF8070000F053F80420F7E700BFCF
:100CE0005C28002000E100E0411A21F07F41116002
:100CF00000207047082910B5044604D0044A142186
:100D00000020FFF7BDF923686068BDE81040184770
:100D10002014040000B583B08DE80300034A0821C5
:100D20006846FFF721FA03B05DF804FBF50C0200FA
:100D3000F0B4EFF3108472B60E4B9A68B2B90E4954
:100D400001259D60D1F880700C4D2E463D401D6000
:100D5000C1F88060D1F884505D604FF0FF33C1F876
:100D60008430027004B962B6F0BC7047012303708E
:100D7000F8E700BFAC58002000E100E0FC06FFBC33
:100D8000094B9A6872B168B910B4EFF3108272B669
:100D900006491C680C605C684C60986002B962B6D9
:100DA0005DF8044B704700BFAC58002000E100E044
:100DB000F0B52B4C2B4F6368668883B0002B48D06E
:100DC00036015A88B9190332496803EB820201F5EA
:100DD0008050824225D21368013318BF4FF6FF7549
:100DE0001FD09388AB4213D013888BB162601E482A
:100DF0005388868801681D480025033300959BB2FF
:100E000001EB86010325257001F070FA03B0F0BDF7
:100E10005388033302EB8302824202D21368013308
:100E2000DFD13E44B38963B10F4D104829680227D2
:100E3000052600230122AF80267001F0AFFA03B02F
:100E4000F0BD0122094801F0A9FA0423237003B080
:100E5000F0BD3601BB19596801F10802B7E700BFC0
:100E600008290020E828002090290020BC2200202A
:100E7000F0B543688E464BB1304A1468A34205D39F
:100E80005268934202D813F0030236D000232C4E4E
:100E9000AEF800304FF0010C4FF6FF757768002375
:100EA00007F58054C3B15A88033203EB82039C4296
:100EB00016D91A68013213D09A88AA42F3D01A8838
:100EC000002AF0D0026899689142EBD11D4A436034
:100ED000138903810120F0BD07F108039C42E8D883
:100EE0000CF10103AEF800C01FFA83FCBCF1030F44
:100EF00006F11006D2D10020F0BD124C05892489DC
:100F0000A542C3D105689C68A542BFD10C4C60685E
:100F1000834205D900F58050834201D2134608E090
:100F200062699342E7D902F58052934238BF0123A8
:100F3000E1D2AEF800300120F0BD00BFBC2200209D
:100F4000E828002008290020B3F804C0BCF1010FF4
:100F500054D82DE9F043DFF8AC8091464FF6FF7787
:100F600000224FEA0C1408EB040E18F80440002C81
:100F700033D11C68002C3CD06588DEF80460033552
:100F800004EB850406F58056A64225D9256801356F
:100F900022D0A588BD4219D02588BDB11C6018B1EA
:100FA000A6880588AE42E5D119B126880D88AE42E3
:100FB000E0D1A268C9F800201A68114BC9F80420D2
:100FC0001B89A9F808300020BDE8F0836588033547
:100FD00004EB8504B442D9D31A600CF1010C1FFA5A
:100FE0008CFCBCF1020FA3F804C0BAD10A20BDE802
:100FF000F083DEF8046006F10804C3E70A207047B6
:1010000008290020E82800202DE9F04FAF4C256F7B
:10101000EF007E1BB6008BB0A25D531E804604EB32
:10102000060BA146052B00F2CF82DFE803F06748EC
:10103000481E1E03002840F0D680DFF8ACE29EF880
:101040000C30002B00F017839EF800308EF80C0057
:10105000013B062B00F2B782DFE813F0E6029702AD
:101060008E016E01B502A2027C02002840F0BC8015
:10107000C5EB070A04EB8A03029393F804A0BAF1C4
:10108000010F00F03E83C0F02883BAF1020F41F651
:101090001D5318BF0F2341F61D518B4200F0AA804B
:1010A00019F8061006938B1E012B40F2C480013AFA
:1010B000052A33D8DFE802F075907966592F7B1B3B
:1010C00004EB83038249B3F812A001EB0A1A00284B
:1010D00040F09B80BAF80800DAF804101B7C01EBA2
:1010E00080010291062B00F28A83DFE813F05D0194
:1010F000A8018901F101DB01C901C60100287CD1E9
:101100009BF80430032B00F27C83DFE813F0080126
:10111000F100CE009E0005238DF814306D4D05F1D1
:10112000200655F8043F0BB105A89847B542F8D101
:10113000206F664DC0EBC00004EB80001C22002134
:10114000FEF700FA636F43B12A6F0132013B02F0F0
:1011500003026B672A67002B67D15F4A137823F07D
:10116000040313700BB0BDE8F08F7B1B04EB83030B
:101170000422DB88ADF8203000238DF81420ADF870
:101180002230CBE77B1B04EB83030322D888198929
:10119000DB680793ADF82000ADF822108DF814201D
:1011A000BCE700238DF81430B8E77B1B04EB830306
:1011B00002211A7C1E899D88D868ADF82060A2F1B2
:1011C0000603B3FA83F35B098DF82430ADF822509F
:1011D00007908DF81410A1E77B1B04EB8303012219
:1011E00018899988D4E70622012341F61D518B42C4
:1011F0007FF456AF0023069359E737490B78012255
:1012000023F001030B70134645E7D888BAF80A307B
:10121000BAF8081000F1030E1B1A033B7144AAF838
:101220000A30AAF80810012335E70020FFF7ECFE8A
:101230000BB0BDE8F08F294B9BF81660186C596C09
:101240003044891B1864596431E7DFF8A080244AD0
:10125000D8F8001023484FF0000A0223CDF800A070
:1012600001F044F8204B1A495B88D8F800E08BF86D
:1012700004A01B01CA1801F803A05368B8F80410B1
:10128000C8F800300223C2F804E01181A8F8043045
:1012900000283FF467AF7B1B14F823200E490B781E
:1012A00023F001030B700E23F5E6DFF840800D48B4
:1012B000D8F800100023012201F070F80222002368
:1012C000A8F804208BF80430E2E700BF18290020BA
:1012D000E8280020B42800209C2900207028002045
:1012E00060140400BC22002008290020902900205E
:1012F000DFF8E88298F80030022B00F07E8298F840
:101300001030022B00F06782B04A137843F00203DA
:1013100023F001031370012241F61D53BBE6AC4BD1
:10132000AC4A1968AC4800230093022300F0DEFFAA
:1013300001238BF80430ABE7A84BBEF80220DFF89E
:10134000B08203EB02129389002B00F01782A04BAE
:10135000A148196802229A800522002388F80020FB
:10136000012201F01BF80346002B3FF4FBAE1C22C8
:1013700002FB05F2A25C93E69549DEF80420B1F881
:1013800004C009685388944801EB8C014FF0000CAD
:10139000CDF800C003334FF0030C9BB28EF800C0B1
:1013A00000F0A4FF0346DFE77B1B9B0004EB030870
:1013B00003930023009302998748012308F1040254
:1013C00000F094FF022388F8103000283FF4CAAEE2
:1013D000039B834AD25C0E23781B04EB8000BAF88F
:1013E0000A10B0F806E0BAF808000EF1030CCEEBD4
:1013F000010160440339AAF80800AAF80A104AE675
:10140000C5EB07084FEA880802997348002304EBEC
:10141000080208310C320093012300F067FF04EB4F
:1014200008036F499A7D002A0CBF012203221A7417
:1014300000283FF497AE11F808200E23CCE7C5EB47
:1014400007084FEA88080299634804EB08031A4624
:1014500000230431029200930832012300F046FF7A
:1014600014F808200299032A0CBF052306230B74E5
:1014700000283FF477AE0E23AEE741F61D53ABE7ED
:10148000584B594A5968544800230093012300F0EF
:101490002DFF002840F06B817D1B04EB85040623A3
:1014A00023745FE67B1B4FEA830804EB08024D4B75
:1014B00092691A601846002205A95A60FFF7D8FC05
:1014C00000287FF471AF464B13F808200A23E2E5A9
:1014D000DFF820E1DEF844C0BCF1000F00F0268107
:1014E000DEF840103C485EF83120C5EB070804EBFD
:1014F00088080EEBC10301310CF1FF3C01F007013C
:10150000CEF84010CEF844C00299B8F814E0039326
:1015100001EB8E014FF0000E9B88CDF800E000F04B
:10152000E5FE039A98F81630B8F814109288013B3B
:101530000A44DBB2A8F8142088F8163013B9012346
:1015400088F8103000283FF40DAE7A1B0E2314F8F3
:10155000222041E71E4B1F4A19681F4800230093B1
:10156000CEF8043007238EF80030022300F0BEFED0
:101570000346F9E6164ADEF80410938849880B44BE
:101580000333022193808EF80010FFF711FC03460D
:10159000002B3FF4E7AD1C2202FB05F2A25C7AE5CA
:1015A000BEF80230DFF834801B01434400220620DD
:1015B0005968009202238EF800000C4A064800F099
:1015C00095FE0346D0E606220F2364E59C29002001
:1015D000902900206C140400BC220020E828002080
:1015E00018290020DC28002068140400601404007E
:1015F0000829002070280020834BBEF808101A78B4
:101600001B7CB2FA82F2B3FA83F352095B0901310F
:101610008EF80A208EF80B3000220123AEF8081055
:101620008EF80C208EF800309EF80A30774A43B1CD
:1016300075498B89002090721BB98A7B002A40F083
:10164000C4809EF80B30714A43B16F4B998B0020D8
:10165000D07219B99B7F002B40F0B6807A1B002313
:101660008EF80030AEF80230CEF8043014F82220A4
:1016700041F61D530FE59EF80030072B3FF6E8AC0E
:1016800001A252F823F000BFF91502005110020028
:101690005110020075150200B11602005515020026
:1016A00055150200A916020001238EF80030BBE791
:1016B000BEF80230DFF85081554A1B0108EB0300E9
:1016C0001168D0F804A0B2F804C041600221C2F849
:1016D00000A0A0F808C0918067E7DB68CDF818800B
:1016E00005A80DF11201CDF81C800593FFF7C0FB92
:1016F00000284DD10A237A1B04EB820202211171CA
:1017000032E6444B1B789B0713D4022308220021A6
:1017100041480293FDF716FF029B0A2B7FF438AF76
:101720007A1B41F61D5314F82220B4E4DCF8003093
:10173000FFDE0298384B063005AA4146FFF704FC4D
:1017400003460028E2D15346344A0699CDF800807A
:10175000334800F0CBFD304A2B4B928803EB02124A
:1017600000280CBF43460E2382F80EA0D5E77B1B52
:101770009B00E1180620E25C08747CE6516828486A
:10178000012200F00BFE0422034688F80020EBE55E
:10179000069902988B88C380B1F800E01F4ACDF803
:1017A00000800123A0F808E01D4800F09FFD164BC3
:1017B000BDF8122003EB021200284FF0010114BF04
:1017C0000E230023917396E70123AEF80230FFF752
:1017D000EFFA0346DCE601234FEA031A08EB0A039B
:1017E000104A59680E4800230093022300F07EFD42
:1017F0004FF0000308F80A304AE50023ECE70F2316
:10180000EAE501224AE500BFE82800200829002077
:10181000902900209C290020A029002068140400A1
:10182000BC220020601404000846FFF7EDBB00BF97
:101830002DE9F04F0F894C6885B006463D46002FD4
:1018400000F0AE80206810F0030040F095809E46C6
:1018500004E054F830309B0740F08E80013087421E
:10186000F7D17346002A00F08B80B2F800905288BE
:101870000094BB466548DFF8A8C10768DCF87480AF
:10188000032B07F10107076003BF306803904FF097
:10189000040A4FF0000AB8F1030F60D8DFF870E1D6
:1018A000DEF844000446C5F108008442019456D88D
:1018B000DCF870000C884988029108EB000101F007
:1018C0000301C1EBC10189000CEB01000CF80130F0
:1018D000C280039A826108F101080023BDF8081054
:1018E00081804FF003020481C76080F810A0A0F847
:1018F000129080F816B082824381CCF87480E5B1F2
:10190000DEF84020019C144404F00702009C0EEB1A
:10191000C2020EF1380804EBC30103C9013302F11E
:10192000080C82E80300424514BF624672469D429D
:101930003749F0D14B6C2B444B6436B10023354A08
:10194000376073601289B372328133490B7803F0C8
:10195000040202F0FF04002A41D0002009E02F4BCE
:1019600003EB09190820B9F80A30033B9A1AA9F8C1
:101970000A2005B0BDE8F08F032005B0BDE8F08F68
:1019800004EBC70EA08808340244A64592B2F9D1F0
:10199000D01C80B240F2FD34A04205D90920E8E70E
:1019A000002A7FF462AF03201C4C94F80090B9F138
:1019B000000F07D1678925893D440544ADB2B5F5CF
:1019C000806F21D3277C154D3FB96F8B2D8B3D4404
:1019D0000544ADB2B5F5806F09D30720C9E743F0E0
:1019E000040320460B70FFF70FFB2046C1E74FF0C2
:1019F00001094D4604EB051438446081B1F808B084
:101A0000486800905D4635E74D46F3E79829002089
:101A100070280020082900209C290020E8280020A8
:101A200018290020074A1378082B09D010B4591C34
:101A3000054C117044F8230000205DF8044B7047FA
:101A40000C207047D8280020B82800202DE9F04F3E
:101A5000DFF8F8828DB098F80020002308930793F0
:101A600009930A930B9393070DD5AF4C04F120050E
:101A700054F8043F07A803B19847A542F8D10020C5
:101A80000DB0BDE8F08F12F00107F8D142F001026D
:101A900088F8002000F0CEFBA44BA54A1B6816680E
:101AA000039703F53F5A0AF13C0A03F1080903F5CD
:101AB00080500197043BBB464FF6FF74CDF808A059
:101AC0005A689C498A4203F1040526D003F58052E6
:101AD00002E0934200F0038153F8041F0131F8D073
:101AE0004FEA0B13944D03210BF1010BE9541FFA3C
:101AF0008BFB1346029A9A4209F5805900F58050F3
:101B0000DED1002F40F02681019B13F0FF0340F04F
:101B100092800B200DB0BDE8F08F9A6887498A4209
:101B200034D001318A42D1D1039A002A6BD1844941
:101B30000D604FF0020EA1F804E0DA6801324D4664
:101B400004D1EEE02A68B2F1FF3F14D0AA88A24285
:101B500006D02A8822B1AA68B24201D916460127C6
:101B60006A880332964405EB82051FFA8EFEA8426E
:101B7000A1F804E0E6D8BEF1020F14BF0822042247
:101B800001991143019103F58052B2E76A4A4FEA85
:101B90000B1C02EB0C0E4FF0000A02F80CA0022105
:101BA000CEF80450AEF80810DD6801354A4612D16F
:101BB0001AE09568B54201D92E46012755880335AC
:101BC000294402EB850289B29042AEF808100BD985
:101BD0001568013508D09588A54202D01588002DDA
:101BE000E7D14FF0010AE9E7534A9444019A8CF88F
:101BF0000EA042F002020BF1010B01921FFA8BFBC7
:101C000003F5805275E74C4A4FEA0B1102EB010CC9
:101C10004B4A12680492484A4FF0020E02F801E063
:101C20000BF1010B049A4649CCF804201FFA8BFBF8
:101C3000ACF808E07CE7062B0AD0013B0A2B1CD845
:101C4000DFE803F0191B191B471B471B444A4400DC
:101C500098F80030344C43F0020323F0010388F875
:101C6000003004F1200554F8043F07A803B1984759
:101C7000A542F8D103E700230593324A516F0329A7
:101C800012D8314B5B6C082B0ED8136F0B4403F04A
:101C90000303C3EBC3039B00D0180124D4540131C8
:101CA0009DF814300371516798F80030274903F00C
:101CB000040202F0FF04002A7FF4E1AE43F00403C3
:101CC00020460B70FFF7A0F92046D9E603230593C1
:101CD000D3E701230593D0E702230593CDE7184B03
:101CE0001B68BBB114494FEA0B1301EB030E1849F3
:101CF000CEF80450104DA1F802B002210BF1010CF6
:101D0000E9541FFA8CFBAEF80810019B43F0010365
:101D10000193EEE60A4902238B8001230D600393B1
:101D2000F3E704222CE700BFB4280020BC220020E7
:101D300098290020DEC0ADDEE8280020FE011EF15B
:101D40009029002018290020702800209C290020BC
:101D500008290020014B1E60D6E600BF982900200C
:101D600060B159B130B583B00C460DF1060105469E
:101D7000FFF77EF820B90A2003B030BD0520704778
:101D8000BDF80620074B686803EB021301219A890E
:101D90000A449A8120606B6800200C336360A9724A
:101DA00003B030BDE828002050B110B582B00DF16D
:101DB00006010446FFF75CF820B90A2002B010BD06
:101DC00005207047BDF80620084B03EB02139A89E3
:101DD00012B9062002B010BDA17A0029F9D0002165
:101DE000013A9A810846A172E8E700BFE82800207E
:101DF0001E4B1B789B0702D402231846704740B144
:101E0000CB1C9BB240F2FD32934205D90923184600
:101E1000704705231846704770B4154A167896B96E
:101E20005489158925441D44ADB2B5F5806F0AD299
:101E3000354602EB0512234453810680418000237E
:101E4000184670BC7047147C094D54B96C8B2D8BAF
:101E500025441D44ADB2B5F5806F02D2012635464A
:101E6000E7E70723184670BC704700BF9C29002095
:101E7000E8280020124B1B789B0702D40223184647
:101E80007047C8B10388022B02D904231846704753
:101E900010B40C49448801EB03135A89111B032920
:101EA0000CD4033A0021121B5A810B460180418059
:101EB00018465DF8044B70470523E0E70423F7E775
:101EC0009C290020E82800200D4B1B789B0701D49B
:101ED0000220704759B110B40C884FF6FF739C4232
:101EE00001D04B882BB904205DF8044B70470520C6
:101EF0007047022300225DF8044BFFF799BC00BF36
:101F00009C2900203AB130B40C4C2478A30704D4A7
:101F1000022030BC70470520704769B10D884FF62C
:101F2000FF74A54201D04B8813B9042030BC704720
:101F3000022330BCFFF77CBC0520EAE79C29002087
:101F400028B10E4A1278930703D402207047052067
:101F500070470029FBD010B40C884FF6FF729442F2
:101F600001D04B881BB904205DF8044B7047032354
:101F700000225DF8044BFFF75BBC00BF9C290020EA
:101F8000F8B51A4A1378990701D40220F8BD4FF624
:101F9000FF7188421DD0164D6C6F032C1BD815495C
:101FA000496C082917D8296F214401F00301C1EBBE
:101FB000C10189006F18661C05246C54012403F0CC
:101FC00004013C71F88001F0FF046E6729B1002024
:101FD000F8BD0420F8BD0820F8BD43F004032046F6
:101FE0001370FFF711F82046F8BD00BF9C290020B0
:101FF0001829002070280020F8B5174A137899078F
:1020000001D40220F8BD1548416F03291AD8144C99
:10201000646C082C16D8046F124D0C4404F00304B1
:10202000C4EBC4042E780131062700F82470416700
:102030000EB10121297303F0040101F0FF0419B16D
:102040000020F8BD0820F8BD43F0040320461370BB
:10205000FEF7DAFF2046F8BD9C2900201829002051
:10206000702800200829002010B50C4C82B0ADF873
:1020700006002078ADF80410810702D4022002B0D7
:1020800010BD3AB133B101A90DF10600FEF75CFFB6
:1020900002B010BD052002B010BD00BF9C29002079
:1020A00000B50D4B83B0ADF806001878830703D454
:1020B000022003B05DF804FB51B14AB11346002081
:1020C0000A460DF10601FEF73FFF03B05DF804FB81
:1020D000052003B05DF804FB9C29002000B50D4BE2
:1020E00083B0ADF806001878830703D4022003B04C
:1020F0005DF804FB51B14AB113460DF106000A46E2
:102100000021FEF721FF03B05DF804FB052003B0BA
:102110005DF804FB9C29002020B119B103680B6015
:10212000002070470520704729DF704728DF70477F
:1021300070B50C4D696E042911D02B6E0B44032B26
:1021400088BF043B182202FB035406464B1C204662
:1021500000216B66FDF7F6F93460012070BD0020A8
:1021600070BD00BFAC29002070B5304C636E84B0E8
:102170007BB1256E6E00731904EBC3031A7A012A32
:1021800009D0022A26D19889FFF7D0FF112818D04C
:1021900000BB04B070BD70199A8ADB8A04EBC000E2
:1021A000D21AC1680069B2F5806F4FEA8303B4BFE9
:1021B00092B24FF4806219441844FFF7B5FF11281A
:1021C000E6D11B4A137823F0020343F00403137093
:1021D00004B070BD102268460021FDF7B3F97319F1
:1021E00004EBC3031A7A012A17D0022A09D19A896B
:1021F000DB89ADF80A20D21A0123ADF808208DF84A
:1022000000303544ED006219635952680192684606
:102210009B680921984704B070BD1A699B8A029295
:1022200000218DF80010ADF80C30EAE7AC29002051
:10223000A82900202DE9F0434FF010235D696B1CA5
:1022400049D0DFF8A48098F800C01CF0010F3FD1FE
:10225000DFF890E02248CEEB0000000934D00EEB0E
:102260000011734607461A6812B15A6802B1013F5D
:1022700010338B42F7D13FB300260022194B914611
:10228000F4B206E0596839B10132904203F110030B
:102290000ED019680029F5D1597B494588BFD4B2C1
:1022A00002F1010288BF8946904203F11003F0D188
:1022B000240104EB0E0301361A7B5D60B742A5EBE7
:1022C000023544F80E50D8D14CF0010C88F800C00B
:1022D0000020BDE8F0834FF080535D692D03B0E727
:1022E000CC220020BC220020A82900202DE9F041AA
:1022F000274C2578EE0782B012D510B1254DA842A3
:1023000003D2022002B0BDE8F081234DA842F8D2EA
:1023100052B149B142EA0105AD0707D00620F1E705
:10232000012002B0BDE8F0810320EBE70568A94277
:1023300001D20520E6E7466801EB8305AE42F8D3FB
:102340000BB90420DEE7804601A81E4615460F465D
:10235000FFF7EEFE08B90720D4E701992378C1F80A
:102360000080019A0898486013F006044FF00101BC
:10237000D560176196821172054A01D00020C1E72D
:1023800043F002031370FFF7EFFE2046BAE700BFE9
:10239000A8290020BC220020CC2200202DE9F041F9
:1023A000244C2578ED0782B010D510B1224DA842FB
:1023B00003D2022002B0BDE8F081204DA842F8D23D
:1023C00041B1C1F30B053DB10620F3E7012002B096
:1023D000BDE8F0810320EDE70568A94201D20520A0
:1023E000E8E7466801EB0235AE42F8D30AB90420AB
:1023F000E0E7804601A81E4615460F46FFF798FE07
:1024000008B90720D6E701992378C1F80080019A1E
:102410004E600220390B13F0060491811582107270
:10242000044A01D00020C5E703431370FFF79CFE68
:102430002046BFE7A8290020BC220020CC22002093
:1024400020B1034B5B6E0360002070470320704790
:10245000AC2900202DE9F047DFF8B082A94C98F8AC
:102460000030266E990784B079D5022800F0B68036
:10247000032840F0AF80A44D2B780133DBB2032B4F
:102480002B7040F2A780002710222F703946684633
:102490007500FDF757F8AB1904EBC303E9461A7A48
:1024A000012A00F0E180022A09D19A89DB89ADF87E
:1024B0000A20D21A0123ADF808208DF800303544E7
:1024C000ED0062196359526801929B688D4F48462E
:1024D00008219847636E013B6366002B40F0FD8046
:1024E0003A6E98F80010013221F00201042A88F8AF
:1024F00000103A6630D1002626666BB37500AB1922
:1025000004EBC303AA1904EBC202117A01293DD0DE
:1025100002297FD0102268460021FDF713F8AB197D
:1025200004EBC303E9461A7A012A7ED0022A09D1B4
:102530009A89DB89ADF80A20D21A0123ADF8082068
:102540008DF800303544ED006219635952680192EC
:1025500048469B680921984704B0BDE8F0875A07B0
:1025600038D5626E03F0FB0388F80030002AF3D000
:10257000750043F00203AA1988F8003004EBC20387
:10258000AA1904EBC202117A0129C1D1D38AAA196E
:1025900004EBC202A819928A04EBC000D21AC168E7
:1025A0000069B2F5806F4FEA8303B4BF92B24FF473
:1025B000806219441844FFF7B7FD11282FD198F80D
:1025C000003023F0020343F0040388F8003004B025
:1025D000BDE8F087636E002B90D1BDE77500AB19A5
:1025E00004EBC307484A3B7A4FF0000A012B82F8FC
:1025F00000A023D0022BEDD1FB89BA89398A01339F
:102600009BB201329942FB81BA8155D0636E002B97
:10261000A2D03B469889FFF789FD1128CFD000282A
:102620007FF478AF04B0BDE8F0871A699B8A029204
:1026300000218DF80010ADF80C3083E7FB8AB88AD2
:10264000C21AB2F5806FB4BF92B24FF480621344E5
:10265000A9199BB204EBC1079842FB82294A0BD00F
:10266000526E002A93D177E71A699B8A8DF8007021
:102670000292ADF80C3022E7684610220021FCF7E8
:1026800061FF3B7A012BE94632D0022B09D1FA894E
:10269000BB89ADF80A309B1A0122ADF808308DF8DD
:1026A0000020AB19DB00E218E3585268019248465B
:1026B0009B68144F00210CE7684610225146FCF736
:1026C00041FF3B7A012BE946DFD13A69BB8A8DF89D
:1026D00000A00292ADF80C30E3E73E6E0136042E06
:1026E0003E663FF408AF7500AB1907EBC30309E77B
:1026F0003A69BB8AADF80C3000218DF800100292C7
:10270000CFE700BFAC290020142A0020A829002010
:10271000C30710D4810710D4420710D4030710D484
:10272000C10610D4820610D4430610D4C30910D1B8
:102730004FF6FF707047002070470120704702205D
:10274000704703207047042070470520704706201B
:1027500070470720704700BFE8B1E1B110B40488AA
:1027600094422AD04488944229D08488944228D024
:10277000C488944227D00489944226D04489944244
:1027800025D08489944207D0C089904208BF07248D
:1027900003D05DF8044B7047062433B1087801225A
:1027A00002FA04F303430B70F3E70A78012000FAFE
:1027B00004F322EA03030B70EBE70024EDE70124A6
:1027C000EBE70224E9E70324E7E70424E5E705242F
:1027D000E3E700BF2DE9F0439DF81C4008B301B3C7
:1027E000FAB105889D4200F0E48045889D4200F0E2
:1027F000E68085889D4200F0E480C5889D4200F017
:10280000E28005899D4200F0E08045899D4200F00C
:10281000DE8085899D4206D0C089984208BF072086
:1028200002D0BDE8F083062001238340484200F037
:1028300003009042DBB228BF1046002C5BD1042A73
:1028400000F2AF8010460D78DC43E4B22540012849
:102850000D7000F0B2804D78022805EA04054D7035
:1028600000F0AB808D78042805EA04058D7040F0F7
:10287000B480CD782C40CC7004468242D1D0C0EBDD
:10288000020EAEF10406551EB6082D1A0136022DB1
:102890004FEA860C1AD9002563F3070563F30F2569
:1028A00063F31745084463F31F65ED43A0F1040982
:1028B0004FF0000859F8047F08F101082F40B04597
:1028C00040F8047BF6D3E6456444AAD00D5DDB43B3
:1028D000D8B200EA0503651CAA420B55A1D94E5D8A
:1028E000A31C9A4200EA06044C5578D9CA5C1040F1
:1028F000C854BDE8F083042A57D810460C78012844
:1029000044EA03040C7056D04C78022844EA0304CD
:102910004C7050D08C78042844EA03048C705AD14F
:10292000CC781C43CC700546824252D0C0EB020EDC
:10293000AEF10406541EB608241A0136022C4FEAE2
:1029400086081AD94FF0000C63F3070C63F30F2CC1
:10295000084463F3174C63F31F6CA0F104090027CC
:1029600059F8044F01374CEA0404B74240F8044BCD
:10297000F6D3C64545443FF454AF485D6C1C18433C
:10298000A24248557FF64DAF0E5DA81C824243EA35
:1029900006050D557FF645AF0A5C13430B54BDE8A1
:1029A000F08300283FF46BAF4DE705460028BDD00B
:1029B000A4E7002038E70546B6E704465DE70120B6
:1029C00032E7022030E703202EE704202CE7052021
:1029D0002AE7BDE8F0830325A6E703244DE7BDE819
:1029E000F08300BFD0B1038893421ED04388934246
:1029F0001DD0838893421CD0C38893421BD0038987
:102A000093421AD04389934219D08389934206D0C6
:102A1000C389934208BF072002D0002070470620D8
:102A200041FA00F000F0010070470020F8E70120B3
:102A3000F6E70220F4E70320F2E70420F0E70520A0
:102A4000EEE700BF00293AD012F0010330B402D003
:102A50000B8883800123950704D500EB43044D8840
:102A6000A5800133540704D500EB43048D88A5806D
:102A70000133150704D500EB4304CD88A58001334D
:102A8000D40604D500EB43040D89A58001339506D7
:102A900004D500EB43044D89A5800133540604D5C9
:102AA00000EB43048D89A5800133D20904D000EBEB
:102AB0004302C98991800133036030BC70470160D3
:102AC000704700BF0A7B4B6810B40C68002A0ABF2D
:102AD000234600220122027103605DF8044B704717
:102AE00010B40279034652B148681C688A68011B19
:102AF000914210D9A01818605DF8044B7047046823
:102B000008688A68211A91420BD8012218601A714C
:102B10005DF8044B7047002218601A715DF8044B91
:102B20007047A01A18605DF8044B7047C0B20023CC
:102B300088724B72704700BF2DE9F04184B004AE3B
:102B4000002306F80C3D04460D463046FEF7F0F82B
:102B50001DB9E368002B40F08D800025A84604F1E4
:102B600010071DE0597901F001018DF80410CDF82E
:102B70000C808DF807509B7913F0010F0CBF0022D9
:102B800020223146384601F023FD002876D0E36844
:102B90001B68002B77D130468DF80430FEF7C8F85B
:102BA0006379A279DBB293425FD019B222682079AF
:102BB00052F821105A1CD3B2984238BF00236371D7
:102BC0000B46E360E368002B54D09DF80400FEF749
:102BD000D7F82572227AE368D2B298680FFA82FE9B
:102BE0004FEACE0C00EB0C03597949088DF805101B
:102BF00050F83E10029119798DF806109979C9079D
:102C0000B0D5587910F001013BD1D4F80CE09EF812
:102C10000CE001327245A8DAE26892680CF1080C07
:102C2000624452795208B2EB500F9ED1E268237A87
:102C3000916851F80C2003928C4401339CF80420D5
:102C40008DF807209CF8052012F0010F0CBF03221D
:102C500002228DF804209CF80620DBB212F0010F4E
:102C60000CBF0022202223728BE70023E360E3687D
:102C7000002BAAD19DF80400FEF782F804B0BDE84D
:102C8000F081012171E7E268E36851681B689847A9
:102C900030468DF80450FEF74BF860E770B50078C9
:102CA00084B00C46A0B90B7ACA680133127BDBB240
:102CB0009A420FD8E3681B6823B1E268E368516861
:102CC0001B68984720460121FFF736FF04B070BD0E
:102CD0000320EFE70B720A7ACB68D2B2986815B27C
:102CE000EE008319597949088DF8051050F8351010
:102CF0000291997918798DF80600C9072DD5587970
:102D000010F001013FD1E5682D7B0132AA4227DA9C
:102D1000E268956806F1080215446D796D08B5EB17
:102D2000500F1DD1E168237A8968885803900A44BE
:102D300001335079917912798DF8072010F0010F45
:102D40000CBF03220222DBB211F0010F8DF8042028
:102D500023720CBF002220220DE0597901F00101FD
:102D6000002203929B798DF8072013F0010F8DF854
:102D7000041018BF202201A904F1100001F028FC62
:102D8000002897D1A2E70121EAE700BF2DE9F04131
:102D9000044600F110061746984630462346094A75
:102DA00001F062FA054648B9304601F001FC657150
:102DB000C4F80080A57127716572E5602846BDE8FA
:102DC000F08100BF9D2C02002DE9F04387B006ADD5
:102DD000002405F8104D044628461E46884617462E
:102DE000FDF7A6FF637A002B36D103F0FF0901231C
:102DF00063729DF80800FDF7C3FF06A8214B00F899
:102E0000119D02930394CDF810808DF81470FDF796
:102E10008FFFA3792279DBB29A422AD06279013AF4
:102E2000934229D019B2226842F821500133227905
:102E30009DF80700DBB29A4238BF0023A371FDF76B
:102E40009FFF00212046FFF777FE6EB9637A002BC3
:102E5000FCD1A07AC0B204E09DF80800FDF790FF15
:102E6000112007B0BDE8F083637A002BF1D0B047A2
:102E7000EBE76279002AD1D19DF80700FDF780FFCA
:102E80001120EEE72D2B020030B50478012C83B021
:102E900024D010D3022C0CD1C368294929480193AE
:102EA00001228DF8004000F025FF274B68461B6883
:102EB000984703B030BD25492548FDF719F900288A
:102EC0002AD0234B9A68DB689A42F2D102A80323E6
:102ED00000F8083D1C4B1B689847EAE743681D4D06
:102EE00019782846FDF7ECF870B9AA68EB689A42A1
:102EF0001ED1A968EB68AA885B1A9A4212D2164BB7
:102F000001221A7003B030BD0F4B01908DF80040C4
:102F10001B6868469847ECE701220C49094800F015
:102F200031FECEE701220649064800F0E3FEC0E785
:102F300002AB054A03F8080D126818469047D8E717
:102F4000202A00208C2100201C2A0020182A002082
:102F5000242A0020382A0020342A00202DE9F043BA
:102F60002F4C89B02260002952D00C4680468A88B6
:102F70002C4809689946FDF793F810B109B0BDE8EF
:102F8000F083A289A1682848FDF78AF80028F5D1C6
:102F9000264D98F810E0D8F80C70D8F808600FCDDE
:102FA0006C460FC495E80F0098F8115002971EF177
:102FB000000E18BF4FF0010E002D84E80F00D8F866
:102FC0000050D8F804401A4A1A488DF81C9014BFD3
:102FD0000E2300238DF815306946D8F814308DF88B
:102FE00014E0069303968DE8300000F0EFFC002813
:102FF000C4D1D8F80030104A01331070BED09DF80B
:103000001D304BB101220D490A4800F073FEB5E7AF
:10301000072009B0BDE8F083064800F081FFF1E722
:103020001C2A0020382A0020242A002074140400BE
:10303000892E02008C210020342A0020202A002022
:1030400070B50C4C01460C482678FDF751F8054642
:103050000EB9284670BD0023012208490848237094
:1030600000F048FE0028F4D0064ABA21FDF708F81F
:10307000284670BD342A0020382A0020202A00204B
:103080008C2100209414040010B501460C48FDF773
:1030900017F8044608B1204610BD0A4800F01EFE8D
:1030A0000028F8D108490648FDF722F80028F2D197
:1030B000012205490348BDE8104000F063BD00BF90
:1030C000242A00208C210020182A002070B5161E0A
:1030D00007DD0C468D1914F8010BFFF7D5FFA5424B
:1030E000F9D1304670BD00BF10B50C462046FFF741
:1030F000A7FF0528FAD0012010BD00BF10B51A4B5C
:103100001A6882B0A2B100221A601B6800934FF0C7
:1031100080430122154C0099C3F80823A36862700C
:1031200033B10CCB0020A2609847A368002BF8D1E4
:103130000F4B1A68AAB100221A601B6801934FF066
:1031400080430222094C0199C3F808232369012214
:10315000A27033B10CCB0120226198472369002B68
:10316000F8D102B010BD00BF00010040482A002085
:103170000401004058B910B5054CA36833B10CCB1D
:103180000020A2609847A368002BF8D110BD7047BB
:10319000482A002010B582B002A80023114C00F884
:1031A000013DFDF7C5FD23788BB918460621636004
:1031B000A3602361E36000F017F80BF0BBFE20B9B9
:1031C0004FF080430122C3F8182501232370E368E0
:1031D0009DF8070001330122E360A270FDF7D0FDE6
:1031E00002B010BD482A0020002810B418DB00F1FE
:1031F000604303F561434901C9B283F80013C3B2C8
:103200004009800000F1604000F5614003F01F02BA
:1032100001239340C0F8803103605DF8044B704790
:10322000C3B2044A03F00F0449012244C9B2117623
:10323000E6E700BFFCEC00E030B51D4C94F85450BC
:1032400083B015B1082003B030BD06214FF0FF3325
:103250000846FF2223636363A363E3632364636419
:10326000A364E36423606360A360E360236163613C
:10327000A361E361236284F850306362A36284F83F
:103280005230E36284F8533084F85120FFF7ACFFEA
:10329000084B094A1D601B68019301984FF00043D9
:1032A0000121284684F85410C2F8043303B030BD1D
:1032B0005C2A00207C61004000600040034B93F8D2
:1032C0005400003018BF0120704700BF5C2A002066
:1032D000F0B5624C251895F93030002B01DB082041
:1032E000F0BD91F803E09446BEF1000F56D023687C
:1032F000013300F0A380002508266B1C574F54F8BB
:103300002320013251D0AB1C9E4245D957F82320CF
:1033100001324AD0EB1C9E423ED957F8232001329D
:1033200043D02B1D9E4237D957F8232001323CD081
:103330006B1D9E4230D957F82370013735D0AB1D35
:103340009E4229D954F82320444F01322DD0EB1D41
:103350009E4221D957F82320013226D005F10803D7
:103360009E4219D957F8232001321ED005F10903D6
:103370009E4211D957F82320013216D005F10A03D5
:103380009E4209D957F8237001370ED00B35AE4253
:1033900002D9E36A013307D00420F0BD236A013368
:1033A00053D008250C26A8E70B2326185DB244F855
:1033B00023C086F83050BEF1000F02D1234483F8B9
:1033C00048008B78A3B94A784FF0A04600F5E07327
:1033D000920046F82320CB78A3B9083D2C44097805
:1033E00094F8502042EA811284F850201846F0BD2B
:1033F000830003F1A043D3F8002722F00202C3F8B0
:103400000027E8E7AB0003F1804303F5C0430A78E7
:10341000D3F8101521F4473121F44071C3F8101589
:103420001204000202F44031D3F8104500F4F852BF
:103430000A432243C3F810250020F0BD002385F87D
:103440003030C4F800C01D46BBE7082685F8306060
:103450003346C4F820C03546B0E700BF5C2A0020E0
:10346000F0B42E4D2E1882B096F93030072B1CDDAB
:103470002B4493F848309B09032B41D0012B14BFF8
:103480004FF440334FF40033800000F1A040D0F8F7
:10349000002722F44032C0F80027D0F80027134359
:1034A000C0F8003702B0F0BC7047DAB2072AF9D88A
:1034B000980000F1804000F5C04003F14002920006
:1034C000D0F8104592B202F18042002744F0010486
:1034D00002F5C042C0F81045019701981760002915
:1034E000E0D096F9302055F82220002ADAD00122C7
:1034F0000B4902FA03F3C1F8043302B0F0BC704781
:103500004FF0A0420123D2F81025834013420CBF94
:103510004FF400334FF44033B6E700BF5C2A00207D
:10352000006000404FF0A043D3F8103523FA00F0BC
:1035300000F00100704700BF2DE9F047C44B1A6846
:10354000012A82B000F0D2810027C24B1A68012AFA
:1035500000F0BE81C04B1A68012A00F0AB81BF4B5E
:103560001A68012A00F09881BD4B1A68012A00F000
:103570008581BC4B1A68012A00F05C81BA4B1A683D
:10358000012A00F04981B94B1A68012A00F03681FE
:10359000B74B1A68012A00F02581002617F0FF0FAB
:1035A0001BD0DFF8D08201250024A30003F1804363
:1035B0002F4203F5C0434FEA45050BD0D3F8100561
:1035C00058F82420D3F81015C0F30420C1F30141AA
:1035D00002B190470134082CE7D1002F02DB02B082
:1035E000BDE8F087A34D95F95010481C4FF0FF3A05
:1035F0002F464FF000094FF0010800F0A980C9B232
:1036000021F0C0002AFA00F414F001041BD03B188A
:10361000890993F9303057F82330002B00F0CB8024
:10362000032908FA00F400F0CB80820002F1A042E6
:103630003440D2F800E7CEF3014E40F0A980BEF14D
:10364000030F00F07A8195F951104A1C22D0C9B2BB
:1036500021F0C0002AFA00F3DB071BD53B188909CB
:1036600093F9303057F82330002B00F0B380032952
:1036700008FA00FC00F0B380820002F1A04216EAD2
:103680000C0FD2F800E7CEF3014E63D1BEF1030F69
:1036900000F07A8195F95210481C22D0C9B221F06D
:1036A000C0002AFA00F3DA071BD53B18890993F901
:1036B000303057F82330002B00F08580032908FABA
:1036C00000FC00F08480820002F1A04216EA0C0F98
:1036D000D2F800E7CEF3014E46D1BEF1030F00F061
:1036E0003F8195F953104B1C21D0C9B221F0C00085
:1036F0002AFA00FA1AF0010F19D03B18890993F938
:10370000303057F82320002A4ED0032908FA00FC55
:103710004ED0830003F1A04316EA0C0FD3F800E764
:10372000CEF3014E2AD1BEF1030F00F0EF80002C42
:103730003FF455AF4FF0A043D3F810359E423FF40D
:103740004EAF95F95010481C1E46CA467FF457AF3D
:10375000002478E7BEF1020F9CD1032900F02B81F1
:10376000002B97D0984795E7BEF1020FB9D10329F6
:1037700000F01E81002BB4D09847B2E7BEF1020FD3
:10378000D5D1032900F01A81002AD0D09047CEE786
:10379000BEF1020FDCD1032900F013810024002BBD
:1037A0003FF451AF98474EE70329C0D108FA00FC17
:1037B00049EA0C09ADE7032940F0A68008FA00F4B5
:1037C00049EA040931E703298BD108FA00FC49EAE8
:1037D0000C0978E703297FF45DAF08FA00FC49EA99
:1037E0000C0949E700221A601B6801934FF0A043BF
:1037F000019AD3F8106547F00047CFE61E4AD2F889
:10380000042314067FF5C4AE00221A601B680093DF
:10381000009B47F08007BBE6174AD2F80423550601
:103820007FF5B1AE00221A601B680093009B47F041
:103830004007A8E6104AD2F8042396067FF59EAE0C
:1038400000221A601B680093009B47F0200795E652
:103850000061004004610040086100400C610040CC
:103860001061004014610040186100401C6100407C
:103870007C6100405C2A002000600040524AD2F87F
:103880000423D2067FF575AE00221A601B680093F0
:10389000009B47F010076CE64B4AD2F8042311074F
:1038A0007FF562AE00221A601B680093009B47F010
:1038B000080759E6444AD2F8042350077FF54FAE73
:1038C00000221A601B680093009B47F0040746E63D
:1038D0003D4AD2F8042394077FF53CAE00221A60DB
:1038E0001B680093009B47F0020733E63649D1F886
:1038F000041311F001073FF428AE002119601B6882
:1039000000931746009B20E61C469CE603297FF4A3
:103910003BAF4FF4003ED3F800C72CF4403CC3F853
:1039200000C7D3F800C74CEA0E0EC3F800E7002A20
:103930003FF400AF0134E4B228E703297FF42FAF4E
:103940004FF40034D2F800E72EF4403EC2F800E70E
:10395000D2F800E74EEA0404C2F8004701241EE74B
:1039600003297FF407AF4FF4003ED2F800C72CF4D0
:10397000403CC2F800C7D2F800C701344CEA0E0E32
:10398000E4B2C2F800E7F5E603297FF4E9AE4FF4AC
:10399000003ED2F800C72CF4403CC2F800C7D2F871
:1039A00000C701344CEA0E0EE4B2C2F800E7D7E6D5
:1039B0004FF4403ED9E74FF4403EEAE74FF4403E33
:1039C000A9E74FF44034BDE7006000402DE9F04125
:1039D0000479694D64012E1986B0F37E1BB108206D
:1039E00006B0BDE8F0814F7F37770E684FF0A04EEC
:1039F000012707FA06F6CEF808650E6806F5E076A8
:103A00004FF0030C4EF826C04E6806F5E0764EF8EF
:103A10002630067905EB4616377F002F50D0066812
:103A20008F69C6F8247591F815800F7D066848EAFD
:103A30000707C6F86C7591E840010768C7F80C6580
:103A4000C7F814850F7D012F00F08C802B190646D6
:103A50005A600B6948482B51EAB13379097F3268C3
:103A600000EB4310037F002B5BD1C2F81C31D2F86E
:103A70001C7132680097009FC2F84431D2F844218B
:103A8000336801923D48019AC3F80403306840F35B
:103A90000730FFF7A9FB3379326805EB43131B7F2F
:103AA000002B3AD00823C2F800352C440020012313
:103AB000E376E0752076A075A07606B0BDE8F081CB
:103AC00003688E69C3F8246591F815800E7D03683C
:103AD00048EA0606C3F86C6591E808010668C6F86E
:103AE0000C35C6F814850E7D012EAFD18B6803F519
:103AF000E0734EF82370CB6806FA03F3CEF808356E
:103B0000CB6803F5E0734EF823C00368CF688E6876
:103B1000C3F80875C3F8106598E70423C2F80035A8
:103B2000C3E70023C2F81031D2F81071326802974F
:103B3000029FC2F82031D2F8207132680397039FA8
:103B4000C2F82431D2F8247132680497049FC2F875
:103B50004431D2F84421336805920948059AC3F8E4
:103B6000040393E78E6806F5E0764EF82630CB68BE
:103B700007FA03F3C2E700BFB42A00208000020066
:103B800010030200F0B50379534C5B01E51887B0D0
:103B90002D7F3DB10D0C2D04B5F1005F02D010203A
:103BA00007B0F0BD23444C4F9E7D16B1112007B0E5
:103BB000F0BD9A7599609E8205796D017A19137F1F
:103BC00013BB0168C1F81C31D1F81C61016804966F
:103BD0000126049F8E600168D2F808E0C1F81C310C
:103BE000D1F81C310593059B968A938A5768B6B223
:103BF00001331EF806609BB29382C1F81C65002F4A
:103C00002FD0002007B0F0BD03689168C3F8206191
:103C1000D3F8207103680197019FC3F85861D3F866
:103C2000586103680296967D029FC3F84415C3F855
:103C300048650368012199605368002BE1D103684E
:103C400001E0002945D1D3F82021D3F85811002AEA
:103C5000F7D0002914BF0F2000202C440023A375A7
:103C60009EE7967D938A9BB29E4202F1140122D96F
:103C7000016804E0938A9BB2B3F5807F03D0D1F84A
:103C80001C31002BF6D0938A9BB2B3F5807FE9D02C
:103C9000C1F81C71D1F81C310393039BB2F814C016
:103CA000938A1FFA8CFC01331EF80CC09BB29382DE
:103CB000C1F81CC5D6E70B889BB2B3F5807F08D04E
:103CC0000268D2F81C31002BFBD00123D360002006
:103CD000C3E70F20C1E700BFB42A00200279044BDC
:103CE00003EB4213987D003018BF0120704700BFDE
:103CF000B42A0020F0B40379884E5B01F41888B030
:103D0000257F4DB10D0C2D04B5F1005F59D0102267
:103D1000104608B0F0BC70476568002D42D13344AE
:103D20007E4FDC7D002C2BD1DA75D9605C761C7659
:103D300005796D0173191F7F002F50D19B7E8BB9C0
:103D400084B90368C3F82441D3F82421036803929B
:103D5000039AC3F80841D3F80821036804920122AA
:103D600004991A6071194B68002B6FD003684FF4E7
:103D70000172C3F804230022104608B0F0BC70475B
:103D80001C7ED4B1002D00F0A980037907EB431706
:103D90003B7F002B53D003684FF40472C3F8042315
:103DA0001122B5E704684FF401773344C4F808736F
:103DB000DC7D5A4F002CB7D0E2E719611A76012456
:103DC000B6E76568002DAAD004684FF40477334441
:103DD000C4F80873DC7D514F002CA5D0D0E70368F0
:103DE0000025C3F81051D3F8107103680197019FA3
:103DF000C3F84451D3F8445103680295029DC3F8B7
:103E00003415C3F8382594B9036801221A60017982
:103E1000490173185B68002B62D003684FF4047289
:103E2000C3F804230022104608B0F0BC70470268B3
:103E3000D2F8003243F02003C2F80032E7E703680B
:103E40004FF40172C3F80423112261E70268C2F83B
:103E50004431D2F844310593059B0368D3F82471AB
:103E6000D3F80841D3F8442144B9002A2FD1002FB8
:103E7000F4D035440023EB75032249E7002FF8D135
:103E80003ABBCC7DC3F80821CCB1D3F808410694E5
:103E9000069CCF684C7ED3F818353B554B7ECC7DC5
:103EA0000133DBB24B764B7E9C42D6D835440021A1
:103EB000AB7EE9756BB303680121196028E7D3F87D
:103EC00008410794079CD3F818354B7EEEE7002F86
:103ED000CFD135440023EB750F2219E7112217E7E4
:103EE000036801E042B980B9D3F81041D3F8442106
:103EF000D3F82401002CF5D00E440023F3750028DC
:103F0000BAD19A4218BF0F2202E73144CA75032280
:103F1000FEE6036801215960FAE600BFB42A0020DA
:103F2000114A037902EB4313197FD9B99B7ECBB9B0
:103F300010B4016883B0C1F82431D1F8244101687C
:103F40000094009CC1F80831D1F808310168019350
:103F50000123019C0B60017902EB4112937603B0BF
:103F60005DF8044B704700BFB42A002070B59B4C2D
:103F7000237F8EB0002B75D1994AD2F8041389059E
:103F800048D4974BD3F80423520704D5D3F808211B
:103F9000002A40F0CA80924BD3F81C21C2B1A28AF9
:103FA000A07D8E4992B282424FF00002C3F81C21DC
:103FB00080F0A980D3F81C210692069A888A8A8A02
:103FC0008D6880B20132285C92B28A82C3F81C05E7
:103FD000834BD3F84421DAB10022C3F84421D3F84B
:103FE0004411A27E04910499002A40F08980E27D68
:103FF0007A4B6AB10022587ED968DA7501228DF8B1
:1040000030000B918DF828200AA893E8060090470D
:104010000EB070BDD2F824110029B2D0C2F82431FC
:10402000D2F82411A37E07914FF401710798C2F8CA
:1040300008130BB901235360694A02238DF8283015
:10404000D2F88034C2F88034E07DE2680D9300231A
:104050008DF83000E375237621680B9263680AA817
:10406000984798E75E4BD3F82421002A40F09380CC
:10407000D3F8101161B1C3F81021D3F810110391D6
:104080000399D3F83C15E07DC9B2884200F0AA80BC
:10409000534BD3F84421B2B10022C3F84421D3F8E2
:1040A0004411E07D019101994C4960B1D3F83C3550
:1040B000C8688DF830300123CA750B908DF8283010
:1040C0000AA80AC99847464BD3F82021002A9FD056
:1040D0000022C3F82021D3F82011A07D009100997F
:1040E0003E49002894D0D3F84C058B688DF83000F9
:1040F0008A750B938DF828200AC90AA8984787E784
:1041000001221A6073E7D3F81C310593059B002840
:104110003FF45EAF8B688DF830008A750B938DF895
:1041200028200AC90AA8984752E7E17D2B4A0029AE
:1041300070D00021C3F80811D3F80811089108992C
:10414000D068517ED3F818354354537ED17D013366
:10415000DBB25376627E214B8A427FF41CAF1A7E1B
:10416000002A6DD19B7E13B91D4B01225A601C4A57
:10417000E06863684FF40171C2F80813627E8DF83D
:104180003020002501220B902168E5758DF828204C
:104190000AA89847FFE60022C3F82421D3F8241187
:1041A000029102218DF828100299D3F88014C3F8E7
:1041B00080140D91D3F83C15E368E27522768DF8F2
:1041C00030100B93216863680AA89847044BD3F812
:1041D0004421002A3FF477AF5EE700BFB42A0020F5
:1041E00000200040217EF1B1D3F80062E17526F095
:1041F0002001E568C3F8001226698DF8300001231C
:104200008DF82830227621680B95E66063680AA84D
:1042100098473DE7C3F80811D3F808210992099A95
:10422000D3F8183596E7E268E17501238DF8300080
:104230008DF828300B9294E80A000AA8984727E7DF
:10424000DE685D7E1869DA7501210022D8601A7671
:104250005A768DF828100B968DF8305093E80600AA
:104260000AA8904797E600BF2DE9F04F0579244E44
:10427000AF0007EB050E4FEACE0E06EB0E0C83B037
:104280009CF822401CB1082003B0BDE8F08F46F82E
:104290000E20CCF80840CCF804308CF825408CF87F
:1042A00024408B7B8CF827304B7B5BBB0B684FF03B
:1042B000A04403F5E07340F20C6E44F823E04B6831
:1042C00003F5E07344F823E091E810400368C3F875
:1042D0000845C3F80CE58C68C3F824452AB100688A
:1042E000097B40F30730FEF77FFF3D4406EBC50531
:1042F0000123002085F8223003B0BDE8F08F00BF15
:10430000D42A00200B68DFF8A092DFF8A0E24FF07B
:10431000A04C03F5E07340F20C6A4CF823A04B6804
:1043200003F5E0734FF001084CF823A00B6808FA7E
:1043300003F3CCF808354B6808FA03F3CCF80835DA
:104340000B6803F5E07340F20D6B4CF823B04B683B
:1043500003F5E0734FF0040A4CF823B05346D9F844
:10436000009000BF00BF00BF00BF00BF00BF00BF84
:1043700000BFF1452FD000BF00BF00BF00BF00BF8E
:1043800000BF00BF00BF00BF00BF00BF00BF00BF35
:1043900000BF00BF00BF00BF00BF00BF00BF00BF25
:1043A00000BF00BF00BF00BF00BF00BF00BF00BF15
:1043B00000BF00BF00BF00BF00BF00BF00BF00BF05
:1043C00000BF00BF00BF00BF00BF00BF00BF00BFF5
:1043D00000BF00BF00BF013BC3D10195D1F804B0BD
:1043E000DCF8103523FA0BF3DB07554600F1D680D5
:1043F0000B6808FA03F3CCF80C3500BF00BF00BF10
:1044000000BF00BF00BF00BF00BFF1452FD000BFFD
:1044100000BF00BF00BF00BF00BF00BF00BF00BFA4
:1044200000BF00BF00BF00BF00BF00BF00BF00BF94
:1044300000BF00BF00BF00BF00BF00BF00BF00BF84
:1044400000BF00BF00BF00BF00BF00BF00BF00BF74
:1044500000BF00BF00BF00BF00BF00BF00BF00BF64
:1044600000BF00BF00BF00BF00BF00BF00BF013DD5
:10447000C3D10B6808FA03F3CCF80835534600BFE4
:1044800000BF00BF00BF00BF00BF00BF00BFF145BD
:104490002FD000BF00BF00BF00BF00BF00BF00BFE4
:1044A00000BF00BF00BF00BF00BF00BF00BF00BF14
:1044B00000BF00BF00BF00BF00BF00BF00BF00BF04
:1044C00000BF00BF00BF00BF00BF00BF00BF00BFF4
:1044D00000BF00BF00BF00BF00BF00BF00BF00BFE4
:1044E00000BF00BF00BF00BF00BF00BF00BF00BFD4
:1044F00000BF013BC3D10134092C7FF46FAF019D94
:104500004B68DFF8A88001244FF0A04E04FA03F3B3
:104510004FF0040CCEF80C35634600BF00BF00BF5F
:1045200000BF00BF00BF00BF00BFC1452FD000BF0C
:1045300000BF00BF00BF00BF00BF00BF00BF00BF83
:1045400000BF00BF00BF00BF00BF00BF00BF00BF73
:1045500000BF00BF00BF00BF00BF00BF00BF00BF63
:1045600000BF00BF00BF00BF00BF00BF00BF00BF53
:1045700000BF00BF00BF00BF00BF00BF00BF00BF43
:1045800000BF00BF00BF00BF00BF00BF00BF013BB6
:10459000C3D14B689C40CEF8084587E6019D002CAE
:1045A0003FF484AE5B46ACE7602200200024F400B8
:1045B0000379064A016803EB830302EBC30302207D
:1045C000062283F82200C1F800257047D42A002073
:1045D0004B6803F06043B3F1005F01D010207047D7
:1045E0002DE9F04390F804E0A44F03684FEA8E0CE5
:1045F0000CEB0E06154607EBC6064FF0FF32C3F86C
:10460000082396F8242089B002F0FF0832B1B2687E
:10461000C3F80423112009B0BDE8F08315F0140F8E
:104620000CBF0122002286F824200C4607C906F19F
:104630000C0989E80700C5F3001286F82520627886
:10464000C3F88825C3F80481D3F804210592059A9C
:10465000C3F82481D3F824210692069A15F00102AA
:1046600018BF0122C3F8502515F0020218BF01221D
:10467000C3F840252278032A00F2FA80DFE802F02E
:1046800046660B02A26802F06042B2F1005F00F0E1
:10469000B4801020BFE7A2786168C3F84415C3F85E
:1046A0004825A26802F06041B1F1005FF1D10CEB46
:1046B0000E0107EBC101E678C3F8342540F2022071
:1046C0004FF48452C3F83865C3F80022886008228A
:1046D0004FF4827100202E0704D42478032C1CBFD1
:1046E00001249C500CEB0E02D200BC18BA58002AD0
:1046F00044D06A0744BF4FF40072A2600CEB0E0274
:1047000007EBC2029268C3F8042384E7A2786168C9
:10471000C3F84415C3F84825A9060CEB0E0207EBB5
:10472000C20255D54FF48071C3F80012544890600E
:104730000021C3F84811D3F848210092009A4FF4A1
:10474000A47101221A6200200822C4E76268A678D8
:10475000C3F834250CEB0E0107EBC1014FF4805276
:10476000C3F8386540F20220C3F800220126002277
:10477000886010461E624FF48271ACE701255C1818
:1047800002E0D3F8241169BB2268002AF9D00CEBAF
:104790000E02D3F8C414C3F8C41407EBC2020023FA
:1047A00082F8243000293FF436AF11F0010F14BF16
:1047B0004FF40243032348F2012211F0020F18BF05
:1047C000134611F0040F48F2022008BF184622E7F2
:1047D00040F202214FF40070C3F8000291604FF4E0
:1047E0008271AEE7C3F82421D3F824210792079AF7
:1047F0001D624FF482715D61C1E74FF48072C3F8AE
:1048000000226268A178C3F844250022C3F8481545
:10481000C3F85021D3F8501102910299C3F86021D6
:10482000D3F8601103910399C3F84821D3F84821C4
:104830000492012204991A629A60D3F85021002A46
:10484000FBD00020C3F85001D3F8501101910CEBBC
:104850000E020199A168E678C3F8441507EBC2027D
:104860000749C3F84865916008224FF4827132E726
:1048700008224FF4827107202DE700BFD42A0020C0
:104880000002040070B55E4BD3F824218AB0BAB19F
:104890000022C3F82421D3F824210592059AD3F8E5
:1048A00004216AB9574A02219068C3F8080391604D
:1048B0009268C3F8042301221A625A610AB070BDDB
:1048C0004F4B504CD3F80421002A30D0002504F17E
:1048D0000C0207CAC3F80451D3F80461049694F893
:1048E0002350049E0AAE06E90700002D39D0227B32
:1048F000012A7FD0D3F84C158DF81E10022A75D0EE
:104900003F4BD3F84C25D2B23D4B8DF81F200022EF
:10491000C3F86021D3F8601102910299C3F85C21B9
:10492000D3F85C310393039B94F8255028E0C3F837
:104930004821D3F84811227B01910199002A3BD1EB
:1049400004F10C0207CA94F825500AAE06E90700E4
:10495000FDB94FF0FF32C3F80052A560C3F8082339
:1049600017E0C3F86051D3F860210292029AC3F8AD
:104970005C51D3F85C3194F825500393039B45B9FF
:104980001F4B00224FF0FF31C3F80022A260C3F892
:1049900008131B4AD2F8C434C2F8C4349A071ED58F
:1049A00001238DF818300DB984F82450236861680C
:1049B00006A898470AB070BD4FF4007040F202217B
:1049C0004FF0FF32C3F80002A160C3F80823A268C9
:1049D000C3F8042301229A601A620AB070BD13F072
:1049E000040318BF02238DF81830DCE7D3F83C2508
:1049F000D2B289E7D3F83C358DF81E3080E700BF8E
:104A000000300040D42A00204FF0A042D2F80435F4
:104A1000D94301F0807103F08073C2F80815C2F821
:104A20000C35704708282DE9F04707D0092838D001
:104A30000C2838D00B2838D0BDE8F0870025012994
:104A4000044611D020D30229F6D1214B05EB4505B0
:104A50001D446E78002EEFD01E4B1B68002BEBD050
:104A60003046BDE8F0471847DFF864806F007B19D7
:104A700008EB030218F803605378C3B92F44474486
:104A8000154BBA785A55E5E71448FCF7EFF810498A
:104A9000114A05EB45030B44565D9B789E42CBD1F2
:104AA000D8E70125CBE70225C9E70325C7E70C4B6B
:104AB000DFF830901968094801EB810149004A4646
:104AC000FCF77CF80028D9D189F80040D6E700BF70
:104AD000782B00202C2B0020742B0020302B002062
:104AE000282B0020242B0020C94B1B68DB0700D497
:104AF000704770B5C74B1C78172C22D8DFE814F02C
:104B0000680075007500AE00D500F5001A013D0182
:104B100039002200390022001800500150015001D4
:104B2000500150014E0058009E00780118001800F6
:104B30004FF0A0434FF0E0710022C3F80C15C3F80A
:104B4000082570BD4FF0A042B34CD2F80435B348ED
:104B5000D94301F4000103F40003C2F80815C2F8B8
:104B60000C352168002201EB8101BDE87040FCF7A3
:104B700025B84FF0A042A84CD2F80435A748D94335
:104B800001F4000103F40003C2F80815C2F80C3563
:104B900021680022BDE87040FCF710B84FF0A04338
:104BA0004FF0E0710022C3F80815C3F80C2570BD62
:104BB0004FF0A04300224FF0C0704FF48001C3F8C3
:104BC0000805C3F80C25C3F80C15C3F8082570BDFB
:104BD000934B1B684FF0A042DB4303F0E0730021CE
:104BE000C2F80835C2F80C1570BD8D4A12684FF036
:104BF000A040D24302F0C0720025C0F80825C0F8DA
:104C00000C55D0F8042582F0E07212F4800200F016
:104C10003881022C4FF48002C0F8082514BF2821E7
:104C20001221C0F80C557C4A1C7012687B4802FBAC
:104C300001F1BDE870400022FBF7C0BF4FF0A04378
:104C400000224FF0A0704FF40001C3F80805C3F82C
:104C50000C25C3F80C15C3F8082570BD704A1268FE
:104C60004FF0A040D24302F0C0720024C0F80825E3
:104C7000C0F80C45D0F8042582F0E07212F48002EE
:104C800000F0F7804FF48002C0F808250821C0F832
:104C90000C45614A6148126803241C7002FB01F153
:104CA000BDE870400022FBF789BF5D4A12684FF0F3
:104CB000A040D24302F0C0720024C0F80825C0F81A
:104CC0000C45D0F8042582F0E07212F4800200F066
:104CD000C1804FF48002C0F808252821C0F80C4597
:104CE0004D4A4E4812680424D7E74D4A12684FF0E7
:104CF000A041D24302F0C0720020C1F80825C1F8DB
:104D00000C05D1F8042582F0E07212F4800200F064
:104D1000A9804FF48002C1F80825C1F80C053E4A6D
:104D20003E48116805241C7049000022BDE870400F
:104D3000FBF744BF3A4A12684FF0A041D24302F059
:104D4000C0720020C1F80825C1F80C05D1F804256F
:104D500082F0E07212F4800275D04FF48002C1F844
:104D60000825C1F80C052C4A2C48116806241C7033
:104D70000022BDE87040FBF721BF294B1B684FF0B4
:104D8000A042DB43002103F0C0734FF48000C2F85F
:104D90000835C2F80C15C2F80C05C2F8081570BD2C
:104DA0002048FBF763FFD4F1110402463ED00028EF
