:100000000000012059050000810500008305000063
:10001000850500008705000089050000000000003C
:100020000000000000000000000000008B05000040
:100030008D050000000000008F0500009105000004
:10004000096F000093050000095D0000D1830000E6
:1000500093050000930500006589000093050000EA
:100060009305000093050000930500001186000031
:100070009305000093050000930500009305000020
:10008000930500001D670000930500009305000024
:10009000ED67000093050000930500009305000044
:1000A00093050000930500009305000093050000F0
:1000B0009305000093050000000000000000000010
:1000C00093050000930500009305000093050000D0
:1000D0009305000093050000930500000000000058
:1000E0000000000000000000000000000000000010
:1000F0000000000000000000000000000000000000
:1001000000000000000000000000000000000000EF
:1001100000000000000000000000000000000000DF
:1004000010B5054C237833B9044B13B10448AFF34E
:1004100000800123237010BDCC00002000000000EC
:10042000C8C10000084B10B51BB108490848AFF31C
:1004300000800848036803B910BD074B002BFBD0B0
:10044000BDE81040184700BF00000000D0000020A9
:10045000C8C10000C800002000000000154B002BA0
:1004600008BF134B9D46A3F5803A00218B460F46EB
:100470001348144A121A00F065F80F4B002B00D0F5
:1004800098470E4B002B00D0984700200021040015
:100490000D000D48002802D00C48AFF3008000F09A
:1004A0002BF82000290005F0E1FD00F011F800BF55
:1004B0000000080000000120000000000000000013
:1004C000CC000020F809002000000000000000001F
:1004D00008B5074B044613B10021AFF30080054B6C
:1004E0001868836A03B19847204600F033F800BFCC
:1004F00000000000F8A6000070B50E4B0E4CE41A88
:10050000A41000251E46A54204D056F82530984771
:100510000135F8E70AF0E2F8084C094BE41AA41098
:1005200000251E46A54204D056F8253098470135CF
:10053000F8E770BDC0000020C0000020C40000200B
:10054000C000002002440346934202D003F8011B7E
:10055000FAE77047FEE700BF0649074A074B9B1AB8
:1005600003DD043BC858D050FBDC00F025F8FFF752
:1005700075FF0000D4C1000000000020CC00002066
:10058000FEE7FEE7FEE7FEE7FEE7FEE7FEE7FEE743
:10059000FEE7FEE7BFF34F8F0549064BCA6802F43A
:1005A000E0621343CB60BFF34F8F00BFFDE700BF96
:1005B00000ED00E00400FA05F8B5A34B1B78062B0C
:1005C0001FD0A24AD2F8883043F47003C2F88830B2
:1005D000BFF34F8FBFF36F8F4FF01023D3F80C2270
:1005E000D20700F11381D3F80022002AC0F2E8807C
:1005F000D3F80432002BC0F2E380954B954A1A6081
:10060000F8BD954B1B681F07DBD1944B1B6803F0AB
:10061000F003302B02D1924B924A1A608F4B1B6829
:1006200003F0F002302A00F0BA8003F0E003402B20
:1006300000F0B580894B1B6803F0F003302B00F00D
:100640009E80864B1B6803F0F002302A00F0838006
:1006500003F0E003402B7ED0804B1B6803F0F003D7
:10066000302B6AD07D4B1B6803F0F003302B4DD04C
:100670007A4B1B6803F0F003502BA2D14FF080524D
:10068000794BD2F80414C3F82015D2F80814C3F833
:100690002415D2F80C14C3F82815D2F81014C3F896
:1006A0002C15D2F81414C3F83015D2F81814C3F866
:1006B0003415D2F81C14C3F84015D2F82014C3F82E
:1006C0004415D2F82414C3F84815D2F82814C3F8F6
:1006D0004C15D2F82C14C3F85015D2F83014C3F8C6
:1006E0005415D2F83414C3F86015D2F83814C3F88E
:1006F0006415D2F83C14C3F86815D2F84014C3F856
:100700006C15D2F84424C3F870255AE74E4B57496C
:100710001B78574D5748584A05270F60012600247B
:100720003F21062B2E60046011607FF44AAF4A4BD4
:100730001B6819077FF445AF9AE7434B4F4A1B7874
:100740000321062B11607FF43CAF434B1B68180755
:100750007FF437AF86E73C4B1B784FF08042002197
:10076000062BC2F80C11C2F81011C2F838157FF42C
:1007700028AF394B1B681C077FF423AF6CE7404A56
:100780003149D368097823F080730629D3607FF458
:1007900018AF314B1B681D077FF413AF51E7394A7F
:1007A000294B12681B783849C2F34232062B0A6083
:1007B0007FF407AF284B1B681E077FF402AF39E7B1
:1007C000324A0123C2F80435D2F80034002BFBD0A2
:1007D0004FF0102315212D4AC3F80012D2F800342F
:1007E000002BFBD04FF0102315222849C3F8042218
:1007F000D1F80024254B002AFAD00022C3F80425A2
:10080000D3F80024002AFBD0FFF7C4FE1F4B0122BF
:10081000C3F80425D3F80024002AFBD04FF010229F
:100820001A49D2F80C3223F00103C2F80C32D1F885
:100830000024164B002AFAD00022C3F80425D3F86E
:100840000024002AFBD0DFE7E00F00F000ED00E01D
:10085000640000200090D003E40F00F0E80F00F0E7
:1008600074C007400DF0ADBA00C000401056004003
:10087000885600401856004014560040A00500401D
:10088000F0ED00E0440200103C05004000E00140B3
:100890002DE9F0412E4C84B094F8243000AF93B38E
:1008A000002807F1100114BF0223002301F80D3DB9
:1008B00062682368157893F811800122781D00265C
:1008C0006D0008F0AEFD334607F1040E01227D7382
:1008D00007F1080187F804804FF002051D483D73B9
:1008E000BE73C7F808E06D4607F048F918B11A4A18
:1008F0002E2105F081FEFB786374AD460020103791
:10090000BD46BDE8F081A27AF2B1B0B9F870626874
:100910002368157893F811800122F91C781D0026B0
:100920006D0008F07EFD334607F1040E012287F8C2
:10093000048007F108017D73CEE7627C12B90123C0
:10094000FB70E4E71846DAE74FF0FF30D7E700BF67
:1009500068000020A800002030A700002DE9F04129
:10096000674C86B0A37C00AF002B00F0BC806268AF
:10097000236812781B79634807F1180652004FF07C
:10098000000E06F8153D012542F001017A7302229E
:10099000734679753D7307F10801BD733D75BD1848
:1009A00087F816E0BE603D6107F0E8F8A37A626858
:1009B00013F0010FBB7814BF43F0200303F0DF03F3
:1009C000BB702368157893F804800122B91C781D48
:1009D00008F027FD4FF0000E6D003E1D4FF0020C99
:1009E0007346012207F1080146487D7387F80480A9
:1009F00087F80EE0BE6087F80CC06D4607F0BEF8C1
:100A0000002878D1404B41491A68AD4640F6B833CA
:100A100000BF00BF00BF00BF00BF00BF00BF00BFDE
:100A20008A422FD000BF00BF00BF00BF00BF00BF81
:100A300000BF00BF00BF00BF00BF00BF00BF00BFBE
:100A400000BF00BF00BF00BF00BF00BF00BF00BFAE
:100A500000BF00BF00BF00BF00BF00BF00BF00BF9E
:100A600000BF00BF00BF00BF00BF00BF00BF00BF8E
:100A700000BF00BF00BF00BF00BF00BF00BF00BF7E
:100A800000BF00BF013BC3D194F8223083BB3021AB
:100A900094F82320BB7002B1B9706268236815789E
:100AA00093F81780B91C01226D00781D08F0B9FC7D
:100AB0004FF0020E7D7307F108014FF0000500238F
:100AC00001221048BD7387F80480BE6087F80CE0EF
:100AD0006D4607F053F818B10D4A2E2105F08CFD34
:100AE0000023AD46A37400201837BD46BDE8F08151
:100AF000B0218023CCE7064A2E2105F07DFD81E759
:100B000068000020A8000020640000200024F400F9
:100B100030A700002DE9F04F674C87B0A37C012B74
:100B200000AF00F0BB806268236812781B796348CD
:100B300007F1180E4FF0000B0EF8153D520001257D
:100B400042F0010C16465B4607F1080107F1020866
:100B5000022287F815C07E73C7F808E03D73BD73A5
:100B60003D7587F816B0C7F8108007F007F8BB7816
:100B70006168226823F02003BB7091F8009092F81E
:100B800004A041462A46781D08F04BFC09FA05F9F5
:100B90002A463E1D02255B4607F1080147483D7382
:100BA00087F80D9087F804A087F80EB0BE606D46F8
:100BB00006F0E4FF00287AD1414B42491A68AD465D
:100BC00040F6B83300BF00BF00BF00BF00BF00BF8A
:100BD00000BF00BF8A422FD000BF00BF00BF00BFD0
:100BE00000BF00BF00BF00BF00BF00BF00BF00BF0D
:100BF00000BF00BF00BF00BF00BF00BF00BF00BFFD
:100C000000BF00BF00BF00BF00BF00BF00BF00BFEC
:100C100000BF00BF00BF00BF00BF00BF00BF00BFDC
:100C200000BF00BF00BF00BF00BF00BF00BF00BFCC
:100C300000BF00BF00BF00BF013BC3D194F822300A
:100C40000222BA707BBB322294F8233003B1BA700F
:100C500062682368157893F81790414601220026B0
:100C60006D00781D08F0DDFB4FF0020E7D7307F17B
:100C700008013D1D334601221048BD6087F80490ED
:100C8000BE7387F80CE06D4606F078FF18B10E4A87
:100C90002E2105F0B1FC0123AD46A37400201C37C2
:100CA000BD46BDE8F08F8223BB70B222CCE7064A76
:100CB0002E2105F0A1FC7FE768000020A80000209D
:100CC000640000200024F40030A700002DE9F04F5C
:100CD0002DED028BDFF82883ADF50D7D98E830000F
:100CE00002AF00264FF0010987F8296087F82890A5
:100CF00095F800A094F815B0B9607A6007F1280162
:100D00000222044607F115003B600AFA09FA08F0CE
:100D100088FB07F1140533464FF0030E4A4607F1EE
:100D20001801B248BE7787F814B087F81DA0BD61DE
:100D300087F81CE06E4606F021FF18B1AC4A2E2160
:100D400005F05AFCAB4AAC4B1268AC49B54600BF43
:100D500000BF00BF00BF00BF00BF00BF00BF8A428E
:100D60002FD000BF00BF00BF00BF00BF00BF00BF4B
:100D700000BF00BF00BF00BF00BF00BF00BF00BF7B
:100D800000BF00BF00BF00BF00BF00BF00BF00BF6B
:100D900000BF00BF00BF00BF00BF00BF00BF00BF5B
:100DA00000BF00BF00BF00BF00BF00BF00BF00BF4B
:100DB00000BF00BF00BF00BF00BF00BF00BF00BF3B
:100DC00000BF013BC3D14FF00009D8F8043087F8C9
:100DD000289093F800A0D8F8003007F128010122EC
:100DE00007F1150093F811B04FEA4A0A08F019FB11
:100DF00007F114054FF0020E4B4607F118010122CE
:100E00007A4887F81DA087F814B0BD6187F81E9056
:100E100087F81CE006F0B2FE18B1754A2E2105F0E5
:100E2000EBFBD8F80420D8F8003092F800A093F833
:100E30000590012207F12801B54607F1150008F0D9
:100E4000F0FA4FF0000E4FEA4A0A4FF0020C07F199
:100E500014057346012207F11801644887F81DA0A4
:100E600087F81490BD6187F81EE087F81CC006F073
:100E700085FE18B15E4A2E2105F0BEFBD8F804208D
:100E8000D8F8003092F800A093F81590012207F1ED
:100E90002801B54607F1150008F0C3FA4FF0000E1F
:100EA0004FEA4A0A4FF0020C07F11405734601227B
:100EB00007F118014D4887F81DA087F81490BD610F
:100EC00087F81EE087F81CC006F058FE18B1484AA3
:100ED0002E2105F091FBD8F80420D8F8003092F8C4
:100EE00000A093F81A90012207F12801B54607F1F6
:100EF000150008F096FA4FF0000E4FEA4A0A4FF03C
:100F0000020C07F114057346012207F11801374856
:100F100087F81DA087F81490BD6187F81EE087F858
:100F20001CC006F02BFE002840F00D84D8F80420E9
:100F3000D8F8003092F800A093F80490012207F14D
:100F40002801B54607F1150008F06BFA4FF0000EC6
:100F50004FEA4A0A4FF0020C07F1140573460122CA
:100F600007F11801214887F81DA087F81490BD618A
:100F700087F81EE087F81CC006F000FE002840F04D
:100F8000E8830C23D8F8042087F82830D8F80030FC
:100F900092F800A093F80490012207F12801B546C9
:100FA00007F1150008F03DFA4FF0000E4FEA4A0A2B
:100FB0004FF0020C07F114057346012207F11801E6
:100FC0000A4887F81DA087F81490BD6187F81EE0D5
:100FD00087F81CC006F0D2FD002840F0BF83054A08
:100FE0000649126843F69823B5460BE0A800002096
:100FF00030A7000064000020400D03000024F4002E
:101000006800002000BF00BF00BF00BF00BF00BFDE
:1010100000BF00BF8A422FD000BF00BF00BF00BF8B
:1010200000BF00BF00BF00BF00BF00BF00BF00BFC8
:1010300000BF00BF00BF00BF00BF00BF00BF00BFB8
:1010400000BF00BF00BF00BF00BF00BF00BF00BFA8
:1010500000BF00BF00BF00BF00BF00BF00BF00BF98
:1010600000BF00BF00BF00BF00BF00BF00BF00BF88
:1010700000BF00BF00BF00BF013BC3D1D8F8343070
:10108000D8F804205B7A87F82830D8F8003092F836
:1010900000A093F8029007F12801012207F1150042
:1010A00008F0BFF94FF0000E4FEA4A0A4FF0020C69
:1010B00007F1140507F1180173460122B14887F8BA
:1010C0001DA087F81490BD6187F81CC087F81EE04A
:1010D00006F054FD002840F04683D8F83430D8F8A4
:1010E00004201B7A87F82830D8F8003092F800A046
:1010F00093F80190012207F12801B54607F1150088
:1011000008F08FF94FF0000E4FEA4A0A4FF0020C38
:1011100007F114057346012207F11801994887F871
:101120001DA087F81490BD6187F81EE087F81CC0E9
:1011300006F024FD002840F066837B68B546002B4E
:1011400000F05D83D8F834309B7A43F0E003D8F8A0
:10115000042087F82830D8F8003092F800909E7963
:10116000012207F1280107F1150008F05AF94FF0A4
:10117000000E4FEA49094FF0020C07F114057346BF
:10118000012207F118017F483E7587F81D90BD6167
:1011900087F81EE087F81CC06E4606F0EFFC18B119
:1011A000794A2E2105F028FA7B68B54623B1D8F894
:1011B0003430DB7A43F0E003D8F8042087F8283095
:1011C000D8F8003092F80090DE79012207F128016A
:1011D00007F1150008F025F94FF0000E4FEA490914
:1011E0004FF0020C07F114057346012207F11801B4
:1011F00064483E7587F81D90BD6187F81EE087F84A
:101200001CC06E4606F0BAFC18B15F4A2E2105F0EC
:10121000F3F95E4A5E4B12685E49B54600BF00BFF7
:1012200000BF00BF00BF00BF00BF00BF8A422FD079
:1012300000BF00BF00BF00BF00BF00BF00BF00BFB6
:1012400000BF00BF00BF00BF00BF00BF00BF00BFA6
:1012500000BF00BF00BF00BF00BF00BF00BF00BF96
:1012600000BF00BF00BF00BF00BF00BF00BF00BF86
:1012700000BF00BF00BF00BF00BF00BF00BF00BF76
:1012800000BF00BF00BF00BF00BF00BF00BF00BF66
:10129000013BC3D14023D8F8042087F82830D8F880
:1012A000003092F800A093F8049007F12801012281
:1012B00007F1150008F0B5F84FF0000E4FEA4A0AA2
:1012C0004FF0020C07F1140507F1180173460122D3
:1012D0002C4887F81DA087F81490BD6187F81CC0C2
:1012E00087F81EE006F04AFC18B1274A2E2105F0C7
:1012F00083F97823D8F8042087F82830D8F800300C
:1013000092F800A093F80590012207F12801B54654
:1013100007F1150008F085F84FF0000E4FEA4A0A71
:101320004FF0020C07F114057346012207F1180172
:10133000144887F81DA087F81490BD6187F81EE057
:1013400087F81CC006F01AFC18B10F4A2E2105F0D0
:1013500053F9B9680023A360636023608B604B601E
:101360000B603B68B546002B40F052820023DFF84B
:101370002890BD68FB60054A0649126842F2107366
:101380000CE000BFA800002030A70000640000208F
:10139000400D03000024F4006800002000BF00BFDF
:1013A00000BF00BF00BF00BF00BF00BF8A422FD0F8
:1013B00000BF00BF00BF00BF00BF00BF00BF00BF35
:1013C00000BF00BF00BF00BF00BF00BF00BF00BF25
:1013D00000BF00BF00BF00BF00BF00BF00BF00BF15
:1013E00000BF00BF00BF00BF00BF00BF00BF00BF05
:1013F00000BF00BF00BF00BF00BF00BF00BF00BFF5
:1014000000BF00BF00BF00BF00BF00BF00BF00BFE4
:10141000013BC3D198E80C001B78127BBA745B00C7
:1014200043F0010287F8252007F1120202264FF04F
:10143000000E7B77BA61012307F128023A623B77FD
:101440003246BB77D64887F82460734607F1180107
:1014500087F826E006F092FB97F8282097F82930C5
:10146000D04E43EA0223A6FB0336FB68C6F3C70649
:10147000C3F1C803B34280F27B81DEB2D9F80030F9
:10148000D9F804205B7B1278FB7406EB46039B00C3
:1014900013F0FF0140F0908106F1FF3C5FFA8CFCF5
:1014A0000CF1010C0CEB4C0C07F1280303EB8C0C3A
:1014B0005A78187893F802B093F803A0597993F802
:1014C00004E042EA00206A684AEA0B2A02FA8AF239
:1014D0006A6041EA0E2E2A68A96893F806A093F87C
:1014E0000AB001FA8EF102FA80F2A9602A6093F83C
:1014F00007E0197A5A7A20684EEA0A2A42EA012E4F
:10150000DA7A00FA8AF12160A068616842EA0B2267
:101510000C3301FA8EF100FA82F29C456160A26000
:10152000C6D1FB683344C72BFB607FF724AF3B6811
:10153000BD60002B40F071810026D8F8043087F898
:10154000286093F80090D8F800305B7907F1280103
:101550001D46012207F1150007F063FF4FEA490914
:1015600033464FF0020E3D7507F1180107F11405DF
:1015700001228B48BE7787F81D90BD6187F81CE07B
:101580006E4606F0FBFA18B1874A2E2105F034F8B2
:101590002068C3171904FB68B5461D46DE1741EAEB
:1015A000104183220023000407F068FD2A463346D9
:1015B00007F064FD63682060D917090441EA13410C
:1015C00018048322002307F059FD2A46334607F00A
:1015D00055FDA3686060D917090441EA1341180456
:1015E0008322002307F04AFD2A46334607F046FDD2
:1015F000BB68A060D3F800E07046C11709044FEA49
:101600000E4241EA1E43002A73F10001C0F2198123
:10161000900B40EA834099132A46334607F02EFD8B
:10162000B968D1F804E083467046C1F800B0C1172C
:1016300009044FEA0E4241EA1E43002A73F10001F9
:10164000C0F2F980900B40EA834099132A46334652
:1016500007F014FDBA689168CB171B044FEA0148E4
:1016600043EA1149B8F1000F824679F10003C2F84C
:1016700004A0C0F2D8804FEA983033462A4640EAA8
:1016800089404FEAA93107F0F9FC012871F1000304
:10169000BB68ACBFA0F5803000F5803098603B6837
:1016A000002B48D007EE900A07EE10AA9FED3F8A64
:1016B0003F49F8EEE77AB8EEC77A06EE90BA67EEE1
:1016C000887A27EE087AF8EEE66ABCEEC77AFCEE76
:1016D000E77A66EE886ACDED017A8DED007AFCEE50
:1016E000E67A7D6817EE903A2A46032006F020F845
:1016F000D4ED027A2F49B8EEE77AD4ED007A27EEDE
:10170000087AF8EEE76ABCEEC77A66EE886A8DED75
:10171000017AD4ED017AF8EEE77ABCEEE67A67EE6C
:10172000887A2A46FCEEE77A17EE103A0320CDEDD0
:10173000007A05F0FDFF002007F50B77BD46BDECF4
:10174000028BBDE8F08F184A2E2104F055FFFFF7F9
:10175000EDBB154A2E2104F04FFF12E4124A2E2150
:1017600004F04AFF3BE4104A2E2104F045FFB4E4A4
:10177000D9F80030D9F804205B7B1278FB7406EBB3
:1017800046039B0013F0FF0116D1002E7FF484AEB8
:10179000FB683344C72BFB607FF7EDADC7E600BFA6
:1017A000A8000020ABAAAAAA30A70000000080373A
:1017B00090A70000D0A7000007F1130052004FF0DF
:1017C000000AB86107F1280042F0010C4FF0010E49
:1017D0007A77386287F824105346022207F11801FD
:1017E0001B4887F825C087F826A087F81CE087F8F3
:1017F0001EE006F0C3F9002E7FF44EAEC8E7D8F81D
:1018000034309B7AA3E4134A2E2104F0F5FE94E4CD
:101810001149032005F02CFFA8E5FA680F490320C1
:1018200005F03CFF88E643F6FF72002318EB020840
:1018300049EB03091FE743F6FF70002112184B41E3
:1018400000E743F6FF70002112184B41E0E600BFAD
:10185000A800002030A7000054A7000078A70000CF
:10186000F0B52B4DAB7A87B0002B4ED095E80C002D
:101870000E4606A91B78127C01F8152D5B004FF06F
:10188000020E00248DF80D30029143F00103012176
:101890008DF81530724623468DF816408DF80C10E1
:1018A00001AC8DF80E10074602A91A4804948DF871
:1018B00014E006F063F99DF804209DF8053043EA32
:1018C00002231CB216B103F0FDFD30606B689FED82
:1018D000126AB3F90820DB8807EE902A07EE104A57
:1018E00006EE903AB8EEC77AF8EEE77AF8EEE66AD6
:1018F00077EE677A002087EEA67A77EE067AFEEE1C
:10190000C87AC7ED007A07B0F0BD4FF0FF30FAE7B4
:1019100068000020A800002000000C422DE9F047DC
:10192000BC4C84B0A37A00AF002B00F0788207F1A2
:1019300010054FF0000305F80D3D6268236892F82A
:10194000008093F8119029460122781D07F069FD67
:101950004FEA480807F1040A4FF0020E4FF0000664
:10196000002307F108010122AB4887F80D8087F8B2
:101970000490BE73C7F808A087F80CE0E84606F0AC
:10198000FDF818B1A54A2E2104F036FE62682368DE
:10199000127893F80590164629460122C546781D0F
:1019A00007F03FFD730019464FF0000E4FF0020C98
:1019B00079737346012207F10801974887F804906C
:1019C000C7F808A087F80EE087F80CC006F0D6F834
:1019D00018B1924A2E2104F00FFE62682368127833
:1019E00093F80490164629460122C546781D07F053
:1019F00018FD730019464FF0000E4FF0020C79737A
:101A00007346012207F10801834887F80490C7F85C
:101A100008A087F80EE087F80CC006F0AFF818B100
:101A20007E4A2E2104F0E8FD94F824301A461E4622
:101A3000C546784B002A00F0F7805A681B680C21D5
:101A4000F970127893F80480164629460122781D11
:101A500007F0E7FC730018464FF0000E4FF0020C41
:101A600078737346012207F108016B4887F80480F8
:101A7000C7F808A087F80EE087F80CC06E4606F09D
:101A80007DF818B1654A2E2104F0B6FD644B654916
:101A90001A68B5464CF2503300BF00BF00BF00BF0C
:101AA00000BF00BF00BF00BF8A422FD000BF00BFF1
:101AB00000BF00BF00BF00BF00BF00BF00BF00BF2E
:101AC00000BF00BF00BF00BF00BF00BF00BF00BF1E
:101AD00000BF00BF00BF00BF00BF00BF00BF00BF0E
:101AE00000BF00BF00BF00BF00BF00BF00BF00BFFE
:101AF00000BF00BF00BF00BF00BF00BF00BF00BFEE
:101B000000BF00BF00BF00BF00BF00BF013BC3D18B
:101B1000A37AC022DB07FA7048BFE023626848BF9F
:101B2000FB7012782368164629460122781D93F827
:101B3000048007F076FC730018464FF0000E4FF05B
:101B4000020C78737346012207F10801324887F8C6
:101B50000480C7F808A087F80EE087F80CC0E846B4
:101B600006F00CF818B12D4A2E2104F045FD637CD7
:101B700061682268002B18BF0223FB700B7892F873
:101B800011901E4601222946C546781D07F049FCE2
:101B9000730019464FF0000E4FF0020C7973734634
:101BA000012207F108011C4887F80490C7F808A033
:101BB00087F80EE087F80CC005F0E0FF002840F041
:101BC00024814FF000036268FB702368147893F857
:101BD0000590294601226400C546781D07F021FCC6
:101BE00002257C7300234FF0000407F10801012255
:101BF000094887F80490BC73C7F808A03D7305F046
:101C0000BDFF002840F006810020C5461037BD46C4
:101C1000BDE8F08768000020A800002030A7000081
:101C2000640000200024F4005A681B680421F97045
:101C300092F8008093F8049001222946781D07F05D
:101C4000F0FB4FEA480833464FF0020E012207F13D
:101C500008017448BE7387F8049087F80D80C7F8B0
:101C600008A087F80CE06E4605F088FF18B16E4AB0
:101C70002E2104F0C1FCA37C6C4AB546002B00F079
:101C8000BD8040236268FB7012782368164629469F
:101C90000122781D93F8048007F0C3FB73001846F7
:101CA0004FF0000E4FF0020C78737346012207F1DB
:101CB00008015C4887F80480C7F808A087F80EE0A0
:101CC00087F80CC06E4605F059FF18B1564A2E2110
:101CD00004F092FC564B57491A68B5464CF2503303
:101CE00000BF00BF00BF00BF00BF00BF00BF00BFFC
:101CF0008A422FD000BF00BF00BF00BF00BF00BF9F
:101D000000BF00BF00BF00BF00BF00BF00BF00BFDB
:101D100000BF00BF00BF00BF00BF00BF00BF00BFCB
:101D200000BF00BF00BF00BF00BF00BF00BF00BFBB
:101D300000BF00BF00BF00BF00BF00BF00BF00BFAB
:101D400000BF00BF00BF00BF00BF00BF00BF00BF9B
:101D500000BF00BF013BC3D1637C606822680033D1
:101D600018BF0123FB70294692F8118005780122E3
:101D7000781D07F056FB4FF0000E6D004FF0020C7F
:101D800007F108017346012226487D7387F8048015
:101D9000C7F808A087F80CC087F80EE005F0EEFE43
:101DA00018B1214A2E2104F027FC626823681478B8
:101DB000214993F8058001220025B546781D07F0DA
:101DC00030FB64004FF0020E07F108012B460122A0
:101DD00014487C7387F80480C7F808A0BD7387F89F
:101DE0000CE005F0CBFE18B10F4A2E2104F004FCE4
:101DF0000020B5461037BD46BDE8F087937A13F052
:101E0000010F0CBF402360233CE7074A2E2104F05A
:101E1000F3FBD6E6044A2E2104F0EEFBF4E64FF085
:101E2000FF30F3E6A800002030A700006800002083
:101E3000640000200024F400780000202DE9F04127
:101E40002F4C84B0A37A00AF002B4AD0B0F5FA7FB4
:101E500051D011D9B0F57A7F49D0B0F5FA6F40D1A1
:101E60001823217AFB7003239942254A0CD10020C4
:101E70001037BD46BDE8F081FA2832D10023FB704F
:101E8000217A1F4A9942F2D0516813680D7893F86D
:101E900006800122F91C00266D00781D07F0C1FAAA
:101EA00007F1040E7D7333464FF00205012207F15E
:101EB000080114483D7387F80480BE73C7F808E032
:101EC0006D4605F05BFE18B10F4A2E2104F094FB1D
:101ED000FB780020DB08AD4610372372BD46BDE815
:101EE000F0814FF0FF301037BD46BDE8F081102380
:101EF000FB700223C4E70823FB700123C0E700BF87
:101F000068000020A800002030A700000F4A537A84
:101F1000032B17D8DFE803F0120E0A021023037018
:101F20002021D37C03B10170002070470823037087
:101F30001021F6E7042303700821F2E7022303705F
:101F40000421EEE74FF0FF30704700BF680000202B
:101F50002DE9F0412F4C84B0A37A00AF002B53D071
:101F600002380E2850D8DFE800F03C4F474F4F4F63
:101F70004B4F4F4F4F4F4F4F08001823FB70032319
:101F8000617A244A994232D0516813680D7893F8E7
:101F900007800122F91C00266D00781D07F041FA28
:101FA00007F1040E7D7333464FF00205012207F15D
:101FB000080119483D7387F80480BE73C7F808E02C
:101FC0006D4605F0DBFD18B1144A2E2104F014FB18
:101FD000FB780020DB08AD4610376372BD46BDE8D4
:101FE000F081617A0B4A00239942FB70CCD100202A
:101FF0001037BD46BDE8F0810823FB700123BFE721
:102000001023FB700223BBE74FF0FF301037BD46B3
:10201000BDE8F08168000020A800002030A7000083
:102020002DE9F0412C4C84B0A37A00AF002B50D0A6
:10203000BB2833D861283CD90223FB70E17A264AB9
:10204000994231D0516813680D7893F802800122CB
:10205000F91C00266D00781D07F0E3F907F1040E66
:102060007D7333464FF00205012207F108011B483A
:102070003D7387F80480BE73C7F808E06D4605F02D
:102080007DFD18B1164A2E2104F0B6FAFB78E372F2
:10209000AD4600201037BD46BDE8F081E17A0E4A1A
:1020A00001239942FB70CDD100201037BD46BDE819
:1020B000F081292804D8132805D90423FB70BDE733
:1020C0000323FB70BAE709288CBF05230623FB70A6
:1020D000B4E74FF0FF30DDE768000020A8000020E3
:1020E00030A70000002845D02DE9F041234C84B0F2
:1020F000E389984200AF37D8642835D8B3FBF0F0B5
:1021000007F11001013801F80D0D62682368157898
:1021100093F82480012200266D00781D07F081F9D4
:1021200007F1040E7D7333464FF00205012207F1DB
:10213000080113483D7387F80480BE73C7F808E0B0
:102140006D4605F01BFD18B10E4A2E2104F054FA1D
:10215000FB78E2890020AD461037013392FBF3F3A0
:102160002385BD46BDE8F0814FF0FF301037BD46F6
:10217000BDE8F0814FF0FF30704700BF68000020DD
:10218000A800002030A700002DE9F04F374E85B0A1
:1021900096F8243000AF002B47D1B47A002C62D0DF
:1021A00000F0FE052C40337C34742C1B9B4618BF7A
:1021B0004FF0FF34002D3ED1307D00284CD0737C91
:1021C00073BB07F110014FF0010901F80D9D726812
:1021D000336892F8008093F811A04A46781D07F002
:1021E00020F94FF0000E08FA09F84A464FF0020CA9
:1021F00007F10409734607F108011D4887F80D80AF
:1022000087F804A087F80EE0C7F8089087F80CC09C
:10221000E84605F0B3FCD0B9FB787374C5466DB9D8
:1022200020461437BD46BDE8F08F00242046143701
:10223000BD46BDE8F08F737C002BC2D0FFF76EFB6C
:102240000028EDD086F810B04FF0FF34E8E7094AD7
:102250002E2104F0D1F9DFE7FEF71AFB20461437F0
:10226000BD46BDE8F08F4FF0FF34D9E7680000208D
:10227000A800002030A700002DE9F04FB04D95F8E0
:1022800024408DB0002C40F050811C70AC7A002CA2
:1022900000F04B812E7C002E00F0478106F04004B8
:1022A000002C15BF0224002404270227029216F0F6
:1022B000200F6A68039118BF3C46F70648BF0234F6
:1022C0009B4636072B6816781B7B01900DF1300E6C
:1022D0004FEA46060EF81F3D46F001014FF0020995
:1022E0004FF0000848BF063443468DF82D108DF896
:1022F00025604FF0010705AE92480A964A4608A9A4
:1023000048BFE4B2CDF820E08DF82C908DF82E80F7
:102310008DF824708DF8267005F030FC9DF814605F
:102320009DF815301FFA84FA43EA06265645C0F098
:102330009C80834B5B685A88B6EB520F25D9804A44
:102340001B7812680DF1300ED27C0EF81E2DBB40AA
:1023500043EA070105A88DF825308DF82D10434676
:102360000A904A4608A977488DF824708DF826709F
:102370008DF82C708DF82E80CDF820E005F0FEFB56
:102380009DF81430DB0600F1D58003F09BF8029B2A
:10239000DFF8AC91186095E80C00527B1B788DF843
:1023A0001320002C65D196FBF4F6169A013E04200A
:1023B00002211670234622468BF8004084460E46C2
:1023C0004FF0050E0324012752454ED02A7CDFF83A
:1023D000708112F0400F19D00CAA1344174413F85F
:1023E0001C2C17F81C3C43EA0223019A13809BF82B
:1023F0000030B24543F040038BF8003035D098F8F8
:10240000102027460B46664674460146900615D5B1
:102410000CAA1344174413F81C2C17F81C3C43EA6D
:102420000223019A53809BF80030B24543F0200309
:102430008BF8003019D02A7C27460B46D20614D5DB
:102440000CAA17441344002013F81C2C17F81C3C4A
:1024500043EA0223019A93809BF8003043F0100373
:102460008BF800300DB0BDE8F08F00200DB0BDE856
:10247000F08F5A0042F001004FF000088DF82D0057
:1024800005A843460DF1130E8DF8252001270222E1
:102490000A9008A92B488DF82C408DF82E80CDF895
:1024A00020E08DF824708DF8267005F067FB96FB10
:1024B000F4F4169B013C1C708BF8008099F81020F6
:1024C00002F0080202F0FF0332B39DF816409DF8B7
:1024D00017209DF814609DF818009DF815109DF8C0
:1024E000193042EA0422039C41EA062143EA002310
:1024F0002180A38062809BF800200A2042F008021D
:10250000082106238BF8002084460E461A464FF019
:102510000B0E0924072757E7042002211A46844698
:102520000E464FF0050E03244EE74FF0FF300DB07E
:10253000BDE8F08FFFF7F2F96FF0010096E700BFFA
:1025400068000020A80000202DE9F041244C84B050
:1025500094F82330834200AF38D00028A27C14BF07
:1025600030230023FB7019BFB221B02380238221C6
:1025700014BF322502250AB1FD700B4694F82220C3
:1025800002B1FB7062682368167893F81780012205
:10259000F91C0546781D06F044FF7600002003462E
:1025A00007F1040E7E73B8734FF00206012207F1A3
:1025B00008010C483E7387F80480C7F808E06E46AF
:1025C00005F0DCFA38B9B54684F8235000201037FE
:1025D000BD46BDE8F081044A2E2104F00DF8F2E773
:1025E00068000020A800002030A70000282800F282
:1025F000AF802DE9F04385B0044600AF78BB564D5F
:10260000FFF7A2FF6B683C7007227A701E782B6878
:1026100002223946781D93F81580760006F001FFF6
:1026200007F1040E2346BC7301224FF0030407F1A7
:1026300008014A483C7387F804807E73C7F808E0B5
:102640006C4605F09BFA18B1454A2E2103F0D4FFE1
:102650000020A54614372875BD46BDE8F08301204B
:10266000FFF772FF012C67D0022C68D0052C60D9CF
:102670000A2C67D805233B70374D6A682B6814789D
:1026800093F80980394601226400781D06F0C9FEDE
:102690003E1D4FF0020E7C7300234FF0000407F143
:1026A000080101222D4887F80480BC73BE6087F8BA
:1026B0000CE0E84605F062FA18B1294A2E2103F031
:1026C0009BFF20236A683B7014782B6839460122EF
:1026D0006400C546781D93F8159006F0A2FE4FF0F1
:1026E000020E7C7307F108014FF000040023012261
:1026F0001A4887F80490BE60BC7387F80CE005F0B8
:102700003DFA18B1164A2E2103F076FF95F82430D1
:10271000114C082100220120C546A9722A73287590
:1027200013B92374FEF7B4F800201437BD46BDE892
:10273000F08304233B709FE702233B709CE7032355
:102740003B7099E7142C94BF062307233B7093E753
:102750004FF0FF30704700BF68000020A800002045
:1027600030A700002DE9F04F10F0700387B0054648
:1027700000AF00F0448101237B70AF4C6268236896
:10278000167893F81580791C0122781D06F049FE11
:10279000700007F1040B4FF000064FF0020E787343
:1027A000002307F108010122A448BE7387F80480C2
:1027B000C7F808B087F80CE06E4605F0DFF918B1ED
:1027C0009F4A2E2103F018FF7B7823F040032373E8
:1027D0006B06B54640F1228100233B207B70064604
:1027E0003823392201214FF03A0E03204FF0020C1A
:1027F00015F0200F00F00681E8065CBF79701346E3
:102800002907626858BF7B70127823681646012238
:10281000B918781D93F8168006F003FE7300184669
:102820004FF0000E4FF0020C78737346012207F14F
:102830000801824887F80480C7F808B087F80EE0DE
:1028400087F80CC06E4605F099F918B17C4A2E2124
:1028500003F0D2FE15F0F70FB54602D00020FFF7C7
:1028600073FE6268236812781B79744807F11801B7
:10287000520001F8153D42F001034FF0000C1E46D6
:102880007A7302224FF0010E63467E75B960BE185E
:1028900007F1080187F816C087F80CE087F80EE00A
:1028A00087F814E03E6105F069F9EA07BB7894F80F
:1028B00024204BBF1121102143F0200303F0DF033C
:1028C0007970002A00F0A48043F080036268BB7036
:1028D000236892F8008093F82690791C0122781DD5
:1028E00006F09FFD4FF0000E4FEA48084FF0020C33
:1028F0007346012207F10801504887F8049087F8D1
:102900000D80C7F808B087F80EE087F80CC0E946DC
:1029100005F034F918B14A4A2E2103F06DFE6268C1
:10292000236892F8008093F804A0B91C0122CD46D8
:10293000781D06F076FD4FEA48084FF0020E4FF082
:10294000000607F10801002301223C4887F80D80AA
:1029500087F804A0C7F808B0BE7387F80CE005F04C
:102960000DF918B1364A2E2103F046FE354AA572FC
:1029700000204CF25033CD4612682075324900BF1A
:1029800000BF00BF00BF00BF00BF00BF00BF8A4242
:102990002FD000BF00BF00BF00BF00BF00BF00BFFF
:1029A00000BF00BF00BF00BF00BF00BF00BF00BF2F
:1029B00000BF00BF00BF00BF00BF00BF00BF00BF1F
:1029C00000BF00BF00BF00BF00BF00BF00BF00BF0F
:1029D00000BF00BF00BF00BF00BF00BF00BF00BFFF
:1029E00000BF00BF00BF00BF00BF00BF00BF00BFEF
:1029F00000BF013BC3D11C37BD46BDE8F08F50B1CD
:102A00007B70BAE687F801C0734632460146F3E6AA
:102A100003F07F035AE740237B70AEE604233F2098
:102A20007B7006463C233D2205214FF03E0E0720D9
:102A30004FF0060CDCE600BF68000020A800002074
:102A400030A70000640000200024F4002DE9F04FBE
:102A5000764C89B0A37A00AF002B00F0E48094F8A4
:102A60002480B8F1000F40F0DE80237D8146002BEA
:102A700040F08E8007F11503B9F1030F07F114053B
:102A80007B6007F1180640F2BC80B9F57A7F28BF59
:102A90004FF47A794FF47A7393FBF9F909F1FF391E
:102AA0005FFA89F907F12001626801F8119D236836
:102AB00092F80080786893F80190012206F0B1FC4A
:102AC0004FF0000E4FEA48084FF0020C7346012207
:102AD0003146574887F81D8087F81490BD6187F804
:102AE0001EE087F81CC0E84605F048F818B1514AC6
:102AF0002E2103F081FD208DFB7BDFF830E164287F
:102B0000024628BF6422581CC5464FF47A7393FBD3
:102B1000F0F0E0819AB3904231D3B0FBF2F007F1CC
:102B20002001013801F8100DDEF80420DEF8003035
:102B300092F80080786893F82490012206F071FCE6
:102B40004FEA48083146BD6102264FF000050023D8
:102B500001223748BD7787F81D8087F814903E77AB
:102B60006D4605F00BF818B1324A2E2103F044FDF2
:102B70003B7CE0890133AD4690FBF3F32385C0F342
:102B80004F00FFF74DFA00202437BD46BDE8F08F17
:102B9000431E272B40D94046FFF7D6FC636887F8D1
:102BA000108007227A7493F800A0236807F11502B9
:102BB0007A60104607F11001022207F1180693F817
:102BC00015B007F1140506F02CFC4FEA4A0A4346FB
:102BD0004FF0030E31460122154887F81E8087F812
:102BE00014B087F81DA0BD6187F81CE0E84604F02A
:102BF000C5FF48B90023C5462375B9F1030F3FF659
:102C000044AF4FF0F9094DE70A4A2E2103F0F4FCD6
:102C10000023C5462375F0E7FFF7E8FC404624375C
:102C2000BD46BDE8F08F4FF0FF30ADE768000020F3
:102C3000A800002030A700002DE9F04F8DB000AFB4
:102C400007F13006AF4C802306F8183D6268236810
:102C5000157893F8158031460122824607F1150058
:102C600006F0DFFB6A004FF0020E07F1140587F84B
:102C700025204FF0000C002307F120010122A2487B
:102C800087F8148087F826C03D6287F824E0E9467B
:102C900004F074FF18B19D4A2E2103F0ADFC9C4A4C
:102CA0009C4B12689C49CD4600BF00BF00BF00BFCF
:102CB00000BF00BF00BF00BF8A422FD000BF00BFCF
:102CC00000BF00BF00BF00BF00BF00BF00BF00BF0C
:102CD00000BF00BF00BF00BF00BF00BF00BF00BFFC
:102CE00000BF00BF00BF00BF00BF00BF00BF00BFEC
:102CF00000BF00BF00BF00BF00BF00BF00BF00BFDC
:102D000000BF00BF00BF00BF00BF00BF00BF00BFCB
:102D100000BF00BF00BF00BF00BF00BF013BC3D169
:102D20004FF0000263683A7693F8008023683146DA
:102D3000012207F1150093F815B04FEA480806F094
:102D400070FB4FF0020E4FF0000C002307F1200142
:102D500001226D4887F8258087F814B03D6287F816
:102D600026C087F824E004F009FF18B1674A2E2135
:102D700003F042FC4FF00002E274636848223A76A6
:102D800093F800802368314601221E7ACD4607F170
:102D9000150006F046FB4FEA48084FF0020E3E755C
:102DA00000234FF00006012207F12001564887F862
:102DB000258087F826603D6287F824E004F0DEFE77
:102DC00018B1524A2E2103F017FCDFF83881002693
:102DD000FF234FF6FF7EA37223726372E3722374A4
:102DE000A374CD464FF0010308F1160031460C22C2
:102DF000237384F8223084F8236066752675A4F85E
:102E00000EE0A4F828E0FDF79DFBA37A84F8246087
:102E100084F82560E684002B00F06A8498F8083076
:102E20001822032B3A7430D0D8F80420D8F8003098
:102E300092F8008093F80690012207F1100107F143
:102E4000150006F0EEFA4FEA4808334687F8266088
:102E500001224FF0020607F120012B4887F8246079
:102E600087F8149087F825803D626E4604F086FE50
:102E700018B1264A2E2103F0BFFB3B7CA27ADB0867
:102E8000B5462372002A00F03384627A1D4B4FF05E
:102E9000000987F8109072B35A681B68127893F88B
:102EA0000780164607F11001012207F1150006F010
:102EB000B8FA73001E464FF0020E4B46012207F18E
:102EC0002001114887F8256087F814803D6287F853
:102ED000269087F824E06E4604F050FE18B10B4AA5
:102EE0002E2103F089FB3B7CA27ADB08B546637296
:102EF000002A00F0FD83E27A024B03218A423974F2
:102F000036D00BE068000020A800002030A70000A9
:102F100064000020A08601000024F4005A681B68A9
:102F2000167893F80280012207F11001760007F16C
:102F3000150006F076FA4FF0020E87F825600023A0
:102F40004FF00006012207F120015F4887F8266054
:102F500087F814803D6287F824E06E4604F00EFE88
:102F600018B15A4A2E2103F047FB3B7CE372B54669
:102F70003220FFF76BFD3860002840F0B98394F8E9
:102F80002420534B62B99A7A002A00F0B1831A7D4B
:102F900039781974002A00F0B3830120FDF778FC1A
:102FA000BAF1000F14D04B4BDAF8042018683862DD
:102FB00007F12001DAF8000005F0E4FB18B1434AFC
:102FC000482103F019FBDAF80000012105F068FC44
:102FD0000C26FDF79FFD4FF000097E6032465FFA38
:102FE00082FA4FEA420E07F10E064FEA4A0B4FF003
:102FF00000084EF0010E434602223E625FFA8BFB50
:103000004FF0010607F120012F4887F80E9087F84E
:10301000246087F82660BD6287F82C6087F82E90C0
:1030200087F825B087F82DE004F0A8FD7A683B7D8D
:103030000132482B7A6053D0102AD0D12649012082
:1030400004F016FBE389224A092B40F251832349FD
:10305000A1FB0313DB0807F1300144CA013B01F86F
:10306000203D367892F8248007F11500012206F001
:10307000D8F976004FF0020E3D6207F120014FF0C3
:10308000000500230122104887F8265087F82560A4
:1030900087F8148087F824E06D4604F06FFD18B1BE
:1030A0000A4A2E2103F0A8FA3B7CE289AD460020B3
:1030B000013392FBF3F32385FFF754FB3868343771
:1030C000BD46BDE8F08F00BFA800002030A700007B
:1030D00068000020FCA6000024A80000CDCCCCCCC9
:1030E00010230122294607F11100FE183B7584F8D0
:1030F0002AA006F096F94FF00A0E87F810E0434632
:103100004FF0020E012207F120018D4887F825B00B
:1031100087F826803E6287F824E0E94604F02EFD19
:1031200018B1884A2E2103F067FA874A8749126846
:103130004FF47A73CD4600BF00BF00BF00BF00BF91
:1031400000BF00BF00BF8A422FD000BF00BF00BF3A
:1031500000BF00BF00BF00BF00BF00BF00BF00BF77
:1031600000BF00BF00BF00BF00BF00BF00BF00BF67
:1031700000BF00BF00BF00BF00BF00BF00BF00BF57
:1031800000BF00BF00BF00BF00BF00BF00BF00BF47
:1031900000BF00BF00BF00BF00BF00BF00BF00BF37
:1031A00000BF00BF00BF00BF00BF013BC3D11F2352
:1031B00094F82A803B752946012207F1110006F098
:1031C00030F94FF0000E0A2202204FEA48083A7404
:1031D00087F8240007F1200173460122584887F838
:1031E00025803E6287F826E004F0C8FC18B1554AF5
:1031F0002E2103F001FA544A544912684FF47A73AD
:10320000CD4600BF00BF00BF00BF00BF00BF00BF72
:1032100000BF8A422FD000BF00BF00BF00BF00BF69
:1032200000BF00BF00BF00BF00BF00BF00BF00BFA6
:1032300000BF00BF00BF00BF00BF00BF00BF00BF96
:1032400000BF00BF00BF00BF00BF00BF00BF00BF86
:1032500000BF00BF00BF00BF00BF00BF00BF00BF76
:1032600000BF00BF00BF00BF00BF00BF00BF00BF66
:1032700000BF00BF00BF013BC3D107F1300E94F87F
:103280002A302F48BD624FF010095B000EF8219DD7
:1032900043F001024FF001084FF0030C07F1200149
:1032A00087F8253087F82D2000230222C7F820E078
:1032B0004FF0000E87F82CC087F8248087F826800E
:1032C00087F82EE004F05AFC3A7D97F815E0BB7DB4
:1032D00094F82AA087F8149080320EF1800E803383
:1032E0002946A28507F111004246A4F82EE0238664
:1032F0000AFA08FA06F095F842464FF00A0C4FF029
:1033000000084FF0020E002307F120010C4887F857
:10331000268087F825A03E6287F810C087F824E051
:10332000E84604F02BFC18B1064A2E2103F064F99C
:10333000054A064912684FF47A73C54608E000BF93
:10334000A800002030A70000640000200024F40042
:1033500000BF00BF00BF00BF00BF00BF00BF00BF75
:103360008A422FD000BF00BF00BF00BF00BF00BF18
:1033700000BF00BF00BF00BF00BF00BF00BF00BF55
:1033800000BF00BF00BF00BF00BF00BF00BF00BF45
:1033900000BF00BF00BF00BF00BF00BF00BF00BF35
:1033A00000BF00BF00BF00BF00BF00BF00BF00BF25
:1033B00000BF00BF00BF00BF00BF00BF00BF00BF15
:1033C00000BF00BF013BC3D1FDF7C8FA40236268CC
:1033D0003B75127823687A602946012207F11100B3
:1033E00093F81A8006F01DF87A68C74887F81080AD
:1033F00053001A464FF0000E4FF0020C87F82520BC
:1034000007F12001734601223E6287F824C0EB4693
:1034100087F826E004F0B2FB18B1BC4A2E2103F075
:10342000EBF894F82A306168226863F07F033B75FB
:1034300091F8008092F81E9029460122DD4607F19E
:10344000110005F0EEFF4FF0000E4FEA48084FF074
:10345000020C7346012207F12001AB4887F8258052
:1034600087F810903E6287F826E087F824C004F0C1
:1034700085FB002840F01D814FF00209626887F843
:103480001490236892F8008093F81FA00122294627
:10349000DD4607F1110005F0C4FF4FF0000E4FEAC2
:1034A00048087346012207F12001974887F82580D4
:1034B00087F810A087F824903E6287F826E004F091
:1034C0005DFB002840F0FA80882362683B75236822
:1034D00092F8008093F8209001222946DD4607F1FA
:1034E000110005F09EFF4FF0000E4FEA48084FF024
:1034F000020C7346012207F12001834887F82580DA
:1035000087F810903E6287F826E087F824C004F020
:1035100035FB002840F0D78094F82A3062683B756C
:10352000236892F8008093F8219001222946DD4615
:1035300007F1110005F075FF4FF0000E4FEA480843
:103540004FF0020C7346012207F120016E4887F804
:10355000258087F810903E6287F826E087F824C01F
:1035600004F00CFB002840F0B3800A2362683B752E
:10357000236892F8008093F8229001222946DD46C4
:1035800007F1110005F04DFF4FF0000E4FEA48081B
:103590004FF0020C7346012207F120015A4887F8C8
:1035A000258087F810903E6287F826E087F824C0CF
:1035B00004F0E4FA002840F09080812362683B75B3
:1035C000236892F8008093F8239001222946DD4673
:1035D00007F1110005F025FF4FF0000E4FEA4808F3
:1035E0004FF0020C7346012207F12001464887F88C
:1035F000258087F810903E6287F826E087F824C07F
:1036000004F0BCFA18B1414A2E2102F0F5FF112353
:1036100062683B75236892F8008093F82690012237
:103620002946DD4607F1110005F0FBFE4FF0000EC4
:103630004FEA48084FF0020C7346012207F12001BF
:10364000314887F8258087F810903E6287F826E099
:1036500087F824C004F092FA18B12C4A2E2102F007
:10366000CBFF032362683B75236892F8008093F8D0
:10367000279001222946DD4607F1110005F0D1FE11
:103680004FF0000E4FEA48084FF0020C734601223B
:1036900007F120011C4887F8258087F810903E62CA
:1036A00087F826E087F824C004F068FAD0B9DD4630
:1036B000C8E4164A2E2102F09FFFDDE6134A2E21B0
:1036C00002F09AFF00E7114A2E2102F095FF23E74E
:1036D0000E4A2E2102F090FF47E70C4A2E2102F0FD
:1036E0008BFF6AE7094A2E2102F086FFDD46A9E436
:1036F0004FF0FF333B6018463437BD46BDE8F08FCE
:10370000FDF7C6F84CE400BFA800002030A7000079
:103710002DE9F04F2DED048B9BB002AF154678627A
:103720003962002A32D1A94C94F82420002A36D1DB
:10373000FA60237A032B96BFA549002331F8133092
:103740003B61637A032B00F2D087DFE803F01302BA
:103750001B174FF0080B0423E17C002908BF9B4690
:10376000E37A013B052B00F29485DFE803F0AE51CC
:10377000BEBBB8B54FF0040B0223EDE74FF0200BB2
:103780001023E9E74FF0100B0823E5E78F4C914930
:10379000032003F06DFF94F82420002AC8D007F11D
:1037A000600A0020FDF774F8237C0AF8283D63685E
:1037B00093F800805146012207F1450005F031FEE3
:1037C00000214FEA48020B4607F144084FF0230C52
:1037D0004FF0020E87F8552087F85610012207F1A6
:1037E00050017D48C7F8508087F844C087F854E0FE
:1037F000E84604F0C3F900287AD10023C54684F8CE
:103800002430FEF78BF8012394F82420FB6090E726
:103810006223FB61002A5CD1E3897B61A37ABB61EF
:10382000237CBB60002D40F0CA833B6A7E6A4FF068
:10383000020899462B46002249463046FDF746FAD3
:1038400000285AD0B8F10108F4D1002D40F02585A8
:1038500000237B62FF234FF6FF7238692372012633
:103860006372E372A3722374E2812673FEF7E6FAB1
:103870005846FEF76DFBF869544DFEF7D1FB7869A9
:10388000FFF7E4F8B869FEF76DFF94F8243093B9B8
:10389000AB7A002B00F0CA86BA6895F8108002F067
:1038A000FE0213402B74002A40F01584287D00B1DD
:1038B0003046FCF7EDFFFB68002B42D1786A643795
:1038C000BD46BDEC048BBDE8F08FBC23FB61002A34
:1038D000A2D000237B61A1E70523FB619AE70A23BD
:1038E000FB6197E71423FB6194E72A23FB6191E7CF
:1038F0003A4A2E2102F080FE7FE77E62C7F82090D0
:10390000002D40F0F4834FF0020907F1380A07F167
:1039100044082B46012241465046FDF7D7F90028BE
:1039200062D0B9F10109F4D1002D91D02C490320C6
:1039300003F09EFE00237B622A49032003F098FED9
:1039400088E794F82430012BB8D094F825301F4E26
:10395000002BB3D00020FCF79BFFFCF7FFFFF08C9F
:10396000FFF774F807F16001002501F8345D736812
:1039700001221E7807F1310005F053FD07F13000F8
:1039800076002B464FF0230C4FF0020E38650122D3
:1039900007F15001104887F8565087F8556087F8AE
:1039A00030C087F854E06D4604F0E8F818B10B4ACF
:1039B0002E2102F021FE0123AD46184684F8243062
:1039C000FCF766FFFDF7AAFF78E700BF680000205C
:1039D000E8AC000048A80000A800002030A70000C4
:1039E000E4A80000D0AC000062687E62127807F1A3
:1039F000600C52000D2142F001090CF8381D0346FD
:103A00004FF0010E87F8552087F85D9007F13006DA
:103A10004FF00309CA4887F85E3007F150010222CF
:103A2000C7F850C087F854E087F856E0BE6587F8BD
:103A30005C9004F0A3F8002D40F0F38497F8303048
:103A4000002B40F0948300233B6597F8313001222E
:103A5000002B40F0A48300237B6597F832300122CD
:103A6000002B00F0B383013BB6499FEDB76A31F8F4
:103A70001330DFEDB66A07EE903AB8EE677A67EE7C
:103A8000067A67EEA67AC7ED167A002A40F0A08380
:103A9000002D40F00C853A6AC7F804B0131F194690
:103AA0004FF0000907F150034E469B463A603962D9
:103AB000396A58F8262051F8043F3962D11A08EEC5
:103AC000101AF7EE007AB8EEC88A002D40F02F8465
:103AD000DBED006A88EE267A77EE677A17EE900AB9
:103AE00005F0F0F941EC100B05F080F80022984B3E
:103AF00051EC100B05F0B8FA18B10123B34049EAB4
:103B000003090136032E0BF1040BD1D197E8080805
:103B10003B62B9F1000F40F0D282002D40F0A0824C
:103B20003B6A7E6A043BA8463B623B6A53F8040F3B
:103B30003B6205F0B5F941EC100B05F057F8002297
:103B4000844B51EC100B05F08FFA20B1012303FADE
:103B500008F349EA030908F10108B8F1030FE4D1B9
:103B60005FFA89F37E623B626368754893F800E010
:103B700007F1600200214FEA4E0E07F1300302F810
:103B8000371DBB654EF001031E4687F855E00B4616
:103B90004FF0010E87F85D603A6587F85E104FF0D0
:103BA0000306022207F1500187F854E087F856E037
:103BB00087F85C6003F0E2FF002D40F0258497F861
:103BC0003030002B40F0518300233B65012297F8F1
:103BD0003130002B40F0368300237B65012297F8BB
:103BE0003230002B00F08982013B56499FED567A16
:103BF00031F81330DFED586A07EE903AF8EE677A45
:103C000067EE877A87EEA67A87ED167A002A40F06B
:103C10007682002D40F045847A6A0023043A984663
:103C200007F150097B6016465AF8282056F8043FE1
:103C3000D11A08EE101AB8EEC88A002D40F033836E
:103C4000D9ED007A88EE277A17EE100A05F03AF9D6
:103C500041EC100B04F0CAFF00223D4B51EC100B5D
:103C600005F0E4F928B17A68012303FA08F31A434E
:103C70007A6008F10108B8F1030F09F10409D3D102
:103C80007B689A465346002B40F0C981002D40F0D6
:103C90009B817B6AA8461E1F4FF0010956F8040F4E
:103CA00005F0FEF841EC100B04F0A0FF00222B4BB6
:103CB00051EC100B05F0D8F920B1524609FA08F37F
:103CC0001A43924608F10108B8F1030FE6D15FFAF2
:103CD0008AF31E46B6FA86F33A6A5B097B6212B92A
:103CE00043F002037B62FCF715FF94F82A6010236F
:103CF000012207F1300107F12D0087F8303005F07F
:103D000090FB00207100034607F12C064FF00A0CCF
:103D10004FF0020E87F8551087F85600012207F180
:103D2000500107483E6587F82CC087F854E0E84604
:103D300003F024FFB0B10A4A2E2102F05DFC11E02D
:103D4000A8000020F0AC0000000080470000803890
:103D50000000E03F0000E040000003430000344169
:103D600030A70000402394F82A9087F830300122D1
:103D700007F13001C54607F12D0005F052FB002187
:103D80000C204FEA49090B464FF0020E87F85610F7
:103D900087F82C00012207F15001A74887F85590B9
:103DA0003E6587F854E003F0E9FE002840F04484C3
:103DB000182394F82A9087F83030012207F1300157
:103DC000C54607F12D0005F02CFB00210A204FEA23
:103DD00049090B464FF0020E87F8561087F82C0061
:103DE000012207F15001944887F855903E6587F805
:103DF00054E003F0C3FE002840F020830B237A6ACE
:103E00003A62C5467B627D608C4A8D49126842F2F7
:103E1000107300BF00BF00BF00BF00BF00BF00BFE6
:103E200000BF8A422FD000BF00BF00BF00BF00BF4D
:103E300000BF00BF00BF00BF00BF00BF00BF00BF8A
:103E400000BF00BF00BF00BF00BF00BF00BF00BF7A
:103E500000BF00BF00BF00BF00BF00BF00BF00BF6A
:103E600000BF00BF00BF00BF00BF00BF00BF00BF5A
:103E700000BF00BF00BF00BF00BF00BF00BF00BF4A
:103E800000BF00BF00BF013BC3D194F82A206A489D
:103E9000520007F12A034FF0020A4FF0000942F0E6
:103EA000010E4FF001083B6507F150014B4687F8C2
:103EB000552007F130055246BD6587F85DE087F86B
:103EC0002AA087F8548087F8568087F85C8087F8A6
:103ED0005E9003F053FE97F83030796A594ADB0759
:103EE00001F1FF3100F1AE8311F0FF037B628BD152
:103EF0003B6A7D687B624FF00708102394F82A9094
:103F000087F83030012207F1300107F12D0005F06C
:103F100088FA00204FEA490903464FF00C0C4FF095
:103F2000020E87F85600012207F15001424887F837
:103F300055903E6587F82CC087F854E0E94603F0B9
:103F40001DFE18B1404A2E2102F056FB94F82AA01B
:103F5000102307F130010122CD4607F12D0087F82B
:103F6000303005F05EFA4FEA4A024FF0000E4FF093
:103F70000A0A4FF0020C87F8552007F150017346EA
:103F800001222D483E6587F856E087F82CA087F877
:103F900054C003F0F3FD18B12B4A2E2102F02CFB84
:103FA000CD46FCF7DBFC002D40F05982B8F1000F44
:103FB0007FF450AC7B6A43F004037B624AE42349FC
:103FC000032003F055FB30E47B6A21494FF4A01233
:103FD00003201E1F03F062FBD046D14656F8040FA3
:103FE00004F05EFF41EC100B04F000FE002251ECE7
:103FF000100B184B05F038F84246174948B13368A2
:10400000032003F063FB01234A4603FA08F31A4333
:10401000914608F10108B8F1030FDFD1CA465FFAF3
:104020008AF31E46002D3FF455AE1A460B49032075
:1040300003F034FB4EE600BFA8000020640000201F
:104040000024F4006800002030A700006CA80000E5
:1040500018AC0000000034414CAC00007CAC000007
:104060003B6AD749043B1E464FF40042032003F04D
:1040700015FB3E627E6AC8463B6A53F8040F3B62FA
:1040800004F00EFF41EC100B04F0B0FD002251ECE7
:10409000100BCC4B04F0E8FF4246CB4948B13B6AD9
:1040A00003201B6803F012FB012303FA08F349EA1B
:1040B000030908F10108B8F1030FDDD17E625FFA50
:1040C00089F33B62002D3FF44FAD1A46BF490320F0
:1040D00003F0E4FA48E53046FCF7DAFBFDF71EFC96
:1040E00000283FF4E8AB85F81080FFF7E4BBB8493F
:1040F000032003F0BDFA7E6A05E40023BB65002DB2
:1041000040F0DB81796ABA6B0868FB6B49689FED08
:10411000B17A121A07EE902AF8EEE77A5B1AF4EEFB
:10412000C77A07EE903AF8EEE77AF1EE10FAF4EE7D
:10413000C77A4CBF01230023F1EE10FA9A4602D54C
:104140004AF002039A467A6A3B6C92689FEDA17A24
:104150009B1A07EE903AF8EEE77AF4EEC77AF1EEA2
:1041600010FA7FF58FAD4AF004039A468AE59A4A21
:104170009FED9A6ADFED9A6A013B32F8133007EE41
:10418000903AB8EE677A97F8313067EE067A0022F7
:1041900067EEA67AC7ED147A002B3FF45CAC013BC6
:1041A0008D499FED8E6A31F81330DFED8D6A07EE91
:1041B000903AB8EE677A97F8323067EE067A67EE93
:1041C000A67AC7ED157A002B7FF44DAC0023BB65B2
:1041D000002D40F0C5813A6A7B6C12689FED817AB0
:1041E0009B1A07EE903AF8EEE77AF4EEC77AF1EE12
:1041F00010FA40F128814FF001093A6ABB6C52680D
:104200009FED787A9B1A07EE903AF8EEE77AF4EE93
:10421000C77AF1EE10FA40F13B8149F002093A6A9F
:10422000FB6C92689FED6F7A9B1A07EE903AF8EE5E
:10423000E77AF4EEC77AF1EE10FA40F11F8149F007
:10424000040966E4013B64499FED647A31F8133058
:10425000DFED656A07EE903AF8EE677A67EE877AE7
:1042600087EEA67A87ED157AB9E45B4A9FED5B7A13
:10427000DFED5D6A013B32F8133007EE903AF8EE5D
:10428000677A002267EE877A87EEA67A87ED147A3E
:104290009DE40023FB61FFF7BDBA5449032003F0FE
:1042A000E7F9FFF747BB07EE902A07EE103AF8EE62
:1042B000E77AB8EEC77AFCEEE77ABCEEC77ACDEDC6
:1042C000007AFCEEC87A17EE103A17EE902A4849A9
:1042D000032003F013FA99ED009A4649FCEEC97ADF
:1042E000032017EE902A03F0D9F9C8EE098A0023BB
:1042F00041490320FCEEE87A17EE902A03F0E6F934
:1043000018EE900A04F0DEFD41EC100B04F06EFC98
:10431000002251EC100B394B04F088FE424638491C
:1043200000283FF4A6AC032003F0B8F99BE407EEA5
:10433000902A07EE103AF8EEE77AB8EEC77AFCEE6C
:10434000E77ABCEEC77ACDED007AFCEEC87A17EEBC
:10435000103A17EE902A2649032003F0CFF9DBED3F
:10436000008A2449FCEEE87A032017EE902A03F035
:1043700095F988EE287A00231F490320F7EE007A8A
:1043800037EE678AFCEEC87A17EE902A03F09EF9A2
:1043900018EE100A04F096FD41EC100B04F026FC18
:1043A000002251EC100B154B04F05EFE324615490D
:1043B00000283FF4A6AB032003F070F9FFF79DBB84
:1043C000C8AA00000000E040FCAA00002CAB0000DE
:1043D000C4A800000000704AF0AC00000000804754
:1043E0000000803866666646000003438CA8000023
:1043F0005CA900009CA90000BCA900000000E03FEF
:1044000090AB0000E8A9000097F8321097F831301F
:1044100097F8302000910320B64903F06FF9FFF7B9
:10442000CEBB97F8321097F8313097F830200091D2
:104430004846B14903F062F9FFF700BBAF4A2E21AD
:1044400002F0DAF8DAE49FEDAE7AF4EEC77AF1EE34
:1044500010FACCBF4FF001094FF00009CDE64246FB
:10446000A849032003F01AF9B8F1000F7FF464AAF9
:104470007B6A43F004037B62FFF75EBA9FEDA07A8C
:10448000F4EEC77AF1EE10FA3FF7D9AEFFF741BB71
:104490009FED9B7AF4EEC77AF1EE10FA7FF7BFAE8C
:1044A000BBE69949032003F0E3F8FFF7B5BB974952
:1044B000032003F0DDF8FFF7EEBA9549DFED958AAA
:1044C000032003F0D5F84FF4701200239249032023
:1044D0001E4603F0E3F87A6A7E62B046A2F1040950
:1044E000164659F8043F5AF828208C4907EE903AAE
:1044F000F8EEE77AD31AFCEEE77A032017EE902A5B
:1045000007EE903A5AF828300092B8EEE78A07EEA4
:10451000903AF8EEE77ABCEEC87AFCEEE77A17EE4E
:10452000102A17EE903A03F0E9F8B4EEE88AF1EEBB
:1045300010FA42467A494FF0030007D503F0AEF86F
:104540007A6A012303FA08F31A437A6208F1010830
:10455000B8F1030FC5D17B6A7E629A46FFF792BB22
:104560007049DFED718A9FED669A032003F080F8B1
:1045700043F699126D49032003F090F84AF6CC42B5
:104580006B49032003F08AF83A6A7E6AC7F820B0C4
:10459000131F4FF0000919463D60CB467A600D4667
:1045A00055F8043F58F82B205C4907EE903AF8EE96
:1045B000E77AD31AFCEEE77A032017EE902A07EE8B
:1045C000903A58F82B300092B8EEE78A07EE903A0E
:1045D000F8EEE77ABCEEC87AFCEEE77A17EE102A1E
:1045E00017EE903A03F08AF8B4EEE88AF1EE10FA8A
:1045F0005A4650494FF0030004D4B4EEC98AF1EE94
:1046000010FA06DD03F04AF8012303FA0BF349EA36
:1046100003090BF1010BBBF1030FC1D17B68D7F884
:1046200020B07E623B623D68FFF773BAFB68002BE7
:104630003FF444A9FFF789B9304A2E2101F0DCFF8D
:10464000FFF7B6BB3B6A7B6207F1600092F82A3045
:1046500087F85480032200F8352D5B0087F8553029
:1046600007F1300143F00103524687F85D304FF007
:10467000060E4B46B965386507F150012E4887F89C
:1046800056807D6887F85E9087F85CE003F076FAE4
:1046900097F8318097F8302097F8331097F8323038
:1046A00042EA082843EA012308F1C8081FFA88F8FB
:1046B000C833B8F5C87F9BB294BF4FF000084FF0E5
:1046C0000108B3F5C87F01D948F0020897F83520F2
:1046D00097F8343043EA022303F548639BB2B3F5FD
:1046E000166F88BF48F0040807E44FF0000BFFF78F
:1046F00037B800BF54AB000020A9000030A700006D
:10470000CDCC2C47A4AC000074AB000040A9000045
:10471000B0AB00000000704ACCAB000060AA000003
:10472000E8AB000008AA00006666664628AA0000FA
:1047300044AA000094AA0000A8000020002A6CD01F
:104740002DE9F043364C85B0A37A00AF002B5ED044
:104750006368C5B25E897D700D44000AB542387049
:1047600055DC154622681E7892F81B808946022285
:104770003946781D04F055FE00207600034607F107
:10478000040C4FF0030EB87307F10801012225480D
:1047900087F804807E73C7F808C087F80CE0E84605
:1047A00003F0ECF918B1204A2E2101F025FF5FFA41
:1047B00089F360682168067891F8189003F108027F
:1047C00022F00702C546ADEB020D29461A46002528
:1047D0000DF101005C1C760004F023FE8DF80090C2
:1047E00007F108012B4601220E48C7F808D07E7356
:1047F0003C73BD7303F0C2F918B10B4A2E2101F0CE
:10480000FBFE0020C5461437BD46BDE8F0834FF0DF
:10481000FF301437BD46BDE8F0834FF0FF307047DE
:1048200068000020A800002030A700002DE9F04F0C
:10483000B94E97B096F8254000AF002C40F0228189
:10484000002900F01F813B607A60B960386200285F
:1048500000F054811028B37A0546A8BF10251FFA2E
:1048600085F8002B00F00E81716887F8304087F8DA
:1048700031404B899D4200F30581BB687B6207F1A3
:104880003003BB6107F134037B6107F135033B6102
:1048900007F14809FD612CE007F1380A5146786AB2
:1048A000424604F0AFFD002840F0E68044443B6AF5
:1048B000A4B2A34240F2EC801B1B102BA8BF102314
:1048C000FB611FFA83F8BB681B197B6200F0DA807A
:1048D000B37A914A002B00F0D5805168E3B2220AE6
:1048E00087F8313087F830204A894344934200F3F7
:1048F000C980336891F800A03869B96993F81BB092
:10490000022204F08EFD7D69BD644FEA4A0A4FF031
:10491000030E4FF000050023012249467F4887F827
:104920004DA087F834B087F84E5087F84CE0EA463F
:1049300003F024F918B17A4A2E2101F05DFE3B7F85
:104940007168FB6103F108021D4622F0070233681B
:1049500091F800B01B7E796AFB60D546ADEB020D85
:104960000DF101002A4604F05CFDFB688DF8003073
:1049700005F1010E4FEA4B0B4FF000050023012219
:1049800049466648C7F848D087F84DB087F84E507A
:1049900087F84CE003F0F2F818B1614A2E2101F0DB
:1049A0002BFEB37A5C49D546002B6BD0220AE3B2CA
:1049B000486887F8313087F8302042894344934271
:1049C00060DC0B6890F800B0B969386993F81BA0F7
:1049D000022204F026FD7D69BD644FEA4B0B4FF0C7
:1049E000030E4FF000050023012249464B4887F88B
:1049F00034A087F84DB087F84E5087F84CE0EA466F
:104A000003F0BCF818B1464A2E2101F0F5FD96E8F6
:104A10000C00127E1B7887F82F20FA69D546002AF1
:104A20003FF43AAF5A004FF0010042F0010187F81D
:104A30004C0087F84E00387F87F84D2007F12F0E85
:104A400007F1380A022287F8551087F854004946C2
:104A500000233248C7F848E04FF0000587F8565069
:104A6000C7F850A003F08AF85146786A424604F02D
:104A7000C9FC00283FF41AAF6FF001005C37BD4657
:104A8000BDE8F08F4FF0FF305C37BD46BDE8F08FDA
:104A900079683869726887F831100B0A87F8303006
:104AA00033681578B9695C7F022204F0BAFC4FF0D4
:104AB000000E6D004FF0030C87F8344049467C69C6
:104AC0001648BC647346012287F84D5087F84EE0C3
:104AD00087F84CC06C4603F051F850B93A88F2841C
:104AE00001230020A5465C3786F82530BD46BDE889
:104AF000F08F0B4A2E2101F07FFDEFE707F1300325
:104B0000BB6107F134037B6107F135033B6107F1BA
:104B1000480911461846BDE768000020A80000209B
:104B200030A70000F0B5424D85B095F824208242B0
:104B300000AF75D0044600283FD095F82530002BF3
:104B400072D00020FBF7A4FEFBF708FFE88CFDF70E
:104B50007DFF07F11001002401F80D4D6B681E78F0
:104B60000122781D04F05DFC760007F1040C234659
:104B70004FF0230EBC7301224FF0020407F108012D
:104B80002C483C737E73C7F808C087F804E06C4675
:104B900002F0F4FF60B90123A546184685F82430D9
:104BA000FBF776FEFCF7BAFE00201437BD46F0BDD9
:104BB000214A2E2101F020FDEDE7FBF769FE07F108
:104BC00010012B7C01F80D3D6B681E780122781DC9
:104BD00004F027FC760007F1040C23464FF0230E67
:104BE000BC7301224FF0020407F1080111487E73E3
:104BF000C7F808C087F804E03C736E4602F0BEFFB9
:104C000048B90024B54685F82440FCF787FE2046C5
:104C10001437BD46F0BD084A2E2101F0EDFCF0E747
:104C200000201437BD46F0BD4FF0FF30BDE700BF98
:104C300068000020A800002030A70000F0B53A4F1F
:104C4000BB7ADB0789B066D57A683B68127893F83F
:104C500028300E4608A9520001F81D3D42F0010E11
:104C600000258DF8152001222B468DF81DE00DF151
:104C7000040C04914FF0080E8DF814208DF81620C6
:104C80000446022229488DF81E5004A9CDF818C008
:104C90008DF81CE002F072FF9DF8043003F003036E
:104CA000012B3BD19DF90B30AB423ADB9DF80A005A
:104CB0009DF806C09DF805109DF808E09DF80720B6
:104CC0009DF8093041EA0C2143EA002342EA0E2212
:104CD00009B212B21BB221806280A380B7F92C0006
:104CE00001FB00F109122180B7F92E1002FB01F23D
:104CF00012126280B7F9302003FB02F31B12A3806B
:104D00002EB100F0DFFB3060284609B0F0BD35461B
:104D1000284609B0F0BD4FF0FF35F5E76FF001050B
:104D2000F2E76FF00205EFE768000020A80000201E
:104D3000C8234FF48062024940F6F630FFF776BD93
:104D400078AF0000F0B54F4D2B4687B033F804EF35
:104D50002F889B788DF80E302E46044629460DF19B
:104D6000180C00F00300C4F3C102ADF80CE0ADF87C
:104D70000870624436F80C7FAD7831F808EF8DF892
:104D80000A506044C4F381136344897810F80CCC52
:104D9000B57810F8100C12F80C6C12F8102C8DF875
:104DA00005608DF8000013F80C6C8DF8012013F8E5
:104DB000103C8DF812106A46032140F226408DF80F
:104DC00004C08DF806608DF80230ADF810E0ADF843
:104DD00014708DF81650FFF7B1FC00284ED101AACF
:104DE000032140F22A40FFF7A9FC002846D104A97C
:104DF0000322684604F015FB05A9032201A804F06C
:104E000010FB61070BD59DF800209DF8043042F09F
:104E1000010243F001038DF800208DF80430A20652
:104E20000BD59DF801209DF8053042F0010243F0BA
:104E300001038DF801208DF80530E30511D46A4691
:104E400003214FF48860FFF779FCB8B901AA032168
:104E500040F23140FFF772FC80B90B4B1C8107B068
:104E6000F0BD9DF802209DF8063042F0010243F0AB
:104E700001038DF802208DF80630E0E74FF0FF3097
:104E800007B0F0BD2CAF0000E800002030B5154B96
:104E90000446596818689A6887B003ABC82C07C3E2
:104EA0001BD8C82393FBF4F3013B9BB21D0A01AA54
:104EB000022140F216208DF805308DF80450FFF7DE
:104EC0003DFC50B903AA0C2140F6C120FFF736FC87
:104ED00018B9054B9C8107B030BD4FF0FF3007B0CB
:104EE00030BD00BF3CAF0000E8000020430700F0E9
:104EF0009D80B1F5C86F00F2998010B52DED028B41
:104F000007EE901A84B0F8EE677A9FED4A7A04466D
:104F10000DF10B0087EE878AFCF7F8FF9DF80B3048
:104F2000023B0E2B53D8DFE803F033523852525273
:104F30003D525252525252520800DFED3F7A9FEDDD
:104F40003F7A68EE277A28EE078AFCEEE77ACDED05
:104F5000007AFCEEC87ABDF80020CDED017ABDF8EC
:104F600004308DF80D20100A190AE2078DF80C00A4
:104F70008DF80F308DF80E1019D4A30744D404F027
:104F8000040404F0FF0044BB04B0BDEC028B10BD70
:104F9000DFED2B7A9FED2B7AD3E7DFED2B7A9FEDB8
:104FA0002B7ACEE7DFED2A7A9FED2A7AC9E703AAAA
:104FB00002214FF4EA70FFF7C1FB40B90DF10E0278
:104FC00002214FF49270FFF7B9FB0028D5D04FF0C3
:104FD000FF3004B0BDEC028B10BD03AA02214FF4D8
:104FE000EE70FFF7ABFB0028F1D10DF10E020221AC
:104FF0004FF49670FFF7A2FB003018BF012040422B
:1050000004B0BDEC028B10BD03AA02214FF4EC707A
:10501000FFF794FB0028DAD10DF10E0202214FF4C4
:105020009470FFF78BFB0028A9D0D0E74FF0FF303A
:10503000704700BF00004843000000450000C04426
:105040000000804600004046000000460000C045C9
:1050500000008045000040452DE9F04786B006AECF
:10506000A24B46F80C3D044632460421682004F069
:105070004007FFF763FBBFB2A3238DF80C30002F6E
:1050800000F02C81C021C822C2238DF80D108DF8AC
:105090000E208DF80F3014F4C07900F01781C42170
:1050A000CC22C6238DF810108DF811208DF8123007
:1050B000A32332460A2140F6A7208DF813308DF83D
:1050C00014308DF81530FFF739FB14F0030A14BFC4
:1050D0002023D8233246012140F6B6208DF80C302B
:1050E000FFF72CFBA5064CBF814B824B1868596813
:1050F00093F808E06B4603C36A46092183F800E091
:105100004FF497606D46FFF719FBB9F1000F0AD015
:10511000E0054CBF784B794B03933246042140F6AF
:10512000A220FFF70BFBE10740F1C680F8233246CF
:1051300001214FF40B608DF80C30FFF7FFFAFA21D4
:105140000720FFF7D3FE3F232A4601214FF4A47026
:105150004FF000088DF80030FFF7F0FA2A460121E1
:1051600040F24F108DF80080FFF7E8FA14232A462A
:1051700002214FF4EF708DF801308DF80080FFF7B9
:10518000DDFA64232A4602214FF4ED708DF80130D8
:105190008DF80080FFF7D2FA8E21F92090232A465D
:1051A0008DF801108DF8020004214FF4AE708DF8D7
:1051B00003308DF80080FFF7C1FA08232A46022148
:1051C0004FF4AD708DF801308DF80080FFF7B6FA1E
:1051D000022319462A464FF4AC708DF800808DF8F2
:1051E0000130FFF7ABFA14F0020F14BFD923D82314
:1051F0003246012140F23D708DF80C30FFF79EFAE7
:10520000620753D53E4B00932A46042140F698206E
:10521000FFF794FAFCF782FBE30639D5394B00938C
:105220002A46042140F69E20FFF788FAFCF776FB19
:10523000354D44F008036B81FCF770FBEFB9AF7399
:105240000423142210210A271A2616204FF0060ED6
:10525000B9F1000F04D085F80EE03B463246014616
:1052600014F0140F1CBFA9731346BAF1000F00D03D
:10527000AB73002006B0BDE8F0870623AB731A229B
:105280000A231621102720261C204FF00C0EDFE7E2
:105290000422A3212846FBF755F92A46042140F6AB
:1052A0009E20FFF74BFAFCF739FBC1E704228B2164
:1052B0002846FBF747F9A7E7D823324601214FF4E8
:1052C0000B608DF80C30FFF739FA8CE7A3238DF8CB
:1052D00010308DF811308DF81230E9E68DF80D3070
:1052E0008DF80E308DF80F30D5E600BF02CAE30905
:1052F00048AF000054AF0000B28BB69BB080B490B2
:10530000C0C2C4C620283038E8000020F0B5164BD3
:1053100087B059681D899F7A044618686A4603C297
:1053200053F80C0F158059681E899D7A977003AB4E
:1053300003C3012C1E809D700DD0022C03D04FF0B2
:10534000FF3007B0F0BD6A460B2140F68220FFF720
:10535000F5F907B0F0BD03AA0B2140F68220FFF754
:10536000EDF907B0F0BD00BF60AF0000F0B590F9F7
:105370000030002B13DD00232021082428264FF0C5
:10538000300E1025382790F90320002A1EDD90F9F1
:105390000620002A24DD0020184380B2F0BD44D14D
:1053A00090F90130002B2BDD90F90320002A4FF0FB
:1053B00001034FF021014FF009044FF029064FF08F
:1053C000310E4FF011054FF03907E0DC36D190F97E
:1053D0000430002B22DD90F90620002A2346DADC77
:1053E0002ED190F90720002A03DD4020184380B217
:1053F000F0BD35D190F90820002A3EDD8020CBE7B2
:1054000025D190F90230002B2DDD022322210A2420
:105410002A264FF0320E12253A27B4E715D190F91B
:105420000530002B2DDD2B46B1E7042324210C246D
:105430002C264FF0340E14253C27A4E70B46A6E794
:105440004FF48070184380B2F0BD33469FE70523C8
:1054500025210D242D264FF0350E15253D2792E7E9
:105460004FF4A07098E70FD1072327210F242F2690
:105470004FF0370E17253F2785E70ED14FF4E07028
:105480008AE70DD13B4682E7062326210E242E26ED
:105490004FF0360E16253E2775E74FF4C0707BE7B8
:1054A000734674E708B501F0E3FC18B1044A0A2119
:1054B00001F0A2F80020BDE8084001F0F1BC00BFF7
:1054C00070BB000030B583B002AA002342F8043D4F
:1054D000104B114CD3F804552168284601F0B0FC5C
:1054E00018B10E4A172101F087F8019A0C4925607E
:1054F0004FF47A7303FB02F212F580424FF000037F
:10550000086843F10003D20B42EA434210440860AA
:1055100003B030BD00B00040FC00002070BB0000B4
:10552000F800002030B50478012C83B024D010D3CB
:10553000022C0CD1C36829492948019301228DF816
:10554000004000F0A5FA274B68461B68984703B057
:1055500030BD2549254801F0CBF800282AD0234B3F
:105560009A68DB689A42F2D102A8032300F8083D4A
:105570001C4B1B689847EAE743681D4D197828467D
:1055800001F09EF870B9AA68EB689A421ED1A9682A
:10559000EB68AA885B1A9A4212D2164B01221A7043
:1055A00003B030BD0F4B01908DF800401B6868467A
:1055B0009847ECE701220C49094800F0B1F9CEE721
:1055C00001220649064800F063FAC0E702AB054A2B
:1055D00003F8080D126818469047D8E70801002024
:1055E000A000002004010020000100200C01002088
:1055F000200100201C0100202DE9F0432F4C89B030
:105600002260002952D00C4680468A882C480968BE
:10561000994601F045F810B109B0BDE8F083A289C0
:10562000A168284801F03CF80028F5D1264D98F8EB
:1056300010E0D8F80C70D8F808600FCD6C460FC495
:1056400095E80F0098F8115002971EF1000E18BF50
:105650004FF0010E002D84E80F00D8F80050D8F864
:1056600004401A4A1A488DF81C9014BF0E230023D8
:105670008DF815306946D8F814308DF814E006938B
:1056800003968DE8300000F06FF80028C4D1D8F8F8
:105690000030104A01331070BED09DF81D304BB160
:1056A00001220D490A4800F0F3F9B5E7072009B0D7
:1056B000BDE8F083064800F001FBF1E7040100209B
:1056C000200100200C01002098BB0000255500009F
:1056D000A00000201C0100200801002070B50C4C27
:1056E00001460C48267801F003F805460EB9284615
:1056F00070BD0023012208490848237000F0C8F952
:105700000028F4D0064ABA2100F076FF284670BD82
:105710001C0100202001002008010020A000002022
:10572000B8BB000010B501460C4800F0C9FF0446A4
:1057300008B1204610BD0A4800F09EF90028F8D1B3
:105740000849064800F0D4FF0028F2D1012205499B
:105750000348BDE8104000F0E3B800BF0C01002092
:10576000A0000020000100202DE9F0410479694DDE
:1057700064012E1986B0F37E1BB1082006B0BDE887
:10578000F0814F7F37770E684FF0A04E012707FA60
:1057900006F6CEF808650E6806F5E0764FF0030CC5
:1057A0004EF826C04E6806F5E0764EF826300679AB
:1057B00005EB4616377F002F50D006688F69C6F874
:1057C000247591F815800F7D066848EA0707C6F82A
:1057D0006C7591E840010768C7F80C65C7F8148537
:1057E0000F7D012F00F08C802B1906465A600B6943
:1057F00048482B51EAB13379097F326800EB4310F6
:10580000037F002B5BD1C2F81C31D2F81C713268C7
:105810000097009FC2F84431D2F8442133680192C6
:105820003D48019AC3F80403306840F3073001F0A3
:10583000A7FB3379326805EB43131B7F002B3AD06B
:105840000823C2F800352C4400200123E376E075DC
:105850002076A075A07606B0BDE8F08103688E6959
:10586000C3F8246591F815800E7D036848EA0606A2
:10587000C3F86C6591E808010668C6F80C35C6F8EF
:1058800014850E7D012EAFD18B6803F5E0734EF8C1
:105890002370CB6806FA03F3CEF80835CB6803F51E
:1058A000E0734EF823C00368CF688E68C3F80875AC
:1058B000C3F8106598E70423C2F80035C3E7002356
:1058C000C2F81031D2F8107132680297029FC2F804
:1058D0002031D2F8207132680397039FC2F8243137
:1058E000D2F8247132680497049FC2F84431D2F888
:1058F0004421336805920948059AC3F8040393E7E5
:105900008E6806F5E0764EF82630CB6807FA03F38A
:10591000C2E700BF30010020800002001003020037
:10592000F0B50379534C5B01E51887B02D7F3DB18D
:105930000D0C2D04B5F1005F02D0102007B0F0BDB2
:1059400023444C4F9E7D16B1112007B0F0BD9A75CF
:1059500099609E8205796D017A19137F13BB0168E6
:10596000C1F81C31D1F81C61016804960126049F1E
:105970008E600168D2F808E0C1F81C31D1F81C3102
:105980000593059B968A938A5768B6B201331EF831
:1059900006609BB29382C1F81C65002F2FD00020B7
:1059A00007B0F0BD03689168C3F82061D3F8207197
:1059B00003680197019FC3F85861D3F858610368E1
:1059C0000296967D029FC3F84415C3F848650368A4
:1059D000012199605368002BE1D1036801E000299F
:1059E00045D1D3F82021D3F85811002AF7D0002947
:1059F00014BF0F2000202C440023A3759EE7967D42
:105A0000938A9BB29E4202F1140122D9016804E0FC
:105A1000938A9BB2B3F5807F03D0D1F81C31002B61
:105A2000F6D0938A9BB2B3F5807FE9D0C1F81C71A0
:105A3000D1F81C310393039BB2F814C0938A1FFA68
:105A40008CFC01331EF80CC09BB29382C1F81CC5BC
:105A5000D6E70B889BB2B3F5807F08D00268D2F8F6
:105A60001C31002BFBD00123D3600020C3E70F20A3
:105A7000C1E700BF300100200279044B03EB421361
:105A8000987D003018BF0120704700BF3001002012
:105A9000F0B40379884E5B01F41888B0257F4DB1CE
:105AA0000D0C2D04B5F1005F59D01022104608B03E
:105AB000F0BC70476568002D42D133447E4FDC7DD9
:105AC000002C2BD1DA75D9605C761C7605796D01D6
:105AD00073191F7F002F50D19B7E8BB984B9036847
:105AE000C3F82441D3F8242103680392039AC3F82E
:105AF0000841D3F8082103680492012204991A602E
:105B000071194B68002B6FD003684FF40172C3F812
:105B100004230022104608B0F0BC70471C7ED4B1AC
:105B2000002D00F0A980037907EB43173B7F002B82
:105B300053D003684FF40472C3F804231122B5E76D
:105B400004684FF401773344C4F80873DC7D5A4F7E
:105B5000002CB7D0E2E719611A760124B6E7656830
:105B6000002DAAD004684FF404773344C4F80873B6
:105B7000DC7D514F002CA5D0D0E703680025C3F889
:105B80001051D3F8107103680197019FC3F8445175
:105B9000D3F8445103680295029DC3F83415C3F845
:105BA000382594B9036801221A60017949017318F4
:105BB0005B68002B62D003684FF40472C3F80423BF
:105BC0000022104608B0F0BC70470268D2F80032DC
:105BD00043F02003C2F80032E7E703684FF4017294
:105BE000C3F80423112261E70268C2F84431D2F8F5
:105BF00044310593059B0368D3F82471D3F8084119
:105C0000D3F8442144B9002A2FD1002FF4D03544D1
:105C10000023EB75032249E7002FF8D13ABBCC7D76
:105C2000C3F80821CCB1D3F808410694069CCF688C
:105C30004C7ED3F818353B554B7ECC7D0133DBB21F
:105C40004B764B7E9C42D6D835440021AB7EE9751D
:105C50006BB303680121196028E7D3F80841079462
:105C6000079CD3F818354B7EEEE7002FCFD1354493
:105C70000023EB750F2219E7112217E7036801E0F3
:105C800042B980B9D3F81041D3F84421D3F82401A4
:105C9000002CF5D00E440023F3750028BAD19A42A7
:105CA00018BF0F2202E73144CA750322FEE60368DB
:105CB00001215960FAE600BF30010020114A037942
:105CC00002EB4313197FD9B99B7ECBB910B401689D
:105CD00083B0C1F82431D1F8244101680094009CBC
:105CE000C1F80831D1F80831016801930123019C02
:105CF0000B60017902EB4112937603B05DF8044B1F
:105D0000704700BF3001002070B59B4C237F8EB0E0
:105D1000002B75D1994AD2F80413890548D4974BC2
:105D2000D3F80423520704D5D3F80821002A40F001
:105D3000CA80924BD3F81C21C2B1A28AA07D8E49A1
:105D400092B282424FF00002C3F81C2180F0A98079
:105D5000D3F81C210692069A888A8A8A8D6880B2B6
:105D60000132285C92B28A82C3F81C05834BD3F8B7
:105D70004421DAB10022C3F84421D3F84411A27EB1
:105D800004910499002A40F08980E27D7A4B6AB13F
:105D90000022587ED968DA7501228DF830000B9107
:105DA0008DF828200AA893E8060090470EB070BD31
:105DB000D2F824110029B2D0C2F82431D2F824112B
