:1000000000000120650500008D0500008F0500003F
:100010009105000093050000950500000000000018
:100020000000000000000000000000009705000034
:1000300099050000000000009B0500009D050000E0
:10004000956E00009F050000C15C0000A9830000C0
:100050009F0500009F050000418900009F050000EA
:100060009F0500009F0500009F050000ED85000032
:100070009F0500009F0500009F0500009F050000F0
:100080009F050000C96600009F0500009F05000055
:100090009D6700009F0500009F0500009F05000070
:1000A0009F0500009F0500009F0500009F050000C0
:1000B0009F0500009F0500000000000000000000F8
:1000C0009F0500009F0500009F0500009F050000A0
:1000D0009F0500009F0500009F0500000000000034
:1000E0000000000000000000000000000000000010
:1000F0000000000000000000000000000000000000
:1001000000000000000000000000000000000000EF
:1001100000000000000000000000000000000000DF
:1004000010B5054C237833B9044B13B10448AFF34E
:1004100000800123237010BDCC00002000000000EC
:1004200048C100000C4B43B10C480D4910B5AFF367
:1004300000800C48036823B910BD0A48036833B92B
:100440007047094B002BF7D0BDE810401847064B0A
:10045000002BF5D0184700BF0000000048C1000085
:10046000D0000020C800002000000000154B002B29
:1004700008BF134B9D46A3F5803A00218B460F46DB
:100480001348144A121A00F063F80F4B002B00D0E7
:1004900098470E4B002B00D0984700200021040005
:1004A0000D000D48002802D00C48AFF3008000F08A
:1004B0002BF82000290005F0B1FD00F011F800BF75
:1004C0000000080000000120000000000000000003
:1004D000CC000020F809002000000000000000000F
:1004E00008B5074B044613B10021AFF30080054B5C
:1004F0001868836A03B19847204600F031F800BFBE
:1005000000000000A0A6000070B50D4E0D4CA41B0D
:10051000A4100025A54209D10B4E0C4C0AF0B4F8EA
:10052000A41BA4100025A54205D170BD56F82530A6
:1005300098470135EEE756F8253098470135F2E740
:10054000C0000020C0000020C0000020C400002027
:1005500002440346934200D1704703F8011BF9E7B8
:10056000FEE700BF0649074A074B9B1A03DD043B21
:10057000C858D050FBDC00F025F8FFF777FF0000EB
:1005800054C1000000000020CC000020FEE7FEE780
:10059000FEE7FEE7FEE7FEE7FEE7FEE7FEE7FEE733
:1005A000BFF34F8F0549064BCA6802F4E06213435C
:1005B000CB60BFF34F8F00BFFDE700BF00ED00E051
:1005C0000400FA05F8B5A34B1B78062B1FD0A24AEE
:1005D000D2F8883043F47003C2F88830BFF34F8FED
:1005E000BFF36F8F4FF01023D3F80C22D20700F126
:1005F0001381D3F80022002AC0F2E880D3F8043235
:10060000002BC0F2E380954B954A1A60F8BD954BDC
:100610001B681F07DBD1944B1B6803F0F003302BE2
:1006200002D1924B924A1A608F4B1B6803F0F00282
:10063000302A00F0BA8003F0E003402B00F0B580D0
:10064000894B1B6803F0F003302B00F09E80864B33
:100650001B6803F0F002302A00F0838003F0E0030F
:10066000402B7ED0804B1B6803F0F003302B6AD008
:100670007D4B1B6803F0F003302B4DD07A4B1B6889
:1006800003F0F003502BA2D14FF08052794BD2F8F7
:100690000414C3F82015D2F80814C3F82415D2F8AE
:1006A0000C14C3F82815D2F81014C3F82C15D2F87E
:1006B0001414C3F83015D2F81814C3F83415D2F84E
:1006C0001C14C3F84015D2F82014C3F84415D2F80E
:1006D0002414C3F84815D2F82814C3F84C15D2F8DE
:1006E0002C14C3F85015D2F83014C3F85415D2F8AE
:1006F0003414C3F86015D2F83814C3F86415D2F86E
:100700003C14C3F86815D2F84014C3F86C15D2F83D
:100710004424C3F870255AE74E4B57491B78574D70
:100720005748584A05270F60012600243F21062B11
:100730002E60046011607FF44AAF4A4B1B681907B2
:100740007FF445AF9AE7434B4F4A1B780321062BB2
:1007500011607FF43CAF434B1B6818077FF437AF41
:1007600086E73C4B1B784FF080420021062BC2F8F5
:100770000C11C2F81011C2F838157FF428AF394BAC
:100780001B681C077FF423AF6CE7404A3149D368EC
:10079000097823F080730629D3607FF418AF314BBA
:1007A0001B681D077FF413AF51E7394A294B1268C4
:1007B0001B783849C2F34232062B0A607FF407AF38
:1007C000284B1B681E077FF402AF39E7324A01232A
:1007D000C2F80435D2F80034002BFBD04FF01023C0
:1007E00015212D4AC3F80012D2F80034002BFBD09B
:1007F0004FF010231521284AC3F80412D2F8003410
:10080000002BFBD000232449C2F80435D1F8003472
:10081000002BFBD0FFF7C4FE1F4B0122C3F80425B9
:10082000D3F80024002AFBD04FF010211A4AD1F847
:100830000C3223F00103C1F80C32D2F80034002B43
:10084000FBD000231449C2F80435D1F80034002B42
:10085000FBD0DFE7E00F00F000ED00E064000020D7
:100860000090D003E40F00F0E80F00F074C00740E0
:100870000DF0ADBA00C00040105600408856004050
:100880001856004014560040A0050040F0ED00E06E
:10089000440200103C05004000E001402DE9F04119
:1008A0002D4C84B094F8243000AF8BB3002807F1AE
:1008B000100118BF022001F80D0D62682368157839
:1008C00093F811800122781D00266D0008F08FFD3D
:1008D000334607F1040E01227D7307F1080187F802
:1008E00004804FF002051D483D73BE73C7F808E051
:1008F0006D4607F02FF918B1194A312105F052FE63
:10090000FB786374AD4600201037BD46BDE8F0812A
:10091000A27AF2B1B0B9F87062682368157893F8DA
:1009200011800122F91C781D00266D0008F05FFD82
:10093000334607F1040E012287F8048007F108010D
:100940007D73CEE7627C12B90123FB70E4E71846A1
:10095000DAE74FF0FF30D7E768000020A80000205A
:1009600068AE00002DE9F041674C86B0A37C00AF73
:10097000002B00F0BC806268236812781B79634802
:1009800007F1180652004FF0000E06F8153D01253C
:1009900042F001017A730222734679753D7307F1C3
:1009A0000801BD733D75BD1887F816E0BE603D6156
:1009B00007F0D0F8A37A626813F0010FBB7814BF78
:1009C00043F0200303F0DF03BB702368157893F82E
:1009D00004800122B91C781D08F009FD4FF0000EBB
:1009E0006D003E1D4FF0020C7346012207F1080115
:1009F00046487D7387F8048087F80EE0BE6087F86C
:100A00000CC06D4607F0A6F8002878D1404B41494C
:100A10001A68AD4640F6B83300BF00BF00BF00BF44
:100A200000BF00BF00BF00BF8A422FD000BF00BF81
:100A300000BF00BF00BF00BF00BF00BF00BF00BFBE
:100A400000BF00BF00BF00BF00BF00BF00BF00BFAE
:100A500000BF00BF00BF00BF00BF00BF00BF00BF9E
:100A600000BF00BF00BF00BF00BF00BF00BF00BF8E
:100A700000BF00BF00BF00BF00BF00BF00BF00BF7E
:100A800000BF00BF00BF00BF00BF00BF013BC3D11C
:100A900094F8223083BB302194F82320BB7002B13C
:100AA000B97062682368157893F81780B91C012221
:100AB0006D00781D08F09BFC4FF0020E7D7307F16E
:100AC00008014FF00005002301221048BD7387F88C
:100AD0000480BE6087F80CE06D4607F03BF818B163
:100AE0000D4A312105F05EFD0023AD46A3740020C0
:100AF0001837BD46BDE8F081B0218023CCE7064A17
:100B0000312105F04FFD81E768000020A80000209A
:100B1000640000200024F40068AE00002DE9F04FCE
:100B2000674C87B0A37C012B00AF00F0BB806268EC
:100B3000236812781B79634807F1180E4FF0000BF9
:100B40000EF8153D5200012542F0010C16465B4699
:100B500007F1080107F10208022287F815C07E7329
:100B6000C7F808E03D73BD733D7587F816B0C7F848
:100B7000108006F0EFFFBB786168226823F0200345
:100B8000BB7091F8009092F804A041462A46781D67
:100B900008F02DFC09FA05F92A463E1D02255B46A0
:100BA00007F1080147483D7387F80D9087F804A0C6
:100BB00087F80EB0BE606D4606F0CCFF00287AD1F3
:100BC000414B42491A68AD4640F6B83300BF00BFFA
:100BD00000BF00BF00BF00BF00BF00BF8A422FD0D0
:100BE00000BF00BF00BF00BF00BF00BF00BF00BF0D
:100BF00000BF00BF00BF00BF00BF00BF00BF00BFFD
:100C000000BF00BF00BF00BF00BF00BF00BF00BFEC
:100C100000BF00BF00BF00BF00BF00BF00BF00BFDC
:100C200000BF00BF00BF00BF00BF00BF00BF00BFCC
:100C300000BF00BF00BF00BF00BF00BF00BF00BFBC
:100C4000013BC3D194F822300222BA707BBB32221E
:100C500094F8233003B1BA7062682368157893F86A
:100C600017904146012200266D00781D08F0BFFB59
:100C70004FF0020E7D7307F108013D1D334601223E
:100C80001048BD6087F80490BE7387F80CE06D468D
:100C900006F060FF18B10E4A312105F083FC0123F4
:100CA000AD46A37400201C37BD46BDE8F08F8223FB
:100CB000BB70B222CCE7064A312105F073FC7FE716
:100CC00068000020A8000020640000200024F40038
:100CD00068AE00002DE9F04F2DED028BBD4CADF557
:100CE0000D7D02AF30CC07F128064FF000084FF021
:100CF000010986F8018086F8009095F800A094F824
:100D000015B0F960BA6031460222044607F11500B9
:100D10007B600AFA09FA08F06AFB07F114054346FA
:100D20004FF0030E4A4607F11801AB4887F81E80C2
:100D300087F814B087F81DA0BD6187F81CE0E8466D
:100D400006F008FF18B1A54A312105F02BFCA44A92
:100D5000A44B1268A449C54600BF00BF00BF00BF36
:100D600000BF00BF00BF00BF8A422FD000BF00BF3E
:100D700000BF00BF00BF00BF00BF00BF00BF00BF7B
:100D800000BF00BF00BF00BF00BF00BF00BF00BF6B
:100D900000BF00BF00BF00BF00BF00BF00BF00BF5B
:100DA00000BF00BF00BF00BF00BF00BF00BF00BF4B
:100DB00000BF00BF00BF00BF00BF00BF00BF00BF3B
:100DC00000BF00BF00BF00BF00BF00BF013BC3D1D9
:100DD000804B4FF000095B6886F8009093F800A004
:100DE0007C4B1B683146012207F1150093F811B0C6
:100DF0004FEA4A0A08F0FBFA07F114054FF0020E19
:100E00004B4607F118010122734887F81DA087F8A7
:100E100014B0BD6187F81E9087F81CE006F09AFEBA
:100E200018B16E4A312105F0BDFB6A4B5A681B6848
:100E300092F800A093F8059001223146C54607F1CB
:100E4000150008F0D4FA4FF0000E4FEA4A0A4FF0AE
:100E5000020C07F114057346012207F118015E48E0
:100E600087F81DA087F81490BD6187F81EE087F809
:100E70001CC006F06FFE18B1584A312105F092FBF4
:100E8000544B5A681B6892F800A093F81590012201
:100E90003146C54607F1150008F0A9FA4FF0000EDB
:100EA0004FEA4A0A4FF0020C07F11405734601227B
:100EB00007F11801484887F81DA087F81490BD6114
:100EC00087F81EE087F81CC006F044FE18B1434ABC
:100ED000312105F067FB3F4B5A681B6892F800A070
:100EE00093F81A9001223146C54607F1150008F023
:100EF0007EFA4FF0000E4FEA4A0A4FF0020C07F15B
:100F000014057346012207F11801334887F81DA024
:100F100087F81490BD6187F81EE087F81CC006F0C2
:100F200019FE002840F00A842A4B5A681B6892F880
:100F300000A093F8049001223146C54607F1150040
:100F400008F055FA4FF0000E4FEA4A0A4FF0020C33
:100F500007F114057346012207F118011E4887F8AE
:100F60001DA087F81490BD6187F81EE087F81CC0AB
:100F700006F0F0FD002840F0E7830C23154A33709B
:100F8000144B52681B6892F800A093F80490012259
:100F90003146C54607F1150008F029FA4FF0000E5A
:100FA0004FEA4A0A4FF0020C07F11405734601227A
:100FB00007F11801084887F81DA087F81490BD6153
:100FC00087F81EE087F81CC006F0C4FD002840F03A
:100FD000C0830BE068000020A800002068AE00007D
:100FE00064000020400D03000024F400874A884973
:100FF000126843F69823C54600BF00BF00BF00BF7C
:1010000000BF00BF00BF00BF8A422FD000BF00BF9B
:1010100000BF00BF00BF00BF00BF00BF00BF00BFD8
:1010200000BF00BF00BF00BF00BF00BF00BF00BFC8
:1010300000BF00BF00BF00BF00BF00BF00BF00BFB8
:1010400000BF00BF00BF00BF00BF00BF00BF00BFA8
:1010500000BF00BF00BF00BF00BF00BF00BF00BF98
:1010600000BF00BF00BF00BF00BF00BF013BC3D136
:10107000684B684A5B6B52685B7A3370654B92F8D9
:1010800000A01B683146012207F1150093F8029079
:1010900008F0ADF94FF0000E4FEA4A0A4FF0020C8B
:1010A00007F1140507F11801734601225A4887F821
:1010B0001DA087F81490BD6187F81CC087F81EE05A
:1010C00006F048FD002840F04983524B514A5B6BC3
:1010D00052681B7A33704F4B92F800A01B680122B4
:1010E0003146C54607F1150093F8019008F07FF9E5
:1010F0004FF0000E4FEA4A0A4FF0020C07F11405B8
:101100007346012207F11801434887F81DA087F8AC
:101110001490BD6187F81EE087F81CC006F01AFD28
:10112000002840F05D83BB68C546002B00F0548367
:10113000384B5B6B9B7A43F0E003364A3370354B98
:1011400052681B6892F8009093F80680012231469D
:1011500007F1150008F04BF94FF0000E4FEA49096E
:101160004FF0020C07F114057346012207F1180134
:10117000294887F8148087F81D90BD6187F81EE024
:1011800087F81CC0E84606F0E5FC18B1234A312177
:1011900005F008FABB68C54623B11E4B5B6BDB7AD2
:1011A00043F0E0031B4A33701A4B52681B6892F8F5
:1011B000009093F807800122314607F1150008F0EE
:1011C00016F94FF0000E4FEA49094FF0020C07F1F3
:1011D00014057346012207F118010F4887F814809F
:1011E00087F81D90BD6187F81EE087F81CC0E846AF
:1011F00006F0B0FC18B1094A312105F0D3F9034AD1
:10120000074B12680249C5460CE000BF640000208D
:101210000024F40068000020A800002068AE000050
:10122000400D030000BF00BF00BF00BF00BF00BFF4
:1012300000BF00BF8A422FD000BF00BF00BF00BF69
:1012400000BF00BF00BF00BF00BF00BF00BF00BFA6
:1012500000BF00BF00BF00BF00BF00BF00BF00BF96
:1012600000BF00BF00BF00BF00BF00BF00BF00BF86
:1012700000BF00BF00BF00BF00BF00BF00BF00BF76
:1012800000BF00BF00BF00BF00BF00BF00BF00BF66
:1012900000BF00BF00BF00BF013BC3D14023B34A22
:1012A0003370B24B52681B6892F800A093F8049018
:1012B0003146012207F1150008F099F84FF0000EB1
:1012C0004FEA4A0A4FF0020C07F1140507F1180122
:1012D00073460122A64887F81DA087F81490BD61C7
:1012E00087F81CC087F81EE006F034FC18B1A14A4C
:1012F000312105F057F978239C4A33709B4B526893
:101300001B6892F800A093F8059001223146C5466B
:1013100007F1150008F06BF84FF0000E4FEA4A0A8B
:101320004FF0020C07F114057346012207F1180172
:101330008F4887F81DA087F81490BD6187F81EE0DC
:1013400087F81CC006F006FC18B18A4A312105F066
:1013500029F9F9680023A360636023608B604B6008
:101360000B607B68C546002B40F03F82FD684FF064
:10137000000B814A8149126842F2107300BF00BF1E
:1013800000BF00BF00BF00BF00BF00BF8A422FD018
:1013900000BF00BF00BF00BF00BF00BF00BF00BF55
:1013A00000BF00BF00BF00BF00BF00BF00BF00BF45
:1013B00000BF00BF00BF00BF00BF00BF00BF00BF35
:1013C00000BF00BF00BF00BF00BF00BF00BF00BF25
:1013D00000BF00BF00BF00BF00BF00BF00BF00BF15
:1013E00000BF00BF00BF00BF00BF00BF00BF00BF05
:1013F000013BC3D15D4B5D4A5B6812681B78127B71
:10140000BA745B0043F001024FF0020C4FF0000E83
:101410007B7787F82520012307F11202BA613B7719
:10142000BB7707F11801734651483E62624687F860
:1014300024C087F826E006F08DFB337896F801800B
:1014400048EA03284E4BA3FB0838C8F3C708CBF182
:10145000C803434580F287815FFA83F8434B434AD0
:101460001B6852685B7B1278FB7408EB48039B0097
:1014700013F0FF0140F08E8108F1FF3E5FFA8EFE0F
:101480000EF1010E0EEB4E0E06EB8E0E33465A7821
:1014900093F800C0D87893F802A0597993F8049093
:1014A00042EA0C2C2A6840EA0A2A686841EA0929BB
:1014B00002FA8CF2A9682A6000FA8AF09A7993F805
:1014C00007A093F80AC0686001FA89F1A96093F84F
:1014D0000890597A20684AEA022ADA7A41EA092908
:1014E00042EA0C2C6168A2680C3300FA8AF001FA17
:1014F00089F102FA8CF29E4520606160A260C6D13B
:10150000C344BBF1C70F7FF734AF7B68FD60002B8E
:1015100040F07081154B4FF000085B6886F8008042
:1015200093F80090114B1B683146012207F1140516
:1015300007F115005E794FEA490907F058FFBD61D0
:1015400043464FF0020507F11801012208483E7595
:1015500087F81D9087F81E803D776E4606F0FAFAF0
:1015600090B1044A312105F01DF80DE0680000201B
:10157000A800002068AE0000640000200024F400F1
:10158000ABAAAAAA0000803720685A46C3171904DC
:10159000D317B54641EA10411E46832200230004BA
:1015A00007F056FD5A46334607F052FD6368206047
:1015B000D917090441EA134118048322002307F0D4
:1015C00047FD5A46334607F043FDA3686060D917CC
:1015D000090441EA134118048322002307F038FD6F
:1015E0005A46334607F034FDFB68A060D3F800E0AC
:1015F0007046C11709044FEA0E4241EA1E43002A11
:1016000073F100015D46C0F20981900B40EA83400E
:1016100099132A46334607F01BFDF968D1F804E018
:1016200083467046C1F800B0C11709044FEA0E4264
:1016300041EA1E43002A73F10001C0F2E980900BD9
:1016400040EA834099132A46334607F001FDFA68C1
:101650009168CB171B044FEA014843EA1149B8F1DE
:10166000000F824679F10003C2F804A0C0F2C880DE
:101670004FEA983033462A4640EA89404FEAA9317A
:1016800007F0E6FCFB680028CCBFA0F5803000F531
:10169000803098607B68002B48D007EE900A07EEF8
:1016A00010AA1FED488A6049F8EEE77AB8EEC77ACB
:1016B00006EE90BA67EE887A27EE087AF8EEE66AC8
:1016C000BCEEC77AFCEEE77A66EE886ACDED017A69
:1016D0008DED007AFCEEE67ABD6817EE903A2A4668
:1016E000032006F001F8D4ED027A94ED007A4F4918
:1016F000F8EEE77AB8EEC77A67EE887A27EE087ACE
:10170000FCEEE77ABCEEC77ACDED017AD4ED017A32
:10171000F8EEE77A2A4667EE887A17EE103AFCEE82
:10172000E77A0320CDED007A05F0DEFF002007F513
:101730000B77BD46BDEC028BBDE8F08F3C4A3121F2
:1017400004F030FFFFF7F0BB394A312104F02AFFE3
:1017500013E4374A312104F025FF47E4344A3121AC
:1017600004F020FFB1E4334B324A1B6852685B7BC4
:101770001278FB7408EB48039B0013F0FF0109D1BA
:10178000B8F1000F7FF478AEC344BBF1C70F7FF709
:10179000F0ADBAE652004FF0000907F1130042F035
:1017A000010C4FF0010E7A77B86187F824104B4690
:1017B000022207F11801204887F825C03E6287F809
:1017C000269087F81CE087F81EE006F0C3F9B8F110
:1017D000000F7FF451AED7E7164B5B6B9B7AACE4FE
:1017E000134A312104F0DEFE9DE41449032005F084
:1017F0001BFFBBE55A461249032005F02BFF89E683
:1018000043F6FF72002318EB020849EB03092FE7A8
:1018100043F6FF70002112184B4110E743F6FF70AA
:10182000002112184B41F0E6ECA600002CA70000A6
:1018300068AE000068000020A8000020B0A60000EC
:10184000D4A60000F0B52B4DAB7A87B0002B4ED05C
:1018500095E80C000E4606A91B78127C01F8152DA0
:101860005B004FF0020E00248DF80D30029143F022
:10187000010301218DF81530724623468DF816407C
:101880008DF80C1001AC8DF80E10074602A91A480D
:1018900004948DF814E006F05DF99DF804209DF89D
:1018A000053043EA02231CB216B103F0EDFD3060AF
:1018B0006B689FED126AB3F90820DB8807EE902A67
:1018C000B8EEE77A07EE904A06EE903AF8EEE77A3D
:1018D000F8EEE66A77EEC77A002087EEA67A77EE12
:1018E000067AFEEEC87AC7ED007A07B0F0BD4FF079
:1018F000FF30FAE768000020A800002000000C423A
:101900002DE9F047BB4C84B0A37A00AF002B00F068
:10191000758207F110054FF0000305F80D3D626870
:10192000236892F8008093F8119029460122781DCF
:1019300007F05DFD4FEA480807F1040A4FF0020E78
:101940004FF00006002307F108010122AA4887F89A
:101950000D8087F80490BE73C7F808A087F80CE0E4
:10196000E84606F0F7F818B1A44A312104F01AFE4F
:1019700062682368127893F805901646294601227A
:10198000C546781D07F033FD730019464FF0000E71
:101990004FF0020C79737346012207F10801964853
:1019A00087F80490C7F808A087F80EE087F80CC005
:1019B00006F0D0F818B1914A312104F0F3FD6268C5
:1019C0002368127893F80490164629460122C546EA
:1019D000781D07F00CFD730019464FF0000E4FF014
:1019E000020C79737346012207F10801824887F8D7
:1019F0000490C7F808A087F80EE087F80CC006F03E
:101A0000A9F818B17D4A312104F0CCFD94F82430B6
:101A1000C5461E46002B00F0F7800C236268FB7061
:101A200012782368164629460122781D93F804800F
:101A300007F0DDFC730019464FF0000E4FF0020C6A
:101A400079737346012207F108016B4887F8048017
:101A5000C7F808A087F80EE087F80CC06E4606F0BD
:101A600079F818B1654A312104F09CFD644B654951
:101A70001A68B5464CF2503300BF00BF00BF00BF2C
:101A800000BF00BF00BF00BF8A422FD000BF00BF11
:101A900000BF00BF00BF00BF00BF00BF00BF00BF4E
:101AA00000BF00BF00BF00BF00BF00BF00BF00BF3E
:101AB00000BF00BF00BF00BF00BF00BF00BF00BF2E
:101AC00000BF00BF00BF00BF00BF00BF00BF00BF1E
:101AD00000BF00BF00BF00BF00BF00BF00BF00BF0E
:101AE00000BF00BF00BF00BF00BF00BF013BC3D1AC
:101AF000A37AC022DB07FA7048BFE023626848BFC0
:101B0000FB7012782368164629460122781D93F847
:101B1000048007F06CFC730018464FF0000E4FF085
:101B2000020C78737346012207F10801324887F8E6
:101B30000480C7F808A087F80EE087F80CC0E846D4
:101B400006F008F818B12D4A312104F02BFD637C12
:101B500061682268002B18BF0223FB700B7892F893
:101B600011901E4601222946C546781D07F03FFC0C
:101B7000730019464FF0000E4FF0020C7973734654
:101B8000012207F108011C4887F80490C7F808A053
:101B900087F80EE087F80CC005F0DCFF002840F065
:101BA00023814FF000036268FB702368147893F878
:101BB0000590294601226400C546781D07F017FCF0
:101BC00002257C7300234FF0000407F10801012275
:101BD000094887F80490BC73C7F808A03D7305F066
:101BE000B9FF002840F005810020C5461037BD46EA
:101BF000BDE8F08768000020A800002068AE000063
:101C0000640000200024F40063680422FA7093F852
:101C10000080236801222946781D93F804904FEA3A
:101C2000480807F0E4FB33464FF0020E012207F1AB
:101C300008017448BE7387F80D8087F80490C7F8D0
:101C400008A087F80CE06E4605F084FF18B16E4AD4
:101C5000312104F0A7FCA37CB546002B00F0BD8029
:101C600040236268FB7012782368164629460122D9
:101C7000781D93F8048007F0BAFB730018464FF004
:101C8000000E4FF0020C78737346012207F1080131
:101C90005C4887F80480C7F808A087F80EE087F84A
:101CA0000CC06E4605F056FF18B1574A312104F0BA
:101CB00079FC564B56491A68B5464CF2503300BF72
:101CC00000BF00BF00BF00BF00BF00BF00BF8A420F
:101CD0002FD000BF00BF00BF00BF00BF00BF00BFCC
:101CE00000BF00BF00BF00BF00BF00BF00BF00BFFC
:101CF00000BF00BF00BF00BF00BF00BF00BF00BFEC
:101D000000BF00BF00BF00BF00BF00BF00BF00BFDB
:101D100000BF00BF00BF00BF00BF00BF00BF00BFCB
:101D200000BF00BF00BF00BF00BF00BF00BF00BFBB
:101D300000BF013BC3D1637C60682268003318BFD9
:101D40000123FB70294692F8118005780122781D45
:101D500007F04DFB4FF0000E6D004FF0020C07F145
:101D600008017346012227487D7387F80480C7F86D
:101D700008A087F80CC087F80EE005F0EBFE18B15C
:101D8000214A312104F00EFC62682368147821494D
:101D900093F8058001220025B546781D07F027FB42
:101DA00064004FF0020E07F108012B46012215488E
:101DB0007C7387F80480C7F808A0BD7387F80CE02F
:101DC00005F0C8FE18B1104A312104F0EBFB0020E9
:101DD000B5461037BD46BDE8F087A37A13F0010F72
:101DE0000CBF402360233CE7074A312104F0DAFBB3
:101DF000D7E6054A312104F0D5FBF5E64FF0FF3078
:101E0000F4E600BFA800002068AE000064000020D7
:101E10000024F400780000202DE9F0412E4C84B01D
:101E2000A37A00AF002B48D0B0F5FA7F4FD010D97D
:101E3000B0F57A7F47D0B0F5FA6F3ED11823227AF9
:101E4000FB7003239A420BD100201037BD46BDE83A
:101E5000F081FA2831D10023FB70227A9A42F3D024
:101E600062682368157893F806800122F91C002621
:101E70006D00781D07F0BBFA07F1040E7D73334641
:101E80004FF00205012207F1080114483D7387F85D
:101E90000480BE73C7F808E06D4605F05BFE18B11C
:101EA0000F4A312104F07EFBFB780020DB08AD46B1
:101EB00010372372BD46BDE8F0814FF0FF30103778
:101EC000BD46BDE8F0811023FB700223C5E708235F
:101ED000FB700123C1E700BF68000020A8000020BC
:101EE00068AE00000F4A537A032B17D8DFE803F0DF
:101EF000120E0A02102303702021D37C03B101705B
:101F000000207047082303701021F6E704230370B4
:101F10000821F2E7022303700421EEE74FF0FF30BF
:101F2000704700BF680000202DE9F0412E4C84B0BE
:101F3000A37A00AF002B51D002380E284ED8DFE82C
:101F400000F03B4D454D4D4D494D4D4D4D4D4D4D89
:101F500008001823FB700323627A9A4231D062682A
:101F60002368157893F807800122F91C00266D007C
:101F7000781D07F03CFA07F1040E7D7333464FF0ED
:101F80000205012207F1080118483D7387F8048013
:101F9000BE73C7F808E06D4605F0DCFD18B1144AC1
:101FA000312104F0FFFAFB780020DB08AD46103742
:101FB0006372BD46BDE8F081627A00239A42FB70ED
:101FC000CDD100201037BD46BDE8F0810823FB705D
:101FD0000123C1E71023FB700223BDE74FF0FF3060
:101FE0001037BD46BDE8F08168000020A800002041
:101FF00068AE00002DE9F0412B4C84B0A37A00AF0D
:10200000002B4ED0BB2832D861283AD90223FB706E
:10201000E27A9A4230D062682368157893F8028099
:102020000122F91C00266D00781D07F0E0F907F188
:10203000040E7D7333464FF00205012207F10801BB
:102040001A483D7387F80480BE73C7F808E06D46F0
:1020500005F080FD18B1164A312104F0A3FAFB788F
:10206000E372AD4600201037BD46BDE8F081E27A4C
:1020700001239A42FB70CED100201037BD46BDE847
:10208000F081292804D8132805D90423FB70BFE761
:102090000323FB70BCE709288CBF05230623FB70D4
:1020A000B6E74FF0FF30DEE768000020A800002010
:1020B00068AE0000002845D02DE9F041234C84B0E3
:1020C000E389984200AF37D8642835D8B3FBF0F0E5
:1020D00007F11001013801F80D0D626823681578C9
:1020E00093F82480012200266D00781D07F07FF907
:1020F00007F1040E7D7333464FF00205012207F10C
:10210000080113483D7387F80480BE73C7F808E0E0
:102110006D4605F01FFD18B10E4A312104F042FA58
:10212000FA78E38901320020AD46103793FBF2F3D1
:102130002385BD46BDE8F0814FF0FF301037BD4626
:10214000BDE8F0814FF0FF30704700BF680000200D
:10215000A800002068AE00002DE9F04F374E85B092
:1021600096F8243000AF002B47D1B47A002C62D00F
:1021700000F0FE052C40337C34742C1B9B4618BFAA
:102180004FF0FF34002D3ED1307D00284CD0737CC1
:1021900073BB07F110014FF0010901F80D9D726842
:1021A000336892F8008093F811A04A46781D07F032
:1021B0001EF94FF0000E08FA09F84A464FF0020CDB
:1021C00007F10409734607F108011D4887F80D80DF
:1021D00087F804A087F80EE0C7F8089087F80CC0CD
:1021E000E84605F0B7FCD0B9FB787374C5466DB905
:1021F00020461437BD46BDE8F08F00242046143732
:10220000BD46BDE8F08F737C002BC2D0FFF778FB92
:102210000028EDD086F810B04FF0FF34E8E7094A07
:10222000312104F0BFF9DFE7FEF738FB2046143711
:10223000BD46BDE8F08F4FF0FF34D9E768000020BD
:10224000A800002068AE00002DE9F04FA34D95F8DE
:1022500024408DB0002C40F036811C70AC7A002CEC
:1022600000F031812E7C002E00F02D8116F040040C
:102270001ABF02240427022716F0200F18BF3C467D
:102280000292F7066A68039148BF02341F462B6822
:10229000019048BFE4B20DF1300E360716781B7B73
:1022A0000EF81F3D4FEA46064FF0020A4FF00009B4
:1022B00048BF063446F0010C4B464FF001088DF83C
:1022C000256087488DF82DC005AE524608A948BF45
:1022D000E4B20A96CDF820E08DF82CA08DF82E906F
:1022E0008DF824808DF8268005F034FC9DF814309C
:1022F0009DF815601FFA84FB46EA03235B450093B3
:10230000C0F0B48019466B685A88B1EB520F24D9DB
:1023100018782A680DF1300ED37C0EF81E3D40006F
:1023200040F001014B468DF82D108DF825005246E6
:1023300008A96B488DF8248005AE8DF826800A9692
:102340008DF82C808DF82E90CDF820E005F002FC61
:102350009DF81430DB0600F1BB8003F095F8029B7A
:10236000186095E80C00527B1B788DF8132054B947
:10237000009B93FBF4F6169B013E20461E703C70BA
:102380000DB0BDE8F08F5A0042F001004FF0000997
:102390008DF82D0005A84B460DF1130E8DF8252064
:1023A0004FF0010802220A9008A94D488DF82C40F0
:1023B0008DF82E90CDF820E08DF824808DF82680C1
:1023C00005F0C8FB009B93FBF4F4169B013C1C70CA
:1023D00087F800902A7C12F008034BD104260221D2
:1023E000B4460C464FF0050E032012F0400F16D0F5
:1023F0000CAA1344904413F81C2C18F81C3C43EA14
:102400000223019A13803B78A34543F040033B70BD
:102410002CD02A7C80460B46644670463146960690
:1024200013D50CAA1344904413F81C2C18F81C3C28
:1024300043EA0223019A53803B78A34543F02003EB
:102440003B7013D02A7C80460B46D2060ED50CAAD0
:102450001344904413F81C2C18F81C3C43EA022344
:10246000019A93803B7843F010033B7000200DB03D
:10247000BDE8F08F9DF816309DF817209DF81440A8
:102480009DF815109DF81800039E42EA03229DF85E
:102490001930728043EA002341EA04213180B3807D
:1024A0003B78BBF1060F43F008033B70DED00A26F1
:1024B0000821B4460C462A7C4FF00B0E09204FF041
:1024C0000708062391E74FF0FF300DB0BDE8F08F0D
:1024D000FFF716FA6FF00100C9E700BF680000209F
:1024E000A80000202DE9F041244C84B094F823305A
:1024F000834200AF38D00028A27C14BF30230023D1
:10250000FB7019BFB221B0238023822114BF322572
:1025100002250AB1FD700B4694F8222002B1FB702F
:1025200062682368167893F817800122F91C054623
:10253000781D06F05CFF76000020034607F1040ECC
:102540007E73B8734FF00206012207F108010C48B0
:102550003E7387F80480C7F808E06E4605F0FAFA83
:1025600038B9B54684F8235000201037BD46BDE881
:10257000F081044A312104F015F8F2E768000020E8
:10258000A800002068AE0000282800F2AE802DE9E7
:10259000F04385B0044600AF78BB554DFFF7A2FF6E
:1025A0006B683C7007227A701E782B6802223946CD
:1025B000781D93F81580760006F019FF07F1040ED8
:1025C0002346BC7301224FF0030407F10801494878
:1025D0003C7387F804807E73C7F808E06C4605F00A
:1025E000B9FA18B1444A312103F0DCFF0020A546B6
:1025F00014372875BD46BDE8F0830120FFF772FF50
:10260000012C66D0022C67D0052C5FD90A2C66D825
:1026100005233B70364D6A682B68147893F809805F
:10262000394601226400781D06F0E1FE3E1D4FF0A0
:10263000020E7C7300234FF0000407F10801012211
:102640002C4887F80480BC73BE6087F80CE0E8462D
:1026500005F080FA18B1284A312103F0A3FF2023A6
:102660006A683B7014782B68394601226400C546BD
:10267000781D93F8159006F0BAFE4FF0020E7C73A9
:1026800007F108014FF0000400230122194887F8E0
:102690000490BE60BC7387F80CE005F05BFA18B1DB
:1026A000154A312103F07EFF95F8243008210022DD
:1026B0000120C546A9722A73287513B92B74FEF739
:1026C000EDF800201437BD46BDE8F08304233B70CD
:1026D000A0E702233B709DE703233B709AE7142C8D
:1026E00094BF062307233B7094E74FF0FF307047F9
:1026F00068000020A800002068AE00002DE9F04F1F
:1027000010F0700387B0054600AF00F0448101234C
:102710007B70AF4C62682368167893F81580791C3B
:102720000122781D06F063FE700007F1040B4FF0E4
:1027300000064FF0020E7873002307F10801012212
:10274000A448BE7387F80480C7F808B087F80CE087
:102750006E4605F0FFF918B19F4A312103F022FFC0
:102760007B7823F0400323736B06B54640F122814A
:1027700000233B207B7006463823392201214FF08D
:102780003A0E03204FF0020C15F0200F00F00681E6
:10279000E8065CBF797013462907626858BF7B70F2
:1027A0001278236816460122B918781D93F816800E
:1027B00006F01DFE730018464FF0000E4FF0020C9D
:1027C00078737346012207F10801824887F8048074
:1027D000C7F808B087F80EE087F80CC06E4605F021
:1027E000B9F918B17C4A312103F0DCFE15F0F70F7E
:1027F000B54602D00020FFF775FE626823681278A4
:102800001B79744807F11801520001F8153D42F098
:1028100001034FF0000C1E467A7302224FF0010EA6
:1028200063467E75B960BE1807F1080187F816C0C7
:1028300087F80CE087F80EE087F814E03E6105F0B9
:1028400089F9EA07BB7894F824204BBF11211021A5
:1028500043F0200303F0DF037970002A00F0A48026
:1028600043F080036268BB70236892F8008093F89D
:102870002690791C0122781D06F0B9FD4FF0000E5C
:102880004FEA48084FF0020C7346012207F1080195
:10289000504887F8049087F80D80C7F808B087F88B
:1028A0000EE087F80CC0E94605F054F918B14A4A21
:1028B000312103F077FE6268236892F8008093F874
:1028C00004A0B91C0122CD46781D06F090FD4FEA08
:1028D00048084FF0020E4FF0000607F108010023F0
:1028E00001223C4887F80D8087F804A0C7F808B09B
:1028F000BE7387F80CE005F02DF918B1364A312186
:1029000003F050FE354AA57200204CF25033CD46FC
:1029100012682075324900BF00BF00BF00BF00BF72
:1029200000BF00BF00BF8A422FD000BF00BF00BF62
:1029300000BF00BF00BF00BF00BF00BF00BF00BF9F
:1029400000BF00BF00BF00BF00BF00BF00BF00BF8F
:1029500000BF00BF00BF00BF00BF00BF00BF00BF7F
:1029600000BF00BF00BF00BF00BF00BF00BF00BF6F
:1029700000BF00BF00BF00BF00BF00BF00BF00BF5F
:1029800000BF00BF00BF00BF00BF013BC3D11C3769
:10299000BD46BDE8F08F50B17B70BAE687F801C044
:1029A000734632460146F3E603F07F035AE74023BD
:1029B0007B70AEE604233F207B7006463C233D221D
:1029C00005214FF03E0E07204FF0060CDCE600BF5D
:1029D00068000020A800002068AE0000640000200D
:1029E0000024F4002DE9F04F724C89B0A37A00AFB7
:1029F000002B00F0DB8094F82490B9F1000F40F038
:102A0000D580237D8046002B40F0898007F1150397
:102A100007F114057B6007F118061846B8F57A7FB0
:102A200028BF4FF47A78B8F1040F07F1200138BFBE
:102A30004FF004084FF47A7393FBF8F808F1FF386D
:102A400001F8118D6268236892F8008093F8019074
:102A5000012206F0CCFC4FF0000E4FEA48084FF080
:102A6000020C734601223146534887F81D8087F8CF
:102A70001490BD6187F81EE087F81CC0E84605F099
:102A800069F818B14D4A312103F08CFD208DFA7B95
:102A90006428034628BF642301324FF47A70C54688
:102AA00090FBF2F0E0818BB398422FD3B0FBF3F0B0
:102AB00007F12001013801F8100D6268236892F8CF
:102AC0000080786893F82490012206F090FC4FEA89
:102AD00048083146BD6102264FF00005002301225F
:102AE0003548BD7787F81D8087F814903E776D468E
:102AF00005F030F818B1314A312103F053FD3B7C29
:102B0000E0890133AD4690FBF3F32385C0F34F001A
:102B1000FFF770FA00202437BD46BDE8F08F431E52
:102B2000272B3CD94846FFF7DDFC636887F81090F7
:102B300007227A7493F800A0236807F115027A60DF
:102B4000104607F11001022207F1180693F815B09C
:102B500007F1140506F04BFC4FEA4A0A4B464FF0CA
:102B6000030E31460122144887F81E9087F814B0EE
:102B700087F81DA0BD6187F81CE0E94604F0EAFF74
:102B800020B90023CD462375786847E70B4A3121E9
:102B900003F008FD0023CD46237578683EE7FFF774
:102BA000F3FC48462437BD46BDE8F08F4FF0FF30B8
:102BB000B1E700BF68000020A800002068AE000058
:102BC0002DE9F04F8DB000AF07F13006AC4C8023FB
:102BD00006F8183D62682368157893F81580314629
:102BE0000122824607F1150006F001FC6A004FF051
:102BF00000054FF0020E87F8252087F826500023A5
:102C000007F1140507F1200101229E4887F814807E
:102C10003D6287F824E0E94604F09CFF18B19A4A27
:102C2000312103F0BFFC994A994B12689949CD466E
:102C300000BF00BF00BF00BF00BF00BF00BF00BF9C
:102C40008A422FD000BF00BF00BF00BF00BF00BF3F
:102C500000BF00BF00BF00BF00BF00BF00BF00BF7C
:102C600000BF00BF00BF00BF00BF00BF00BF00BF6C
:102C700000BF00BF00BF00BF00BF00BF00BF00BF5C
:102C800000BF00BF00BF00BF00BF00BF00BF00BF4C
:102C900000BF00BF00BF00BF00BF00BF00BF00BF3C
:102CA00000BF00BF013BC3D14FF0000263683A761A
:102CB00093F8008023683146012207F1140507F1DB
:102CC000150093F815B04FEA480806F090FB4FF056
:102CD000020E3D6200234FF0000507F120010122A2
:102CE000684887F8258087F814B087F8265087F859
:102CF00024E004F02FFF18B1634A312103F052FCA5
:102D00004FF00002E274636848223A7693F800803C
:102D10002368314601224FF00005CD4607F115002A
:102D20001E7A4FEA480806F062FB4FF0020E87F861
:102D30002650002307F11405012207F12001514814
:102D400087F825803E753D6287F824E004F002FF95
:102D500018B14D4A312103F025FC0026FF234FF620
:102D6000FF7EA37223726372E3722374A374CD4651
:102D70004FF0010331460C224748237384F8223078
:102D800084F8236066752675A4F80EE0A4F828E0A0
:102D9000FDF7DEFBA37A84F8246084F82560E684DE
:102DA000002B00F08984237A1822032B3A7430D048
:102DB0006268236892F8008093F80690012207F178
:102DC000100107F1140507F1150006F010FB4FEA9A
:102DD000480833463D6201224FF0020507F1200109
:102DE000284887F8266087F8149087F8258087F8A8
:102DF00024506E4604F0AEFE18B1234A312103F090
:102E0000D1FB3B7CA27ADB08B5462372002A00F096
:102E10005384637A00263E74002B3FD06268236897
:102E2000127893F80780154607F11001012207F187
:102E3000150006F0DCFA6B001D464FF0020E33461B
:102E400087F82550012207F1140507F120010D48EC
:102E500087F8266087F814803D6287F824E06E4684
:102E600004F078FE18B1084A312103F09BFB3B7C4B
:102E7000A27ADB08B5466372002A00F01D840DE0DB
:102E800068000020A800002068AE00006400002058
:102E9000A08601000024F4007E000020E37A0322D3
:102EA00093423A742BD062682368167893F80280B4
:102EB000012207F1100107F1140507F1150006F0D2
:102EC00096FA76004FF0020E3D6200234FF00005A7
:102ED000012207F120015F4887F8256087F81480F8
:102EE00087F8265087F824E06E4604F033FE18B1C8
:102EF000594A312103F056FB3B7CE372B546322040
:102F0000FFF770FD8146002840F0D68394F8243006
:102F100063B9A37A002B00F0CF83237D84F810904F
:102F2000002B00F0D0830120FDF7B8FCBAF1000FB0
:102F300014D04A4BDAF804201868386207F12001EF
:102F4000DAF8000005F00CFC18B1434A4F2103F0F9
:102F500029FBDAF80000012105F090FCFDF7DEFD09
:102F6000DFF8F0B00C2318264FF0000A4FF00108EC
:102F70007B6007F10E0546F0010E0023022207F1E7
:102F800020013D62584607F1140587F80EA087F826
:102F9000248087F8256087F82680BD6287F82C801A
:102FA00087F82EA087F82DE004F0D4FD3B7D7A68E9
:102FB000482B02F1010106F1020255D0CBB2102BD1
:102FC0007B60D6B2D5D12649012004F02DFBE389E0
:102FD000092B40F271832349A1FB0313DB0807F19E
:102FE000300194E84400013B01F8203D367892F826
:102FF000248007F11405012207F1150006F0F7F906
:1030000076004FF0020E3D6207F120014FF00005FF
:10301000002301220F4887F8265087F8256087F89B
:10302000148087F824E06D4604F094FD18B10A4A34
:10303000312103F0B7FA3A7CE389AD460020013232
:1030400093FBF2F32385FFF759FB48463437BD461F
:10305000BDE8F08FA800002068AE0000A4A6000024
:1030600078A90000CDCCCCCC7B6801221D4607F1AD
:103070001401102307F1110084F82A503B7507F161
:10308000100506F0B4F94FF00A0C4FF0020E0023C1
:10309000012207F12001904887F8256087F826A0D3
:1030A0003D6287F810C087F824E06E4604F052FDB8
:1030B00018B18A4A312103F075FA894A89491268A0
:1030C0004FF47A73B54600BF00BF00BF00BF00BF1A
:1030D00000BF00BF00BF8A422FD000BF00BF00BFAB
:1030E00000BF00BF00BF00BF00BF00BF00BF00BFE8
:1030F00000BF00BF00BF00BF00BF00BF00BF00BFD8
:1031000000BF00BF00BF00BF00BF00BF00BF00BFC7
:1031100000BF00BF00BF00BF00BF00BF00BF00BFB7
:1031200000BF00BF00BF00BF00BF00BF00BF00BFA7
:1031300000BF00BF00BF00BF00BF013BC3D11F23C2
:1031400094F82A803B7507F11401012207F1110060
:1031500006F04DF94FF0000E0A2202204FEA48080F
:1031600007F110053A7487F8240007F1200173462F
:103170000122594887F825803D6287F826E004F04F
:10318000E9FC18B1554A312103F00CFA544A55496B
:1031900012684FF47A73B54600BF00BF00BF00BF8E
:1031A00000BF00BF00BF00BF8A422FD000BF00BFDA
:1031B00000BF00BF00BF00BF00BF00BF00BF00BF17
:1031C00000BF00BF00BF00BF00BF00BF00BF00BF07
:1031D00000BF00BF00BF00BF00BF00BF00BF00BFF7
:1031E00000BF00BF00BF00BF00BF00BF00BF00BFE7
:1031F00000BF00BF00BF00BF00BF00BF00BF00BFD7
:1032000000BF00BF00BF00BF00BF00BF013BC3D174
:1032100094F82A30304807F1300E4FF0100A5B0066
:1032200007F1140200260EF821ADBA6243F0010244
:103230004FF001084FF0030C07F1200187F825300B
:1032400087F82D203346022287F82CC0C7F820E0EB
:1032500087F82E6087F8248087F8268004F07AFCAF
:103260003A7D97F815E0BB7D94F82AB087F814A052
:1032700080320EF1800E803307F11401A28507F130
:1032800011004246A4F82EE023860BFA08FB06F054
:10329000AEF807EB0A0533464FF00A0C4FF0020E6A
:1032A000424607F120010C4887F8266087F825B0D0
:1032B0003D6287F810C087F824E06E4604F04AFCAF
:1032C00018B1064A312103F06DF9054A0549126823
:1032D0004FF47A73B54607E0A800002068AE0000FE
:1032E000640000200024F40000BF00BF00BF00BF46
:1032F00000BF00BF00BF00BF8A422FD000BF00BF89
:1033000000BF00BF00BF00BF00BF00BF00BF00BFC5
:1033100000BF00BF00BF00BF00BF00BF00BF00BFB5
:1033200000BF00BF00BF00BF00BF00BF00BF00BFA5
:1033300000BF00BF00BF00BF00BF00BF00BF00BF95
:1033400000BF00BF00BF00BF00BF00BF00BF00BF85
:1033500000BF00BF00BF00BF00BF00BF013BC3D123
:10336000FDF700FB626840233B752368167893F8ED
:103370001A8007F11401012207F1110006F037F855
:103380004FF0000E76004FF0020C07F1100507F128
:10339000200173460122CD4887F8256087F8108008
:1033A0003D6287F824C06E4687F826E004F0D2FB21
:1033B00018B1C74A312103F0F5F894F82A30616852
:1033C000226863F07F033B7591F8008092F81EA09D
:1033D00007F114010122B54607F1110006F007F8C4
:1033E0004FF0000E4FEA48084FF0020C07F11005AD
:1033F0007346012207F12001B44887F8258087F839
:1034000010A03D6287F826E087F824C004F0A2FBF4
:10341000002840F032814FF0020A626887F814A059
:10342000236892F8008093F81FB0012207F114017D
:10343000B54607F1110005F0DAFF4FF0000E4FEA34
:10344000480807F110057346012207F120019F4843
:1034500087F8258087F810B087F824A03D6287F8A8
:1034600026E004F077FB002840F00C818823626896
:103470003B75236892F8008093F820A0012207F1A1
:103480001401B54607F1110005F0B1FF4FF0000E31
:103490004FEA48084FF0020C07F11005734601226D
:1034A00007F12001894887F8258087F810A03D6240
:1034B00087F826E087F824C004F04CFB002840F091
:1034C000E68094F82A3062683B75236892F80080A1
:1034D00093F821A0012207F11401B54607F111006C
:1034E00005F085FF4FF0000E4FEA48084FF0020C40
:1034F00007F110057346012207F12001734887F890
:10350000258087F810A03D6287F826E087F824C060
:1035100004F020FB002840F0BF800A2362683B755E
:10352000236892F8008093F822A0012207F1140189
:10353000B54607F1110005F05AFF4FF0000E4FEAB3
:1035400048084FF0020C07F110057346012207F1FD
:1035500020015E4887F8258087F810A03D6287F833
:1035600026E087F824C004F0F5FA002840F099809E
:10357000812362683B75236892F8008093F823A04A
:10358000012207F11401B54607F1110005F02FFFE4
:103590004FF0000E4FEA48084FF0020C07F11005FB
:1035A0007346012207F12001484887F8258087F8F3
:1035B00010A03D6287F826E087F824C004F0CAFA1C
:1035C00018B1434A312102F0EDFF112362683B75C7
:1035D000236892F8008093F826A0012207F11401D5
:1035E000B54607F1110005F002FF4FF0000E4FEA5B
:1035F00048084FF0020C07F110057346012207F14D
:103600002001324887F8258087F810A03D6287F8AE
:1036100026E087F824C004F09DFA18B12C4A312125
:1036200002F0C0FF032362683B75236892F80080B4
:1036300093F827A0012207F11401B54607F1110004
:1036400005F0D5FE4FF0000E4FEA48084FF0020C8F
:1036500007F110057346012207F120011B4887F886
:10366000258087F810A03D6287F826E087F824C0FF
:1036700004F070FAD0B9B546A9E4154A312102F038
:1036800091FFC8E6124A312102F08CFFEEE6104AA3
:10369000312102F087FF14E70D4A312102F082FF49
:1036A0003BE70B4A312102F07DFF61E7084A3121F7
:1036B00002F078FFB5468AE44FF0FF3948463437C8
:1036C000BD46BDE8F08FFDF7E9F82FE4A800002023
:1036D00068AE00002DE9F04F2DED048B9DB002AFD8
:1036E00015467862F962002A35D1784C94F824B0F6
:1036F000BBF1000F39D15A46237A032B96BF744988
:10370000002331F813307B61637A032B00F2D487F6
:10371000DFE803F015021D190823BB620423B86A11
:10372000E17C002908BF1846B862E37A013B052B0B
:1037300000F2A785DFE803F0B254C2BFBCB904238E
:10374000BB620223EBE72023BB621023E7E71023D1
:10375000BB620823E3E75D4C5E49032003F064FF8E
:1037600094F824B0BBF1000FC5D007F168031E46E2
:103770000020FDF793F83246237C02F8283D636869
:103780001B7811461E46012207F14D0005F02FFE61
:10379000730000211A4607F14C080B464FF0230C2A
:1037A0004FF0020E87F85D2087F85E10012207F1C6
:1037B00058014948C7F8588087F84CC087F85CE042
:1037C0006E4604F0C7F900287BD10023B54684F883
:1037D00024304FF0010BFEF793F894F824208BE788
:1037E00062233B62002A5DD1E389BB61A37AFB615E
:1037F000237C3B61002D40F014840223D7F8248001
:10380000FE6AFD6099462B46002231464046FDF790
:1038100061FA002864D04B46013B9946F3D1002D54
:1038200040F033854FF00009FF234FF6FF727869AF
:10383000237201256372E372A3722374E2812573FC
:10384000FEF7EAFAB86AFEF76FFB386AFEF7D2FBBA
:10385000B869FFF7C7F8F869FEF750FF94F824300D
:103860008BB9A37A002B00F0BF863A69267C02F060
:10387000FE0213402374002A40F04984207D00B1E9
:103880002846FDF70BF8BBF1000F40F07F83484658
:103890006C37BD46BDEC048BBDE8F08FBC233B62AA
:1038A000002AA1D00023BB61A0E705233B6299E772
:1038B0000A233B6296E714233B6293E72A233B6289
:1038C00090E7064A312102F06DFE7EE76800002095
:1038D000A8A600009CA90000A800002068AE000077
:1038E0008146FE62002D40F01D8407F1400307F180
:1038F0004C08BB60FB62184601222B4641464FF044
:10390000020AFDF7E7F958B1BAF1010A00F026837F
:10391000F86A2B4601224146FDF7DCF90028F3D175
:103920006368FE6202461B7887F86620164607F138
:1039300068020D2102F8381D5B0043F0010C4FF0C6
:10394000010E786087F85D304FF003093346BA65A1
:1039500007F13806CF4887F865C007F15801022201
:1039600087F85CE087F85EE03E6687F8649004F0D4
:10397000F1F8002D40F0558597F83830002B00F015
:103980003584013BC44ADFEDC56A32F813309FED40
:10399000C47A07EE903AF8EE677A4FF0000A67EEC5
:1039A000A67A67EE877A97F83930C7ED167A002B3A
:1039B00000F0BF83013BB84ADFEDB86A32F813303C
:1039C0009FEDB77A07EE903AF8EE677A97F83A30BB
:1039D00067EEA67A67EE877AC7ED177A002B00F0BC
:1039E000B383013BAC4ADFEDAD6A32F813309FED93
:1039F000AC7A07EE903AF8EE677A67EEA67A67EE51
:103A0000877AC7ED187ABAF1000F40F09F83002D36
:103A100040F0E485FB6AC7F800B0043B07F15802A8
:103A20004FF0000993461E4658F8292056F8043FE7
:103A3000D11A08EE101AF7EE007AB8EEC88A002DF7
:103A400040F02984DBED006A88EE267A77EE677A0B
:103A500017EE900A05F020FA41EC100B05F0B0F8D3
:103A60000022904B51EC100B05F0E8FA20B1012335
:103A700003FA09F34AEA030A09F10109B9F1030F4C
:103A80000BF1040BD0D1D7F800B0BAF1000F40F021
:103A90003383002D40F00283FB6A1E1F7B68FB62AC
:103AA000A946A8464FF0010A56F8040F05F0E2F9BE
:103AB00041EC100B05F084F800227B4B51EC100B0D
:103AC00005F0BCFA18B10AFA08F349EA030908F14B
:103AD0000108B8F1030FE7D1FB6A7B605FFA89FA4E
:103AE00063686C4893F800E007F1680200214FEA30
:103AF0004E0E02F8371D4EF0010607F138033B6603
:103B000087F85DE00B464FF0010E87F86560BA65F7
:103B1000032687F86610022207F1580187F85CE057
:103B200087F85EE087F8646004F014F8002D40F038
:103B30006B8497F83830002B00F09583013B564A90
:103B40009FED567A32F81330DFED586A07EE903A5F
:103B5000F8EE677A97F8393067EE877A002687EEB5
:103B6000A67A87ED167A002B00F08783013B4A4A3C
:103B70009FED4A7A32F81330DFED4C6A07EE903A47
:103B8000F8EE677A67EE877A87EEA67A97F83A308A
:103B900087ED177A002B00F02F83013B3E4A9FED03
:103BA0003F7A32F81330DFED416A07EE903AF8EED3
:103BB000677A67EE877A87EEA67A87ED187A002E05
:103BC00040F01C83002D40F0AF847B6AA3F1040910
:103BD000002307F15808FB62BB68FA6A53F82220F9
:103BE00059F8043FD11A08EE101AB8EEC88A002D11
:103BF00040F0C683D8ED007A88EE277A17EE100AD7
:103C000005F04AF941EC100B04F0DAFF0022254BD5
:103C100051EC100B05F0F4F918B1FA6A0123934046
:103C20001E43FB6A0133032BFB6208F10408D3D166
:103C3000002E40F02882002D40F0F9817B6AD7F8F1
:103C40000C90FD621E1F4FF0010856F8040F05F09E
:103C500011F941EC100B04F0B3FF0022144B51ECAE
:103C6000100B05F0EBF920B1FB6A08FA03F349EAFF
:103C70000309FB6A0133032BFB62E6D15FFA89F982
:103C8000B9FA89F94FEA5919BAF1000F12D149F07E
:103C900002090FE0A800002078A70000000080477C
:103CA000000080380000E03F0000E04000000343D7
:103CB00000003441FCF732FF94F82A6010230122FF
:103CC00007F1380107F1350087F8383005F08FFB30
:103CD000002071004FF00A0E034607F1340687F802
:103CE0005D1087F85E0087F834E001224FF0020E85
:103CF00007F158019F48BE6587F85CE0EA4603F08B
:103D000029FF18B19C4A312102F04CFC402394F861
:103D10002A8087F83830012207F13801D54607F1AB
:103D2000350005F064FB00210C204FEA48080B46E3
:103D30004FF0020E87F85E1087F83400012207F179
:103D400058018C4887F85D80BE6587F85CE003F019
:103D500001FF002840F04D84182394F82A8087F84A
:103D60003830012207F13801D54607F1350005F05A
:103D70003EFB00210A204FEA48080B464FF0020E96
:103D800087F85E1087F83400012207F1580179485E
:103D900087F85D80BE6587F85CE003F0DBFE0028F5
:103DA00040F04F830B23C7F82CB0D5469B467D626D
:103DB000724B73491A6842F2107300BF00BF00BF14
:103DC00000BF00BF00BF00BF00BF8A422FD000BFAE
:103DD00000BF00BF00BF00BF00BF00BF00BF00BFEB
:103DE00000BF00BF00BF00BF00BF00BF00BF00BFDB
:103DF00000BF00BF00BF00BF00BF00BF00BF00BFCB
:103E000000BF00BF00BF00BF00BF00BF00BF00BFBA
:103E100000BF00BF00BF00BF00BF00BF00BF00BFAA
:103E200000BF00BF00BF00BF00BF00BF00BF013B1D
:103E3000C3D194F82A204F48520007F132034FF0C3
:103E4000020A4FF0000807F1380542F0010EBB6589
:103E50003D6643464FF0010587F85D2007F15801A4
:103E6000524687F865E087F832A087F85C5087F8FB
:103E70005E5087F8645087F8668003F06BFE97F811
:103E80003830DB070BF1FF3B00F1B9831BF0FF0B70
:103E90008ED107237D6AD7F82CB0FB62102394F8EB
:103EA0002A8087F83830012207F1380107F1350000
:103EB00005F09DFA00204FEA480803464FF00C0C2D
:103EC0004FF0020E87F85E00012207F158012948E1
:103ED00087F85D80BE6587F834C087F85CE0E84607
:103EE00003F038FE18B1244A312102F05BFB94F84C
:103EF0002AA0102307F138010122C54607F1350039
:103F000087F8383005F073FA4FEA4A024FF0000E96
:103F10004FF00A0A4FF0020C87F85D2007F15801B4
:103F2000734601221348BE6587F85EE087F834A027
:103F300087F85CC003F00EFE18B10F4A312102F081
:103F400031FBC546FCF70EFD002D40F07F82FB6A79
:103F5000002B7FF469AC49F0040965E4002D3FF4BF
:103F600061AC0849032003F05FFB0749032003F01D
:103F70005BFB59E4A800002068AE0000640000204C
:103F80000024F40038AA000024AE000094F8243085
:103F9000012B3FF47CAC94F82530002B3FF477AC38
:103FA0000020FCF77BFCFCF7DDFCE08CFEF71AFD43
:103FB00007F16801002501F8345D636801221E786D
:103FC00007F1390005F013FA07F1380076002B46A7
:103FD0004FF0230E87F85E50B8654FF002050122BE
:103FE00007F15801D04887F85C5087F85D6087F882
:103FF00038E06D4603F0AEFD18B1CC4A312102F035
:10400000D1FA0123AD46184684F82430FCF746FC6B
:10401000FDF776FC48466C37BD46BDEC048BBDE829
:10402000F08FC349032003F0FFFAFFF7E6BB4FF41C
:10403000A012C049DFF84083D7F82490032003F092
:1040400009FBFE62D9F8000004F014FF41EC100BEC
:1040500004F0B6FD002251EC100BB74B04F0EEFF5C
:10406000FA6A414640B1D9F80030032003F00AFB58
:10407000FA6A012393401E43FB6A0133032BFB6260
:1040800009F10409DED15FFA86F9002D3FF4F8AD9D
:104090004A46AA49032003F0DDFAF1E54FF4004255
:1040A000A749FE6ADFF8D492032003F0D3FA7B68B5
:1040B000FB62D046306804F0DDFE41EC100B04F0EA
:1040C0007FFD002251EC100B9E4B04F0B7FF4246DF
:1040D000494640B13368032003F0D4FA012303FAC0
:1040E00008F34AEA030A08F10108B8F1030F06F1E0
:1040F0000406DFD1FB6A7B605FFA8AFA002D3FF489
:10410000EFAC52469049032003F0A4FAE8E42846B5
:10411000FCF7C4FBFDF7F4FB00283FF4B4AB2674B6
:10412000FFF7B1BB8949032003F07EFAFE6AFFF76F
:10413000DCBBDFED877A97F83A30C7ED177A4FF09E
:10414000010A002B7FF44DAC00233B66002D40F0AC
:104150008981FA6AFB6C12689FED7E7A9B1A07EEE2
:10416000903AF8EEE77AF4EEC77AF1EE10FA00F141
:1041700065819FED797AF4EEC77AF1EE10FACCBF43
:104180004FF0010A4FF0000AFA6A3B6D52689FED4A
:10419000717A9B1A07EE903AF8EEE77AF4EEC77A56
:1041A000F1EE10FA06D49FED6C7AF4EEC77AF1EED8
:1041B00010FA01DD4AF0020AFA6A7B6D92689FEDFF
:1041C000657A9B1A07EE903AF8EEE77AF4EEC77A32
:1041D000F1EE10FA07D49FED607AF4EEC77AF1EEB3
:1041E00010FA7FF752AC4AF0040A4EE4DFED587A39
:1041F0004FF0010AFFF7D7BB00233B66002D40F0CC
:104200009981796A3A6C08687B6C49689FED537AAA
:10421000121A07EE902AF8EEE77A5B1AF4EEC77AE4
:1042200007EE903AF8EEE77AF1EE10FAF4EEC77A7C
:104230004CBF01260026F1EE10FA01D546F0020629
:104240007A6ABB6C92689FED457A9B1A07EE903AAA
:10425000F8EEE77AF4EEC77AF1EE10FA7FF5E8AC03
:1042600046F00406E4E49FED3A7A97F8393087ED9A
:10427000167A0126002B7FF479AC9FED357A012662
:1042800084E400233B62FFF7ADBA35490320994629
:1042900003F0CAF969E607EE902A07EE103AF8EE45
:1042A000E77AB8EEC77AFCEEE77ABCEEC77ACDEDD6
:1042B000007AFCEEC87A17EE103A17EE902A2949D8
:1042C000032003F0F7F9DBED008A2749FCEEE87ADA
:1042D000032017EE902A03F0BDF988EE287A002318
:1042E00022490320F7EE007A37EE678AFCEEC87A9F
:1042F00017EE902A03F0C6F918EE100A04F0CCFD70
:1043000041EC100B04F05CFC002251EC100B184B3C
:1043100004F094FE4A46174900283FF4ADAB032051
:1043200003F098F9FFF7A3BBA800002068AE0000D7
:10433000C0A900006CAD000000003441D0AD000009
:104340001CAC00000000E04080AC000018AA000097
:104350000000000066666646CDCC2C470000704A1F
:10436000E0A90000B0AA0000F0AA000010AB000015
:104370000000E03F3CAB0000A0AD000050AC0000EE
:1043800007EE902A07EE103AF8EEE77AB8EEC77A11
:10439000FCEEE77ABCEEC77ACDED007AFCEEC87A87
:1043A00017EE103A17EE902AC549032003F082F960
:1043B00098ED009AC349FCEEC97A032017EE902AC3
:1043C00003F048F9C8EE098A0023BF490320FCEE38
:1043D000E87A17EE902A03F055F918EE900A04F0E7
:1043E0005BFD41EC100B04F0EBFB002251EC100BD9
:1043F000B64B04F005FEFA6AB54900283FF411AC4B
:10440000032003F027F908E497F83A1097F83930B9
:1044100097F8382000913046AE4903F04BF9FFF78A
:1044200088BB97F83A1097F8393097F83820009100
:104430004846A94903F03EF9FFF79EBA4FF0010A3A
:10444000A2E6A64A312102F0ADF8ABE4FD6AA44928
:104450002A46032003F0FEF8002D7FF486AD49F0D4
:10446000040982E59F49DFEDA08A9FEDA09A032011
:1044700003F0DAF843F699129D49032003F0EAF8B5
:104480004AF6CC429B49032003F0E4F8FE6A7A68BE
:104490003D604FF0000A331FD146FA621D4655F8C1
:1044A000043F58F82920944907EE903AF8EEE77A4D
:1044B000D31AFCEEE77A032017EE902A07EE903A23
:1044C00058F829300092B8EEE78A07EE903AF8EEF5
:1044D000E77ABCEEC87AFCEEE77A17EE102A17EE00
:1044E000903A03F0E7F8B4EEE88AF1EE10FA4A46A3
:1044F00082494FF0030011D503F0ACF8012303FA11
:1045000009F34AEA030A09F10109B9F1030FC6D117
:10451000FB6A7B60FE623D68FFF7B7BAB4EEC98AFA
:10452000F1EE10FAE8DCEEE77549032003F07CF8C1
:10453000FFF74BBB7349DFED748ADFF8DC91032092
:1045400003F072F84FF470127049032003F082F800
:104550007B6AC7F800B0A3F10408D7F808B07B68FD
:10456000FB62002658F8043FFA6A07EE903AF8EE2C
:10457000E77A5BF82210B960FCEEE77ACB1A17EE07
:10458000902A07EE903AB8EEE78A07EE901AF8EE16
:10459000E77ABCEEC87AFCEEE77A0092564917EE4D
:1045A000102A032017EE903A03F084F8B4EEE88A5C
:1045B000F1EE10FAFA6A49464FF0030005D503F010
:1045C00049F8FA6A012393401E43FB6A0133032B27
:1045D000FB62C7D1D7F800B0FFF72ABB4C490320D4
:1045E00003F022F8FFF716BABBF1000F3FF44FA912
:1045F000D1E43A4A312101F0D5FFFFF7ADBB94F881
:104600002A10D7F82CB07D6A87F8668007F1680019
:104610004FF0010387F85C3003234FEA410C00F8A8
:10462000353D4CF0010E4FF0010307F138015246C1
:1046300087F85E303966434687F865E007F1580130
:10464000B8654FF0060E334887F85DC087F864E020
:1046500003F080FA97F8383097F8391097F83B2034
:10466000184697F83A3040EA012143EA022301F163
:10467000C80292B2C833B2F5C87F9BB294BF002281
:104680000122B3F5C87FFA6203D9FB6A43F0020343
:10469000FB6297F83D2097F83C3043EA022303F58C
:1046A00048639BB2B3F5166F7FF6F8ABFB6A43F035
:1046B0000403FB62FFF7F2BB0023BB62FFF735B8D0
:1046C000B0AA0000F0AA000010AB00000000E03F1C
:1046D000E4AC0000A8AC000074AA000068AE0000C2
:1046E000F8AD00005CAB000066666646CDCC2C479A
:1046F0007CAB000098AB0000B4AB0000E8AB00005E
:10470000C8AC000004AD00000000704A20AD0000FD
:1047100094AA0000A80000203CAD0000002A6CD044
:104720002DE9F043364C85B0A37A00AF002B5ED064
:104730006368C5B25E897D700D44000AB542387069
:1047400055DC154622681E7892F81B8089460222A5
:104750003946781D04F04BFE00207600034607F131
:10476000040C4FF0030EB87307F10801012225482D
:1047700087F804807E73C7F808C087F80CE0E84625
:1047800003F0E8F918B1204A312101F00BFF5FFA7C
:1047900089F360682168067891F8189003F108029F
:1047A00022F00702C546ADEB020D29461A46002548
:1047B0000DF101005C1C760004F019FE8DF80090EC
:1047C00007F108012B4601220E48C7F808D07E7376
:1047D0003C73BD7303F0BEF918B10B4A312101F0EF
:1047E000E1FE0020C5461437BD46BDE8F0834FF01A
:1047F000FF301437BD46BDE8F0834FF0FF307047FF
:1048000068000020A800002068AE00002DE9F04FED
:10481000BA4E99B096F8254000AF002C40F02481A4
:10482000002900F021817B60BA60F960786200287D
:1048300000F0568110280546B37AA8BF1025AAB209
:104840003A62002B00F01081716887F8384087F8D1
:1048500039404B899D4200F30781FB68FB6207F1F9
:104860003803FB6107F13C03BB6107F13D037B614A
:1048700007F1500ABD622EE007F14009BA6AF86AF2
:10488000494604F0A5FD002840F0E8803B6A234437
:104890009CB27B6AA34240F2ED801B1B102BA8BF89
:1048A00010231846BB629BB23B62FB681B19FB627C
:1048B00000F0DA80B37A002B00F0D680220AE3B24F
:1048C000716887F8393087F838204A8913FA80F3FD
:1048D000934200F3C980336891F800807869F969E0
:1048E00093F81B90022204F082FDBD693D654FEAFA
:1048F00048084FF0030E4FF00005002301225146F7
:104900007F4887F83C9087F8558087F8565087F89D
:1049100054E0EB4603F01EF918B17A4A312101F058
:1049200041FE97F828807168336891F800901B7EEB
:10493000F96A3B6108F1080222F00702DD46ADEB9F
:10494000020D0DF10100424604F051FD3B698DF866
:10495000003008F1010E4FEA49094FF0000500232D
:10496000012251466648C7F850D087F8559087F81D
:10497000565087F854E003F0EDF818B1614A312140
:1049800001F010FEB37ADD46002B6DD0220AE3B2AF
:1049900087F8382071683A8D87F839301046BA6246
:1049A0004A89034493425FDC336891F80090786948
:1049B000F96993F81BB0022204F019FDBD693D6549
:1049C0004FEA49094FF0030E4FF000050023012282
:1049D00051464B4887F8559087F83CB087F85650B9
:1049E00087F854E0E94603F0B5F818B1454A31219B
:1049F00001F0D8FD96E80C00127E1B7887F837206E
:104A0000CD46B8F1000F3FF437AF5A0042F0010134
:104A10004FF0010007F1370E07F1400987F85520E4
:104A200087F85D100222514687F8540087F8560037
:104A30000023334887F85C804FF0000587F85E500C
:104A4000C7F850E0C7F8589003F084F8BA6AF86ADB
:104A5000494604F0BDFC00283FF418AF6FF0010098
:104A60006437BD46BDE8F08F4FF0FF306437BD4678
:104A7000BDE8F08FB9687869726887F839100B0A59
:104A800087F8383033681578F9695C7F022204F0C2
:104A9000AEFC4FF0000E6D004FF0030C87F83C4069
:104AA0005146BC6916483C657346012287F855504B
:104AB00087F856E087F854C06C4603F04BF850B9BD
:104AC000BA88F28401230020A546643786F8253091
:104AD000BD46BDE8F08F0B4A312101F063FDEFE7E1
:104AE00007F13803FB6107F13C03BB6107F13D03AC
:104AF0007B6107F1500A11461846BDE768000020A7
:104B0000A800002068AE0000F0B5424D85B095F8D1
:104B10002420824200AF75D0044600283FD095F88B
:104B20002530002B72D00020FBF7B8FEFBF71AFFF0
:104B3000E88CFDF757FF07F11001002401F80D4D37
:104B40006B681E780122781D04F051FC760007F195
:104B5000040C23464FF0230EBC7301224FF00204D5
:104B600007F108012C483C737E73C7F808C087F82A
:104B700004E06C4602F0EEFF60B90123A54618463A
:104B800085F82430FBF78AFEFCF7BAFE00201437C4
:104B9000BD46F0BD214A312101F004FDEDE7FBF7F0
:104BA0007DFE07F110012B7C01F80D3D6B681E782E
:104BB0000122781D04F01BFC760007F1040C23464B
:104BC0004FF0230EBC7301224FF0020407F10801DD
:104BD00011487E73C7F808C087F804E03C736E463E
:104BE00002F0B8FF48B90024B54685F82440FCF728
:104BF00087FE20461437BD46F0BD084A312101F03A
:104C0000D1FCF0E700201437BD46F0BD4FF0FF3077
:104C1000BDE700BF68000020A800002068AE0000CB
:104C2000F0B5394DAB7ADB0789B063D56A682B687C
:104C3000127893F828300F4608A9520001F81D3D5C
:104C400042F0010E00268DF81520012233468DF822
:104C50001DE00DF1040C04914FF0080E8DF81420A6
:104C60008DF816200446022228488DF81E6004A9FB
:104C7000CDF818C08DF81CE002F06CFF9DF80430F0
:104C800003F00303012B38D19DF90B30B34237DB1E
:104C90009DF80A009DF806C09DF805109DF808E0F3
:104CA0009DF807209DF8093041EA0C2143EA0023D2
:104CB00042EA0E2209B212B21BB221806280A380A6
:104CC000A88D10FB01F109122180E98D11FB02F280
:104CD000121262802A8E12FB03F31B12A3802FB1E3
:104CE00000F0D2FB3860304609B0F0BD3E46304699
:104CF00009B0F0BD4FF0FF36F5E76FF00106F2E7BF
:104D00006FF00206EFE700BF68000020A800002057
:104D1000C8234FF48062024940F6F630FFF776BDB3
:104D2000F8AE0000F0B587B000F00301C0F3C10297
:104D3000C0F38113044606A8014406AE4C25CD20DD
:104D4000324433448DF808508DF809006C270C2646
:104D5000C9252C208DF80A708DF80C608DF80D5047
:104D60008DF80E0012F80C0C11F810EC11F80C7CF8
:104D700012F8101C13F8106C13F80C5C8DF801106D
:104D8000362356218DF8050076208DF802608DF8C7
:104D90000650262646258DF810308DF81110662312
:104DA0008DF812006A46032140F226408DF800E09B
:104DB0008DF804708DF814608DF815508DF816304C
:104DC000FFF7ACFC00284ED101AA032140F22A4093
:104DD000FFF7A4FC002846D1032204A9684604F08A
:104DE00006FB05A9032201A804F001FB61070BD50E
:104DF0009DF800209DF8043042F0010243F00103C9
:104E00008DF800208DF80430A2060BD59DF8012006
:104E10009DF8053042F0010243F001038DF80120B6
:104E20008DF80530E30511D46A4603214FF48860FC
:104E3000FFF774FCB8B901AA032140F23140FFF733
:104E40006DFC80B90A4B1C8107B0F0BD9DF80220B3
:104E50009DF8063042F0010243F001038DF8022074
:104E60008DF80630E0E74FF0FF3007B0F0BD00BF2F
:104E7000E800002030B5144B0446596818689A6859
:104E800087B003ABC82C07C31AD8C823002593FBEF
:104E9000F4F301AA013B022140F216208DF80530FF
:104EA0008DF80450FFF73AFC50B903AA0C2140F6E4
:104EB000C120FFF733FC18B9044B9C8107B030BD0B
:104EC0004FF0FF3007B030BDBCAE0000E80000205E
:104ED000430700F09680B1F5C86F00F2928010B5DC
:104EE0002DED028B07EE901A84B0F8EE677A9FEDF5
:104EF000467A04460DF10B0087EE878AFCF7F2FF35
:104F00009DF80B30023B0E2B18D8DFE803F0591741
:104F10005E17171763171717171717171D0003AA20
:104F200002214FF4EA70FFF7F9FB38B90DF10E02D8
:104F300002214FF49270FFF7F1FB28B34FF0FF30DE
:104F400004B0BDEC028B10BDDFED307A9FED307AFE
:104F500068EE277A28EE078AFCEEE77ACDED007A34
:104F6000FCEEC87ABDF80020CDED017ABDF8043022
:104F70008DF80D20100A190AE2078DF80C008DF843
:104F80000F308DF80E10CAD4A30728D414F00400F3
:104F9000D6D003AA02214FF4EE70FFF7BFFB002822
:104FA000CCD10DF10E0202214FF49670FFF7B6FB43
:104FB000003018BF0120404204B0BDEC028B10BD90
:104FC000DFED147A9FED147AC2E7DFED147A9FEDDE
:104FD000147ABDE7DFED137A9FED137AB8E703AAE1
:104FE00002214FF4EC70FFF799FB0028A6D10DF1D8
:104FF0000E0202214FF49470FFF790FB0028C5D0F9
:105000009CE74FF0FF307047000048430000004528
:105010000000C044000080460000404600000046FA
:105020000000C04500008045000040452DE9F047E4
:1050300086B006AE9D4B46F80C3D04463246042130
:105040006820FFF76BFBA32314F040088DF80C30A9
:1050500000F02481C021C822C2238DF80D108DF8E4
:105060000E208DF80F3014F4C07700F00F81C421AA
:10507000CC22C6238DF810108DF811208DF8123037
:10508000A32332460A2140F6A7208DF813308DF86D
:1050900014308DF81530FFF741FB14F0030A14BFEC
:1050A0002023D8233246012140F6B6208DF80C305B
:1050B000FFF734FBA5064CBF7D4B7E4B1868596843
:1050C00093F808E06B4603C36A46092183F800E0C1
:1050D0004FF497606D46FFF721FB57B1E0054CBFD9
:1050E000754B764B03933246042140F6A220FFF71E
:1050F00015FBE10740F1C080F823324601214FF44F
:105100000B608DF80C30FFF709FBFA210720FFF741
:10511000DFFE3F232A4601214FF4A4704FF000091F
:105120008DF80030FFF7FAFA2A46012140F24F10BD
:105130008DF80090FFF7F2FA14232A4602214FF46B
:10514000EF708DF801308DF80090FFF7E7FA6423D7
:105150002A4602214FF4ED708DF801308DF8009051
:10516000FFF7DCFA564B00932A4604214FF4AE7049
:10517000FFF7D4FA08232A4602214FF4AD708DF8C8
:1051800001308DF80090FFF7C9FA022319462A462C
:105190004FF4AC708DF800908DF80130FFF7BEFA37
:1051A00014F0020F14BFD923D8233246012140F254
:1051B0003D708DF80C30FFF7B1FA620756D5414BC0
:1051C00000932A46042140F69820FFF7A7FAFCF73F
:1051D00097FBE3063CD53C4B00932A46042140F65E
:1051E0009E20FFF79BFAFCF78BFB384D44F0080339
:1051F0006B81FCF785FBB8F1000F1DD185F80E809F
:105200000423142210214FF00A0E1A2616204FF004
:10521000060C27B185F80EC073463246014614F0DD
:10522000140F1CBFA9731346BAF1000F00D0AB7363
:10523000002006B0BDE8F0870623AB731A220A23CC
:1052400016214FF0100E20261C204FF00C0CE0E72A
:105250000422A3212846FBF77BF92A46042140F6C5
:105260009E20FFF75BFAFCF74BFBBEE704228B2185
:105270002846FBF76DF9A4E7D823324601214FF405
:105280000B608DF80C30FFF749FA89E7A3238DF8FE
:1052900010308DF811308DF81230F1E68DF80D30A8
:1052A0008DF80E308DF80F30DDE600BF02CAE3093D
:1052B000C8AE0000D4AE0000B28BB69BB080B490F4
:1052C000008EF990C0C2C4C620283038E800002003
:1052D000F0B5164B87B059681D899F7A0446186847
:1052E0006A4603C253F80C0F158059681E899D7ACF
:1052F000977003AB03C3012C1E809D700DD0022C50
:1053000003D04FF0FF3007B0F0BD6A460B2140F6E6
:105310008220FFF703FA07B0F0BD03AA0B2140F685
:105320008220FFF7FBF907B0F0BD00BFE0AE000040
:10533000F0B590F90030002B13DD00232021082464
:1053400028264FF0300E1025382790F90320002A28
:105350001EDD90F90620002A24DD0020184380B2CB
:10536000F0BD44D190F90130002B2BDD90F90320E2
:10537000002A4FF001034FF021014FF009044FF0D4
:1053800029064FF0310E4FF011054FF03907E0DCE0
:1053900036D190F90430002B22DD90F90620002A46
:1053A0002346DADC2ED190F90720002A03DD4020C5
:1053B000184380B2F0BD35D190F90820002A3EDDB7
:1053C0008020CBE725D190F90230002B2DDD022380
:1053D00022210A242A264FF0320E12253A27B4E75A
:1053E00015D190F90530002B2DDD2B46B1E70423B4
:1053F00024210C242C264FF0340E14253C27A4E73E
:105400000B46A6E74FF48070184380B2F0BD3346D8
:105410009FE7052325210D242D264FF0350E152558
:105420003D2792E74FF4A07098E70FD1072327217B
:105430000F242F264FF0370E17253F2785E70ED173
:105440004FF4E0708AE70DD13B4682E70623262120
:105450000E242E264FF0360E16253E2775E74FF404
:10546000C0707BE7734674E708B501F0C7FC18B15C
:10547000044A0A2101F096F80020BDE8084001F036
:10548000D5BC00BFF0BA000030B583B002AA00233B
:1054900042F8043D104B114CD3F8045521682846BE
:1054A00001F094FC18B10E4A172101F07BF8019B22
:1054B0000C4925604FF47A7202FB03F212F5804228
:1054C0004FF00003086843F10003D20B42EA434265
:1054D0001044086003B030BD00B00040F800002068
:1054E000F0BA0000FC00002030B50478012C83B035
:1054F00024D010D3022C0CD1C36829492948019328
:1055000001228DF8004000F0A1FA274B68461B6885
:10551000984703B030BD2549254801F0BFF8002861
:1055200031D0234B9A68DB689A42F2D102A8032358
:1055300000F8083D1C4B1B689847EAE743681D4D7F
:105540001978284601F092F8A8B9AA68EB689A423F
:1055500006D002AB144A03F8080D126818469047AB
:10556000A968EB68AA885B1A9A4212D2124B0122F0
:105570001A7003B030BD0C4B01908DF800401B68D1
:1055800068469847ECE701220849064800F0A8F968
:10559000C7E701220249034800F058FAB9E700BF03
:1055A00028010020A0000020000100202C01002084
:1055B0001801002004010020140100202DE9F0430F
:1055C0002F4C89B02260002952D00C4680468A8830
:1055D0002C480968994601F039F810B109B0BDE8C6
:1055E000F083A289A168284801F030F80028F5D19D
:1055F000264D98F810E0D8F80C70D8F808600FCD58
:105600006C460FC495E80F0098F8115002971EF1F0
:10561000000E18BF4FF0010E002D84E80F00D8F8DF
:105620000050D8F804401A4A1A488DF81C9014BF4C
:105630000E2300238DF815306946D8F814308DF804
:1056400014E0069303968DE8300000F06FF8002810
:10565000C4D1D8F80030104A01331070BED09DF884
:105660001D304BB101220D490A4800F0EFF9B5E7B2
:10567000072009B0BDE8F083064800F0FBFAF1E727
:1056800000010020040100201801002018BB0000C8
:10569000E9540000A000002014010020280100208F
:1056A00070B50C4C01460C48267800F0F7FF054613
:1056B0000EB9284670BD002301220849084823700E
:1056C00000F0C4F90028F4D0064ABA2100F06AFFBD
:1056D000284670BD1401002004010020280100208C
:1056E000A000002038BB000010B501460C4800F0B7
:1056F000BDFF044608B1204610BD0A4800F09AF9E3
:105700000028F8D10849064800F0C8FF0028F2D167
:10571000012205490348BDE8104000F0E1B800BF90
:1057200018010020A00000202C0100202DE9F041EC
:105730000479684D64012E1986B0F37E1BB10820F0
:1057400006B0BDE8F0814F7F37770E684FF0A04E6E
:10575000012707FA06F6CEF808650E6806F5E0762A
:105760004FF0030C4EF826C04E6806F5E0764EF872
:105770002630067905EB4616377F002F4FD0066896
:105780008F69C6F8247591F814804F7D066847EA42
:105790000807C6F86C7591E840010768C7F80C6502
:1057A000C7F814850F7D012F00F08B802B1906465A
:1057B0005A600B692B51EAB10379097F026805EB46
:1057C00043131B7F002B5BD1C2F81C31D2F81C7134
:1057D00032680097009FC2F84431D2F84421336800
:1057E00001923D48019AC3F80403306840F3073042
:1057F00001F08CFB3379326805EB43131B7F002BE0
:105800003AD00823C2F800352C4400200123E37667
:10581000E0752076A075A07606B0BDE8F08103683B
:105820008E69C3F8246591F814804E7D036846EABA
:105830000806C3F86C6591E808010668C6F80C35DF
:10584000C6F814850E7D012EB0D18B6803F5E07388
:105850004EF82370CB6806FA03F3CEF80835CB6810
:1058600003F5E0734EF823C00368CF688E68C3F871
:105870000875C3F8106599E70423C2F80035C3E73B
:105880000023C2F81031D2F8107132680297029FDB
:10589000C2F82031D2F8207132680397039FC2F812
:1058A0002431D2F8247132680497049FC2F844313D
:1058B000D2F84421336805920848059AC3F80403D6
:1058C00093E78E6806F5E0764EF82630CB6807FA47
:1058D00003F3C2E730010020800002001003020041
:1058E000F0B50379524C5B01E51887B02D7F3DB1CF
:1058F0000D0C2D04B5F1005F02D0102007B0F0BDF3
:1059000023449E7D16B1112007B0F0BD9A759960B1
:105910009E8205796D016219137F13BB0168C1F87E
:105920001C31D1F81C61016804960126049F8E6029
:105930000168D2F808E0C1F81C31D1F81C31059398
:10594000059B968A938A5768B6B201331EF80660A3
:105950009BB29382C1F81C65002F2FD0002007B0A6
:10596000F0BD03689168C3F82061D3F82071036823
:105970000197019FC3F85861D3F8586103680296F4
:10598000967D029FC3F84415C3F84865036801215A
:1059900099605368002BE1D1036801E0002945D1EB
:1059A000D3F82021D3F85811002AF7D0002914BFCA
:1059B0000F2000202C440023A3759FE7967D938A37
:1059C0009BB29E4202F1140122D9016804E0938A3D
:1059D0009BB2B3F5807F03D0D1F81C31002BF6D0F9
:1059E000938A9BB2B3F5807FE9D0C1F81C71D1F8DE
:1059F0001C310393039BB2F814C0938A1FFA8CFCEA
:105A000001331EF80CC09BB29382C1F81CC5D6E7C7
:105A10000B889BB2B3F5807F08D00268D2F81C31A6
:105A2000002BFBD00123D3600020C3E70F20C1E788
:105A3000300100200279044B03EB4213987D0030C3
:105A400018BF0120704700BF30010020F0B4037977
:105A5000874E5B01F41888B0257F45B10D0C2D04ED
:105A6000B5F1005F54D0102008B0F0BC70476568F5
:105A7000002D3FD13344DC7D54BBDA75D9605C76B0
:105A80001C7605796D0173191F7F002F4DD19B7E08
:105A90008BB984B90368C3F82441D3F8242103687F
:105AA0000392039AC3F80841D3F8082103680492CB
:105AB000012204991A6072195368002B6BD0036895
:105AC0004FF401720020C3F8042308B0F0BC704703
:105AD0001C7ECCB1002D00F0A980037906EB4316A3
:105AE000337F002B50D003684FF40472C3F80423B3
:105AF0001120B9E704684FF401773344C4F8087300
:105B0000DC7D002CB9D0E3E719611A760124B8E7EF
:105B10006568002DAED004684FF404773344C4F8B0
:105B20000873DC7D002CA8D0D2E703680025C3F8F9
:105B30001051D3F8107103680197019FC3F84451C5
:105B4000D3F8445103680295029DC3F83415C3F895
:105B500038258CB9036801221A6002795201B31802
:105B60005B68002B64D003684FF404720020C3F814
:105B7000042308B0F0BC70470268D2F8003243F04A
:105B80002003C2F80032E8E703684FF40172C3F85B
:105B90000423112068E70168C1F84431D1F8443189
:105BA0000593059B0368D3F82471D3F80841D3F813
:105BB000441144B9002932D1002FF4D035440023D8
:105BC000EB75032050E7002FF8D151BBD47DE4B131
:105BD000C3F80811D3F8081106910699D468517ECC
:105BE000D3F818356354537ED17D0133DBB253763D
:105BF000537E9942D6D835440022AB7EEA758BB3EA
:105C000003680121104619602EE7C3F80841D3F854
:105C1000081107910799D3F81835537EEBE7002F49
:105C2000CCD135440023EB750F201DE711201BE775
:105C3000036801E041B988B9D3F81041D3F84411A1
:105C4000D3F82401002CF5D016440023F375002866
:105C5000B7D199420CBF18460F2005E73244032004
:105C6000D17501E70268012118465160FCE600BFCA
:105C700030010020114A037902EB4313197FD9B98F
:105C80009B7ECBB910B4016883B0C1F82431D1F840
:105C9000244101680094009CC1F80831D1F8083112
:105CA000016801930123019C0B60017902EB411211
:105CB000937603B05DF8044B704700BF30010020BD
:105CC00070B5A54C237F8EB0002B73D1A34AD2F8B8
:105CD0000413890546D4A14BD3F80423520704D5F5
:105CE000D3F80821002A40F0C9809C4BD3F81C212E
:105CF000BAB1A28AA17D92B28A424FF00002C3F8E3
:105D00001C2180F0A880D3F81C210692069AA18A53
:105D1000A28AA06889B20132415C92B2A282C3F821
:105D20001C158E4BD3F84421D2B10022C3F8442174
:105D3000D3F84411A27E04910499002A40F088808F
:105D4000E37D6BB10023617EE268E37501238DF88A
:105D500030108DF828300B9294E80A000AA8984772
:105D60000EB070BDD2F824110029B4D0C2F824318D
:105D7000D2F82411A37E07914FF401710798C2F85D
:105D800008130BB901235360744A02238DF828309D
:105D9000D2F88034C2F88034E07DE2680D930023AD
:105DA0008DF83000E375237621680B9263680AA8AA
:105DB00098479AE7694BD3F82421002A40F0928053
