:1000000000000120FD3000002531000027310000F4
:10001000293100002B3100002D31000000000000CC
:100020000000000000000000000000002F31000070
:100030003131000000000000333100003531000094
:100040007918000037310000373100008D2500009D
:10005000373100003731000041190000373100000E
:100060003731000037310000373100006D1E0000CD
:1000700037310000373100003731000037310000E0
:10008000373100006D0C00003731000037310000BF
:10009000310D0000373100003731000037310000EA
:1000A00037310000373100003731000037310000B0
:1000B0003731000037310000000000000000000070
:1000C0003731000037310000373100003731000090
:1000D00037310000373100003731000000000000E8
:1000E0000000000000000000000000000000000010
:1000F0000000000000000000000000000000000000
:1001000000000000000000000000000000000000EF
:1001100000000000000000000000000000000000DF
:1004000010B5054C237833B9044B13B10448AFF34E
:1004100000800123237010BD8C000020000000002C
:10042000083E0000084B10B51BB108490848AFF35F
:1004300000800848036803B910BD074B002BFBD0B0
:10044000BDE81040184700BF0000000090000020E9
:10045000083E00008800002000000000154B002B23
:1004600008BF134B9D46A3F5803A00218B460F46EB
:100470001348144A121A00F065F80F4B002B00D0F5
:1004800098470E4B002B00D0984700200021040015
:100490000D000D48002802D00C48AFF3008000F09A
:1004A0002BF82000290002F047FA00F011F800BFF5
:1004B0000000080000000120000000000000000013
:1004C0008C000020740B00200000000000000000E1
:1004D00008B5074B044613B10021AFF30080054B6C
:1004E0001868836A03B19847204600F033F800BFCC
:1004F000000000002C3D000070B50E4B0E4CE41ABD
:10050000A41000251E46A54204D056F82530984771
:100510000135F8E703F0FCFB084C094BE41AA41082
:1005200000251E46A54204D056F8253098470135CF
:10053000F8E770BD800000208000002084000020CB
:100540008000002002440346934202D003F8011BBE
:10055000FAE77047FEE700BF2DE9F04FC7B0174636
:100560001C46DDF844A10D46002900F01A81002B3D
:1005700000F0F0800A23019300231A4606AE539B35
:1005800020250AEB030B9146019809EB0003029327
:100590003133F71806EB0903002861D05A4202F004
:1005A0000302824228BF0246062800F2CA800246A1
:1005B000012A06F8095003F1010100F0C080022A67
:1005C0005D7003F1020100F0BA80032A9D7003F10F
:1005D000030100F0B480042ADD7003F1040100F08F
:1005E000AE80062A1D7103F1050140F0B0805D71F7
:1005F000991D96460198904230D0801A0390043895
:100600004FEA9008019800F1FF3CC2EB0C0C08F196
:100610000100BCF1020F4FEA800813D94A444FF0A1
:10062000203C012806EB020946F802C005D002284A
:10063000C9F804C001D0C9F808C0039A90454144E4
:10064000C6440BD001980D700EF10102824205D212
:100650000EF1020E86454D7000D28D70019A134442
:10066000DA1C781C03F1330CDDF848810CE002F849
:10067000035C02F8025C02F8015C0332624500F898
:10068000015C00F1010034D0A345F0D9A24588BF38
:10069000509902F8015C96BFCAEB0401095D18F895
:1006A00001104FEA211E5FFA8EF9BEF1090F01F029
:1006B0000F0ED4BF09F1300909F13709BEF1090F56
:1006C00002F8039C94BF0EF1300E0EF1370EA1F12B
:1006D000200902F802ECB9F15E0F02F1030288BFB3
:1006E0002E21624500F8011C04F1010400F1010013
:1006F000CAD102990D2201F143094FF00A083A7458
:1007000087F81180002783F830504B46B9461F46C2
:100710003A4606EB0901002002F0CEFB81443F1A65
:1007200010B9B8F1010801D0002FF1D15C454FF0AC
:100730000009FFF429AF204647B0BDE8F08F964688
:1007400058E7002A7FF434AF1946964655E74FF034
:10075000050E4FE7174B93E8030006AE04908DF8A3
:100760001410042204A9304602F03EFE2A68124901
:1007700007A802F045FE0028DDDB0A23051D0193D2
:10078000384602F069FEC22828BFC22002468046D1
:100790003946701902F028FE08EB050300241A46BA
:1007A000EDE61BB90194254606AEE9E701910A463C
:1007B00006AEE4E6383D0000303D00002DE9F04192
:1007C0009046C6B01F4611B3524B0C4693E8030047
:1007D00006AE04908DF81410042204A9304602F0ED
:1007E00003FE22684C4907A802F00AFE00280ADB33
:1007F0004C9B051D062B00F28B80DFE803F03C4C80
:10080000555F6B791300002046B0BDE8F0814C9B2A
:10081000062B7BD8DFE803F02E3D46505C6A0400CF
:10082000002506AE7869396997E80C000390FC68EA
:10083000BF680097029101944146701902F0E0FDF3
:100840000446002CDFDB2C44B4F5807FDBD80A277C
:10085000002506AE22467119002002F02DFB05444A
:10086000241A08B9013F01D0002CF3D1012046B071
:10087000BDE8F0810025404602F0EEFD4319FF2B54
:100880000446DED806AE41467019224602F0ACFDA1
:10089000D7E7002506AE3A684146701902F0B0FD70
:1008A0000446CEE7002506AE4146701997E80C00D5
:1008B00002F0A6FD0446C4E7002506AEB96897E835
:1008C0000C0070190091414602F09AFD0446B8E709
:1008D000002506AEF968BC6897E80C007019019114
:1008E0000094414602F08CFD0446AAE7002506AEBE
:1008F0003969FC6897E80C00BF6800970291019481
:100900004146701902F07CFD04469AE700249EE7F8
:10091000002498E7383D0000303D000070B50F4DD1
:100920002B7882B01BB10E4B1B78834212D001266C
:10093000044600964FF480730A4A0B49002002F0E7
:1009400079FB10B1082002B070BD054B2E701C70F1
:1009500002B070BD002002B070BD00BFA901002030
:10096000A8010020A8000020403D0000004870477A
:10097000BD070000004870475905000038B5002049
:10098000FFF7CCFF044668B9FFF7F0FF0546FFF715
:10099000F1FF054BFF22C3F810541C605C60C3F8E4
:1009A00014049A60204638BDAC0100200120FFF7F6
:1009B000B5BF00BF2DE9F041214C074600200E468F
:1009C000D4F80880256800F0F9FE94E80C00A168CE
:1009D0000B4401339B1A012B19D89BB10120002332
:1009E00060F301036FF382030520114060F3C50338
:1009F000144804EB81016FF38913013260F39F23E4
:100A00002260CB600020BDE8F04100F0DFBE013283
:100A10000020226000F0DAFE0122002362F30103CD
:100A20006FF3820308EA050567F3C50304EB850449
:100A30006FF3891366F39F23E360BDE8F08100BF85
:100A4000AC010020483D00002DE9F047274C8246CC
:100A50000020894690461F46A668256800F0AEFE35
:100A600094E80C00A1680B4401339B1A032B19D89E
:100A70009BB10120002360F301036FF38203052083
:100A8000114060F3C5031A4804EB81016FF3891329
:100A9000013260F39F232260CB600020BDE8F04765
:100AA00000F094BE03320020226000F08FFE01228D
:100AB000002362F30103A81CAA186FF382033540D8
:100AC00032406AF3C5030221064004EB850504EBBE
:100AD000820261F3891304EB860469F39F23EB60C0
:100AE000C2F80C80E760BDE8F08700BFAC010020D1
:100AF000483D00002DE9F0474C4E96E80C009A4224
:100B00008AB070D0B06804E0C4F3891202EB94524A
:100B1000134400EA0305023506EB850201335468ED
:100B200014F00302F0D0022A28D0C4F38312C4F3D5
:100B3000952C002A75D00DF1100E7546D71800EAD5
:100B4000030106EB81010133C96845F8041BBB4270
:100B5000F5D10092C4F3C20073466246D6F8104441
:100B6000324D0021A04738B177603068C01B18BFF4
:100B700001200AB0BDE8F0876F68F6E703F1010ACB
:100B800020EA0A010340013106EB830389004FEAA2
:100B900094588845DA68DFF894E0C4F3891326D9BD
:100BA000A9B300EA0A0C5FFA81F90EEB8C0CC9EBD1
:100BB00008010CF10C0C0EF10C00C9B2039102906B
:100BC000CDF80490CDF800C00021C4F3C200D6F8DF
:100BD0001474B847404520D006EB850560F38F14A8
:100BE0006C607768C1E700200AB0BDE8F08700EAD2
:100BF0000A000EEB80000C308DE801010021DEF8C8
:100C0000149403910291C4F3C200C847E2E70EF1C5
:100C10000C0C08465FFA88F9D0E703300AEB90071E
:100C2000A2E71F460DF1100E93E700BFAC010020B4
:100C300000B585B000230390194601AA44F20100D3
:100C4000ADF80430029300F003F805B05DF804FB42
:100C500008B505490120FFF7ADFEFFF7A7FEFFF736
:100C600049FF0028FBD1FFDE5C3D00002DE9F84381
:100C7000274A284B0025C2F84051C2F84451C2F817
:100C80004851C2F84C51C2F80051C2F804511B68D7
:100C90001BB32149D2F804250C68204F141B1A6895
:100CA00024F07F44A242A84609D8197CDE69A41A20
:100CB0001544A1B91EB133461A68A242F5D9184BA2
:100CC00018491A780B789A421BD01749174A41F8ED
:100CD00023504FF48013C2F80031BDE8F883D3F8F5
:100CE000149083F810803A689B69484619462AB1E7
:100CF00090470028DED0FFF79BFFDBE71846C84788
:100D0000D8E7531CDBB2022B08BF00230B70DCE7D3
:100D100000100140C8050020C4050020CC050020BB
:100D2000D0050020D1050020DC05002000E100E016
:100D30002DE9F04FA44AA54913780978A44889B051
:100D400000680090994200F0EB800133DBB2022B87
:100D500008BF002313709F4A52F82360009B9C4AEF
:100D6000334423F07F4313604FF0010E9A4B0796F4
:100D700093F800A0994BCDF818A0D3F80090964BAB
:100D80005B7801931D46944BD3F804B09B78029393
:100D90001C46934B1B7804938D4B00271B680393D1
:100DA00051464A464B460597BC4638462646B84605
:100DB000A9421AD001EB410401311BF83470C9B2C9
:100DC000B14208BF0021022F0BEBC40400F0838066
:100DD000032FEDD1002BEBD0DA6918741346002AEB
:100DE000FAD1A9424FF0010CE4D1DDF818A0079E1A
:100DF0004746BCF1000F40F0A380059A12B1744A37
:100E000003991160002F40F09C82BEF1000F40F06A
:100E1000C681B9EB030218BF0122079205937546FC
:100E20001E466B4ACDF810B0D2F800C06B4ADFF80E
:100E3000B891D646D2F800A0694A002312780093F0
:100E40001F4606924FF001089B463DB36A68A968A9
:100E50002C46ED69CCEB020323F07F434B4572D85F
:100E60000B4423606760A76084F81080E761002E60
:100E700000F08B80316899427ED2304603E01168E1
:100E8000994269D21046C2695B1A002AF7D12360E1
:100E9000E2613346C4611E46002DD7D1019B9E45B9
:100EA00000F0A4800EEB4E03049911F83320039256
:100EB00010460EF1010E029A5FFA8EFE724508BFCF
:100EC0004FF0000E012801EBC30364D0334601222A
:100ED00000921E46E0E76468002B3FF469AF9C4235
:100EE0009A4601D115E0BA46DAF81C70002F3FF49B
:100EF0005FAFBC42F7D1BA450CD0FC693F68CAF875
:100F00001C40002C3FF454AF23683B44236013463D
:100F10004EE71F46DA6932B113464FF0010CECE799
:100F20000026B64622E72F4B4FF00108C3F8088091
:100F3000C44613460392CDF81080CDF81480DCE748
:100F400026490A6059E7C2EB0C0222F07F428A422E
:100F500009D28B1A236085E7C91A11602360E26108
:100F60003346C46197E727606760A76084F8108004
:100F7000E76156B131680023CB1A33602346E6613E
:100F8000A2464FF0010B1E4686E72346A2464FF0CD
:100F9000010B1E4680E75C68227C009282B99A6849
:100FA0006260D968A1601869E0605B69A361069B13
:100FB000002B00F0F180009A626000932A4649E716
:100FC00033461E4668E700BFD0050020D10500204B
:100FD000C4050020DC050020D4050020C805002041
:100FE000D205002000100140FEFF7F00009B5A4602
:100FF000002B40F0AE8112B1824BC3F800A0059BDC
:10100000B34200F0BF80002E00F00A817E497F4C81
:10101000D1F8040525783368CCEB000222F07F423A
:101020000332002D50D17A4DDFF8ECE1794F4FF4C7
:101030008036C1F84463C1F804634FF40036C5F844
:1010400080612E6001250D60DEF800602F2100BF59
:1010500000BF00BF00BF00BF00BF00BF00BFBE4257
:101060002FD000BF00BF00BF00BF00BF00BF00BF48
:1010700000BF00BF00BF00BF00BF00BF00BF00BF78
:1010800000BF00BF00BF00BF00BF00BF00BF00BF68
:1010900000BF00BF00BF00BF00BF00BF00BF00BF58
:1010A00000BF00BF00BF00BF00BF00BF00BF00BF48
:1010B00000BF00BF00BF00BF00BF00BF00BF00BF38
:1010C00000BF0139C3D1257093422CBF9C44944486
:1010D0004D492CF07F43C1F84035D1F80425121A50
:1010E0001B1A22F07F4223F07F4303329A424DD9EC
:1010F000D1F80435484AC1F84035126845492F23D4
:1011000000BF00BF00BF00BF00BF00BF00BF00BFE7
:101110008A422FD000BF00BF00BF00BF00BF00BF8A
:1011200000BF00BF00BF00BF00BF00BF00BF00BFC7
:1011300000BF00BF00BF00BF00BF00BF00BF00BFB7
:1011400000BF00BF00BF00BF00BF00BF00BF00BFA7
:1011500000BF00BF00BF00BF00BF00BF00BF00BF97
:1011600000BF00BF00BF00BF00BF00BF00BF00BF87
:1011700000BF00BF013BC3D1254B4FF40032C3F881
:10118000002103E0079B002B7FF43DAF234A00239F
:10119000137009B0BDE8F08F039B00935AE6194A1B
:1011A000DDF800C017680020054601460446ABB1D3
:1011B0001A68B2421BD8D8681C60B61A1144DA69A2
:1011C00038B10CEB010727F07F47DD6198605F6065
:1011D0001D46134617467046002BE9D1002840F003
:1011E000BC800023059301230793059E19E6002880
:1011F00040F0AC80921B05931A6001230793059E73
:101200000FE600BFC805002000100140E4050020E3
:1012100000E100E00024F4007C000020D205002062
:101220004F4A504B504D51484FF480314FF40037E6
:101230000124C3F88070C2F848132F23C2F80813A2
:10124000546029681D4600BF00BF00BF00BF00BF3B
:1012500000BF00BF00BF81422FD000BF00BF00BF52
:1012600000BF00BF00BF00BF00BF00BF00BF00BF86
:1012700000BF00BF00BF00BF00BF00BF00BF00BF76
:1012800000BF00BF00BF00BF00BF00BF00BF00BF66
:1012900000BF00BF00BF00BF00BF00BF00BF00BF56
:1012A00000BF00BF00BF00BF00BF00BF00BF00BF46
:1012B00000BF00BF00BF00BF00BF013DC3D19460AD
:1012C0002B4A166000BF00BF00BF00BF00BF00BFB9
:1012D00000BF00BF81422FD000BF00BF00BF00BFD2
:1012E00000BF00BF00BF00BF00BF00BF00BF00BF06
:1012F00000BF00BF00BF00BF00BF00BF00BF00BFF6
:1013000000BF00BF00BF00BF00BF00BF00BF00BFE5
:1013100000BF00BF00BF00BF00BF00BF00BF00BFD5
:1013200000BF00BF00BF00BF00BF00BF00BF00BFC5
:1013300000BF00BF00BF00BF013BC3D10D4B1E70FB
:1013400024E70D4A9DF8101011705EE50B490F60FF
:1013500050E70B4B83F800E04DE6084B1F6040E779
:101360000010014000E100E07C0000200024F400B7
:10137000C4050020E4050020D2050020C805002097
:10138000D4050020C0B2002388724B72704700BFA2
:10139000F0B5007885B00C46002840F093800B7AB9
:1013A000CA680133127BDBB29A4200F28D80E36897
:1013B0001B6823B1E268E36851681B689847002501
:1013C00018E0597901F001018DF8041003958DF8AA
:1013D00007509B7913F0010F0CBF0022202201A9B6
:1013E00004F1100000F078FF002867D0E3681B6864
:1013F000002BDFD1002000F0E1F96379A279DBB2A4
:10140000934254D019B22268207952F821105A1C04
:10141000D3B2984238BF002363710B46E360E068A3
:10142000002849D0002000F0D1F92572227AE36823
:10143000D2B2986816B2F700C319597949088DF8E5
:10144000051050F83610029119798DF80610997927
:10145000C907B6D5587910F0010131D1E668367B5D
:101460000132B242B0DAE268926808373A445279FF
:101470005208B2EB500FA7D1E268237A9268D15993
:101480000391174401333A798DF807207A7912F0E5
:10149000010F0CBF032202228DF80420BA79DBB2BF
:1014A00012F0010F0CBF00222022237297E70023C5
:1014B000E360E0680028B5D100F088F905B0F0BD20
:1014C000012181E7032072E70B720A7ACB68D2B25E
:1014D000986815B2EE008319597949088DF80510FE
:1014E00050F83510029119798DF806109979C807CE
:1014F0002DD5587910F0010140D1E5682D7B0132DE
:10150000AA4227DAE268956806F1080215446D7967
:101510006D08B5EB500F1DD1E368217A9B68985890
:10152000039013444A1C19798DF80710597911F06A
:10153000010F0CBF032102218DF804109979D3B259
:1015400011F0010F0CBF0022202223720DE0597907
:1015500001F00101002203928DF807208DF804109C
:101560009B7913F0010F18BF202201A904F110008C
:1015700000F0B2FE00287FF41AAF9FE70121E9E7EF
:101580002DE9F041044600F1100617469846304612
:101590002346094A00F0ECFC054648B9304600F005
:1015A0008BFE6571C4F80080A57127716572E560D6
:1015B0002846BDE8F08100BF91130000F0B5044655
:1015C00085B000200D4600F0F9F8A3792279DBB24E
:1015D0009A4200F0AE806279013A934200F0AD8009
:1015E00019B2226842F821505A1C2179D3B299428B
:1015F00038BF0023A371002000F0E8F8002000F0BD
:10160000DDF8E568002D40F08E802E461CE059790B
:1016100001F0010103969B798DF8041013F0010F7E
:101620000CBF0022202201A904F110008DF8075000
:1016300000F052FE00286ED0E3681B68002B40F0DB
:101640008280184600F0BAF86379A279DBB293423F
:1016500064D019B22268207952F821105A1CD3B2F2
:10166000984238BF002363710B46E360E368002BA8
:1016700059D0002000F0AAF82572227AE368D2B28D
:10168000986817B24FEAC70E00EB0E035979490864
:101690008DF8051050F837100291997918798DF866
:1016A0000600C907B3D5587910F001013FD1E768AA
:1016B0003F7B0132BA42ADDAE26892680EF1080E61
:1016C000724452795208B2EB500FA3D1E268237AE8
:1016D000926852F80E100391964401339EF805204B
:1016E0009EF806109EF804008DF8070012F0010F16
:1016F0000CBF03220222DBB211F0010F8DF804208F
:1017000023720CBF0022202201A904F1100000F076
:10171000E3FD002890D1002005B0F0BD0023E36078
:10172000E368002BA5D1002000F050F8F3E7012179
:1017300070E76279002A7FF44EAF002000F046F88F
:10174000112005B0F0BDE268E36851681B68984756
:10175000002000F033F877E7F0B5044685B00020AC
:101760001F460E46154600F029F8637AC3B903F008
:10177000FF000123637200F029F80F4B01946946C2
:10178000204602968DF80C500093FFF717FF28B9FA
:1017900067B9637A002BFCD1A07AC0B205B0F0BD66
:1017A000002000F013F8112005B0F0BD637A002B83
:1017B000F2D0B847ECE700BF8513000072B6024ACA
:1017C0001368013313607047E8050020034A13686B
:1017D000013B136003B962B6704700BFE805002003
:1017E00038B50A4D2C780CB1852038BD204606212D
:1017F0006C60AC602C61EC6000F07AF84FF08042D5
:101800000123C2F818352B70204638BDEC050020A6
:1018100030B5164CA37883B0054673B110B1436858
:10182000012098470020FFF7C9FFE368002001333B
:10183000E360FFF7CBFF03B030BD03F0FF00FFF71D
:10184000BDFF15B123692B602561E368002BECD146
:10185000074A08491360136801934FF08042022041
:101860000123019DC2F804030B60DEE7EC050020B4
:10187000040100400800004010B51A4B1A6882B0FD
:10188000A2B100221A601B6800934FF0804301222E
:10189000154C0099C3F80823A368627033B10CCBD0
:1018A0000020A2609847A368002BF8D10F4B1A685C
:1018B000AAB100221A601B6801934FF080430222F4
:1018C000094C0199C3F8082323690122A27033B19E
:1018D0000CCB0120226198472369002BF8D102B07C
:1018E00010BD00BF00010040EC05002004010040D5
:1018F000002810B418DB00F1604303F5614349018F
:10190000C9B283F80013C3B24009800000F16040FF
:1019100000F5614003F01F0201239340C0F88031BD
:1019200003605DF8044B7047C3B2044A03F00F0430
:1019300049012244C9B21176E6E700BFFCEC00E0A1
:101940002DE9F047C44B1A68012A82B000F0D28119
:101950000027C24B1A68012A00F0BE81C04B1A68EA
:10196000012A00F0AB81BF4B1A68012A00F0988170
:10197000BD4B1A68012A00F08581BC4B1A68012A08
:1019800000F05C81BA4B1A68012A00F04981B94B1A
:101990001A68012A00F03681B74B1A68012A00F054
:1019A0002581002617F0FF0F1BD0DFF8D08201251C
:1019B0000024A30003F180432F4203F5C0434FEA04
:1019C00045050BD0D3F8100558F82420D3F810158E
:1019D000C0F30420C1F3014102B190470134082C47
:1019E000E7D1002F02DB02B0BDE8F087A34D95F9E7
:1019F0005010481C4FF0FF3A2F464FF000094FF0AF
:101A0000010800F0A980C9B221F0C0002AFA00F450
:101A100014F001041BD03B18890993F9303057F8B2
:101A20002330002B00F0CB80032908FA00F400F0EB
:101A3000CB80820002F1A0423440D2F800E7CEF31E
:101A4000014E40F0A980BEF1030F00F07A8195F9B4
:101A500051104A1C22D0C9B221F0C0002AFA00F36A
:101A6000DB071BD53B18890993F9303057F8233031
:101A7000002B00F0B380032908FA00FC00F0B380CB
:101A8000820002F1A04216EA0C0FD2F800E7CEF372
:101A9000014E63D1BEF1030F00F07A8195F9521027
:101AA000481C22D0C9B221F0C0002AFA00F3DA079C
:101AB0001BD53B18890993F9303057F82330002B98
:101AC00000F08580032908FA00FC00F08480820081
:101AD00002F1A04216EA0C0FD2F800E7CEF3014E55
:101AE00046D1BEF1030F00F03F8195F953104B1C16
:101AF00021D0C9B221F0C0002AFA00FA1AF0010F71
:101B000019D03B18890993F9303057F82320002A5F
:101B10004ED0032908FA00FC4ED0830003F1A04305
:101B200016EA0C0FD3F800E7CEF3014E2AD1BEF12E
:101B3000030F00F0EF80002C3FF455AF4FF0A043AF
:101B4000D3F810359E423FF44EAF95F95010481C23
:101B50001E46CA467FF457AF002478E7BEF1020F55
:101B60009CD1032900F02B81002B97D0984795E753
:101B7000BEF1020FB9D1032900F01E81002BB4D0B1
:101B80009847B2E7BEF1020FD5D1032900F01A81C0
:101B9000002AD0D09047CEE7BEF1020FDCD1032956
:101BA00000F013810024002B3FF451AF98474EE71B
:101BB0000329C0D108FA00FC49EA0C09ADE7032962
:101BC00040F0A68008FA00F449EA040931E7032945
:101BD0008BD108FA00FC49EA0C0978E703297FF465
:101BE0005DAF08FA00FC49EA0C0949E700221A60D7
:101BF0001B6801934FF0A043019AD3F8106547F09A
:101C00000047CFE61E4AD2F8042314067FF5C4AE7F
:101C100000221A601B680093009B47F08007BBE618
:101C2000174AD2F8042355067FF5B1AE00221A6098
:101C30001B680093009B47F04007A8E6104AD2F8C3
:101C4000042396067FF59EAE00221A601B6800935F
:101C5000009B47F0200795E60061004004610040CA
:101C6000086100400C6100401061004014610040B8
:101C7000186100401C6100407C61004000060020AB
:101C800000600040524AD2F80423D2067FF575AEB8
:101C900000221A601B680093009B47F010076CE657
:101CA0004B4AD2F8042311077FF562AE00221A6076
:101CB0001B680093009B47F0080759E6444AD2F896
:101CC000042350077FF54FAE00221A601B68009373
:101CD000009B47F0040746E63D4AD2F804239407E8
:101CE0007FF53CAE00221A601B680093009B47F012
:101CF000020733E63649D1F8041311F001073FF427
:101D000028AE002119601B6800931746009B20E64F
:101D10001C469CE603297FF43BAF4FF4003ED3F80A
:101D200000C72CF4403CC3F800C7D3F800C74CEA06
:101D30000E0EC3F800E7002A3FF400AF0134E4B20E
:101D400028E703297FF42FAF4FF40034D2F800E7DF
:101D50002EF4403EC2F800E7D2F800E74EEA040451
:101D6000C2F8004701241EE703297FF407AF4FF4B0
:101D7000003ED2F800C72CF4403CC2F800C7D2F8AD
:101D800000C701344CEA0E0EE4B2C2F800E7F5E6F3
:101D900003297FF4E9AE4FF4003ED2F800C72CF4DB
:101DA000403CC2F800C7D2F800C701344CEA0E0E1E
:101DB000E4B2C2F800E7D7E64FF4403ED9E74FF46B
:101DC000403EEAE74FF4403EA9E74FF44034BDE718
:101DD000006000405AB1F8B54379114F114D03EB43
:101DE000430445F823203C5D1CB10820F8BD0720C2
:101DF000704705460E4690F904008978FFF778FD94
:101E00002B683288C3F808256B79F178357903EBB4
:101E10004303FA180126FE54557091702046F8BD10
:101E20005C060020580600200368044A012119605E
:101E3000437903EB43030221D15470475C06002031
:101E400010B403680022C3F8002183B0D3F8003136
:101E5000026801930123019CC2F8443311B1026866
:101E6000C2F8043303B05DF8044B704710B53B4B28
:101E7000D3F80423D20384B003D5394A116800296A
:101E80003CD1364BD3F80423940303D5354A11686B
:101E9000002942D1314BD3F80423500303D5324AF1
:101EA0001168002949D12D4BD3F80423D10702D55D
:101EB000D3F80021B2B9294BD3F80423920702D5F5
:101EC000D3F804210AB904B010BD0022C3F80421DC
:101ED000264AD3F80431019305201368019A9847E4
:101EE00004B010BD0022C3F80021204AD3F800310D
:101EF000029304201368029A9847DCE74FF480317C
:101F00000020C3F84813194CC3F808131060136875
:101F100003932368039A9847B3E74FF400310024F2
:101F2000C3F848131148C3F80813146013680393E7
:101F30000368039A01209847ACE74FF480210024FE
:101F4000C3F848130948C3F80813146013680393CF
:101F50000368039A02209847A5E700BF00B000403D
:101F600040B1004044B1004048B100405806002054
:101F70002DE9F04F0579244EAF0007EB050E4FEA2F
:101F8000CE0E06EB0E0C83B09CF822401CB108204C
:101F900003B0BDE8F08F46F80E20CCF80840CCF82E
:101FA00004308CF825408CF824408B7B8CF827304B
:101FB0004B7B5BBB0B684FF0A04403F5E07340F232
:101FC0000C6E44F823E04B6803F5E07344F823E01B
:101FD00091E810400368C3F80845C3F80CE58C6825
:101FE000C3F824452AB10068097B40F30730FFF7A6
:101FF0007FFC3D4406EBC5050123002085F8223017
:1020000003B0BDE8F08F00BF600600200B68DFF86A
:10201000A092DFF8A0E24FF0A04C03F5E07340F28D
:102020000C6A4CF823A04B6803F5E0734FF00108ED
:102030004CF823A00B6808FA03F3CCF808354B687A
:1020400008FA03F3CCF808350B6803F5E07340F2A7
:102050000D6B4CF823B04B6803F5E0734FF0040AA6
:102060004CF823B05346D9F8009000BF00BF00BF22
:1020700000BF00BF00BF00BF00BFF1452FD000BFB1
:1020800000BF00BF00BF00BF00BF00BF00BF00BF58
:1020900000BF00BF00BF00BF00BF00BF00BF00BF48
:1020A00000BF00BF00BF00BF00BF00BF00BF00BF38
:1020B00000BF00BF00BF00BF00BF00BF00BF00BF28
:1020C00000BF00BF00BF00BF00BF00BF00BF00BF18
:1020D00000BF00BF00BF00BF00BF00BF00BF013B8B
:1020E000C3D10195D1F804B0DCF8103523FA0BF315
:1020F000DB07554600F1D6800B6808FA03F3CCF8ED
:102100000C3500BF00BF00BF00BF00BF00BF00BF55
:1021100000BFF1452FD000BF00BF00BF00BF00BF10
:1021200000BF00BF00BF00BF00BF00BF00BF00BFB7
:1021300000BF00BF00BF00BF00BF00BF00BF00BFA7
:1021400000BF00BF00BF00BF00BF00BF00BF00BF97
:1021500000BF00BF00BF00BF00BF00BF00BF00BF87
:1021600000BF00BF00BF00BF00BF00BF00BF00BF77
:1021700000BF00BF00BF013DC3D10B6808FA03F3E5
:10218000CCF80835534600BF00BF00BF00BF00BFFA
:1021900000BF00BF00BFF1452FD000BF00BF00BF90
:1021A00000BF00BF00BF00BF00BF00BF00BF00BF37
:1021B00000BF00BF00BF00BF00BF00BF00BF00BF27
:1021C00000BF00BF00BF00BF00BF00BF00BF00BF17
:1021D00000BF00BF00BF00BF00BF00BF00BF00BF07
:1021E00000BF00BF00BF00BF00BF00BF00BF00BFF7
:1021F00000BF00BF00BF00BF00BF013BC3D101341F
:10220000092C7FF46FAF019D4B68DFF8A880012493
:102210004FF0A04E04FA03F34FF0040CCEF80C3547
:10222000634600BF00BF00BF00BF00BF00BF00BFCC
:1022300000BFC1452FD000BF00BF00BF00BF00BF1F
:1022400000BF00BF00BF00BF00BF00BF00BF00BF96
:1022500000BF00BF00BF00BF00BF00BF00BF00BF86
:1022600000BF00BF00BF00BF00BF00BF00BF00BF76
:1022700000BF00BF00BF00BF00BF00BF00BF00BF66
:1022800000BF00BF00BF00BF00BF00BF00BF00BF56
:1022900000BF00BF00BF013BC3D14B689C40CEF8DC
:1022A000084587E6019D002C3FF484AE5B46ACE711
:1022B0007C0000200024F4000379064A016803EB47
:1022C000830302EBC3030220062283F82200C1F835
:1022D00000257047600600204B6803F06043B3F1AF
:1022E000005F01D0102070472DE9F04390F804E022
:1022F000A44F03684FEA8E0C0CEB0E06154607EB55
:10230000C6064FF0FF32C3F8082396F8242089B0A0
:1023100002F0FF0832B1B268C3F80423112009B0FB
:10232000BDE8F08315F0140F0CBF0122002286F8DF
:1023300024200C4607C906F10C0989E80700C5F3FB
:10234000001286F825206278C3F88825C3F8048136
:10235000D3F804210592059AC3F82481D3F82421E7
:102360000692069A15F0010218BF0122C3F8502503
:1023700015F0020218BF0122C3F840252278032A73
:1023800000F2FA80DFE802F046660B02A26802F073
:102390006042B2F1005F00F0B4801020BFE7A27885
:1023A0006168C3F84415C3F84825A26802F060418B
:1023B000B1F1005FF1D10CEB0E0107EBC101E67842
:1023C000C3F8342540F202204FF48452C3F8386534
:1023D000C3F80022886008224FF4827100202E0783
:1023E00004D42478032C1CBF01249C500CEB0E0257
:1023F000D200BC18BA58002A44D06A0744BF4FF430
:102400000072A2600CEB0E0207EBC2029268C3F8E6
:10241000042384E7A2786168C3F84415C3F848250B
:10242000A9060CEB0E0207EBC20255D54FF48071E2
:10243000C3F80012544890600021C3F84811D3F843
:1024400048210092009A4FF4A47101221A620020E0
:102450000822C4E76268A678C3F834250CEB0E01A5
:1024600007EBC1014FF48052C3F8386540F20220F7
:10247000C3F8002201260022886010461E624FF435
:102480008271ACE701255C1802E0D3F8241169BB26
:102490002268002AF9D00CEB0E02D3F8C414C3F85A
:1024A000C41407EBC202002382F8243000293FF451
:1024B00036AF11F0010F14BF4FF40243032348F26B
:1024C000012211F0020F18BF134611F0040F48F259
:1024D000022008BF184622E740F202214FF40070A4
:1024E000C3F8000291604FF48271AEE7C3F8242173
:1024F000D3F824210792079A1D624FF482715D611F
:10250000C1E74FF48072C3F800226268A178C3F873
:1025100044250022C3F84815C3F85021D3F85011C0
:1025200002910299C3F86021D3F8601103910399D5
:10253000C3F84821D3F848210492012204991A6271
:102540009A60D3F85021002AFBD00020C3F8500134
:10255000D3F8501101910CEB0E020199A168E678B5
:10256000C3F8441507EBC2020749C3F848659160F8
:1025700008224FF4827132E708224FF4827107205B
:102580002DE700BF600600200002040070B55E4B1E
:10259000D3F824218AB0BAB10022C3F82421D3F899
:1025A00024210592059AD3F804216AB9574A0221D9
:1025B0009068C3F8080391609268C3F8042301226D
:1025C0001A625A610AB070BD4F4B504CD3F80421C7
:1025D000002A30D0002504F10C0207CAC3F80451C8
:1025E000D3F80461049694F82350049E0AAE06E9D9
:1025F0000700002D39D0227B012A7FD0D3F84C155B
:102600008DF81E10022A75D03F4BD3F84C25D2B25C
:102610003D4B8DF81F200022C3F86021D3F86011D4
:1026200002910299C3F85C21D3F85C310393039BB8
:1026300094F8255028E0C3F84821D3F84811227BAC
:1026400001910199002A3BD104F10C0207CA94F8C8
:1026500025500AAE06E90700FDB94FF0FF32C3F876
:102660000052A560C3F8082317E0C3F86051D3F8FF
:1026700060210292029AC3F85C51D3F85C3194F85D
:1026800025500393039B45B91F4B00224FF0FF31A8
:10269000C3F80022A260C3F808131B4AD2F8C4345E
:1026A000C2F8C4349A071ED501238DF818300DB92D
:1026B00084F824502368616806A898470AB070BD62
:1026C0004FF4007040F202214FF0FF32C3F80002D5
:1026D000A160C3F80823A268C3F8042301229A600A
:1026E0001A620AB070BD13F0040318BF02238DF8FC
:1026F0001830DCE7D3F83C25D2B289E7D3F83C3573
:102700008DF81E3080E700BF0030004060060020DA
:102710004FF47A7303FB00F000283ED01F4B204A91
:102720001B6800BF00BF00BF00BF00BF00BF00BFED
:1027300000BF93422FD000BF00BF00BF00BF00BF4B
:1027400000BF00BF00BF00BF00BF00BF00BF00BF91
:1027500000BF00BF00BF00BF00BF00BF00BF00BF81
:1027600000BF00BF00BF00BF00BF00BF00BF00BF71
:1027700000BF00BF00BF00BF00BF00BF00BF00BF61
:1027800000BF00BF00BF00BF00BF00BF00BF00BF51
:1027900000BF00BF00BF0138C3D170477C000020DC
:1027A0000024F400F0B589B002AE8DF808105BB1DA
:1027B0005D1EEDB2013502AE1544314612F8014BF3
:1027C00001F8014FAA42F9D100255C1C47002B46B5
:1027D0000122694606488DF804408DF80570009680
:1027E0008DF80650FEF7B8FF40B209B0F0BD00BF4B
:1027F00064000020F0B540008DB0002640F0010ECE
:102800001D4606AF14460DF1070C8DF80D008DF82E
:1028100015E08DF807104FF0010E069633468DF83F
:102820001810022202A92F488DF814508DF8166056
:102830000796089609960A960B960497CDF808C055
:102840008DF80CE08DF80EE0FEF786FF002D36D0F7
:10285000A30737D1082D35D92A1FC2F385020132CB
:102860009300069E07992660022ADBB261600DD0B4
:102870000899A160032A09D00999E160042A05D0CA
:102880000A992161052A01D00B9A62619D4216D0F6
:102890000CA95A1C1944D2B211F8181CE1549542E3
:1028A0000DD90CA911440233DBB211F8181CA15444
:1028B0009D4204D90CAA1A4412F8182CE25440B2D2
:1028C0000DB0F0BD6A1E54FA82F2631E0DF11701BD
:1028D00011F8014F03F8014F9342F9D140B20DB006
:1028E000F0BD00BF64000020042800D0704710B580
:1028F0004FF0A04282B0D2F8043502A9D84300F0CC
:102900008070002403F08073C2F80805C2F80C350B
:10291000684641F8044D009400F004F908B1FEF750
:1029200087F99DE80C0003491320FEF78DF802B0EB
:1029300010BD00BF8C3D000070B5002384B00120A5
:102940004FF0A041032203E0ED0148BF41F82420ED
:102950000133202B00FA03F503F5E074F4D14FF0B6
:10296000A0434FF080710022C3F80815C3F80C256E
:10297000FEF736FF08B1FEF75BF90020FEF748FFCF
:102980000020FDF7FBFF08B1FEF752F92D490320A7
:10299000FEF710F800220624039207264FF0CD65BB
:1029A0006946294B29480096082201948DF80C406D
:1029B0000295FEF7E5FD08B1FEF73AF9244B2549EB
:1029C000254A196218467721244C5C6259779A622D
:1029D00000F06AF90446002000F09EF90444042047
:1029E00000F010FA0444042000F0BAF90444002076
:1029F00000F0E0F90444032000F08EF9001901D042
:102A0000FEF716F9164B174A18689B880090ADF828
:102A10000430154840F2BC436946ADF80030FFF77A
:102A2000D9F908B1FEF704F90F480121FFF708FAB8
:102A30000D48FFF7F9F930BFFEF75CF80028FBD12D
:102A4000F9E700BF9C3D00008806002064000020DC
:102A5000CC0A0020A527000011270000F527000060
:102A60007C3D0000E9280000843D0000F0B52B4BC0
:102A70002B4A1D68AB69B5F90E40B5F91070B5F970
:102A800008E05B10A3F57A439E1006FB06F603FBF5
:102A900004F4F112640007FB0141B5F90C40B5F9EB
:102AA0000A702404761303FB0EF304EBA10100EB80
:102AB000213006FB07F65B1000FB02F203EBE60396
:102AC0009B14E88802F1434203F5004302F5A0029B
:102AD00000FB03F0002A4FEAE03019DBB8B15200E6
:102AE000B2FBF0F2B5F91410B5F91630B5F91200D1
:102AF000D40804FB04F49508640B01FB05F103FB07
:102B000004F4491301EB2433184402EB2010F0BD08
:102B10000028FCD0B2FBF0F25200E3E7AC06002044
:102B2000CBF3FFFFF0B5274F3B6883B0002B46D0B7
:102B300000225E6AADF804200D4604460092587FDC
:102B40006A460623F721B0479DF80420D7F800E035
:102B50009DF80530BEF80070BEF9041006469DF8D9
:102B60000300120142EA003242EA1310C7EB1012CE
:102B700002FB02F2BEF9023012137F0001FB02F2E7
:102B8000C7EBD000921303FB00F002EBE0239DF8AB
:102B90000120CEF818309DF800109DF8020003EBDC
:102BA0008303803312011B1242EA01322B6042EA96
:102BB0001010FFF75BFF2060304603B0F0BD6FF0F0
:102BC0007E06F9E7AC06002030B5364C87B02168A8
:102BD0000023019300930293039304930593002928
:102BE0005CD06A464D6A487F18238821A8479DF823
:102BF00001109DF80020236842EA01221A809DF905
:102C000003109DF8022042EA01225A809DF9051026
:102C10009DF8042042EA01229A809DF807109DF851
:102C2000062042EA0122DA809DF909109DF8082069
:102C300042EA01221A819DF90B109DF80A2042EA0E
:102C400001225A819DF90D109DF80C2042EA0122C3
:102C50009A819DF90F109DF80E2042EA0122DA8137
:102C60009DF911109DF8102042EA01221A829DF967
:102C700013109DF8122042EA01225A829DF9151084
:102C80009DF8142042EA01229A829DF917109DF8BE
:102C9000162042EA0122DA8207B030BD6FF07E00D2
:102CA000FAE700BFAC0600202DE9F04383B002AE86
:102CB000184D002306F8013D28602F460524D0F862
:102CC0002490407FDFF84C8001233246D021C84752
:102CD0009DF80730A3F15602022A4FF0010012D9E5
:102CE0002B689B6A9847631E13F0FF0401D0386875
:102CF000E5E7D8F800309DF807201A774FF0FF304D
:102D000003B0BDE8F0832A681377FFF75DFF03B0D7
:102D1000BDE8F083AC06002030B5104B83B01C68D2
:102D200000238DF80730ACB1032810D8E27FA17FD3
:102D3000256A920002EB4111034602AA0B4402F8F5
:102D4000013D607F0123F421A84703B030BD6FF03F
:102D50000100FAE76FF07E00F7E700BFAC06002045
:102D600070B5134D82B02B6800228DF80720E3B1B7
:102D700004465E6A587F0DF107020123F521B04732
:102D800088B99DF807302968A00000F01C0423F0E2
:102D90001C0020438DF807000C6A487F0DF10702E4
:102DA0000123F521A04702B070BD6FF07E00FAE765
:102DB000AC06002070B5124D82B02B6800228DF851
:102DC0000720D3B104465E6A587F0DF10702012344
:102DD000F521B04778B99DF807002B6800F01F0077
:102DE00040EA44108DF807001C6A587F0DF1070275
:102DF0000123F521A04702B070BD6FF07E00FAE715
:102E0000AC06002070B52B4D82B02B6800228DF8E7
:102E10000720002B4BD004283ED804465E6A587F1A
:102E20000DF107020123F421B047E0B9601E032829
:102E30001BD8DFE800F0212902342968012204238D
:102E40008A77CB77102520229DF807300C6A487FBF
:102E500003F0030313432B438DF807300DF10702F2
:102E60000123F421A04702B070BD296801238B77AC
:102E7000CB7704252022E7E72968012202238A77FD
:102E8000CB7708252022DFE72968012203238A77F0
:102E9000CB770C252022D7E76FF00100E3E7296804
:102EA000022205238A77CB7714254022CCE76FF0E6
:102EB0007E00D8E7AC0600202DE9F84F4300DFF88C
:102EC00070A11E180AEBC6068846F16A012917464A
:102ED00041D031D3022939D1013000EB4000756A6D
:102EE0004FEAC0094FF0000B1CE0326A641BBC4281
:102EF0000AEB09012346A2EB050428BF3B469C428E
:102F0000486828BF1C4628444146224600F06CFA17
:102F1000336A25449D4208BF00253F1BA344A044BB
:102F2000756215D0B36AAB4203F1FF34DDD8326A63
:102F30001344013B5C1BDAE7B16A726A91429CBFA1
:102F4000346A091901398A1A974236D94FF0000BB1
:102F50005846BDE8F88FB16A756AA94227D9013988
:102F6000326AC5EB010B03440AEBC30ABB45DAF82E
:102F700024502F4B28BFBB46561B0130B34500EBF6
:102F800040003BD303EBC00432466068414628440E
:102F9000C6EB0B0500F028FA606808EB06012A462C
:102FA00000F022FACAF824505846BDE8F88F326A79
:102FB0008C18013CC5EB040BD5E703440AEBC30AAC
:102FC0000130DAF82460DAF82040194BA41BA7423C
:102FD00000EB40001ED303EBC00522466868414663
:102FE00030443E1B00F000FA686808EB04013246EA
:102FF00000F0FAF9BB46CAF82460A9E703EBC00366
:10300000414658685A4628445D4400F0EDF9CAF834
:1030100024509DE703EBC003414658683A463044CC
:103020003E4400F0E1F9BB46CAF8246090E700BFD7
:10303000F80A00202DE9F0432A4C267883B0054693
:1030400088461746994656B32369264AAB4246D965
:10305000EFF311834FF0800181F31188019365B97B
:103060002846054404EBC5040A9A019BE26283F3F7
:103070001188002003B0BDE8F083691C01EB410119
:10308000C9006800431902EBC30342F801801144F0
:1030900000229A624F60C3F820905A62E1E7022250
:1030A000114B2261114862614FF48061104AA361A3
:1030B000A3641023A66223656662E061A6652162AF
:1030C000E2640C49E662E6656665E01D00F0BCF965
:1030D0000949204600F0B8F92023A371B4E74FF066
:1030E000FF30C7E7F80A0020BC3D0000C006002002
:1030F000B0060020C83D0000CC3D00000649074A4C
:10310000074B9B1A03DD043BC858D050FBDC00F092
:1031100013F8FDF7A3F90000143E000000000020A2
:103120008C000020FEE7FEE7FEE7FEE7FEE7FEE795
:10313000FEE7FEE7FEE7FEE7F0B4984B1B78062BB0
:103140001BD0974AD2F8883043F47003C2F8883015
:10315000BFF34F8FBFF36F8F4FF01023D3F80022D0
:10316000002AC0F2E980D3F80432002BC0F2E480D8
:103170008C4B8D4A1A60F0BC70478C4B1B681D0746
:10318000DFD18B4B1B6803F0F003302B02D1894B4E
:10319000894A1A60864B1B6803F0F002302A00F05F
:1031A000BA8003F0E003402B00F0B580804B1B6831
:1031B00003F0F003302B00F09E807D4B1B6803F082
:1031C000F002302A00F0838003F0E003402B7ED031
:1031D000774B1B6803F0F003302B6AD0744B1B68ED
:1031E00003F0F003302B4DD0714B1B6803F0F0035C
:1031F000502BA6D14FF08052704BD2F80414C3F874
:103200002015D2F80814C3F82415D2F80C14C3F80A
:103210002815D2F81014C3F82C15D2F81414C3F8DA
:103220003015D2F81814C3F83415D2F81C14C3F8AA
:103230004015D2F82014C3F84415D2F82414C3F86A
:103240004815D2F82814C3F84C15D2F82C14C3F83A
:103250005015D2F83014C3F85415D2F83414C3F80A
:103260006015D2F83814C3F86415D2F83C14C3F8CA
:103270006815D2F84014C3F86C15D2F84424C3F88A
:1032800070255EE7454B4E491B784E4D4E484F4AE0
:1032900005270F60012600243F21062B2E600460C5
:1032A00011607FF44EAF414B1B681B077FF449AFA1
:1032B0009AE73A4B464A1B780321062B11607FF4AC
:1032C00040AF3A4B1B681A077FF43BAF86E7334B9E
:1032D0001B784FF080420021062BC2F80C11C2F877
:1032E0001011C2F838157FF42CAF304B1B6819074A
:1032F0007FF427AF6CE7374A2849D368097823F071
:1033000080730629D3607FF41CAF284B1B68180715
:103310007FF417AF51E7304A204B12681B782F49D2
:10332000C2F34232062B0A607FF40BAF1F4B1B68BF
:103330001C077FF406AF39E7294B0122C3F80425A7
:10334000D3F80024002AFBD04FF010231522244983
:10335000C3F80022D1F80034002BFBD04FF010232B
:1033600015221F49C3F80422D1F800241C4B002A5F
:10337000FAD00022C3F80425D3F80024002AFBD099
:10338000BFF34F8F0649174BCA6802F4E06213433C
:10339000CB60BFF34F8F00BFFDE700BFE00F00F031
:1033A00000ED00E07C0000200090D003E40F00F06E
:1033B000E80F00F074C007400DF0ADBA00C0004047
:1033C00010560040885600401856004014560040E1
:1033D000A0050040F0ED00E0440200103C05004074
:1033E00000E001400400FA0510B5431E0A44914272
:1033F00004D011F8014B03F8014FF8E710BD0000AD
:103400000EB400B59CB04FF402711DABADF81410B2
:10341000029006906FF000410A48049107914FF620
:10342000FF7153F8042BADF816100068019302A940
:1034300000F074F8029B00221A701CB05DF804EBD7
:1034400003B0704760000020034611F8012B03F819
:10345000012B002AF9D17047034613F8012B002AEB
:10346000FBD1181A013870472DE9F0478E689E424B
:1034700082460C46914698463ED88A8912F4906F4F
:103480003AD0256809696F1A6569022305EB45057D
:1034900095FBF3F57B1C43449D4238BF1D46530505
:1034A0000FD5294600F086FB064698B13A462169B9
:1034B000FFF79AFFA38923F4906343F08003A3816D
:1034C00013E02A4600F0D4FB064670B92169504645
:1034D00000F022FB0C23CAF80030A38943F040031C
:1034E000A3814FF0FF30BDE8F087266165613E445F
:1034F000ED1B2660A5604646464528BF4646324637
:103500004946206800F0ECFAA3689B1BA36023687F
:103510001E4426600020BDE8F08700002DE9F04F32
:103520009DB0804603938B891C060D4616460DD52B
:103530000B695BB9402100F03DFB2860286118B998
:103540000C23C8F80030CDE040236B6100230993C1
:1035500020238DF82930DFF89CB130238DF82A30F4
:1035600037463C4614F8013B1BB9B7EB060910D0AF
:1035700003E0252BF9D02746F3E74B463246294690
:103580004046FFF771FF013000F0A780099B4B44D4
:1035900009933B78002B00F0A08000234FF0FF320E
:1035A00004930793059206938DF853301A930126DE
:1035B000052221784E4800F043FA671C049B38B17D
:1035C0004B4A801A06FA00F0184304903C46EFE795
:1035D000D90644BF20228DF853201A0744BF2B225E
:1035E0008DF8532022782A2A03D0079A00210A2036
:1035F0000BE0039A111D12680391002A10DA52425F
:1036000043F00200079204900BE0274601343B7818
:10361000303B092B03D800FB02320121F5E701B151
:1036200007923B782E2B1ED17B782A2B0AD1039B45
:103630001A1D1B680392002BB8BF4FF0FF330237EF
:10364000059310E000230593781C19460A240746C9
:1036500001303A78303A092A03D804FB01210123CA
:10366000F5E703B1059103223978224800F0E8F923
:1036700040B14023CBEB000003FA00F0049B184359
:103680000490013739781C488DF8281006227E1CDA
:1036900000F0D6F988B1194B33B9039B073323F0F7
:1036A00007030833039314E003AB00932A46144B3B
:1036B00004A94046AFF3008007E003AB00932A461D
:1036C0000F4B04A9404600F093F8B0F1FF3F82464B
:1036D00003D0099B5344099342E7AB895B0601D4AD
:1036E000099801E04FF0FF301DB0BDE8F08F00BF3A
:1036F000D43D0000DA3D0000DE3D00000000000087
:10370000693400002DE9F04791461F460A698B682D
:10371000DDF820809342B8BF1346C9F8003091F815
:10372000432006460C4612B10133C9F80030236825
:10373000990642BFD9F800300233C9F80030256835
:1037400015F0060510D104F1190A07E001235246CD
:1037500039463046C04701301AD00135E368D9F800
:1037600000209B1A9D42F1DB94F84330226800331D
:1037700018BF012392060FD5E1185A1C302081F89A
:103780004300224494F8451082F84310023303E0CA
:103790004FF0FF30BDE8F08704F143023946304670
:1037A000C0470130F4D02268D9F80050E36802F035
:1037B0000602042A08BF5D1B2269A3680CBF25EA24
:1037C000E57500259342C4BF9B1AED184FF0000920
:1037D0001A344D4509D00123224639463046C047A8
:1037E0000130D5D009F10109F3E70020BDE8F087E9
:1037F0002DE9F04317460A7E85B06E2A98460646A4
:103800000C460C9B01F1430E00F0AE8011D8632AE8
:1038100022D009D8002A00F0BB80582A40F0CA8084
:1038200081F84520834955E0642A1ED0692A1CD0BE
:10383000C0E0732A00F0B08009D86F2A2ED0702A19
:1038400040F0B8800A6842F020020A603EE0752A23
:1038500024D0782A3AD0ADE01A6801F14205111D52
:103860001960136884F84230A8E021681A6811F0E2
:10387000800F02D0111D196008E011F0400F02F115
:103880000401196002D0B2F9003000E01368002B87
:103890003CDA2D225B4284F8432037E021681A6825
:1038A00011F0800F02D0111D196007E011F0400FD8
:1038B00002F10401196001D0138800E01368227E30
:1038C0005C496F2A14BF0A2208221BE078225A4959
:1038D00084F845202268186812F0800F00F1040572
:1038E0001D6003D1550601D5038800E00368D007A9
:1038F00044BF42F0200222601BB9226822F020025D
:1039000022601022002084F8430001E049490A2285
:103910006568A560002D08DB206820F004002060A9
:103920002BB9002D7DD175460CE0002B79D0754662
:10393000B3FBF2F002FB1033CB5C05F8013D03460C
:103940000028F5D1082A0BD12368DA0708D52369A6
:1039500062689A42DEBF302305F8013C05F1FF356D
:10396000C5EB0E0323612EE008681A68496910F060
:10397000800F03D0101D1860136808E010F0400F8E
:1039800002F104001860136801D0198000E019608A
:1039900000232361754616E01A68111D1960156829
:1039A00062680021284600F04BF808B1401B6060B7
:1039B000636804E004F1420584F842200123236196
:1039C000002384F84330CDF800803B4603AA21460B
:1039D0003046FFF797FE013002D14FF0FF3026E06E
:1039E00023692A4639463046C0470130F5D023685E
:1039F0009B0710D5002504F1190907E001234A4669
:103A000039463046C0470130E7D00135E368039AB4
:103A10009B1A9D42F2DBE068039B9842B8BF1846B0
:103A200005E00B7884F8423004F142058AE705B0DE
:103A3000BDE8F083E53D0000F63D00000000000019
:103A400001F0FF01102A2BDB10F0070F08D010F84F
:103A5000013B013A8B422DD010F0070F42B3F6D153
:103A6000F0B441EA012141EA014122F007047FF06C
:103A700000070023F0E80256083C85EA010586EAC3
:103A8000010685FA47F5A3FA87F586FA47F6A5FAFF
:103A900087F68EB9EED1F0BC01F0FF0102F007020B
:103AA00032B110F8013B013A83EA010313B1F8D1B6
:103AB0000020704701387047002D06BF3546033897
:103AC000073815F0010F07D1013015F4807F02BFD0
:103AD000013015F4C03F0130F0BC0138704700BF21
:103AE000884210B501EB020301D8421E0BE0984258
:103AF000FBD28118D21AD34204D013F8014D01F839
:103B0000014DF8E710BD994204D011F8014B02F8BD
:103B1000014FF8E710BD000038B50546002946D032
:103B200051F8043C0C1F002BB8BFE41800F0D6F885
:103B30001F4A1368114613B96360146032E0A34250
:103B40000ED92268A018834204BF18685B686360BE
:103B500004BF121822600C6024E0A24203D813466E
:103B60005A68002AF9D118681918A1420BD12168A6
:103B7000014458188242196014D1106852685A6082
:103B8000014419600EE002D90C232B600AE0216881
:103B90006018824204BF10685268626004BF09184E
:103BA00021605C602846BDE8384000F098B838BD18
:103BB000C40A002070B5CD1C25F0030508350C2D76
:103BC00038BF0C25002D064601DBA94202D90C2383
:103BD000336046E000F082F8234B1C681A46214609
:103BE000A1B10B685B1B0ED40B2B03D90B60CC1857
:103BF000CD501EE08C420DBF63684B68636013605C
:103C000018BF0C4615E00C464968E9E7174C2368D5
:103C10001BB9304600F052F820602946304600F0CB
:103C20004DF8431C18D0C41C24F00304A0420DD14D
:103C30002560304600F053F804F10B00231D20F0FE
:103C40000700C31A0ED05A42E25070BD211A304606
:103C500000F034F80130EBD10C233360304600F033
:103C60003EF8002070BD00BFC40A0020C00A00203A
:103C7000F8B5074615460E4621B91146BDE8F8408D
:103C8000FFF798BF1AB9FFF747FF2846F8BD00F0C5
:103C900027F885420ED929463846FFF78BFF0446A0
:103CA00050B131462A46FFF79FFB31463846FFF7B1
:103CB00033FF01E03046F8BD2046F8BD38B5064C6C
:103CC000002305460846236000F014F8431C02D187
:103CD000236803B12B6038BD700B0020704770471C
:103CE00051F8040C0028BEBF091851F8043CC01854
:103CF00004387047044A05491368002B08BF0B4677
:103D00001844106018467047C80A0020780B00203D
:103D1000F8B500BFF8BC08BC9E467047F8B500BFB8
:103D2000F8BC08BC9E46704743000000000000201D
:103D30005B253038645D00001B5B306D00000000C7
:103D40004E6F726D616C00001B5B313B33316D4F08
:103D5000766572666C6F770D0A0000001B5B313B65
:103D600033316D4150505F4552524F523A45525295
:103D70004F523A466174616C0D0A00000000074121
:103D80000000000000B000400B000300502C202574
:103D9000642C20542C2025640D0A00001B5B306D20
:103DA0004150503A494E464F3A424D5032383020F9
:103DB0006578616D706C650D0A0000005465726D68
:103DC000696E616C0000000052545400534547472F
:103DD00045520000232D302B2000686C4C00656696
:103DE000674546470030313233343536373839414C
:103DF0004243444546003031323334353637383962
:0C3E000061626364656600000000000061
:083E0C0050C6FF7F0100000019
:103E1400000000000000000000000000000000009E
:103E2400000000000000000000000000000000008E
:103E3400283D000000000000000000000000000019
:103E4400000000000000000000000000000000006E
:103E5400000000000000000000000000000000005E
:103E6400000000000000000000000000000000004E
:103E7400000000200000000000000000000000001E
:103E84000000000000300040000100000090D0035A
:0C3E9400250400000104000000000000F4
:04000003000030FDCC
:00000001FF
