:1000000000000120F53100001D3200001F32000009
:1000100021320000233200002532000000000000E1
:100020000000000000000000000000002732000077
:1000300029320000000000002B3200002D320000A9
:10004000B51800002F3200002F320000C525000037
:100050002F3200002F3200007D1900002F320000E7
:100060002F3200002F3200002F320000A11E0000AE
:100070002F3200002F3200002F3200002F320000FC
:100080002F320000AD0C00002F3200002F32000094
:10009000710D00002F3200002F3200002F320000BF
:1000A0002F3200002F3200002F3200002F320000CC
:1000B0002F3200002F32000000000000000000007E
:1000C0002F3200002F3200002F3200002F320000AC
:1000D0002F3200002F3200002F32000000000000FD
:1000E0000000000000000000000000000000000010
:1000F0000000000000000000000000000000000000
:1001000000000000000000000000000000000000EF
:1001100000000000000000000000000000000000DF
:1004000010B5054C237833B9044B13B10448AFF34E
:1004100000800123237010BD8C000020000000002C
:10042000F03E00000C4B43B10C480D4910B5AFF342
:1004300000800C48036823B910BD0A48036833B92B
:100440007047094B002BF7D0BDE810401847064B0A
:10045000002BF5D0184700BF00000000F03E000060
:10046000900000208800002000000000154B002BA9
:1004700008BF134B9D46A3F5803A00218B460F46DB
:100480001348144A121A00F063F80F4B002B00D0E7
:1004900098470E4B002B00D0984700200021040005
:1004A0000D000D48002802D00C48AFF3008000F08A
:1004B0002BF82000290002F0BFFA00F011F800BF6D
:1004C0000000080000000120000000000000000003
:1004D0008C000020740B00200000000000000000D1
:1004E00008B5074B044613B10021AFF30080054B5C
:1004F0001868836A03B19847204600F031F800BFBE
:1005000000000000143E000070B50D4E0D4CA41B01
:10051000A4100025A54209D10B4E0C4C03F06EFC33
:10052000A41BA4100025A54205D170BD56F82530A6
:1005300098470135EEE756F8253098470135F2E740
:100540008000002080000020800000208400002027
:1005500002440346934200D1704703F8011BF9E7B8
:10056000FEE700BF2DE9F04FC7B017461C46DDF887
:1005700044A18B46002900F02381002B00F0F78076
:100580000A23009300231A4606AE539B20250AEB4C
:10059000030B9146009803464B4402933133F718FE
:1005A00006EB0903002867D05A4202F00302824298
:1005B00028BF02460628019200F2CF800146184665
:1005C000012900F8015B00F0C68002295D7003F18B
:1005D000020000F0C08003299D7003F1030000F0C9
:1005E000BA800429DD7003F1040000F0B48006290C
:1005F0001D7103F1050040F0B7805D71981D0191F8
:10060000009A8A4236D0521AA2F1040E0392009A3E
:1006100002F1FF3C4FEA9E0EACEB010C0EF1010E15
:10062000BCF1020F4FEA8E0817D949444FF0203C25
:10063000BEF1010F06EB010946F801C006D0BEF17C
:10064000020FC9F804C001D0C9F808C0019A424499
:100650000192039A424540440CD0019A0570511C06
:10066000009A914206D21146019A457002328A429E
:1006700000D28570009A1344DA1C781C03F1330C05
:10068000DDF848810CE002F8035C02F8025C02F835
:10069000015C0332624500F8015C00F1010034D0D6
:1006A000A345F0D9A24588BF509902F8015C96BFD6
:1006B000A4EB0A01095D18F801104FEA211E5FFA48
:1006C0008EF9BEF1090F01F00F0ED4BF09F1300908
:1006D00009F13709BEF1090F02F8039C94BF0EF12E
:1006E000300E0EF1370EA1F1200902F802ECB9F13B
:1006F0005E0F02F1030288BF2E21624500F8011C43
:1007000004F1010400F10100CAD102990D2201F1A6
:1007100043094FF00A083A7487F81180002783F8DC
:1007200030504B46B9461F463A4606EB09010020B9
:1007300002F038FC81443F1A10B9B8F1010801D029
:10074000002FF1D15C454FF00009FFF423AF2046A4
:1007500047B0BDE8F08F019152E71146002A7FF4BF
:100760002EAF1846009A4EE70522019248E7194B32
:1007700093E8030006AE04908DF81410042204A937
:10078000304602F0ADFEDBF80020134907A802F066
:10079000B3FE0028DBDB041D0A233519009338461D
:1007A00002F0D6FEC22828BFC22080464246394603
:1007B000284602F095FE08EB04031A460024E4E6FE
:1007C0001BB906AE35460094E9E700910A4606AE2D
:1007D000DBE600BF283E0000203E00002DE9F0418E
:1007E0009046C6B01F4611B3564B0C4693E8030023
:1007F00006AE04908DF81410042204A9304602F0CD
:100800006FFE2268504907A802F076FE00280ADB36
:100810004C9B051D062B00F29380DFE803F0133399
:100820003A424C586600002046B0BDE8F0814C9B2F
:10083000062B00F28380DFE803F004717477686BA5
:100840006E004C9D404602F083FE4319FF2B044688
:100850006DD9002CE7DB2C44B4F5807FE3D80A2760
:10086000002506AE22467119002002F09BFB0544CC
:10087000241A08B9013F01D0002CF3D1012046B061
:10088000BDE8F08170193A68414602F035FE044631
:10089000DFE77019414697E80C0002F02DFE044690
:1008A000D7E77019B96897E80C000091414602F04B
:1008B00023FE0446CDE77019F968BC6897E80C0080
:1008C00001910094414602F017FE0446C1E77019F9
:1008D000BC68FE68396997E80C0002918DE8500009
:1008E000414602F009FE0446B3E770197C69396994
:1008F00097E80C000394BC68FE6802918DE85000F4
:10090000414602F0F9FD0446A3E706A80025D3E717
:1009100006A80025DCE706A80025E7E706A80025CD
:10092000B1E706A80025B5E706A80025BAE706AE98
:1009300041467019224602F0D3FD8AE700248EE773
:10094000002488E7283E0000203E000070B50F4DCF
:100950002B7882B01BB10E4B1B78834212D001263C
:10096000044600964FF480730A4A0B49002002F0B7
:10097000D5FB10B1082002B070BD054B2E701C7065
:1009800002B070BD002002B070BD00BFA900002001
:10099000A8000020AC000020183E0000004870476E
:1009A000DD070000004870476505000038B50020ED
:1009B000FFF7CCFF044668B9FFF7F0FF0546FFF7E5
:1009C000F1FF054BFF22C3F810541C605C60C3F8B4
:1009D00014049A60204638BDAC0100200120FFF7C6
:1009E000B5BF00BF2DE9F041214C074600200E465F
:1009F000A568D4F8008000F0FFFE94E80C00A16820
:100A00000B4401339B1A012B19D89BB10120002301
:100A100060F301036FF382030520114060F3C50307
:100A2000144804EB81016FF38913013260F39F23B3
:100A30002260CB600020BDE8F04100F0E5BE01324D
:100A40000020226000F0E0FE0122002362F3010397
:100A50006FF3820305EA080567F3C50304EB850419
:100A60006FF3891366F39F23E360BDE8F08100BF55
:100A7000AC010020303E00002DE9F047274C8246B3
:100A80000020894690461F46A668256800F0B4FEFF
:100A900094E80C00A1680B4401339B1A032B19D86E
:100AA0009BB10120002360F301036FF38203052053
:100AB000114060F3C5031A4804EB81016FF38913F9
:100AC000013260F39F232260CB600020BDE8F04735
:100AD00000F09ABE03320020226000F095FE012251
:100AE000002362F30103A91CAA186FF382033540A7
:100AF00032406AF3C50302200E4004EB850504EB87
:100B0000820260F3891304EB860469F39F23EB6090
:100B1000C2F80C80E760BDE8F08700BFAC010020A0
:100B2000303E00002DE9F0434F4E716832688A4232
:100B30008BB078D0B76807EA0105023506EB85026D
:100B40000131546814F003030ED1C4F3891303EB8D
:100B500094530B4407EA0305023506EB8502591C42
:100B6000546814F00303F0D0022B2CD0C4F3831389
:100B7000C4F39522002B73D00DF1100C604601EBED
:100B8000030E07EA010506EB850501F10108F045B2
:100B9000E96840F8041B4146F3D10093C4F3C20056
:100BA0006346D6F810440021A04748B1C6F8048037
:100BB0003068B0EB080018BF01200BB0BDE8F0832F
:100BC000D6F80480F4E701F1010827EA080001EAF9
:100BD0000703013006EB830380004FEA94598145F7
:100BE000DA68C4F3891322D988B307EA0801C7B2C7
:100BF0000331A9EB0700DFF874E006EB8101C0B216
:100C00008DE882400390D6F814740021C4F3C2002A
:100C1000B847484520D006EB850560F38F146C601B
:100C2000D6F80480C4E700200BB0BDE8F08307EAE3
:100C30000800033006EB800000218DE801020391DB
:100C40000291D6F81474C4F3C200B847E1E78646AF
:100C50005FFA89F70549D3E7033008EB9008A5E769
:100C600088460DF1100C98E7AC010020B801002077
:100C700000B585B000230390194601AA44F2010093
:100C8000ADF80430029300F003F805B05DF804FB02
:100C900008B505490120FFF7A5FEFFF79FFEFFF706
:100CA00041FF0028FBD1FFDE443E00002DE9F84360
:100CB000274A284B0025C2F84051C2F84451C2F8D7
:100CC0004851C2F84C51C2F80051C2F804511B6897
:100CD0001BB32149D2F804450A68204FA41A1A68A8
:100CE00024F07F44A242A84609D8197CDE69A41AE0
:100CF0001544A1B91EB133461A68A242F5D9184964
:100D0000184A0B7812789A421BD01749174A41F8B3
:100D100023504FF48013C2F80031BDE8F883D3F8B4
:100D2000149083F810803A689B69484619462AB1A6
:100D300090470028DED0FFF79BFFDBE71846C84747
:100D4000D8E7531CDBB2022B08BF00230B70DCE793
:100D500000100140E4050020E0050020C40500204B
:100D6000DD050020DC050020D405002000E100E0C6
:100D70002DE9F04FA34AA44913780978A348994272
:100D800089B0D0F800B000F0E5800133DBB2022B6F
:100D900008BF002313709E4A52F823609B4A0BEB56
:100DA000060323F07F43136001230593994B93F8C7
:100DB0000090994BD3F800A0964B5C785B68039346
:100DC000944B9B780293954B1B7804938F4B002791
:100DD0001B680693CC465546D646B84601973B4617
:100DE0000097A44523D00CEB4C020398029F10F807
:100DF00032100CF1010C5FFA8CFCBC4508BF4FF0BF
:100E0000000C022900EBC2027BD00329E9D1BEF11C
:100E1000000FE6D0DEF81C208EF810309646002A2F
:100E2000F8D11546A4454FF001020092DBD1019B99
:100E3000009F002B40F0A380B8F1000F02D0734B4D
:100E4000069A1A600FB1744B1D60059B002B40F091
:100E5000C281BAEB0E0318BF0123059300250023BE
:100E6000019304931F466D4BDFF8B4B11B780693D2
:100E7000664BD3F80080684B1B68009376464FF0B2
:100E8000010A35B36A68A9682B46ED69A2EB080030
:100E900020F07F40584577D8014419605F609F601B
:100EA00083F810A0DF61002E00F08E803068884249
:100EB00080F08280344603E0106888426DD2144688
:100EC000E269091A002AF7D11960DA61E361002D9D
:100ED000D8D1039909EB490309F10102CC4501EB93
:100EE000C3045FFA82F900F09D8011F83300029B81
:100EF0004B4508BF4FF0000901286AD00123049335
:100F0000E8E75068BEF1000F3FF46BAF70457146E3
:100F100017D0009F02E0904205D01146CA69002A0E
:100F2000F9D100975DE7884200970BD0C26900684D
:100F3000CA61002A3FF455AF116801441160AE4602
:100F40004FE77046DEF81C20964632B11546012266
:100F50000092EBE70026059628E702F1804202F5B1
:100F600088324FF00108C2F808807546CDF818E0C5
:100F7000CDF80080CDF80480CDF81080D6E7274B5F
:100F80009DF810201A7057E7A8EB020222F07F426A
:100F90008A4208D2891A196080E7401A10601960E5
:100FA000DA61E36193E71F605F609F6083F810A0E0
:100FB000DF614EB130680021411A31600093DE617B
:100FC0001E46012301935CE700931E460123019313
:100FD00057E763681A7C0492002A7FF47BAFA2680B
:100FE0005A60E168996007902069D86064699C61E3
:100FF000069C002C00F0EC80049A5A6004940022B5
:1010000044E700BFDC050020DD050020E0050020EE
:10101000D4050020C8050020E4050020D0050020EC
:10102000FEFF7F00049B002B40F0A681019B13B1C3
:10103000804B009A1A60764500F0C080002E00F0C8
:1010400007817D4A7D49D2F804050C783668A0EB0B
:10105000080323F07F430333002C50D1784CDFF892
:10106000E8E1784F4FF48035C2F84453C2F8045396
:101070004FF40035C4F88051256001241460DEF877
:1010800000502F2200BF00BF00BF00BF00BF00BF45
:1010900000BF00BFBD422FD000BF00BF00BF00BFD8
:1010A00000BF00BF00BF00BF00BF00BF00BF00BF48
:1010B00000BF00BF00BF00BF00BF00BF00BF00BF38
:1010C00000BF00BF00BF00BF00BF00BF00BF00BF28
:1010D00000BF00BF00BF00BF00BF00BF00BF00BF18
:1010E00000BF00BF00BF00BF00BF00BF00BF00BF08
:1010F00000BF00BF00BF00BF013AC3D10C709E42C9
:101100002CBF08EB060343444B4923F07F43C1F84F
:101110004035D1F80425121A1B1A22F07F4223F021
:101120007F4303329A424DD9D1F80435464AC1F87B
:101130004035126843492F2300BF00BF00BF00BFE6
:1011400000BF00BF00BF00BF8A422FD000BF00BF5A
:1011500000BF00BF00BF00BF00BF00BF00BF00BF97
:1011600000BF00BF00BF00BF00BF00BF00BF00BF87
:1011700000BF00BF00BF00BF00BF00BF00BF00BF77
:1011800000BF00BF00BF00BF00BF00BF00BF00BF67
:1011900000BF00BF00BF00BF00BF00BF00BF00BF57
:1011A00000BF00BF00BF00BF00BF00BF013BC3D1F5
:1011B000234B4FF40032C3F8002103E0059B002BC2
:1011C0007FF43CAF214A0023137009B0BDE8F08FD3
:1011D000079804905AE6174B002477462546214687
:1011E00020461B68DDF814E0A7B13A68B24218D86F
:1011F000FC683860B61A1144FB693CB10BEB010284
:1012000022F07F42FD61BC607A603D461F46744615
:10121000002FEAD1BE46002C3FF421AE054A1360F0
:101220001DE6BE46002C40F0A480921BCEF80020A4
:1012300015E600BFE405002000100140D1050020A4
:1012400000E100E00024F4007C000020D005002034
:101250004B4A4C4B4C4D4D484FF480314FF40037C6
:101260000124C3F88070C2F848132F23C2F8081372
:10127000546029681D4600BF00BF00BF00BF00BF0B
:1012800000BF00BF00BF81422FD000BF00BF00BF22
:1012900000BF00BF00BF00BF00BF00BF00BF00BF56
:1012A00000BF00BF00BF00BF00BF00BF00BF00BF46
:1012B00000BF00BF00BF00BF00BF00BF00BF00BF36
:1012C00000BF00BF00BF00BF00BF00BF00BF00BF26
:1012D00000BF00BF00BF00BF00BF00BF00BF00BF16
:1012E00000BF00BF00BF00BF00BF013DC3D194607D
:1012F000274A166000BF00BF00BF00BF00BF00BF8D
:1013000000BF00BF81422FD000BF00BF00BF00BFA1
:1013100000BF00BF00BF00BF00BF00BF00BF00BFD5
:1013200000BF00BF00BF00BF00BF00BF00BF00BFC5
:1013300000BF00BF00BF00BF00BF00BF00BF00BFB5
:1013400000BF00BF00BF00BF00BF00BF00BF00BFA5
:1013500000BF00BF00BF00BF00BF00BF00BF00BF95
:1013600000BF00BF00BF00BF013BC3D1094B1E70CF
:1013700028E709490B6058E7084B83F800C055E699
:101380000010014000E100E07C0000200024F40097
:10139000E0050020D1050020E4050020C80500205C
:1013A000C0B2002388724B72704700BFF0B500785E
:1013B00085B00C46002840F098800B7ACA6801334B
:1013C000127BDBB29A4200F29880E3681B6823B17B
:1013D000E268E36851681B689847002504F110062D
:1013E00017E0597901F001018DF8041003958DF88B
:1013F00007509B7913F0010F0CBF0022202201A996
:10140000304600F083FF00286DD0E3681B68002B96
:101410006DD1002000F0F0F96379A279DBB293423C
:101420005AD05A1C207921681BB2D2B251F823300D
:10143000904238BF00226271E360E068002850D01B
:10144000002000F0E1F92572227AE368D2B29868B0
:1014500017B24FEAC70E00EB0E03597949088DF811
:10146000051050F83710029119798DF80610997906
:10147000C907B6D5587910F00101B5D1E7683F7BAF
:101480000132BA42B0DAE26892680EF1080E724494
:1014900052795208B2EB500FA6D1E368227A9B68CA
:1014A00053F80E1003919E44531C9EF804208DF8AF
:1014B00007209EF8052012F0010F0CBF0322022224
:1014C0008DF804209EF80620DBB212F0010F0CBF4D
:1014D00000222022237292E70023E360E0680028C4
:1014E000AED100F091F905B0F0BD03206DE7E268E0
:1014F000E36851681B68984770E70B720A7ACB68FB
:10150000D2B2986815B2EE008319597949088DF85E
:10151000051050F83510029119798DF80610997957
:10152000C8072DD5587910F001012CD1E5682D7B25
:101530000132AA4227DAE268956806F108021544EA
:101540006D796D08B5EB500F1DD1E368217A9B686A
:10155000985803901A444B1C11798DF80710517953
:1015600011F0010F0CBF032102218DF804109279B4
:10157000DBB212F0010F0CBF0022202223720DE01B
:10158000597901F00101002203928DF807208DF8AE
:1015900004109B7913F0010F18BF202201A904F158
:1015A000100000F0B3FE00287FF40FAF9BE700BFF0
:1015B0002DE9F041044600F11006174698463046E2
:1015C0002346094A00F0EEFC054648B9304600F0D3
:1015D0008DFE6571C4F80080A57127716572E560A4
:1015E0002846BDE8F08100BFAD130000F0B5044609
:1015F00085B000200D4600F0FFF8A3792279DBB218
:101600009A4200F0B3806279013A934200F0B280CE
:1016100019B2226842F8215001332279DBB29A4292
:1016200038BF0023A371002000F0EEF8002000F086
:10163000E3F8E568002D40F092802F4604F1100693
:101640001CE0597901F0010103979B798DF8041092
:1016500013F0010F0CBF0022202201A930468DF8A3
:10166000075000F053FE0346002870D0E3681B6863
:10167000002B40F08680184600F0BEF86379A2790E
:10168000DBB2934266D05A1C207921681BB2D2B2D9
:1016900051F82330904238BF00226271E360E36862
:1016A000002B5CD0002000F0AFF82572227AE368AE
:1016B000D2B298680FFA82FE4FEACE0C00EB0C0310
:1016C000597949088DF8051050F83E100291997922
:1016D00018798DF80600C907B3D5587910F00101C3
:1016E000B2D1D4F80CE09EF80CE001327245ABDACE
:1016F000E26892680CF1080C624452795208B2EB2D
:10170000500FA1D1E368227A9B6853F80C10039123
:101710009C44531C9CF805209CF806109CF804007F
:101720008DF8070012F0010F0CBF03220222DBB27A
:1017300011F0010F8DF8042023720CBF002220222B
:1017400001A9304600F0E2FD034600288ED118467C
:1017500005B0F0BD0023E360E368002BA2D10020B8
:1017600000F052F80023184605B0F0BD6279002A57
:101770007FF449AF002000F047F81123184605B068
:10178000F0BDE268E36851681B689847002000F0EC
:1017900033F853E7F0B5044685B000201F460E46E7
:1017A000154600F029F8637AC3B903F0FF0001235E
:1017B000637200F029F80F4B0194694620460296A7
:1017C0008DF80C500093FFF711FF28B967B9637AC1
:1017D000002BFCD1A07AC0B205B0F0BD002000F013
:1017E00013F8112005B0F0BD637A002BF2D0B84792
:1017F000ECE700BFA113000072B6024A1368013380
:1018000013607047E8050020034A1368013B13602A
:1018100003B962B6704700BFE805002038B50A4D2D
:101820002C780CB1852038BD204606216C60AC6058
:101830002C61EC6000F07AF84FF080420123C2F88E
:1018400018352B70204638BDEC05002030B5164CFD
:10185000A37883B0054673B110B14368012098475F
:101860000020FFF7C9FFE36800200133E360FFF7C2
:10187000CBFF03B030BD03F0FF00FFF7BDFF15B194
:1018800023692B602561E368002BECD1074A0849E6
:101890001360136801934FF0804202200123019DE1
:1018A000C2F804030B60DEE7EC05002004010040F1
:1018B0000800004010B51A4B1A6882B0A2B100228D
:1018C0001A601B6800934FF080430122154C009969
:1018D000C3F80823A368627033B10CCB0020A26068
:1018E0009847A368002BF8D10F4B1A68AAB10022C1
:1018F0001A601B6801934FF080430222094C019942
:10190000C3F8082323690122A27033B10CCB012054
:10191000226198472369002BF8D102B010BD00BFA7
:1019200000010040EC05002004010040002810B434
:1019300018DB00F1604303F561434901C9B283F844
:101940000013C3B24009800000F1604000F561401F
:1019500003F01F0201239340C0F8803103605DF85B
:10196000044B7047C3B2044A03F00F0449012244F8
:10197000C9B21176E6E700BFFCEC00E02DE9F043C8
:10198000C34B1A68012A83B000F0D0810027C14BF5
:101990001A68012A00F0BC81BF4B1A68012A00F0C6
:1019A000A981BE4B1A68012A00F09681BC4B1A68C7
:1019B000012A00F08381BB4B1A68012A00F05A818A
:1019C000B94B1A68012A00F04781B84B1A68012AFE
:1019D00000F03481B64B1A68012A00F023810026FA
:1019E00017F0FF0F1BD0DFF8CC8201250024A300E5
:1019F00003F180432F4203F5C0434FEA45050BD066
:101A0000D3F8100558F82420D3F81015C0F304209B
:101A1000C1F3014102B190470134082CE7D1002FF6
:101A200002DB03B0BDE8F083A24C94F95010481CCF
:101A30004FF0FF394FF000084FF0010700F0A98088
:101A4000C9B221F0C00029FA00F515F001051BD03C
:101A50002318890993F9303054F82330002B00F013
:101A6000CB80032907FA00F500F0CA80820002F15A
:101A7000A0423540D2F800E7CEF3014E40F0A980F5
:101A8000BEF1030F00F09F8194F951104A1C22D03F
:101A9000C9B221F0C00029FA00F3DB071BD52318D7
:101AA000890993F9303054F82320002A00F0B280DD
:101AB000032907FA00FC00F0B280830003F1A04381
:101AC00016EA0C0FD3F800E7CEF3014E63D1BEF156
:101AD000030F00F0648194F95210481C22D0C9B25F
:101AE00021F0C00029FA00F3DA071BD52318890971
:101AF00093F9303054F82320002A00F08480032921
:101B000007FA00FC00F08380830003F1A04316EA8B
:101B10000C0FD3F800E7CEF3014E46D1BEF1030F10
:101B200000F0298194F953104B1C21D0C9B221F047
:101B3000C00029FA00F919F0010F19D023188909FA
:101B400093F9303054F82390B9F1000F4DD00329A8
:101B500007FA00FE4DD0830003F1A04316EA0E0FF2
:101B6000D3F80027C2F3014229D1032A00F0EB8009
:101B7000002D3FF456AF4FF0A043C146D3F81035C7
:101B80009E423FF44EAF94F95010481C1E467FF41D
:101B900057AF002578E7BEF1020F9CD1032900F072
:101BA0002581002A97D0904795E7BEF1020FB9D161
:101BB000032900F01E81002AB4D09047B2E7022A20
:101BC000D6D1032900F01881B9F1000FD0D0C84751
:101BD000CEE7BEF1020FDCD1032900F01081002511
:101BE000002B3FF451AF98474EE70329C0D107FAC5
:101BF00000FE48EA0E08AEE70329CAD107FA00F54D
:101C000048EA050832E703298CD107FA00FC48EAC4
:101C10000C0879E703297FF45EAF07FA00FC48EA75
:101C20000C084AE700221A601B6801934FF0A0439A
:101C3000019AD3F8106547F00047D1E61E4AD2F862
:101C4000042314067FF5C6AE00221A601B680093B9
:101C5000009B47F08007BDE6174AD2F804235506DB
:101C60007FF5B3AE00221A601B680093009B47F01B
:101C70004007AAE6104AD2F8042396067FF5A0AEE4
:101C800000221A601B680093009B47F0200797E62C
:101C90000061004004610040086100400C610040A8
:101CA0001061004014610040186100401C61004058
:101CB0007C6100400006002000600040514AD2F8DC
:101CC0000423D2067FF577AE00221A601B680093CA
:101CD000009B47F010076EE64A4AD2F8042311072A
:101CE0007FF564AE00221A601B680093009B47F0EA
:101CF00008075BE6434AD2F8042350077FF551AE4C
:101D000000221A601B680093009B47F0040748E616
:101D10003C4AD2F8042394077FF53EAE00221A60B5
:101D20001B680093009B47F0020735E6354AD2F85E
:101D3000047317F001073FF42AAE00221A601B68F3
:101D40000093009B23E603297FF43EAF4FF4003E4F
:101D5000D3F8002722F44032C3F80027D3F8002735
:101D600042EA0E02C3F80027B9F1000F3FF403AFB7
:101D70000135EDB22BE703297FF41DAF4FF4003C92
:101D8000D3F800E72EF4403EC3F800E7D3F800E7AD
:101D900001354EEA0C0EEDB2C3F800E70BE703295C
:101DA0007FF4FFAE4FF4003CD3F800E72EF4403E42
:101DB000C3F800E7D3F800E701354EEA0C0EEDB2A8
:101DC000C3F800E7EDE603297FF40AAF4FF4003EC5
:101DD000D2F8005725F44035C2F80057D2F8005722
:101DE00045EA0E05C2F800570125F9E64FF4403CDC
:101DF000DAE74FF4403CC3E74FF4403EA8E74FF426
:101E0000403EE5E7006000405AB1F8B54379114F14
:101E1000114D03EB430445F823203C5D1CB1082021
:101E2000F8BD0720704705460E4690F904008978F2
:101E3000FFF77CFD2B683288C3F808256B79F178B1
:101E4000357903EB4303FA180126FE54557091705F
:101E50002046F8BD580600205C0600200368044AAE
:101E600001211960437903EB43030221D1547047E8
:101E70005806002010B403680022C3F8002183B084
:101E8000D3F80031026801930123019CC2F8443366
:101E900011B10268C2F8043303B05DF8044B704717
:101EA00010B53B4BD3F80423D20384B003D5394A91
:101EB000116800293CD1364BD3F80423940303D591
:101EC000354A1168002942D1314BD3F8042350031D
:101ED00003D5324A1168002949D12D4BD3F8042388
:101EE000D10702D5D3F80021B2B9294BD3F8042386
:101EF000920702D5D3F804210AB904B010BD00221C
:101F0000C3F80421264AD3F804310193052013684D
:101F1000019A984704B010BD0022C3F80021204A5E
:101F2000D3F80031029304201368029A9847DCE743
:101F30004FF480310020C3F84813194CC3F808133C
:101F40001060136803932368039A9847B3E74FF42C
:101F500000310024C3F848131148C3F80813146073
:101F6000136803930368039A01209847ACE74FF482
:101F700080210024C3F848130948C3F808131460EB
:101F8000136803930368039A02209847A5E700BFEC
:101F900000B0004040B1004044B1004048B10040B2
:101FA0005C0600202DE9F04F0579244EAF0007EBC9
:101FB000050E4FEACE0E06EB0E0C83B09CF82240C5
:101FC0001CB1082003B0BDE8F08F46F80E20CCF815
:101FD0000840CCF804308CF825408CF824408B7BEA
:101FE0008CF827304B7B5BBB0B684FF0A04403F5AC
:101FF000E07340F20C6E44F823E04B6803F5E073A5
:1020000044F823E091E810400368C3F80845C3F89A
:102010000CE58C68C3F824452AB10068097B40F3BD
:102020000730FFF783FC3D4406EBC5060123002083
:1020300086F8223003B0BDE8F08F00BF60060020B4
:102040000B68DFF8A092DFF8A0E24FF0A04C03F598
:10205000E07340F20C6A4CF823A04B6803F5E07380
:102060004FF001084CF823A00B6808FA03F3CCF8F2
:1020700008354B6808FA03F3CCF808350B6803F50C
:10208000E07340F20D6B4CF823B04B6803F5E0733E
:102090004FF0040A4CF823B05346D9F8009000BF23
:1020A00000BF00BF00BF00BF00BF00BF00BFF145C1
:1020B0002FD000BF00BF00BF00BF00BF00BF00BFE8
:1020C00000BF00BF00BF00BF00BF00BF00BF00BF18
:1020D00000BF00BF00BF00BF00BF00BF00BF00BF08
:1020E00000BF00BF00BF00BF00BF00BF00BF00BFF8
:1020F00000BF00BF00BF00BF00BF00BF00BF00BFE8
:1021000000BF00BF00BF00BF00BF00BF00BF00BFD7
:1021100000BF013BC3D1F3460195D1F804E0DCF8E0
:10212000103523FA0EF3DB07554600F1D6800B6815
:1021300008FA03F3CCF80C3500BF00BF00BF00BFA6
:1021400000BF00BF00BF00BFD9452FD000BF00BFF8
:1021500000BF00BF00BF00BF00BF00BF00BF00BF87
:1021600000BF00BF00BF00BF00BF00BF00BF00BF77
:1021700000BF00BF00BF00BF00BF00BF00BF00BF67
:1021800000BF00BF00BF00BF00BF00BF00BF00BF57
:1021900000BF00BF00BF00BF00BF00BF00BF00BF47
:1021A00000BF00BF00BF00BF00BF00BF013DC3D1E3
:1021B0000B6808FA03F3CCF80835534600BF00BF9C
:1021C00000BF00BF00BF00BF00BF00BFD9452FD078
:1021D00000BF00BF00BF00BF00BF00BF00BF00BF07
:1021E00000BF00BF00BF00BF00BF00BF00BF00BFF7
:1021F00000BF00BF00BF00BF00BF00BF00BF00BFE7
:1022000000BF00BF00BF00BF00BF00BF00BF00BFD6
:1022100000BF00BF00BF00BF00BF00BF00BF00BFC6
:1022200000BF00BF00BF00BF00BF00BF00BF00BFB6
:10223000013BC3D10134092C7FF46FAF019D4B6882
:10224000DFF8A48001244FF0A04E04FA03F34FF00E
:10225000040CCEF80C35634600BF00BF00BF00BFC2
:1022600000BF00BF00BF00BFC1452FD000BF00BFEF
:1022700000BF00BF00BF00BF00BF00BF00BF00BF66
:1022800000BF00BF00BF00BF00BF00BF00BF00BF56
:1022900000BF00BF00BF00BF00BF00BF00BF00BF46
:1022A00000BF00BF00BF00BF00BF00BF00BF00BF36
:1022B00000BF00BF00BF00BF00BF00BF00BF00BF26
:1022C00000BF00BF00BF00BF00BF00BF013BC3D1C4
:1022D0004B689C40CEF8084586E6019D7346002C6D
:1022E000AED181E67C0000200024F4000379064A88
:1022F000016803EB830302EBC3030220062283F889
:102300002200C1F800257047600600204B6803F0EA
:102310006043B3F1005F01D0102070472DE9F04316
:1023200090F804E0A54F03684FEA8E0C0CEB0E0604
:10233000154607EBC6064FF0FF32C3F8082396F8A0
:10234000242089B002F0FF0832B1B268C3F8042338
:10235000112009B0BDE8F08315F0140F0CBF012265
:10236000002286F824200C4607C906F10C0989E8EA
:102370000700C5F3001286F825206278C3F8882587
:10238000C3F80481D3F804210592059AC3F8248187
:10239000D3F824210692069A15F0010218BF0122F3
:1023A000C3F8502515F0020218BF0122C3F84025DA
:1023B0002278032A00F2FD80DFE802F048680D026F
:1023C000A26802F06042B2F1005F00F0B780102016
:1023D00009B0BDE8F083A2786168C3F84415C3F87A
:1023E0004825A26802F06041B1F1005FEFD10CEB2B
:1023F0000E0107EBC101E678C3F8342540F2022054
:102400004FF48452C3F83865C3F80022886008226C
:102410004FF4827100202E0704D42478032C1CBFB3
:1024200001249C500CEB0E02D200BC18BA58002AB2
:1024300044D06A0744BF4FF40072A2600CEB0E0256
:1024400007EBC2029268C3F8042382E7A2786168AE
:10245000C3F84415C3F84825A9060CEB0E0207EB98
:10246000C20256D54FF48071C3F8001254489060F0
:102470000021C3F84811D3F848210092009A4FF484
:10248000A47101221A6200200822C4E76268A678BB
:10249000C3F834250CEB0E0107EBC1014FF4805259
:1024A000C3F8386540F20220C3F80022012600225A
:1024B000886010461E624FF48271ACE701255C18FB
:1024C00002E0D3F8241171BB2268002AF9D00CEB8A
:1024D0000E02D3F8C414C3F8C41407EBC2020023DD
:1024E00082F8243000293FF434AF11F0010F18BFF7
:1024F0004FF4024048F2012308BF032011F0020FFD
:1025000018BF184648F2022311F0040F18BF1846EE
:102510001FE740F202214FF40070C3F800029160FF
:102520004FF48271ADE7C3F82421D3F82421079238
:10253000079A1D624FF482715D61C0E74FF48072AB
:10254000C3F800226268A178C3F844250022C3F8CA
:102550004815C3F85021D3F8501102910299C3F8DD
:102560006021D3F8601103910399C3F84821D3F88F
:1025700048210492012204991A629A60D3F85021EA
:10258000002AFBD00020C3F85001D3F8501101916C
:102590000CEB0E020199A168E678C3F8441507EB2D
:1025A000C2020749C3F84865916008224FF482715E
:1025B00031E708224FF4827107202CE760060020E3
:1025C0000002040070B55E4BD3F824218AB0BAB182
:1025D0000022C3F82421D3F824210592059AD3F8C8
:1025E00004216AB9574A02219068C3F80803916030
:1025F0009268C3F8042301221A625A610AB070BDBE
:102600004F4B504CD3F80421002A30D0002504F160
:102610000C0207CAC3F80451D3F80461049694F875
:102620002350049E0AAE06E90700002D39D0227B14
:10263000012A7FD0D3F84C158DF81E10022A75D0D0
:102640003F4BD3F84C25D2B23D4B8DF81F200022D2
:10265000C3F86021D3F8601102910299C3F85C219C
:10266000D3F85C310393039B94F8255028E0C3F81A
:102670004821D3F84811227B01910199002A3BD1CE
:1026800004F10C0207CA94F825500AAE06E90700C7
:10269000FDB94FF0FF32C3F80052A560C3F808231C
:1026A00017E0C3F86051D3F860210292029AC3F890
:1026B0005C51D3F85C3194F825500393039B45B9E2
:1026C0001F4B00224FF0FF31C3F80022A260C3F875
:1026D00008131B4AD2F8C434C2F8C4349A071ED572
:1026E00001238DF818300DB984F8245023686168EF
:1026F00006A898470AB070BD4FF4007040F202215E
:102700004FF0FF32C3F80002A160C3F80823A268AB
:10271000C3F8042301229A601A620AB070BD13F054
:10272000040318BF02238DF81830DCE7D3F83C25EA
:10273000D2B289E7D3F83C358DF81E3080E700BF70
:1027400000300040600600204FF47A7303FB00F075
:1027500000283ED01F4B204A1B6800BF00BF00BFAF
:1027600000BF00BF00BF00BF00BF93422FD000BF1B
:1027700000BF00BF00BF00BF00BF00BF00BF00BF61
:1027800000BF00BF00BF00BF00BF00BF00BF00BF51
:1027900000BF00BF00BF00BF00BF00BF00BF00BF41
:1027A00000BF00BF00BF00BF00BF00BF00BF00BF31
:1027B00000BF00BF00BF00BF00BF00BF00BF00BF21
:1027C00000BF00BF00BF00BF00BF00BF00BF013897
:1027D000C3D170477C0000200024F4002DE9F041B3
:1027E00088B08DF80810002B00F08580032B194667
:1027F00028BF0321052B98BF194614788DF809408E
:1028000001297AD054788DF80A40022975D094783D
:102810008DF80B40032970D0D4788DF80C40052931
:102820006FD114798DF80D400C468B4263D05F1A3E
:10283000FFB23D1F5E1EC5F38505761A0135F6B25F
:102840004FEA850C022E5FFA8CFC58D902EB010E80
:1028500002AE0131DEF8008046F80180012D3144DE
:102860001AD0DEF80480C1F80480022D14D0DEF8FE
:102870000880C1F80880032D0ED0DEF80C80C1F866
:102880000C80042D08D0DEF81080C1F81080052DD2
:1028900002D0DEF814504D6164446745E4B216D0AE
:1028A000611C08AD2544C9B2175D05F8177C8B4241
:1028B0000DD9023408AD0D44E4B2515C05F8171C83
:1028C000A34204D908A92144125D01F8172C002461
:1028D0005F1C45002346012269460B488DF80470B1
:1028E0008DF8055000968DF80640FEF753FF40B274
:1028F00008B0BDE8F08102AEE9E70C4695E702AE0C
:10290000CEE7042491E700BF64000020F0B540004A
:102910008DB0002440F0010E1D4606AF16460DF1A5
:10292000070C8DF80D008DF815E08DF807104FF0AD
:10293000010E069423468DF81810022202A9294898
:102940008DF814508DF816400794089409940A9451
:102950000B940497CDF808C08DF80CE08DF80EE0CC
:10296000FEF718FF002D37D02A1FC2F3850201326F
:10297000691E93000229DBB231D906993160012A20
:1029800011D007997160022A0DD00899B160032A0D
:1029900009D00999F160042A05D00A993161052A04
:1029A00001D00B9A72619D4216D00CA95A1C194491
:1029B000D2B211F8181CF15495420DD90CA911444A
:1029C0000233DBB211F8181CB1549D4204D90CAA91
:1029D0001A4412F8182CF25440B20DB0F0BD234640
:1029E000E3E700BF64000020042800D0704710B562
:1029F0004FF0A04282B0D2F8043502A9D84300F0CB
:102A00008070002403F08073C2F80805C2F80C350A
:102A1000684641F8044D009400F004F908B1FEF74F
:102A200027F99DE80C0003491320FEF725F802B0B2
:102A300010BD00BF943E000070B5002384B001209B
:102A40004FF0A041032203E0ED0148BF41F82420EC
:102A50000133202B00FA03F503F5E074F4D14FF0B5
:102A6000A0434FF080710022C3F80815C3F80C256D
:102A7000FEF7D4FE08B1FEF7FBF80020FEF7E6FEF5
:102A80000020FDF793FF08B1FEF7F2F82D4903206F
:102A9000FDF7A8FF00220624039207264FF0CD651C
:102AA0006946294B29480096082201948DF80C406C
:102AB0000295FEF77DFD08B1FEF7DAF8244B2549B3
:102AC000254A196218467721244C5C6259779A622C
:102AD00000F068F90446002000F094F90444042052
:102AE00000F006FA0444042000F0B0F90444002089
:102AF00000F0D6F90444032000F084F9001901D055
:102B0000FEF7B6F8164B174A18689B880090ADF888
:102B10000430154840F2BC436946ADF80030FFF779
:102B200073F908B1FEF7A4F80F480121FFF7A2F9E5
:102B30000D48FFF793F930BFFDF7F4FF0028FBD1F4
:102B4000F9E700BF743E0000880600206400002002
:102B5000CC0A0020DD270000492700000D290000D5
:102B6000643E0000E92900006C3E0000F0B52B4BEC
:102B70002B491A689369B2F90E50B2F91070B2F984
:102B800008E05B10A3F57A439E1006FB06F603FBF4
:102B900005F5F4126D0007FB0455B2F90C40B2F9CB
:102BA0000A702404761303FB0EF304EBA50400EB78
:102BB000243006FB07F65B1001FB00F103EBE60394
:102BC0009B14D08801F1434103F5004301F5A001B6
:102BD00000FB03F000294FEAE03019DBB8B14900EF
:102BE000B1FBF0F0C108B2F91430B2F91640B2F9F5
:102BF0001220850801FB01F1490B03FB05F304FBDF
:102C000001F15B1303EB2133134400EB2310F0BD00
:102C10000028FCD0B1FBF0F04000E3E7AC06002058
:102C2000CBF3FFFFF0B5264F3B6883B0002B43D0BA
:102C300000225E6AADF804200D4604460092587FDB
:102C40006A460623F721B0479DF804203F689DF8A7
:102C500003E03988B7F90430064612019DF80500F3
:102C600042EA0E3242EA1012C1EB121000FB00F0F1
:102C7000B7F902E000134900C1EBD20203FB00F3F5
:102C80000EFB02F29B1303EBE2239DF80120BB61D4
:102C90009DF800109DF8020003EB830380331201BE
:102CA0001B1242EA01322B6042EA1010FFF75EFF6E
:102CB0002060304603B0F0BD6FF07E06F9E700BF3C
:102CC000AC06002030B5364C87B021680023019354
:102CD0000093029303930493059300295CD06A4602
:102CE0004D6A487F18238821A8479DF801109DF858
:102CF0000020236842EA01221A809DF903109DF802
:102D0000022042EA01225A809DF905109DF8042014
:102D100042EA01229A809DF807109DF8062042EAB7
:102D20000122DA809DF909109DF8082042EA01226B
:102D30001A819DF90B109DF80A2042EA01225A815E
:102D40009DF90D109DF80C2042EA01229A819DF90F
:102D50000F109DF80E2042EA0122DA819DF9111030
:102D60009DF8102042EA01221A829DF913109DF865
:102D7000122042EA01225A829DF915109DF8142072
:102D800042EA01229A829DF917109DF8162042EA24
:102D90000122DA8207B030BD6FF07E00FAE700BF93
:102DA000AC060020F0B583B002AF154D002307F844
:102DB000013D28600524466A407F01233A46D02120
:102DC000B0479DF80730A3F15602022A4FF00100E8
:102DD00010D92B689B6A9847631E13F0FF0401D03B
:102DE0002868E8E72B689DF807201A774FF0FF3036
:102DF00003B0F0BD2A681377FFF764FF03B0F0BD9E
:102E0000AC06002030B5104B83B01A6800238DF853
:102E10000730AAB1032810D8957FD17F146A0346E2
:102E200003EB4513507F02AA03EB810302F8013D37
:102E3000F4210123A04703B030BD6FF00100FAE791
:102E40006FF07E00F7E700BFAC06002070B5134DB1
:102E500082B02B6800228DF80720E3B104465E6A39
:102E6000587F0DF107020123F521B04788B99DF87D
:102E700007302968A00000F01C0023F01C04204348
:102E80008DF807000C6A487F0DF107020123F52138
:102E9000A04702B070BD6FF07E00FAE7AC060020DC
:102EA00070B5124D82B02B6800228DF80720D3B187
:102EB00004465E6A587F0DF107020123F521B047F1
:102EC00078B99DF807002B6800F01F0040EA441015
:102ED0008DF807001C6A587F0DF107020123F521C8
:102EE000A04702B070BD6FF07E00FAE7AC0600208C
:102EF00070B52B4D82B02B6800228DF80720002B77
:102F00004BD004283ED804465E6A587F0DF1070274
:102F10000123F421B047E0B9601E03281BD8DFE885
:102F200000F0212902342A68012104239177D37704
:102F3000102120259DF80730146A507F03F0030309
:102F40002B430B438DF807300DF107020123F421C9
:102F5000A04702B070BD2A6801239377D37704217C
:102F60002025E7E72A68012102239177D3770821FA
:102F70002025DFE72A68012103239177D3770C21ED
:102F80002025D7E76FF00100E3E72A680221052337
:102F90009177D37714214025CCE76FF07E00D8E7F6
:102FA000AC0600202DE9F84F4300DFF86CA11E1895
:102FB0000AEBC6068B46D6F82C80B8F1010F1746EF
:102FC0005FD037D3B8F1020F2FD1013000EB4000B2
:102FD000756A4FEAC0094FF000081CE0326A641BB2
:102FE000BC420AEB09012346A2EB050428BF3B467D
:102FF0009C42486828BF1C4628445946224600F097
:103000006FFA336A25449D4208BF00253F1BA04448
:10301000A34475620BD0B36AAB4203F1FF34DDD831
:10302000326A1344013B5C1BDAE74FF0000840466C
:10303000BDE8F88FB26A746AA24253D9013A121BF2
:103040009742F4D803440AEBC3040130666A256A48
:10305000AD1B00EB4000AF420AEBC00A51D3DAF8D7
:1030600004002A46304459467E1B00F039FADAF84B
:1030700004000BEB0501324600F032FAB8466662F6
:10308000D5E7B16A756AA94226D90139366AA1EB3A
:10309000050803440AEBC304B845656A28BFB8466F
:1030A000761B013000EB4000B0450AEBC00A1ED38E
:1030B000DAF80400324659462844A8EB060500F029
:1030C0000FFADAF804000BEB06012A4600F008FAC2
:1030D00065624046BDE8F88F366A8C19013CA4EB66
:1030E0000508D6E7316A114401390A1BA8E7DAF866
:1030F0000400594628444246454400F0F1F965620F
:1031000095E7DAF80400594630443A463E4400F068
:10311000E7F9B84666628AE7F80A00202DE9F0412F
:103120002E4C94F800E082B005460F4616469846AD
:10313000BEF1000F28D02369AB424BD9EFF31183C6
:103140004FF0800181F31188019365B92846054449
:1031500004EBC504089A019BE26283F31188002006
:1031600002B0BDE8F081691C01EB4101C9006800B3
:10317000431904EBC3036750214400229A624E6056
:10318000C3F820805A62E2E70222154B22611548FB
:1031900062614FF48061144AA361A3641023C4F8F0
:1031A00028E02365C4F824E0C4F82CE0C4F858E013
:1031B000C4F85CE0C4F854E0E0612162E2640B49C9
:1031C000E01D00F0BDF90A49204600F0B9F92023BE
:1031D000A371B0E74FF0FF30C2E700BFF80A00204C
:1031E000A43E0000C0060020B0060020B03E000053
:1031F000B43E00000649074A074B9B1A03DD043B17
:10320000C858D050FBDC00F013F8FDF72FF9000090
:10321000FC3E0000000000208C000020FEE7FEE7DE
:10322000FEE7FEE7FEE7FEE7FEE7FEE7FEE7FEE776
:10323000F0B4984B1B78062B1BD0974AD2F88830F5
:1032400043F47003C2F88830BFF34F8FBFF36F8F22
:103250004FF01023D3F80022002AC0F2E980D3F8FF
:103260000432002BC0F2E4808C4B8D4A1A60F0BC13
:1032700070478C4B1B681D07DFD18B4B1B6803F01D
:10328000F003302B02D1894B894A1A60864B1B68A8
:1032900003F0F002302A00F0BA8003F0E003402B84
:1032A00000F0B580804B1B6803F0F003302B00F07A
:1032B0009E807D4B1B6803F0F002302A00F0838073
:1032C00003F0E003402B7ED0774B1B6803F0F00344
:1032D000302B6AD0744B1B6803F0F003302B4DD0B9
:1032E000714B1B6803F0F003502BA6D14FF08052B6
:1032F000704BD2F80414C3F82015D2F80814C3F8A0
:103300002415D2F80C14C3F82815D2F81014C3F8F9
:103310002C15D2F81414C3F83015D2F81814C3F8C9
:103320003415D2F81C14C3F84015D2F82014C3F891
:103330004415D2F82414C3F84815D2F82814C3F859
:103340004C15D2F82C14C3F85015D2F83014C3F829
:103350005415D2F83414C3F86015D2F83814C3F8F1
:103360006415D2F83C14C3F86815D2F84014C3F8B9
:103370006C15D2F84424C3F870255EE7454B4E49DE
:103380001B784E4D4E484F4A05270F6001260024FA
:103390003F21062B2E60046011607FF44EAF414B3D
:1033A0001B681B077FF449AF9AE73A4B464A1B78E4
:1033B0000321062B11607FF440AF3A4B1B681A07BC
:1033C0007FF43BAF86E7334B1B784FF08042002100
:1033D000062BC2F80C11C2F81011C2F838157FF490
:1033E0002CAF304B1B6819077FF427AF6CE7374AC7
:1033F0002849D368097823F080730629D3607FF4C5
:103400001CAF284B1B6818077FF417AF51E7304AF1
:10341000204B12681B782F49C2F34232062B0A60F8
:103420007FF40BAF1F4B1B681C077FF406AF39E717
:10343000294B0122C3F80425D3F80024002AFBD02D
:103440004FF0102315222449C3F80022D1F800348C
:10345000002BFBD04FF0102215211F4BC2F8041295
:10346000D3F80024002AFBD000221B49C3F804250E
:10347000D1F80034002BFBD0BFF34F8F0649174B18
:10348000CA6802F4E0621343CB60BFF34F8F00BF02
:10349000FDE700BFE00F00F000ED00E07C00002041
:1034A0000090D003E40F00F0E80F00F074C0074074
:1034B0000DF0ADBA00C000401056004088560040E4
:1034C0001856004014560040A0050040F0ED00E002
:1034D000440200103C05004000E001400400FA05F1
:1034E00010B5431E0A44914200D110BD11F8014BA2
:1034F00003F8014FF7E700000EB400B59CB04FF49D
:1035000002711DABADF81410029006906FF00041EF
:103510000A48049107914FF6FF7153F8042BADF858
:1035200016100068019302A900F076F8029B0022B1
:103530001A701CB05DF804EB03B070470000002067
:10354000034611F8012B03F8012B002AF9D170472B
:10355000034613F8012B002AFBD1181A01387047D3
:103560002DE9F0478E689E4282460C469146984669
:1035700035D88A8912F4906F31D0256809696F1A9D
:103580006569022305EB450595FBF3F508F1010399
:103590003B449D4238BF1D46530531D5294600F0B6
:1035A0007FFB064650B90C23CAF80030A38943F0CC
:1035B0004003A3814FF0FF30BDE8F0873A46216910
:1035C000FFF78EFFA38923F4906343F08003A38168
:1035D000266165613E44ED1B2660A5604646464572
:1035E00028BF464632464946206800F0F1FAA368F3
:1035F0009B1BA36023681E4426600020BDE8F08763
:103600002A4600F0ABFB06460028E1D1216950466E
:1036100000F0F8FAC7E700002DE9F04F9DB08046B2
:1036200003938B891C060D4616460FD50B696BB9A3
:10363000402100F035FB2860286128B90C23C8F828
:1036400000304FF0FF30C5E040236B610023099349
:1036500020238DF8293030238DF82A304FF0010BCC
:1036600037463C4614F8013B002B3CD1B7EB060A29
:103670000BD05346324629464046FFF771FF0130D2
:1036800000F0A380099B534409933B78002B00F082
:103690009C8000234FF0FF3204930793059206931A
:1036A0008DF853301A9305222178504800F040FAE3
:1036B000671C049BD8B9D90644BF20228DF853203B
:1036C0001A0744BF2B228DF8532022782A2A16D0BD
:1036D000079A00210A20274601343B78303B092B0A
:1036E00051D9C9B111E0252BC0D02746B9E73F4ACF
:1036F000801A0BFA00F0184304903C46D3E7039A73
:10370000111D12680391002A01DB079204E0524266
:1037100043F00203079204933B782E2B0ED17B7863
:103720002A2B07F1010132D1039B1A1D1B6803925A
:10373000002BB8BF4FF0FF33023705932C4C39787C
:103740000322204600F0F4F938B14023001B03FAAD
:1037500000F0049B034304930137397825488DF822
:10376000281006227E1C00F0E3F9002835D0224BF9
:10377000FBB9039B073323F0070308330393099B2B
:103780004B4409936CE700FB02320121A3E70023BD
:10379000059318460A240F4601313A78303A092A2F
:1037A00003D9002BCAD00590C8E704FB00200123F1
:1037B000F1E703AB00932A46104B04A94046AFF350
:1037C0000080B0F1FF3F8146D9D1AB895B063FF560
:1037D00038AF09981DB0BDE8F08F03AB00932A46BF
:1037E000064B04A9404600F081F8EAE7BC3E000021
:1037F000C23E0000C63E000000000000613500002F
:103800002DE9F04791461F468A680B69DDF8208054
:103810009342B8BF1346C9F8003091F843200646DA
:103820000C4612B10133C9F800302368990642BF33
:10383000D9F800300233C9F80030256815F00605C4
:1038400007D104F1190AE368D9F800209B1A9D42B8
:1038500029DB94F843302268003318BF0123920615
:103860002ED404F1430239463046C047013021D0FE
:103870002368E568D9F8002003F00603042B08BF8D
:10388000AD1AA36822690CBF25EAE57500259342AD
:10389000C4BF9B1AED184FF000091A344D451BD1D7
:1038A0000020BDE8F0870123524639463046C04724
:1038B000013003D14FF0FF30BDE8F0870135C2E79A
:1038C000E1185A1C302081F84300224494F8451036
:1038D00082F843100233C4E70123224639463046BA
:1038E000C0470130E6D009F10109D7E72DE9F043DF
:1038F00017460A7E85B06E2A984606460C460C9BF3
:1039000001F1430E00F0BC801AD8632A2ED00AD8E9
:10391000002A00F0C880582A00F08A8004F142058D
:1039200084F842202AE0642A01D0692AF6D121686D
:103930001A6811F0800F23D0111D1960136827E059
:10394000732A00F0B48008D86F2A2AD0702AE5D1F3
:103950000A6842F020020A6003E0752A21D0782A22
:10396000DCD1782284F845206E4964E01A6801F1C0
:103970004205111D1960136884F842300123A3E049
:1039800011F0400F02F104011960D7D0B2F90030F4
:10399000002B03DA2D225B4284F8432062490A227D
:1039A00017E02068196810F0800F03D0081D186018
:1039B0000B6806E010F0400F01F104001860F7D02A
:1039C0000B8859496F2A14BF0A220822002084F864
:1039D00043006568A560002DC0F29C80206820F03F
:1039E00004002060002B3FD1002D40F095807546EB
:1039F000082A0BD12368DA0708D5236962689A423E
:103A0000DEBF302305F8013C05F1FF35AEEB0503C1
:103A10002361CDF800803B4603AA21463046FFF7DC
:103A2000EFFE013055D14FF0FF3005B0BDE8F08317
:103A300081F845203C492268186812F0800F00F197
:103A400004051D6001D0036802E05506FBD503881C
:103A5000D00744BF42F0200222601BB9226822F046
:103A6000200222601022B1E77546B3FBF2F002FBA0
:103A70001033CB5C05F8013D03460028F5D1B7E7CC
:103A800008681A68496910F0800F04D0101D18608A
:103A90001368196007E010F0400F02F1040018608D
:103AA0001368F6D01980002323617546B1E71A68C0
:103AB000111D1960156862680021284600F038F869
:103AC00008B1401B606063682361002384F84330C1
:103AD0009FE723692A4639463046C0470130A2D0C5
:103AE00023689B0707D5002504F11909E368039AA9
:103AF0009B1A9D4205DBE068039B9842B8BF1846BD
:103B000093E701234A4639463046C04701308AD000
:103B10000135EBE7002BA7D10B7884F8423004F194
:103B2000420565E7DE3E0000CD3E000000000000DB
:103B300001F0FF01102A2BDB10F0070F08D010F85E
:103B4000013B013A8B422DD010F0070F42B3F6D162
:103B5000F0B441EA012141EA014122F007047FF07B
:103B600000070023F0E80256083C85EA010586EAD2
:103B7000010685FA47F5A3FA87F586FA47F6A5FA0E
:103B800087F68EB9EED1F0BC01F0FF0102F007021A
:103B900032B110F8013B013A83EA010313B1F8D1C5
:103BA0000020704701387047002D06BF35460338A6
:103BB000073815F0010F07D1013015F4807F02BFDF
:103BC000013015F4C03F0130F0BC0138704700BF30
:103BD000884210B501EB020303D8421E99420CD172
:103BE00010BD9842F9D28118D21AD34200D110BD2B
:103BF00013F8014D01F8014DF7E711F8014B02F8F8
:103C0000014FEBE738B50546002945D051F8043C93
:103C10000C1F002BB8BFE41800F0D6F81F4A136839
:103C2000104633B9636014602846BDE8384000F0A0
:103C3000CCB8A3420CD921686218934204BF1A6819
:103C40005B68636004BF521822600460ECE71346AF
:103C50005A680AB1A242FAD919685818A0420BD181
:103C600020680144581882421960DDD110685268FA
:103C70005A6001441960D7E702D90C232B60D3E7BF
:103C8000206821188A4204BF11685268626004BF2C
:103C9000091821605C60C7E738BD00BFC00A00207A
:103CA00070B5CD1C25F0030508350C2D38BF0C254B
:103CB000002D064601DBA94203D90C233360002006
:103CC00070BD00F081F8234A1468214691B9224C56
:103CD00023681BB9304600F067F82060294630465B
:103CE00000F062F8431C26D10C233360304600F00C
:103CF0006CF8E4E70B685B1B1AD40B2B0FD90B6035
:103D0000CD50CC18304600F060F804F10B00231DB4
:103D100020F00700C31A1BD05A42E25070BD8C42FB
:103D20000DBF63684B686360136018BF0C46E9E71A
:103D30000C464968CAE7C41C24F00304A04205D01D
:103D4000211A304600F030F80130CDD02560D9E797
:103D500070BD00BFC00A0020C40A0020F8B50746A5
:103D600014460E4621B91146BDE8F840FFF798BF4A
:103D700022B9FFF747FF25462846F8BD00F026F890
:103D800084420FD921463846FFF78AFF05460028AE
:103D9000F2D031462246FFF7A3FB31463846FFF703
:103DA00031FFE9E73546E7E738B5064C002305461D
:103DB0000846236000F014F8431C02D1236803B1C5
:103DC0002B6038BD700B00207047704751F8040C11
:103DD0000028A0F10400BCBF0B58C01870470000B9
:103DE000044A05491368002B08BF0B4618441060AD
:103DF00018467047C80A0020780B0020F8B500BFAD
:103E0000F8BC08BC9E467047F8B500BFF8BC08BCBB
:103E10009E467047040000204E6F726D616C00007A
:103E20005B253038645D00001B5B306D00000000D6
:103E30001B5B313B33316D4F766572666C6F770D6E
:103E40000A0000001B5B313B33316D4150505F4530
:103E500052524F523A4552524F523A466174616C37
:103E60000D0A0000000007410000000000B0004003
:103E70000B0003001B5B306D4150503A494E464FDA
:103E80003A424D50323830206578616D706C650D66
:103E90000A000000502C2025642C20542C2025647E
:103EA0000D0A00005465726D696E616C00000000BF
:103EB000525454005345474745520000232D302BA0
:103EC0002000686C4C00656667454647003031321B
:103ED0003334353637383941424344454600303172
:103EE00032333435363738396162636465660000D1
:043EF00000000000CE
:083EF40078C5FF7F010000000A
:103EFC000400002000000000000000000000000092
:103F0C0000000000000000000000000000000000A5
:103F1C000000000000000000000000000000000095
:103F2C000000000000000000000000000000000085
:103F3C000000000000000000000000000000000075
:103F4C000000000000000000000000000000000065
:103F5C000000000000000000000000000000000055
:103F6C000000000000300040000100000090D00371
:0C3F7C002504000001040000000000000B
:04000003000031F5D3
:00000001FF
