:020000021000EC
:10F0000000000120C9A60200F1A60200F3A602003A
:10F01000F5A60200F7A60200F9A602000000000013
:10F02000000000000000000000000000FBA602003D
:10F03000FDA6020000000000FFA6020001A70200DA
:10F040006D21020003A702003D2A020003A702006F
:10F0500003A7020003A70200A925020003A70200DC
:10F0600003A7020003A7020003A7020003A70200F0
:10F0700003A7020003A7020003A7020003A70200E0
:10F0800003A7020015F9010003A7020003A702006D
:10F09000D9F9010003A7020039C3020003A7020047
:10F0A00003A7020003A7020003A7020003A70200B0
:10F0B00003A7020003A702000000000000000000F8
:10F0C00003A7020003A7020003A7020003A7020090
:10F0D00003A7020003A7020003A70200000000002C
:10F0E0000000000000000000000000000000000020
:10F0F0000000000000000000000000000000000010
:10F1000000000000000000000000000000000000FF
:10F1100000000000000000000000000000000000EF
:10F4000010B5054C237833B9044B13B10448AFF35E
:10F4100000800123237010BD402200200000000066
:10F42000FCC40200084B10B51BB108490848AFF3F3
:10F4300000800848036803B910BD074B002BFBD0C0
:10F44000BDE81040184700BF000000004422002023
:10F45000FCC402002C22002000000000154B002BF1
:10F4600008BF134B9D46A3F5803A00218B460F46FB
:10F470001348144A121A00F065F80F4B002B00D005
:10F4800098470E4B002B00D0984700200021040025
:10F490000D000D48002802D00C48AFF3008000F0AA
:10F4A0002BF82000290004F023FD00F011F800BF24
:10F4B0000000080000000120000000000000000023
:10F4C00040220020242F0020000000000000000047
:10F4D00008B5074B044613B10021AFF30080054B7C
:10F4E0001868836A03B19847204600F033F800BFDC
:10F4F0000000000040C4020070B50E4B0E4CE41A30
:10F50000A41000251E46A54204D056F82530984781
:10F510000135F8E70CF086FF084C094BE41AA410FB
:10F5200000251E46A54204D056F8253098470135DF
:10F53000F8E770BD24220020242200202822002089
:10F540002422002002440346934202D003F8011B08
:10F55000FAE77047FEE700BF2DE9F84F244B1A7811
:10F560008AB3DFF890B0DFF89090DFF890A0002425
:10F57000012703E00134E4B2944224D226B2D9F840
:10F580000050DBF8003015F8360007FA00FE1EEADE
:10F59000030F05EBC608EDD0164A23EA0E031360ED
:10F5A00002F0F8FF15F83650DAF8003007FA05F6E1
:10F5B000334000FA05F6B34207D00D4B01341A78F8
:10F5C000E4B29442DAD3BDE8F88FD8F80430002BC7
:10F5D000F3D098F80110A1F10101B1FA81F14909C4
:10F5E000091AB1FA81F1490928469847E5E700BFB1
:10F5F000642200208C22002060220020882200202B
:10F6000070B50646114800F05BFE40B9104D01246C
:10F610002B68B4401C4203D023EA04042C6070BD64
:10F62000304602F0B7FF0B4A136860B123432E68DF
:10F630000949136034432C60044809680022BDE87E
:10F64000704000F0E5BD23EA0403F0E768220020E3
:10F650008C220020882200205C220020042A01D86D
:10F66000072070472DE9F04182B0884605461746CD
:10F6700002F05CFE002834D01C4C1D481D491E4A77
:10F680001E4B2560002608F1FF340F6080F80080D3
:10F6900016601E60E4B20327B8F1000F03D11AE030
:10F6A000DBB2C4B11C4623B205EBC30215F833002C
:10F6B0009378134A8DF8053001A98DF804708DF800
:10F6C00006608DF8076002F03BFE631E0028E7D05D
:10F6D00002B0BDE8F0810B4A0B48002100F086FD26
:10F6E000F6E702F0E1FD0028C6D0F1E76022002035
:10F6F000642200205C220020882200208C2200202E
:10F7000001F6010059F5010044C4020070B5084D2E
:10F710002B785BB1074E00243368012113F83400C5
:10F7200002F0D6FE2B780134A342F5D8002070BD3C
:10F73000642200206022002000B585B000230390E1
:10F74000194601AA44F20100ADF80430029300F01A
:10F7500003F805B05DF804FBBFF34F8F0549064B76
:10F76000CA6802F4E0621343CB60BFF34F8F00BF5F
:10F77000FDE700BF00ED00E00400FA0512F003030E
:10F7800001D007207047F0B4094D0A4F2B700A4D85
:10F790003A604C1C2B70094F094D0A4E3880E4002A
:10F7A000A4B22244298032601846F0BC704700BFE2
:10F7B0009B220020902200209A22002098220020E4
:10F7C0009C220020942200202DE9F0472C4D2B880C
:10F7D0008B4282B003D2092002B0BDE8F087064612
:10F7E00002A84FF0000800F8018D17460C4600F003
:10F7F000BFFD244B244A2548197813780088DBB2D2
:10F80000834238BF0133C9B238BF5FFA83F841453C
:10F810001FD092F800801378DFF87890DBB2834233
:10F820003ABF0133DBB200235FFA88F89DF8070086
:10F83000137000F0C5FDD9F800300FFA88F24FEAD6
:10F84000C20A43F83270534406B144B9002098808C
:10F85000C2E79DF8070000F0B3FD0420BCE70C4BA5
:10F8600028881B68314608FB003022460CF0C7FD93
:10F87000D9F800309A440020AAF80440ACE700BF51
:10F88000982200209A2200209B2200209C22002007
:10F8900094220020902200202DE9F047174C184DAB
:10F8A00022782B789A4226D0DFF85C90DFF85C80D3
:10F8B000144FDFF85CA02378D9F800203888D8F8F6
:10F8C0000060DBB20FFA83FC02EBCC0103FB0060AB
:10F8D000898852F83C3098472378BAF80020DBB288
:10F8E0009A4203F101038CBFDBB20023237022781C
:10F8F0002B789A42DFD1BDE8F08700BF9A22002022
:10F900009B22002098220020902200209422002098
:10F910009C2200202DE9F843274A284B0025C2F8F5
:10F920004051C2F84451C2F84851C2F84C51C2F893
:10F930000051C2F804511B681BB32149D2F80425B9
:10F940000C68204F141B1A6824F07F44A242A8467A
:10F9500009D8197CDE69A41A1544A1B91EB1334631
:10F960001A68A242F5D9184B18491A780B789A42AE
:10F970001BD01749174A41F823504FF48013C2F89F
:10F980000031BDE8F883D3F8149083F810803A680A
:10F990009B69484619462AB190470028DED0FFF7F8
:10F9A000CBFEDBE71846C847D8E7531CDBB2022B77
:10F9B00008BF00230B70DCE700100140A4220020E8
:10F9C000A0220020A8220020AC220020AD2200208E
:10F9D000B822002000E100E02DE9F04FA44AA5493B
:10F9E00013780978A44889B000680090994200F023
:10F9F000EB800133DBB2022B08BF002313709F4A58
:10FA000052F82360009B9C4A334423F07F431360E9
:10FA10004FF0010E9A4B079693F800A0994BCDF842
:10FA200018A0D3F80090964B5B7801931D46944B39
:10FA3000D3F804B09B7802931C46934B1B78049335
:10FA40008D4B00271B68039351464A464B4605974A
:10FA5000BC4638462646B846A9421AD001EB4104B6
:10FA600001311BF83470C9B2B14208BF0021022F26
:10FA70000BEBC40400F08380032FEDD1002BEBD0FF
:10FA8000DA6918741346002AFAD1A9424FF0010C22
:10FA9000E4D1DDF818A0079E4746BCF1000F40F006
:10FAA000A380059A12B1744A03991160002F40F0A7
:10FAB0009C82BEF1000F40F0C681B9EB030218BF73
:10FAC00001220792059375461E466B4ACDF810B089
:10FAD000D2F800C06B4ADFF8B891D646D2F800A041
:10FAE000694A0023127800931F4606924FF00108DE
:10FAF0009B463DB36A68A9682C46ED69CCEB0203CE
:10FB000023F07F434B4572D80B4423606760A760A6
:10FB100084F81080E761002E00F08B8031689942F4
:10FB20007ED2304603E01168994269D21046C2691C
:10FB30005B1A002AF7D12360E2613346C4611E4696
:10FB4000002DD7D1019B9E4500F0A4800EEB4E0303
:10FB5000049911F83320039210460EF1010E029A17
:10FB60005FFA8EFE724508BF4FF0000E012801EBD0
:10FB7000C30364D03346012200921E46E0E7646866
:10FB8000002B3FF469AF9C429A4601D115E0BA467A
:10FB9000DAF81C70002F3FF45FAFBC42F7D1BA45D2
:10FBA0000CD0FC693F68CAF81C40002C3FF454AFED
:10FBB00023683B44236013464EE71F46DA6932B19F
:10FBC00013464FF0010CECE70026B64622E72F4B18
:10FBD0004FF00108C3F80880C44613460392CDF8DD
:10FBE0001080CDF81480DCE726490A6059E7C2EBA3
:10FBF0000C0222F07F428A4209D28B1A236085E7E9
:10FC0000C91A11602360E2613346C46197E7276037
:10FC10006760A76084F81080E76156B131680023FF
:10FC2000CB1A33602346E661A2464FF0010B1E4615
:10FC300086E72346A2464FF0010B1E4680E75C682C
:10FC4000227C009282B99A686260D968A1601869C2
:10FC5000E0605B69A361069B002B00F0F180009AD5
:10FC6000626000932A4649E733461E4668E700BFB4
:10FC7000AC220020AD220020A0220020B8220020CB
:10FC8000B0220020A4220020AE220020001001405B
:10FC9000FEFF7F00009B5A46002B40F0AE8112B160
:10FCA000824BC3F800A0059BB34200F0BF80002E3A
:10FCB00000F00A817E497F4CD1F80405257833682D
:10FCC000CCEB000222F07F420332002D50D17A4D5E
:10FCD000DFF8ECE1794F4FF48036C1F84463C1F8A6
:10FCE00004634FF40036C5F880612E6001250D6075
:10FCF000DEF800602F2100BF00BF00BF00BF00BFC3
:10FD000000BF00BF00BFBE422FD000BF00BF00BF7A
:10FD100000BF00BF00BF00BF00BF00BF00BF00BFEB
:10FD200000BF00BF00BF00BF00BF00BF00BF00BFDB
:10FD300000BF00BF00BF00BF00BF00BF00BF00BFCB
:10FD400000BF00BF00BF00BF00BF00BF00BF00BFBB
:10FD500000BF00BF00BF00BF00BF00BF00BF00BFAB
:10FD600000BF00BF00BF00BF00BF0139C3D1257075
:10FD700093422CBF9C4494444D492CF07F43C1F8DE
:10FD80004035D1F80425121A1B1A22F07F4223F0C5
:10FD90007F4303329A424DD9D1F80435484AC1F81D
:10FDA0004035126845492F2300BF00BF00BF00BF88
:10FDB00000BF00BF00BF00BF8A422FD000BF00BFFE
:10FDC00000BF00BF00BF00BF00BF00BF00BF00BF3B
:10FDD00000BF00BF00BF00BF00BF00BF00BF00BF2B
:10FDE00000BF00BF00BF00BF00BF00BF00BF00BF1B
:10FDF00000BF00BF00BF00BF00BF00BF00BF00BF0B
:10FE000000BF00BF00BF00BF00BF00BF00BF00BFFA
:10FE100000BF00BF00BF00BF00BF00BF013BC3D198
:10FE2000254B4FF40032C3F8002103E0079B002B61
:10FE30007FF43DAF234A0023137009B0BDE8F08F73
:10FE4000039B00935AE6194ADDF800C017680020AA
:10FE5000054601460446ABB11A68B2421BD8D868C1
:10FE60001C60B61A1144DA6938B10CEB010727F0AF
:10FE70007F47DD6198605F601D46134617467046F8
:10FE8000002BE9D1002840F0BC800023059301231A
:10FE90000793059E19E6002840F0AC80921B05935D
:10FEA0001A6001230793059E0FE600BFA4220020DD
:10FEB00000100140C022002000E100E00024F40016
:10FEC00020220020AE2200204F4A504B504D514876
:10FED0004FF480314FF400370124C3F88070C2F82A
:10FEE00048132F23C2F80813546029681D4600BF29
:10FEF00000BF00BF00BF00BF00BF00BF00BF814206
:10FF00002FD000BF00BF00BF00BF00BF00BF00BFB9
:10FF100000BF00BF00BF00BF00BF00BF00BF00BFE9
:10FF200000BF00BF00BF00BF00BF00BF00BF00BFD9
:10FF300000BF00BF00BF00BF00BF00BF00BF00BFC9
:10FF400000BF00BF00BF00BF00BF00BF00BF00BFB9
:10FF500000BF00BF00BF00BF00BF00BF00BF00BFA9
:10FF600000BF013DC3D194602B4A166000BF00BFA3
:10FF700000BF00BF00BF00BF00BF00BF81422FD045
:10FF800000BF00BF00BF00BF00BF00BF00BF00BF79
:10FF900000BF00BF00BF00BF00BF00BF00BF00BF69
:10FFA00000BF00BF00BF00BF00BF00BF00BF00BF59
:10FFB00000BF00BF00BF00BF00BF00BF00BF00BF49
:10FFC00000BF00BF00BF00BF00BF00BF00BF00BF39
:10FFD00000BF00BF00BF00BF00BF00BF00BF00BF29
:10FFE000013BC3D10D4B1E7024E70D4A9DF8101044
:10FFF00011705EE50B490F6050E70B4B83F800E092
:020000022000DC
:100000004DE6084B1F6040E70010014000E100E0B2
:10001000202200200024F400A0220020C022002082
:10002000AE220020A4220020B02200202DE9F047BB
:1000300012F0030402D00720BDE8F087002AFAD0AE
:100040005F4D604EDFF88891DFF888C14FF4803E45
:100050004FF400374FF00108C6F88070C5F848E348
:100060002F27C5F808E3C5F80480D9F800E0B946A1
:1000700000BF00BF00BF00BF00BF00BF00BF00BF88
:10008000E6452FD000BF00BF00BF00BF00BF00BFCC
:1000900000BF00BF00BF00BF00BF00BF00BF00BF68
:1000A00000BF00BF00BF00BF00BF00BF00BF00BF58
:1000B00000BF00BF00BF00BF00BF00BF00BF00BF48
:1000C00000BF00BF00BF00BF00BF00BF00BF00BF38
:1000D00000BF00BF00BF00BF00BF00BF00BF00BF28
:1000E00000BF00BFB9F10109C2D1C5F8088000BF47
:1000F00000BF00BF00BF00BF00BF00BF00BFE6459C
:100100002FD000BF00BF00BF00BF00BF00BF00BFB7
:1001100000BF00BF00BF00BF00BF00BF00BF00BFE7
:1001200000BF00BF00BF00BF00BF00BF00BF00BFD7
:1001300000BF00BF00BF00BF00BF00BF00BF00BFC7
:1001400000BF00BF00BF00BF00BF00BF00BF00BFB7
:1001500000BF00BF00BF00BF00BF00BF00BF00BFA7
:1001600000BF013FC3D1DFF870E0DFF870A0164F89
:10017000DFF86C90DFF86C80DFF86CC08EF8004020
:10018000CAF800304FF4801EC023B9703C707C70F8
:10019000C9F8004088F800408CF800400B49C6F8C8
:1001A00080E186F81433C6F800E0C5F8080586F843
:1001B0001133D5F804350B607A602046BDE8F0872E
:1001C0000010014000E100E0B0220020A022002049
:1001D000202200200024F400C0220020A8220020B9
:1001E000A4220020AC220020AD220020074B5B6837
:1001F00023B12AB120B10368187C18B108207047D8
:100200000720704759745A61704700BFB022002020
:100210002DE9F043274C636883B033B128B104293A
:1002200007D8072003B0BDE8F083082003B0BDE87D
:10023000F0834369002BF8D0054602A86B7C0026AA
:10024000012B00F8016D0CBF8946B14690460F4660
:1002500000F08EF86378A07821785A1CD2B29042D0
:1002600008BF324691421FD003EB43036068DB00B6
:10027000C11819D04FF0010E00F803E00E4B4D608D
:10028000D3F804358B609DF80700CF60C1F810905B
:10029000C1F81480627000F093F8084B4FF480129C
:1002A0003046C3F80021C1E79DF8070000F088F848
:1002B0000420BBE7B02200200010014000E100E074
:1002C000F0B51C4E736883B053B348B343693BB376
:1002D000054602A8002400F8014D2C7400F048F8EF
:1002E0007378B07831785A1CD2B2904208BF224657
:1002F000914218D003EB43037168DB00CF1812D092
:100300000220C8547D609DF80700727000F058F814
:10031000094B4FF480122046C3F8002103B0F0BD12
:10032000082003B0F0BD9DF8070000F049F8042054
:10033000F7E700BFB022002000E100E0082910B577
:10034000044602D00020FFF7F7F923686068BDE893
:100350001040184700B583B08DE80300034A082118
:100360006846FFF731FA03B05DF804FB3D03020075
:10037000F0B4EFF3108472B60E4B9A68B2B90E491E
:1003800001259D60D1F880700C4D2E463D401D60CA
:10039000C1F88060D1F884505D604FF0FF33C1F840
:1003A0008430027004B962B6F0BC70470123037058
:1003B000F8E700BF182F002000E100E0FC06FFBCBA
:1003C000094B9A6872B168B910B4EFF3108272B633
:1003D00006491C680C605C684C60986002B962B6A3
:1003E0005DF8044B704700BF182F002000E100E0CB
:1003F000F0B52B4C2B4F6368668883B0002B48D038
:1004000036015A88B9190332496803EB820201F5B3
:100410008050824225D21368013318BF4FF6FF7512
:100420001FD09388AB4213D013888BB162601E48F3
:100430005388868801681D480025033300959BB2C8
:1004400001EB86010325257001F070FA03B0F0BDC1
:100450005388033302EB8302824202D213680133D2
:10046000DFD13E44B38963B10F4D1048296802279C
:10047000052600230122AF80267001F0AFFA03B0F9
:10048000F0BD0122094801F0A9FA0423237003B04A
:10049000F0BD3601BB19596801F10802B7E700BF8A
:1004A0005C2300203C230020E42300203022002095
:1004B000F0B543688E464BB1304A1468A34205D369
:1004C0005268934202D813F0030236D000232C4E18
:1004D000AEF800304FF0010C4FF6FF75776800233F
:1004E00007F58054C3B15A88033203EB82039C4260
:1004F00016D91A68013213D09A88AA42F3D01A8802
:10050000002AF0D0026899689142EBD11D4A4360FD
:10051000138903810120F0BD07F108039C42E8D84C
:100520000CF10103AEF800C01FFA83FCBCF1030F0D
:1005300006F11006D2D10020F0BD124C05892489A5
:10054000A542C3D105689C68A542BFD10C4C606828
:10055000834205D900F58050834201D2134608E05A
:1005600062699342E7D902F58052934238BF012372
:10057000E1D2AEF800300120F0BD00BF30220020F3
:100580003C2300205C230020B3F804C0BCF1010F21
:1005900054D82DE9F043DFF8AC8091464FF6FF7751
:1005A00000224FEA0C1408EB040E18F80440002C4B
:1005B00033D11C68002C3CD06588DEF8046003351C
:1005C00004EB850406F58056A64225D92568013539
:1005D00022D0A588BD4219D02588BDB11C6018B1B4
:1005E000A6880588AE42E5D119B126880D88AE42AD
:1005F000E0D1A268C9F800201A68114BC9F804209C
:100600001B89A9F808300020BDE8F0836588033510
:1006100004EB8504B442D9D31A600CF1010C1FFA23
:100620008CFCBCF1020FA3F804C0BAD10A20BDE8CB
:10063000F083DEF8046006F10804C3E70A2070477F
:100640005C2300203C2300202DE9F04FAF4C256FA8
:10065000EF007E1BB6008BB0A25D531E804604EBFC
:10066000060BA146052B00F2CF82DFE803F06748B6
:10067000481E1E03002840F0D680DFF8ACE29EF84A
:100680000C30002B00F017839EF800308EF80C0021
:10069000013B062B00F2B782DFE813F0E602970277
:1006A0008E016E01B502A2027C02002840F0BC80DF
:1006B000C5EB070A04EB8A03029393F804A0BAF18E
:1006C000010F00F03E83C0F02883BAF1020F41F61B
:1006D0001D5318BF0F2341F61D518B4200F0AA8015
:1006E00019F8061006938B1E012B40F2C480013AC4
:1006F000052A33D8DFE802F075907966592F7B1B05
:1007000004EB83038249B3F812A001EB0A1A002814
:1007100040F09B80BAF80800DAF804101B7C01EB6B
:1007200080010291062B00F28A83DFE813F05D015D
:10073000A8018901F101DB01C901C60100287CD1B2
:100740009BF80430032B00F27C83DFE813F00801F0
:10075000F100CE009E0005238DF814306D4D05F19B
:10076000200655F8043F0BB105A89847B542F8D1CB
:10077000206F664DC0EBC00004EB80001C220021FE
:10078000FEF7E0FE636F43B12A6F0132013B02F0D6
:1007900003026B672A67002B67D15F4A137823F047
:1007A000040313700BB0BDE8F08F7B1B04EB8303D5
:1007B0000422DB88ADF8203000238DF81420ADF83A
:1007C0002230CBE77B1B04EB83030322D8881989F3
:1007D000DB680793ADF82000ADF822108DF81420E7
:1007E000BCE700238DF81430B8E77B1B04EB8303D0
:1007F00002211A7C1E899D88D868ADF82060A2F17C
:100800000603B3FA83F35B098DF82430ADF8225068
:1008100007908DF81410A1E77B1B04EB83030122E2
:1008200018899988D4E70622012341F61D518B428D
:100830007FF456AF0023069359E737490B7801221E
:1008400023F001030B70134645E7D888BAF80A3045
:10085000BAF8081000F1030E1B1A033B7144AAF802
:100860000A30AAF80810012335E70020FFF7ECFE54
:100870000BB0BDE8F08F294B9BF81660186C596CD3
:100880003044891B1864596431E7DFF8A080244A9A
:10089000D8F8001023484FF0000A0223CDF800A03A
:1008A00001F044F8204B1A495B88D8F800E08BF837
:1008B00004A01B01CA1801F803A05368B8F804107B
:1008C000C8F800300223C2F804E01181A8F804300F
:1008D00000283FF467AF7B1B14F823200E490B78E8
:1008E00023F001030B700E23F5E6DFF840800D487E
:1008F000D8F800100023012201F070F80222002332
:10090000A8F804208BF80430E2E700BF6C23002035
:100910003C23002008230020F0230020C4220020D4
:1009200048C40200302200205C230020E423002081
:10093000DFF8E88298F80030022B00F07E8298F809
:100940001030022B00F06782B04A137843F00203A4
:1009500023F001031370012241F61D53BBE6AC4B9B
:10096000AC4A1968AC4800230093022300F0DEFF74
:1009700001238BF80430ABE7A84BBEF80220DFF868
:10098000B08203EB02129389002B00F01782A04B78
:10099000A148196802229A800522002388F80020C5
:1009A000012201F01BF80346002B3FF4FBAE1C2292
:1009B00002FB05F2A25C93E69549DEF80420B1F84B
:1009C00004C009685388944801EB8C014FF0000C77
:1009D000CDF800C003334FF0030C9BB28EF800C07B
:1009E00000F0A4FF0346DFE77B1B9B0004EB03083A
:1009F00003930023009302998748012308F104021E
:100A000000F094FF022388F8103000283FF4CAAEAB
:100A1000039B834AD25C0E23781B04EB8000BAF858
:100A20000A10B0F806E0BAF808000EF1030CCEEB9D
:100A3000010160440339AAF80800AAF80A104AE63E
:100A4000C5EB07084FEA880802997348002304EBB6
:100A5000080208310C320093012300F067FF04EB19
:100A600008036F499A7D002A0CBF012203221A74E1
:100A700000283FF497AE11F808200E23CCE7C5EB11
:100A800007084FEA88080299634804EB08031A46EE
:100A900000230431029200930832012300F046FF44
:100AA00014F808200299032A0CBF052306230B74AF
:100AB00000283FF477AE0E23AEE741F61D53ABE7B7
:100AC000584B594A5968544800230093012300F0B9
:100AD0002DFF002840F06B817D1B04EB850406236D
:100AE00023745FE67B1B4FEA830804EB08024D4B3F
:100AF00092691A601846002205A95A60FFF7D8FCCF
:100B000000287FF471AF464B13F808200A23E2E572
:100B1000DFF820E1DEF844C0BCF1000F00F02681D0
:100B2000DEF840103C485EF83120C5EB070804EBC6
:100B300088080EEBC10301310CF1FF3C01F0070105
:100B4000CEF84010CEF844C00299B8F814E00393F0
:100B500001EB8E014FF0000E9B88CDF800E000F015
:100B6000E5FE039A98F81630B8F814109288013B05
:100B70000A44DBB2A8F8142088F8163013B9012310
:100B800088F8103000283FF40DAE7A1B0E2314F8BD
:100B9000222041E71E4B1F4A19681F48002300937B
:100BA000CEF8043007238EF80030022300F0BEFE9A
:100BB0000346F9E6164ADEF80410938849880B4488
:100BC0000333022193808EF80010FFF711FC0346D7
:100BD000002B3FF4E7AD1C2202FB05F2A25C7AE594
:100BE000BEF80230DFF834801B01434400220620A7
:100BF0005968009202238EF800000C4A064800F063
:100C000095FE0346D0E606220F2364E5F02300207C
:100C1000E423002054C40200302200203C230020A2
:100C20006C2300203023002050C4020048C402007E
:100C30005C230020C4220020834BBEF808101A78E1
:100C40001B7CB2FA82F2B3FA83F352095B090131D9
:100C50008EF80A208EF80B3000220123AEF808101F
:100C60008EF80C208EF800309EF80A30774A43B197
:100C700075498B89002090721BB98A7B002A40F04D
:100C8000C4809EF80B30714A43B16F4B998B0020A2
:100C9000D07219B99B7F002B40F0B6807A1B0023DD
:100CA0008EF80030AEF80230CEF8043014F822206E
:100CB00041F61D530FE59EF80030072B3FF6E8ACD8
:100CC00001A252F823F000BF390C02009106020085
:100CD00091060200B50B0200F10C0200950B020018
:100CE000950B0200E90C020001238EF80030BBE7EF
:100CF000BEF80230DFF85081554A1B0108EB0300B3
:100D00001168D0F804A0B2F804C041600221C2F812
:100D100000A0A0F808C0918067E7DB68CDF81880D4
:100D200005A80DF11201CDF81C800593FFF7C0FB5B
:100D300000284DD10A237A1B04EB82020221117193
:100D400032E6444B1B789B0713D402230822002170
:100D500041480293FEF7F6FB029B0A2B7FF438AF63
:100D60007A1B41F61D5314F82220B4E4DCF800305D
:100D7000FFDE0298384B063005AA4146FFF704FC17
:100D800003460028E2D15346344A0699CDF8008044
:100D9000334800F0CBFD304A2B4B928803EB021214
:100DA00000280CBF43460E2382F80EA0D5E77B1B1C
:100DB0009B00E1180620E25C08747CE65168284834
:100DC000012200F00BFE0422034688F80020EBE528
:100DD000069902988B88C380B1F800E01F4ACDF8CD
:100DE00000800123A0F808E01D4800F09FFD164B8D
:100DF000BDF8122003EB021200284FF0010114BFCE
:100E00000E230023917396E70123AEF80230FFF71B
:100E1000EFFA0346DCE601234FEA031A08EB0A0364
:100E2000104A59680E4800230093022300F07EFD0B
:100E30004FF0000308F80A304AE50023ECE70F23DF
:100E4000EAE501224AE500BF3C2300205C230020A4
:100E5000E4230020F0230020F423002050C40200EB
:100E60003022002048C402000846FFF7EDBB00BF57
:100E70002DE9F04F0F894C6885B006463D46002F9E
:100E800000F0AE80206810F0030040F095809E4690
:100E900004E054F830309B0740F08E8001308742E8
:100EA000F7D17346002A00F08B80B2F80090528888
:100EB0000094BB466548DFF8A8C10768DCF8748079
:100EC000032B07F10107076003BF306803904FF061
:100ED000040A4FF0000AB8F1030F60D8DFF870E1A0
:100EE000DEF844000446C5F108008442019456D857
:100EF000DCF870000C884988029108EB000101F0D1
:100F00000301C1EBC10189000CEB01000CF80130B9
:100F1000C280039A826108F101080023BDF808101D
:100F200081804FF003020481C76080F810A0A0F810
:100F3000129080F816B082824381CCF87480E5B1BB
:100F4000DEF84020019C144404F00702009C0EEBE4
:100F5000C2020EF1380804EBC30103C9013302F1E8
:100F6000080C82E80300424514BF624672469D4267
:100F70003749F0D14B6C2B444B6436B10023354AD2
:100F8000376073601289B372328133490B7803F092
:100F9000040202F0FF04002A41D0002009E02F4B98
:100FA00003EB09190820B9F80A30033B9A1AA9F88B
:100FB0000A2005B0BDE8F08F032005B0BDE8F08F32
:100FC00004EBC70EA08808340244A64592B2F9D1BA
:100FD000D01C80B240F2FD34A04205D90920E8E7D8
:100FE000002A7FF462AF03201C4C94F80090B9F102
:100FF000000F07D1678925893D440544ADB2B5F599
:10100000806F21D3277C154D3FB96F8B2D8B3D44CD
:101010000544ADB2B5F5806F09D30720C9E743F0A9
:10102000040320460B70FFF70FFB2046C1E74FF08B
:1010300001094D4604EB051438446081B1F808B04D
:10104000486800905D4635E74D46F3E7EC23002005
:10105000C42200205C230020F02300203C23002039
:101060006C230020074A1378082B09D010B4591CB0
:10107000054C117044F8230000205DF8044B7047C4
:101080000C2070472C2300200C2300202DE9F04F6A
:10109000DFF8F8828DB098F80020002308930793BA
:1010A00009930A930B9393070DD5AF4C04F12005D8
:1010B00054F8043F07A803B19847A542F8D100208F
:1010C0000DB0BDE8F08F12F00107F8D142F0010237
:1010D00088F8002000F0CEFBA44BA54A1B681668D8
:1010E000039703F53F5A0AF13C0A03F1080903F597
:1010F00080500197043BBB464FF6FF74CDF808A023
:101100005A689C498A4203F1040526D003F58052AF
:1011100002E0934200F0038153F8041F0131F8D03C
:101120004FEA0B13944D03210BF1010BE9541FFA05
:101130008BFB1346029A9A4209F5805900F58050BC
:10114000DED1002F40F02681019B13F0FF0340F019
:1011500092800B200DB0BDE8F08F9A6887498A42D3
:1011600034D001318A42D1D1039A002A6BD184490B
:101170000D604FF0020EA1F804E0DA6801324D462E
:1011800004D1EEE02A68B2F1FF3F14D0AA88A2424F
:1011900006D02A8822B1AA68B24201D91646012790
:1011A0006A880332964405EB82051FFA8EFEA84238
:1011B000A1F804E0E6D8BEF1020F14BF0822042211
:1011C00001991143019103F58052B2E76A4A4FEA4F
:1011D0000B1C02EB0C0E4FF0000A02F80CA00221CF
:1011E000CEF80450AEF80810DD6801354A4612D139
:1011F0001AE09568B54201D92E4601275588033576
:10120000294402EB850289B29042AEF808100BD94E
:101210001568013508D09588A54202D01588002DA3
:10122000E7D14FF0010AE9E7534A9444019A8CF858
:101230000EA042F002020BF1010B01921FFA8BFB90
:1012400003F5805275E74C4A4FEA0B1102EB010C93
:101250004B4A12680492484A4FF0020E02F801E02D
:101260000BF1010B049A4649CCF804201FFA8BFBC2
:10127000ACF808E07CE7062B0AD0013B0A2B1CD80F
:10128000DFE803F0191B191B471B471B444A4400A6
:1012900098F80030344C43F0020323F0010388F83F
:1012A000003004F1200554F8043F07A803B1984723
:1012B000A542F8D103E700230593324A516F032971
:1012C00012D8314B5B6C082B0ED8136F0B4403F014
:1012D0000303C3EBC3039B00D0180124D454013192
:1012E0009DF814300371516798F80030274903F0D6
:1012F000040202F0FF04002A7FF4E1AE43F004038D
:1013000020460B70FFF7A0F92046D9E6032305938A
:10131000D3E701230593D0E702230593CDE7184BCC
:101320001B68BBB114494FEA0B1301EB030E1849BC
:10133000CEF80450104DA1F802B002210BF1010CBF
:10134000E9541FFA8CFBAEF80810019B43F001032F
:101350000193EEE60A4902238B8001230D6003937B
:10136000F3E704222CE700BF0823002030220020EE
:10137000EC230020DEC0ADDE3C230020FE011EF188
:10138000E42300206C230020C4220020F02300204E
:101390005C230020014B1E60D6E600BFEC2300203A
:1013A00060B159B130B583B00C460DF10601054668
:1013B000FFF77EF820B90A2003B030BD0520704742
:1013C000BDF80620074B686803EB021301219A89D8
:1013D0000A449A8120606B6800200C336360A97214
:1013E00003B030BD3C23002050B110B582B00DF1E8
:1013F00006010446FFF75CF820B90A2002B010BDD0
:1014000005207047BDF80620084B03EB02139A89AC
:1014100012B9062002B010BDA17A0029F9D000212E
:10142000013A9A810846A172E8E700BF3C230020F8
:101430001E4B1B789B0702D402231846704740B10D
:10144000CB1C9BB240F2FD32934205D909231846CA
:10145000704705231846704770B4154A167896B938
:101460005489158925441D44ADB2B5F5806F0AD263
:10147000354602EB05122344538106804180002348
:10148000184670BC7047147C094D54B96C8B2D8B79
:1014900025441D44ADB2B5F5806F02D20126354614
:1014A000E7E70723184670BC704700BFF023002011
:1014B0003C230020124B1B789B0702D402231846C2
:1014C0007047C8B10388022B02D90423184670471D
:1014D00010B40C49448801EB03135A89111B0329EA
:1014E0000CD4033A0021121B5A810B460180418023
:1014F00018465DF8044B70470523E0E70423F7E73F
:10150000F02300203C2300200D4B1B789B0701D4C7
:101510000220704759B110B40C884FF6FF739C42FB
:1015200001D04B882BB904205DF8044B704705208F
:101530007047022300225DF8044BFFF799BC00BFFF
:10154000F02300203AB130B40C4C2478A30704D423
:10155000022030BC70470520704769B10D884FF6F6
:10156000FF74A54201D04B8813B9042030BC7047EA
:10157000022330BCFFF77CBC0520EAE7F023002003
:1015800028B10E4A1278930703D402207047052031
:1015900070470029FBD010B40C884FF6FF729442BC
:1015A00001D04B881BB904205DF8044B704703231E
:1015B00000225DF8044BFFF75BBC00BFF023002066
:1015C000F8B51A4A1378990701D40220F8BD4FF6EE
:1015D000FF7188421DD0164D6C6F032C1BD8154926
:1015E000496C082917D8296F214401F00301C1EB88
:1015F000C10189006F18661C05246C54012403F096
:1016000004013C71F88001F0FF046E6729B10020ED
:10161000F8BD0420F8BD0820F8BD43F004032046BF
:101620001370FFF711F82046F8BD00BFF02300202B
:101630006C230020C4220020F8B5174A13789907BC
:1016400001D40220F8BD1548416F03291AD8144C63
:10165000646C082C16D8046F124D0C4404F003047B
:10166000C4EBC4042E780131062700F824704167CA
:101670000EB10121297303F0040101F0FF0419B137
:101680000020F8BD0820F8BD43F004032046137085
:10169000FEF7DAFF2046F8BDF02300206C2300207F
:1016A000C42200205C23002010B50C4C82B0ADF8A1
:1016B00006002078ADF80410810702D4022002B0A1
:1016C00010BD3AB133B101A90DF10600FEF75CFF80
:1016D00002B010BD052002B010BD00BFF0230020F5
:1016E00000B50D4B83B0ADF806001878830703D41E
:1016F000022003B05DF804FB51B14AB1134600204B
:101700000A460DF10601FEF73FFF03B05DF804FB4A
:10171000052003B05DF804FBF023002000B50D4B5D
:1017200083B0ADF806001878830703D4022003B015
:101730005DF804FB51B14AB113460DF106000A46AB
:101740000021FEF721FF03B05DF804FB052003B084
:101750005DF804FBF023002020B119B103680B6091
:10176000002070470520704729DF704728DF704749
:1017700070B50C4D696E042911D02B6E0B44032BF0
:1017800088BF043B182202FB035406464B1C20462C
:1017900000216B66FDF7D6FE3460012070BD00208D
:1017A00070BD00BF0024002070B5304C636E84B063
:1017B0007BB1256E6E00731904EBC3031A7A012AFC
:1017C00009D0022A26D19889FFF7D0FF112818D016
:1017D00000BB04B070BD70199A8ADB8A04EBC000AC
:1017E000D21AC1680069B2F5806F4FEA8303B4BFB3
:1017F00092B24FF4806219441844FFF7B5FF1128E4
:10180000E6D11B4A137823F0020343F0040313705C
:1018100004B070BD102268460021FDF793FE7319D5
:1018200004EBC3031A7A012A17D0022A09D19A8934
:10183000DB89ADF80A20D21A0123ADF808208DF813
:1018400000303544ED0062196359526801926846D0
:101850009B680921984704B070BD1A699B8A02925F
:1018600000218DF80010ADF80C30EAE700240020CC
:10187000FC2300202DE9F0434FF010235D696B1C21
:1018800049D0DFF8A48098F800C01CF0010F3FD1C8
:10189000DFF890E02248CEEB0000000934D00EEBD8
:1018A0000011734607461A6812B15A6802B1013F27
:1018B00010338B42F7D13FB300260022194B9146DB
:1018C000F4B206E0596839B10132904203F11003D5
:1018D0000ED019680029F5D1597B494588BFD4B28B
:1018E00002F1010288BF8946904203F11003F0D152
:1018F000240104EB0E0301361A7B5D60B742A5EBB1
:10190000023544F80E50D8D14CF0010C88F800C0D4
:101910000020BDE8F0834FF080535D692D03B0E7F0
:101920004022002030220020FC2300202DE9F0413D
:10193000274C2578EE0782B012D510B1254DA8426C
:1019400003D2022002B0BDE8F081234DA842F8D2B4
:1019500052B149B142EA0105AD0707D00620F1E7CF
:10196000012002B0BDE8F0810320EBE70568A94241
:1019700001D20520E6E7466801EB8305AE42F8D3C5
:101980000BB90420DEE7804601A81E4615460F4627
:10199000FFF7EEFE08B90720D4E701992378C1F8D4
:1019A0000080019A0898486013F006044FF0010186
:1019B000D560176196821172054A01D00020C1E7F7
:1019C00043F002031370FFF7EFFE2046BAE700BFB3
:1019D000FC23002030220020402200202DE9F0418D
:1019E000244C2578ED0782B010D510B1224DA842C5
:1019F00003D2022002B0BDE8F081204DA842F8D207
:101A000041B1C1F30B053DB10620F3E7012002B05F
:101A1000BDE8F0810320EDE70568A94201D2052069
:101A2000E8E7466801EB0235AE42F8D30AB9042074
:101A3000E0E7804601A81E4615460F46FFF798FED0
:101A400008B90720D6E701992378C1F80080019AE8
:101A50004E600220390B13F006049181158210723A
:101A6000044A01D00020C5E703431370FFF79CFE32
:101A70002046BFE7FC230020302200204022002027
:101A800020B1034B5B6E036000207047032070475A
:101A9000002400202DE9F047DFF8B082A94C98F827
:101AA0000030266E990784B079D5022800F0B68000
:101AB000032840F0AF80A44D2B780133DBB2032B19
:101AC0002B7040F2A780002710222F7039466846FD
:101AD0007500FDF737FDAB1904EBC303E9461A7A2D
:101AE000012A00F0E180022A09D19A89DB89ADF848
:101AF0000A20D21A0123ADF808208DF800303544B1
:101B0000ED0062196359526801929B688D4F4846F7
:101B100008219847636E013B6366002B40F0FD800F
:101B20003A6E98F80010013221F00201042A88F878
:101B300000103A6630D1002626666BB37500AB19EB
:101B400004EBC303AA1904EBC202117A01293DD0A8
:101B500002297FD0102268460021FDF7F3FCAB1963
:101B600004EBC303E9461A7A012A7ED0022A09D17E
:101B70009A89DB89ADF80A20D21A0123ADF8082032
:101B80008DF800303544ED006219635952680192B6
:101B900048469B680921984704B0BDE8F0875A077A
:101BA00038D5626E03F0FB0388F80030002AF3D0CA
:101BB000750043F00203AA1988F8003004EBC20351
:101BC000AA1904EBC202117A0129C1D1D38AAA1938
:101BD00004EBC202A819928A04EBC000D21AC168B1
:101BE0000069B2F5806F4FEA8303B4BF92B24FF43D
:101BF000806219441844FFF7B7FD11282FD198F8D7
:101C0000003023F0020343F0040388F8003004B0EE
:101C1000BDE8F087636E002B90D1BDE77500AB196E
:101C200004EBC307484A3B7A4FF0000A012B82F8C5
:101C300000A023D0022BEDD1FB89BA89398A013368
:101C40009BB201329942FB81BA8155D0636E002B61
:101C5000A2D03B469889FFF789FD1128CFD00028F4
:101C60007FF478AF04B0BDE8F0871A699B8A0292CE
:101C700000218DF80010ADF80C3083E7FB8AB88A9C
:101C8000C21AB2F5806FB4BF92B24FF480621344AF
:101C9000A9199BB204EBC1079842FB82294A0BD0D9
:101CA000526E002A93D177E71A699B8A8DF80070EB
:101CB0000292ADF80C3022E7684610220021FDF7B1
:101CC00041FC3B7A012BE94632D0022B09D1FA893B
:101CD000BB89ADF80A309B1A0122ADF808308DF8A7
:101CE0000020AB19DB00E218E35852680192484625
:101CF0009B68144F00210CE7684610225146FDF7FF
:101D000021FC3B7A012BE946DFD13A69BB8A8DF889
:101D100000A00292ADF80C30E3E73E6E0136042ECF
:101D20003E663FF408AF7500AB1907EBC30309E744
:101D30003A69BB8AADF80C3000218DF80010029290
:101D4000CFE700BF0024002068240020FC230020EF
:101D5000C30710D4810710D4420710D4030710D44E
:101D6000C10610D4820610D4430610D4C30910D182
:101D70004FF6FF7070470020704701207047022027
:101D800070470320704704207047052070470620E5
:101D900070470720704700BFE8B1E1B110B4048874
:101DA00094422AD04488944229D08488944228D0EE
:101DB000C488944227D00489944226D0448994420E
:101DC00025D08489944207D0C089904208BF072457
:101DD00003D05DF8044B7047062433B10878012224
:101DE00002FA04F303430B70F3E70A78012000FAC8
:101DF00004F322EA03030B70EBE70024EDE7012470
:101E0000EBE70224E9E70324E7E70424E5E70524F8
:101E1000E3E700BF2DE9F0439DF81C4008B301B390
:101E2000FAB105889D4200F0E48045889D4200F0AB
:101E3000E68085889D4200F0E480C5889D4200F0E0
:101E4000E28005899D4200F0E08045899D4200F0D6
:101E5000DE8085899D4206D0C089984208BF072050
:101E600002D0BDE8F083062001238340484200F001
:101E700003009042DBB228BF1046002C5BD1042A3D
:101E800000F2AF8010460D78DC43E4B22540012813
:101E90000D7000F0B2804D78022805EA04054D70FF
:101EA00000F0AB808D78042805EA04058D7040F0C1
:101EB000B480CD782C40CC7004468242D1D0C0EBA7
:101EC000020EAEF10406551EB6082D1A0136022D7B
:101ED0004FEA860C1AD9002563F3070563F30F2533
:101EE00063F31745084463F31F65ED43A0F104094C
:101EF0004FF0000859F8047F08F101082F40B04561
:101F000040F8047BF6D3E6456444AAD00D5DDB437C
:101F1000D8B200EA0503651CAA420B55A1D94E5D53
:101F2000A31C9A4200EA06044C5578D9CA5C1040BA
:101F3000C854BDE8F083042A57D810460C7801280D
:101F400044EA03040C7056D04C78022844EA030497
:101F50004C7050D08C78042844EA03048C705AD119
:101F6000CC781C43CC700546824252D0C0EB020EA6
:101F7000AEF10406541EB608241A0136022C4FEAAC
:101F800086081AD94FF0000C63F3070C63F30F2C8B
:101F9000084463F3174C63F31F6CA0F10409002796
:101FA00059F8044F01374CEA0404B74240F8044B97
:101FB000F6D3C64545443FF454AF485D6C1C184306
:101FC000A24248557FF64DAF0E5DA81C824243EAFF
:101FD00006050D557FF645AF0A5C13430B54BDE86B
:101FE000F08300283FF46BAF4DE705460028BDD0D5
:101FF000A4E7002038E70546B6E704465DE7012080
:1020000032E7022030E703202EE704202CE70520EA
:102010002AE7BDE8F0830325A6E703244DE7BDE8E2
:10202000F08300BFD0B1038893421ED0438893420F
:102030001DD0838893421CD0C38893421BD0038950
:1020400093421AD04389934219D08389934206D090
:10205000C389934208BF072002D0002070470620A2
:1020600041FA00F000F0010070470020F8E701207D
:10207000F6E70220F4E70320F2E70420F0E705206A
:10208000EEE700BF00293AD012F0010330B402D0CD
:102090000B8883800123950704D500EB43044D880A
:1020A000A5800133540704D500EB43048D88A58037
:1020B0000133150704D500EB4304CD88A580013317
:1020C000D40604D500EB43040D89A58001339506A1
:1020D00004D500EB43044D89A5800133540604D593
:1020E00000EB43048D89A5800133D20904D000EBB5
:1020F0004302C98991800133036030BC704701609D
:10210000704700BF0A7B4B6810B40C68002A0ABFF6
:10211000234600220122027103605DF8044B7047E0
:1021200010B40279034652B148681C688A68011BE2
:10213000914210D9A01818605DF8044B70470468EC
:1021400008688A68211A91420BD8012218601A7116
:102150005DF8044B7047002218601A715DF8044B5B
:102160007047A01A18605DF8044B704710B51A4B01
:102170001A6882B0A2B100221A601B6800934FF067
:1021800080430122154C0099C3F80823A3686270AC
:1021900033B10CCB0020A2609847A368002BF8D184
:1021A0000F4B1A68AAB100221A601B6801934FF006
:1021B00080430222094C0199C3F8082323690122B4
:1021C000A27033B10CCB0120226198472369002B08
:1021D000F8D102B010BD00BF000100406C24002007
:1021E0000401004058B910B5054CA36833B10CCBBD
:1021F0000020A2609847A368002BF8D110BD70475B
:102200006C24002010B582B002A80023114C00F805
:10221000013DFEF7ADF823788BB9184606216360BF
:10222000A3602361E36000F017F80AF021F820B9F9
:102230004FF080430122C3F8182501232370E3687F
:102240009DF8070001330122E360A270FEF7B8F8A1
:1022500002B010BD6C240020002810B418DB00F17F
:10226000604303F561434901C9B283F80013C3B267
:102270004009800000F1604000F5614003F01F025A
:1022800001239340C0F8803103605DF8044B704730
:10229000C3B2044A03F00F0449012244C9B21176C3
:1022A000E6E700BFFCEC00E030B51D4C94F854505C
:1022B00083B015B1082003B030BD06214FF0FF33C5
:1022C0000846FF2223636363A363E36323646364B9
:1022D000A364E36423606360A360E36023616361DC
:1022E000A361E361236284F850306362A36284F8DF
:1022F0005230E36284F8533084F85120FFF7ACFF8A
:10230000084B094A1D601B68019301984FF0004378
:102310000121284684F85410C2F8043303B030BDBC
:10232000802400207C61004000600040034B93F853
:102330005400003018BF0120704700BF80240020E7
:10234000F0B5624C251895F93030002B01DB0820E0
:10235000F0BD91F803E09446BEF1000F56D023681B
:10236000013300F0A380002508266B1C574F54F85A
:102370002320013251D0AB1C9E4245D957F823206F
:1023800001324AD0EB1C9E423ED957F8232001323D
:1023900043D02B1D9E4237D957F8232001323CD021
:1023A0006B1D9E4230D957F82370013735D0AB1DD5
:1023B0009E4229D954F82320444F01322DD0EB1DE1
:1023C0009E4221D957F82320013226D005F1080377
:1023D0009E4219D957F8232001321ED005F1090376
:1023E0009E4211D957F82320013216D005F10A0375
:1023F0009E4209D957F8237001370ED00B35AE42F3
:1024000002D9E36A013307D00420F0BD236A013307
:1024100053D008250C26A8E70B2326185DB244F8F4
:1024200023C086F83050BEF1000F02D1234483F858
:1024300048008B78A3B94A784FF0A04600F5E073C6
:10244000920046F82320CB78A3B9083D2C440978A4
:1024500094F8502042EA811284F850201846F0BDCA
:10246000830003F1A043D3F8002722F00202C3F84F
:102470000027E8E7AB0003F1804303F5C0430A7887
:10248000D3F8101521F4473121F44071C3F8101529
:102490001204000202F44031D3F8104500F4F8525F
:1024A0000A432243C3F810250020F0BD002385F81D
:1024B0003030C4F800C01D46BBE7082685F8306000
:1024C0003346C4F820C03546B0E700BF8024002062
:1024D000F0B42E4D2E1882B096F93030072B1CDD4B
:1024E0002B4493F848309B09032B41D0012B14BF98
:1024F0004FF440334FF40033800000F1A040D0F897
:10250000002722F44032C0F80027D0F800271343F8
:10251000C0F8003702B0F0BC7047DAB2072AF9D829
:10252000980000F1804000F5C04003F140029200A5
:10253000D0F8104592B202F18042002744F0010425
:1025400002F5C042C0F810450197019817600029B4
:10255000E0D096F9302055F82220002ADAD0012266
:102560000B4902FA03F3C1F8043302B0F0BC704720
:102570004FF0A0420123D2F81025834013420CBF34
:102580004FF400334FF44033B6E700BF80240020FF
:10259000006000404FF0A043D3F8103523FA00F05C
:1025A00000F00100704700BF2DE9F047C44B1A68E6
:1025B000012A82B000F0D2810027C24B1A68012A9A
:1025C00000F0BE81C04B1A68012A00F0AB81BF4BFE
:1025D0001A68012A00F09881BD4B1A68012A00F0A0
:1025E0008581BC4B1A68012A00F05C81BA4B1A68DD
:1025F000012A00F04981B94B1A68012A00F036819E
:10260000B74B1A68012A00F02581002617F0FF0F4A
:102610001BD0DFF8D08201250024A30003F1804302
:102620002F4203F5C0434FEA45050BD0D3F8100500
:1026300058F82420D3F81015C0F30420C1F3014149
:1026400002B190470134082CE7D1002F02DB02B021
:10265000BDE8F087A34D95F95010481C4FF0FF3AA4
:102660002F464FF000094FF0010800F0A980C9B2D1
:1026700021F0C0002AFA00F414F001041BD03B182A
:10268000890993F9303057F82330002B00F0CB80C4
:10269000032908FA00F400F0CB80820002F1A04286
:1026A0003440D2F800E7CEF3014E40F0A980BEF1ED
:1026B000030F00F07A8195F951104A1C22D0C9B25B
:1026C00021F0C0002AFA00F3DB071BD53B1889096B
:1026D00093F9303057F82330002B00F0B3800329F2
:1026E00008FA00FC00F0B380820002F1A04216EA72
:1026F0000C0FD2F800E7CEF3014E63D1BEF1030F09
:1027000000F07A8195F95210481C22D0C9B221F00C
:10271000C0002AFA00F3DA071BD53B18890993F9A0
:10272000303057F82330002B00F08580032908FA59
:1027300000FC00F08480820002F1A04216EA0C0F37
:10274000D2F800E7CEF3014E46D1BEF1030F00F000
:102750003F8195F953104B1C21D0C9B221F0C00024
:102760002AFA00FA1AF0010F19D03B18890993F9D7
:10277000303057F82320002A4ED0032908FA00FCF5
:102780004ED0830003F1A04316EA0C0FD3F800E704
:10279000CEF3014E2AD1BEF1030F00F0EF80002CE2
:1027A0003FF455AF4FF0A043D3F810359E423FF4AD
:1027B0004EAF95F95010481C1E46CA467FF457AFDD
:1027C000002478E7BEF1020F9CD1032900F02B8191
:1027D000002B97D0984795E7BEF1020FB9D1032996
:1027E00000F01E81002BB4D09847B2E7BEF1020F73
:1027F000D5D1032900F01A81002AD0D09047CEE726
:10280000BEF1020FDCD1032900F013810024002B5C
:102810003FF451AF98474EE70329C0D108FA00FCB6
:1028200049EA0C09ADE7032940F0A68008FA00F454
:1028300049EA040931E703298BD108FA00FC49EA87
:102840000C0978E703297FF45DAF08FA00FC49EA38
:102850000C0949E700221A601B6801934FF0A0435E
:10286000019AD3F8106547F00047CFE61E4AD2F828
:10287000042314067FF5C4AE00221A601B6800937F
:10288000009B47F08007BBE6174AD2F804235506A1
:102890007FF5B1AE00221A601B680093009B47F0E1
:1028A0004007A8E6104AD2F8042396067FF59EAEAC
:1028B00000221A601B680093009B47F0200795E6F2
:1028C0000061004004610040086100400C6100406C
:1028D0001061004014610040186100401C6100401C
:1028E0007C6100408024002000600040524AD2F801
:1028F0000423D2067FF575AE00221A601B68009390
:10290000009B47F010076CE64B4AD2F804231107EE
:102910007FF562AE00221A601B680093009B47F0AF
:10292000080759E6444AD2F8042350077FF54FAE12
:1029300000221A601B680093009B47F0040746E6DC
:102940003D4AD2F8042394077FF53CAE00221A607A
:102950001B680093009B47F0020733E63649D1F825
:10296000041311F001073FF428AE002119601B6821
:1029700000931746009B20E61C469CE603297FF443
:102980003BAF4FF4003ED3F800C72CF4403CC3F8F3
:1029900000C7D3F800C74CEA0E0EC3F800E7002AC0
:1029A0003FF400AF0134E4B228E703297FF42FAFEE
:1029B0004FF40034D2F800E72EF4403EC2F800E7AE
:1029C000D2F800E74EEA0404C2F8004701241EE7EB
:1029D00003297FF407AF4FF4003ED2F800C72CF470
:1029E000403CC2F800C7D2F800C701344CEA0E0ED2
:1029F000E4B2C2F800E7F5E603297FF4E9AE4FF44C
:102A0000003ED2F800C72CF4403CC2F800C7D2F810
:102A100000C701344CEA0E0EE4B2C2F800E7D7E674
:102A20004FF4403ED9E74FF4403EEAE74FF4403ED2
:102A3000A9E74FF44034BDE70060004070B59B4CFF
:102A4000237F8EB0002B75D1994AD2F804138905E3
:102A500048D4974BD3F80423520704D5D3F8082160
:102A6000002A40F0CA80924BD3F81C21C2B1A28A3E
:102A7000A07D8E4992B282424FF00002C3F81C2121
:102A800080F0A980D3F81C210692069A888A8A8A47
:102A90008D6880B20132285C92B28A82C3F81C052C
:102AA000834BD3F84421DAB10022C3F84421D3F890
:102AB0004411A27E04910499002A40F08980E27DAD
:102AC0007A4B6AB10022587ED968DA7501228DF8F6
:102AD00030000B918DF828200AA893E80600904753
:102AE0000EB070BDD2F824110029B2D0C2F8243142
:102AF000D2F82411A37E07914FF401710798C2F810
:102B000008130BB901235360694A02238DF828305A
:102B1000D2F88034C2F88034E07DE2680D9300235F
:102B20008DF83000E375237621680B9263680AA85C
:102B3000984798E75E4BD3F82421002A40F0938011
:102B4000D3F8101161B1C3F81021D3F8101103911B
:102B50000399D3F83C15E07DC9B2884200F0AA8001
:102B6000534BD3F84421B2B10022C3F84421D3F827
:102B70004411E07D019101994C4960B1D3F83C3595
:102B8000C8688DF830300123CA750B908DF8283055
:102B90000AA80AC99847464BD3F82021002A9FD09B
:102BA0000022C3F82021D3F82011A07D00910099C4
:102BB0003E49002894D0D3F84C058B688DF830003E
:102BC0008A750B938DF828200AC90AA8984787E7C9
:102BD00001221A6073E7D3F81C310593059B002886
:102BE0003FF45EAF8B688DF830008A750B938DF8DB
:102BF00028200AC90AA8984752E7E17D2B4A0029F4
:102C000070D00021C3F80811D3F808110891089971
:102C1000D068517ED3F818354354537ED17D0133AB
:102C2000DBB25376627E214B8A427FF41CAF1A7E60
:102C3000002A6DD19B7E13B91D4B01225A601C4A9C
:102C4000E06863684FF40171C2F80813627E8DF882
:102C50003020002501220B902168E5758DF8282091
:102C60000AA89847FFE60022C3F82421D3F82411CC
:102C7000029102218DF828100299D3F88014C3F82C
:102C800080140D91D3F83C15E368E27522768DF837
:102C900030100B93216863680AA89847044BD3F857
:102CA0004421002A3FF477AF5EE700BFD82400201C
:102CB00000200040217EF1B1D3F80062E17526F0DA
:102CC0002001E568C3F8001226698DF83000012361
:102CD0008DF82830227621680B95E66063680AA893
:102CE00098473DE7C3F80811D3F808210992099ADB
:102CF000D3F8183596E7E268E17501238DF83000C6
:102D00008DF828300B9294E80A000AA8984727E724
:102D1000DE685D7E1869DA7501210022D8601A76B6
:102D20005A768DF828100B968DF8305093E80600EF
:102D30000AA8904797E600BF4FF0A042D2F80435AA
:102D4000D94301F0807103F08073C2F80815C2F80E
:102D50000C35704708282DE9F04707D0092838D0EE
:102D60000C2838D00B2838D0BDE8F0870025012981
:102D7000044611D020D30229F6D1214B05EB45059D
:102D80001D446E78002EEFD01E4B1B68002BEBD03D
:102D90003046BDE8F0471847DFF864806F007B19C4
:102DA00008EB030218F803605378C3B92F44474473
:102DB000154BBA785A55E5E71448FDF781FA1049E2
:102DC000114A05EB45030B44565D9B789E42CBD1DF
:102DD000D8E70125CBE70225C9E70325C7E70C4B58
:102DE000DFF830901968094801EB810149004A4633
:102DF000FDF70EFA0028D9D189F80040D6E700BFC8
:102E00007425002028250020702500202C25002076
:102E10002425002020250020C94B1B68DB0700D497
:102E2000704770B5C74B1C78172C22D8DFE814F018
:102E3000680075007500AE00D500F5001A013D016F
:102E400039002200390022001800500150015001C1
:102E5000500150014E0058009E00780118001800E3
:102E60004FF0A0434FF0E0710022C3F80C15C3F8F7
:102E7000082570BD4FF0A042B34CD2F80435B348DA
:102E8000D94301F4000103F40003C2F80815C2F8A5
:102E90000C352168002201EB8101BDE87040FDF78F
:102EA000B7B94FF0A042A84CD2F80435A748D9438F
:102EB00001F4000103F40003C2F80815C2F80C3550
:102EC00021680022BDE87040FDF7A2B94FF0A04391
:102ED0004FF0E0710022C3F80815C3F80C2570BD4F
:102EE0004FF0A04300224FF0C0704FF48001C3F8B0
:102EF0000805C3F80C25C3F80C15C3F8082570BDE8
:102F0000934B1B684FF0A042DB4303F0E0730021BA
:102F1000C2F80835C2F80C1570BD8D4A12684FF022
:102F2000A040D24302F0C0720025C0F80825C0F8C6
:102F30000C55D0F8042582F0E07212F4800200F003
:102F40003881022C4FF48002C0F8082514BF2821D4
:102F50001221C0F80C557C4A1C7012687B4802FB99
:102F600001F1BDE870400022FDF752B94FF0A043D7
:102F700000224FF0A0704FF40001C3F80805C3F819
:102F80000C25C3F80C15C3F8082570BD704A1268EB
:102F90004FF0A040D24302F0C0720024C0F80825D0
:102FA000C0F80C45D0F8042582F0E07212F48002DB
:102FB00000F0F7804FF48002C0F808250821C0F81F
:102FC0000C45614A6148126803241C7002FB01F140
:102FD000BDE870400022FDF71BB95D4A12684FF052
:102FE000A040D24302F0C0720024C0F80825C0F807
:102FF0000C45D0F8042582F0E07212F4800200F053
:10300000C1804FF48002C0F808252821C0F80C4583
:103010004D4A4E4812680424D7E74D4A12684FF0D3
:10302000A041D24302F0C0720020C1F80825C1F8C7
:103030000C05D1F8042582F0E07212F4800200F051
:10304000A9804FF48002C1F80825C1F80C053E4A5A
:103050003E48116805241C7049000022BDE87040FC
:10306000FDF7D6B83A4A12684FF0A041D24302F0B9
:10307000C0720020C1F80825C1F80C05D1F804255C
:1030800082F0E07212F4800275D04FF48002C1F831
:103090000825C1F80C052C4A2C48116806241C7020
:1030A0000022BDE87040FDF7B3B8294B1B684FF014
:1030B000A042DB43002103F0C0734FF48000C2F84C
:1030C0000835C2F80C15C2F80C05C2F8081570BD19
:1030D0002048FDF7F5F8D4F1110402463ED000284F
:1030E0003CD11B4E4FF08073012C336010D0C825AB
:1030F000194B15491748096805FB04F4A3FB044361
:103100005B0901FB03F1FDF783F8336803F0E0731B
:103110004FF0A0420021C2F80C35C2F8081570BD6E
:103120004FF0A04300224FF080704FF44001C3F8ED
:103130000805C3F80C25C3F80C15C3F8082570BDA5
:103140001C2500204C25002024250020F8240020E8
:1031500018250020502500201F85EB511A4A1368BE
:103160004FF0A040002103F0E073C0F80835C0F82C
:103170000C15116070BD4FF48000C1F80C05C1F84A
:10318000082588E74FF48001C0F80C150421C0F829
:1031900008253DE74FF48000C1F80C05C1F808256B
:1031A00055E74FF48001C0F80C150221C0F808253E
:1031B00007E74FF48001022CC0F80C1514BF04215E
:1031C0000221C0F80825C6E6182500200378082B40
:1031D00015D0092B15D00C2B04D00B2B08BF0323C3
:1031E00001D070470223084A03EB43031344587885
:1031F0000028F6D0054B1B68002BF2D0184700239F
:10320000F1E70123EFE700BF742500202825002007
:10321000032803D900230B7000207047074A4FF0A2
:10322000A04352F82000D3F8102501238340934394
:1032300014BF012300230B700020704760C40200FC
:1032400070B5BF4B1A6812F0010201D1104670BD73
:103250000346172800F2EB81DFE810F0390149013D
:1032600049017C00A400CC00F20058002F00180097
:103270002F00180017017C017C017C017C017C017E
:10328000A50125012F0144006F006F004FF0A042FF
:10329000AC4CD2F80435AC48D94301F4000103F436
:1032A0000003C2F80815C2F80C352168002201EBB2
:1032B0008101BDE87040FCF7ABBF4FF0A042A14CCC
:1032C000D2F80435A048D94301F4000103F4000307
:1032D000C2F80815C2F80C3521680022BDE870401C
:1032E000FCF796BF99484FF0A0434FF08072002141
:1032F0004FF440051524C3F80825C3F80C150A46F9
:10330000C3F80C55C3F8081504709FE7904B8F4C19
:103310001B684FF0A041DB43002003F0C0734FF463
:1033200080060725C1F808350246C1F80C05C1F82A
:103330000C65C1F80805257088E74FF0A041834C63
:103340004FF0E0720020C1F80C25C1F808050246D4
:1033500023707BE77E4B1B684FF0A042DB4303F0FA
:10336000C0730020C2F80835C2F80C05D2F8043545
:1033700083F0E07313F4800300F042814FF4800384
:10338000C2F808350821C2F80C056E4A6F4B126866
:103390006D4803241C7002FB01F1BDE8704000225F
:1033A000FCF736BF6A4B1B684FF0A042DB4303F0CB
:1033B000C0730020C2F80835C2F80C05D2F80435F5
:1033C00083F0E07313F4800300F022814FF4800354
:1033D000C2F808352821C2F80C055A4A5B4B12681E
:1033E000594804241C7002FB01F1BDE87040002222
:1033F000FCF70EBF564B1B684FF0A042DB4303F0B7
:10340000C0730021C2F80835C2F80C15D2F8043593
:1034100083F0E07313F4800300F002814FF4800323
:10342000C2F80835C2F80C15464A484B11684648A0
:1034300005241C7049000022BDE87040FCF7E8BE7E
:10344000434B1B684FF0A042DB4303F0C0730021E5
:10345000C2F80835C2F80C15D2F8043583F0E073D1
:1034600013F4800300F0BA804FF48003C2F80835EB
:10347000C2F80C15354B334A3348116806241C70CA
:103480000022BDE87040FCF7C3BE4FF0A0432F48B8
:103490004FF0E07200210C24C3F80C25C3F8081586
:1034A0000A460470D2E64FF0A04328484FF0C0729D
:1034B00000214FF4800513241DE74FF0A04323485B
:1034C0004FF0A07200214FF40005142413E7204BA5
:1034D0001E4C1B684FF0A040DB43002103F0E0735B
:1034E000C0F808350A46C0F80C152170AEE6184A37
:1034F00012684FF0A040D24302F0C0720024C0F81E
:103500000825C0F80C45D0F8042582F0E07212F4CA
:1035100080026AD0022B4FF48002C0F8082514BF45
:1035200028211221C0F80C45064A084C1268237065
:1035300002FB01F104480022BDE87040FCF768BEC0
:103540001C25002024250020F82400204C250020E4
:103550001825002004463748FCF7B2FED4F11103C9
:1035600002462ED068BB344D4FF08071012B29608C
:1035700011D0C824314E32492E48096804FB03F3A8
:10358000A6FB03435B0901FB03F1FCF741FE29683D
:10359000024601F0E0714FF0A0430020C3F80C1583
:1035A000C3F8080552E64FF0A04326484FF0E072FA
:1035B00000211224C3F80825C3F80C150A4604702C
:1035C00044E61D490B684FF0A044002003F0E0736F
:1035D000C4F80835C4F80C05086037E64FF48001DC
:1035E000C2F80C15C2F8083544E74FF48001022BED
:1035F000C0F80C1514BF04210221C0F8082593E778
:103600004FF48001C2F80C150221C2F80835BCE65F
:103610004FF48001C2F80C150421C2F80835DCE62D
:103620004FF48001C2F80C15C2F80835FCE6002200
:103630000CE600BF50250020182500201F85EB5107
:10364000242500204C250020F8B5224D224E234B86
:103650002860044610F0020031601A6011D0204B3F
:1036600020484A080E270D210F2610251970DF70FB
:1036700004219E715D72FBF7F1FFF8B1E30702D4FC
:10368000F8BDE2070CD54FF0A0434FF0E0720021E7
:10369000C3F80825C3F80C15C3F818250028EFD186
:1036A000114A12480021FCF7A1FD0028E8D1104A78
:1036B00010480121BDE8F840FCF798BDFCF726F85A
:1036C0000028DBD101460C4A0C48FCF78FFDE107CE
:1036D000E4D5D8E71C25002024250020282500203B
:1036E0007425002074C40200192E020070C4020068
:1036F000392D020094C40200CD3102005CC40200E6
:10370000032801D907207047012A12D0012917D0B8
:1037100008D30229F6D10D4B00EB400003440020F2
:103720005A707047094B00EB4000034400209A7028
:103730007047012901D00022E8E700F10D02D2B262
:1037400000EB400301490020CA5470477425002053
:1037500070B41D4D1D4CD5F800371D491D4A10F0A1
:10376000010F14BF4FF44036002623F44033334397
:10377000C5F80037D4F8003710F0020F14BF4FF42B
:103780004035002523F440332B43C4F80037D1F8EB
:10379000003710F0040F14BF4FF44034002423F41A
:1037A00040332343C1F80037D2F8003710F0080F38
:1037B00023F4403314BF4FF4403100210B43C2F8CF
:1037C0000037002070BC70472000005024000050DB
:1037D000300000502C00005008B50320FFF7B8FF60
:1037E00010B1062808BF002008BD00BF10B503882F
:1037F000102B08D0112B05D1264B18680138186002
:1038000038B110BD10BD234C216881B10131216058
:1038100010BD01220221FFF773FF48B3072827D00C
:103820001D4B1B68002BECD0BDE81040184701224F
:103830000846FFF765FF48B1072807D0164B1B68FD
:1038400003B1984721680131216010BD0722022190
:103850000120FFF755FF08B10728EFD1042202210C
:103860000020FFF74DFF0028ECD00728E6D1E9E75C
:10387000072202210120FFF743FF08B10728CFD11B
:10388000002108460A22FFF73BFF0028B9D007288D
:10389000C6D110BD842500208025002010B5204B06
:1038A00082B01860B1B10C4600200DF10601FFF79F
:1038B000AFFC08B102B010BD0DF107010120FFF708
:1038C000A7FC0028F6D19DF8073013BB9DF8063001
:1038D00013BB2370134B186810B1002002B010BD49
:1038E00001220221FFF70CFF08B10728E2D10722CD
:1038F00002210120FFF704FF08B10728DAD10021D7
:1039000008460A22FFF7FCFE0028E6D00728D1D19E
:10391000E3E702232370DDE70B232370DAE700BF20
:10392000802500208425002032DF70473EDF70476D
:1039300076DF704778DF70477ADF70477CDF70474B
:10394000A8DF7047ADDF704767DF70470B78052B46
:1039500006D0062B03D1044B00221A707047704723
:10396000014B01221A707047B0260020FBF7E4BE1D
:1039700008B50C490C48FEF7D3FBC1B20B4807F061
:1039800049F930F008020BD043F20402904207D00C
:1039900043F20142904203D0BDE80840FBF7CCBEA1
:1039A00008BD00BFF0250020E8250020CC2800201D
:1039B00010B50446FEF76EF82046BDE8104001F051
:1039C0008BBC00BF70B5044684B001F043FE2046B6
:1039D00005F028FB2046FFF709FF23883B2B2CD05E
:1039E0001BD9552B6AD0562B27D0512B05D1A27944
:1039F0001AB1A37B043B022B45D9204601F00CFCF5
:103A0000204601F0CBFD2146334807F045FC214616
:103A1000324806F0FFFF04B070BD102B44D0112BCC
:103A200012D0022BE9D12E4B00211888FFF78CFF12
:103A30000028E2D0FBF780FEDFE71321A088FFF724
:103A400077FF0028D9D0F5E70020FFF7F9FB002821
:103A50003BD1244D224A2B784FF6FF711180002B69
:103A6000CBD0214E2148316805F070FB80BB316816
:103A70001E4805F08DFB062802D008B1FBF75CFE5E
:103A800000232B70B9E7022A0CBF022201224FF457
:103A9000C1736946A0888DF80020ADF80430FFF7A7
:103AA0004FFF0028A9D0C5E70720FFF7C9FB08B1E1
:103AB000FBF742FE0A4BA2881A809EE71721A088D6
:103AC000FFF740FF002898D0B4E7FBF735FEC0E7CA
:103AD000FBF732FECBE700BFB4260020CC28002045
:103AE00014220020A82800202C280020D8250020FF
:103AF00010B5B0B008281AD8DFE800F00531193742
:103B00003D43491B52000020FFF79AFB08B1FBF729
:103B100013FE0020FFF794FB002852D1FFF75CFE54
:103B2000002854D1FFF700FF08B1FBF705FE30B0C5
:103B300010BD30AB082443F8BC4D10AA0DEB0400B7
:103B40006946009405F00CFB00283DD110AA02A89C
:103B50009DE80A0001F004FC0028E8D0E5E7052014
:103B6000FFF76EFB0028E2D0DFE70220FFF768FBDB
:103B70000028DCD0D9E70420FFF762FB0028D6D06C
:103B8000D3E70320FFF75CFB0028D0D0CDE703206C
:103B9000FFF756FB90B901F0FBFB0028C7D0C4E744
:103BA00010A9002005F008FB0528C0D090B90DF140
:103BB000510001F0C1FB0028B9D0B6E7FBF7BCFD0E
:103BC000E9E7FBF7B9FDA9E7FBF7B6FDBEE7FBF7B1
:103BD000B3FDA7E7FBF7B0FDE9E700BF2DE9F04132
:103BE0004FF6FF711022204D2048FBF7ABFC082454
:103BF0004FF6FF702C6005F0D5FA4FF6FF770021E5
:103C0000B842296012D00346184EA84603E0013C92
:103C10000BD0D8F8001026F811304A1C18462A603C
:103C200005F0C0FAB8420346F1D129680F4805F003
:103C30008DFA98B929680D4805F0AAFA062800D02F
:103C400078B90B4B002203201A7001F0C5FA08B9AD
:103C5000BDE8F081BDE8F041FBF76EBDFBF76CFD00
:103C6000E8E7FBF769FDECE72C280020D8250020C9
:103C7000A828002070B5037882B004460E2B20D807
:103C8000DFE803F02F1F0837444C211F2B1F21555D
:103C9000211F2800808805F0D9FA112802D008B128
:103CA000FBF74AFD237A012B0BD122490A68072A28
:103CB00007D8214D21480026541C25F812600C60BD
:103CC000037002B070BD80680028FAD0FBF734FDA5
:103CD00002B070BD05F032FAF3E70020FBF72CFDCF
:103CE000EFE7808805F0B2FA1128EAD00028E8D082
:103CF000ECE7428941F206039A42E2D14088012171
:103D000005F010FA30F00803DBD0DFE702A900234A
:103D100001F8043D408805F00FFAD2E7FDF78CFC6E
:103D20000E280346CDD033F00803CAD0CEE7FFF704
:103D300055FFC6E72C280020D8250020A828002001
:103D4000FBF7FABCFBF7F8BC70B5043884B00C285C
:103D50002DD8DFE800F02E2C2C372C2C432C2C51A6
:103D6000657907005F4B1A884FF6FF739A421ED0A1
:103D70005D4B1C78002C79D1032520262A4603AB05
:103D800001215A488DF80C408DF80E508DF80D60C9
:103D900008F07AF930F0080309D043F2040398429E
:103DA00005D043F20143984201D0FBF7C5FC04B0B3
:103DB00070BD4C4B13211888FFF7BAFD30F0080393
:103DC000F5D0F2E7474B1A884FF6FF739A42EED1CF
:103DD00001F0DEFA30F00803E9D0E6E70020FFF753
:103DE0002FFA00287AD1FFF7F7FC002873D1FFF7EC
:103DF0009BFD0028DBD0D8E73A4B1A884FF6FF73BB
:103E00009A42D4D0384B1C78002C55D00023019313
:103E1000009319466FF03102344808F06FF9B9E7A2
:103E2000304B1A884FF6FF739A42C0D02E4B1C7845
:103E3000002C32D000220192009211466FF0310323
:103E40002A4808F05BF9A5E7264B1A884FF6FF735E
:103E50009A42ACD0244B1C788CB100230193009380
:103E600019463222214808F049F993E700220192CD
:103E70000092114632231D4808F040F98AE73225A6
:103E800003AB0322012119488DF80D408DF80E4037
:103E90008DF80C5008F0F8F87CE7E026FC2503AB21
:103EA0000322012111488DF80C408DF80D608DF82A
:103EB0000E5008F0E9F86DE7CE260F2503AB03227C
:103EC00001210A488DF80E408DF80C608DF80D50D8
:103ED00008F0DAF85EE7FBF72FFC88E7FBF72CFC2D
:103EE00081E700BF14220020B0260020B426002065
:103EF0002DE9F041AD4BAE4A9CB005210020FCF706
:103F000095F808B1FBF718FCAA4AAB480121FCF769
:103F10006DF908B1FBF710FCA84A40F6CD4103202B
:103F2000FFF792FB08B1FBF707FC0AA90020FFF797
:103F3000B5FC08B1FBF700FCA14AA24B1068029047
:103F400002AE30465022A0499DF8284008F096F96C
:103F500008B1FBF7F1FB0AAA0121002008F004FADE
:103F600008B1FBF7E9FB17230AA8ADF8383008F0D1
:103F700013FA08B1FBF7E0FB944808F0C9F908B15F
:103F8000FBF7DAFB924808F0CDF908B1FBF7D4FB58
:103F9000904A0A210820FBF7F1FB08B1FBF7CCFBA4
:103FA00005F052F808B1FBF7C7FB022C00F04D8278
:103FB000052200210AA8FBF7C5FA9DF828309DF8D4
:103FC0002B109DF82C2043F00103032003F0F10394
:103FD00060F30613014302436FF3C7130725102450
:103FE0000AA88DF828308DF82B108DF82C208DF82C
:103FF00029508DF82A4005F08BF808B1FBF79CFB9F
:10400000754805F069F808B1FBF796FB9DF8083094
:104010007248012262F3030362F307138DF808303C
:1040200008F0F8F96D4982B23046FFF787FC08B115
:10403000FBF782FB40F2C230FFF77CFC08B1FBF7D4
:104040007BFB082200210AA8FBF77CFA06240C213E
:1040500014224FF496730AA8ADF82840ADF82A1040
:10406000ADF82C20ADF82E30FFF766FC08B1FBF759
:1040700063FB382200210AA8FBF764FA022201241C
:10408000574B8DF8282005252022002130468DF839
:104090002A40ADF838408DF82B500F93FBF752FAB9
:1040A000504A0092002328221E2019464FF44865EA
:1040B0008DF808408DF809408DF80B408DF80C40C4
:1040C0008DF80A30B4240493059306920790464B6A
:1040D000089532460AA8099400F0C2FF08B1FBF720
:1040E0002BFB41F615104EF6EE634022022401250B
:1040F0000021ADF80A000AA8ADF80C308DF8084090
:10410000ADF80E50FBF71EFA0AA8384901F0B4FBCF
:104110009DF864309DF86520189665F3030302F05E
:10412000F00264F307136FF307120AA88DF86430E6
:104130008DF8652006F016FE08B1FBF7FDFA142293
:1041400000210AA8FBF7FEF99DF835109DF83620EE
:104150009DF838309DF837400120022560F30301B7
:1041600060F3030260F3030365F3071165F30712BD
:1041700065F3071304F0F004002565F307148DF8C8
:104180002C0064278DF8351019488DF836200AA9BF
:104190008DF838308DF837400A950C958DF83470CD
:1041A00006F066FC30B3FBF7C7FA23E055030200C4
:1041B0003028002071390200C0C40200493D0200CD
:1041C00098C40200D1C3020088250020C53902002E
:1041D000B139020000260020753C02009CC4020098
:1041E00088210020413D0200F13A0200ACC40200E7
:1041F000CC280020182200213046FBF7A3F99DF8B7
:104200000C309DF80D809DF816209DF81C109DF82F
:104210001D009DF80EC09DF814E09DF81570012456
:10422000022564F3030365F307138DF80C309DF842
:104230001E308DF80A4064F3030864F3030264F34C
:10424000030164F3030064F3030C64F3030E64F3EB
:10425000030765F3071865F3071265F3071165F3A4
:10426000071064F3030365F3071C65F3071E65F38A
:10427000071365F307178DF80D808DF816204FF0A2
:10428000030848228DF81C108DF81D0000210AA893
:104290008DF80B408DF81340ADF818408DF81B4099
:1042A0008DF80EC08DF814E08DF815708DF81E3065
:1042B000ADF80880ADF810808DF81A808DF8125096
:1042C000FBF740F99DF868309DF854E09DF85C706C
:1042D0009DF869009DF86A109DF855C09DF864200E
:1042E0000D9664F303039DF85D608DF8328064F3EE
:1042F000030E64F3030764F3030064F3030165F33F
:10430000071364F3030265F3071E65F3071765F3EC
:10431000071065F307118DF868300CF0F00C0023DE
:1043200006F0F00665F307128DF85B808DF854E017
:104330008DF85C7063F307168DF869008DF86A10CC
:104340004648DFF83081DFF830E18DF8314040F247
:10435000011163F3071C88278DF85D601290ADF89A
:1043600058108DF855C08DF830308DF838300F93D7
:104370008DF8403011938DF85A308DF85E301893D7
:10438000CDF82880CDF82CE0ADF84C708DF8642085
:104390009DF865109DF867209DF86660304864F3CD
:1043A000030164F3030206F0F0060C4663F30716FC
:1043B00065F3071465F307120AA98DF866608DF896
:1043C00065408DF8672007F033FB08B1FBF7B4F9BF
:1043D000244B254819460122512564241D605C6048
:1043E0009A601A73FDF78EFE1C2200210AA8FBF7C3
:1043F000A9F84FF4203500234FF4702403211B4A01
:104400000A930AA8ADF836308DF838300F930B9523
:104410000C948DF83410109201F086F808B1FBF777
:104420008BF900224FF480311148FBF7F1FE08B1FF
:10443000FBF782F9FFF7D2FBFBF72EFAFFF776FACC
:104440000028F9D0FBF778F9F6E704F0D7FE00284A
:104450003FF4AEADFBF770F9AAE500BF8C21002058
:10446000B4260020F0250020E82500206D39020048
:10447000AC2800204D390200453D02006DDF704739
:1044800072DF704779DF70477DDF704765DF704707
:104490002DE9F04F83B004880C9FBDF83490B7F835
:1044A00000A0002C4CD09846002316468B460546AB
:1044B0001C4603E02A880134A24224DD6A6852F8CF
:1044C0002400019000220DF1030101A8FFF7DEFF97
:1044D00010BB9DF80320B242ECD103B33A88931984
:1044E0004B4518DC42440DF1030101A80123FFF7FD
:1044F000CDFF88B93A889DF803100A443A802A888B
:104500000134A242DADCDBB13B88013BCAEB030396
:104510009BB2FF2B12D90C2003B0BDE8F08F3B8873
:104520005A1C334402334B4592B2F4DC3A8008F80B
:1045300002B03A88013292B23A80D3E708F80A30E2
:10454000002003B0BDE8F08F2DE9F0470023178865
:10455000138090F82D3084B0144605460E46002B8B
:1045600049D1AA78002A70D1EA78002A2ED16A6847
:10457000A2B1D91CB94225D8022192F90020F154E8
:10458000238801339BB20A212380F154238801330D
:104590009BB22380F2542388013323802B89002B84
:1045A00040F02A812B8A002B40F03F812B8B002B7F
:1045B00040F054812A6A002A00F0A78021888B1DD0
:1045C000BB4262D90C2004B0BDE8F087D91CB942C7
:1045D000F8D80221F154238801339BB201212380B2
:1045E000F15423880B449BB22380F25423880B445C
:1045F0009BB22380BBE7082FE4D902A8FFF73EFF58
:104600000028E0D113880822CA54238801339BB2C2
:104610001B222380CA542088013080B220800622C9
:1046200008440DF1090107F0EAFE23889DF80820EF
:1046300006339BB212F0FE0218BF01222380F2540F
:10464000238801339BB223808BE70433BB42B9D864
:1046500002A8FFF717FF0028B5D12388BDF808206E
:104660000321F154238801339BB219212380F15493
:10467000238801339BB2F1182380F254120A4A7046
:10468000238802339BB223806EE71388052B40F208
:10469000AF806FF4486803EB080080B24FF27D3EB4
:1046A000704540F2A5805088052840F2A1806FF443
:1046B000486C84441FFA8CFCF44540F299804FF614
:1046C000FF7E734504D0704502D0834200F2908093
:1046D00005237354238801339BB212212380F154A4
:1046E000238801339BB223801188F1543344090A93
:1046F0005970238802339BB223805288F25433448A
:10470000120A5A70238802332380D5F82480B8F126
:10471000000F30D0B8F804202188131D0B44BB4291
:104720003FF650AF931CFE2B3FF64CAF0332725452
:10473000238801339BB2FF222380F2542388013364
:104740009BB22380B8F80020F2543344120A5A7006
:104750002088023080B22080B8F804205AB1D8F8FE
:104760000810002944D0304407F049FEB8F804305E
:1047700022881344238095F82C30002B40F08B8046
:10478000287800283FF41FAF2B88012B30D02388D6
:104790009A1CBA423FF616AF012805D1697802315A
:1047A00019448F42FFF40EAF023FFB1A04A99BB2DB
:1047B00021F8083DB018FFF767FE00287FF403AF2B
:1047C0002A78022A00F0B480012A60D01A46082113
:1047D000FE2A3FF6F7AE2388551CF5542388013393
:1047E0009BB22380F154238801331A442280EAE6E5
:1047F000072004B0BDE8F08705F1080802228DE823
:104800009000404611463346FFF742FE00287FF4F1
:10481000DAAE8DE890004046334610220621FFF7BD
:1048200037FE00287FF4CFAEBCE605F110088DE816
:1048300090004046334602220321FFF729FE00285C
:104840007FF4C1AE8DE89000404633461022072128
:10485000FFF71EFE00287FF4B6AEA7E605F11808A4
:104860008DE890004046334602221421FFF710FEE7
:1048700000287FF4A8AE8DE8900040463346102211
:104880001521FFF705FE00287FF49DAE92E66A78B9
:1048900093429CD29AE7D5F82880B8F1000FA7D0B0
:1048A000B8F804200232FE2A3FF68CAE23884FF07F
:1048B00000094FF0160A0132F254238801339BB2EB
:1048C000238006F803A0238801339BB22380B8F825
:1048D0000020F2543344120A5A70238802339BB2E8
:1048E0002380B8F80410F0180A4669B1D8F80830E7
:1048F0001946002B3FF47CAF07F081FDB8F8043077
:10490000228813449BB2238009F1010995F82C20D9
:104910005FFA89F94A4509EB49087FF631AFAA6A7F
:1049200002EB8808B8F804200232FE2AC3D949E60F
:10493000BDF808209342FFF449AF092148E700BFC2
:104940002DE9F04395B01F230D46ADF80E30044617
:10495000002800F08480C27853077CD590F82D3071
:104960000021ADF80C10002B40F0DD8183780CAFF6
:10497000002B40F019821946032014AE31445F1C0D
:10498000023316FA87F74FF0020E16FA83F601F893
:1049900040EC83B2012107F8401CADF80C3006F85A
:1049A000402C6668002E00F08C80D81C1F2874D91B
:1049B0000C2015B0BDE8F083A76A002F4BD0BA8851
:1049C0000232FE2AF4D8BDF80C304FF0000804AED5
:1049D0004FF016091AE007F012FDBDF80C20BB8855
:1049E00094F82C1013449BB2ADF80C3008F1010878
:1049F0005FFA88F8884508EB480780F0F080A26AE3
:104A000002EB8707BA880232FE2AD1D80DF1500E88
:104A10009E44581C01320DF1500C0EF8402C1CFA2B
:104A200080F09A1C92B200F8409CADF80C203888B7
:104A3000B0543244000A50700433B7F804E09BB21B
:104A40007246F018ADF80C30BEF1000FCED0BB6846
:104A50001946002BBFD1072015B0BDE8F083ADF893
:104A60000C00ADB1EB78002BF5D128460CA90DF167
:104A70000E02FFF769FD0028EED19DF80E300CAA5A
:104A800020469DF80C10FFF7FBFC15B0BDE8F08345
:104A90002B46ADF80E502A46F2E714AF591C9A1C6B
:104AA00017FA81F13B4417FA82F296F90060ADF8EB
:104AB0000C0002270A2003F8407C01F8400C02F8A1
:104AC000406C2389002B40F08F80238A002B40F01C
:104AD000AB80238B002B40F0C780226A002A42D093
:104AE000BDF80C30991D1F293FF662AF10880528CC
:104AF000B1D96FF4486C00EB0C06B6B24FF27D37BB
:104B0000BE42A8D95688052EA5D96FF4486EB64482
:104B10001FFA8EFEBE459ED94FF6FF77B84203D0EE
:104B2000BE4201D0B04296D814A8C7185E1C10FA35
:104B300086F64FF0050E981C07F840EC80B212275D
:104B400006F8407CADF80C001788ADF80C1004AEE8
:104B50003118375404333F0A4F709BB25288F254D5
:104B60003344120A5A70676AA7B3B888BDF80C308C
:104B7000811C9A1C56181F2E3FF61AAFFE293FF6CD
:104B800017AF14AE1E44591C0DF1500E1EFA81F1E0
:104B9000033006F8400C92B2FF2001F8400CADF84B
:104BA0000C20398804AEB018B154090A417004339E
:104BB000BA8898B2ADF80C0062B1B96800293FF428
:104BC0004AAF304407F01BFCBDF80C20BB881344EF
:104BD000ADF80C3094F82C1000297FF4EDAE23785A
:104BE000002B61D104AC3CE703A904F1080704AE33
:104BF0004FF01F080222009138463346CDF804805A
:104C00001146FFF745FC00287FF426AF03AB009365
:104C1000CDF804803346384610220621FFF738FCD1
:104C200000287FF419AF50E703AA04F1100704AE7F
:104C30004FF01F08009238463346CDF80480022218
:104C40000321FFF725FC00287FF406AF03AB009398
:104C5000CDF804803346384610220721FFF718FCB0
:104C600000287FF4F9AE34E703AA04F1180704AE74
:104C70004FF01F08009238463346CDF804800222D8
:104C80001421FFF705FC00287FF4E6AE03AB009388
:104C9000CDF804803346384610221521FFF7F8FB83
:104CA00000287FF4D9AE18E72288012A3FF4D3AE5A
:104CB000BDF80C20901C1F283FF67AAE012B05D1C1
:104CC0006378134402331F2B3FF672AEC2F11D030B
:104CD00014A99BB204AE21F8203D3044FFF7D4FB69
:104CE00000287FF4B9AE2278022A00F08780012ADA
:104CF00000F08B80ADF830301A460820FE2A3FF6CF
:104D000057AEBDF80C3014AC591CE71814FA81F1F9
:104D100002331344013207F8402C3446ADF80C300E
:104D200001F8400C9DE60CAF3846FFF7A7FB0028C2
:104D30007FF492AEBDF80C3014A903F1010E9A1C59
:104D400011FA8EFE0B4492B204AEB01808211B2655
:104D500003F8401CADF80C200DF1310106220EF8CD
:104D6000406C07F04CFBBDF80C209DF83010931DF3
:104D700011F0FE019BB23BD114A8034403F8401C80
:104D8000D31DA2789BB2ADF80C304AB9E278002A64
:104D90003FF407AED81C1F2819463FF609AEECE5D4
:104DA00004331F2B3FF604AE3846FFF76BFB002899
