:020000021000EC
:10F000000000012001BE020029BE02002BBE02004A
:10F010002DBE02002FBE020031BE02000000000023
:10F0200000000000000000000000000033BE0200ED
:10F0300035BE02000000000037BE020039BE0200EB
:10F04000F92D02003BBE02003BBE0200D53C02008F
:10F050003BBE02003BBE0200293202003BBE020062
:10F060003BBE02003BBE02003BBE02003BBE0200B4
:10F070003BBE02003BBE02003BBE02003BBE0200A4
:10F080003BBE0200810202003BBE02003BBE02000A
:10F09000550302003BBE020005DA02003BBE02003F
:10F0A0003BBE02003BBE02003BBE02003BBE020074
:10F0B0003BBE02003BBE020000000000000000005A
:10F0C0003BBE02003BBE02003BBE02003BBE020054
:10F0D0003BBE02003BBE02003BBE0200000000003F
:10F0E0000000000000000000000000000000000020
:10F0F0000000000000000000000000000000000010
:10F1000000000000000000000000000000000000FF
:10F1100000000000000000000000000000000000EF
:10F4000010B5054C237833B9044B13B10448AFF35E
:10F4100000800123237010BD68220020000000003E
:10F42000241704000C4B43B10C480D4910B5AFF341
:10F4300000800C48036823B910BD0A48036833B93B
:10F440007047094B002BF7D0BDE810401847064B1A
:10F45000002BF5D0184700BF00000000241704005F
:10F460006C2200205422002000000000154B002BCD
:10F4700008BF134B9D46A3F5803A00218B460F46EB
:10F480001348144A121A00F063F80F4B002B00D0F7
:10F4900098470E4B002B00D0984700200021040015
:10F4A0000D000D48002802D00C48AFF3008000F09A
:10F4B0002BF82000290005F003FF00F011F800BF31
:10F4C0000000080000000120000000000000000013
:10F4D000682200206C4F00200000000000000000A7
:10F4E00008B5074B044613B10021AFF30080054B6C
:10F4F0001868836A03B19847204600F031F800BFCE
:10F5000000000000C0F4030070B50D4E0D4CA41BAC
:10F51000A4100025A54209D10B4E0C4C1FF0C4FFCE
:10F52000A41BA4100025A54205D170BD56F82530B6
:10F5300098470135EEE756F8253098470135F2E750
:10F540004C2200204C2200204C220020502200207F
:10F5500002440346934200D1704703F8011BF9E7C8
:10F56000FEE700BF2DE9F04FC7B017461C46DDF897
:10F5700044A18B46002900F02381002B00F0F78086
:10F580000A23009300231A4606AE539B20250AEB5C
:10F59000030B9146009803464B4402933133F7180E
:10F5A00006EB0903002867D05A4202F003028242A8
:10F5B00028BF02460628019200F2CF800146184675
:10F5C000012900F8015B00F0C68002295D7003F19B
:10F5D000020000F0C08003299D7003F1030000F0D9
:10F5E000BA800429DD7003F1040000F0B48006291C
:10F5F0001D7103F1050040F0B7805D71981D019108
:10F60000009A8A4236D0521AA2F1040E0392009A4E
:10F6100002F1FF3C4FEA9E0EACEB010C0EF1010E25
:10F62000BCF1020F4FEA8E0817D949444FF0203C35
:10F63000BEF1010F06EB010946F801C006D0BEF18C
:10F64000020FC9F804C001D0C9F808C0019A4244A9
:10F650000192039A424540440CD0019A0570511C16
:10F66000009A914206D21146019A457002328A42AE
:10F6700000D28570009A1344DA1C781C03F1330C15
:10F68000DDF848810CE002F8035C02F8025C02F845
:10F69000015C0332624500F8015C00F1010034D0E6
:10F6A000A345F0D9A24588BF509902F8015C96BFE6
:10F6B000A4EB0A01095D18F801104FEA211E5FFA58
:10F6C0008EF9BEF1090F01F00F0ED4BF09F1300918
:10F6D00009F13709BEF1090F02F8039C94BF0EF13E
:10F6E000300E0EF1370EA1F1200902F802ECB9F14B
:10F6F0005E0F02F1030288BF2E21624500F8011C53
:10F7000004F1010400F10100CAD102990D2201F1B6
:10F7100043094FF00A083A7487F81180002783F8EC
:10F7200030504B46B9461F463A4606EB09010020C9
:10F730000EF0F4F981443F1A10B9B8F1010801D074
:10F74000002FF1D15C454FF00009FFF423AF2046B4
:10F7500047B0BDE8F08F019152E71146002A7FF4CF
:10F760002EAF1846009A4EE70522019248E7194B42
:10F7700093E8030006AE04908DF81410042204A947
:10F7800030461FF0E4F9DBF80020134907A81FF00A
:10F7900003FA0028DBDB041D0A23351900933846E1
:10F7A0001FF026FAC22828BFC220804642463946AA
:10F7B00028461FF0CCF908EB04031A460024E4E6BF
:10F7C0001BB906AE35460094E9E700910A4606AE3D
:10F7D000DBE600BFD4F40300CCF403002DE9F041D4
:10F7E0009046C6B01F4611B3564B0C4693E8030033
:10F7F00006AE04908DF81410042204A930461FF0C0
:10F80000A6F92268504907A81FF0C6F900280ADBAC
:10F810004C9B051D062B00F29380DFE803F01333A9
:10F820003A424C586600002046B0BDE8F0814C9B3F
:10F83000062B00F28380DFE803F004717477686BB5
:10F840006E004C9D40461FF0D3F94319FF2B044630
:10F850006DD9002CE7DB2C44B4F5807FE3D80A2770
:10F86000002506AE2246711900200EF057F9054416
:10F87000241A08B9013F01D0002CF3D1012046B071
:10F88000BDE8F08170193A6841461FF085F90446D9
:10F89000DFE77019414697E80C001FF07DF9044638
:10F8A000D7E77019B96897E80C00009141461FF03E
:10F8B00073F90446CDE77019F968BC6897E80C0045
:10F8C0000191009441461FF067F90446C1E77019A1
:10F8D000BC68FE68396997E80C0002918DE8500019
:10F8E00041461FF059F90446B3E770197C6939693C
:10F8F00097E80C000394BC68FE6802918DE8500004
:10F9000041461FF049F90446A3E706A80025D3E7BE
:10F9100006A80025DCE706A80025E7E706A80025DD
:10F92000B1E706A80025B5E706A80025BAE706AEA8
:10F930004146701922461FF00AF98AE700248EE733
:10F94000002488E7D4F40300CCF4030070B50F4D15
:10F950002B7882B01BB10E4B1B78834212D001264C
:10F96000044600964FF480730A4A0B4900200EF0BB
:10F9700083FA10B1082002B070BD054B2E701C70C8
:10F9800002B070BD002002B070BD00BF8522002013
:10F990008422002088220020C4F40300004870471D
:10F9A000DDF701000048704765F5010070B5C8B18A
:10F9B00004460020FFF7CAFF054608B1284670BD7F
:10F9C000FFF7ECFF0646FFF7EDFF084BFF22C3F8F9
:10F9D0001404C3F810641D605D60C3F80C449A60A1
:10F9E000284670BD0725284670BD00BF882300202B
:10F9F0000120FFF7ABBF00BF2DE9F04383B002AB9E
:10FA00004FF0000903F8019D2C4C804618460F4624
:10FA1000A668256801F062F994E80C00A1680B441F
:10FA200001339B1A032B26D8012B1DD901204B46ED
:10FA300060F3010369F38203052001EA020560F324
:10FA4000C5031F4ED4F80C0404EB850569F3891334
:10FA500066F39F23961CEB602660013202EA0105E3
:10FA6000804704EB8504E0609DF8070001F05CF935
:10FA700003B0BDE8F08302329DF80700226001F078
:10FA800053F90122002362F3010369F3820306EABA
:10FA9000050268F3C50304EB820269F3891367F377
:10FAA0009F23D3600135D4F80C342E40984704EBE3
:10FAB0008604E06003B0BDE8F08300BF8823002027
:10FAC000DCF403002DE9F04782B002AB4FF0000AEE
:10FAD00003F801AD304C8146184688461746A668A3
:10FAE000256801F0FBF894E80C00A1680B44013391
:10FAF0009B1A042B26D8012B1DD90120534660F3F5
:10FB000001036AF38203052001EA020560F3C503DD
:10FB1000224ED4F80C0404EB85056AF3891366F3CE
:10FB20009F23961CEB602660013202EA01058047A4
:10FB300004EB8504E0609DF8070001F0F5F802B0E1
:10FB4000BDE8F08703329DF80700226001F0ECF871
:10FB50000121002361F301036AF3820306EA05022F
:10FB600069F3C50304EB820261F3891368F39F23F1
:10FB7000D36005EB0108D4F80C340235984708EA45
:10FB800006082E4004EB880804EB8604C8F80C0035
:10FB9000E76002B0BDE8F08788230020DCF40300B2
:10FBA0002DE9F04F83B002AD002605F8016D344C0D
:10FBB000834628468A4691469846A768256801F0FC
:10FBC0008DF894E80C00A1680B4401339B1A052BB7
:10FBD00026D8012B1DD90120334660F3010366F3BB
:10FBE0008203052001EA020560F3C503254FD4F81E
:10FBF0000C0466F3891304EB850567F39F23961CB9
:10FC0000EB600132266002EA0105804704EB8501C2
:10FC1000C8609DF8070001F087F803B0BDE8F08FD9
:10FC200004329DF80700226001F07EF801220023D3
:10FC300062F3010366F38203022107EA05026BF314
:10FC4000C50304EB820261F389136AF39F23D36037
:10FC5000D4F80C3498476E1CAB1C03353E403B4037
:10FC60002F4004EB860604EB830304EB8704F0606B
:10FC7000C3F80C90C4F80C8003B0BDE8F08F00BF4F
:10FC800088230020DCF403002DE9F04F83B00DF150
:10FC9000080E00270EF8017D364C834670468A46D2
:10FCA00091469846A668256801F018F894E80C007B
:10FCB000A1680B4401339B1A062B26D8012B1DD9B2
:10FCC00001203B4660F3010367F38203052001EA4C
:10FCD000020560F3C503284ED4F80C0404EB850537
:10FCE00067F3891366F39F23961CEB60013226604D
:10FCF00002EA0105804704EB8501C8609DF8070012
:10FD000001F012F803B0BDE8F08F05329DF807004E
:10FD1000226001F009F80122002362F3010367F376
:10FD20008203032106EA05026BF3C50304EB82029A
:10FD300061F389136AF39F23D360D4F80C34984796
:10FD40006F1CAA1CEB1C37403240334004EB870782
:10FD500004EB820204EB830304352E40F86004EBCD
:10FD60008604C2F80C90C3F80C800C9BE36003B0CF
:10FD7000BDE8F08F88230020DCF403002DE9F04774
:10FD8000554E7068326882428AB000F08780D6F89B
:10FD900008E00EEA0005023506EB850201305468E2
:10FDA000E2B212F003030FD1C4F3891303EB9453AF
:10FDB00003440EEA0305023506EB8502581C54681D
:10FDC000E2B212F00303EFD052075DBF00EA0E016A
:10FDD000033106EB81010021022B00F101082AD03A
:10FDE000C4F38312C4F3952904AB7AB1551C04AB58
:10FDF00028449C46454605EA0E0706EB8707013571
:10FE0000FF684CF8047B8542F5D190440092C4F31E
:10FE1000C2004A46D6F81044A04748B1C6F804804C
:10FE20003068B0EB080018BF01200AB0BDE8F087C9
:10FE3000D6F80480F4E700F102092EEA09000EEA80
:10FE40000808013006EB880880004FEA945A824582
:10FE5000D8F80C20C4F3891324D998B30EEA090703
:10FE60005FFA80FE0337AAEB0E00DFF870C006EBE6
:10FE70008707C0B203908DE88040CDF808C0D6F85F
:10FE80001474C4F3C200B847504520D006EB850572
:10FE900060F38F146C60D6F80480C1E700200AB0CC
:10FEA000BDE8F0870EEA0900033006EB800000276A
:10FEB0008DE8010403970297C4F3C200D6F81474C6
:10FEC000B847E1E784465FFA8AFE044FD2E7033081
:10FED00009EB9008A2E700BF8823002094230020AC
:10FEE0002DE9F84F254B93F800E0BEF1000F31D01B
:10FEF000DFF88CB0DFF88CA0DFF88C9000240127AD
:10FF000003E00134E4B2744524D226B2DBF8005099
:10FF1000DAF8003015F8360007FA00F1194205EB5F
:10FF2000C608EED023EA0103CAF8003003F072F9E4
:10FF300015F83660D9F8003007FA06F52B4000FABC
:10FF400006F18B4208D00D4B013493F800E0E4B287
:10FF50007445DAD3BDE8F88FD8F80430002BF2D01E
:10FF600098F80110A1F10101B1FA81F14909091ACA
:10FF7000B1FA81F1490930469847E4E7A02700200B
:10FF8000D0270020CC270020C827002070B50646C7
:10FF9000114800F041FE40B9104D01242B68B440D7
:10FFA0001C4203D023EA04042C6070BD304603F0E9
:10FFB00031F90B4E326860B122432B680949326037
:10FFC0001C432C60044809680022BDE8704000F022
:10FFD000CBBD22EA0402F0E7A8270020CC270020AE
:10FFE000C8270020A4270020042A01D80720704732
:10FFF0002DE9F04182B088460546174602F0DEFF43
:020000022000DC
:10000000002836D01D4C1E481E491F4A1F4B256034
:10001000002608F1FF3480F800800F6016601E6033
:10002000E4B2B8F1000F1ED0DFF86C80032701E0C6
:10003000FF2C18D023B205EBC30215F833009378D8
:100040008DF80470424601A98DF806608DF80760AE
:100050008DF8053002F0BCFF013CE4B20028E7D087
:1000600002B0BDE8F0810A4A0A48002100F06AFDAA
:10007000F6E702F061FF0028C4D0F1E7D0270020A6
:10008000A0270020A4270020C8270020CC2700207C
:10009000E1FE0100F0F403008DFF010070B5084D92
:1000A0002B785BB1074E00243368012113F834002C
:1000B00003F04EF82B780134A342F5D8002070BD30
:1000C000A0270020D027002000B585B0ADF804108F
:1000D0000292039001AA002144F2010005F0DEF82B
:1000E00005B05DF804FB00BF12F0030301D0072048
:1000F0007047F0B4094D0A4F2B700A4D3A604C1C02
:100100002B70094F094D0A4E3880E400A4B22244F6
:10011000298032601846F0BC704700BFD427002009
:10012000DC270020E4270020E0270020E227002031
:10013000D82700202DE9F0472C4D2B888B4282B028
:1001400003D2092002B0BDE8F087064602A84FF0AE
:10015000000800F8018D17460C4600F0BFFD244B47
:10016000244A2548197813780088DBB2834238BFC7
:100170000133C9B238BF5FFA83F841451FD092F806
:1001800000801378DFF87890DBB2984286BF0133A5
:10019000DBB200235FFA88F89DF80700137000F0C7
:1001A000C3FDD9F800300FFA88F24FEAC20A43F8CB
:1001B0003270534406B144B900209880C2E79DF8DC
:1001C000070000F0B1FD0420BCE70C4B28881B6839
:1001D000314608FB003022461EF0B9FCD9F8003049
:1001E0009A440020AAF80440ACE700BFE0270020B2
:1001F000E4270020D4270020E2270020D827002071
:10020000DC2700202DE9F047174C184D22782B7879
:100210009A4226D0DFF85C90DFF85C80144FDFF85C
:100220005CA02378D9F800203888D8F80060DBB2C9
:100230000FFA83FC02EBCC0103FB0060898852F8C3
:100240003C3098472378BAF80020DBB29A4203F199
:1002500001038CBFDBB20023237022782B789A42F3
:10026000DFD1BDE8F08700BFE4270020D4270020BD
:10027000E0270020DC270020D8270020E2270020EC
:100280002DE9F0472A4A2B4B0025C2F84051C2F80D
:100290004451C2F84851C2F84C51C2F80051C2F85A
:1002A00004511B682BB32449D2F804450A68234E35
:1002B000DFF89C90A41A1A6824F07F44A242A84652
:1002C00009D8197CDF69A41A1544A1B91FB13B46AE
:1002D0001A68A242F5D91A491A4A0B7812789A423A
:1002E0001ED01949194A41F823504FF48013C2F81F
:1002F0000031BDE8F087D3F814A083F8108032688D
:100300009B695046194642B190470028DED04A46C4
:100310004FF4A771FFF7D8FED8E71846D047D5E7C6
:10032000531CDBB2022B08BF00230B70D9E700BFC0
:10033000001001400828002004280020E8270020A1
:100340000128002000280020F827002000E100E01C
:10035000F4F403002DE9F04FA34AA4491378097877
:10036000A348994289B0D0F800B000F0E58001338D
:10037000DBB2022B08BF002313709E4A52F82360A1
:100380009B4A0BEB060323F07F4313600123059385
:10039000994B93F80090994BD3F800A0964B5C785A
:1003A0005B680393944B9B780293954B1B78049363
:1003B0008F4B00271B680693CC465546D646B84659
:1003C00001973B460097A44523D00CEB4C020398C1
:1003D000029F10F832100CF1010C5FFA8CFCBC4546
:1003E00008BF4FF0000C022900EBC2027BD00329AA
:1003F000E9D1BEF1000FE6D0DEF81C208EF81030F7
:100400009646002AF8D11546A4454FF00102009205
:10041000DBD1019B009F002B40F0A380B8F1000FBF
:1004200002D0734B069A1A600FB1744B1D60059B86
:10043000002B40F0C281BAEB0E0318BF01230593D5
:1004400000250023019304931F466D4BDFF8B4B1E0
:100450001B780693664BD3F80080684B1B680093AB
:1004600076464FF0010A35B36A68A9682B46ED69F4
:10047000A2EB080020F07F40584577D8014419606E
:100480005F609F6083F810A0DF61002E00F08E8017
:100490003068884280F08280344603E010688842E9
:1004A0006DD21446E269091A002AF7D11960DA619F
:1004B000E361002DD8D1039909EB490309F1010249
:1004C000CC4501EBC3045FFA82F900F09D8011F87E
:1004D0003300029B4B4508BF4FF0000901286AD04A
:1004E00001230493E8E75068BEF1000F3FF46BAFBF
:1004F0007045714617D0009F02E0904205D011462A
:10050000CA69002AF9D100975DE7884200970BD0AD
:10051000C2690068CA61002A3FF455AF11680144FE
:100520001160AE464FE77046DEF81C20964632B1A9
:10053000154601220092EBE70026059628E702F116
:10054000804202F588324FF00108C2F808807546F3
:10055000CDF818E0CDF80080CDF80480CDF81080FB
:10056000D6E7274B9DF810201A7057E7A8EB020238
:1005700022F07F428A4208D2891A196080E7401A25
:1005800010601960DA61E36193E71F605F609F604C
:1005900083F810A0DF614EB130680021411A31604C
:1005A0000093DE611E46012301935CE700931E4623
:1005B0000123019357E763681A7C0492002A7FF4B1
:1005C0007BAFA2685A60E168996007902069D860A3
:1005D00064699C61069C002C00F0EC80049A5A60CF
:1005E0000494002244E700BF0028002001280020D6
:1005F00004280020F8270020EC27002008280020ED
:10060000F4270020FEFF7F00049B002B40F0A68112
:10061000019B13B1804B009A1A60764500F0C080B0
:10062000002E00F007817D4A7D49D2F804050C7840
:100630003668A0EB080323F07F430333002C50D12E
:10064000784CDFF8E8E1784F4FF48035C2F8445336
:10065000C2F804534FF40035C4F8805125600124DA
:100660001460DEF800502F2200BF00BF00BF00BFA3
:1006700000BF00BF00BF00BFBD422FD000BF00BF02
:1006800000BF00BF00BF00BF00BF00BF00BF00BF72
:1006900000BF00BF00BF00BF00BF00BF00BF00BF62
:1006A00000BF00BF00BF00BF00BF00BF00BF00BF52
:1006B00000BF00BF00BF00BF00BF00BF00BF00BF42
:1006C00000BF00BF00BF00BF00BF00BF00BF00BF32
:1006D00000BF00BF00BF00BF00BF00BF013AC3D1D1
:1006E0000C709E422CBF08EB060343444B4923F099
:1006F0007F43C1F84035D1F80425121A1B1A22F0A5
:100700007F4223F07F4303329A424DD9D1F804351A
:10071000464AC1F84035126843492F2300BF00BF45
:1007200000BF00BF00BF00BF00BF00BF8A422FD084
:1007300000BF00BF00BF00BF00BF00BF00BF00BFC1
:1007400000BF00BF00BF00BF00BF00BF00BF00BFB1
:1007500000BF00BF00BF00BF00BF00BF00BF00BFA1
:1007600000BF00BF00BF00BF00BF00BF00BF00BF91
:1007700000BF00BF00BF00BF00BF00BF00BF00BF81
:1007800000BF00BF00BF00BF00BF00BF00BF00BF71
:10079000013BC3D1234B4FF40032C3F8002103E0E7
:1007A000059B002B7FF43CAF214A0023137009B056
:1007B000BDE8F08F079804905AE6174B002477465F
:1007C0002546214620461B68DDF814E0A7B13A68AB
:1007D000B24218D8FC683860B61A1144FB693CB1C3
:1007E0000BEB010222F07F42FD61BC607A603D4666
:1007F0001F467446002FEAD1BE46002C3FF421AEBE
:10080000054A13601DE6BE46002C40F0A480921BF2
:10081000CEF8002015E600BF082800200010014097
:10082000F527002000E100E00024F400FC21002076
:10083000F42700204B4A4C4B4C4D4D484FF480312F
:100840004FF400370124C3F88070C2F848132F23F7
:10085000C2F80813546029681D4600BF00BF00BFDE
:1008600000BF00BF00BF00BF00BF81422FD000BF4C
:1008700000BF00BF00BF00BF00BF00BF00BF00BF80
:1008800000BF00BF00BF00BF00BF00BF00BF00BF70
:1008900000BF00BF00BF00BF00BF00BF00BF00BF60
:1008A00000BF00BF00BF00BF00BF00BF00BF00BF50
:1008B00000BF00BF00BF00BF00BF00BF00BF00BF40
:1008C00000BF00BF00BF00BF00BF00BF00BF013DB1
:1008D000C3D19460274A166000BF00BF00BF00BFAD
:1008E00000BF00BF00BF00BF81422FD000BF00BFCC
:1008F00000BF00BF00BF00BF00BF00BF00BF00BF00
:1009000000BF00BF00BF00BF00BF00BF00BF00BFEF
:1009100000BF00BF00BF00BF00BF00BF00BF00BFDF
:1009200000BF00BF00BF00BF00BF00BF00BF00BFCF
:1009300000BF00BF00BF00BF00BF00BF00BF00BFBF
:1009400000BF00BF00BF00BF00BF00BF013BC3D15D
:10095000094B1E7028E709490B6058E7084B83F8DC
:1009600000C055E60010014000E100E0FC2100203D
:100970000024F40004280020F52700200828002087
:10098000EC2700202DE9F04712F0030402D00720E5
:10099000BDE8F087002AFAD05F4D604EDFF88891FD
:1009A000DFF888C14FF4803E4FF400374FF0010864
:1009B000C6F88070C5F848E32F27C5F808E3C5F8E6
:1009C0000480D9F800E0B94600BF00BF00BF00BFF7
:1009D00000BF00BF00BF00BFE6452FD000BF00BF73
:1009E00000BF00BF00BF00BF00BF00BF00BF00BF0F
:1009F00000BF00BF00BF00BF00BF00BF00BF00BFFF
:100A000000BF00BF00BF00BF00BF00BF00BF00BFEE
:100A100000BF00BF00BF00BF00BF00BF00BF00BFDE
:100A200000BF00BF00BF00BF00BF00BF00BF00BFCE
:100A300000BF00BF00BF00BF00BF00BFB9F1010988
:100A4000C2D1C5F8088000BF00BF00BF00BF00BF13
:100A500000BF00BF00BFE6452FD000BF00BF00BFF2
:100A600000BF00BF00BF00BF00BF00BF00BF00BF8E
:100A700000BF00BF00BF00BF00BF00BF00BF00BF7E
:100A800000BF00BF00BF00BF00BF00BF00BF00BF6E
:100A900000BF00BF00BF00BF00BF00BF00BF00BF5E
:100AA00000BF00BF00BF00BF00BF00BF00BF00BF4E
:100AB00000BF00BF00BF00BF00BF013FC3D1DFF8D0
:100AC00070E0DFF870A0164FDFF86C90DFF86C80F4
:100AD000DFF86CC08EF80040CAF800304FF4801E7A
:100AE000C023B9703C707C70C9F8004088F80040A1
:100AF0008CF800400B49C6F880E186F81433C6F83C
:100B000000E0C5F8080586F81133D5F804350B6008
:100B10007A602046BDE8F0870010014000E100E067
:100B2000EC27002004280020FC2100200024F400F1
:100B3000F5270020E82700200828002000280020B2
:100B400001280020074B5B6823B12AB120B103685C
:100B5000187C18B1082070470720704759745A61F3
:100B6000704700BFEC2700202DE9F043274C636855
:100B700083B033B128B1042907D8072003B0BDE8FA
:100B8000F083082003B0BDE8F0834369002BF8D060
:100B9000054602A86B7C0026012B00F8016D0CBFF6
:100BA0008946B14690460F4600F098F86378A078E1
:100BB00021785A1CD2B2904208BF324691421FD0CF
:100BC00003EB43036068DB00C11819D04FF0010E3E
:100BD00000F803E00E4B4D60D3F804358B609DF8B0
:100BE0000700CF60C1F81090C1F81480627000F067
:100BF0009BF8084B4FF480123046C3F80021C1E740
:100C00009DF8070000F090F80420BBE7EC270020D7
:100C10000010014000E100E0F0B51C4E736883B0A5
:100C200053B348B343693BB3054602A8002400F818
:100C3000014D2C7400F052F87378B07831785A1C5A
:100C4000D2B2904208BF2246914218D003EB430330
:100C50007168DB00CF1812D00220C8547D609DF867
:100C60000700727000F060F8094B4FF480122046C4
:100C7000C3F8002103B0F0BD082003B0F0BD9DF81B
:100C8000070000F051F80420F7E700BFEC27002030
:100C900000E100E0411A21F07F411160002070471F
:100CA000082910B5044604D0044A14210020FFF797
:100CB0000BFA23686068BDE81040184730F5030060
:100CC00000B583B08DE80300034A08216846FFF7AA
:100CD00031FA03B05DF804FBA10C020070B4EFF32D
:100CE000108472B60D4B9A68AAB90D490D4E0125B4
:100CF0009D60D1F8805035401D60C1F88060D1F80A
:100D000084505D604FF0FF33C1F88430027004B945
:100D100062B670BC704701230370F8E7EC46002010
:100D200000E100E0FC06FFBC094B9A6872B168B9AB
:100D300010B4EFF3108272B606491C680C605C6850
:100D40004C60986002B962B65DF8044B704700BF12
:100D5000EC46002000E100E0F0B52B4C2B4F626820
:100D6000668883B0002A48D036015388B919033306
:100D7000496802EB830201F58050824225D2136854
:100D8000013318BF4FF6FF751FD09388AB4213D0C5
:100D900013888BB162601E485388868801681D489D
:100DA0000025033300959BB201EB860103252570D6
:100DB00001F048FA03B0F0BD5388033302EB83021D
:100DC000824202D213680133DFD13E44B38963B15A
:100DD0000F4D104829680227052600230122AF8005
:100DE000267001F085FA03B0F0BD0122094801F038
:100DF0007FFA0423237003B0F0BD3601BB19596894
:100E000001F10802B7E700BF842800201029002064
:100E10003029002058220020F0B543688E464BB19F
:100E2000324A1468A34205D35268934202D813F0A1
:100E300003023AD000232E4EAEF800304FF0010CE2
:100E40004FF6FF757768002307F5805453B35A882F
:100E5000033203EB82039C4217D91A68013214D083
:100E60009A88AA420BD01A884AB1026899689142BE
:100E7000ECD1204A4360138903810120F0BD5A88D8
:100E8000033203EB8203A342E7D30CF10103AEF874
:100E900000C01FFA83FCBCF1030F06F11006D1D18C
:100EA0000020F0BD07F10803D5E7124C058924891D
:100EB000A542BFD105689C68A542BBD10C4C6068B7
:100EC000834205D900F58050834201D2134608E0E1
:100ED00062699342E4D902F58052934238BF0123FC
:100EE000DED2AEF800300120F0BD00BF5822002055
:100EF0001029002084280020B3F804C0BCF1010FA1
:100F000053D82DE9F0419046294A4FF6FF7702EB7E
:100F10000C1E00229EF80040002C33D11C68002CCF
:100F20003ED06588DEF80460033504EB850406F5E1
:100F30008056B44225D22568013522D0A588BD420D
:100F400019D02588BDB11C6018B1A6880588AE42AD
:100F5000E5D119B126880D88AE42E0D1A268C8F863
:100F600000201A68134BC8F804201B89A8F8083021
:100F70000020BDE8F0816588033504EB8504B442A8
:100F8000D9D31A600CF1010C1FFA8CFCBCF1020FD2
:100F9000A3F804C00EF1100EBCD10A20BDE8F08108
:100FA000DEF8046006F10804C1E70A20704700BFBC
:100FB00010290020842800202DE9F04FA94C256F2E
:100FC000EF007E1BB6008BB0A25D013A824604EBB7
:100FD0000609052A31D8DFE802F05C3E3E1D1D03FC
:100FE000002840F0D580DFF8908298F80C30002B74
:100FF00000F00A8398F8003088F80C00013B062BBB
:101000001BD8DFE813F00601BC02CE01AF011A00C5
:10101000ED02C802002840F0BB80A7EB050B04EBF3
:101020008B0B9BF80480B8F1010F00F04883C0F0EF
:101030003183B8F1020F00F011810F23A15D0693F7
:101040008B1E012B40F2AB80052A33D8DFE802F07B
:101050002F80695D938F7B1B04EB83038249B3F878
:10106000128001EB0818002840F0AA80B8F808A008
:10107000D8F804101B7C01EB8A0A062B00F28C8343
:10108000DFE813F0A701EA01D301300219020702D9
:101090000402002840F08D8099F80430032B00F200
:1010A0000681DFE813F03F014C012F010B01002303
:1010B0008DF814306D4D05F1200655F8043F0BB145
:1010C00005A89847B542F8D1206FC0EBC00004EBEB
:1010D00080001C220021FEF73BFA636F3BB1226FB8
:1010E0000132013B02F00302636722673BB9604AA9
:1010F000137823F0040313700BB0BDE8F08F0020C9
:10110000FFF75AFF0BB0BDE8F08F7B1B04EB8303A6
:101110000322D3F80610DB68089107938DF814209A
:10112000C8E77B1B04EB830302211A7C1E899D8880
:10113000D868ADF82060A2F10603B3FA83F35B0927
:101140008DF82430ADF8225007908DF81410B1E7D7
:101150007B1B04EB8303012218899988DB68ADF8B7
:101160002000ADF8221007938DF81420A2E7052384
:101170008DF814309EE77B1B04EB83030422DB888D
:10118000ADF8203000238DF81420ADF8223091E71F
:10119000A15D012306938B1E012B3FF655AF354B06
:1011A00099F81660186C596C3044891B186459649E
:1011B0004AE72F490B7823F001030B7001233DE729
:1011C000DB88B8F80AE0B8F80800C3F57F41FD31C4
:1011D000033303447144A8F80830A8F80A10012327
:1011E0002CE7214BB8F808101A781B7CB2FA82F26F
:1011F000B3FA83F352095B09013188F80A2088F8B1
:101200000B3000220123A8F8081088F80C2088F879
:10121000003098F80A304BB1134A9389002188F8BE
:101220000A101BB9927B002A40F0AD8298F80B306F
:101230004BB10D4B9A8B002188F80B101AB99B7F8C
:10124000002B40F09F827A1B002314F8222088F89C
:101250000030013AA8F80230C8F8043000230693A1
:10126000F2E600BF98280020102900201428002052
:101270008028002038280020842800204FF0010812
:101280004FEA08180AEB08034FF0000B5968CA4AE6
:10129000CDF800B00223C94800F0D4FF0AF808B026
:1012A00000283FF429AF7B1B14F82320013AC449DE
:1012B0000B7823F001030B700E23BFE6DFF80C83DD
:1012C000BD4AD8F80010BD484FF0000A0223CDF8FF
:1012D00000A000F0B7FFBB4BBB495B88D8F800E02B
:1012E00089F804A01B01CA1801F803A05368B8F8D4
:1012F0000410C8F800300223C2F804E01181A8F8F5
:101300000430CDE7DFF8C482AC48D8F800100023E1
:10131000012200F0EDFF02220023A8F8042089F842
:101320000430BDE7A94BAA4A1968A44800230093DA
:10133000022300F087FF012389F80430B0E7DFF8CB
:1013400088A29AF80030022B00F023829AF810301D
:10135000022B93D09A490B7843F0020323F0010348
:101360000B707BE7B8F80230974A02EB03129389BF
:10137000002B00F0E281954B9048196802229A8078
:101380000522002388F80020012200F0B1FF034667
:10139000002B3FF4B1AE1C2202FB05F2A25C013A25
:1013A0004CE68A48D8F80420D0F800E081885388B9
:1013B00082480EEB81014FF0000ECDF800E00333C0
:1013C0004FF0030E9BB288F800E000F03BFF0346AD
:1013D000DEE70023321D5146224400937748012363
:1013E00000F030FF7B1B9B00E218022111740028E3
:1013F0003FF482AEE25C0E23013A791B04EB8101DB
:10140000B8F80AC0C988B8F808E0C1F57F40FD30D7
:10141000033160447144A8F80A00A8F8081041F6A6
:101420001D518B423FF41AAF08E6002306F10C026F
:101430000AF10801224400936048012300F002FFF2
:101440007B1B9B00E218917D00290CBF0121032129
:1014500011740028CED14FE6002306F108020AF1EC
:101460000401224400935548012300F0EBFE7B1B4E
:101470009B00E118E25C032A0CBF052306230B74D2
:1014800000283FF439AE013A0E23B6E741F61D536A
:10149000B3E7504B504A5968484800230093012352
:1014A00000F0D0FE002840F03F817D1B04EB850456
:1014B0000623237420E6A7EB050B4FEA8B0B04EB06
:1014C0000B02444B92691A601846002205A95A6023
:1014D000FFF7A2FC00287FF47CAF14F80B200A234E
:1014E000013AABE5DFF8F4E0DEF844C0BCF1000FF0
:1014F00000F0F980DEF8401030485EF83120A7EBAC
:10150000050B04EB8B0B0EEBC103013101F007015E
:10151000CEF840100CF1FF3CBBF81410CEF844C0DC
:101520004FF0000E03930AEB81019B88CDF800E099
:1015300000F088FE039A9BF816309188BBF81420BF
:10154000013B0A44DBB2ABF814208BF8163013B918
:1015500001238BF8103000283FF4CEAD7A1B0E2308
:1015600014F82220013A48E7184AD8F80410938862
:10157000498803330B440221938088F80010FFF759
:10158000EBFB0346002B3FF4B7AD1C2202FB05F238
:10159000A25C013A43E70D4B0D4A19680748002346
:1015A0000093C8F80430072388F80030022300F0C5
:1015B00049FE0346ECE600BF74F503005822002004
:1015C00080280020842800201029002030290020B5
:1015D0007CF503000C28002070F50300382800205B
:1015E000B8F80230DFF8CCA11B019A440620002392
:1015F000DAF80410694A0093022388F8000068486A
:1016000000F020FE0346C3E698F80030072B2CD8E4
:1016100001A151F823F000BFE31102006B16020094
:101620006B160200691502004116020097150200B0
:101630009715020039160200012388F80030E8E50A
:10164000B8F80230DFF86CA1564A1B010AEB03011F
:101650001068D1F804C0B2F804E048600220C2F873
:1016600000C0A1F808E09080BFE7013B062B3FF6E1
:10167000E4AC01A151F823F0131202007F1502001F
:10168000A3130200651302003B100200E1150200E3
:1016900097150200DBF80C30CDF818A005A80DF165
:1016A0001201CDF81CA00593FFF7B6FB00284ED120
:1016B0000A237A1B04EB82020221117168E63A4B7D
:1016C0001B789B0712D4022308220021374803937A
:1016D000FDF73EFF039B0A2B7FF454AF7B1B14F8EE
:1016E0002320013ABAE5DCF80030FFDEB01D2F4BB5
:1016F000204405AA5146FFF7FFFB03460028E3D12B
:1017000043462B4A0699CDF800A0254800F09AFDE3
:10171000264B284A9B8802EB031200280CBF534635
:101720000E2382F80E80D6E77B1B9B00E118E25C5B
:1017300006230B74013A0E235FE651681848012214
:1017400000F0D6FD0422034688F8002020E6069922
:10175000174A8B88ABF806300888CDF800A0012323
:10176000ABF808000E4800F06DFDBDF81230114ACC
:1017700002EB031200284FF0010114BF0E230023D7
:10178000917396E70123A8F80230FFF7E5FA0346C4
:10179000F8E64FF0000873E50F232EE674F503001A
:1017A0005822002030290020802800203C290020D9
:1017B00070F50300102900200846FFF7FDBB00BFAD
:1017C0002DE9F04F0D894C6885B00646002D00F0DC
:1017D000AB80206810F0030005D091E054F8307021
:1017E000BF0740F08D8001308542F7D1002A00F01C
:1017F0008B80B2F800A05288644FDFF8A08138686F
:10180000D8F87490032B00F1010E03BF30680390E9
:101810004FF0040B4FF0000BB9F1030FC7F800E0D5
:101820005FD8DFF87CC1DCF84400C5F10807B84296
:1018300057D8D8F8707002970F884988019102999B
:101840000097494401F00301C1EBC101890008EB95
:10185000010708F80130FA80BDF800203A81039AA8
:10186000BA6109F101090023BDF80410B9804FF0F5
:101870000302C7F80CE087F810B0A7F812A0BD75F6
:10188000BA827B81C8F87490DDB1DCF84020024454
:1018900002F007020CEBC2020CF1380804EBC301A2
:1018A00003C9013302F1080782E80300424514BF6F
:1018B0003A4662469D42F1D1DCF844302B44CCF8E4
:1018C00044303EB10023324AC6F800E0736012890A
:1018D000B37232812F4A137813F0040442D00020EF
:1018E0000BE02D4B03EB0A1AC2F57F42BAF80A301F
:1018F000FD321A44AAF80A20082005B0BDE8F08F8E
:10190000032005B0BDE8F08F04EBC505A0880834BE
:101910000244A54292B2F9D1D01C80B240F2FD340B
:10192000A04205D90920E8E7002A7FF462AF03202E
:10193000194C94F800A0BAF1000F07D167892589E6
:101940003D440544ADB2B5F5806F1DD3257C3DB94E
:10195000678B258B3D440544ADB2B5F5806F09D347
:101960000720CAE743F0040320461370FFF724FB67
:101970002046C2E74FF0010A554604EB05143844EF
:1019800060810D894C6837E75546F6E794280020BA
:10199000842800208028002010290020982800207A
:1019A00038280020074A1378082B09D010B4591C96
:1019B000054C117044F8230000205DF8044B70477B
:1019C0000C20704738290020182800202DE9F04FFE
:1019D000B04B8BB01A7800230693059307930893B6
:1019E000099393070DD5AC4C04F1200554F8043F3E
:1019F00005A803B19847A542F8D100200BB0BDE877
:101A0000F08F12F00106F8D1A24B42F001021A70D9
:101A100000F0BCFBA14BDFF8A4C21968A04B0196F3
:101A20001D6801F54053083301F5805000930831DB
:101A3000B046B34651F8083C9A4A9342A1F10804D3
:101A400028D0A1F10C0301F6F47E02E0734500F00A
:101A5000FD8053F8042F0132F8D04FEA0813924A60
:101A60004FF0030408F10108D4541FFA88F8009BD2
:101A700001F58051994200F58050DBD1DA46002E05
:101A800040F00581BAF1000F40F08A800B200BB0C6
:101A9000BDE8F08F51F8043C844A934243D00132B0
:101AA0009342CED1019B93B17F4B7F4F4FEA0819F0
:101AB00003EB09024FF0020E08F10108DCF80030D8
:101AC00007F809E01FFA88F85360A2F808E002223C
:101AD000CCF80040ACF804200B68013300F0B4806F
:101AE00014464FF6FF7E0A4602E01368013313D016
:101AF0009388734506D0138823B19368AB4201D90C
:101B00001D460126538803331C4402EB8302A4B212
:101B10009042ACF80440E8D8022C00F095800823ED
:101B20004BEA030BA3E7604F4FEA081307EB030EE2
:101B30004FF00009022207F80390CEF80440AEF8F7
:101B4000082002930B6801331ED00B464FF6FF7A34
:101B500011E09C68AC4201D9254601265C8803341B
:101B6000224403EB840392B29842AEF808200BD9CA
:101B70001C68013408D09C88544502D01C88002C75
:101B8000E7D14FF00109E9E7029B474A134408F106
:101B9000010883F80E901FFA88F84BF0020B66E7F5
:101BA000BAF1060F5FFA8AF30AD0013B0A2B1CD860
:101BB000DFE803F0191B191B441B441B414741007C
:101BC000344B354C1B78334A43F0020323F00103B6
:101BD000137004F1200554F8043F05A803B1984799
:101BE000A542F8D109E700230393314A516F032935
:101BF00012D8304B5B6C082B0ED8136F0B4403F0DC
:101C00000303C3EBC3039B00D0180124D454013158
:101C10009DF80C30037151671E4B1B7813F00404C0
:101C20007FF4EBAE1B4A43F0040320461370FFF72A
:101C3000C3F92046E2E603230393D6E70123039387
:101C4000D3E702230393D0E7042369E7DCF80030ED
:101C5000ABB1154A4FEA081302EB030E164ACEF851
:101C60000440114CA2F80280022208F10109E2545A
:101C70001FFA89F8AEF808204BF0010BF7E60223B3
:101C8000ACF804300123CCF800400193F4E7044B96
:101C90001D60F7E68028002014280020582200202C
:101CA00094280020DEC0ADDE10290020FE011EF1C8
:101CB000982800203828002084280020302900207F
:101CC00060B159B130B583B00C460DF1060105463F
:101CD000FFF7A2F820B90A2003B030BD05207047F5
:101CE000BDF80620074B686803EB021301219A89AF
:101CF0000A449A8120606B6800200C336360A972EB
:101D000003B030BD1029002050B110B582B00DF1E4
:101D100006010446FFF780F820B90A2002B010BD82
:101D200005207047BDF80620084B03EB02139A8983
:101D300012B9062002B010BDA17A0029F9D0002105
:101D4000013A9A810846A172E8E700BF10290020F5
:101D50001D4B1B789B0702D402231846704740B1E5
:101D6000CB1C9BB240F2FD32934205D909231846A1
:101D7000704705231846704770B4144A157895B912
:101D80005689148934441C44A4B2B4F5806F0AD235
:101D90002C4602EB0412334453810580418000231A
:101DA000184670BC7047147C54B9568B148B34445D
:101DB0001C44A4B2B4F5806F02D201252C46E8E79A
:101DC0000723184670BC7047802800201029002087
:101DD000134B1B789B0702D4022318467047D0B1DF
:101DE0000388022B02D904231846704710B40D490A
:101DF000428801EB031359898C1A032C0DD4C2F5C8
:101E00007F42FD320A4400215A810B460160184688
:101E10005DF8044B70470523DFE70423F7E700BFB5
:101E200080280020102900200D4B1B789B0701D42F
:101E30000220704759B110B40C884FF6FF739C42D2
:101E400001D04B882BB904205DF8044B7047052066
:101E50007047022300225DF8044BFFF7B1BC00BFBE
:101E6000802800203AB130B40C4C2478A30704D465
:101E7000022030BC70470520704769B10D884FF6CD
:101E8000FF74A54201D04B8813B9042030BC7047C1
:101E9000022330BCFFF794BC0520EAE7802800202D
:101EA00028B10E4A1278930703D402207047052008
:101EB00070470029FBD010B40C884FF6FF72944293
:101EC00001D04B881BB904205DF8044B70470323F5
:101ED00000225DF8044BFFF773BC00BF8028002090
:101EE000F8B5194A1378990701D40220F8BD4FF6C6
:101EF000FF7188421BD0154C656F032D19D814490A
:101F0000496C082915D8216F294401F00301C1EB60
:101F1000C101890066180527675401350121F08049
:101F20003171656713F0040405D00020F8BD04206A
:101F3000F8BD0820F8BD43F0040320461370FFF7F6
:101F40003BF82046F8BD00BF8028002098280020DC
:101F500038280020F8B5164A1378990701D40220D2
:101F6000F8BD1448416F032918D8134C646C082C31
:101F700014D8046F114D0C4404F00304C4EBC404E2
:101F80002E780131062700F8247041670EB1012137
:101F9000297313F0040403D00020F8BD0820F8BD15
:101FA00043F0040320461370FFF706F82046F8BDFF
:101FB000802800209828002038280020842800202D
:101FC00010B50C4C82B0ADF806002078ADF80410C6
:101FD000810702D4022002B010BD3AB133B101A989
:101FE0000DF10600FEF788FF02B010BD052002B01B
:101FF00010BD00BF8028002000B50D4B83B0ADF8A8
:1020000006001878830703D4022003B05DF804FBB0
:1020100051B14AB1134600200A460DF10601FEF700
:102020006BFF03B05DF804FB052003B05DF804FB13
:102030008028002000B50D4B83B0ADF8060018785D
:10204000830703D4022003B05DF804FB51B14AB109
:1020500013460DF106000A460021FEF74DFF03B0BE
:102060005DF804FB052003B05DF804FB8028002028
:1020700020B119B103680B6000207047052070473C
:1020800029DF704728DF704770B50C4D696E042951
:1020900011D02B6E0B44032B88BF043B182202FB8C
:1020A000035406464B1C204600216B66FDF750FA90
:1020B0003460012070BD002070BD00BF48290020A1
:1020C00070B5304C636E84B07BB1266E7500AB1971
:1020D00004EBC3031A7A012A09D0022A26D198896F
:1020E000FFF7D0FF112818D000BB04B070BDA819AD
:1020F0009A8ADB8A04EBC000D21AC1680069B2F583
:10210000806F4FEA8303B4BF92B24FF480621944E8
:102110001844FFF7B5FF1128E6D11B4A137823F0C6
:10212000020343F00403137004B070BD102268462C
:102130000021FDF70DFAAB1904EBC3031A7A012A4B
:1021400017D0022A09D19A89DB89ADF80A20D21A60
:102150000123ADF808208DF800303544ED006219F8
:1021600063595268019268469B680921984704B0F8
:1021700070BD1A699B8A029200218DF80010ADF89B
:102180000C30EAE748290020442900202DE9F043DB
:102190004FF010235D696B1C48D0DFF8A48098F8DD
:1021A00000C01CF0010F3ED1234F2448C01B000982
:1021B00035D007EB00113B4686461A681AB15A68BB
:1021C0000AB10EF1FF3E10339942F6D1BEF1000F75
:1021D00025D0002600229146F4B23B4606E059681D
:1021E00039B10132904203F110030ED01968002971
:1021F000F5D1597B494588BFD4B202F1010288BFAD
:102200008946904203F11003F0D12401E31901360D
:102210001A7B5D60B645A5EB0235E551DAD14CF08D
:10222000010C88F800C00020BDE8F0834FF0805317
:102230005D692D03B1E700BF58220020682200200D
:10224000442900202DE9F041264D2C78E60782B084
:1022500012D510B1244CA04203D2022002B0BDE836
:10226000F081224CA042F8D252B149B142EA0104B5
:10227000A40707D00620F1E7012002B0BDE8F081F5
:102280000320EBE70468A14201D20520E6E7466897
:1022900001EB8304A642F8D30BB90420DEE78046A5
:1022A00001A81E4614460F46FFF7EEFE08B90720A8
:1022B000D4E701992B78C1F80080019A089848600A
:1022C0000121D46013F0060417619682117201D0C7
:1022D0000020C3E743F002032B70FFF7F1FE204616
:1022E000BCE700BF442900205822002068220020BB
:1022F0002DE9F041244D2C78E40782B010D510B1BF
:10230000224CA04203D2022002B0BDE8F081204C52
:10231000A042F8D241B1C1F30B043CB10620F3E76F
:10232000012002B0BDE8F0810320EDE70468A1427E
:1023300001D20520E8E7466801EB0234A642F8D353
:102340000AB90420E0E7804601A81E4614460F465D
:10235000FFF79AFE08B90720D6E701992B78C1F854
:102360000080019A4E600220390B148213F006049B
:102370009181107201D00020C6E703432B70FFF754
:102380009FFE2046C0E700BF4429002058220020BD
:102390006822002020B1034B5B6E03600020704771
:1023A00003207047482900202DE9F047B44FB54C71
:1023B0003B78256E990784B040F18180022800F0B7
:1023C000DD80032840F0D480AF4E33780133DBB298
:1023D000032B337040F2AF804FF0000A10225146B9
:1023E00068464FEA450886F800A0FDF7B1F808EB0B
:1023F000050304EBC303E9461A7A012A00F0F080D2
:10240000022A09D19A89DB89ADF80A20D21A012360
:10241000ADF808208DF800304544ED00621963598D
:10242000526801929B68484608219847626E013ABB
:102430006266002A40F00D81236E3978013321F065
:102440000201042B3970236640F08F800025256639
:102450008C4C2346002A00F088804FEA450808EBA0
:10246000050204EBC202117A012940D0022975D07D
:10247000102268460021FDF76BF808EB050304EB1A
:10248000C303E9461A7A012A00F08B80022A09D197
:102490009A89DB89ADF80A20D21A0123ADF8082009
:1024A0008DF800304544ED0062196359526801927D
:1024B00048469B680921984704B0BDE8F0875A0751
:1024C00039D5626E03F0FB033B70002A4DD043F018
:1024D00002024FEA45083A7008EB050204EBC2021B
:1024E00008EB0503117A012904EBC303BED1D08A9E
:1024F00008EB050304EBC3039A8A08EB050304EB1E
:10250000C303121AD9681B69B2F5806F4FEA8000C5
:10251000B4BF92B24FF4806201441844FFF7B0FD9B
:10252000112820D13B7823F0020343F004033B70D1
:1025300004B0BDE8F08705EB450304EBC303626E0E
:1025400088E7F389B289318A01339BB2013299421B
:10255000F381B2816CD0636E3BB133469889FFF74B
:1025600091FD1128DED0002882D104B0BDE8F087AB
:1025700005EB4503626E04EBC3036BE74FEA4508C6
:1025800008EB050304EBC3063F4A337A4FF0000A19
:10259000012B82F800A00DD0022BD2D03346626E00
:1025A00058E71A699B8A029200218DF80010ADF855
:1025B0000C3077E7F08AB18A0B1AB3F5806FB4BF9D
:1025C0009BB24FF4806308EB0502184480B204EB21
:1025D000C2068142F0820BD0636E002B88D1C4E723
:1025E0001A699B8A8DF800A00292ADF80C3013E7AF
:1025F000684610220021FCF7ABFF337A012BE94635
:1026000034D0022B09D1F289B389ADF80A309B1A74
:102610000122ADF808308DF8002008EB0503DB003F
:10262000E218E3585268019248469B680021FCE694
:10263000684610225146FCF78BFF337A012BE9469E
:10264000DFD13269B38A8DF800A00292ADF80C3068
:10265000E3E7256E0135042D25663FF4F7AE4FEA1A
:10266000450808EB050304EBC303F8E63269B38AB7
:10267000ADF80C3000218DF800100292CDE700BFBC
:102680004429002048290020B0290020C30711D484
:10269000810711D4420711D4030711D4C10611D404
:1026A000820611D4430611D4C3094FF6FF7018BF38
:1026B00007207047002070470120704702207047B4
:1026C000032070470420704705207047062070479C
:1026D000E8B1E1B110B40488944227D04488944210
:1026E00026D08488944225D0C488944224D004897A
:1026F000944223D04489944222D08489944207D0C2
:10270000C089904208BF072003D05DF8044B704792
:102710000620012223B10B78824013430B70F4E7AB
:102720000B78824023EA02030B70EEE70020F0E70B
:102730000120EEE70220ECE70320EAE70420E8E7C7
:102740000520E6E72DE9F0439DF81C4008B301B3EE
:10275000FAB105889D4200F0E88045889D4200F06E
:10276000EA8085889D4200F0E880C5889D4200F09F
:10277000E68005899D4200F0E48045899D4200F095
:10278000E28085899D4206D0C089984208BF072013
:1027900002D0BDE8F083062001238340DBB2002C89
:1027A0005FD14E4206F00306964228BF1646042A21
:1027B00000F2B28014460878DD43EDB22840012CC7
:1027C000087000F0B6804878022C00EA05004870D6
:1027D00000F0AF808878042C00EA0500887040F093
:1027E000B880C8780540CD702646A242D1D0A2EB71
:1027F000040EAEF10407551EBF082D1B0137022D34
:102800004FEA870C1AD9002563F3070563F30F25F8
:1028100063F31745081963F31F65ED43A0F104093D
:102820004FF0000859F8044F08F101082C40B84552
:1028300040F8044BF6D3E6456644AAD0D8438B5DF6
:10284000C0B2741C0340A2428B55A2D90D5DB31CCB
:1028500005409A420D557ED9CA5C1040C854BDE867
:10286000F083484200F00300904228BF1046042A3B
:1028700057D814460878012C40EA0300087056D057
:102880004878022C40EA0300487050D08878042C25
:1028900040EA030088705AD1C8781843C8702046AF
:1028A000A24252D0A2EB040EAEF10406551EB608A9
:1028B0002D1B0136022D4FEA86081AD94FF0000C65
:1028C00063F3070C63F30F2C0C4463F3174C63F3AF
:1028D0001F6CA4F10409002759F8045F01374CEA82
:1028E0000505BE4244F8045BF6D8C64540443FF4B3
:1028F00050AF0D5C441C1D43A2420D547FF649AFFE
:102900000D5D02301D4382420D557FF642AF0A5CD9
:1029100013430B54BDE8F083002E3FF468AF3446F8
:1029200049E704460028BDD0A4E7002034E720464C
:10293000B6E7264659E701202EE702202CE70320C0
:102940002AE7042028E7052026E7BDE8F0830320D6
:10295000A6E7032649E7BDE8F08300BFD0B10388AE
:1029600093421ED0438893421DD0838893421CD04B
:10297000C38893421BD0038993421AD04389934260
:1029800019D08389934206D0C389934208BF072098
:1029900002D000207047062041FA00F000F001004C
:1029A00070470020F8E70120F6E70220F4E7032053
:1029B000F2E70420F0E70520EEE700BF00293AD057
:1029C00012F0010330B402D00B88838001239507F5
:1029D00004D500EB43044D88A5800133540704D58A
:1029E00000EB43048D88A5800133150704D500EB67
:1029F0004304CD88A5800133D40604D500EB4304FD
:102A00000D89A5800133950604D500EB43044D895B
:102A1000A5800133540604D500EB43048D89A580BD
:102A20000133D20904D000EB4302C98991800133FC
:102A3000036030BC70470160704700BF0A7B4B6881
:102A400010B40C68002A0ABF23460022012202713A
:102A500003605DF8044B704710B40279034652B12D
:102A600048681C688A68011B914210D9A018186038
:102A70005DF8044B7047046808688A68211A91421F
:102A80000BD8012218601A715DF8044B70470022C0
:102A900018601A715DF8044B7047A01A18605DF851
:102AA000044B7047C0B2002388724B72704700BF5E
:102AB0002DE9F04184B004AE002306F80C3D044635
:102AC0000D463046FEF70AF91DB9E368002B40F0C9
:102AD0008C800025A84604F110071DE0597901F00B
:102AE00001018DF80410CDF80C808DF807509B790A
:102AF00013F0010F0CBF002220223146384600F0AF
:102B00008DFF002875D0E3681B68002B74D1304618
:102B10008DF80430FEF7E2F86379A279DBB29342D4
:102B20005ED0591C207922681BB2C9B252F82330FA
:102B3000884238BF00216171E360E368002B54D004
:102B40009DF80400FEF7F0F82572227AE368D2B20D
:102B500098680FFA82FE4FEACE0C00EB0C0359790D
:102B600049088DF8051050F83E10029119798DF83A
:102B700006109979C907B1D5587910F00101B0D183
:102B8000D4F80CE09EF80CE001327245A9DAE26854
:102B900092680CF1080C624452795208B2EB500F63
:102BA0009FD1E368217A9B6853F80C2003929C44E0
:102BB0004B1C9CF804208DF807209CF8052012F08F
:102BC000010F0CBF032202228DF804209CF806207E
:102BD000DBB212F0010F0CBF0022202223728CE71F
:102BE0000023E360E368002BAAD19DF80400FEF700
:102BF0009BF804B0BDE8F081E268E36851681B68A7
:102C0000984730468DF80450FEF768F884E700BF17
:102C100070B5007884B00C46A0B90B7ACA6801334D
:102C2000127BDBB29A420FD8E3681B6823B1E268DB
:102C3000E36851681B68984720460121FFF738FF79
:102C400004B070BD0320EFE70B720A7ACB68D2B2F2
:102C5000986815B2EE008319597949088DF8051066
:102C600050F835100291997918798DF80600C90746
:102C70002DD5587910F001012CD1E5682D7B01325A
:102C8000AA4227DAE268956806F1080215446D79D0
:102C90006D08B5EB500F1DD1E368217A9B689858F9
:102CA00003901A444B1C5079917912798DF80720C2
:102CB00010F0010F0CBF03220222DBB211F0010F52
:102CC0008DF8042023720CBF002220220DE05979D8
:102CD00001F00101002203929B798DF8072013F087
:102CE000010F8DF8041018BF202201A904F1100073
:102CF00000F094FE002897D1A2E700BF2DE9F04133
:102D0000044600F110061746984630462346094A05
:102D100000F0D0FC054648B9304600F06FFE657102
:102D2000C4F80080A57127716572E5602846BDE88A
:102D3000F08100BF112C02002DE9F04387B006ADF1
:102D4000002405F8104D044628461E4688461746BE
:102D5000FDF7C4FF637A002B36D103F0FF0901238E
:102D600063729DF80800FDF7DFFF06A8214B00F80D
:102D7000119D02930394CDF810808DF81470FDF727
:102D8000ADFFA3792279DBB29A422AD06279013A67
:102D9000934229D019B2226842F821500133227996
:102DA0009DF80700DBB29A4238BF0023A371FDF7FC
:102DB000BBFF00212046FFF77BFE6EB9637A002B34
:102DC000FCD1A07AC0B204E09DF80800FDF7ACFF8A
:102DD000112007B0BDE8F083637A002BF1D0B04733
:102DE000EBE76279002AD1D19DF80700FDF79CFF3F
:102DF0001120EEE7A52A020010B51A4B1A6882B01E
:102E0000A2B100221A601B6800934FF08043012298
:102E1000154C0099C3F80823A368627033B10CCB3A
:102E20000020A2609847A368002BF8D10F4B1A68C6
:102E3000AAB100221A601B6801934FF0804302225E
:102E4000094C0199C3F8082323690122A27033B108
:102E50000CCB0120226198472369002BF8D102B0E6
:102E600010BD00BF00010040B42900200401004053
:102E700058B910B5054CA36833B10CCB0020A26043
:102E80009847A368002BF8D110BD7047B4290020E3
:102E900010B582B002A80023124C00F8013DFDF7E6
:102EA0001DFF237853B1E3689DF807000133012229
:102EB000E360A270FDF738FF02B010BD184606218E
:102EC0006360A3602361E36000F00EF80AF036FD52
:102ED00020B94FF080430122C3F818250123237045
:102EE000E1E700BFB4290020002810B418DB00F18E
:102EF000604303F561434901C9B283F80013C3B2CB
:102F00004009800000F1604000F5614003F01F02BD
:102F100001239340C0F8803103605DF8044B704793
:102F2000C3B2044A03F00F0449012244C9B2117626
:102F3000E6E700BFFCEC00E030B51D4C94F85450BF
:102F400083B015B1082003B030BD06214FF0FF3328
:102F50000846FF2223636363A363E363236463641C
:102F6000A364E36423606360A360E360236163613F
:102F7000A361E361236284F850306362A36284F842
:102F80005230E36284F8533084F85120FFF7ACFFED
:102F9000084B094A1D601B68019301984FF00043DC
:102FA0000121284684F85410C2F8043303B030BD20
:102FB000C82900207C61004000600040034B93F86A
:102FC0005400003018BF0120704700BFC8290020FE
:102FD000F0B55E4C251895F93030002B01DB082048
:102FE000F0BD91F803E0BEF1000F50D0236801332B
:102FF00000F0A6800826012554F8253001334CD076
:103000006B1C54F82370013748D0AB1CB3423CD240
:1030100054F82370013741D0EB1CB34235D254F839
:10302000237001373AD02B1DB3422ED254F82370AF
:10303000013733D06B1DB34227D254F823700137C8
:103040002CD0AB1DB34220D254F82370013725D0C9
:10305000EB1DB34219D254F8237001371ED005F18D
:103060000803B34211D254F82370013716D005F18A
:103070000903B34209D254F8237001370ED00A3540
:10308000B54202D2E36A013358D00420F0BD236A6E
:1030900001332DD00C260925AEE72B4626185DB24C
:1030A00044F8232086F83050BEF1000F26D08B78EC
:1030B000A3B94A784FF0A04600F5E073920046F8B5
:1030C0002320CB78F3B9083D2C44097894F850209C
:1030D00042EA811284F850201846F0BD830003F1C3
:1030E000A043D3F8002722F00202C3F80027E8E744
:1030F000082685F83060334622623546234483F83B
:103100004800D4E7AB0003F1804303F5C0430978DE
:10311000D3F8104524F4473424F44074C3F8104520
:1031200002020904D3F8100501F4403102F4F85208
:103130000A430243C3F810250020F0BD0B23ADE77E
:10314000002385F8303022601D46B0E7C8290020F2
:10315000F0B42E4D2E1882B096F93030072B1CDDBE
:103160002B4493F848309B09032B41D0012B14BF0B
:103170004FF440314FF40031800000F1A040D0F80E
:10318000002722F44032C0F80027D0F800370B4364
:10319000C0F8003702B0F0BC7047DAB2072AF9D89D
:1031A000980000F1804000F5C04003F14002920019
:1031B000D0F8104592B202F18042002744F0010499
:1031C00002F5C042C0F81045019701981760002928
:1031D000E0D096F9302055F82220002ADAD00122DA
:1031E0000B4902FA03F3C1F8043302B0F0BC704794
:1031F0004FF0A0420123D2F81025834013420CBFA8
:103200004FF400314FF44031B6E700BFC829002029
:10321000006000404FF0A043D3F8103523FA00F0CF
:1032200000F00100704700BF2DE9F043C34B1A685E
:10323000012A83B000F0D0810027C14B1A68012A0F
:1032400000F0BC81BF4B1A68012A00F0A981BE4B77
:103250001A68012A00F09681BC4B1A68012A00F016
:103260008381BB4B1A68012A00F05A81B94B1A6856
:10327000012A00F04781B84B1A68012A00F0348116
:10328000B64B1A68012A00F02381002617F0FF0FC1
:103290001BD0DFF8CC8201250024A30003F180437A
:1032A0002F4203F5C0434FEA45050BD0D3F8100574
:1032B00058F82420D3F81015C0F30420C1F30141BD
:1032C00002B190470134082CE7D1002F02DB03B094
:1032D000BDE8F083A24C94F95010481C4FF0FF3920
:1032E0004FF000084FF0010700F0A980C9B221F0AB
:1032F000C00029FA00F515F001051BD02318890933
:1033000093F9303054F82330002B00F0CB800329A0
:1033100007FA00F500F0CA80820002F1A0423540B1
:10332000D2F800E7CEF3014E40F0A980BEF1030FC2
:1033300000F09F8194F951104A1C22D0C9B221F0AB
:10334000C00029FA00F3DB071BD52318890993F97C
:10335000303054F82320002A00F0B280032907FA05
:1033600000FC00F0B280830003F1A04316EA0C0FCA
:10337000D3F800E7CEF3014E63D1BEF1030F00F0A6
:10338000648194F95210481C22D0C9B221F0C000C7
:1033900029FA00F3DA071BD52318890993F930308D
:1033A00054F82320002A00F08480032907FA00FC47
:1033B00000F08380830003F1A04316EA0C0FD3F8DA
:1033C00000E7CEF3014E46D1BEF1030F00F0298194
:1033D00094F953104B1C21D0C9B221F0C00029FA36
:1033E00000F919F0010F19D02318890993F9303029
:1033F00054F82390B9F1000F4DD0032907FA00FECD
:103400004DD0830003F1A04316EA0E0FD3F8002736
:10341000C2F3014229D1032A00F0EB80002D3FF4D2
:1034200056AF4FF0A043C146D3F810359E423FF44B
:103430004EAF94F95010481C1E467FF457AF00253C
:1034400078E7BEF1020F9CD1032900F02581002A04
:1034500097D0904795E7BEF1020FB9D1032900F04C
:103460001E81002AB4D09047B2E7022AD6D10329A0
:1034700000F01881B9F1000FD0D0C847CEE7BEF1F7
:10348000020FDCD1032900F010810025002B3FF44E
:1034900051AF98474EE70329C0D107FA00FE48EA2A
:1034A0000E08AEE70329CAD107FA00F548EA050875
:1034B00032E703298CD107FA00FC48EA0C0879E7C7
:1034C00003297FF45EAF07FA00FC48EA0C084AE7DC
:1034D00000221A601B6801934FF0A043019AD3F8B1
:1034E000106547F00047D1E61E4AD2F804231406BF
:1034F0007FF5C6AE00221A601B680093009B47F060
:103500008007BDE6174AD2F8042355067FF5B3AE0F
:1035100000221A601B680093009B47F04007AAE650
:10352000104AD2F8042396067FF5A0AE00221A6056
:103530001B680093009B47F0200797E6006100405E
:1035400004610040086100400C61004010610040CF
:1035500014610040186100401C6100407C61004023
:10356000C829002000600040514AD2F80423D20646
:103570007FF577AE00221A601B680093009B47F02E
:1035800010076EE64A4AD2F8042311077FF564AEAD
:1035900000221A601B680093009B47F008075BE657
:1035A000434AD2F8042350077FF551AE00221A6037
:1035B0001B680093009B47F0040748E63C4AD2F89A
:1035C000042394077FF53EAE00221A601B68009327
:1035D000009B47F0020735E6354AD2F8047317F02E
:1035E00001073FF42AAE00221A601B680093009B7B
:1035F00023E603297FF43EAF4FF4003ED3F80027C3
:1036000022F44032C3F80027D3F8002742EA0E0222
:10361000C3F80027B9F1000F3FF403AF0135EDB255
:103620002BE703297FF41DAF4FF4003CD3F800E7EC
:103630002EF4403EC3F800E7D3F800E701354EEA28
:103640000C0EEDB2C3F800E70BE703297FF4FFAEE1
:103650004FF4003CD3F800E72EF4403EC3F800E7F7
:10366000D3F800E701354EEA0C0EEDB2C3F800E7DF
:10367000EDE603297FF40AAF4FF4003ED2F800577D
:1036800025F44035C2F80057D2F8005745EA0E0538
:10369000C2F800570125F9E64FF4403CDAE74FF451
:1036A000403CC3E74FF4403EA8E74FF4403EE5E717
:1036B000006000402DE9F04F0579244EAF0007EB84
:1036C000050E4FEACE0E06EB0E0C83B09CF822409E
:1036D0001CB1082003B0BDE8F08F46F80E20CCF8EE
:1036E0000840CCF804308CF825408CF824408B7BC3
:1036F0008CF827304B7B5BBB0B684FF0A04403F585
:10370000E07340F20C6E44F823E04B6803F5E0737D
:1037100044F823E091E810400368C3F80845C3F873
:103720000CE58C68C3F824452AB10068097B40F396
:103730000730FFF7D9FB3D4406EBC5060123002007
:1037400086F8223003B0BDE8F08F00BF202A0020A9
:103750000B68DFF8A092DFF8A0E24FF0A04C03F571
:10376000E07340F20C6A4CF823A04B6803F5E07359
:103770004FF001084CF823A00B6808FA03F3CCF8CB
:1037800008354B6808FA03F3CCF808350B6803F5E5
:10379000E07340F20D6B4CF823B04B6803F5E07317
:1037A0004FF0040A4CF823B05346D9F8009000BFFC
:1037B00000BF00BF00BF00BF00BF00BF00BFF1459A
:1037C0002FD000BF00BF00BF00BF00BF00BF00BFC1
:1037D00000BF00BF00BF00BF00BF00BF00BF00BFF1
:1037E00000BF00BF00BF00BF00BF00BF00BF00BFE1
:1037F00000BF00BF00BF00BF00BF00BF00BF00BFD1
:1038000000BF00BF00BF00BF00BF00BF00BF00BFC0
:1038100000BF00BF00BF00BF00BF00BF00BF00BFB0
:1038200000BF013BC3D1F3460195D1F804E0DCF8B9
:10383000103523FA0EF3DB07554600F1D6800B68EE
:1038400008FA03F3CCF80C3500BF00BF00BF00BF7F
:1038500000BF00BF00BF00BFD9452FD000BF00BFD1
:1038600000BF00BF00BF00BF00BF00BF00BF00BF60
:1038700000BF00BF00BF00BF00BF00BF00BF00BF50
:1038800000BF00BF00BF00BF00BF00BF00BF00BF40
:1038900000BF00BF00BF00BF00BF00BF00BF00BF30
:1038A00000BF00BF00BF00BF00BF00BF00BF00BF20
:1038B00000BF00BF00BF00BF00BF00BF013DC3D1BC
:1038C0000B6808FA03F3CCF80835534600BF00BF75
:1038D00000BF00BF00BF00BF00BF00BFD9452FD051
:1038E00000BF00BF00BF00BF00BF00BF00BF00BFE0
:1038F00000BF00BF00BF00BF00BF00BF00BF00BFD0
:1039000000BF00BF00BF00BF00BF00BF00BF00BFBF
:1039100000BF00BF00BF00BF00BF00BF00BF00BFAF
:1039200000BF00BF00BF00BF00BF00BF00BF00BF9F
:1039300000BF00BF00BF00BF00BF00BF00BF00BF8F
:10394000013BC3D10134092C7FF46FAF019D4B685B
:10395000DFF8A48001244FF0A04E04FA03F34FF0E7
:10396000040CCEF80C35634600BF00BF00BF00BF9B
:1039700000BF00BF00BF00BFC1452FD000BF00BFC8
:1039800000BF00BF00BF00BF00BF00BF00BF00BF3F
:1039900000BF00BF00BF00BF00BF00BF00BF00BF2F
:1039A00000BF00BF00BF00BF00BF00BF00BF00BF1F
:1039B00000BF00BF00BF00BF00BF00BF00BF00BF0F
:1039C00000BF00BF00BF00BF00BF00BF00BF00BFFF
:1039D00000BF00BF00BF00BF00BF00BF013BC3D19D
:1039E0004B689C40CEF8084586E6019D7346002C46
:1039F000AED181E6FC2100200024F4000379064AC0
:103A0000016803EB830302EBC3030220062283F861
:103A10002200C1F800257047202A00204B6803F0DF
:103A20006043B3F1005F01D0102070472DE9F043EF
:103A300090F804E0A54F03684FEA8E0C0CEB0E06DD
:103A4000154607EBC6064FF0FF32C3F8082396F879
:103A5000242089B002F0FF0832B1B268C3F8042311
:103A6000112009B0BDE8F08315F0140F0CBF01223E
:103A7000002286F824200C4607C906F10C0989E8C3
:103A80000700C5F3001286F825206278C3F8882560
:103A9000C3F80481D3F804210592059AC3F8248160
:103AA000D3F824210692069A15F0010218BF0122CC
:103AB000C3F8502515F0020218BF0122C3F84025B3
:103AC0002278032A00F2FD80DFE802F048680D0248
:103AD000A26802F06042B2F1005F00F0B7801020EF
:103AE00009B0BDE8F083A2786168C3F84415C3F853
:103AF0004825A26802F06041B1F1005FEFD10CEB04
:103B00000E0107EBC101E678C3F8342540F202202C
:103B10004FF48452C3F83865C3F800228860082245
:103B20004FF4827100202E0704D42478032C1CBF8C
:103B300001249C500CEB0E02D200BC18BA58002A8B
:103B400044D06A0744BF4FF40072A2600CEB0E022F
:103B500007EBC2029268C3F8042382E7A278616887
:103B6000C3F84415C3F84825A9060CEB0E0207EB71
:103B7000C20256D54FF48071C3F8001254489060C9
:103B80000021C3F84811D3F848210092009A4FF45D
:103B9000A47101221A6200200822C4E76268A67894
:103BA000C3F834250CEB0E0107EBC1014FF4805232
:103BB000C3F8386540F20220C3F800220126002233
:103BC000886010461E624FF48271ACE701255C18D4
:103BD00002E0D3F8241171BB2268002AF9D00CEB63
:103BE0000E02D3F8C414C3F8C41407EBC2020023B6
:103BF00082F8243000293FF434AF11F0010F18BFD0
:103C00004FF4024048F2012308BF032011F0020FD5
:103C100018BF184648F2022311F0040F18BF1846C7
:103C20001FE740F202214FF40070C3F800029160D8
:103C30004FF48271ADE7C3F82421D3F82421079211
:103C4000079A1D624FF482715D61C0E74FF4807284
:103C5000C3F800226268A178C3F844250022C3F8A3
:103C60004815C3F85021D3F8501102910299C3F8B6
:103C70006021D3F8601103910399C3F84821D3F868
:103C800048210492012204991A629A60D3F85021C3
:103C9000002AFBD00020C3F85001D3F85011019145
:103CA0000CEB0E020199A168E678C3F8441507EB06
:103CB000C2020749C3F84865916008224FF4827137
:103CC00031E708224FF4827107202CE7202A0020D8
:103CD0000002040070B55E4BD3F824218AB0BAB15B
:103CE0000022C3F82421D3F824210592059AD3F8A1
:103CF00004216AB9574A02219068C3F80803916009
:103D00009268C3F8042301221A625A610AB070BD96
:103D10004F4B504CD3F80421002A30D0002504F139
:103D20000C0207CAC3F80451D3F80461049694F84E
:103D30002350049E0AAE06E90700002D39D0227BED
:103D4000012A7FD0D3F84C158DF81E10022A75D0A9
:103D50003F4BD3F84C25D2B23D4B8DF81F200022AB
:103D6000C3F86021D3F8601102910299C3F85C2175
:103D7000D3F85C310393039B94F8255028E0C3F8F3
:103D80004821D3F84811227B01910199002A3BD1A7
:103D900004F10C0207CA94F825500AAE06E90700A0
:103DA000FDB94FF0FF32C3F80052A560C3F80823F5
:103DB00017E0C3F86051D3F860210292029AC3F869
:103DC0005C51D3F85C3194F825500393039B45B9BB
:103DD0001F4B00224FF0FF31C3F80022A260C3F84E
:103DE00008131B4AD2F8C434C2F8C4349A071ED54B
:103DF00001238DF818300DB984F8245023686168C8
:103E000006A898470AB070BD4FF4007040F2022136
:103E10004FF0FF32C3F80002A160C3F80823A26884
:103E2000C3F8042301229A601A620AB070BD13F02D
:103E3000040318BF02238DF81830DCE7D3F83C25C3
:103E4000D2B289E7D3F83C358DF81E3080E700BF49
:103E500000300040202A00204FF0A042D2F8043564
:103E6000D94301F0807103F08073C2F80815C2F8DD
:103E70000C35704708282DE9F04707D0092837D0BE
:103E80000C2837D00B2837D0BDE8F0870025012952
:103E9000044611D01FD30229F6D1204B05EB45056E
:103EA0001D446E78002EEFD01D4B1B68002BEBD00D
:103EB0003046BDE8F0471847184F4FEA450808EB71
:103EC0000503FA18FE5C5378C3B9A8444744154B60
:103ED000BA785A55E6E71448FCF79EFE0F4B114A94
:103EE00005EB45010B44525D9E78B242CCD1D9E737
:103EF0000125CCE70225CAE70325C8E70B4BDFF80D
:103F000030901968084801EB810149004A46FCF7E6
:103F10002BFE0028D9D189F80040D6E7942A00204A
:103F2000C42A0020CC2A0020742A0020702A0020F5
:103F3000482A0020C94B1B68DB0700D4704770B5C6
:103F4000C74B1C78172C22D8DFE814F068007500E6
:103F50007500AE00D500F5001A013D0139002200C0
:103F60003900220018005001500150015001500149
:103F70004E0058009E007801180018004FF0A04332
:103F80004FF0E0710022C3F80C15C3F8082570BD8E
:103F90004FF0A042B34CD2F80435B348D94301F4F2
:103FA000000103F40003C2F80815C2F80C352168BB
:103FB000002201EB8101BDE87040FCF7D5BD4FF058
:103FC000A042A84CD2F80435A748D94301F4000117
:103FD00003F40003C2F80815C2F80C35216800226A
:103FE000BDE87040FCF7C0BD4FF0A0434FF0E0715A
:103FF0000022C3F80815C3F80C2570BD4FF0A0438C
:1040000000224FF0C0704FF48001C3F80805C3F8D8
:104010000C25C3F80C15C3F8082570BD934B1B681D
:104020004FF0A042DB4303F0E0730021C2F80835F3
:10403000C2F80C1570BD8D4A12684FF0A040D243F3
:1040400002F0C0720025C0F80825C0F80C55D0F861
:10405000042582F0E07212F4800200F03881022C14
:104060004FF48002C0F8082514BF28211221C0F89F
:104070000C557C4A1C7012687B4802FB01F1BDE8BC
:1040800070400022FCF770BD4FF0A04300224FF0BB
:10409000A0704FF40001C3F80805C3F80C25C3F85D
:1040A0000C15C3F8082570BD704A12684FF0A04087
:1040B000D24302F0C0720024C0F80825C0F80C45B5
:1040C000D0F8042582F0E07212F4800200F0F7804C
:1040D0004FF48002C0F808250821C0F80C45614A59
:1040E0006148126803241C7002FB01F1BDE87040B6
:1040F0000022FCF739BD5D4A12684FF0A040D24360
:1041000002F0C0720024C0F80825C0F80C45D0F8B1
:10411000042582F0E07212F4800200F0C1804FF4B6
:104120008002C0F808252821C0F80C454D4A4E48A9
:1041300012680424D7E74D4A12684FF0A041D243D9
:1041400002F0C0720020C1F80825C1F80C05D1F8B2
:10415000042582F0E07212F4800200F0A9804FF48E
:104160008002C1F80825C1F80C053E4A3E48116896
:1041700005241C7049000022BDE87040FCF7F4BC27
:104180003A4A12684FF0A041D24302F0C0720020B8
:10419000C1F80825C1F80C05D1F8042582F0E072B9
:1041A00012F4800275D04FF48002C1F80825C1F8DE
:1041B0000C052C4A2C48116806241C700022BDE80E
:1041C0007040FCF7D1BC294B1B684FF0A042DB4389
:1041D000002103F0C0734FF48000C2F80835C2F824
:1041E0000C15C2F80C05C2F8081570BD2048FCF784
:1041F00013FDD4F1110402463ED000283CD11B4DE2
:104200004FF08073012C2B6010D0C823194E154934
:104210001748096803FB04F3A6FB03435B0901FB92
:1042200003F1FCF7A1FC2B6803F0E0734FF0A04210
:104230000021C2F80C35C2F8081570BD4FF0A0433C
:1042400000224FF080704FF44001C3F80805C3F816
:104250000C25C3F80C15C3F8082570BDA02A002052
:10426000C82A0020702A0020A42A00204C2A0020FE
:10427000502A00201F85EB511A4A13684FF0A040C6
:10428000002103F0E073C0F80835C0F80C15116088
:1042900070BD4FF48000C1F80C05C1F8082588E70F
:1042A0004FF48001C0F80C150421C0F808253DE743
:1042B0004FF48000C1F80C05C1F8082555E74FF40C
:1042C0008001C0F80C150221C0F8082507E74FF45B
:1042D0008001022CC0F80C1514BF04210221C0F883
:1042E0000825C6E64C2A00200378082B15D0092B98
:1042F00015D00C2B04D00B2B08BF032301D0704723
:104300000223084A03EB4303134458780028F6D0ED
:10431000054B1B68002BF2D018470023F1E701235F
:10432000EFE700BF942A0020C42A0020032803D905
:1043300000230B7000207047074A4FF0A04352F84B
:104340002000D3F8102501238340934314BF012399
:1043500000230B7000207047ACF50300C04B1A68B7
:1043600012F0010201D11046704770B503461728BC
:1043700000F2ED81DFE810F03A014A014A017D00C8
:10438000A500CD00F30059002F0018002F001800E1
:1043900018017E017E017E017E017E01A7012601BA
:1043A00030014400700070004FF0A042AD4CD2F8D4
:1043B0000435AD48D94301F4000103F40003C2F809
:1043C0000815C2F80C352168002201EB8101BDE817
:1043D0007040FCF7C9BB4FF0A042A24CD2F80435A4
:1043E000A148D94301F4000103F40003C2F8081501
:1043F000C2F80C3521680022BDE87040FCF7B4BB60
:104400009A484FF0A0434FF0807200214FF44005CE
:104410001524C3F80825C3F80C150A46C3F80C5533
:10442000C3F808150470104670BD914B8F4C1B6883
:104430004FF0A041DB43002003F0C0734FF480062F
:104440000725C1F808350246C1F80C05C1F80C650E
:10445000C1F808052570E6E74FF0A041834C4FF006
:10446000E0720020C1F80C25C1F80805024623704F
:10447000D9E77F4B1B684FF0A042DB4303F0C073CA
:104480000020C2F80835C2F80C05D2F8043583F0D4
:10449000E07313F4800300F043814FF48003C2F80B
:1044A00008350821C2F80C056E4A704B12686E4838
:1044B00003241C7002FB01F1BDE870400022FCF7F0
:1044C00053BB6B4B1B684FF0A042DB4303F0C07340
:1044D0000020C2F80835C2F80C05D2F8043583F084
:1044E000E07313F4800300F023814FF48003C2F8DB
:1044F00008352821C2F80C055A4A5C4B12685A4804
:1045000004241C7002FB01F1BDE870400022FCF79E
:104510002BBB574B1B684FF0A042DB4303F0C0732B
:104520000021C2F80835C2F80C15D2F8043583F022
:10453000E07313F4800300F003814FF48003C2F8AA
:104540000835C2F80C15474A484B116846480524FF
:104550001C7049000022BDE87040FCF705BB444BCD
:104560001B684FF0A042DB4303F0C0730021C2F888
:104570000835C2F80C15D2F8043583F0E07313F453
:10458000800300F0BB804FF48003C2F80835C2F806
:104590000C15364B334A3448116806241C7000222F
:1045A000BDE87040FCF7E0BA4FF0A0432F484FF051
:1045B000E07200210C24C3F80C25C3F808150A4644
:1045C000047030E74FF0A04328484FF0C07200213C
:1045D0004FF4800513241CE74FF0A04323484FF00D
:1045E000A07200214FF40005142412E7204B1F4C49
:1045F0001B684FF0A040DB43002103F0E073C0F8DC
:1046000008350A46C0F80C1521700CE7184A1268E4
:104610004FF0A040D24302F0C0720024C0F8082539
:10462000C0F80C45D0F8042582F0E07212F4800244
:104630006BD0022B4FF48002C0F8082514BF28214C
:104640001221C0F80C45074A084C1268237002FB7F
:1046500001F105480022BDE87040FCF785BA00BFB3
:10466000A02A0020702A0020A42A0020C82A0020A6
:104670004C2A002004463748FCF7CEFAD4F1110347
:1046800002462ED068BB344D4FF08071012B29605B
:1046900011D0C824314E32492E48096804FB03F377
:1046A000A6FB03435B0901FB03F1FCF75DFA2968F4
:1046B000024601F0E0714FF0A0430020C3F80C1552
:1046C000C3F80805AFE64FF0A04326484FF0E0726C
:1046D00000211224C3F80825C3F80C150A460470FB
:1046E000A1E61D490B684FF0A044002003F0E073E1
:1046F000C4F80835C4F80C05086094E64FF480014E
:10470000C2F80C15C2F8083543E74FF48001022BBC
:10471000C0F80C1514BF04210221C0F8082592E747
:104720004FF48001C2F80C150221C2F80835BBE62F
:104730004FF48001C2F80C150421C2F80835DBE6FD
:104740004FF48001C2F80C15C2F80835FBE60022D0
:1047500069E600BF502A00204C2A00201F85EB513B
:10476000702A0020C82A0020F8B5224D224E234B83
:104770002860044610F0020031601A6011D0204B0E
:1047800020484A080E270D210F2610251970DF70CA
:1047900004219E715D72FBF727FCF8B1E30702D498
:1047A000F8BDE2070CD54FF0A0434FF0E0720021B6
:1047B000C3F80825C3F80C15C3F818250028EFD155
:1047C000114A12480021FCF7BDF90028E8D1104A2F
:1047D00010480121BDE8F840FCF7B4B9FBF75EFCD6
:1047E0000028DBD101460C4A0C48FCF7ABF9E10785
:1047F000E4D5D8E7A02A0020702A0020C42A00208F
:10480000942A002084F50300353F0200BCF5030024
:10481000593E0200A4F50300E9420200A8F5030096
:10482000032801D907207047012A12D0012917D087
:1048300008D30229F6D10D4B00EB400003440020C1
:104840005A707047094B00EB4000034400209A70F7
:104850007047012901D00022E8E700F10D02D2B231
:1048600000EB400301490020CA547047942A0020FD
:1048700070B41D4E1D4DD6F800271D4C1D4910F07B
:10488000010F14BF4FF44033002322F4403213438E
:10489000C6F80037D5F8002710F0020F22F4403296
:1048A00014BF4FF4403300231343C5F80037D4F846
:1048B000002710F0040F14BF4FF44033002322F4FC
:1048C00040321343C4F80037D1F8002710F0080F26
:1048D00022F4403214BF4FF4403300231343C1F895
:1048E0000037002070BC70472000005024000050AA
:1048F000300000502C00005008B50320FFF7B8FF2F
:1049000010B1062808BF002008BD00BF10B50388FD
:10491000102B08D0112B05D1264B186801381860D0
:1049200038B110BD10BD234C216881B10131216027
:1049300010BD01220221FFF773FF48B3072827D0DB
:104940001D4B1B68002BECD0BDE81040184701221E
:104950000846FFF765FF48B1072807D0164B1B68CC
:1049600003B1984721680131216010BD072202215F
:104970000120FFF755FF08B10728EFD104220221DB
:104980000020FFF74DFF0028ECD00728E6D1E9E72B
:10499000072202210120FFF743FF08B10728CFD1EA
:1049A000002108460A22FFF73BFF0028B9D007285C
:1049B000C6D110BDD42A0020D02A002010B5204B2B
:1049C00082B01860B1B10C4600200DF10601FFF76E
:1049D000ADFC08B102B010BD0DF107010120FFF7D9
:1049E000A5FC0028F6D19DF8073013BB9DF80630D2
:1049F00013BB2370134B186810B1002002B010BD18
:104A000001220221FFF70CFF08B10728E2D107229B
:104A100002210120FFF704FF08B10728DAD10021A5
:104A200008460A22FFF7FCFE0028E6D00728D1D16D
:104A3000E3E702232370DDE70B232370DAE700BFEF
:104A4000D02A0020D42A002032DF70473EDF704792
:104A500076DF704778DF70477ADF70477CDF70471A
:104A6000A8DF7047ADDF704767DF7047704700BF52
:104A7000024A40F29F11FBF727BB00BFE8F5030095
:104A8000024A40F29511FBF71FBB00BFE8F5030097
:104A9000024A40F2B121FBF717BB00BFE8F5030063
:104AA00008B50D490D48FDF7D7FFC1B20C4807F016
:104AB00057FC30F008020ED043F2040290420AD0B4
:104AC00043F20142904206D0064A40F2B311BDE8DB
:104AD0000840FBF7F9BA08BD682C0020782C0020AC
:104AE000502C0020E8F5030070B52DED068B86B044
:104AF000BDF8404054B1220A013A052A00F29280E2
:104B0000DFE802F0949703A09A9D0224254604282A
:104B100040F0888091ED000ADFED4F7ADFED4F9A8B
:104B2000D1ED018A91ED028A9FED4D9AB8EEC00A4F
:104B3000F8EEE88A20EE270AB8EEC88A20EE290AA5
:104B400068EEA78A80EE090A28EE278A16F040F858
:104B5000B0EE40AA28EEA90A80EE090A16F038F84D
:104B6000F0EE408A28EE290A80EE090A16F030F8A5
:104B7000B0EE408A002D68D13A4B188880B202F01E
:104B80009BFC00284ED0FDEECA7ACDED017AFDEEF9
:104B9000E87ABDF90430CDED027AFDEEC87ABDF9B0
:104BA0000810CDED037ABDF90C408DF810301A12C3
:104BB00008128DF811208DF8121006228DF81300BE
:104BC000261204AB012128488DF814408DF8156099
:104BD00008F0FEFD30F008020CD043F204029042CF
:104BE00008D043F20142904204D0204A4FF494612D
:104BF000FBF76AFA012204AB00211B488DF8105024
:104C000008F0E6FD30F008020CD043F204029042B6
:104C100008D043F20142904204D0144A40F2B2411B
:104C2000FBF752FA06B0BDEC068B70BD0124254699
:104C30006DE7082425466AE70424254667E7202413
:104C4000254664E71024254661E7224608490320EB
:104C5000FAF738FF90E700BF0000803700FEFF46FC
:104C600000003443A8210020A02C0020E8F5030018
:104C700014F7030010B50446FDF796FB2046BDE887
:104C8000104002F0B3B900BF70B5044684B002F022
:104C90006BFB204605F08EFD2046FFF737FE23888C
:104CA0003B2B00F09B8015D9552B5ED0562B25D081
:104CB000512B66D0204602F039F9204602F0F8FA6E
:104CC0002146554807F09CFE2146544807F03EFA1D
:104CD00004B070BD102B70D0112B1FD0022BE9D166
:104CE0004F4B1888002180B2FFF7BEFE0028E1D0AC
:104CF0004C4A4FF46971FBF7E7F9DBE74A490420B6
:104D0000FAF77AFE1321A088FFF7A2FE0028D1D07F
:104D1000444A40F29F31FBF7D7F9CBE703204349E0
:104D2000FAF76AFE0020FFF719FB002867D1404D13
:104D30003B4A2B784FF6FF711180002BBAD03D4EC5
:104D40003D48316805F0CAFD00285ED131683A4817
:104D500005F0E6FD062805D020B1324A40F28B313D
:104D6000FBF7B2F900232B70A4E71721A088FFF707
:104D700079FE00289ED02B4A4FF47271FBF7A4F9FC
:104D800098E7A379002B95D0A27B043A022A91D808
:104D9000022B18BF01234FF4C1726946A0888DF819
:104DA0000030ADF80420FFF75BFE002882D01D4ADA
