:100000000000012059050000810500008305000063
:10001000850500008705000089050000000000003C
:100020000000000000000000000000008B05000040
:100030008D050000000000008F0500009105000004
:100040009D400000930500006D26000091350000E2
:100050009305000093050000654300009305000030
:10006000930500009305000093050000013F000088
:100070009305000093050000930500009305000020
:10008000930500006537000093050000930500000C
:10009000353800009305000093050000930500002B
:1000A00093050000930500009305000093050000F0
:1000B0009305000093050000000000000000000010
:1000C00093050000930500009305000093050000D0
:1000D0009305000093050000930500000000000058
:1000E0000000000000000000000000000000000010
:1000F0000000000000000000000000000000000000
:1001000000000000000000000000000000000000EF
:1001100000000000000000000000000000000000DF
:1004000010B5054C237833B9044B13B10448AFF34E
:1004100000800123237010BD0801002000000000AF
:10042000B4970100084B10B51BB108490848AFF359
:1004300000800848036803B910BD074B002BFBD0B0
:10044000BDE81040184700BF000000000C0100206C
:10045000B49701000001002000000000154B002BA4
:1004600008BF134B9D46A3F5803A00218B460F46EB
:100470001348144A121A00F065F80F4B002B00D0F5
:1004800098470E4B002B00D0984700200021040015
:100490000D000D48002802D00C48AFF3008000F09A
:1004A0002BF82000290000F06FFB00F011F800BFCE
:1004B0000000080000000120000000000000000013
:1004C00008010020E42D00200000000000000000D2
:1004D00008B5074B044613B10021AFF30080054B6C
:1004E0001868836A03B19847204600F033F800BFCC
:1004F000000000006078010070B50E4B0E4CE41A4D
:10050000A41000251E46A54204D056F82530984771
:100510000135F8E717F096F9084C094BE41AA410D6
:1005200000251E46A54204D056F8253098470135CF
:10053000F8E770BDF8000020F8000020FC00002063
:10054000F800002002440346934202D003F8011B46
:10055000FAE77047FEE700BF0649074A074B9B1AB8
:1005600003DD043BC858D050FBDC00F025F8FFF752
:1005700075FF0000C0970100000000200801002066
:10058000FEE7FEE7FEE7FEE7FEE7FEE7FEE7FEE743
:10059000FEE7FEE7BFF34F8F0549064BCA6802F43A
:1005A000E0621343CB60BFF34F8F00BFFDE700BF96
:1005B00000ED00E00400FA05F8B5A34B1B78062B0C
:1005C0001FD0A24AD2F8883043F47003C2F88830B2
:1005D000BFF34F8FBFF36F8F4FF01023D3F80C2270
:1005E000D20700F11381D3F80022002AC0F2E8807C
:1005F000D3F80432002BC0F2E380954B954A1A6081
:10060000F8BD954B1B681F07DBD1944B1B6803F0AB
:10061000F003302B02D1924B924A1A608F4B1B6829
:1006200003F0F002302A00F0BA8003F0E003402B20
:1006300000F0B580894B1B6803F0F003302B00F00D
:100640009E80864B1B6803F0F002302A00F0838006
:1006500003F0E003402B7ED0804B1B6803F0F003D7
:10066000302B6AD07D4B1B6803F0F003302B4DD04C
:100670007A4B1B6803F0F003502BA2D14FF080524D
:10068000794BD2F80414C3F82015D2F80814C3F833
:100690002415D2F80C14C3F82815D2F81014C3F896
:1006A0002C15D2F81414C3F83015D2F81814C3F866
:1006B0003415D2F81C14C3F84015D2F82014C3F82E
:1006C0004415D2F82414C3F84815D2F82814C3F8F6
:1006D0004C15D2F82C14C3F85015D2F83014C3F8C6
:1006E0005415D2F83414C3F86015D2F83814C3F88E
:1006F0006415D2F83C14C3F86815D2F84014C3F856
:100700006C15D2F84424C3F870255AE74E4B57496C
:100710001B78574D5748584A05270F60012600247B
:100720003F21062B2E60046011607FF44AAF4A4BD4
:100730001B6819077FF445AF9AE7434B4F4A1B7874
:100740000321062B11607FF43CAF434B1B68180755
:100750007FF437AF86E73C4B1B784FF08042002197
:10076000062BC2F80C11C2F81011C2F838157FF42C
:1007700028AF394B1B681C077FF423AF6CE7404A56
:100780003149D368097823F080730629D3607FF458
:1007900018AF314B1B681D077FF413AF51E7394A7F
:1007A000294B12681B783849C2F34232062B0A6083
:1007B0007FF407AF284B1B681E077FF402AF39E7B1
:1007C000324A0123C2F80435D2F80034002BFBD0A2
:1007D0004FF0102315212D4AC3F80012D2F800342F
:1007E000002BFBD04FF0102315222849C3F8042218
:1007F000D1F80024254B002AFAD00022C3F80425A2
:10080000D3F80024002AFBD0FFF7C4FE1F4B0122BF
:10081000C3F80425D3F80024002AFBD04FF010229F
:100820001A49D2F80C3223F00103C2F80C32D1F885
:100830000024164B002AFAD00022C3F80425D3F86E
:100840000024002AFBD0DFE7E00F00F000ED00E01D
:10085000640000200090D003E40F00F0E80F00F0E7
:1008600074C007400DF0ADBA00C000401056004003
:10087000885600401856004014560040A00500401D
:10088000F0ED00E0440200103C05004000E00140B3
:10089000BFF34F8F0549064BCA6802F4E062134369
:1008A000CB60BFF34F8F00BFFDE700BF00ED00E05E
:1008B0000400FA05704700BF014B01221A7170470E
:1008C0003C010020013810B50C4605282FD8DFE880
:1008D00000F010161C222803154A0021042003F002
:1008E000B9FF2346134A00210420BDE8104003F05D
:1008F000B1BF114A0021042003F0ACFFF1E70F4A19
:100900000021042003F0A6FFEBE70D4A002104209C
:1009100003F0A0FFE5E70B4A0021042003F09AFF53
:10092000DFE7094A0021042003F094FFD9E710BD56
:10093000B4780100BC7801008C7801009478010043
:100940009C780100A4780100AC7801000378022BA8
:1009500007D0012B00D070474068044A942101F071
:100960003FB94068014A902101F03AB9C4780100CA
:10097000032817D8DFE800F0110C07020A4A00210B
:10098000042003F067BF094A0021042003F062BF7E
:10099000074A0021042003F05DBF064A002104201D
:1009A00003F058BF704700BFE8780100D478010019
:1009B000F0780100DC780100F0B58DB001F0D0F8DE
:1009C000384B394A186800909B883848ADF8043095
:1009D000694603F05FFA00285ED1344803F084FAD8
:1009E00003F098FB002852D100234FF0E0704FF045
:1009F000A045032403E0D20748BF45F82140013356
:100A0000202B40FA03F203F5E071F4D1284D294F71
:100A1000294E0FCD4FF0A0444FF0E07EC4F808E51A
:100A20004FF0000EC4F80CE506AC0FC495E80300C7
:100A3000062384E803004FF480754FF4805402A924
:100A40001E4A029706A803950496059401F0CAF978
:100A5000C0B900220592072706264FF0CD65022473
:100A600002A9174B174802970522039604958DF8A3
:100A7000144002F077F818B1134AD52101F0B0F80C
:100A80000DB0F0BD104ACA2101F0AAF8E1E70E4A04
:100A9000B32101F0A5F8A7E70B4AA72101F0A0F8C0
:100AA0009BE700BF64780100B5080000847801006E
:100AB0006C78010060010020600200204D090000F8
:100AC0002401002078000020C478010010B58CB00B
:100AD000002409A808AA0DF11F010A9409940B9497
:100AE0008DF81F400AF084FBDDED097A9DED0B7A4D
:100AF0009FED216ADFED214A214AF8EEE76ADDED3C
:100B00000A7AB8EEC77AF8EEE77A66EE866A27EEDA
:100B1000067A67EE867A36EEE65A77EE475A37EE71
:100B2000E76A25EE245A65EEA45A26EE246AFDEE05
:100B3000E77ABCEEC55AFCEEE55ABCEEC66ABDEEDD
:100B4000C77ACDED017AFDEEE67A8DED005A17EE0B
:100B5000903ACDED045A8DED026A8DED037A21466F
:100B6000042003F077FE21469DF91F30054A04203A
:100B700003F070FE0CB010BD000080370000C842CA
:100B8000FC780100207901002DE9F0472DED028B62
:100B9000A0B0FFF711FF20A80A2340F8443D754B91
:100BA000109306F077FB30B1734A0021062003F062
:100BB00051FEFFF76DFE054609F05CFC044620BBC4
:100BC00011F0DEFC10F092F9012010F079F9B7EE87
:100BD000000A10F06DF90FF0D5FD10F039FC0CF0A3
:100BE000EDFC0EF00BFF10F0ABFC0BF02DFE09F04E
:100BF0008FFC322805460FD0002854D021465F4A8A
:100C0000062003F027FEFFF743FE29465C4A062034
:100C100003F020FEFFF73CFE5A4E5B4D5B4C5C4AF6
:100C20000021062003F016FE3268234600BF00BFF5
:100C300000BF00BF00BF00BF00BF00BFAA422FD04F
:100C400000BF00BF00BF00BF00BF00BF00BF00BFAC
:100C500000BF00BF00BF00BF00BF00BF00BF00BF9C
:100C600000BF00BF00BF00BF00BF00BF00BF00BF8C
:100C700000BF00BF00BF00BF00BF00BF00BF00BF7C
:100C800000BF00BF00BF00BF00BF00BF00BF00BF6C
:100C900000BF00BF00BF00BF00BF00BF00BF00BF5C
:100CA000013BC3D1BBE7792006F08AF8782005F034
:100CB000E9FC142006F0F8F9642005F03DFC07A8D3
:100CC00005F02CFC0DF11E0005F0B2FA0DF1190033
:100CD00005F038FB08A808F033FCBDF820109DF89B
:100CE0001920BDF81E30019100922946294A2A4E4A
:100CF0002A4C042003F0AEFDBDF81C0096FBF0F07A
:100D000009F0A2FCBDF81C0096FBF0F009F0B6FC5F
:100D100042F2107009F0CEFC21480BF03BFABDF80E
:100D20001E10C90309F08AFC1D480BF033FA9DF828
:100D30001910C90309F02AFD1A480BF02BFABDF867
:100D40002010C90309F028FD07236370A570A56171
:100D500084F82150E5606561256100F011FF08F01D
:100D600001FF804610B329460F4A062003F072FDAA
:100D7000FFF78EFDB9080000307901007C79010091
:100D80004C790100640000200024F400404B4C002A
:100D9000687901009879010040420F003C01002071
:100DA0006C00002090000020B07901009A489B4D13
:100DB0000BF0F0F908F0E0FE994809F04FFB994874
:100DC00009F052FB40F273131846A38309F0C8F8E8
:100DD000142008F075FF4CF2503009F089FC012016
:100DE00008F0A8FA0121904A904BA17011A80321A4
:100DF00012921393119509F049FD8D498D4A8E4B3E
:100E0000119111A803211292139309F019FE8B4935
:100E10008B4A8C4B119111A803211292139309F064
:100E2000CBFCC1460DF11A0001F04EF800285FD04E
:100E300000F0A6FE6369844A98420BD913784BB937
:100E400013793BB153785D0704D500F10A03536170
:100E50004FF0010823697C4A984204D900F5FA70E2
:100E600010614FF001096379774DE3B1052201214B
:100E70004FF4FA7008F06CFB09F0F2FF0AF006F884
:100E800009F0F4FF09F0FAFF2B792BB940BF20BF1E
:100E900020BF2379002BF9D000221146104608F01C
:100EA00057FB002363716378674F002B74D03B7945
:100EB000002B71D03B791BB13B78002B40F00783AE
:100EC0002379614E1BB1B378002B40F06D832379F9
:100ED0005D4D002B40F0C282B8F1000F40F0C98395
:100EE0000DF11A004FF0000800F0EEFF00289FD12E
:100EF0009DF81A302C3B4C2B56D8DFE813F04501F7
:100F000055009A02550008019E02860272025E0296
:100F1000EF00EA00E300A900D1015500550055009B
:100F20005500550055005500550055005500550019
:100F30005500550055005500550055005500550009
:100F400055005500550055005500550055005500F9
:100F500055005500550055005500550055005500E9
:100F60005500550055005500CC0182017D015B0202
:100F70000E021302030156015101550055005500A0
:100F80004E015500490160015B01780155006F0079
:100F9000550059005300510040BF20BF20BF41E71A
:100FA000FFF776FCFFF792FD002384F821303FE73E
:100FB000A38B83F010031846A38308F0D1FFA58B01
:100FC00005F01005ADB2002D40F0828409F056FF07
:100FD00029461E4A042003F03DFCE5E717AD14AE98
:100FE00029463046002206F0C3FE0728074600F0D7
:100FF0008E8410F0010100F0848417F0020100F0EB
:101000007A8417F0040100F0708409F029FF09F0D8
:101010003DFF09F02BFFC7E76C00002000C85E0011
:10102000C5080000710900000070E0FF0028D8FF2B
:101030003593F4FFC9431B00E8F40F00846A63FF93
:101040009CA2C403637D40FE3C010020BC7A0100E9
:10105000637883F0010313F0010F03F00202637061
:101060000CBF0025082502F0FF06002A00F01283BD
:1010700045F070055907EDB2267803D5237845F081
:1010800001051E43284605F09BFE284605F0FAFAA6
:101090005EB1002317A8237005F040FABDF85C305C
:1010A000BA4890FBF3F009F0E9FA637813F0010510
:1010B00040F0048409F0D4FE2946B54A042003F028
:1010C000C9FB71E7002008F0FFFE002008F02CFFAC
:1010D0006AE7A36983F08003A36165E7A3786420CE
:1010E000002B00F0F28308F0EBFD42F2107009F0E3
:1010F000FFFA42F2107009F0A7FA42F2107009F0FC
:10110000BDFA51E7A36983F00203A3614CE763785A
:1011100083F0040313F0010F03F0020263700CBFAD
:101120000025082502F0FF06002A00F0A98245F0FC
:1011300070055B07EDB2267803D5237845F00105ED
:101140001E43284605F03CFE284605F09BFA5EB19A
:10115000002317A8237005F0E1F9BDF85C308B4837
:1011600090FBF3F009F08AFA637803F0040303F0CC
:10117000FF05002B40F0E28409F078FE2946854AFD
:10118000042003F067FB0FE7012009F043F80BE7A9
:10119000A36983F40073A36106E70123637103E786
:1011A000A36983F48073A361FEE6A36983F040031F
:1011B000A361F9E6A36983F00403A361F4E6A678CA
:1011C000754D002E7FF4F0AE142005F03DFD304645
:1011D00005F0E8FC6B7823F0060343F001030122DD
:1011E0006B702A7009F052FE09F040FEDCE6A3693C
:1011F00083F02003A361D7E6A36983F00803A3610A
:10120000D2E617AD654A14AE0021042003F022FB9C
:101210003146284609F0A4FC0AF01CF81499199AE2
:10122000189B03900291019200935D4A179B002145
:10123000042003F00FFB3146284609F07FFC09F03B
:10124000F5FF1499199A189B0390029101920021BD
:10125000544A00930420179B03F0FCFA284609F037
:10126000A3FA09F0E9FF074609F00AFB05460AF070
:10127000DBF806460AF0C8F9199A189B0590019206
:101280000093029704960395179B474A0021042078
:1012900003F0E0FA88E6A36983F00103A36183E623
:1012A000637883F0020313F0010F03F0020263700E
:1012B0000CBF0025082502F0FF06002A00F0B581CA
:1012C00045F070055A07EDB2267803D5237845F02E
:1012D00001051E43284605F073FD284605F0D2F9A6
:1012E0005EB1002317A8237005F018F9BDF85C3033
:1012F000264890FBF3F009F0C1F9637803F002038C
:1013000003F0FF05002B40F0E78309F0BFFD2946FD
:10131000264A042003F09EFA46E6A36983F01003F0
:10132000A36141E623781C4D002B7FF481ADAE789C
:10133000002E00F0D8831846AB7007F0FBFF6B78E7
:1013400013F0010F0CBF002008209F0744BF40F09E
:101350007000C0B25E0748BF40F0010005F092F98E
:1013600017A808F0DDFCBDF85C0005F09DFE09F053
:1013700085FD0F4A0021042003F06CFA102005F0CF
:1013800003F84FF4FA6004F075FF0DE640420F00D9
:10139000CC790100FC7901003C010020F07A0100C9
:1013A000FC7A0100287B0100507B0100E4790100F8
:1013B0009C7A010004F0A6FBF6E5A3783220002B0E
:1013C00000F08D8208F07CFC44F6206009F090F972
:1013D00044F6206009F038F944F6206009F04EF92F
:1013E000E2E5A3782820002B00F07C8208F068FC5E
:1013F00046F2A81009F07CF946F2A81009F024F989
:1014000046F2A81009F03AF9CEE5A3781420002B93
:1014100000F09B8308F054FC4CF2503009F068F95E
:101420004CF2503009F010F94CF2503009F026F926
:10143000BAE5022008F0EEFEB6E5A3780A20002BFC
:1014400000F06B8308F03CFCA64809F051F9A54870
:1014500009F0FAF8A34809F011F9A5E50AA90DF178
:1014600022070DF1240A002600913B4652460DA8A2
:1014700014A92E7105F07EF99DF828300BB10123D7
:101480002B719DF8222012F0700340F0E6801207C5
:1014900008D4B8F1000F17D1002B3FF421AD17ADE0
:1014A00014AE39E0BDF95010BDF95200BDF9543009
:1014B00017911890099A1993002117A809F062FB57
:1014C0000123B8F1000FE7D017AD14AE1CE00DF109
:1014D000240A14AE5146304604F068FB17ADBDF93E
:1014E0005020BDF95210BDF954301792189128467A
:1014F000099A1993002109F045FB00233B710DF176
:101500002207B8F1000F07D05146304607F09EFF82
:101510000146002800F0938009F062FD002840F0A9
:10152000C78100230AAA3946284633607360B36036
:101530000BF046F8002840F0AF81A369D80700F10E
:101540009E81A369990700F18D81A3691A0700F1B3
:101550007C81A369DB0600F16B81A369980600F129
:101560005A81A369590600F14981A369DA0500F19E
:101570000581A3699B0500F1C180A3695A4D1E0630
:1015800000F1988003200AF0EFF800283FF4A8AC9F
:1015900010F0010140F0888080077FF5A1AC534A2C
:1015A000042003F057F99BE40DF11B010DF1240A0F
:1015B00017AD0DF12207534601912A460BA800975B
:1015C0000DA908F057FE9DF81B3003B93371BDF823
:1015D000222012F070031CD1100710D5BDF9341071
:1015E000BDF93600BDF93830099A149115900021E3
:1015F00014A8169309F0C6FABDF822200123D105DC
:101600007FF547AF2846099A002109F00FFC012316
:101610003FE70BA8099909F019FBB9F1000F40F059
:101620003382BDF822200123D6E75A073FF54EAE9C
:10163000284605F0C5FB284605F024F85DE6BDF90F
:101640005020BDF95200BDF9543017921890099AF4
:101650001993284609F048FB5EE70DA8099909F09F
:10166000F5FAB9F1000F40F05B829DF822200123CA
:101670000DE717AD14AE0DF1240A0DF1220743E773
:101680005B073FF55AAD284605F09AFB284604F063
:10169000F9FF69E559073FF5F1AC284605F090FBE5
:1016A000284604F0EFFF00E5114A0021042003F072
:1016B000D1F815E400F064FAEB6898427FF662AF67
:1016C00000F57A730BA8EB6008F0E8FB0DA808F0B2
:1016D00011FC0D9B0093074A0B9B0021042003F093
:1016E000B9F84FE7A08601003C010020487C0100CA
:1016F0003C7C0100107C01000000C8420AAA394667
:1017000030460AF0ADFE00283FF437AFDDED146A35
:10171000DDED157A9DED167A1FED096AE14AFDEEC1
:10172000E65AFDEEE74ABDEEC75AB8EEE53AF8EEE6
:10173000E43AB8EEC54A76EEC36A77EEE37A37EE5E
:10174000447A66EE866A67EE867A27EE067AFCEEC3
:10175000E66ABCEEC77AFCEEE77ACDED006ACDED25
:10176000014A8DED035A8DED047ACDED027A15EE26
:10177000903A0021042003F06DF8FEE60AAA3946EB
:1017800030460AF039FE00283FF4F3AEDDED146A6E
:10179000DDED157A9DED167A9FEDC36AC34AFDEE25
:1017A000E65AFDEEE74ABDEEC75AB8EEE53AF8EE66
:1017B000E43AB8EEC54A76EEC36A77EEE37A37EEDE
:1017C000447A66EE866A67EE867A27EE067AFCEE43
:1017D000E66ABCEEC77AFCEEE77ACDED006ACDEDA5
:1017E000014A8DED035A8DED047ACDED027A15EEA6
:1017F000903A0021042003F02DF8BAE60AAA3946EF
:1018000028460AF0EDFE00283FF4AFAE2946062038
:1018100003F0CEF8A9E60AAA394628460BF004F8E8
:1018200000283FF49EAE2946052003F0C1F898E653
:101830000AAA394628460AF021FF00283FF48DAE57
:101840002946042003F0B4F887E60AAA3946284658
:101850000AF0ACFE00283FF47CAE2946022003F0DB
:10186000A7F876E60AAA394628460AF095FE002827
:101870003FF46BAE2946012003F09AF865E60AAA08
:10188000394628460AF07EFE00283FF45AAE294623
:10189000002003F08DF854E6284603F033F8A369DE
:1018A0005B077FF54AAE2946032003F081F844E642
:1018B0007F4A0021062002F0CDFF32E67D4A00215A
:1018C000042002F0C7FFFFF76FBB05F0EDFB10E44B
:1018D000794A0021042002F0BDFFFFF765BB05F047
:1018E000E3FB75E505F0E0FB86E5744A062002F0AF
:1018F000B1FFFFF78ABB724A062002F0ABFFFFF789
:1019000080BB704A062002F0A5FFFFF776BB6E4A47
:10191000DFED6E8A9FED648A0021042002F09AFFB9
:10192000DDED177A9DED197A694AB8EEE76ADDEDCB
:10193000187AF8EEC76AF8EEE77A26EE286A67EEBC
:10194000A87A66EEA86A36EE465A77EEE75A36EE81
:10195000E67A25EE085A65EE885A27EE087AFDEEFB
:10196000E77ABCEEC55AFCEEE55ABCEEC77AFDEE4E
:10197000E66ACDED017AFDEEC67A8DED005ACDED29
:10198000025A8DED047ACDED036A17EE903A0021EC
:10199000042002F05FFFDDED147A9DED167A4D4ACA
:1019A000F8EEE76ADDED157AB8EEC77AF8EEE77A79
:1019B00066EEA86A67EEA87A27EE287A37EEE76A1D
:1019C00036EEE65A77EE475A25EE085A65EE885A03
:1019D000FDEEE77A26EE088ABCEEC55AFCEEE55A23
:1019E000BDEEC77ACDED017ABCEEC88AFDEEE67A8F
:1019F0008DED037A17EE903A8DED005ACDED045A35
:101A000000218DED028A042002F024FF0BA804F0CF
:101A10000FFEBDF82C701999179A189B07FB02F25C
:101A200007FB03F3284607FB01F7032117921893DE
:101A3000199708F02BFF0DA804F0D0FDDDED147A06
:101A40009DED0D6AF8EEE76ADDED157AB8EEE77AFE
:101A5000DDED167AF8EEE77A66EE866A27EE067A0C
:101A600067EE867AFDEEE66ABDEEC77AFDEEE77AAE
:101A700030460321CDED146A8DED157ACDED167A41
:101A800008F0DEFFFFF7C1BA51460AA804F0E2F8F9
:101A900009990A9809F0B4F94FF000090123BDF83B
:101AA000222099E5E47B01000000C842BC7B0100D4
:101AB000A47B0100D8790100D87A0100887A01005E
:101AC000787A0100687A01001C7A010000008037F2
:101AD000287A0100487A01001D4A0021042002F002
:101AE000B9FEFFF761BA012717A8AF7004F016FD21
:101AF000BDF85C0008F0E4F8BDF85C30154890FBD8
:101B0000F3F008F0F5FD384607F014FC3146124AB0
:101B1000042002F09FFEFFF747BA05F0C5FA96E4ED
:101B200051460BA804F096F809990B9809F068F94A
:101B30004FF0000901239DF82220A8E4074A002164
:101B4000042002F087FEFFF72FBA05F0ADFA67E434
:101B5000F079010040420F00AC7A01000C7A0100DC
:101B600008B502F04FFA18B1044A0A2100F038F81B
:101B70000020BDE8084002F05DBA00BF607C0100B3
:101B800030B583B002AA002342F8043D104B114C3B
:101B9000D3F804552168284602F076F918B10E4AA8
:101BA000172100F01DF8019A0C4925604FF47A7353
:101BB00003FB02F212F580424FF00003086843F184
:101BC0000003D20B42EA43421044086003B030BD28
:101BD00000B0004064120020607C01006012002010
:101BE00000B585B0ADF804100292039001AA00215F
:101BF00044F2010000F036F805B05DF804FB00BFC8
:101C000030B482B001248DF80740154B9DF8075081
:101C1000186044F20104A04259609A6014D044F262
:101C20000201884208D072B69DF80730002BFBD124
:101C300062B602B030BC7047DA60DA6812889A6126
:101C4000DA685268DA61EEE71A611A6992685A61D5
:101C50001A6912889A611A695268DA61E3E700BF6B
:101C60006812002070B504460D460120084916464A
:101C700002F008FD02F002FD02F04EFD0028FBD14B
:101C8000324629462046BDE87040FFF7B9BF00BF85
:101C9000887C010059B10AB909207047531E1A40C7
:101CA000FAD1826001608380C260104670470E20C6
:101CB000704700BF10B48468C26803468088121B56
:101CC000904203D204205DF8044B7047DA681C6828
:101CD00002400020A154DA680132DA605DF8044B5A
:101CE000704700BF03468068DA68904201D1052042
:101CF000704710B49A6898881C6802400020A25C63
:101D00000A709A6801329A605DF8044B704700BF10
:101D100030B50478012C83B024D010D3022C0CD120
:101D2000C36829492948019301228DF8004000F039
:101D300061FB274B68461B68984703B030BD2549B7
:101D40002548FFF7CFFF00282AD0234B9A68DB688D
:101D50009A42F2D102A8032300F8083D1C4B1B68ED
:101D60009847EAE743681D4D19782846FFF7A2FF18
:101D700070B9AA68EB689A421ED1A968EB68AA8874
:101D80005B1A9A4212D2164B01221A7003B030BD70
:101D90000F4B01908DF800401B6868469847ECE7B0
:101DA00001220C49094800F06DFACEE701220649EC
:101DB000064800F01FFBC0E702AB054A03F8080D18
:101DC000126818469047D8E7901200209C00002027
:101DD0008C1200208812002094120020A8120020EB
:101DE000A41200202DE9F0432F4C89B02260002975
:101DF00052D00C4680468A882C4809689946FFF7DD
:101E000049FF10B109B0BDE8F083A289A168284854
:101E1000FFF740FF0028F5D1264D98F810E0D8F8DC
:101E20000C70D8F808600FCD6C460FC495E80F0011
:101E300098F8115002971EF1000E18BF4FF0010ED6
:101E4000002D84E80F00D8F80050D8F804401A4A52
:101E50001A488DF81C9014BF0E2300238DF81530FE
:101E60006946D8F814308DF814E0069303968DE88F
:101E7000300000F0C1F80028C4D1D8F80030104A72
:101E800001331070BED09DF81D304BB101220D49B9
:101E90000A4800F0AFFAB5E7072009B0BDE8F083C3
:101EA000064800F0BDFBF1E78C120020A8120020CC
:101EB00094120020A07C0100111D00009C00002055
:101EC000A41200209012002070B50C4C01460C4862
:101ED0002678FFF707FF05460EB9284670BD002398
:101EE000012208490848237000F084FA0028F4D041
:101EF000064ABA21FFF774FE284670BDA4120020DE
:101F0000A8120020901200209C000020C07C01003C
:101F100010B501460C48FFF7CDFE044608B1204637
:101F200010BD0A4800F05AFA0028F8D108490648BE
:101F3000FFF7D8FE0028F2D1012205490348BDE889
:101F4000104000F09FB900BF941200209C000020B8
:101F50008812002070B5161E07DD0C468D1914F886
:101F6000010BFFF7D5FFA542F9D1304670BD00BF88
:101F700010B50C462046FFF7A7FF0528FAD0012030
:101F800010BD00BF72B6024A136801331360704778
:101F9000B8120020034A1368013B136003B962B60C
:101FA000704700BFB8120020002810B418DB00F101
:101FB000604303F561434901C9B283F80013C3B21A
:101FC0004009800000F1604000F5614003F01F020D
:101FD00001239340C0F8803103605DF8044B7047E3
:101FE000C3B2044A03F00F0449012244C9B2117676
:101FF000E6E700BFFCEC00E02DE9F0410479694D13
:1020000064012E1986B0F37E1BB1082006B0BDE82E
:10201000F0814F7F37770E684FF0A04E012707FA07
:1020200006F6CEF808650E6806F5E0764FF0030C6C
:102030004EF826C04E6806F5E0764EF82630067952
:1020400005EB4616377F002F50D006688F69C6F81B
:10205000247591F815800F7D066848EA0707C6F8D1
:102060006C7591E840010768C7F80C65C7F81485DE
:102070000F7D012F00F08C802B1906465A600B69EA
:1020800048482B51EAB13379097F326800EB43109D
:10209000037F002B5BD1C2F81C31D2F81C7132686F
:1020A0000097009FC2F84431D2F84421336801926E
:1020B0003D48019AC3F80403306840F30730FFF746
:1020C00073FF3379326805EB43131B7F002B3AD043
:1020D0000823C2F800352C4400200123E376E07584
:1020E0002076A075A07606B0BDE8F08103688E6901
:1020F000C3F8246591F815800E7D036848EA06064A
:10210000C3F86C6591E808010668C6F80C35C6F896
:1021100014850E7D012EAFD18B6803F5E0734EF868
:102120002370CB6806FA03F3CEF80835CB6803F5C5
:10213000E0734EF823C00368CF688E68C3F8087553
:10214000C3F8106598E70423C2F80035C3E70023FD
:10215000C2F81031D2F8107132680297029FC2F8AB
:102160002031D2F8207132680397039FC2F82431DE
:10217000D2F8247132680497049FC2F84431D2F82F
:102180004421336805920948059AC3F8040393E78C
:102190008E6806F5E0764EF82630CB6807FA03F332
:1021A000C2E700BFBC120020800002001003020042
:1021B000F0B503792F4C01685B01E218127F002A09
:1021C00050D00022C1F80025E2182A495268B2B165
:1021D000027901EB42110A7F002A46D102682649A2
:1021E000C2F808130268254E120B51B2490920317A
:1021F00002F01F02012505FA02F246F821200768C5
:102200004FF0FF3ED7F80C65D7F81455D7F80825DE
:10221000D7F81015C7F80CE5C7F814E5006806F5FF
:10222000E076C0F808E5C0F810E505F5E0704FF07D
:10223000A045022745F8267045F82070481C1CBFB1
:1022400001F5E07145F82170511C06D002F5E072ED
:102250004FF0A041022041F8220023440022DA7608
:102260005A60F0BDC1F80025AEE702680449C2F823
:102270000813B7E7BC1200208402020000E100E06E
:1022800010030200F0B50379534C5B01E51887B0E9
:102290002D7F3DB10D0C2D04B5F1005F02D0102053
:1022A00007B0F0BD23444C4F9E7D16B1112007B0FE
:1022B000F0BD9A7599609E8205796D017A19137F38
:1022C00013BB0168C1F81C31D1F81C610168049688
:1022D0000126049F8E600168D2F808E0C1F81C3125
:1022E000D1F81C310593059B968A938A5768B6B23C
:1022F00001331EF806609BB29382C1F81C65002F63
:102300002FD0002007B0F0BD03689168C3F82061AA
:10231000D3F8207103680197019FC3F85861D3F87F
:10232000586103680296967D029FC3F84415C3F86E
:1023300048650368012199605368002BE1D1036867
:1023400001E0002945D1D3F82021D3F85811002A03
:10235000F7D0002914BF0F2000202C440023A375C0
:102360009EE7967D938A9BB29E4202F1140122D988
:10237000016804E0938A9BB2B3F5807F03D0D1F863
:102380001C31002BF6D0938A9BB2B3F5807FE9D045
:10239000C1F81C71D1F81C310393039BB2F814C02F
:1023A000938A1FFA8CFC01331EF80CC09BB29382F7
:1023B000C1F81CC5D6E70B889BB2B3F5807F08D067
:1023C0000268D2F81C31002BFBD00123D36000201F
:1023D000C3E70F20C1E700BFBC1200200279044B05
:1023E00003EB4213987D003018BF0120704700BFF7
:1023F000BC120020F0B40379884E5B01F41888B059
:10240000257F4DB10D0C2D04B5F1005F59D0102280
:10241000104608B0F0BC70476568002D42D13344C7
:102420007E4FDC7D002C2BD1DA75D9605C761C7672
:1024300005796D0173191F7F002F50D19B7E8BB9D9
:1024400084B90368C3F82441D3F8242103680392B4
:10245000039AC3F80841D3F80821036804920122C3
:1024600004991A6071194B68002B6FD003684FF400
:102470000172C3F804230022104608B0F0BC704774
:102480001C7ED4B1002D00F0A980037907EB43171F
:102490003B7F002B53D003684FF40472C3F804232E
:1024A0001122B5E704684FF401773344C4F8087388
:1024B000DC7D5A4F002CB7D0E2E719611A7601246F
:1024C000B6E76568002DAAD004684FF4047733445A
:1024D000C4F80873DC7D514F002CA5D0D0E7036809
:1024E0000025C3F81051D3F8107103680197019FBC
:1024F000C3F84451D3F8445103680295029DC3F8D0
:102500003415C3F8382594B9036801221A6001799B
:10251000490173185B68002B62D003684FF40472A2
:10252000C3F804230022104608B0F0BC70470268CC
:10253000D2F8003243F02003C2F80032E7E7036824
:102540004FF40172C3F80423112261E70268C2F854
:102550004431D2F844310593059B0368D3F82471C4
:10256000D3F80841D3F8442144B9002A2FD1002FD1
:10257000F4D035440023EB75032249E7002FF8D14E
:102580003ABBCC7DC3F80821CCB1D3F808410694FE
:10259000069CCF684C7ED3F818353B554B7ECC7DDE
:1025A0000133DBB24B764B7E9C42D6D835440021BA
:1025B000AB7EE9756BB303680121196028E7D3F896
:1025C00008410794079CD3F818354B7EEEE7002F9F
:1025D000CFD135440023EB750F2219E7112217E7FD
:1025E000036801E042B980B9D3F81041D3F844211F
:1025F000D3F82401002CF5D00E440023F3750028F5
:10260000BAD19A4218BF0F2202E73144CA75032299
:10261000FEE6036801215960FAE600BFBC12002003
:10262000114A037902EB4313197FD9B99B7ECBB9C9
:1026300010B4016883B0C1F82431D1F82441016895
:102640000094009CC1F80831D1F808310168019369
:102650000123019C0B60017902EB4112937603B0D8
:102660005DF8044B704700BFBC12002070B59B4C56
:10267000237F8EB0002B75D1994AD2F804138905B7
:1026800048D4974BD3F80423520704D5D3F8082134
:10269000002A40F0CA80924BD3F81C21C2B1A28A12
:1026A000A07D8E4992B282424FF00002C3F81C21F5
:1026B00080F0A980D3F81C210692069A888A8A8A1B
:1026C0008D6880B20132285C92B28A82C3F81C0500
:1026D000834BD3F84421DAB10022C3F84421D3F864
:1026E0004411A27E04910499002A40F08980E27D81
:1026F0007A4B6AB10022587ED968DA7501228DF8CA
:1027000030000B918DF828200AA893E80600904726
:102710000EB070BDD2F824110029B2D0C2F8243115
:10272000D2F82411A37E07914FF401710798C2F8E3
:1027300008130BB901235360694A02238DF828302E
:10274000D2F88034C2F88034E07DE2680D93002333
:102750008DF83000E375237621680B9263680AA830
:10276000984798E75E4BD3F82421002A40F09380E5
:10277000D3F8101161B1C3F81021D3F810110391EF
:102780000399D3F83C15E07DC9B2884200F0AA80D5
:10279000534BD3F84421B2B10022C3F84421D3F8FB
:1027A0004411E07D019101994C4960B1D3F83C3569
:1027B000C8688DF830300123CA750B908DF8283029
:1027C0000AA80AC99847464BD3F82021002A9FD06F
:1027D0000022C3F82021D3F82011A07D0091009998
:1027E0003E49002894D0D3F84C058B688DF8300012
:1027F0008A750B938DF828200AC90AA8984787E79D
:1028000001221A6073E7D3F81C310593059B002859
:102810003FF45EAF8B688DF830008A750B938DF8AE
:1028200028200AC90AA8984752E7E17D2B4A0029C7
:1028300070D00021C3F80811D3F808110891089945
:10284000D068517ED3F818354354537ED17D01337F
:10285000DBB25376627E214B8A427FF41CAF1A7E34
:10286000002A6DD19B7E13B91D4B01225A601C4A70
:10287000E06863684FF40171C2F80813627E8DF856
:102880003020002501220B902168E5758DF8282065
:102890000AA89847FFE60022C3F82421D3F82411A0
:1028A000029102218DF828100299D3F88014C3F800
:1028B00080140D91D3F83C15E368E27522768DF80B
:1028C00030100B93216863680AA89847044BD3F82B
:1028D0004421002A3FF477AF5EE700BFBC1200201E
:1028E00000200040217EF1B1D3F80062E17526F0AE
:1028F0002001E568C3F8001226698DF83000012335
:102900008DF82830227621680B95E66063680AA866
:1029100098473DE7C3F80811D3F808210992099AAE
:10292000D3F8183596E7E268E17501238DF8300099
:102930008DF828300B9294E80A000AA8984727E7F8
:10294000DE685D7E1869DA7501210022D8601A768A
:102950005A768DF828100B968DF8305093E80600C3
:102960000AA8904797E600BFC0B2002388724B7256
:10297000704700BFF0B5007885B00C46002840F0E5
:1029800093800B7ACA680133127BDBB29A4200F261
:102990008D80E3681B6823B1E268E36851681B68B7
:1029A0009847002518E0597901F001018DF80410CD
:1029B00003958DF807509B7913F0010F0CBF00228F
:1029C000202201A904F1100000F07EFD002867D04C
:1029D000E3681B68002BDFD10020FFF7D3FA63798F
:1029E000A279DBB2934254D019B22268207952F80E
:1029F00021105A1CD3B2984238BF002363710B4692
:102A0000E360E068002849D00020FFF7C3FA257290
:102A1000227AE368D2B2986816B2F700C3195979DE
:102A200049088DF8051050F83610029119798DF883
:102A300006109979C907B6D5587910F0010131D13E
:102A4000E668367B0132B242B0DAE2689268083753
:102A50003A4452795208B2EB500FA7D1E268237A78
:102A60009268D1590391174401333A798DF80720C0
:102A70007A7912F0010F0CBF032202228DF8042094
:102A8000BA79DBB212F0010F0CBF002220222372B0
:102A900097E70023E360E0680028B5D1FFF77AFAF2
:102AA00005B0F0BD012181E7032072E70B720A7ABD
:102AB000CB68D2B2986815B2EE00831959794908EB
:102AC0008DF8051050F83510029119798DF806101F
:102AD0009979C8072DD5587910F0010140D1E568E2
:102AE0002D7B0132AA4227DAE268956806F10802D6
:102AF00015446D796D08B5EB500F1DD1E368217A4F
:102B00009B689858039013444A1C19798DF8071054
:102B1000597911F0010F0CBF032102218DF8041027
:102B20009979D3B211F0010F0CBF00222022237239
:102B30000DE0597901F00101002203928DF8072080
:102B40008DF804109B7913F0010F18BF202201A902
:102B500004F1100000F0B8FC00287FF41AAF9FE7E2
:102B60000121E9E72DE9F041044600F1100617467E
:102B7000984630462346094A00F0F2FA054648B91D
:102B8000304600F091FC6571C4F80080A571277192
:102B90006572E5602846BDE8F08100BF7529000038
:102BA000F0B5044685B000200D46FFF7EBF9A37998
:102BB0002279DBB29A4200F0AE806279013A934208
:102BC00000F0AD8019B2226842F821505A1C2179D8
:102BD000D3B2994238BF0023A3710020FFF7DAF97E
:102BE0000020FFF7CFF9E568002D40F08E802E46DB
:102BF0001CE0597901F0010103969B798DF80410CE
:102C000013F0010F0CBF0022202201A904F11000D3
:102C10008DF8075000F058FC00286ED0E3681B6860
:102C2000002B40F082801846FFF7ACF96379A27957
:102C3000DBB2934264D019B22268207952F8211095
:102C40005A1CD3B2984238BF002363710B46E3602D
:102C5000E368002B59D00020FFF79CF92572227AF7
:102C6000E368D2B2986817B24FEAC70E00EB0E03C2
:102C7000597949088DF8051050F837100291997963
:102C800018798DF80600C907B3D5587910F00101FD
:102C90003FD1E7683F7B0132BA42ADDAE268926821
:102CA0000EF1080E724452795208B2EB500FA3D1C4
:102CB000E268237A926852F80E1003919644013329
:102CC0009EF805209EF806109EF804008DF8070077
:102CD00012F0010F0CBF03220222DBB211F0010F30
:102CE0008DF8042023720CBF0022202201A904F1D8
:102CF000100000F0E9FB002890D1002005B0F0BDE5
:102D00000023E360E368002BA5D10020FFF742F920
:102D1000F3E7012170E76279002A7FF44EAF0020CB
:102D2000FFF738F9112005B0F0BDE268E36851689B
:102D30001B6898470020FFF725F977E7F0B50446B0
:102D400085B000201F460E461546FFF71BF9637A33
:102D5000C3B903F0FF0001236372FFF71BF90F4BA8
:102D600001946946204602968DF80C500093FFF7B7
:102D700017FF28B967B9637A002BFCD1A07AC0B2DB
:102D800005B0F0BD0020FFF705F9112005B0F0BD3A
:102D9000637A002BF2D0B847ECE700BF6929000046
:102DA0002DE9F0410024C1F804418EB0D1F804515E
:102DB0000495049DC1F82441D1F824510395039D45
:102DC000C1F81C41D1F81C510295029DC1F808417F
:102DD000D1F808510195012B80F8264080F8234056
:102DE000019D0CBF022401240125C1F800420D629F
:102DF0000D6004684CB140F2862383608368C1F89B
:102E0000043300200EB0BDE8F0812E4603F1FF3EF2
:102E10004FF0020C90F82350002D3BD1D1F82471D3
:102E200090F82680002F48D0C1F82451D1F82451C1
:102E30000A950A9D4E6180F823604345EAD1D1F896
:102E40000451002DE6D00023C1F80431D1F804214B
:102E500090F823300592059AC3B1D1F8C434C1F873
:102E6000C4349BB113F0010F18BF4FF4024048F275
:102E7000012208BF032013F0020F18BF104648F2CA
:102E8000022213F0040F18BF1046BBE700200EB05B
:102E9000BDE8F081C1F82441D1F824510B950B9D78
:102EA000C1F81C41D1F81C510C950C9DC1F808418A
:102EB000D1F808510D950D9DC1E7D1F81C51ADB168
:102EC000C1F81C71D1F81C510995099DD1F8245104
:102ED0001DBB90F82650AB423DD9555DC1F81C553D
:102EE00090F82650013580F82650A6E7D1F80871F1
:102EF000002FA2D0C1F80851D1F808710797079F99
:102F0000D1F824719FB1C1F82451D1F8245106950C
:102F1000069D4E6180F823608FE7C1F82471D1F8D7
:102F200024510895089D4E6180F8236085E790F84C
:102F30002650AB4281D9D1F81875575590F82650D4
:102F40000135EDB2754580F8265006D0AB423FF40E
:102F500074AF0E6271E74E616FE7C1F800C2F8E727
:102F60002DE9F0430024C1F804418FB0D1F8045199
:102F70000495049DC1F82441D1F824510395039D83
:102F8000C1F81C41D1F81C510295029DC1F80841BD
:102F9000D1F8085101950125019EC1F8004280F841
:102FA000264080F823400D628D6090F826409DF801
:102FB0005870A34213D9145DC1F81C4590F82640FF
:102FC0002C4480F8264004687CB140F2862383605C
:102FD0008368C1F8043300200FB0BDE8F083002FF0
:102FE00048D0CD610468002CEFD103F1FF3C4FF0D5
:102FF000010E4FF0020890F82350002D3CD1D1F87B
:10300000246190F82690002E49D0C1F82451D1F8BF
:1030100024510A950A9DC1F814E080F823E04B453D
:10302000E9D1D1F80451002DE5D00023C1F80431D5
:10303000D1F804310593059B90F82330002B6AD01A
:10304000D1F8C434C1F8C434002B64D013F0010F9C
:1030500018BF4FF4024048F2012208BF032013F0CA
:10306000020F18BF104648F2022213F0040F18BFD7
:103070001046B1E74D61A6E7C1F82441D1F82451CB
:103080000B950B9DC1F81C41D1F81C510C950C9D62
:10309000C1F80841D1F808510D950D9DC1E7D1F84F
:1030A0001C51ADB1C1F81C61D1F81C510995099DA5
:1030B000D1F8245125BB90F82650AB4245D9555D37
:1030C000C1F81C5590F82650013580F82650A6E727
:1030D000D1F80861002EA2D0C1F80851D1F80861DA
:1030E0000796079ED1F82461CEB1C1F82451D1F8DA
:1030F00024510695069DC1F814E080F823E08EE780
:10310000C1F82461D1F824510895089DC1F814E054
:1031100080F823E083E700200FB0BDE8F08390F84B
:103120002650AB427FF67BAFD1F81865565590F824
:1031300026500135EDB2654580F826500CD0AB42E3
:103140003FF46DAFC1F820E069E717B10123CB610F
:1031500072E7C1F814E062E7C1F80082F2E700BF4D
:103160002DE9F04F0579244EAF0007EB050E4FEA2D
:10317000CE0E06EB0E0C83B09CF822401CB108204A
:1031800003B0BDE8F08F46F80E20CCF80840CCF82C
:1031900004308CF825408CF824408B7B8CF8273049
:1031A0004B7B5BBB0B684FF0A04403F5E07340F230
:1031B0000C6E44F823E04B6803F5E07344F823E019
:1031C00091E810400368C3F80845C3F80CE58C6823
:1031D000C3F824452AB10068097B40F30730FEF7A5
:1031E000E3FE3D4406EBC5050123002085F82230AF
:1031F00003B0BDE8F08F00BFDC1200200B68DFF8E1
:10320000A092DFF8A0E24FF0A04C03F5E07340F28B
:103210000C6A4CF823A04B6803F5E0734FF00108EB
:103220004CF823A00B6808FA03F3CCF808354B6878
:1032300008FA03F3CCF808350B6803F5E07340F2A5
:103240000D6B4CF823B04B6803F5E0734FF0040AA4
:103250004CF823B05346D9F8009000BF00BF00BF20
:1032600000BF00BF00BF00BF00BFF1452FD000BFAF
:1032700000BF00BF00BF00BF00BF00BF00BF00BF56
:1032800000BF00BF00BF00BF00BF00BF00BF00BF46
:1032900000BF00BF00BF00BF00BF00BF00BF00BF36
:1032A00000BF00BF00BF00BF00BF00BF00BF00BF26
:1032B00000BF00BF00BF00BF00BF00BF00BF00BF16
:1032C00000BF00BF00BF00BF00BF00BF00BF013B89
:1032D000C3D10195D1F804B0DCF8103523FA0BF313
:1032E000DB07554600F1D6800B6808FA03F3CCF8EB
:1032F0000C3500BF00BF00BF00BF00BF00BF00BF54
:1033000000BFF1452FD000BF00BF00BF00BF00BF0E
:1033100000BF00BF00BF00BF00BF00BF00BF00BFB5
:1033200000BF00BF00BF00BF00BF00BF00BF00BFA5
:1033300000BF00BF00BF00BF00BF00BF00BF00BF95
:1033400000BF00BF00BF00BF00BF00BF00BF00BF85
:1033500000BF00BF00BF00BF00BF00BF00BF00BF75
:1033600000BF00BF00BF013DC3D10B6808FA03F3E3
:10337000CCF80835534600BF00BF00BF00BF00BFF8
:1033800000BF00BF00BFF1452FD000BF00BF00BF8E
:1033900000BF00BF00BF00BF00BF00BF00BF00BF35
:1033A00000BF00BF00BF00BF00BF00BF00BF00BF25
:1033B00000BF00BF00BF00BF00BF00BF00BF00BF15
:1033C00000BF00BF00BF00BF00BF00BF00BF00BF05
:1033D00000BF00BF00BF00BF00BF00BF00BF00BFF5
:1033E00000BF00BF00BF00BF00BF013BC3D101341D
:1033F000092C7FF46FAF019D4B68DFF8A880012492
:103400004FF0A04E04FA03F34FF0040CCEF80C3545
:10341000634600BF00BF00BF00BF00BF00BF00BFCA
:1034200000BFC1452FD000BF00BF00BF00BF00BF1D
:1034300000BF00BF00BF00BF00BF00BF00BF00BF94
:1034400000BF00BF00BF00BF00BF00BF00BF00BF84
:1034500000BF00BF00BF00BF00BF00BF00BF00BF74
:1034600000BF00BF00BF00BF00BF00BF00BF00BF64
:1034700000BF00BF00BF00BF00BF00BF00BF00BF54
:1034800000BF00BF00BF013BC3D14B689C40CEF8DA
:10349000084587E6019D002C3FF484AE5B46ACE70F
:1034A000640000200024F4000379064A016803EB5D
:1034B000830302EBC3030220052283F82200C1F834
:1034C00000257047DC120020930701D006207047CA
:1034D0002DE9F04306792D4FD0F800E04FEA860839
:1034E00008EB06054FF0FF3307EBC505CEF80833B0
:1034F00095F8243083B033B1AB68CEF80433112093
:1035000003B0BDE8F08382F00403C3F3800312F03C
:10351000080985F8243001D00620F1E7AA610C469D
:10352000134607C905F10C0C8CE80700A27885F852
:1035300020206268EA616278CEF888252278012A24
:103540001BD0C2B9C3F3401308EB060207EBC2025B
:10355000009382F82130A378626871462846FFF70D
:10356000FFFC4644F600094ABB59002BC8D116445B
:1035700086F82430C4E70123E6E785F821907146F8
:103580002846A3786268FFF70BFCEAE7DC1200200C
:10359000F0B5714B714A93F8231091B0A9B9D2F8E4
:1035A000240193F8205093F8264000284AD0C2F80E
:1035B0002411D2F8241108910121089883F82310CE
:1035C0005161A54214D011B0F0BD0021C2F8241100
:1035D000D2F8240109900998C2F81C11D2F81C01F4
:1035E0000A900A98C2F80811D2F808210B920B9A97
:1035F0005A4AD2F804110029E5D00021C2F804117A
:10360000D2F804210392039A93F823205248002A07
:1036100033D1017B8A1E012A69D9514A07CA10ADEC
:1036200005E9070000248DF830409A694A480021D6
:10363000540783F82410C6D4036841680CA898473F
:1036400011B0F0BDD2F81C11DE6961B3C2F81C01E3
:10365000D2F81C1107910799D2F8241193F8217020
:10366000002958D0C2F82401D2F824110691012172
:10367000069883F823105161A3E70C3007C810ACFB
:1036800004E907003549D1F8C424C1F8C4249107DE
:1036900003D501228DF83020C7E7550744BF022229
:1036A0008DF83020C1E7D2F80801002889D0C2F88F
:1036B0000811D2F8080105900598D2F824010028D5
:1036C00036D1A5427FF67DAFD2F81815315593F863
:1036D00026100131C9B2681E814283F8261032D00B
:1036E0008D423FF46EAF1D4A0121116269E7C46942
:1036F0000269944291D184694269C37BC261C4F377
:103700004014032980F8214080F820301FD013494D
:10371000FFF746FB57E7A54203D801218FB1D161DE
:1037200072E7315DC2F81C15621C83F8262048E759
:10373000C2F82411D2F8241104910498012183F8CD
:10374000231051613DE70221C2F80012CBE700943B
:103750000249FFF705FC36E7DC120020003000408C
:10376000E81200202DE9F843294A2A4B0025C2F827
:103770004051C2F84451C2F84851C2F84C51C2F805
:103780000051C2F804511B681BB32349D2F8042529
:103790000C68224F141B1A6824F07F44A242A846EA
:1037A00009D8197CDE69A41A1544A1B91EB13346A3
:1037B0001A68A242F5D91A4B1A491A780B789A421C
:1037C0001ED01949194A41F823504FF48013C2F80A
:1037D0000031BDE8F883D3F8149083F810803A687C
:1037E0009B694846194642B190470028DED0104AEE
:1037F0004FF4A771FEF7F4F9D8E71846C847D5E7A4
:10380000531CDBB2022B08BF00230B70D9E700BFAB
:103810000010014008130020041300200C130020A6
:1038200010130020111300201C13002000E100E001
:10383000FC7C01002DE9F04FA44AA54913780978D2
:10384000A44889B000680090994200F0EB800133F1
:10385000DBB2022B08BF002313709F4A52F823608B
:10386000009B9C4A334423F07F4313604FF0010ECA
:103870009A4B079693F800A0994BCDF818A0D3F86F
:103880000090964B5B7801931D46944BD3F804B09F
:103890009B7802931C46934B1B7804938D4B002717
:1038A0001B68039351464A464B460597BC4638462B
:1038B0002646B846A9421AD001EB410401311BF853
:1038C0003470C9B2B14208BF0021022F0BEBC4040F
:1038D00000F08380032FEDD1002BEBD0DA69187450
:1038E0001346002AFAD1A9424FF0010CE4D1DDF8C9
:1038F00018A0079E4746BCF1000F40F0A380059A30
:1039000012B1744A03991160002F40F09C82BEF1FD
:10391000000F40F0C681B9EB030218BF01220792E5
:10392000059375461E466B4ACDF810B0D2F800C01C
:103930006B4ADFF8B891D646D2F800A0694A002356
:10394000127800931F4606924FF001089B463DB344
:103950006A68A9682C46ED69CCEB020323F07F432B
:103960004B4572D80B4423606760A76084F81080D1
:10397000E761002E00F08B80316899427ED230469C
:1039800003E01168994269D21046C2695B1A002AA5
:10399000F7D12360E2613346C4611E46002DD7D1C2
:1039A000019B9E4500F0A4800EEB4E03049911F894
:1039B0003320039210460EF1010E029A5FFA8EFE3A
:1039C000724508BF4FF0000E012801EBC30364D01D
:1039D0003346012200921E46E0E76468002B3FF464
:1039E00069AF9C429A4601D115E0BA46DAF81C70DC
:1039F000002F3FF45FAFBC42F7D1BA450CD0FC6951
:103A00003F68CAF81C40002C3FF454AF23683B4485
:103A1000236013464EE71F46DA6932B113464FF072
:103A2000010CECE70026B64622E72F4B4FF00108C9
:103A3000C3F80880C44613460392CDF81080CDF831
:103A40001480DCE726490A6059E7C2EB0C0222F039
:103A50007F428A4209D28B1A236085E7C91A116016
:103A60002360E2613346C46197E727606760A7601F
:103A700084F81080E76156B131680023CB1A3360B7
:103A80002346E661A2464FF0010B1E4686E7234619
:103A9000A2464FF0010B1E4680E75C68227C009234
:103AA00082B99A686260D968A1601869E0605B6950
:103AB000A361069B002B00F0F180009A62600093E6
:103AC0002A4649E733461E4668E700BF1013002028
:103AD00011130020041300201C13002014130020D5
:103AE000081300201213002000100140FEFF7F0089
:103AF000009B5A46002B40F0AE8112B1824BC3F8B6
:103B000000A0059BB34200F0BF80002E00F00A81A8
:103B10007E497F4CD1F8040525783368CCEB000250
:103B200022F07F420332002D50D17A4DDFF8ECE1D4
:103B3000794F4FF48036C1F84463C1F804634FF401
:103B40000036C5F880612E6001250D60DEF800604A
:103B50002F2100BF00BF00BF00BF00BF00BF00BFDC
:103B600000BFBE422FD000BF00BF00BF00BF00BFDC
:103B700000BF00BF00BF00BF00BF00BF00BF00BF4D
:103B800000BF00BF00BF00BF00BF00BF00BF00BF3D
:103B900000BF00BF00BF00BF00BF00BF00BF00BF2D
:103BA00000BF00BF00BF00BF00BF00BF00BF00BF1D
:103BB00000BF00BF00BF00BF00BF00BF00BF00BF0D
:103BC00000BF00BF00BF0139C3D1257093422CBF95
:103BD0009C4494444D492CF07F43C1F84035D1F8C2
:103BE0000425121A1B1A22F07F4223F07F4303326E
:103BF0009A424DD9D1F80435484AC1F84035126887
:103C000045492F2300BF00BF00BF00BF00BF00BF5A
:103C100000BF00BF8A422FD000BF00BF00BF00BF5F
:103C200000BF00BF00BF00BF00BF00BF00BF00BF9C
:103C300000BF00BF00BF00BF00BF00BF00BF00BF8C
:103C400000BF00BF00BF00BF00BF00BF00BF00BF7C
:103C500000BF00BF00BF00BF00BF00BF00BF00BF6C
:103C600000BF00BF00BF00BF00BF00BF00BF00BF5C
:103C700000BF00BF00BF00BF013BC3D1254B4FF4C5
:103C80000032C3F8002103E0079B002B7FF43DAF17
:103C9000234A0023137009B0BDE8F08F039B009303
:103CA0005AE6194ADDF800C01768002005460146AB
:103CB0000446ABB11A68B2421BD8D8681C60B61A69
:103CC0001144DA6938B10CEB010727F07F47DD6159
:103CD00098605F601D46134617467046002BE9D179
:103CE000002840F0BC800023059301230793059E24
:103CF00019E6002840F0AC80921B05931A6001235E
:103D00000793059E0FE600BF081300200010014036
:103D10002413002000E100E00024F40064000020EF
:103D2000121300204F4A504B504D51484FF48031F0
:103D30004FF400370124C3F88070C2F848132F23D2
:103D4000C2F80813546029681D4600BF00BF00BFB9
:103D500000BF00BF00BF00BF00BF81422FD000BF27
:103D600000BF00BF00BF00BF00BF00BF00BF00BF5B
:103D700000BF00BF00BF00BF00BF00BF00BF00BF4B
:103D800000BF00BF00BF00BF00BF00BF00BF00BF3B
:103D900000BF00BF00BF00BF00BF00BF00BF00BF2B
:103DA00000BF00BF00BF00BF00BF00BF00BF00BF1B
:103DB00000BF00BF00BF00BF00BF00BF00BF013D8C
:103DC000C3D194602B4A166000BF00BF00BF00BF84
:103DD00000BF00BF00BF00BF81422FD000BF00BFA7
:103DE00000BF00BF00BF00BF00BF00BF00BF00BFDB
:103DF00000BF00BF00BF00BF00BF00BF00BF00BFCB
:103E000000BF00BF00BF00BF00BF00BF00BF00BFBA
:103E100000BF00BF00BF00BF00BF00BF00BF00BFAA
:103E200000BF00BF00BF00BF00BF00BF00BF00BF9A
:103E300000BF00BF00BF00BF00BF00BF013BC3D138
:103E40000D4B1E7024E70D4A9DF8101011705EE5B1
:103E50000B490F6050E70B4B83F800E04DE6084B31
:103E60001F6040E70010014000E100E06400002016
:103E70000024F40004130020241300201213002057
:103E80000813002014130020411A21F07F41116013
:103E9000002070475AB1F8B54379114F114D03EB2B
:103EA000430445F823203C5D1CB10820F8BD0720E1
:103EB000704705460E4690F904008978FEF774F8BD
:103EC0002B683288C3F808256B79F178357903EBD4
:103ED0004303FA180126FE54557091702046F8BD30
:103EE0002C130020281300200368044A01211960C4
:103EF000437903EB43030221D15470472C13002074
:103F000010B53B4BD3F80423D20384B003D5394A10
:103F1000116800293CD1364BD3F80423940303D510
:103F2000354A1168002942D1314BD3F8042350039C
:103F300003D5324A1168002949D12D4BD3F8042307
:103F4000D10702D5D3F80021B2B9294BD3F8042305
:103F5000920702D5D3F804210AB904B010BD00229B
:103F6000C3F80421264AD3F80431019305201368CD
:103F7000019A984704B010BD0022C3F80021204ADE
:103F8000D3F80031029304201368029A9847DCE7C3
:103F90004FF480310020C3F84813194CC3F80813BC
:103FA0001060136803932368039A9847B3E74FF4AC
:103FB00000310024C3F848131148C3F808131460F3
:103FC000136803930368039A01209847ACE74FF402
:103FD00080210024C3F848130948C3F8081314606B
:103FE000136803930368039A02209847A5E700BF6C
:103FF00000B0004040B1004044B1004048B1004032
:104000002813002038B50A4D2C780CB1852038BD16
:10401000204606216C60AC602C61EC60FDF7C4FFAB
:104020004FF080420123C2F818352B70204638BD6E
:104030003013002030B5164CA37883B0054673B119
:1040400010B14368012098470020FDF79BFFE3680B
:1040500000200133E360FDF79DFF03B030BD03F0A6
:10406000FF00FDF78FFF15B123692B602561E36821
:10407000002BECD1074A08491360136801934FF0F5
:10408000804202200123019DC2F804030B60DEE799
:1040900030130020040100400800004010B51A4B06
:1040A0001A6882B0A2B100221A601B6800934FF018
:1040B00080430122154C0099C3F80823A36862705D
:1040C00033B10CCB0020A2609847A368002BF8D135
:1040D0000F4B1A68AAB100221A601B6801934FF0B7
:1040E00080430222094C0199C3F808232369012265
:1040F000A27033B10CCB0120226198472369002BB9
:10410000F8D102B010BD00BF000100403013002004
:104110000401004030B5184C94F8455083B015B1F7
:10412000082003B030BD06214FF0FF33084663621C
:10413000A362E36223636363A363E3632364236093
:104140006360A360E36023616361A361E361236251
:1041500084F84430FDF728FF084B094A1D601B68AE
:10416000019301984FF000430121284684F845103F
:10417000C2F8043303B030BD441300207C6100401A
:1041800000600040F0B4454B1C1894F92450002DF9
:1041900002DB0820F0BC7047CD78D5B11E6801362F
:1041A00021D05C68013477D09C68013472D0DC681F
:1041B00001346DD01C69013468D05C69013463D06E
:1041C0009C6901345ED0DC6901344ED00420F0BC1F
:1041D00070471D6A0135F9D1082584F824502E4610
:1041E0001A622C464AE0002584F824501A602C46B6
:1041F0008A78AAB1820002F1A042D2F8005725F0D5
:104200000205C2F80057CA789AB9083C23440878D6
:1042100093F8441041EA801183F844101046B9E73E
:104220004D784FF0A04600F5E072AD0046F8225000
:10423000E9E7A30003F1804303F5C0430A78D3F80C
:10424000101521F4473121F44071C3F81015120400
:10425000000202F44031D3F8104500F4F8520A434A
:104260002243C3F81025002094E707261F1874B2D4
:1042700043F8262087F82440002DB9D11E4486F843
:104280003C00B5E70626F1E70526EFE70426EDE753
:104290000326EBE70226E9E70126E7E744130020BF
:1042A000F0B42E4D2E1882B096F92430072B1CDD69
:1042B0002B4493F83C309B09032B41D0012B14BFB6
:1042C0004FF440334FF40033800000F1A040D0F8A9
:1042D000002722F44032C0F80027D0F8002713430B
:1042E000C0F8003702B0F0BC7047DAB2072AF9D83C
:1042F000980000F1804000F5C04003F140029200B8
:10430000D0F8104592B202F18042002744F0010437
:1043100002F5C042C0F810450197019817600029C6
:10432000E0D096F9242055F82220002ADAD0012284
:104330000B4902FA03F3C1F8043302B0F0BC704732
:104340004FF0A0420123D2F81025834013420CBF46
:104350004FF400334FF44033B6E700BF441300205E
:10436000006000402DE9F043954B1A68012A83B0A4
:1043700000F0F4800026934B1A68012A00F0E080D8
:10438000914B1A68012A00F0CD80904B1A68012ADF
:1043900000F0BA808E4B1A68012A00F0A7808D4B7E
:1043A0001A68012A00F094808B4B1A68012A00F0E9
:1043B00081808A4B1A68012A6FD0894B1A68012ABA
:1043C0005FD0002716F0FF0F1BD0DFF81882012501
:1043D0000024A30003F180432E4203F5C0434FEABB
:1043E00045050BD0D3F8100558F82420D3F8101544
:1043F000C0F30420C1F3014102B190470134082CFD
:10440000E7D1002E02DB03B0BDE8F083754C4FF01E
:10441000FF33264600254FF0010894F944104A1C4A
:10442000F1D0C9B221F0C000C340DB07EBD533188F
:10443000890993F9243056F82390B9F1000F00F060
:104440009B80032908FA00FE00F09B80830003F1A3
:10445000A04317EA0E0FD3F80027C2F3014209D197
:10446000032AD0D1032900F08F80B9F1000FCAD000
:10447000C847C8E7022AC6D10329F6D14FF4403114
:1044800084E000221A601B6801934FF0A043019A58
:10449000D3F8107546F0004694E7534AD2F8042347
:1044A00011068AD500221A601B680093009B46F013
:1044B000800682E74C4AD2F8042350067FF579AF94
:1044C00000221A601B680093009B46F0400670E7CC
:1044D000454AD2F8042394067FF566AF00221A609D
:1044E0001B680093009B46F020065DE73E4AD2F829
:1044F0000423D5067FF553AF00221A601B68009392
:10450000009B46F010064AE7374AD2F80423170703
:104510007FF540AF00221A601B680093009B46F0B5
:10452000080637E7304AD2F8042352077FF52DAF4B
:1045300000221A601B680093009B46F0040624E7E3
:10454000294AD2F8042391077FF51AAF00221A6096
:104550001B680093009B46F0020611E72249D1F840
:10456000046316F001063FF406AF002119601B68D2
:1045700000931646009BFEE603297FF444AF08FA39
:1045800000FE45EA0E0561E74FF40031D3F800273D
:1045900022F44032C3F80027D3F800270A43C3F8B7
:1045A0000027B9F1000F01D00321C8474FF0A04305
:1045B000D3F810359F423FF426AF1F462B462CE719
:1045C0000061004004610040086100400C6100404F
:1045D0001061004014610040186100401C610040FF
:1045E0007C61004044130020006000400378012BF0
:1045F00004BF014A137070478C130020F0B51A4FA6
:104600003B7889B01BB1194B1B78834229D0184DD8
:1046100006460FCD6C460FC495E80F004FF0000E14
:1046200084E80F001A251C211B224FF0EB73114860
:104630000391192402928DF814E0009501940693D9
:10464000FDF7B6FD002E0C4A0A4818BF0022694645
:10465000FDF7D2FC18B9054A012316703B7009B06A
:10466000F0BD002009B0F0BD8E1300208D13002096
:10467000387D0100A4000020ED4500000120FFF777
:10468000BDBF00BF2DE9F041214C074600200E467A
:10469000D4F808802568FDF775FC94E80C00A16843
:1046A0000B4401339B1A012B19D89BB10120002325
:1046B00060F301036FF382030520114060F3C5032B
:1046C000144804EB81016FF38913013260F39F23D7
:1046D0002260CB600020BDE8F041FDF75BBC0132F9
:1046E00000202260FDF756FC0122002362F3010343
:1046F0006FF3820308EA050567F3C50304EB85043D
:104700006FF3891366F39F23E360BDE8F08100BF78
:1047100090130020587D01002DE9F0474C4E96E89B
:104720000C009A428AB070D0B06804E0C4F38912D9
:1047300002EB9452134400EA0305023506EB8502AE
:104740000133546814F00302F0D0022A28D0C4F3D5
:104750008312C4F3952C002A75D00DF1100E754606
:10476000D71800EA030106EB81010133C96845F857
:10477000041BBB42F5D10092C4F3C20073466246EB
:10478000D6F81044324D0021A04738B17760306828
:10479000C01B18BF01200AB0BDE8F0876F68F6E7BC
:1047A00003F1010A20EA0A010340013106EB830309
:1047B00089004FEA94588845DA68DFF894E0C4F33A
:1047C000891326D9A9B300EA0A0C5FFA81F90EEB26
:1047D0008C0CC9EB08010CF10C0C0EF10C00C9B2E9
:1047E00003910290CDF80490CDF800C00021C4F3ED
:1047F000C200D6F81474B847404520D006EB8505B2
:1048000060F38F146C607768C1E700200AB0BDE8E0
:10481000F08700EA0A000EEB80000C308DE8010101
:104820000021DEF8149403910291C4F3C200C8473A
:10483000E2E70EF10C0C08465FFA88F9D0E7033086
:104840000AEB9007A2E71F460DF1100E93E700BF99
:104850009013002008280FD80CB4F0B5012505FAF4
:1048600000F340F27F161E40C9B03EB9304649B051
:10487000BDE8F04002B07047002070474FAB0446DF
:104880001A4608A84E99019311F0E8FE061EEDDDC8
:104890001722002102A8FBF755FE24210D220A232E
:1048A0008DF809508DF80A408DF808108DF81D20FC
:1048B0008DF81E3000270DF11E05122200210DF18A
:1048C0000B00FBF73FFEF21B122AA8BF122208AB17
:1048D000D2B2D9190DF10B0011F069FE0DF10704E8
:1048E00014F8011F064811F089FEA542F8D11237CD
:1048F000BE42E2DC002049B0BDE8F04002B07047A3
:10490000647D0100002850D0F0B587B0044617221E
:1049100000216846FBF716FE201D07C823688DF8A6
:1049200006301C161F141B12061605148DF80340C2
:104930008DF8053004120B144FEA216E8DF80470C7
:104940008DF80A000F128DF807608DF808501616C2
:1049500015148DF809408DF80E10141224208DF8CE
:10496000122002210D228DF80C300A238DF81050F0
:104970008DF811408DF80BE08DF80D708DF80F60FB
:104980008DF800008DF801108DF815208DF8163087
:104990000DF1FF340DF1160514F8011F034811F055
:1049A0002DFEAC42F8D107B0F0BD7047647D010028
:1049B00000295BD0F0B587B0054617220C46684643
:1049C0000021FBF7BFFD242003210D220A238DF8CF
:1049D00002508DF800008DF801108DF815208DF82B
:1049E0001630062D40D8DFE805F010101004104FE7
:1049F0004200E3688DF8123019161A141B128DF854
:104A00000F108DF810208DF8113023686168A268AE
:104A10008DF806301C1618141B120F160E140D12EA
:104A20008DF803408DF80400141610148DF805302D
:104A300013128DF80A108DF80E208DF807708DF87E
:104A400008608DF809508DF80B408DF80C008DF83A
:104A50000D300DF1FF340DF1160514F8011F2D482E
:104A600011F0CCFDAC42F8D107B0F0BD704723681F
:104A70008DF8063019161A141B128DF803108DF8D4
:104A800004208DF80530E4E794E8005004F11400A8
:104A90000FC8A768E66825694FEA2C648DF80340C3
:104AA0004FEA2E648DF805404FEA2E4E3C168DF8E5
:104AB00006E03F144FEA266E8DF8074036142C1698
:104AC0004FEA2C4C8DF808702D140F168DF809E064
:104AD0008DF80A604FEA206E1616001409148DF83E
:104AE0000B4012141C161B148DF804C08DF80C50CA
:104AF0008DF80DE08DF80E008DF80F708DF8101008
:104B00008DF811608DF812208DF813408DF8143057
:104B10009FE700BF647D01002DE9F0412E4C84B079
:104B200094F8243000AF93B3002807F1100114BFAC
:104B30000223002301F80D3D62682368157893F87D
:104B400011800122781D00266D0011F030FD3346E2
:104B500007F1040E01227D7307F1080187F8048034
:104B60004FF002051D483D73BE73C7F808E06D465F
:104B7000FEF7E4F818B11A4A2D21FDF731F8FB7859
:104B80006374AD4600201037BD46BDE8F081A27ABF
:104B9000F2B1B0B9F87062682368157893F81180A3
:104BA0000122F91C781D00266D0011F000FD33462E
:104BB00007F1040E012287F8048007F108017D73D4
:104BC000CEE7627C12B90123FB70E4E71846DAE70E
:104BD0004FF0FF30D7E700BFAC0000207800002086
:104BE000A47D01002DE9F041674C86B0A37C00AFA5
:104BF000002B00F0BC806268236812781B79634840
:104C000007F1180652004FF0000E06F8153D012579
:104C100042F001017A730222734679753D7307F100
:104C20000801BD733D75BD1887F816E0BE603D6193
:104C3000FEF784F8A37A626813F0010FBB7814BF03
:104C400043F0200303F0DF03BB702368157893F86B
:104C500004800122B91C781D11F0A9FC4FF0000E50
:104C60006D003E1D4FF0020C7346012207F1080152
:104C700046487D7387F8048087F80EE0BE6087F8A9
:104C80000CC06D46FEF75AF8002878D1404B4149D8
:104C90001A68AD4640F6B83300BF00BF00BF00BF82
:104CA00000BF00BF00BF00BF8A422FD000BF00BFBF
:104CB00000BF00BF00BF00BF00BF00BF00BF00BFFC
:104CC00000BF00BF00BF00BF00BF00BF00BF00BFEC
:104CD00000BF00BF00BF00BF00BF00BF00BF00BFDC
:104CE00000BF00BF00BF00BF00BF00BF00BF00BFCC
:104CF00000BF00BF00BF00BF00BF00BF00BF00BFBC
:104D000000BF00BF00BF00BF00BF00BF013BC3D159
:104D100094F8223083BB302194F82320BB7002B179
:104D2000B97062682368157893F81780B91C01225E
:104D30006D00781D11F03BFC4FF0020E7D7307F102
:104D400008014FF00005002301221048BD7387F8C9
:104D50000480BE6087F80CE06D46FDF7EFFF18B1E8
:104D60000D4A2D21FCF73CFF0023AD46A374002023
:104D70001837BD46BDE8F081B0218023CCE7064A54
:104D80002D21FCF72DFF81E7AC00002078000020EA
:104D9000640000200024F400A47D01002DE9F04F00
:104DA000674C87B0A37C012B00AF00F0BB8062682A
:104DB000236812781B79634807F1180E4FF0000B37
:104DC0000EF8153D5200012542F0010C16465B46D7
:104DD00007F1080107F10208022287F815C07E7367
:104DE000C7F808E03D73BD733D7587F816B0C7F886
:104DF0001080FDF7A3FFBB786168226823F02003D1
:104E0000BB7091F8009092F804A041462A46781DA4
:104E100011F0CDFB09FA05F92A463E1D02255B4635
:104E200007F1080147483D7387F80D9087F804A003
:104E300087F80EB0BE606D46FDF780FF00287AD17E
:104E4000414B42491A68AD4640F6B83300BF00BF37
:104E500000BF00BF00BF00BF00BF00BF8A422FD00D
:104E600000BF00BF00BF00BF00BF00BF00BF00BF4A
:104E700000BF00BF00BF00BF00BF00BF00BF00BF3A
:104E800000BF00BF00BF00BF00BF00BF00BF00BF2A
:104E900000BF00BF00BF00BF00BF00BF00BF00BF1A
:104EA00000BF00BF00BF00BF00BF00BF00BF00BF0A
:104EB00000BF00BF00BF00BF00BF00BF00BF00BFFA
:104EC000013BC3D194F822300222BA707BBB32225C
:104ED00094F8233003B1BA7062682368157893F8A8
:104EE00017904146012200266D00781D11F05FFBEE
:104EF0004FF0020E7D7307F108013D1D334601227C
:104F00001048BD6087F80490BE7387F80CE06D46CA
:104F1000FDF714FF18B10E4A2D21FCF761FE0123A5
:104F2000AD46A37400201C37BD46BDE8F08F822338
:104F3000BB70B222CCE7064A2D21FCF751FE7FE779
:104F4000AC00002078000020640000200024F40061
:104F5000A47D01002DE9F04F2DED028BDFF82883B1
:104F6000ADF5117D98E8300006AF00264FF001093D
:104F700087F8296087F8289095F800A094F815B074
:104F8000B9607A6007F128010222044607F1150092
:104F90003B600AFA09FA11F00AFB07F114053346DF
:104FA0004FF0030E4A4607F11801B248BE7787F862
:104FB00014B087F81DA0BD6187F81CE06E46FDF7B0
:104FC000BDFE18B1AC4A2D21FCF70AFEAB4AAC4B32
:104FD0001268AC49B54600BF00BF00BF00BF00BFAC
:104FE00000BF00BF00BF8A422FD000BF00BF00BF7C
:104FF00000BF00BF00BF00BF00BF00BF00BF00BFB9
:1050000000BF00BF00BF00BF00BF00BF00BF00BFA8
:1050100000BF00BF00BF00BF00BF00BF00BF00BF98
:1050200000BF00BF00BF00BF00BF00BF00BF00BF88
:1050300000BF00BF00BF00BF00BF00BF00BF00BF78
:1050400000BF00BF00BF00BF00BF013BC3D14FF096
:105050000009D8F8043087F8289093F800A0D8F811
:10506000003007F12801012207F1150093F811B073
:105070004FEA4A0A11F09BFA07F114054FF0020EAD
:105080004B4607F1180101227A4887F81DA087F8DE
:1050900014B0BD6187F81E9087F81CE0FDF74EFE46
:1050A00018B1754A2D21FCF79BFDD8F80420D8F8DB
:1050B000003092F800A093F80590012207F1280132
:1050C000B54607F1150011F072FA4FF0000E4FEAE5
:1050D0004A0A4FF0020C07F114057346012207F14A
:1050E0001801644887F81DA087F81490BD6187F8FF
:1050F0001EE087F81CC0FDF721FE18B15E4A2D2185
:10510000FCF76EFDD8F80420D8F8003092F800A023
:1051100093F81590012207F12801B54607F1150013
:1051200011F045FA4FF0000E4FEA4A0A4FF0020C18
:1051300007F114057346012207F118014D4887F85D
:105140001DA087F81490BD6187F81EE087F81CC089
:10515000FDF7F4FD18B1484A2D21FCF741FDD8F8C0
:105160000420D8F8003092F800A093F81A90012299
:1051700007F12801B54607F1150011F018FA4FF0B4
:10518000000E4FEA4A0A4FF0020C07F1140573466D
:10519000012207F11801374887F81DA087F81490FD
:1051A000BD6187F81EE087F81CC0FDF7C7FD002829
:1051B00040F01B84D8F80420D8F8003092F800A002
:1051C00093F80490012207F12801B54607F1150074
:1051D00011F0EDF94FF0000E4FEA4A0A4FF0020CC1
:1051E00007F114057346012207F11801214887F8D9
:1051F0001DA087F81490BD6187F81EE087F81CC0D9
:10520000FDF79CFD002840F0F6830C23D8F804201D
:1052100087F82830D8F8003092F800A093F804906E
:10522000012207F12801B54607F1150011F0BFF979
:105230004FF0000E4FEA4A0A4FF0020C07F1140536
:105240007346012207F118010A4887F81DA087F864
:105250001490BD6187F81EE087F81CC0FDF76EFD55
:10526000002840F0CD83054A0649126843F698238A
:10527000B5460BE078000020A47D0100640000200A
:10528000400D03000024F400AC00002000BF00BF6C
:1052900000BF00BF00BF00BF00BF00BF8A422FD0C9
:1052A00000BF00BF00BF00BF00BF00BF00BF00BF06
:1052B00000BF00BF00BF00BF00BF00BF00BF00BFF6
:1052C00000BF00BF00BF00BF00BF00BF00BF00BFE6
:1052D00000BF00BF00BF00BF00BF00BF00BF00BFD6
:1052E00000BF00BF00BF00BF00BF00BF00BF00BFC6
:1052F00000BF00BF00BF00BF00BF00BF00BF00BFB6
:10530000013BC3D1D8F83430D8F804205B7A87F851
:105310002830D8F8003092F800A093F8029007F1F6
:105320002801012207F1150011F041F94FF0000E9C
:105330004FEA4A0A4FF0020C07F1140507F1180171
:1053400073460122B14887F81DA087F81490BD610B
:1053500087F81CC087F81EE0FDF7F0FC002840F03D
:105360005483D8F83430D8F804201B7A87F82830D2
:10537000D8F8003092F800A093F80190012207F1CC
:105380002801B54607F1150011F011F94FF0000E94
:105390004FEA4A0A4FF0020C07F114057346012246
:1053A00007F11801994887F81DA087F81490BD618E
:1053B00087F81EE087F81CC0FDF7C0FC002840F00D
:1053C00073837B68B546002B00F06A83D8F83430CD
:1053D0009B7A43F0E003D8F8042087F82830D8F807
:1053E000003092F800909E79012207F1280107F120
:1053F000150011F0DCF84FF0000E4FEA49094FF0AC
:10540000020C07F114057346012207F118017F48C9
:105410003E7587F81D90BD6187F81EE087F81CC0B7
:105420006E46FDF78BFC18B1794A2D21FCF7D8FBAD
:105430007B68B54623B1D8F83430DB7A43F0E0031B
:10544000D8F8042087F82830D8F8003092F8009077
:10545000DE79012207F1280107F1150011F0A7F804
:105460004FF0000E4FEA49094FF0020C07F1140506
:105470007346012207F1180164483E7587F81D90B4
:10548000BD6187F81EE087F81CC06E46FDF756FC2C
:1054900018B15F4A2D21FCF7A3FB5E4A5E4B1268F0
:1054A0005E49B54600BF00BF00BF00BF00BF00BFE0
:1054B00000BF00BF8A422FD000BF00BF00BF00BFA7
:1054C00000BF00BF00BF00BF00BF00BF00BF00BFE4
:1054D00000BF00BF00BF00BF00BF00BF00BF00BFD4
:1054E00000BF00BF00BF00BF00BF00BF00BF00BFC4
:1054F00000BF00BF00BF00BF00BF00BF00BF00BFB4
:1055000000BF00BF00BF00BF00BF00BF00BF00BFA3
:1055100000BF00BF00BF00BF013BC3D14023D8F88C
:10552000042087F82830D8F8003092F800A093F8CB
:10553000049007F12801012207F1150011F037F856
:105540004FF0000E4FEA4A0A4FF0020C07F1140523
:1055500007F11801734601222C4887F81DA087F82F
:105560001490BD6187F81CC087F81EE0FDF7E6FBCC
:1055700018B1274A2D21FCF733FB7823D8F80420F3
:1055800087F82830D8F8003092F800A093F80590FA
:10559000012207F12801B54607F1150011F007F8BF
:1055A0004FF0000E4FEA4A0A4FF0020C07F11405C3
:1055B0007346012207F11801144887F81DA087F8E7
:1055C0001490BD6187F81EE087F81CC0FDF7B6FB9C
:1055D00018B10F4A2D21FCF703FBBA683B68002184
:1055E000A16061602160B546916051601160002B3F
:1055F00040F05F820023DFF82890BD68FB60054A19
:105600000649126842F210730CE000BF78000020D7
:10561000A47D010064000020400D03000024F4007C
:10562000AC00002000BF00BF00BF00BF00BF00BF34
:1056300000BF00BF8A422FD000BF00BF00BF00BF25
:1056400000BF00BF00BF00BF00BF00BF00BF00BF62
:1056500000BF00BF00BF00BF00BF00BF00BF00BF52
:1056600000BF00BF00BF00BF00BF00BF00BF00BF42
:1056700000BF00BF00BF00BF00BF00BF00BF00BF32
:1056800000BF00BF00BF00BF00BF00BF00BF00BF22
:1056900000BF00BF00BF00BF013BC3D198E80C00B2
:1056A0001B78127BBA745B0043F0010287F8252057
:1056B00007F1120202264FF0000E7B77BA61012338
:1056C00007F128023A623B773246BB77D14887F828
:1056D0002460734607F1180187F826E0FDF72EFBDA
:1056E00097F8282097F82930CB4E43EA0223A6FBEF
:1056F0000336FB68C6F3C706C3F1C803B34280F2A2
:105700009581DEB2D9F80030D9F804205B7B12789D
:10571000FB7406EB46039B0013F0FF0140F09D81F4
:1057200006F1FF3C5FFA8CFC0CF1010C0CEB4C0C0D
:1057300007F1280303EB8C0C5A78187893F802B021
:1057400093F803A0597993F804E042EA00206A68CC
:105750004AEA0B2A02FA8AF26A6041EA0E2E2A68A5
:10576000A96893F806A093F80AB001FA8EF102FA3C
:1057700080F2A9602A6093F807E0197A5A7A2068C3
:105780004EEA0A2A42EA012EDA7A00FA8AF1216008
:10579000A068616842EA0B220C3301FA8EF100FA2C
:1057A00082F29C456160A260C6D1FB683344C72B7E
:1057B000FB607FF724AF3B68BD60002B40F07E812B
:1057C0000026D8F8043087F8286093F80090D8F8BD
:1057D00000305B7907F128011D46012207F1150011
:1057E00010F0E5FE4FEA490933464FF0020E3D75D1
:1057F00007F1180107F1140501228648BE7787F8E2
:105800001D90BD6187F81CE06E46FDF797FA18B150
:10581000824A2D21FCF7E4F92068C3171904FB68BC
:10582000B5461D46DE1741EA1041832200230004DD
:1058300010F08CFC2A46334610F088FC6368206028
:10584000D917090441EA134118048322002310F0F8
:105850007DFC2A46334610F079FCA3686060D917B6
:10586000090441EA134118048322002310F06EFC5E
:105870002A46334610F06AFCBB68A060D3F800E00B
:105880007046C11709044FEA0E4241EA1E43002A3E
:1058900073F10001C0F22781900B40EA8340991315
:1058A0002A46334610F052FCB968D1F804E082462B
:1058B0007046C1F800A0C11709044FEA0E4241EA40
:1058C0001E43002A73F10001C0F20781900B40EAE9
:1058D000834099132A46334610F038FCBA68916821
:1058E000CB171B044FEA014843EA1149B8F1000FF6
:1058F000834679F10003C2F804B0C0F2E6804FEAB3
:10590000983033462A4640EA89404FEAA93110F0E0
:105910001DFC012871F10003BB68ACBFA0F580300D
:1059200000F5803098603B68002B56D007EE900A57
:105930009FED3B8AF8EEE77A67EE887A17EE900AD9
:105940000FF07AFF07EE90BAF8EEE77ACDE904019E
:1059500067EE887A17EE900A0FF06EFF07EE90AAB6
:10596000F8EEE77ACDE9020167EE887A17EE900A41
:105970000FF062FF7D682B4A2B46CDE90001002124
:105980000420FEF767FFD4ED027AF8EEE77A67EEBF
:10599000887A17EE900A0FF04FFFCDE90401D4ED9D
:1059A000017AF8EEE77A67EE887A17EE900A0FF040
:1059B00043FFCDE90201D4ED007AF8EEE77A67EE15
:1059C000887A17EE900A0FF037FF2B46CDE90001D9
:1059D000154A00210420FEF73DFF002007F50B7754
:1059E000BD46BDEC028BBDE8F08F0C4A2D21FCF7C3
:1059F000F7F8FFF7DFBB094A2D21FCF7F1F804E4C3
:105A0000064A2D21FCF7ECF82DE4044A2D21FCF781
:105A1000E7F8A6E478000020ABAAAAAAA47D0100BA
:105A200000008037F47D0100287E0100D9F80030A5
:105A3000D9F804205B7B1278FB7406EB46039B00CD
:105A400013F0FF0109D1002E7FF46AAEFB683344E6
:105A5000C72BFB607FF7D3ADADE607F11300520013
:105A60004FF0000AB86107F1280042F0010C4FF036
:105A7000010E7A77386287F824105346022207F124
:105A800018011C4887F825C087F826A087F81CE075
:105A900087F81EE0FDF752F9002E7FF441AED5E7FE
:105AA000D8F834309B7A96E4134A2D21FCF798F805
:105AB00087E4124A0420FEF7CDFE9BE5FB68104AFE
:105AC00000210420FEF7C6FE7AE643F6FF720023AB
:105AD00018EB020849EB030911E743F6FF700021B8
:105AE00012184B41F2E643F6FF70002112184B41A9
:105AF000D2E600BF78000020A47D0100C87D01002F
:105B0000E47D01002DE9F047254FD7F8049099F87E
:105B1000043088B0002B3FD09C460024B8463D6836
:105B20006B7BA34234D02D7E1E480026A5420DF18A
:105B3000200A4FF0010E33464FF0020204A927D08D
:105B400099F800500AF8114D05FA0EF545EA0E0CC9
:105B50008DF815500DF10E058DF81DC08DF814E06F
:105B60008DF816E08DF81CE0CDF810A006958DF8A4
:105B70001E60FDF7E3F89DF80E3000933146234692
:105B8000094A0420FEF766FED8F8049099F804C08C
:105B90000134E4B26445C2D3002008B0BDE8F08708
:105BA000AC000020780000205C7E0100F0B5274B9F
:105BB0009A7A120789B045D55A681B681278DB7B40
:105BC0000E4608A9520001F8193D42F001070025D0
:105BD0008DF81520012204460DF1080E2B468DF894
:105BE0001D70049106278DF814208DF8162004A945
:105BF00002221748CDF818E08DF81C708DF81E5061
:105C0000FDF79CF89DF808E09DF809109DF80A70D2
:105C10009DF80B209DF80C009DF80D3041EA0E21F7
:105C200042EA072243EA002321806280A3802EB14A
:105C3000FBF7A6FF3060284609B0F0BD3546284680
:105C400009B0F0BD4FF0FF35F5E700BFAC00002014
:105C500078000020F0B52B4DAB7A87B0002B4ED0EA
:105C600095E80C000E4606A91B78127C01F8152D4C
:105C70005B004FF0020E00248DF80D30029143F0CE
:105C8000010301218DF81530724623468DF8164028
:105C90008DF80C1001AC8DF80E10074602A91A48B9
:105CA00004948DF814E0FDF749F89DF804209DF860
:105CB000053043EA02231CB216B1FBF761FF3060E6
:105CC0006B689FED126AB3F90820DB8807EE902A13
:105CD00007EE104A06EE903AB8EEC77AF8EEE77A89
:105CE000F8EEE66A77EE677A002087EEA67A77EE1E
:105CF000067AFEEEC87AC7ED007A07B0F0BD4FF025
:105D0000FF30FAE7AC0000207800002000000C42D1
:105D10002DE9F047BC4C84B0A37A00AF002B00F013
:105D2000788207F110054FF0000305F80D3D626819
:105D3000236892F8008093F8119029460122781D7B
:105D400010F035FC4FEA480807F1040A4FF0020E44
:105D50004FF00006002307F108010122AB4887F845
:105D60000D8087F80490BE73C7F808A087F80CE090
:105D7000E846FCF7E3FF18B1A54A2D21FBF730FFF9
:105D800062682368127893F8059016462946012226
:105D9000C546781D10F00BFC730019464FF0000E3D
:105DA0004FF0020C79737346012207F108019748FE
:105DB00087F80490C7F808A087F80EE087F80CC0B1
