:1000000000000120650500008D0500008F0500003F
:100010009105000093050000950500000000000018
:100020000000000000000000000000009705000034
:1000300099050000000000009B0500009D050000E0
:10004000694000009F0500003D2600007935000052
:100050009F0500009F050000314300009F05000040
:100060009F0500009F0500009F050000CD3E000099
:100070009F0500009F0500009F0500009F050000F0
:100080009F050000513700009F0500009F050000FC
:10009000253800009F0500009F0500009F05000017
:1000A0009F0500009F0500009F0500009F050000C0
:1000B0009F0500009F0500000000000000000000F8
:1000C0009F0500009F0500009F0500009F050000A0
:1000D0009F0500009F0500009F0500000000000034
:1000E0000000000000000000000000000000000010
:1000F0000000000000000000000000000000000000
:1001000000000000000000000000000000000000EF
:1001100000000000000000000000000000000000DF
:1004000010B5054C237833B9044B13B10448AFF34E
:1004100000800123237010BD0801002000000000AF
:10042000949701000C4B43B10C480D4910B5AFF344
:1004300000800C48036823B910BD0A48036833B92B
:100440007047094B002BF7D0BDE810401847064B0A
:10045000002BF5D0184700BF000000009497010062
:100460000C0100200001002000000000154B002BB3
:1004700008BF134B9D46A3F5803A00218B460F46DB
:100480001348144A121A00F063F80F4B002B00D0E7
:1004900098470E4B002B00D0984700200021040005
:1004A0000D000D48002802D00C48AFF3008000F08A
:1004B0002BF82000290000F06DFB00F011F800BFC0
:1004C0000000080000000120000000000000000003
:1004D00008010020E42D00200000000000000000C2
:1004E00008B5074B044613B10021AFF30080054B5C
:1004F0001868836A03B19847204600F031F800BFBE
:10050000000000004C78010070B50D4E0D4CA41B8E
:10051000A4100025A54209D10B4E0C4C17F08AF906
:10052000A41BA4100025A54205D170BD56F82530A6
:1005300098470135EEE756F8253098470135F2E740
:10054000F8000020F8000020F8000020FC00002047
:1005500002440346934200D1704703F8011BF9E7B8
:10056000FEE700BF0649074A074B9B1A03DD043B21
:10057000C858D050FBDC00F025F8FFF777FF0000EB
:10058000A09701000000002008010020FEE7FEE720
:10059000FEE7FEE7FEE7FEE7FEE7FEE7FEE7FEE733
:1005A000BFF34F8F0549064BCA6802F4E06213435C
:1005B000CB60BFF34F8F00BFFDE700BF00ED00E051
:1005C0000400FA05F8B5A34B1B78062B1FD0A24AEE
:1005D000D2F8883043F47003C2F88830BFF34F8FED
:1005E000BFF36F8F4FF01023D3F80C22D20700F126
:1005F0001381D3F80022002AC0F2E880D3F8043235
:10060000002BC0F2E380954B954A1A60F8BD954BDC
:100610001B681F07DBD1944B1B6803F0F003302BE2
:1006200002D1924B924A1A608F4B1B6803F0F00282
:10063000302A00F0BA8003F0E003402B00F0B580D0
:10064000894B1B6803F0F003302B00F09E80864B33
:100650001B6803F0F002302A00F0838003F0E0030F
:10066000402B7ED0804B1B6803F0F003302B6AD008
:100670007D4B1B6803F0F003302B4DD07A4B1B6889
:1006800003F0F003502BA2D14FF08052794BD2F8F7
:100690000414C3F82015D2F80814C3F82415D2F8AE
:1006A0000C14C3F82815D2F81014C3F82C15D2F87E
:1006B0001414C3F83015D2F81814C3F83415D2F84E
:1006C0001C14C3F84015D2F82014C3F84415D2F80E
:1006D0002414C3F84815D2F82814C3F84C15D2F8DE
:1006E0002C14C3F85015D2F83014C3F85415D2F8AE
:1006F0003414C3F86015D2F83814C3F86415D2F86E
:100700003C14C3F86815D2F84014C3F86C15D2F83D
:100710004424C3F870255AE74E4B57491B78574D70
:100720005748584A05270F60012600243F21062B11
:100730002E60046011607FF44AAF4A4B1B681907B2
:100740007FF445AF9AE7434B4F4A1B780321062BB2
:1007500011607FF43CAF434B1B6818077FF437AF41
:1007600086E73C4B1B784FF080420021062BC2F8F5
:100770000C11C2F81011C2F838157FF428AF394BAC
:100780001B681C077FF423AF6CE7404A3149D368EC
:10079000097823F080730629D3607FF418AF314BBA
:1007A0001B681D077FF413AF51E7394A294B1268C4
:1007B0001B783849C2F34232062B0A607FF407AF38
:1007C000284B1B681E077FF402AF39E7324A01232A
:1007D000C2F80435D2F80034002BFBD04FF01023C0
:1007E00015212D4AC3F80012D2F80034002BFBD09B
:1007F0004FF010231521284AC3F80412D2F8003410
:10080000002BFBD000232449C2F80435D1F8003472
:10081000002BFBD0FFF7C4FE1F4B0122C3F80425B9
:10082000D3F80024002AFBD04FF010211A4AD1F847
:100830000C3223F00103C1F80C32D2F80034002B43
:10084000FBD000231449C2F80435D1F80034002B42
:10085000FBD0DFE7E00F00F000ED00E064000020D7
:100860000090D003E40F00F0E80F00F074C00740E0
:100870000DF0ADBA00C00040105600408856004050
:100880001856004014560040A0050040F0ED00E06E
:10089000440200103C05004000E00140BFF34F8FD0
:1008A0000549064BCA6802F4E0621343CB60BFF30C
:1008B0004F8F00BFFDE700BF00ED00E00400FA0528
:1008C000704700BF014B01221A71704724010020BC
:1008D000013810B50C4605282FD8DFE800F01016B7
:1008E0001C222803154A0021042003F097FF234609
:1008F000134A00210420BDE8104003F08FBF114AC5
:100900000021042003F08AFFF1E70F4A00210420B0
:1009100003F084FFEBE70D4A0021042003F07EFF83
:10092000E5E70B4A0021042003F078FFDFE7094ADE
:100930000021042003F072FFD9E710BD2C7C0100D8
:10094000347C0100047C01000C7C0100147C01005B
:100950001C7C0100247C01000378022B07D0012BB2
:1009600000D070474068044A942101F027B94068DC
:10097000014A902101F022B93C7C0100032817D8DC
:10098000DFE800F0110C07020A4A0021042003F0FE
:1009900045BF094A0021042003F040BF074A002157
:1009A000042003F03BBF064A0021042003F036BFB9
:1009B000704700BF84780100707801008C780100D6
:1009C00078780100F0B58DB001F0B8F8384B394AAD
:1009D000186800909B883848ADF80430694603F0E9
:1009E0003FFA00285ED1344803F064FA03F078FB44
:1009F000002852D100234FF0E0704FF0A0450324AF
:100A000003E0D20748BF45F821400133202B40FACC
:100A100003F203F5E071F4D1284D294F294E0FCD93
:100A20004FF0A0444FF0E07EC4F808E54FF0000E10
:100A3000C4F80CE506AC0FC495E80300062384E86F
:100A400003004FF480754FF4805402A91E4A0297A8
:100A500006A803950496059401F0B2F9C0B90022E6
:100A60000592072706264FF0CD65022402A9174BF1
:100A7000174802970522039604958DF8144002F05A
:100A80005FF818B1134AD52101F098F80DB0F0BD08
:100A9000104ACA2101F092F8E1E70E4AB32101F0B1
:100AA0008DF8A7E70B4AA72101F088F89BE700BF64
:100AB00050780100C10800009878010058780100C2
:100AC0006001002060020020590900004801002058
:100AD000800000203C7C010010B58CB0002409A8E7
:100AE00008AA0DF11F010A9409940B948DF81F4078
:100AF0000AF04CFBDDED097A9DED0B7A9FED216A42
:100B0000DFED214A214AF8EEE76ADDED0A7AB8EE18
:100B1000C77AF8EEE77A66EE866A27EE067A67EE1F
:100B2000867A36EEE65A77EE475A37EEE76A25EED2
:100B3000245A65EEA45A26EE246AFDEEE77ABCEE4E
:100B4000C55AFCEEE55ABCEEC66ABDEEC77ACDEDDD
:100B5000017AFDEEE67A8DED005A17EE903ACDED72
:100B6000045A8DED026A8DED037A2146042003F0CC
:100B700055FE21469DF91F30054A042003F04EFE24
:100B80000CB010BD000080370000C842C47B0100DB
:100B9000E87B01002DE9F04F2DED028BA1B0FFF7AE
:100BA00011FF20A80A2340F8443D764B109306F02D
:100BB0003FFB30B1744A0021062003F02FFEFFF7FF
:100BC0006DFE054609F026FC044620BB11F098FC9A
:100BD00010F04CF9012010F033F9B7EE000A10F0D4
:100BE00027F90FF08FFD10F0F3FB0CF0A7FC0EF0CF
:100BF000C5FE10F065FC0BF0E5FD09F059FC32284C
:100C000005460FD0002855D02146604A062003F043
:100C100005FEFFF743FE29465D4A062003F0FEFD70
:100C2000FFF73CFE5B4F5C4E5C4D5D4C3246002155
:100C3000062003F0F3FD3A68234600BF00BF00BF63
:100C400000BF00BF00BF00BF00BFAA422FD000BF3F
:100C500000BF00BF00BF00BF00BF00BF00BF00BF9C
:100C600000BF00BF00BF00BF00BF00BF00BF00BF8C
:100C700000BF00BF00BF00BF00BF00BF00BF00BF7C
:100C800000BF00BF00BF00BF00BF00BF00BF00BF6C
:100C900000BF00BF00BF00BF00BF00BF00BF00BF5C
:100CA00000BF00BF00BF00BF00BF00BF00BF013BCF
:100CB000C3D1BBE7792006F059F8782005F0D4FCC1
:100CC000142006F0C7F9642005F028FC07A805F0F9
:100CD00017FC0DF11E0005F0A3FA0DF1190005F047
:100CE00027FB08A808F00EFCBDF820109DF819207D
:100CF000BDF81E300191009229462A4A2A4E2B4CFB
:100D0000042003F08BFDBDF81C0096FBF0F009F009
:100D10006BFCBDF81C0096FBF0F009F07FFC42F282
:100D2000107009F097FC22480BF0F8F9BDF81E107E
:100D3000C90309F053FC1E480BF0F0F99DF8191097
:100D4000C90309F0EFFC1B480BF0E8F9BDF82010CF
:100D5000C90309F0EDFC07236370A570A56184F851
:100D60002150E5606561256100F0F8FE08F0D4FED1
:100D7000804618B32946104A062003F04FFDFFF7BE
:100D80008DFD00BFC5080000A0780100EC780100CF
:100D9000BC78010064000020D87801000024F40031
:100DA000404B4C000879010040420F002401002014
:100DB0007400002068000020207901009948DFF8C5
:100DC00094B20BF0ABF908F0B1FE974809F016FBAE
:100DD000964809F019FB40F273131846A38309F0F3
:100DE00097F8142008F04AFF4CF2503009F050FCFC
:100DF000012008F083FA0123A3708D4B11938D4BD2
:100E00001293A3F50423A3F5006311A80321139300
:100E100009F008FD884B1193884B129311A8884B59
:100E20001393032109F0D8FD864B874A119311A82B
:100E3000864B12920321139309F08AFCC2460DF1EE
:100E40001A0001F02FF8002859D000F087FE6369DE
:100E500098420BD923784BB923793BB163785D076E
:100E600004D500F10A0363614FF001082369984239
:100E700004D900F5FA7020614FF0010A6379E3B1FB
:100E8000052201214FF4FA7008F044FB09F0B6FF87
:100E900009F0CAFF09F0B8FF09F0BEFF23792BB9AA
:100EA00040BF20BF20BF2379002BF9D0002211467C
:100EB000104608F02FFB002363716378002B72D07B
:100EC0002379002B6FD023791BB12378002B40F0BE
:100ED000338323791BB1A378002B40F067832379F8
:100EE000002B40F0AA82B8F1000F40F058830DF1BA
:100EF0001A004FF0000800F0D5FF0028A5D19DF89A
:100F00001A302C3B4C2B56D8DFE813F03901550032
:100F100082025500020186026E025A023502E90081
:100F2000E400DD00A600C401550055005500550041
:100F30005500550055005500550055005500550009
:100F400055005500550055005500550055005500F9
:100F500055005500550055005500550055005500E9
:100F600055005500550055005500550055005500D9
:100F7000550055005500BF01750170013202FB019B
:100F80000002FD004A01450155005500550042018F
:100F900055003D0154014F016B0155006D00550096
:100FA00059005300510040BF20BF20BF47E7FFF763
:100FB00075FCFFF791FD002384F8213045E7A38BF2
:100FC00083F010031846A38308F0A2FFA38B13F04D
:100FD000100540F09B8509F01FFF29461C4A04209C
:100FE00003F01CFCE7E717AD14AE2946304600229B
:100FF00006F0AAFE0728074600F0A78410F00101BA
:1010000000F09D8417F0020100F0938417F00401B2
:1010100000F0898409F0F2FE09F006FF09F0F4FE01
:10102000C9E700BF74000020D10800007D0900005E
:1010300000C85E000070E0FF3593F4FFC9431B0059
:10104000E8F40F00846A63FF9CA2C403637D40FE42
:101050002C7A0100607A0100637883F0010313F0B9
:10106000010518BF082513F00206637000F0048420
:1010700045F070055F07EDB2267804D5237845F07A
:101080000105EDB21E43284605F070FE284605F026
:10109000EBFA5EB1002317A8237005F031FABDF812
:1010A0005C30BF4890FBF3F009F0B8FA637813F0B6
:1010B000010540F0F28309F0A1FE2946B94A042057
:1010C00003F0ACFB77E7002008F0D2FE002008F028
:1010D000FFFE70E7A36983F08003A3616BE7A37849
:1010E0006420002B00F0EE8308F0C8FD42F210707F
:1010F00009F0CEFA42F2107009F076FA42F210705E
:1011000009F08CFA57E7A36983F00203A36152E761
:10111000637883F0040313F0010518BF082513F06A
:101120000206637000F09E8345F070055B07EDB228
:10113000267804D5237845F00105EDB21E432846F4
:1011400005F014FE284605F08FFA5EB1002317A8BB
:10115000237005F0D5F9BDF85C30914890FBF3F0B1
:1011600009F05CFA637813F0040540F0D28309F0CB
:101170004BFE29468C4A042003F050FB1BE701205C
:1011800009F018F817E7A36983F40073A36112E765
:10119000012363710FE7A36983F48073A3610AE7F6
:1011A000A36983F04003A36105E7A36983F0040307
:1011B000A36100E7A578002D7FF4FDAE142005F0B3
:1011C0001BFD284605F0C6FC637823F0060343F0B8
:1011D000010301226370227009F026FE09F014FE5B
:1011E000E9E6A36983F02003A361E4E6A36983F041
:1011F0000803A361DFE65A4617AD14AE00210420B0
:1012000003F00CFB3146284609F076FC09F0F0FFAC
:101210001499199A189B0390029101920093634AC2
:10122000179B0021042003F0F9FA3146284609F003
:1012300051FC09F0C9FF1499199A189B0390029167
:10124000019200215A4A00930420179B03F0E6FA0A
:10125000284609F075FA09F0BDFF074609F0DCFAE7
:1012600005460AF0AFF806460AF09CF9199A189B51
:10127000059001920093029704960395179B4D4A9F
:101280000021042003F0CAFA95E6A36983F0010364
:10129000A36190E6637883F0020313F0010518BFA1
:1012A000082513F00206637000F0D58145F0700543
:1012B0005907EDB2267804D5237845F00105EDB243
:1012C0001E43284605F052FD284605F0CDF95EB1D3
:1012D000002317A8237005F013F9BDF85C303048DF
:1012E00090FBF3F009F09AF9637813F0020540F0EF
:1012F000EF8209F099FD29462F4A042003F08EFA67
:1013000059E6A36983F01003A36154E62378002B08
:101310007FF49BADA578002D00F0E1821846A37004
:1013200007F0ECFF637813F0010018BF08209F0757
:1013300048BF40F070005E0744BF40F00100C0B2FB
:1013400005F092F917A808F0C7FCBDF85C0005F09D
:1013500081FE09F061FD194A0021042003F05EFAC4
:10136000102005F007F84FF4FA6004F07BFF22E646
:1013700004F0C0FB1FE6A3783220002B00F0A2830C
:1013800008F07CFC44F6206009F082F944F6206005
:1013900009F02AF944F6206009F040F90BE600BF95
:1013A00040420F003C7901006C7901006C7A010029
:1013B000987A0100C07A0100547901000C7A01008A
:1013C000A3782820002B00F0808308F057FC46F219
:1013D000A81009F05DF946F2A81009F005F946F2E7
:1013E000A81009F01BF9E6E5A3781420002B00F003
:1013F000978208F043FC4CF2503009F049F94CF266
:10140000503009F0F1F84CF2503009F007F9D2E50C
:10141000022008F0CFFECEE5A3780A20002B00F0D2
:10142000548208F02BFCBD4809F032F9BB4809F0A2
:10143000DBF8BA4809F0F2F8BDE50AA90DF1220778
:101440000DF12409002500913B464A460DA814A938
:10145000257105F081F99DF828300BB10123237126
:101460009DF8222012F0700340F0F08110074ED456
:10147000B8F1000F5DD1002B3FF439AD17AD14AEBC
:1014800009F07CFD002840F0C78000230AAA3946F5
:10149000284633607360B3600BF05AF8002840F0C0
:1014A000CE80A369DA0700F1BD80A3699B0700F134
:1014B000B581A369180700F1A481A369D90600F1D9
:1014C0009381A3699A0600F18281A3695B0600F10A
:1014D0007181A369D80500F12D81A369990500F1F7
:1014E000DC80A3691A0600F1C08003200AF00AF923
:1014F00000283FF4FCAC10F0010140F0C7818307E5
:101500007FF5F5AC864A042003F088F9EFE4BDF9D5
:101510005010BDF95200BDF9543017911890099A36
:101520001993002117A809F0F9FA0123B8F1000F67
:10153000A1D017AD14AE1CE00DF1240914AE49463C
:10154000304604F02FFB17ADBDF95020BDF9521005
:10155000BDF95430179218912846099A1993002121
:1015600009F0DCFA002323710DF12207B8F1000F16
:1015700086D04946304607F04DFF014600287FF4EB
:101580007FAFBDF95020BDF95200BDF9543017921C
:101590001890099A1993284609F074FB70E717AD63
:1015A00014AE0DF124090DF12207E2E70DF11B0144
:1015B0000DF1240917AD0DF122074B4601912A4682
:1015C0000BA800970DA908F025FE9DF81B3003B964
:1015D0002371BDF8222012F0700340F02C81110716
:1015E00010D5BDF93410BDF93600BDF93830099A6F
:1015F00014911590002114A8169309F08FFABDF8E4
:1016000022200123D6057FF533AF2846099A002111
:1016100009F0DAFB01232BE7424A0021062003F000
:10162000FDF832E70AAA394628460AF073FF002877
:101630003FF43BAF2946002003F0B4F935E72846D4
:1016400003F044F9A36959077FF52BAF294603201E
:1016500003F0A8F925E758073FF52EAE284605F018
:1016600085FB284605F000F83EE600F077FAE368CF
:1016700098427FF63AAF00F57A730BA8E36008F062
:10168000E1FB0DA808F00AFC0D9B0093264A0B9B7A
:101690000021042003F0C2F827E70AAA39463046A1
:1016A0000AF0A6FE00283FF41CAF9DED145A9DEDF4
:1016B000156A9DED167ADFED1E7A1C4ABDEEC54A0D
:1016C000BDEEC63AFDEEC73AF8EEC35AF8EEE36A4D
:1016D000F8EEC44A36EE656A37EE667A35EE645A3D
:1016E00066EE276A65EE275A67EE277AFCEEE55A22
:1016F000FCEEE77AFCEEE66ACDED005A8DED013A9C
:10170000CDED033ACDED047ACDED026A14EE103A38
:101710000021042003F082F8E3E600BFA086010068
:10172000B87B0100147B0100807B0100547B010029
:101730000000C8420AAA394630460AF025FE0028B1
:101740003FF4CBAE9DED145A9DED156A9DED167AD2
:101750005FED097ADE4ABDEEC54ABDEEC63AFDEE42
:10176000C73AF8EEC35AF8EEE36AF8EEC44A36EE2A
:10177000656A37EE667A35EE645A66EE276A65EE7C
:10178000275A67EE277AFCEEE55AFCEEE77AFCEE84
:10179000E66ACDED005A8DED013ACDED033ACDED7F
:1017A000047ACDED026A14EE103A0021042003F011
:1017B00035F892E60AAA394628460AF0D9FE0028EA
:1017C0003FF487AE2946062003F0ECF881E60AAA2A
:1017D000394628460AF0E6FF00283FF476AE29464F
:1017E000052003F0DFF870E60AAA394628460AF019
:1017F0000DFF00283FF465AE2946042003F0D2F81F
:101800005FE60AAA394628460AF098FE00283FF407
:1018100054AE2946022003F0C5F84EE60AAA39461E
:1018200028460AF081FE00283FF443AE29460120F5
:1018300003F0B8F83DE60BA8099909F0D3F9BAF11D
:10184000000F31D1BDF822200123C8E60DA8099967
:1018500009F0C8F9BAF1000F40F05F819DF822202D
:10186000012303E65A073FF565AC284605F07EFAEA
:10187000284604F0F9FE75E45B073FF5FFAB284608
:1018800005F074FA284604F0EFFE0FE4914A0021B7
:10189000042002F0C3FFFFF72ABB8F4A0021042077
:1018A00002F0BCFFFFF787BB49460AA804F0CEF957
:1018B00009990A9809F072FA4FF0000A0123BDF85D
:1018C00022208CE605F0C6FB14E405F0C3FBADE571
:1018D000824A0021042002F0A1FFFFF76CBB012621
:1018E00017A8A67004F00CFEBDF85C0008F0C6F95D
:1018F000BDF85C307A4890FBF3F008F0C9FE304642
:1019000007F0FCFC2946774A042002F087FFFFF726
:1019100052BB754A0021042002F080FFFFF74BBB49
:1019200005F098FB6BE5714A062002F077FFFFF7A0
:1019300071BB6F4A062002F071FFFFF767BB6D4A6B
:10194000062002F06BFFFFF75DBB6B4A9FED6B8AD1
:10195000DFED6B8A0021042002F060FFDDED177AD5
:101960009DED197A674AF8EEE76ADDED187AB8EE70
:10197000C77AF8EEE77A66EE886A67EE887A27EE2D
:10198000087A36EEE65A77EEE75A37EE476A25EEE2
:10199000285A65EEA85A26EE286AFDEEE77ABCEED4
:1019A000C55AFCEEE55ABCEEC66ABDEEC77ACDED6F
:1019B000017AFDEEE67A8DED005ACDED025A8DEDFD
:1019C000046A8DED037A17EE903A0021042002F0AC
:1019D00025FFDDED147A4C4AF8EEE76ADDED157A65
:1019E000B8EEE77ADDED167AF8EEE77A66EE886A09
:1019F00027EE087A27EE888A76EEE65A77EE477A5F
:101A000038EE486A65EEA85A26EE286A67EEA88A7C
:101A1000FCEEE55AFDEEE67ABCEEC66ABDEEC77A8C
:101A2000FCEEE88ABDEEC88A8DED046A8DED017A80
:101A300017EE903ACDED005A0021CDED028A8DEDE2
:101A4000038A042002F0EAFE0BA804F0E3FDBDF8CF
:101A50002C701999179A189B07FB02F207FB03F3E6
:101A6000284607FB01F7032117921893199708F0EE
:101A7000D9FE0DA804F0A4FD9DED147ADDED0D7ADC
:101A8000B8EEC76A9DED157AF8EEC76A9DED167A35
:101A9000B8EEC77A26EE276A66EEA76A67EE277A5F
:101AA000BDEEC66AFDEEE66AFDEEE77A304603213A
:101AB0008DED146ACDED156ACDED167A08F08CFF28
:101AC000FFF7A8BA05F0C6FA60E405F0C3FA82E4AD
:101AD0002C7B0100AC7B010048790100607901009A
:101AE00040420F001C7A01007C790100F879010066
:101AF000E8790100D87901008C7901000000803775
:101B00000000C84298790100B87901000A4A002112
:101B1000042002F083FEFFF74EBA49460BA804F0FA
:101B200095F809990B9809F039F94FF0000A01234B
:101B30009DF822209AE400BF487A010008B502F01F
:101B400047FA18B1044A0A2100F038F80020BDE82D
:101B5000084002F055BA00BF4C7C010030B583B09C
:101B600002AA002342F8043D104B114CD3F804554F
:101B70002168284602F06EF918B10E4A172100F0CC
:101B80001DF8019B0C4925604FF47A7202FB03F2A9
:101B900012F580424FF00003086843F10003D20BB6
:101BA00042EA43421044086003B030BD00B0004038
:101BB000601200204C7C01006412002000B585B04A
:101BC000ADF804100292039001AA002144F2010032
:101BD00000F036F805B05DF804FB00BF30B482B009
:101BE00001248DF80740154B9DF80750186044F20A
:101BF0000104A04259609A6014D044F20201884264
:101C000008D072B69DF80730002BFBD162B602B047
:101C100030BC7047DA60DA6812889A61DA68526814
:101C2000DA61EEE71A611A6992685A611A691288D4
:101C30009A611A695268DA61E3E700BF681200200E
:101C400070B504460D4601200849164602F0F6FC20
:101C500002F0F0FC02F03CFD0028FBD132462946A0
:101C60002046BDE87040FFF7B9BF00BF747C01009B
:101C700059B10AB909207047531E1A40FAD182603F
:101C800001608380C260104670470E20704700BF1D
:101C900010B48468C26803468088121B904203D245
:101CA00004205DF8044B7047DA681C68024000208D
:101CB000A154DA680132DA605DF8044B704700BF66
:101CC00003468068DA6890420DD010B498689A880C
:101CD0001C6802400020A25C0A709A6801329A6077
:101CE0005DF8044B70470520704700BF30B504789D
:101CF000012C83B024D010D3022C0CD1C368294905
:101D00002948019301228DF8004000F05DFB274B2C
:101D100068461B68984703B030BD25492548FFF742
:101D2000CFFF002831D0234B9A68DB689A42F2D16A
:101D300002A8032300F8083D1C4B1B689847EAE7FC
:101D400043681D4D19782846FFF7A2FFA8B9AA6875
:101D5000EB689A4206D002AB144A03F8080D1268E9
:101D600018469047A968EB68AA885B1A9A4212D273
:101D7000124B01221A7003B030BD0C4B01908DF84C
:101D800000401B6868469847ECE70122084906486E
:101D900000F064FAC7E701220249034800F014FB8F
:101DA000B9E700BFB01200209C000020881200207C
:101DB000B4120020A01200208C1200209C120020DF
:101DC0002DE9F0432F4C89B02260002952D00C46F7
:101DD00080468A882C4809689946FFF749FF10B168
:101DE00009B0BDE8F083A289A1682848FFF740FF49
:101DF0000028F5D1264D98F810E0D8F80C70D8F8E6
:101E000008600FCD6C460FC495E80F0098F811508C
:101E100002971EF1000E18BF4FF0010E002D84E84E
:101E20000F00D8F80050D8F804401A4A1A488DF824
:101E30001C9014BF0E2300238DF815306946D8F886
:101E400014308DF814E0069303968DE8300000F00E
:101E5000C1F80028C4D1D8F80030104A01331070FE
:101E6000BED09DF81D304BB101220D490A4800F04B
:101E7000ABFAB5E7072009B0BDE8F083064800F0EB
:101E8000B7FBF1E7881200208C120020A01200207E
:101E90008C7C0100ED1C00009C0000209C120020A6
:101EA000B012002070B50C4C01460C482678FFF7A4
:101EB00007FF05460EB9284670BD002301220849D8
:101EC0000848237000F080FA0028F4D0064ABA21AE
:101ED000FFF774FE284670BD9C1200208C12002073
:101EE000B01200209C000020AC7C010010B501461F
:101EF0000C48FFF7CDFE044608B1204610BD0A4845
:101F000000F056FA0028F8D108490648FFF7D8FE35
:101F10000028F2D1012205490348BDE8104000F035
:101F20009DB900BFA01200209C000020B412002028
:101F300070B5161E07DD0C468D1914F8010BFFF75E
:101F4000D5FFA542F9D1304670BD00BF10B50C4693
:101F50002046FFF7A7FF0528FAD0012010BD00BFDB
:101F600072B6024A1368013313607047B81200203A
:101F7000034A1368013B136003B962B6704700BFA0
:101F8000B8120020002810B418DB00F1604303F5FC
:101F900061434901C9B283F80013C3B2400980000C
:101FA00000F1604000F5614003F01F0201239340FF
:101FB000C0F8803103605DF8044B7047C3B2044A37
:101FC00003F00F0449012244C9B21176E6E700BFCD
:101FD000FCEC00E02DE9F0410479684D64012E1914
:101FE00086B0F37E1BB1082006B0BDE8F0814F7FBC
:101FF00037770E684FF0A04E012707FA06F6CEF8A5
:1020000008650E6806F5E0764FF0030C4EF826C022
:102010004E6806F5E0764EF82630067905EB461652
:10202000377F002F4FD006688F69C6F8247591F866
:1020300014804F7D066847EA0807C6F86C7591E87A
:1020400040010768C7F80C65C7F814850F7D012F9C
:1020500000F08B802B1906465A600B692B51EAB1B0
:102060000379097F026805EB43131B7F002B5BD1CB
:10207000C2F81C31D2F81C7132680097009FC2F878
:102080004431D2F84421336801923D48019AC3F8A3
:102090000403306840F30730FFF774FF3379326888
:1020A00005EB43131B7F002B3AD00823C2F8003501
:1020B0002C4400200123E376E0752076A075A076FD
:1020C00006B0BDE8F08103688E69C3F8246591F815
:1020D00014804E7D036846EA0806C3F86C6591E8F3
:1020E00008010668C6F80C35C6F814850E7D012E69
:1020F000B0D18B6803F5E0734EF82370CB6806FA15
:1021000003F3CEF80835CB6803F5E0734EF823C02F
:102110000368CF688E68C3F80875C3F8106599E73F
:102120000423C2F80035C3E70023C2F81031D2F807
:10213000107132680297029FC2F82031D2F82071E4
:1021400032680397039FC2F82431D2F824713268B1
:102150000497049FC2F84431D2F8442133680592B1
:102160000848059AC3F8040393E78E6806F5E076FD
:102170004EF82630CB6807FA03F3C2E7BC12002002
:102180008000020010030200F0B501792F4B0468B3
:1021900049015A18127F002A50D00022C4F80025A5
:1021A0005A185268B2B1027903EB4212127F002A28
:1021B00047D10268264CC2F808430268254E120B2C
:1021C00054B26409203402F01F02012505FA02F21C
:1021D00046F8242007684FF0FF3ED7F80C65D7F883
:1021E0001455D7F80825D7F81045C7F80CE5C7F8F7
:1021F00014E5006806F5E076C0F808E5C0F810E5DB
:1022000005F5E0704FF0A045022745F82670661CE2
:1022100018BF04F5E07445F8207018BF45F8247025
:10222000501C06D002F5E0724FF0A040022440F8A6
:1022300022400B440022DA765A60F0BDC4F8002533
:10224000AEE70268044CC2F80843B6E7BC120020AF
:102250008402020000E100E010030200F0B50379FF
:10226000524C5B01E51887B02D7F3DB10D0C2D045C
:10227000B5F1005F02D0102007B0F0BD23449E7D71
:1022800016B1112007B0F0BD9A7599609E8205794C
:102290006D016219137F13BB0168C1F81C31D1F8BD
:1022A0001C61016804960126049F8E600168D2F8C3
:1022B00008E0C1F81C31D1F81C310593059B968AC2
:1022C000938A5768B6B201331EF806609BB29382B8
:1022D000C1F81C65002F2FD0002007B0F0BD0368A7
:1022E0009168C3F82061D3F8207103680197019FBA
:1022F000C3F85861D3F8586103680296967D029F2F
:10230000C3F84415C3F84865036801219960536810
:10231000002BE1D1036801E0002945D1D3F8202149
:10232000D3F85811002AF7D0002914BF0F2000203D
:102330002C440023A3759FE7967D938A9BB29E420F
:1023400002F1140122D9016804E0938A9BB2B3F52B
:10235000807F03D0D1F81C31002BF6D0938A9BB23A
:10236000B3F5807FE9D0C1F81C71D1F81C3103931B
:10237000039BB2F814C0938A1FFA8CFC01331EF839
:102380000CC09BB29382C1F81CC5D6E70B889BB2E8
:10239000B3F5807F08D00268D2F81C31002BFBD047
:1023A0000123D3600020C3E70F20C1E7BC12002047
:1023B0000279044B03EB4213987D003018BF0120D3
:1023C000704700BFBC120020F0B40379874E5B0158
:1023D000F41888B0257F45B10D0C2D04B5F1005FD0
:1023E00054D0102008B0F0BC70476568002D3FD174
:1023F0003344DC7D54BBDA75D9605C761C76057994
:102400006D0173191F7F002F4DD19B7E8BB984B94D
:102410000368C3F82441D3F8242103680392039A84
:10242000C3F80841D3F808210368049201220499F3
:102430001A6072195368002B6BD003684FF4017255
:102440000020C3F8042308B0F0BC70471C7ECCB158
:10245000002D00F0A980037906EB4316337F002B93
:1024600050D003684FF40472C3F804231120B9E775
:1024700004684FF401773344C4F80873DC7D002C02
:10248000B9D0E3E719611A760124B8E76568002D31
:10249000AED004684FF404773344C4F80873DC7D8D
:1024A000002CA8D0D2E703680025C3F81051D3F858
:1024B000107103680197019FC3F84451D3F8445148
:1024C00003680295029DC3F83415C3F838258CB90A
:1024D000036801221A6002795201B3185B68002B6D
:1024E00064D003684FF404720020C3F8042308B0DA
:1024F000F0BC70470268D2F8003243F02003C2F803
:102500000032E8E703684FF40172C3F80423112096
:1025100068E70168C1F84431D1F844310593059B5F
:102520000368D3F82471D3F80841D3F8441144B9AF
:10253000002932D1002FF4D035440023EB7503205D
:1025400050E7002FF8D151BBD47DE4B1C3F8081196
:10255000D3F8081106910699D468517ED3F818353E
:102560006354537ED17D0133DBB25376537E99425F
:10257000D6D835440022AB7EEA758BB303680121BF
:10258000104619602EE7C3F80841D3F808110791E7
:102590000799D3F81835537EEBE7002FCCD135449B
:1025A0000023EB750F201DE711201BE7036801E0F6
:1025B00041B988B9D3F81041D3F84411D3F82401B4
:1025C000002CF5D016440023F3750028B7D19942AA
:1025D0000CBF18460F2005E732440320D17501E7F0
:1025E0000268012118465160FCE600BFBC120020C1
:1025F000114A037902EB4313197FD9B99B7ECBB9FA
:1026000010B4016883B0C1F82431D1F824410168C5
:102610000094009CC1F80831D1F808310168019399
:102620000123019C0B60017902EB4112937603B008
:102630005DF8044B704700BFBC12002070B5A54C7C
:10264000237F8EB0002B73D1A34AD2F804138905DF
:1026500046D4A14BD3F80423520704D5D3F808215C
:10266000002A40F0C9809C4BD3F81C21BAB1A28A41
:10267000A17D92B28A424FF00002C3F81C2180F083
:10268000A880D3F81C210692069AA18AA28AA06883
:1026900089B20132415C92B2A282C3F81C158E4B02
:1026A000D3F84421D2B10022C3F84421D3F8441115
:1026B000A27E04910499002A40F08880E37D6BB1EA
:1026C0000023617EE268E37501238DF830108DF8F8
:1026D00028300B9294E80A000AA898470EB070BD03
:1026E000D2F824110029B4D0C2F82431D2F8241130
:1026F000A37E07914FF401710798C2F808130BB934
:1027000001235360744A02238DF82830D2F88034B4
:10271000C2F88034E07DE2680D9300238DF830002C
:10272000E375237621680B9263680AA898479AE7B5
:10273000694BD3F82421002A40F09280D3F810117D
:1027400061B1C3F81021D3F8101103910399D3F8A4
:102750003C15E07DC9B2884200F0A4805E4BD3F8FE
:102760004421B2B10022C3F84421D3F84401E17DF1
:102770000190019869B1D3F83C35E1688DF83030AB
:1027800001230B918DF82830E27594E80A000AA81D
:102790009847514BD3F82021002A9FD00022C3F83C
:1027A0002021D3F82001A17D00900098002995D028
:1027B000D3F84C15A3688DF830100B938DF82820B2
:1027C000A27594E80A000AA8984787E701221A60D0
:1027D00074E7D3F81C310593059B00293FF45FAFE4
:1027E000A3688DF830100B938DF82820A27594E81B
:1027F0000A000AA8984752E7E27D002A6ED000221C
:10280000C3F80821D3F808210892089AE168627E8B
:10281000D3F818358B54637EE27D0133DBB26376E7
:10282000637E93427FF41FAF237E002B6CD1A37E87
:1028300013B9294B01225A60274AE06863684FF4B4
:102840000171C2F80813627E8DF830200025012244
:102850000B902168E5758DF828200AA8984702E7B3
:102860000022C3F82421D3F82411029102218DF80B
:1028700028100299D3F88014C3F880140D91D3F86E
:102880003C15E368E27522768DF830100B932168D1
:1028900063680AA89847104BD3F84421002A3FF4F4
:1028A00078AF5FE7217E11B3D3F80062E568E17588
:1028B00026F02006C3F8006226698DF83000012357
:1028C0008DF82830227621680B95E66063680AA8A7
:1028D000984743E7BC12002000200040C3F80821BD
:1028E000D3F8081109910999D3F8183598E7E268E7
:1028F000E17501238DF830008DF828300B9294E8B3
:102900000A000AA8984729E7607EE5682169E3750F
:10291000012200238DF83000E160237663760B9569
:102920008DF8282094E80A000AA898479BE600BF83
:10293000C0B2002388724B72704700BFF0B50078B8
:1029400085B00C46002840F098800B7ACA680133A5
:10295000127BDBB29A4200F29880E3681B6823B1D5
:10296000E268E36851681B689847002504F1100687
:1029700017E0597901F001018DF8041003958DF8E5
:1029800007509B7913F0010F0CBF0022202201A9F0
:10299000304600F08DFD00286DD0E3681B68002BE9
:1029A0006DD10020FFF7DCFA6379A279DBB29342A4
:1029B0005AD05A1C207921681BB2D2B251F8233068
:1029C000904238BF00226271E360E068002850D076
:1029D0000020FFF7CDFA2572227AE368D2B2986818
:1029E00017B24FEAC70E00EB0E03597949088DF86C
:1029F000051050F83710029119798DF80610997961
:102A0000C907B6D5587910F00101B5D1E7683F7B09
:102A10000132BA42B0DAE26892680EF1080E7244EE
:102A200052795208B2EB500FA6D1E368227A9B6824
:102A300053F80E1003919E44531C9EF804208DF809
:102A400007209EF8052012F0010F0CBF032202227E
:102A50008DF804209EF80620DBB212F0010F0CBFA7
:102A600000222022237292E70023E360E06800281E
:102A7000AED1FFF77DFA05B0F0BD03206DE7E26847
:102A8000E36851681B68984770E70B720A7ACB6855
:102A9000D2B2986815B2EE008319597949088DF8B9
:102AA000051050F83510029119798DF806109979B2
:102AB000C8072DD5587910F001012CD1E5682D7B80
:102AC0000132AA4227DAE268956806F10802154445
:102AD0006D796D08B5EB500F1DD1E368217A9B68C5
:102AE000985803901A444B1C11798DF807105179AE
:102AF00011F0010F0CBF032102218DF8041092790F
:102B0000DBB212F0010F0CBF0022202223720DE075
:102B1000597901F00101002203928DF807208DF808
:102B200004109B7913F0010F18BF202201A904F1B2
:102B3000100000F0BDFC00287FF40FAF9BE700BF42
:102B40002DE9F041044600F110061746984630463C
:102B50002346094A00F0F8FA054648B9304600F025
:102B600097FC6571C4F80080A57127716572E560F6
:102B70002846BDE8F08100BF3D290000F0B50446BD
:102B800085B000200D46FFF7EBF9A3792279DBB27F
:102B90009A4200F0B3806279013A934200F0B28029
:102BA00019B2226842F8215001332279DBB29A42ED
:102BB00038BF0023A3710020FFF7DAF90020FFF7E8
:102BC000CFF9E568002D40F092802F4604F1100601
:102BD0001CE0597901F0010103979B798DF80410ED
:102BE00013F0010F0CBF0022202201A930468DF8FE
:102BF000075000F05DFC0346002870D0E3681B68B6
:102C0000002B40F086801846FFF7AAF96379A27975
:102C1000DBB2934266D05A1C207921681BB2D2B233
:102C200051F82330904238BF00226271E360E368BC
:102C3000002B5CD00020FFF79BF92572227AE36815
:102C4000D2B298680FFA82FE4FEACE0C00EB0C036A
:102C5000597949088DF8051050F83E10029199797C
:102C600018798DF80600C907B3D5587910F001011D
:102C7000B2D1D4F80CE09EF80CE001327245ABDA28
:102C8000E26892680CF1080C624452795208B2EB87
:102C9000500FA1D1E368227A9B6853F80C1003917E
:102CA0009C44531C9CF805209CF806109CF80400DA
:102CB0008DF8070012F0010F0CBF03220222DBB2D5
:102CC00011F0010F8DF8042023720CBF0022202286
:102CD00001A9304600F0ECFB034600288ED11846CF
:102CE00005B0F0BD0023E360E368002BA2D1002013
:102CF000FFF73EF90023184605B0F0BD6279002ABF
:102D00007FF449AF0020FFF733F91123184605B0CF
:102D1000F0BDE268E36851681B6898470020FFF740
:102D20001FF953E7F0B5044685B000201F460E4654
:102D30001546FFF715F9637AC3B903F0FF000123C5
:102D40006372FFF715F90F4B01946946204602960E
:102D50008DF80C500093FFF711FF28B967B9637A1B
:102D6000002BFCD1A07AC0B205B0F0BD0020FFF767
:102D7000FFF8112005B0F0BD637A002BF2D0B84700
:102D8000ECE700BF312900002DE9F0410024C1F833
:102D900004418EB0D1F804510495049DC1F824413A
:102DA000D1F824510395039DC1F81C41D1F81C5161
:102DB0000295029DC1F80841D1F808510195012BF7
:102DC00080F8264080F823404FF001060CBF022413
:102DD0000124019DC1F800420E620E6004684CB1EE
:102DE00040F2862383608368C1F8043300200EB06C
:102DF000BDE8F08103F1FF3E4FF0020C90F8235044
:102E0000002D3BD1D1F8247190F82680002F48D0B6
:102E1000C1F82451D1F824510A950A9D4E6180F8D9
:102E200023604345EAD1D1F80451002DE6D00023B8
:102E3000C1F80431D1F8042190F823300592059AA5
:102E4000C3B1D1F8C434C1F8C4349BB113F0010F3D
:102E500018BF4FF4024048F2012208BF032013F0CC
:102E6000020F18BF104648F2022213F0040F18BFD9
:102E70001046BCE700200EB0BDE8F081C1F8244147
:102E8000D1F824510B950B9DC1F81C41D1F81C5170
:102E90000C950C9DC1F80841D1F808510D950D9D78
:102EA000C1E7D1F81C51ADB1C1F81C71D1F81C516A
:102EB0000995099DD1F824511DBB90F82650AB42CD
:102EC0003DD9555DC1F81C5590F82650013580F864
:102ED0002650A6E7D1F80871002FA2D0C1F80851FA
:102EE000D1F808710797079FD1F824719FB1C1F8F5
:102EF0002451D1F824510695069D4E6180F8236037
:102F00008FE7C1F82471D1F824510895089D4E61CE
:102F100080F8236085E790F82650AB4281D9D1F83C
:102F20001875575590F826500135EDB2754580F863
:102F3000265006D0AB423FF474AF0E6271E74E618B
:102F40006FE7C1F800C2F8E72DE9F0430024C1F8AB
:102F500004418FB0D1F804510495049DC1F8244177
:102F6000D1F824510395039DC1F81C41D1F81C519F
:102F70000295029DC1F80841D1F80851019501253B
:102F8000019EC1F8004280F8264080F823400D627F
:102F90008D6090F826409DF85870A34213D9145DB7
:102FA000C1F81C4590F826402C4480F8264004685F
:102FB0007CB140F2862383608368C1F8043300202B
:102FC0000FB0BDE8F083002F48D0CD610468002C1D
:102FD000EFD103F1FF3C4FF0010E4FF0020890F8E3
:102FE0002350002D3CD1D1F8246190F82690002E7A
:102FF00049D0C1F82451D1F824510A950A9DC1F84D
:1030000014E080F823E04B45E9D1D1F80451002DBC
:10301000E5D00023C1F80431D1F804310593059BB4
:1030200090F82330002B6AD0D1F8C434C1F8C434EE
:10303000002B64D013F0010F18BF4FF4024048F288
:10304000012208BF032013F0020F18BF104648F2F8
:10305000022213F0040F18BF1046B1E74D61A6E736
:10306000C1F82441D1F824510B950B9DC1F81C41A6
:10307000D1F81C510C950C9DC1F80841D1F80851AC
:103080000D950D9DC1E7D1F81C51ADB1C1F81C6182
:10309000D1F81C510995099DD1F8245125BB90F810
:1030A0002650AB4245D9555DC1F81C5590F82650C5
:1030B000013580F82650A6E7D1F80861002EA2D08D
:1030C000C1F80851D1F808610796079ED1F824612C
:1030D000CEB1C1F82451D1F824510695069DC1F80E
:1030E00014E080F823E08EE7C1F82461D1F8245180
:1030F0000895089DC1F814E080F823E083E70020DC
:103100000FB0BDE8F08390F82650AB427FF67BAF5E
:10311000D1F81865565590F826500135EDB2654541
:1031200080F826500CD0AB423FF46DAFC1F820E0E0
:1031300069E717B10123CB6172E7C1F814E062E7D8
:10314000C1F80082F2E700BF2DE9F04F0579244E67
:10315000AF0007EB050E4FEACE0E06EB0E0C83B068
:103160009CF822401CB1082003B0BDE8F08F46F85F
:103170000E20CCF80840CCF804308CF825408CF8B0
:1031800024408B7B8CF827304B7B5BBB0B684FF06C
:10319000A04403F5E07340F20C6E44F823E04B6862
:1031A00003F5E07344F823E091E810400368C3F8A6
:1031B0000845C3F80CE58C68C3F824452AB10068BB
:1031C000097B40F30730FEF7DDFE3D4406EBC50604
:1031D0000123002086F8223003B0BDE8F08F00BF45
:1031E000DC1200200B68DFF8A092DFF8A0E24FF0BD
:1031F000A04C03F5E07340F20C6A4CF823A04B6836
:1032000003F5E0734FF001084CF823A00B6808FAAF
:1032100003F3CCF808354B6808FA03F3CCF808350B
:103220000B6803F5E07340F20D6B4CF823B04B686C
:1032300003F5E0734FF0040A4CF823B05346D9F875
:10324000009000BF00BF00BF00BF00BF00BF00BFB5
:1032500000BFF1452FD000BF00BF00BF00BF00BFBF
:1032600000BF00BF00BF00BF00BF00BF00BF00BF66
:1032700000BF00BF00BF00BF00BF00BF00BF00BF56
:1032800000BF00BF00BF00BF00BF00BF00BF00BF46
:1032900000BF00BF00BF00BF00BF00BF00BF00BF36
:1032A00000BF00BF00BF00BF00BF00BF00BF00BF26
:1032B00000BF00BF00BF013BC3D1F3460195D1F869
:1032C00004E0DCF8103523FA0EF3DB07554600F175
:1032D000D6800B6808FA03F3CCF80C3500BF00BFAA
:1032E00000BF00BF00BF00BF00BF00BFD9452FD047
:1032F00000BF00BF00BF00BF00BF00BF00BF00BFD6
:1033000000BF00BF00BF00BF00BF00BF00BF00BFC5
:1033100000BF00BF00BF00BF00BF00BF00BF00BFB5
:1033200000BF00BF00BF00BF00BF00BF00BF00BFA5
:1033300000BF00BF00BF00BF00BF00BF00BF00BF95
:1033400000BF00BF00BF00BF00BF00BF00BF00BF85
:10335000013DC3D10B6808FA03F3CCF80835534696
:1033600000BF00BF00BF00BF00BF00BF00BF00BF65
:10337000D9452FD000BF00BF00BF00BF00BF00BFB6
:1033800000BF00BF00BF00BF00BF00BF00BF00BF45
:1033900000BF00BF00BF00BF00BF00BF00BF00BF35
:1033A00000BF00BF00BF00BF00BF00BF00BF00BF25
:1033B00000BF00BF00BF00BF00BF00BF00BF00BF15
:1033C00000BF00BF00BF00BF00BF00BF00BF00BF05
:1033D00000BF00BF013BC3D10134092C7FF46FAFA4
:1033E000019D4B68DFF8A48001244FF0A04E04FA41
:1033F00003F34FF0040CCEF80C35634600BF00BF5A
:1034000000BF00BF00BF00BF00BF00BFC1452FD03D
:1034100000BF00BF00BF00BF00BF00BF00BF00BFB4
:1034200000BF00BF00BF00BF00BF00BF00BF00BFA4
:1034300000BF00BF00BF00BF00BF00BF00BF00BF94
:1034400000BF00BF00BF00BF00BF00BF00BF00BF84
:1034500000BF00BF00BF00BF00BF00BF00BF00BF74
:1034600000BF00BF00BF00BF00BF00BF00BF00BF64
:10347000013BC3D14B689C40CEF8084586E6019DD0
:103480007346002CAED181E6640000200024F400D5
:103490000379064A016803EB830302EBC3030220AE
:1034A000052283F82200C1F800257047DC120020B5
:1034B000930701D0062070472DE9F04305792D4E82
:1034C000D0F800E0AF007B194FF0FF3006EBC303EC
:1034D000CEF8080393F8240083B030B19B68CEF88F
:1034E0000433112003B0BDE8F08382F00400C0F380
:1034F000800012F0080983F8240003D0062003B0EE
:10350000BDE8F0839A610C46944607C903F10C08A4
:1035100088E80700A27883F820206268DA61627880
:10352000CEF88825227805EB8500012A06EBC0003D
:1035300018D0AAB9CCF340137A1906EBC202009353
:1035400082F82130A37862687146FFF7FDFC3D44A4
:10355000ED007359002BC5D1354485F82430C1E7FF
:103560000123E9E783F821907146A3786268FFF7A9
:103570000BFCECE7DC120020F0B5724C724B94F8B7
:10358000232091B0AAB9D3F8241194F8205094F8CC
:103590002600002949D0C3F82421D3F82421089219
:1035A0000122089984F823205A61854214D011B071
:1035B000F0BD0022C3F82421D3F824110991099900
:1035C000C3F81C21D3F81C110A910A99C3F80821E9
:1035D000D3F808310B930B9B5B4BD3F80421002AE3
:1035E000E5D00022C3F80421D3F804310393039BF0
:1035F00094F82330002B33D1217B8B1E012B6AD909
:10360000524B93E8070010AD05E9070000238DF841
:103610003030A3690022590784F82420C7D42368D6
:1036200061680CA8984711B0F0BDD3F81C21E66979
:103630006AB3C3F81C11D3F81C210792079AD3F878
:10364000242194F82170002A5AD0C3F82411D3F809
:10365000242106920122069984F823205A61A4E7C6
:103660003A4B394D93E8070010AB03E90700D5F852
:10367000C434C5F8C4349A0703D501238DF830301B
:10368000C7E7580744BF02238DF83030C1E7D3F8AD
:103690000811002989D0C3F80821D3F80811059131
:1036A0000599D3F82411002937D185427FF67DAFE3
:1036B000D3F81825325494F826200132D2B2691E6C
:1036C0008A4284F8262033D095423FF46EAF1E4BD9
:1036D00001221A6269E7E26923699A4290D1A069DE
:1036E0006269E37BE261C0F34010032984F82100A2
:1036F00084F8203020D014491248FFF745FB56E7E4
:10370000854203D801228FB1DA6171E7325CC3F8D8
:103710001C25431C84F8263047E7C3F82421D3F83E
:10372000242104920499012284F823205A613CE761
:103730000222C3F80022CAE7009003490148FFF7BC
:1037400003FC34E7DC12002000300040E8120020C7
:103750002DE9F0472A4A2B4B0025C2F84051C2F808
:103760004451C2F84851C2F84C51C2F80051C2F855
:1037700004511B682BB32449D2F804450A68234E30
:10378000DFF89C90A41A1A6824F07F44A242A8464D
:1037900009D8197CDF69A41A1544A1B91FB13B46A9
:1037A0001A68A242F5D91A491A4A0B7812789A4235
:1037B0001ED01949194A41F823504FF48013C2F81A
:1037C0000031BDE8F087D3F814A083F81080326888
:1037D0009B695046194642B190470028DED04A46C0
:1037E0004FF4A771FEF7EAF9D8E71846D047D5E7B6
:1037F000531CDBB2022B08BF00230B70D9E700BFBC
:103800000010014024130020201300200413002086
:103810001D1300201C1300201413002000E100E001
:10382000E87C01002DE9F04FA34AA44913780978F8
:10383000A348994289B0D0F800B000F0E580013388
:10384000DBB2022B08BF002313709E4A52F823609C
:103850009B4A0BEB060323F07F4313600123059380
:10386000994B93F80090994BD3F800A0964B5C7855
:103870005B680393944B9B780293954B1B7804935E
:103880008F4B00271B680693CC465546D646B84654
:1038900001973B460097A44523D00CEB4C020398BC
:1038A000029F10F832100CF1010C5FFA8CFCBC4541
:1038B00008BF4FF0000C022900EBC2027BD00329A5
:1038C000E9D1BEF1000FE6D0DEF81C208EF81030F2
:1038D0009646002AF8D11546A4454FF00102009201
:1038E000DBD1019B009F002B40F0A380B8F1000FBB
:1038F00002D0734B069A1A600FB1744B1D60059B82
:10390000002B40F0C281BAEB0E0318BF01230593D0
:1039100000250023019304931F466D4BDFF8B4B1DB
:103920001B780693664BD3F80080684B1B680093A6
:1039300076464FF0010A35B36A68A9682B46ED69EF
:10394000A2EB080020F07F40584577D80144196069
:103950005F609F6083F810A0DF61002E00F08E8012
:103960003068884280F08280344603E010688842E4
:103970006DD21446E269091A002AF7D11960DA619A
:10398000E361002DD8D1039909EB490309F1010244
:10399000CC4501EBC3045FFA82F900F09D8011F879
:1039A0003300029B4B4508BF4FF0000901286AD045
:1039B00001230493E8E75068BEF1000F3FF46BAFBA
:1039C0007045714617D0009F02E0904205D0114625
:1039D000CA69002AF9D100975DE7884200970BD0A9
:1039E000C2690068CA61002A3FF455AF11680144FA
:1039F0001160AE464FE77046DEF81C20964632B1A5
:103A0000154601220092EBE70026059628E702F111
:103A1000804202F588324FF00108C2F808807546EE
:103A2000CDF818E0CDF80080CDF80480CDF81080F6
:103A3000D6E7274B9DF810201A7057E7A8EB020233
:103A400022F07F428A4208D2891A196080E7401A20
:103A500010601960DA61E36193E71F605F609F6047
:103A600083F810A0DF614EB130680021411A316047
:103A70000093DE611E46012301935CE700931E461E
:103A80000123019357E763681A7C0492002A7FF4AC
:103A90007BAFA2685A60E168996007902069D8609E
:103AA00064699C61069C002C00F0EC80049A5A60CA
:103AB0000494002244E700BF1C1300201D130020C3
:103AC00020130020141300200813002024130020CA
:103AD00010130020FEFF7F00049B002B40F0A68106
:103AE000019B13B1804B009A1A60764500F0C080AC
:103AF000002E00F007817D4A7D49D2F804050C783C
:103B00003668A0EB080323F07F430333002C50D129
:103B1000784CDFF8E8E1784F4FF48035C2F8445331
:103B2000C2F804534FF40035C4F8805125600124D5
:103B30001460DEF800502F2200BF00BF00BF00BF9E
:103B400000BF00BF00BF00BFBD422FD000BF00BFFD
:103B500000BF00BF00BF00BF00BF00BF00BF00BF6D
:103B600000BF00BF00BF00BF00BF00BF00BF00BF5D
:103B700000BF00BF00BF00BF00BF00BF00BF00BF4D
:103B800000BF00BF00BF00BF00BF00BF00BF00BF3D
:103B900000BF00BF00BF00BF00BF00BF00BF00BF2D
:103BA00000BF00BF00BF00BF00BF00BF013AC3D1CC
:103BB0000C709E422CBF08EB060343444B4923F094
:103BC0007F43C1F84035D1F80425121A1B1A22F0A0
:103BD0007F4223F07F4303329A424DD9D1F8043516
:103BE000464AC1F84035126843492F2300BF00BF41
:103BF00000BF00BF00BF00BF00BF00BF8A422FD080
:103C000000BF00BF00BF00BF00BF00BF00BF00BFBC
:103C100000BF00BF00BF00BF00BF00BF00BF00BFAC
:103C200000BF00BF00BF00BF00BF00BF00BF00BF9C
:103C300000BF00BF00BF00BF00BF00BF00BF00BF8C
:103C400000BF00BF00BF00BF00BF00BF00BF00BF7C
:103C500000BF00BF00BF00BF00BF00BF00BF00BF6C
:103C6000013BC3D1234B4FF40032C3F8002103E0E2
:103C7000059B002B7FF43CAF214A0023137009B051
:103C8000BDE8F08F079804905AE6174B002477465A
:103C90002546214620461B68DDF814E0A7B13A68A6
:103CA000B24218D8FC683860B61A1144FB693CB1BE
:103CB0000BEB010222F07F42FD61BC607A603D4661
:103CC0001F467446002FEAD1BE46002C3FF421AEB9
:103CD000054A13601DE6BE46002C40F0A480921BEE
:103CE000CEF8002015E600BF24130020001001408C
:103CF0001113002000E100E00024F4006400002023
:103D0000101300204B4A4C4B4C4D4D484FF4803122
:103D10004FF400370124C3F88070C2F848132F23F2
:103D2000C2F80813546029681D4600BF00BF00BFD9
:103D300000BF00BF00BF00BF00BF81422FD000BF47
:103D400000BF00BF00BF00BF00BF00BF00BF00BF7B
:103D500000BF00BF00BF00BF00BF00BF00BF00BF6B
:103D600000BF00BF00BF00BF00BF00BF00BF00BF5B
:103D700000BF00BF00BF00BF00BF00BF00BF00BF4B
:103D800000BF00BF00BF00BF00BF00BF00BF00BF3B
:103D900000BF00BF00BF00BF00BF00BF00BF013DAC
:103DA000C3D19460274A166000BF00BF00BF00BFA8
:103DB00000BF00BF00BF00BF81422FD000BF00BFC7
:103DC00000BF00BF00BF00BF00BF00BF00BF00BFFB
:103DD00000BF00BF00BF00BF00BF00BF00BF00BFEB
:103DE00000BF00BF00BF00BF00BF00BF00BF00BFDB
:103DF00000BF00BF00BF00BF00BF00BF00BF00BFCB
:103E000000BF00BF00BF00BF00BF00BF00BF00BFBA
:103E100000BF00BF00BF00BF00BF00BF013BC3D158
:103E2000094B1E7028E709490B6058E7084B83F8D7
:103E300000C055E60010014000E100E064000020F1
:103E40000024F4002013002011130020241300206C
:103E500008130020411A21F07F41116000207047B3
:103E60005AB1F8B54379114F114D03EB430445F8AE
:103E700023203C5D1CB10820F8BD07207047054693
:103E80000E4690F904008978FEF77CF82B6832889A
:103E9000C3F808256B79F178357903EB4303FA18F9
:103EA0000126FE54557091702046F8BD281300205D
:103EB0002C1300200368044A01211960437903EBA5
:103EC00043030221D15470472813002010B53B4B07
:103ED000D3F80423D20384B003D5394A11680029EA
:103EE0003CD1364BD3F80423940303D5354A1168EB
:103EF000002942D1314BD3F80423500303D5324A71
:103F00001168002949D12D4BD3F80423D10702D5DC
:103F1000D3F80021B2B9294BD3F80423920702D574
:103F2000D3F804210AB904B010BD0022C3F804215B
:103F3000264AD3F80431019305201368019A984763
:103F400004B010BD0022C3F80021204AD3F800318C
:103F5000029304201368029A9847DCE74FF48031FB
:103F60000020C3F84813194CC3F8081310601368F5
:103F700003932368039A9847B3E74FF40031002472
:103F8000C3F848131148C3F8081314601368039367
:103F90000368039A01209847ACE74FF4802100247E
:103FA000C3F848130948C3F808131460136803934F
:103FB0000368039A02209847A5E700BF00B00040BD
:103FC00040B1004044B1004048B100402C130020F3
:103FD00038B50A4D2C780CB1852038BD2046062115
:103FE0006C60AC602C61EC60FDF7CCFF4FF0804260
:103FF0000123C2F818352B70204638BD301300203D
:1040000030B5164CA37883B0054673B110B1436840
:10401000012098470020FDF7A3FFE368002001334B
:10402000E360FDF7A5FF03B030BD03F0FF00FDF72F
:1040300097FF15B123692B602561E368002BECD154
:10404000074A08491360136801934FF08042022029
:104050000123019DC2F804030B60DEE7301300204A
:10406000040100400800004010B51A4B1A6882B0E5
:10407000A2B100221A601B6800934FF08043012216
:10408000154C0099C3F80823A368627033B10CCBB8
:104090000020A2609847A368002BF8D10F4B1A6844
:1040A000AAB100221A601B6801934FF080430222DC
:1040B000094C0199C3F8082323690122A27033B186
:1040C0000CCB0120226198472369002BF8D102B064
:1040D00010BD00BF0001004030130020040100406B
:1040E00030B5184C94F8455083B015B1082003B092
:1040F00030BD06214FF0FF3308466362A362E362DE
:1041000023636363A363E363236423606360A36047
:10411000E36023616361A361E361236284F8443057
:10412000FDF730FF084B094A1D601B680193019899
:104130004FF000430121284684F84510C2F80433AB
:1041400003B030BD441300207C610040006000409B
:10415000F0B4454B1C1894F92450002D02DB0820C4
:10416000F0BC7047CD78D5B11E68013676D05C685A
:10417000013471D09C6801346CD0DC68013467D0A4
:104180001C69013462D05C6901345DD09C690134E2
:1041900058D0DC6901344BD00420F0BC70471D6A54
:1041A0000135F9D1082584F824502E461A622C4690
:1041B0001E4486F83C008A78AAB1820002F1A0422F
:1041C000D2F8005725F00205C2F80057CA789AB90C
:1041D000083C2344087893F8441041EA801183F89E
:1041E00044101046BCE74D784FF0A04600F5E07251
:1041F000AD0046F82250E9E7A30003F1804303F540
:10420000C0430978D3F8104524F4473424F44074AB
:104210000202C3F810450904D3F8100501F4403137
:1042200002F4F8520A430243C3F81025002097E72E
:1042300007261F1874B243F8262087F82440002D63
:10424000B9D1B5E70626F4E70526F2E70426F0E73C
:104250000326EEE70226ECE70126EAE7002584F8CC
:1042600024501A602C46A6E744130020F0B42E4DCB
:104270002E1882B096F92430072B1CDD2B4493F8BE
:104280003C309B09032B41D0012B14BF4FF440312C
:104290004FF40031800000F1A040D0F8002722F454
:1042A0004032C0F80027D0F800370B43C0F8003781
:1042B00002B0F0BC7047DAB2072AF9D8980000F1D2
:1042C000804000F5C04003F140029200D0F8104554
:1042D00092B202F18042002744F0010402F5C0428C
:1042E000C0F810450197019817600029E0D096F9B1
:1042F000242055F82220002ADAD001220B4902FAA4
:1043000003F3C1F8043302B0F0BC70474FF0A04291
:104310000123D2F81025834013420CBF4FF4003123
:104320004FF44031B6E700BF441300200060004066
:104330002DE9F041934B1A68012A82B000F0F18018
:104340000026914B1A68012A00F0DD808F4B1A6815
:10435000012A00F0CA808E4B1A68012A00F0B7804B
:104360008C4B1A68012A00F0A4808B4B1A68012A32
:1043700000F09180894B1A68012A7ED0884B1A6818
:10438000012A6DD0874B1A68012A5DD0002716F0EC
:10439000FF0F1BD0DFF8108201250024A30003F1DA
:1043A00080432E4203F5C0434FEA45050BD0D3F8B6
:1043B000100558F82420D3F81015C0F30420C1F3D9
:1043C000014102B190470134082CE7D1002E02DBF5
:1043D00002B0BDE8F081744C4FF0FF330025012698
:1043E00094F944104A1CF3D0C9B221F0C000C34074
:1043F000DB07EDD52318890993F9243054F823807D
:10440000B8F1000F00F09A80032906FA00FE00F0D0
:104410009A80830003F1A04317EA0E0FD3F8002718
:10442000C2F3014209D1032AD2D1032900F08E80C0
:10443000B8F1000FCCD0C047CAE7022AC8D103297F
:10444000F6D14FF4403183E000221A601B680193DB
:104450004FF0A043019AD3F8107546F0004696E756
:10446000524AD2F8042311068CD500221A601B6828
:104470000093009B46F0800684E74C4AD2F8042360
:1044800050067FF57BAF00221A601B680093009BEB
:1044900046F0400672E7454AD2F8042394067FF5B9
:1044A00069AF00221A601B680093009B46F020064B
:1044B00060E73E4AD2F80423D5067FF556AF0022C6
:1044C0001A601B680093009B46F010064DE7374AC0
:1044D000D2F8042317077FF543AF00221A601B6848
:1044E0000093009B46F008063AE7304AD2F80423CE
:1044F00052077FF530AF00221A601B680093009BC3
:1045000046F0040627E7294AD2F8042391077FF5ED
:104510001DAF00221A601B680093009B46F0020644
:1045200014E7224AD2F8046316F001063FF409AFFB
:1045300000221A601B680093009B02E703297FF4A6
:1045400047AF06FA00FE45EA0E0562E74FF4003178
:10455000D3F8002722F44032C3F80027D3F800270D
:104560000A43C3F80027B8F1000F01D00321C04768
:104570004FF0A0422B46D2F8102597423FF428AFC7
:1045800017462DE7006100400461004008610040CB
:104590000C6100401061004014610040186100404F
:1045A0001C6100407C61004044130020006000401A
:1045B0000378012B04BF014A137070478E1300204B
:1045C000F0B5174F3B7889B01BB1164B1B7883426F
:1045D00022D0154D06460FCD6C460FC495E80F004E
:1045E0001A2584E80F0019211C221B230F48019172
:1045F000039200950293FDF7C7FD002E0C4A0B486D
:1046000018BF00226946FDF7E5FC18B9054A0123E9
:1046100016703B7009B0F0BD002009B0F0BD00BFBE
:104620008D1300208C130020247D0100A4000020A5
:10463000B14500000120FFF7C3BF00BF2DE9F041E5
:10464000214C074600200E46A568D4F80080FDF7EF
:1046500087FC94E80C00A1680B4401339B1A012BE2
:1046600019D89BB10120002360F301036FF382038B
:104670000520114060F3C503144804EB81016FF37A
:104680008913013260F39F232260CB600020BDE8D4
:10469000F041FDF76DBC013200202260FDF768FC9F
:1046A0000122002362F301036FF3820305EA080588
:1046B00067F3C50304EB85046FF3891366F39F2347
:1046C000E360BDE8F08100BF90130020447D01004D
:1046D0002DE9F0434F4E716832688A428BB078D032
:1046E000B76807EA0105023506EB85020131546817
:1046F00014F003030ED1C4F3891303EB94530B445A
:1047000007EA0305023506EB8502591C546814F0CC
:104710000303F0D0022B2CD0C4F38313C4F39522EF
:10472000002B73D00DF1100C604601EB030E07EA6D
:10473000010506EB850501F10108F045E96840F83F
:10474000041B4146F3D10093C4F3C2006346D6F87C
:1047500010440021A04748B1C6F804803068B0EB8F
:10476000080018BF01200BB0BDE8F083D6F8048024
:10477000F4E701F1010827EA080001EA0703013024
:1047800006EB830380004FEA94598145DA68C4F34D
:10479000891322D988B307EA0801C7B20331A9EB0C
:1047A0000700DFF874E006EB8101C0B28DE88240BB
:1047B0000390D6F814740021C4F3C200B8474845EA
:1047C00020D006EB850560F38F146C60D6F804806A
:1047D000C4E700200BB0BDE8F08307EA080003300F
:1047E00006EB800000218DE8010203910291D6F8CA
:1047F0001474C4F3C200B847E1E786465FFA89F74C
:104800000549D3E7033008EB9008A5E788460DF18A
:10481000100C98E7901300209C1300200CB42DE995
:10482000F0410828C8B04DD8012505FA00F740F23C
:104830007F131F4005D1384648B0BDE8F04102B0B3
:1048400070474FAB04461A4608A84E99019311F0E1
:1048500007FF071EEFDD1722002102A8FBF778FEF5
:10486000194E8DF8095024210D220A238DF80A4093
:104870008DF808108DF81D208DF81E304FF00008BF
:104880000DF11E05122200210DF10B00FBF760FE59
:10489000A7EB0802122AA8BF122208ABD2B203EB80
:1048A00008010DF10B0011F086FE0DF1070414F85C
:1048B000011F304611F0A4FEA542F8D108F11208FC
:1048C0004745DFDC0027B6E7507D0100002866D0B1
:1048D000F0B5044687B0172200216846FBF738FE82
:1048E000D4F800E06768A568E4682D4E4FEA2E62B0
:1048F000002062F307004FEA2E4262F30F204FEAD6
:104900002E223B1662F3174000216EF31F6063F303
:1049100007014FEA274E2B16002263F307024FEAE6
:10492000246C6EF30F2100234FEA254E6EF30F2205
:104930006CF307034FEA244E6EF30F234FEA272E42
:104940006EF3174167F31F612F1267F317422712A7
:1049500067F3174365F31F6264F31F6302250D2499
:104960002427CDF803000A208DF801508DF815405A
:10497000CDF80710CDF80B20CDF80F308DF8007072
:104980008DF816000DF1FF340DF1160514F8011F16
:10499000304611F035FEA542F8D107B0F0BD7047A2
:1049A000507D0100002968D0F0B587B00546172278
:1049B0000C4668460021FBF7CBFD242003210D2285
:1049C0000A238DF802508DF800008DF801108DF843
:1049D00015208DF81630062D4DD8DFE805F013139D
:1049E0001304135F4F00E2680023111661F30703FD
:1049F000111461F30F23111261F3174362F31F6364
:104A0000CDF80F306568A068266800212B160A468D
:104A10003416071663F30702002364F3070167F3F4
:104A2000070334142F1464F30F2167F30F22341299
:104A3000071467F30F2364F317412F12041267F36F
:104A4000174264F3174366F31F6165F31F6260F357
:104A50001F63CDF80310CDF80720CDF80B30324D91
:104A60000DF1FF340DF1160614F8011F284611F060
:104A7000C7FDA642F8D107B0F0BD704722680023F9
:104A8000111661F30703111461F30F23111261F37F
:104A9000174362F31F63CDF80330E0E794E800505A
:104AA00004F114000FC8A768E66825694FEA2C6472
:104AB0008DF803404FEA2E648DF805404FEA2E4EE4
:104AC0003C168DF806E03F144FEA266E8DF807403D
:104AD00036142C164FEA2C4C8DF808702D140F1636
:104AE0008DF809E08DF80A604FEA206E1616001462
:104AF00009148DF80B4012141C161B148DF804C0F9
:104B00008DF80C508DF80DE08DF80E008DF80F70BB
:104B10008DF810108DF811608DF812208DF813406B
:104B20008DF814309BE700BF507D01002DE9F04166
:104B30002D4C84B094F8243000AF8BB3002807F1DB
:104B4000100118BF022001F80D0D62682368157866
:104B500093F811800122781D00266D0011F02BFDC5
:104B6000334607F1040E01227D7307F1080187F82F
:104B700004804FF002051D483D73BE73C7F808E07E
:104B80006D46FEF7CFF818B1194A3121FDF716F836
:104B9000FB786374AD4600201037BD46BDE8F08158
:104BA000A27AF2B1B0B9F87062682368157893F808
:104BB00011800122F91C781D00266D0011F0FBFC0C
:104BC000334607F1040E012287F8048007F108013B
:104BD0007D73CEE7627C12B90123FB70E4E71846CF
:104BE000DAE74FF0FF30D7E7AC000020800000206C
:104BF000D08301002DE9F041674C86B0A37C00AF63
:104C0000002B00F0BC806268236812781B7963482F
:104C100007F1180652004FF0000E06F8153D012569
:104C200042F001017A730222734679753D7307F1F0
:104C30000801BD733D75BD1887F816E0BE603D6183
:104C4000FEF770F8A37A626813F0010FBB7814BF07
:104C500043F0200303F0DF03BB702368157893F85B
:104C600004800122B91C781D11F0A5FC4FF0000E44
:104C70006D003E1D4FF0020C7346012207F1080142
:104C800046487D7387F8048087F80EE0BE6087F899
:104C90000CC06D46FEF746F8002878D1404B4149DC
:104CA0001A68AD4640F6B83300BF00BF00BF00BF72
:104CB00000BF00BF00BF00BF8A422FD000BF00BFAF
:104CC00000BF00BF00BF00BF00BF00BF00BF00BFEC
:104CD00000BF00BF00BF00BF00BF00BF00BF00BFDC
:104CE00000BF00BF00BF00BF00BF00BF00BF00BFCC
:104CF00000BF00BF00BF00BF00BF00BF00BF00BFBC
:104D000000BF00BF00BF00BF00BF00BF00BF00BFAB
:104D100000BF00BF00BF00BF00BF00BF013BC3D149
:104D200094F8223083BB302194F82320BB7002B169
:104D3000B97062682368157893F81780B91C01224E
:104D40006D00781D11F037FC4FF0020E7D7307F1F6
:104D500008014FF00005002301221048BD7387F8B9
:104D60000480BE6087F80CE06D46FDF7DBFF18B1EC
:104D70000D4A3121FCF722FF0023AD46A374002029
:104D80001837BD46BDE8F081B0218023CCE7064A44
:104D90003121FCF713FF81E7AC00002080000020E8
:104DA000640000200024F400D08301002DE9F04FBE
:104DB000674C87B0A37C012B00AF00F0BB8062681A
:104DC000236812781B79634807F1180E4FF0000B27
:104DD0000EF8153D5200012542F0010C16465B46C7
:104DE00007F1080107F10208022287F815C07E7357
:104DF000C7F808E03D73BD733D7587F816B0C7F876
:104E00001080FDF78FFFBB786168226823F02003D4
:104E1000BB7091F8009092F804A041462A46781D94
:104E200011F0C9FB09FA05F92A463E1D02255B4629
:104E300007F1080147483D7387F80D9087F804A0F3
:104E400087F80EB0BE606D46FDF76CFF00287AD182
:104E5000414B42491A68AD4640F6B83300BF00BF27
:104E600000BF00BF00BF00BF00BF00BF8A422FD0FD
:104E700000BF00BF00BF00BF00BF00BF00BF00BF3A
:104E800000BF00BF00BF00BF00BF00BF00BF00BF2A
:104E900000BF00BF00BF00BF00BF00BF00BF00BF1A
:104EA00000BF00BF00BF00BF00BF00BF00BF00BF0A
:104EB00000BF00BF00BF00BF00BF00BF00BF00BFFA
:104EC00000BF00BF00BF00BF00BF00BF00BF00BFEA
:104ED000013BC3D194F822300222BA707BBB32224C
:104EE00094F8233003B1BA7062682368157893F898
:104EF00017904146012200266D00781D11F05BFBE2
:104F00004FF0020E7D7307F108013D1D334601226B
:104F10001048BD6087F80490BE7387F80CE06D46BA
:104F2000FDF700FF18B10E4A3121FCF747FE0123BF
:104F3000AD46A37400201C37BD46BDE8F08F822328
:104F4000BB70B222CCE7064A3121FCF737FE7FE77F
:104F5000AC00002080000020640000200024F40049
:104F6000D08301002DE9F04F2DED028BBD4CADF546
:104F7000117D06AF30CC07F128064FF000084FF046
:104F8000010986F8018086F8009095F800A094F851
:104F900015B0F960BA6031460222044607F11500E7
:104FA0007B600AFA09FA11F006FB07F11405434683
:104FB0004FF0030E4A4607F11801AB4887F81E80F0
:104FC00087F814B087F81DA0BD6187F81CE0E8469B
:104FD000FDF7A8FE18B1A54A3121FCF7EFFDA44A60
:104FE000A44B1268A449C54600BF00BF00BF00BF64
:104FF00000BF00BF00BF00BF8A422FD000BF00BF6C
:1050000000BF00BF00BF00BF00BF00BF00BF00BFA8
:1050100000BF00BF00BF00BF00BF00BF00BF00BF98
:1050200000BF00BF00BF00BF00BF00BF00BF00BF88
:1050300000BF00BF00BF00BF00BF00BF00BF00BF78
:1050400000BF00BF00BF00BF00BF00BF00BF00BF68
:1050500000BF00BF00BF00BF00BF00BF013BC3D106
:10506000804B4FF000095B6886F8009093F800A031
:105070007C4B1B683146012207F1150093F811B0F3
:105080004FEA4A0A11F097FA07F114054FF0020EA1
:105090004B4607F118010122734887F81DA087F8D5
:1050A00014B0BD6187F81E9087F81CE0FDF73AFE4A
:1050B00018B16E4A3121FCF781FD6A4B5A681B68B2
:1050C00092F800A093F8059001223146C54607F1F9
:1050D000150011F070FA4FF0000E4FEA4A0A4FF037
:1050E000020C07F114057346012207F118015E480E
:1050F00087F81DA087F81490BD6187F81EE087F837
:105100001CC0FDF70FFE18B1584A3121FCF756FDBF
:10511000544B5A681B6892F800A093F8159001222E
:105120003146C54607F1150011F045FA4FF0000E63
:105130004FEA4A0A4FF0020C07F1140573460122A8
:1051400007F11801484887F81DA087F81490BD6141
:1051500087F81EE087F81CC0FDF7E4FD18B1434A4C
:105160003121FCF72BFD3F4B5A681B6892F800A0D9
:1051700093F81A9001223146C54607F1150011F047
:105180001AFA4FF0000E4FEA4A0A4FF0020C07F1EC
:1051900014057346012207F11801334887F81DA052
:1051A00087F81490BD6187F81EE087F81CC0FDF7F2
:1051B000B9FD002840F018842A4B5A681B6892F801
:1051C00000A093F8049001223146C54607F115006E
:1051D00011F0F1F94FF0000E4FEA4A0A4FF0020CBD
:1051E00007F114057346012207F118011E4887F8DC
:1051F0001DA087F81490BD6187F81EE087F81CC0D9
:10520000FDF790FD002840F0F5830C23154A33701C
:10521000144B52681B6892F800A093F80490012286
:105220003146C54607F1150011F0C5F94FF0000EE3
:105230004FEA4A0A4FF0020C07F1140573460122A7
:1052400007F11801084887F81DA087F81490BD6180
:1052500087F81EE087F81CC0FDF764FD002840F0C9
:10526000CE830BE0AC00002080000020D083010042
:1052700064000020400D03000024F400874A8849A0
:10528000126843F69823C54600BF00BF00BF00BFA9
:1052900000BF00BF00BF00BF8A422FD000BF00BFC9
:1052A00000BF00BF00BF00BF00BF00BF00BF00BF06
:1052B00000BF00BF00BF00BF00BF00BF00BF00BFF6
:1052C00000BF00BF00BF00BF00BF00BF00BF00BFE6
:1052D00000BF00BF00BF00BF00BF00BF00BF00BFD6
:1052E00000BF00BF00BF00BF00BF00BF00BF00BFC6
:1052F00000BF00BF00BF00BF00BF00BF013BC3D164
:10530000684B684A5B6B52685B7A3370654B92F806
:1053100000A01B683146012207F1150093F80290A6
:1053200011F049F94FF0000E4FEA4A0A4FF0020C13
:1053300007F1140507F11801734601225A4887F84E
:105340001DA087F81490BD6187F81CC087F81EE087
:10535000FDF7E8FC002840F05783524B514A5B6B45
:1053600052681B7A33704F4B92F800A01B680122E1
:105370003146C54607F1150093F8019011F01BF96D
:105380004FF0000E4FEA4A0A4FF0020C07F11405E5
:105390007346012207F11801434887F81DA087F8DA
:1053A0001490BD6187F81EE087F81CC0FDF7BAFCB9
:1053B000002840F06B83BB68C546002B00F0628379
:1053C000384B5B6B9B7A43F0E003364A3370354BC6
:1053D00052681B6892F8009093F8068001223146CB
:1053E00007F1150011F0E7F84FF0000E4FEA4909F8
:1053F0004FF0020C07F114057346012207F1180162
:10540000294887F8148087F81D90BD6187F81EE051
:1054100087F81CC0E846FDF785FC18B1234A312106
:10542000FCF7CCFBBB68C54623B11E4B5B6BDB7A3C
:1054300043F0E0031B4A33701A4B52681B6892F822
:10544000009093F807800122314607F1150011F012
:10545000B2F84FF0000E4FEA49094FF0020C07F185
:1054600014057346012207F118010F4887F81480CC
:1054700087F81D90BD6187F81EE087F81CC0E846DC
:10548000FDF750FC18B1094A3121FCF797FB034A9C
:10549000074B12680249C5460CE000BF64000020BB
:1054A0000024F400AC00002080000020D083010024
:1054B000400D030000BF00BF00BF00BF00BF00BF22
:1054C00000BF00BF8A422FD000BF00BF00BF00BF97
:1054D00000BF00BF00BF00BF00BF00BF00BF00BFD4
:1054E00000BF00BF00BF00BF00BF00BF00BF00BFC4
:1054F00000BF00BF00BF00BF00BF00BF00BF00BFB4
:1055000000BF00BF00BF00BF00BF00BF00BF00BFA3
:1055100000BF00BF00BF00BF00BF00BF00BF00BF93
:1055200000BF00BF00BF00BF013BC3D14023B34A4F
:105530003370B24B52681B6892F800A093F8049045
:105540003146012207F1150011F035F84FF0000E39
:105550004FEA4A0A4FF0020C07F1140507F118014F
:1055600073460122A64887F81DA087F81490BD61F4
:1055700087F81CC087F81EE0FDF7D4FB18B1A14ADC
:105580003121FCF71BFB78239C4A33709B4B5268FC
:105590001B6892F800A093F8059001223146C54699
:1055A00007F1150011F007F84FF0000E4FEA4A0A14
:1055B0004FF0020C07F114057346012207F11801A0
:1055C0008F4887F81DA087F81490BD6187F81EE00A
:1055D00087F81CC0FDF7A6FB18B18A4A3121FCF7F9
:1055E000EDFAFA687B680021A16061602160C54620
:1055F000916051601160002B40F04D82FD684FF0CA
:10560000000B814A8149126842F2107300BF00BF4B
:1056100000BF00BF00BF00BF00BF00BF8A422FD045
:1056200000BF00BF00BF00BF00BF00BF00BF00BF82
:1056300000BF00BF00BF00BF00BF00BF00BF00BF72
:1056400000BF00BF00BF00BF00BF00BF00BF00BF62
:1056500000BF00BF00BF00BF00BF00BF00BF00BF52
:1056600000BF00BF00BF00BF00BF00BF00BF00BF42
:1056700000BF00BF00BF00BF00BF00BF00BF00BF32
:10568000013BC3D15D4B5D4A5B6812681B78127B9E
:10569000BA745B0043F001024FF0020C4FF0000EB1
:1056A0007B7787F82520012307F11202BA613B7747
:1056B000BB7707F11801734651483E62624687F88E
:1056C00024C087F826E0FDF72DFB337896F801809B
:1056D00048EA03284E4BA3FB0838C8F3C708CBF1B0
:1056E000C803434580F295815FFA83F8434B434AF0
:1056F0001B6852685B7B1278FB7408EB48039B00C5
:1057000013F0FF0140F09C8108F1FF3E5FFA8EFE2E
:105710000EF1010E0EEB4E0E06EB8E0E33465A784E
:1057200093F800C0D87893F802A0597993F80490C0
:1057300042EA0C2C2A6840EA0A2A686841EA0929E8
:1057400002FA8CF2A9682A6000FA8AF09A7993F832
:1057500007A093F80AC0686001FA89F1A96093F87C
:105760000890597A20684AEA022ADA7A41EA092935
:1057700042EA0C2C6168A2680C3300FA8AF001FA44
:1057800089F102FA8CF29E4520606160A260C6D168
:10579000C344BBF1C70F7FF734AF7B68FD60002BBC
:1057A00040F07E81154B4FF000085B6886F8008062
:1057B00093F80090114B1B683146012207F1140544
:1057C00007F115005E794FEA490910F0F4FEBD615A
:1057D00043464FF0020507F11801012208483E75C3
:1057E00087F81D9087F81E803D776E46FDF79AFA80
:1057F00090B1044A3121FCF7E1F90DE0AC00002042
:1058000080000020D0830100640000200024F40008
:10581000ABAAAAAA0000803720685A46C317190409
:10582000D317B54641EA10411E46832200230004E7
:1058300010F094FC5A46334610F090FC63682060E8
:10584000D917090441EA134118048322002310F0F8
:1058500085FC5A46334610F081FCA3686060D91776
:10586000090441EA134118048322002310F076FC56
:105870005A46334610F072FCFB68A060D3F800E093
:105880007046C11709044FEA0E4241EA1E43002A3E
:1058900073F100015D46C0F21881900B40EA83402D
:1058A00099132A46334610F059FCF968D1F804E000
:1058B00082467046C1F800A0C11709044FEA0E42A3
:1058C00041EA1E43002A73F10001C0F2F880900BF8
:1058D00040EA834099132A46334610F03FFCFA68A9
:1058E0009168CB171B044FEA014843EA1149B8F10C
:1058F000000F834679F10003C2F804B0C0F2D780EC
:105900004FEA983033462A4640EA89404FEAA931A7
:1059100010F024FCFB680028CCBFA0F5803000F517
:10592000803098607B68002B56D007EE900A1FED00
:10593000478AF8EEE77A67EE887A17EE900A0FF05A
:1059400083FF07EE90BAF8EEE77ACDE9040167EE3F
:10595000887A17EE900A0FF077FF07EE90AAF8EE1C
:10596000E77ACDE9020167EE887A17EE900A0FF028
:105970006BFFBD68584A2B46CDE900010021042089
:10598000FEF74CFFD4ED027AF8EEE77A67EE887AFC
:1059900017EE900A0FF058FFCDE90401D4ED017A1B
:1059A000F8EEE77A67EE887A17EE900A0FF04CFF70
:1059B000CDE90201D4ED007AF8EEE77A67EE887A55
:1059C00017EE900A0FF040FF2B46CDE90001434A45
:1059D00000210420FEF722FF002007F50B77BD46CB
:1059E000BDEC028BBDE8F08F3D4A3121FCF7E6F8B3
:1059F000FFF7E2BB3A4A3121FCF7E0F805E4384A08
:105A00003121FCF7DBF839E4354A3121FCF7D6F8CF
:105A1000A3E4344B334A1B6852685B7B1278FB74F7
:105A200008EB48039B0013F0FF0109D1B8F1000F08
:105A30007FF46AAEC344BBF1C70F7FF7E2ADACE6BB
:105A400052004FF0000907F1130042F0010C4FF033
:105A5000010E7A77B86187F824104B46022207F1CD
:105A60001801214887F825C03E6287F8269087F8FC
:105A70001CE087F81EE0FDF755F9B8F1000F7FF440
:105A800043AED7E7174B5B6B9B7A9EE4144A3121F8
:105A9000FCF794F88FE4154A0420FEF7BFFEADE54D
:105AA0005B46134A00210420FEF7B8FE7AE643F66F
:105AB000FF72002318EB020849EB030920E743F6C5
:105AC000FF70002112184B4101E743F6FF700021DF
:105AD00012184B41E1E600BF8C7D0100C07D010042
:105AE000D0830100AC00002080000020607D010018
:105AF0007C7D01002DE9F04F274FD7F804C09CF8BA
:105B000004E089B0BEF1000F41D0DFF89080DFF8EB
:105B100090A000240DF10F093D686B7BA34232D0A9
:105B20002D7E0026A5424FF0010B33464FF00202B6
:105B300004A9404627D09CF800508DF80F4005FA84
:105B40000BF545EA0B0E8DF815500DF10E058DF88D
:105B50001DE0CDF810908DF814B08DF816B00695B4
:105B60008DF81CB08DF81E60FDF7DCF89DF80E3046
:105B700000933146234652460420FEF74FFED7F8E5
:105B800004C09CF804E00134E4B27445C4D300209E
:105B900009B0BDE8F08F00BFAC00002080000020FD
:105BA00018800100F0B5274B9A7A120789B045D5C5
:105BB0005A681B681278DB7B0E4608A9520001F870
:105BC000193D42F0010700258DF8152001220446F9
:105BD0000DF1080E2B468DF81D70049106278DF8E7
:105BE00014208DF8162004A902221748CDF818E0D9
:105BF0008DF81C708DF81E50FDF794F89DF808E0A4
:105C00009DF809109DF80A709DF80B209DF80C0076
:105C10009DF80D3041EA0E2142EA072243EA0023B3
:105C200021806280A3802EB1FBF798FF3060284668
:105C300009B0F0BD3546284609B0F0BD4FF0FF353C
:105C4000F5E700BFAC00002080000020F0B52B4D30
:105C5000AB7A87B0002B4ED095E80C000E4606A913
:105C60001B78127C01F8152D5B004FF0020E00240A
:105C70008DF80D30029143F0010301218DF81530AC
:105C8000724623468DF816408DF80C1001AC8DF845
:105C90000E10074602A91A4804948DF814E0FDF787
:105CA00041F89DF804209DF8053043EA02231CB218
:105CB00016B1FBF753FF30606B689FED126AB3F9C2
:105CC0000820DB8807EE902AB8EEE77A07EE904AC4
:105CD00006EE903AF8EEE77AF8EEE66A77EEC77AE3
:105CE000002087EEA67A77EE067AFEEEC87AC7ED38
:105CF000007A07B0F0BD4FF0FF30FAE7AC000020AB
:105D00008000002000000C422DE9F047BB4C84B01D
:105D1000A37A00AF002B00F0758207F110054FF059
:105D2000000305F80D3D6268236892F8008093F83F
:105D3000119029460122781D10F03DFC4FEA4808D9
:105D400007F1040A4FF0020E4FF00006002307F19E
:105D500008010122AA4887F80D8087F80490BE73D5
:105D6000C7F808A087F80CE0E846FCF7DBFF18B19D
:105D7000A44A3121FBF722FF62682368127893F866
:105D80000590164629460122C546781D10F013FCE1
:105D9000730019464FF0000E4FF0020C79737346F2
:105DA000012207F10801964887F80490C7F808A077
:105DB00087F80EE087F80CC0FCF7B4FF18B1914AE1
