:1000000000000120650500008D0500008F0500003F
:100010009105000093050000950500000000000018
:100020000000000000000000000000009705000034
:1000300099050000000000009B0500009D050000E0
:100040009F0500009F0500009F0500009F05000020
:100050009F0500009F050000910C00009F05000017
:100060009F0500009F0500009F0500009F05000000
:100070009F0500009F0500009F0500009F050000F0
:100080009F0500009F0500009F0500009F050000E0
:100090009F0500009F0500009F0500009F050000D0
:1000A0009F0500009F0500009F0500009F050000C0
:1000B0009F0500009F0500000000000000000000F8
:1000C0009F0500009F0500009F0500009F050000A0
:1000D0009F0500009F0500009F0500000000000034
:1000E0000000000000000000000000000000000010
:1000F0000000000000000000000000000000000000
:1001000000000000000000000000000000000000EF
:1001100000000000000000000000000000000000DF
:1004000010B5054C237833B9044B13B10448AFF34E
:1004100000800123237010BD700000200000000048
:10042000300F00000C4B43B10C480D4910B5AFF331
:1004300000800C48036823B910BD0A48036833B92B
:100440007047094B002BF7D0BDE810401847064B0A
:10045000002BF5D0184700BF00000000300F00004F
:10046000740000206C00002000000000154B002BE1
:1004700008BF134B9D46A3F5803A00218B460F46DB
:100480001348144A121A00F063F80F4B002B00D0E7
:1004900098470E4B002B00D0984700200021040005
:1004A0000D000D48002802D00C48AFF3008000F08A
:1004B0002BF82000290000F0C3F900F011F800BF6C
:1004C0000000080000000120000000000000000003
:1004D00070000020D4000020000000000000000098
:1004E00008B5074B044613B10021AFF30080054B5C
:1004F0001868836A03B19847204600F031F800BFBE
:1005000000000000280F000070B50D4E0D4CA41B1C
:10051000A4100025A54209D10B4E0C4C00F0F8FCAC
:10052000A41BA4100025A54205D170BD56F82530A6
:1005300098470135EEE756F8253098470135F2E740
:100540006400002064000020640000206800002097
:1005500002440346934200D1704703F8011BF9E7B8
:10056000FEE700BF0649074A074B9B1A03DD043B21
:10057000C858D050FBDC00F013F8FFF777FF0000FD
:100580003C0F00000000002070000020FEE7FEE7A6
:10059000FEE7FEE7FEE7FEE7FEE7FEE7FEE7FEE733
:1005A000F0B4924B1B78062B16D0914AD2F88830C3
:1005B00043F47003C2F88830BFF34F8FBFF36F8FDF
:1005C0004FF01023D3F80C32DB0700F1E480894BA5
:1005D000894A1A60F0BC7047884B1B681E07E4D13B
:1005E000874B1B6803F0F003302B02D1854B864A02
:1005F0001A60834B1B6803F0F002302A00F0BA80C7
:1006000003F0E003402B00F0B5807D4B1B6803F046
:10061000F003302B00F09E80794B1B6803F0F00252
:10062000302A00F0838003F0E003402B7ED0744B2F
:100630001B6803F0F003302B6AD0714B1B6803F08A
:10064000F003302B4DD06E4B1B6803F0F003502BA2
:10065000ABD14FF080526D4BD2F80414C3F8201583
:10066000D2F80814C3F82415D2F80C14C3F82815CE
:10067000D2F81014C3F82C15D2F81414C3F830159E
:10068000D2F81814C3F83415D2F81C14C3F8401566
:10069000D2F82014C3F84415D2F82414C3F848152E
:1006A000D2F82814C3F84C15D2F82C14C3F85015FE
:1006B000D2F83014C3F85415D2F83414C3F86015C6
:1006C000D2F83814C3F86415D2F83C14C3F868158E
:1006D000D2F84014C3F86C15D2F84424C3F870253E
:1006E00063E7424B4A491B784A4D4B484B4A052722
:1006F0000F60012600243F21062B2E60046011604C
:100700007FF453AF3D4B1B681A077FF44EAF9AE757
:10071000364B434A1B780321062B11607FF445AF0B
:10072000364B1B6819077FF440AF86E72F4B1B78C9
:100730004FF080420021062BC2F80C11C2F81011B4
:10074000C2F838157FF431AF2C4B1B6818077FF4C3
:100750002CAF6CE7334A2549D368097823F08073BE
:100760000629D3607FF421AF244B1B681C077FF45C
:100770001CAF51E72C4A1D4B12681B782B49C2F362
:100780004232062B0A607FF410AF1C4B1B681D071A
:100790007FF40BAF39E7264B0122C3F80425D3F8C9
:1007A0000024002AFBD04FF01021214AD1F80C324E
:1007B00023F00103C1F80C32D2F80034002BFBD037
:1007C00000231B49C2F80435D1F80034002BFBD0BC
:1007D000BFF34F8F0649174BCA6802F4E062134318
:1007E000CB60BFF34F8F00BFFDE700BFE00F00F00D
:1007F00000ED00E0600000200090D003E40F00F066
:10080000E80F00F074C007400DF0ADBA00C0004022
:1008100010560040885600401856004014560040BC
:10082000A0050040F0ED00E0440200103C0500404F
:1008300000E001400400FA05162000F029B900BFCD
:1008400000B583B000F074F800BB002369461620A1
:100850008DF80230ADF8003000F0A2F898B90D4BD9
:100860000D4A18680190032301A909208DF805306D
:1008700000F01EF920B90121092000F0A7F9FEE7D8
:1008800000F00CF8F7E700F009F8E8E700F006F8E8
:10089000DBE700BF2C0F00003908000000B585B071
:1008A00000230390194601AA44F20100ADF8043078
:1008B000029300F003F805B05DF804FBBFF34F8F1F
:1008C0000549064BCA6802F4E0621343CB60BFF3EC
:1008D0004F8F00BFFDE700BF00ED00E00400FA0508
:1008E000002810B418DB00F1604303F561434901AF
:1008F000C9B283F80013C3B24009800000F1604020
:1009000000F5614003F01F0201239340C0F88031DD
:1009100003605DF8044B7047C3B2044A03F00F0450
:1009200049012244C9B21176E6E700BFFCEC00E0C1
:1009300030B5184C94F8455083B015B1082003B079
:1009400030BD06214FF0FF3308466362A362E362C5
:1009500023636363A363E363236423606360A3602F
:10096000E36023616361A361E361236284F844303F
:10097000FFF7B6FF084B094A1D601B6801930198F9
:100980004FF000430121284684F84510C2F8043393
:1009900003B030BD8C0000207C610040006000404E
:1009A00070B43A4B1A1892F92440013402D008204E
:1009B00070BC70478C78DCB11A6801325AD05A6822
:1009C000013259D09A68013258D0DA68013257D0D2
:1009D0001A69013256D05A69013255D09A690132EA
:1009E0001BD0DA69013208BF072517D00420DFE7E2
:1009F000FE2382F824304B78012B35D001234FF0B1
:100A0000A0428340C2F80C3500F5E0704FF0A043DF
:100A1000032243F820200020CAE70625AA0002F19D
:100A2000804202F5C0421E18002443F8254086F893
:100A30002450D2F810450B784D7824F4981424F4FF
:100A4000F8541B042D05C2F8104505F4801503F475
:100A5000403304022B4304F4F854D2F810552343D6
:100A60002B43C2F81035C6E74FF0A0428340C2F8CE
:100A70000835C9E70025D1E70125CFE70225CDE7F5
:100A80000325CBE70425C9E70525C7E78C0000202F
:100A90004FF0A0420123D2F8041503FA00F020EA37
:100AA00001030840C2F80835C2F80C05704700BFC2
:100AB000F0B4454B1C1894F92450002D02DB08209B
:100AC000F0BC7047CD78D5B11E68013676D05C6831
:100AD000013471D09C6801346CD0DC68013467D07B
:100AE0001C69013462D05C6901345DD09C690134B9
:100AF00058D0DC6901344BD00420F0BC70471D6A2B
:100B00000135F9D1082584F824502E461A622C4666
:100B10001E4486F83C008A78AAB1820002F1A04205
:100B2000D2F8005725F00205C2F80057CA789AB9E2
:100B3000083C2344087893F8441041EA801183F874
:100B400044101046BCE74D784FF0A04600F5E07227
:100B5000AD0046F82250E9E7A30003F1804303F516
:100B6000C0430978D3F8104524F4473424F4407482
:100B70000202C3F810450904D3F8100501F440310E
:100B800002F4F8520A430243C3F81025002097E705
:100B900007261F1874B243F8262087F82440002D3A
:100BA000B9D1B5E70626F4E70526F2E70426F0E713
:100BB0000326EEE70226ECE70126EAE7002584F8A3
:100BC00024501A602C46A6E78C000020F0B42E4D6D
:100BD0002E1882B096F92430072B1CDD2B4493F895
:100BE0003C309B09032B41D0012B14BF4FF4403103
:100BF0004FF40031800000F1A040D0F8002722F42B
:100C00004032C0F80027D0F800370B43C0F8003757
:100C100002B0F0BC7047DAB2072AF9D8980000F1A8
:100C2000804000F5C04003F140029200D0F810452A
:100C300092B202F18042002744F0010402F5C04262
:100C4000C0F810450197019817600029E0D096F987
:100C5000242055F82220002ADAD001220B4902FA7A
:100C600003F3C1F8043302B0F0BC70474FF0A04268
:100C70000123D2F81025834013420CBF4FF40031FA
:100C80004FF44031B6E700BF8C0000200060004008
:100C90002DE9F041934B1A68012A82B000F0F180EF
:100CA0000026914B1A68012A00F0DD808F4B1A68EC
:100CB000012A00F0CA808E4B1A68012A00F0B78022
:100CC0008C4B1A68012A00F0A4808B4B1A68012A09
:100CD00000F09180894B1A68012A7ED0884B1A68EF
:100CE000012A6DD0874B1A68012A5DD0002716F0C3
:100CF000FF0F1BD0DFF8108201250024A30003F1B1
:100D000080432E4203F5C0434FEA45050BD0D3F88C
:100D1000100558F82420D3F81015C0F30420C1F3AF
:100D2000014102B190470134082CE7D1002E02DBCB
:100D300002B0BDE8F081744C4FF0FF33002501266E
:100D400094F944104A1CF3D0C9B221F0C000C3404A
:100D5000DB07EDD52318890993F9243054F8238053
:100D6000B8F1000F00F09A80032906FA00FE00F0A7
:100D70009A80830003F1A04317EA0E0FD3F80027EF
:100D8000C2F3014209D1032AD2D1032900F08E8097
:100D9000B8F1000FCCD0C047CAE7022AC8D1032956
:100DA000F6D14FF4403183E000221A601B680193B2
:100DB0004FF0A043019AD3F8107546F0004696E72D
:100DC000524AD2F8042311068CD500221A601B68FF
:100DD0000093009B46F0800684E74C4AD2F8042337
:100DE00050067FF57BAF00221A601B680093009BC2
:100DF00046F0400672E7454AD2F8042394067FF590
:100E000069AF00221A601B680093009B46F0200621
:100E100060E73E4AD2F80423D5067FF556AF00229C
:100E20001A601B680093009B46F010064DE7374A96
:100E3000D2F8042317077FF543AF00221A601B681E
:100E40000093009B46F008063AE7304AD2F80423A4
:100E500052077FF530AF00221A601B680093009B99
:100E600046F0040627E7294AD2F8042391077FF5C4
:100E70001DAF00221A601B680093009B46F002061B
:100E800014E7224AD2F8046316F001063FF409AFD2
:100E900000221A601B680093009B02E703297FF47D
:100EA00047AF06FA00FE45EA0E0562E74FF400314F
:100EB000D3F8002722F44032C3F80027D3F80027E4
:100EC0000A43C3F80027B8F1000F01D00321C0473F
:100ED0004FF0A0422B46D2F8102597423FF428AF9E
:100EE00017462DE7006100400461004008610040A2
:100EF0000C61004010610040146100401861004026
:100F00001C6100407C6100408C00002000600040BB
:100F1000F8B500BFF8BC08BC9E467047F8B500BFE6
:100F2000F8BC08BC9E46704700000020030000018A
:040F300000000000BD
:080F340038F5FF7F0100000009
:100F3C0000000000000000000000000000000000A5
:100F4C000000000000000000000000000000000095
:100F5C000000000000000000000000000000000085
:100F6C000000000000000000000000000000000075
:100F7C000000000000000000000000000000000065
:100F8C000000000000000000000000000000000055
:100F9C000090D003250400000104000000000000B4
:04000003000005658F
:00000001FF
