:100000000000012059050000810500008305000063
:10001000850500008705000089050000000000003C
:100020000000000000000000000000008B05000040
:100030008D050000000000008F0500009105000004
:10004000930500009305000079120000930500005D
:100050009305000093050000930500009305000040
:100060009305000093050000930500009305000030
:100070009305000093050000930500009305000020
:100080009305000093050000930500009305000010
:100090009305000093050000930500009305000000
:1000A00093050000930500009305000093050000F0
:1000B0009305000093050000000000000000000010
:1000C00093050000930500009305000093050000D0
:1000D0009305000093050000930500000000000058
:1000E0000000000000000000000000000000000010
:1000F0000000000000000000000000000000000000
:1001000000000000000000000000000000000000EF
:1001100000000000000000000000000000000000DF
:1004000010B5054C237833B9044B13B10448AFF34E
:1004100000800123237010BD7C000020000000003C
:1004200078250000084B10B51BB108490848AFF308
:1004300000800848036803B910BD074B002BFBD0B0
:10044000BDE81040184700BF0000000080000020F9
:10045000782500007800002000000000154B002BDC
:1004600008BF134B9D46A3F5803A00218B460F46EB
:100470001348144A121A00F065F80F4B002B00D0F5
:1004800098470E4B002B00D0984700200021040015
:100490000D000D48002802D00C48AFF3008000F09A
:1004A0002BF82000290000F0FDF900F011F800BF42
:1004B0000000080000000120000000000000000013
:1004C0007C000020F8020020000000000000000076
:1004D00008B5074B044613B10021AFF30080054B6C
:1004E0001868836A03B19847204600F033F800BFCC
:1004F000000000009024000070B50E4B0E4CE41A72
:10050000A41000251E46A54204D056F82530984771
:100510000135F8E701F0AEFF084C094BE41AA410CE
:1005200000251E46A54204D056F8253098470135CF
:10053000F8E770BD700000207000002074000020FB
:100540007000002002440346934202D003F8011BCE
:10055000FAE77047FEE700BF0649074A074B9B1AB8
:1005600003DD043BC858D050FBDC00F025F8FFF752
:1005700075FF000084250000000000207C000020A2
:10058000FEE7FEE7FEE7FEE7FEE7FEE7FEE7FEE743
:10059000FEE7FEE7BFF34F8F0549064BCA6802F43A
:1005A000E0621343CB60BFF34F8F00BFFDE700BF96
:1005B00000ED00E00400FA05F8B5A34B1B78062B0C
:1005C0001FD0A24AD2F8883043F47003C2F88830B2
:1005D000BFF34F8FBFF36F8F4FF01023D3F80C2270
:1005E000D20700F11381D3F80022002AC0F2E8807C
:1005F000D3F80432002BC0F2E380954B954A1A6081
:10060000F8BD954B1B681F07DBD1944B1B6803F0AB
:10061000F003302B02D1924B924A1A608F4B1B6829
:1006200003F0F002302A00F0BA8003F0E003402B20
:1006300000F0B580894B1B6803F0F003302B00F00D
:100640009E80864B1B6803F0F002302A00F0838006
:1006500003F0E003402B7ED0804B1B6803F0F003D7
:10066000302B6AD07D4B1B6803F0F003302B4DD04C
:100670007A4B1B6803F0F003502BA2D14FF080524D
:10068000794BD2F80414C3F82015D2F80814C3F833
:100690002415D2F80C14C3F82815D2F81014C3F896
:1006A0002C15D2F81414C3F83015D2F81814C3F866
:1006B0003415D2F81C14C3F84015D2F82014C3F82E
:1006C0004415D2F82414C3F84815D2F82814C3F8F6
:1006D0004C15D2F82C14C3F85015D2F83014C3F8C6
:1006E0005415D2F83414C3F86015D2F83814C3F88E
:1006F0006415D2F83C14C3F86815D2F84014C3F856
:100700006C15D2F84424C3F870255AE74E4B57496C
:100710001B78574D5748584A05270F60012600247B
:100720003F21062B2E60046011607FF44AAF4A4BD4
:100730001B6819077FF445AF9AE7434B4F4A1B7874
:100740000321062B11607FF43CAF434B1B68180755
:100750007FF437AF86E73C4B1B784FF08042002197
:10076000062BC2F80C11C2F81011C2F838157FF42C
:1007700028AF394B1B681C077FF423AF6CE7404A56
:100780003149D368097823F080730629D3607FF458
:1007900018AF314B1B681D077FF413AF51E7394A7F
:1007A000294B12681B783849C2F34232062B0A6083
:1007B0007FF407AF284B1B681E077FF402AF39E7B1
:1007C000324A0123C2F80435D2F80034002BFBD0A2
:1007D0004FF0102315212D4AC3F80012D2F800342F
:1007E000002BFBD04FF0102315222849C3F8042218
:1007F000D1F80024254B002AFAD00022C3F80425A2
:10080000D3F80024002AFBD0FFF7C4FE1F4B0122BF
:10081000C3F80425D3F80024002AFBD04FF010229F
:100820001A49D2F80C3223F00103C2F80C32D1F885
:100830000024164B002AFAD00022C3F80425D3F86E
:100840000024002AFBD0DFE7E00F00F000ED00E01D
:10085000640000200090D003E40F00F0E80F00F0E7
:1008600074C007400DF0ADBA00C000401056004003
:10087000885600401856004014560040A00500401D
:10088000F0ED00E0440200103C05004000E00140B3
:100890000378022B02D0012B00D07047406800F093
:1008A0005DB800BFF0B500238BB04FF0E0714FF0A2
:1008B000A045032403E0D20748BF45F82040013398
:1008C000202B41FA03F203F5E070F4D11D4D1E4FC9
:1008D0001E4E0FCD4FF0A0444FF0E07EC4F808E567
:1008E0004FF0000EC4F80CE504AC0FC495E803000B
:1008F000062384E80300164A00974FF48074694683
:1009000004A801940394029600F0F2F8B8B91148D3
:1009100000F030FE684600F05DF90028FAD19DF83D
:10092000000000F077F90028F9D19DF8003003F0BD
:10093000DF03512BEED1084800F01CFEFEE700F06B
:100940000DF8E4E7942400009800002098010020AE
:1009500091080000AC240000B824000000B585B068
:1009600000230390194601AA44F20100ADF80430B7
:10097000029300F003F805B05DF804FBBFF34F8F5E
:100980000549064BCA6802F4E0621343CB60BFF32B
:100990004F8F00BFFDE700BF00ED00E00400FA0547
:1009A00059B10AB909207047531E1A40FAD1826022
:1009B00001608380C260104670470E20704700BF00
:1009C00010B48468C26803468088121B904203D228
:1009D00004205DF8044B7047DA681C680240002070
:1009E000A154DA680132DA605DF8044B704700BF49
:1009F00003468068DA68904201D10520704710B440
:100A00009A6898881C6802400020A25C0A709A6864
:100A100001329A605DF8044B704700BF30B504782E
:100A2000012C83B024D010D3022C0CD1C3682949E7
:100A30002948019301228DF8004000F0E1FA274B8C
:100A400068461B68984703B030BD25492548FFF725
:100A5000CFFF00282AD0234B9A68DB689A42F2D154
:100A600002A8032300F8083D1C4B1B689847EAE7DF
:100A700043681D4D19782846FFF7A2FF70B9AA6890
:100A8000EB689A421ED1A968EB68AA885B1A9A4261
:100A900012D2164B01221A7003B030BD0F4B0190D9
:100AA0008DF800401B6868469847ECE701220C4926
:100AB000094800F0EDF9CEE701220649064800F0AA
:100AC0009FFAC0E702AB054A03F8080D1268184602
:100AD0009047D8E7A0020020680000209C02002078
:100AE00098020020A4020020B8020020B4020020D6
:100AF0002DE9F0432F4C89B02260002952D00C46DA
:100B000080468A882C4809689946FFF749FF10B14A
:100B100009B0BDE8F083A289A1682848FFF740FF2B
:100B20000028F5D1264D98F810E0D8F80C70D8F8C8
:100B300008600FCD6C460FC495E80F0098F811506F
:100B400002971EF1000E18BF4FF0010E002D84E831
:100B50000F00D8F80050D8F804401A4A1A488DF807
:100B60001C9014BF0E2300238DF815306946D8F869
:100B700014308DF814E0069303968DE8300000F0F1
:100B8000ABF80028C4D1D8F80030104A01331070F7
:100B9000BED09DF81D304BB101220D490A4800F02E
:100BA0002FFAB5E7072009B0BDE8F083064800F04A
:100BB0003DFBF1E79C020020B8020020A4020020C7
:100BC000C42400001D0A000068000020B4020020B8
:100BD000A002002070B50B4C01460B482678FFF7A9
:100BE00007FF05460EB9284670BD002301220749BC
:100BF0000748237000F004FA0028F4D0FFF7AEFE97
:100C0000284670BDB4020020B8020020A0020020D7
:100C10006800002010B501460C48FFF7D1FE0446DD
:100C200008B1204610BD0A4800F0DEF90028F8D1CE
:100C300008490648FFF7DCFE0028F2D101220549E9
:100C40000348BDE8104000F023B900BFA402002013
:100C5000680000209802002070B5161E07DD0C46C3
:100C60008D1914F8010BFFF7D5FFA542F9D13046D5
:100C700070BD00BF10B50C462046FFF7ABFF05283E
:100C8000FAD0012010BD00BF002810B418DB00F11D
:100C9000604303F561434901C9B283F80013C3B24D
:100CA0004009800000F1604000F5614003F01F0240
:100CB00001239340C0F8803103605DF8044B704716
:100CC000C3B2044A03F00F0449012244C9B21176A9
:100CD000E6E700BFFCEC00E02DE9F0410479694D46
:100CE00064012E1986B0F37E1BB1082006B0BDE862
:100CF000F0814F7F37770E684FF0A04E012707FA3B
:100D000006F6CEF808650E6806F5E0764FF0030C9F
:100D10004EF826C04E6806F5E0764EF82630067985
:100D200005EB4616377F002F50D006688F69C6F84E
:100D3000247591F815800F7D066848EA0707C6F804
:100D40006C7591E840010768C7F80C65C7F8148511
:100D50000F7D012F00F08C802B1906465A600B691D
:100D600048482B51EAB13379097F326800EB4310D0
:100D7000037F002B5BD1C2F81C31D2F81C713268A2
:100D80000097009FC2F84431D2F8442133680192A1
:100D90003D48019AC3F80403306840F30730FFF779
:100DA00073FF3379326805EB43131B7F002B3AD076
:100DB0000823C2F800352C4400200123E376E075B7
:100DC0002076A075A07606B0BDE8F08103688E6934
:100DD000C3F8246591F815800E7D036848EA06067D
:100DE000C3F86C6591E808010668C6F80C35C6F8CA
:100DF00014850E7D012EAFD18B6803F5E0734EF89C
:100E00002370CB6806FA03F3CEF80835CB6803F5F8
:100E1000E0734EF823C00368CF688E68C3F8087586
:100E2000C3F8106598E70423C2F80035C3E7002330
:100E3000C2F81031D2F8107132680297029FC2F8DE
:100E40002031D2F8207132680397039FC2F8243111
:100E5000D2F8247132680497049FC2F84431D2F862
:100E60004421336805920948059AC3F8040393E7BF
:100E70008E6806F5E0764EF82630CB6807FA03F365
:100E8000C2E700BFC8020020800002001003020079
:100E9000F0B50379534C5B01E51887B02D7F3DB168
:100EA0000D0C2D04B5F1005F02D0102007B0F0BD8D
:100EB00023444C4F9E7D16B1112007B0F0BD9A75AA
:100EC00099609E8205796D017A19137F13BB0168C1
:100ED000C1F81C31D1F81C61016804960126049FF9
:100EE0008E600168D2F808E0C1F81C31D1F81C31DD
:100EF0000593059B968A938A5768B6B201331EF80C
:100F000006609BB29382C1F81C65002F2FD0002091
:100F100007B0F0BD03689168C3F82061D3F8207171
:100F200003680197019FC3F85861D3F858610368BB
:100F30000296967D029FC3F84415C3F8486503687E
:100F4000012199605368002BE1D1036801E0002979
:100F500045D1D3F82021D3F85811002AF7D0002921
:100F600014BF0F2000202C440023A3759EE7967D1C
:100F7000938A9BB29E4202F1140122D9016804E0D7
:100F8000938A9BB2B3F5807F03D0D1F81C31002B3C
:100F9000F6D0938A9BB2B3F5807FE9D0C1F81C717B
:100FA000D1F81C310393039BB2F814C0938A1FFA43
:100FB0008CFC01331EF80CC09BB29382C1F81CC597
:100FC000D6E70B889BB2B3F5807F08D00268D2F8D1
:100FD0001C31002BFBD00123D3600020C3E70F207E
:100FE000C1E700BFC80200200279044B03EB4213A3
:100FF000987D003018BF0120704700BFC802002054
:10100000F0B40379884E5B01F41888B0257F4DB1A8
:101010000D0C2D04B5F1005F59D01022104608B018
:10102000F0BC70476568002D42D133447E4FDC7DB3
:10103000002C2BD1DA75D9605C761C7605796D01B0
:1010400073191F7F002F50D19B7E8BB984B9036821
:10105000C3F82441D3F8242103680392039AC3F808
:101060000841D3F8082103680492012204991A6008
:1010700071194B68002B6FD003684FF40172C3F8ED
:1010800004230022104608B0F0BC70471C7ED4B187
:10109000002D00F0A980037907EB43173B7F002B5D
:1010A00053D003684FF40472C3F804231122B5E748
:1010B00004684FF401773344C4F80873DC7D5A4F59
:1010C000002CB7D0E2E719611A760124B6E765680B
:1010D000002DAAD004684FF404773344C4F8087391
:1010E000DC7D514F002CA5D0D0E703680025C3F864
:1010F0001051D3F8107103680197019FC3F8445150
:10110000D3F8445103680295029DC3F83415C3F81F
:10111000382594B9036801221A60017949017318CE
:101120005B68002B62D003684FF40472C3F8042399
:101130000022104608B0F0BC70470268D2F80032B6
:1011400043F02003C2F80032E7E703684FF401726E
:10115000C3F80423112261E70268C2F84431D2F8CF
:1011600044310593059B0368D3F82471D3F80841F3
:10117000D3F8442144B9002A2FD1002FF4D03544AC
:101180000023EB75032249E7002FF8D13ABBCC7D51
:10119000C3F80821CCB1D3F808410694069CCF6867
:1011A0004C7ED3F818353B554B7ECC7D0133DBB2FA
:1011B0004B764B7E9C42D6D835440021AB7EE975F8
:1011C0006BB303680121196028E7D3F8084107943D
:1011D000079CD3F818354B7EEEE7002FCFD135446E
:1011E0000023EB750F2219E7112217E7036801E0CE
:1011F00042B980B9D3F81041D3F84421D3F824017F
:10120000002CF5D00E440023F3750028BAD19A4281
:1012100018BF0F2202E73144CA750322FEE60368B5
:1012200001215960FAE600BFC8020020114A037983
:1012300002EB4313197FD9B99B7ECBB910B4016877
:1012400083B0C1F82431D1F8244101680094009C96
:10125000C1F80831D1F80831016801930123019CDC
:101260000B60017902EB4112937603B05DF8044BF9
:10127000704700BFC802002070B59B4C237F8EB022
:10128000002B75D1994AD2F80413890548D4974B9D
:10129000D3F80423520704D5D3F80821002A40F0DC
:1012A000CA80924BD3F81C21C2B1A28AA07D8E497C
:1012B00092B282424FF00002C3F81C2180F0A98054
:1012C000D3F81C210692069A888A8A8A8D6880B291
:1012D0000132285C92B28A82C3F81C05834BD3F892
:1012E0004421DAB10022C3F84421D3F84411A27E8C
:1012F00004910499002A40F08980E27D7A4B6AB11A
:101300000022587ED968DA7501228DF830000B91E1
:101310008DF828200AA893E8060090470EB070BD0B
:10132000D2F824110029B2D0C2F82431D2F8241105
:10133000A37E07914FF401710798C2F808130BB907
:1013400001235360694A02238DF82830D2F8803493
:10135000C2F88034E07DE2680D9300238DF8300000
:10136000E375237621680B9263680AA8984798E78B
:101370005E4BD3F82421002A40F09380D3F810115B
:1013800061B1C3F81021D3F8101103910399D3F878
:101390003C15E07DC9B2884200F0AA80534BD3F8D7
:1013A0004421B2B10022C3F84421D3F84411E07DB6
:1013B000019101994C4960B1D3F83C35C8688DF86A
:1013C00030300123CA750B908DF828300AA80AC95D
:1013D0009847464BD3F82021002A9FD00022C3F81B
:1013E0002021D3F82011A07D009100993E490028CA
:1013F00094D0D3F84C058B688DF830008A750B9328
:101400008DF828200AC90AA8984787E701221A60A0
:1014100073E7D3F81C310593059B00283FF45EAFBA
:101420008B688DF830008A750B938DF828200AC9D7
:101430000AA8984752E7E17D2B4A002970D0002185
:10144000C3F80811D3F8081108910899D068517EA3
:10145000D3F818354354537ED17D0133DBB2537634
:10146000627E214B8A427FF41CAF1A7E002A6DD126
:101470009B7E13B91D4B01225A601C4AE0686368C9
:101480004FF40171C2F80813627E8DF830200025F8
:1014900001220B902168E5758DF828200AA898474D
:1014A000FFE60022C3F82421D3F82411029102217F
:1014B0008DF828100299D3F88014C3F880140D9188
:1014C000D3F83C15E368E27522768DF830100B9363
:1014D000216863680AA89847044BD3F84421002A7E
:1014E0003FF477AF5EE700BFC80200200020004055
:1014F000217EF1B1D3F80062E17526F02001E568A4
:10150000C3F8001226698DF8300001238DF82830C9
:10151000227621680B95E66063680AA898473DE744
:10152000C3F80811D3F808210992099AD3F818359D
:1015300096E7E268E17501238DF830008DF82830D8
:101540000B9294E80A000AA8984727E7DE685D7EB8
:101550001869DA7501210022D8601A765A768DF85A
:1015600028100B968DF8305093E806000AA8904793
:1015700097E600BF0FB40A4B13B51C6824B1A369EA
:1015800013B9204600F04EF805AB049AA168019308
:10159000204600F059F902B0BDE8104004B0704791
:1015A00060000020014900F0A9B800BF3921000007
:1015B000002310B504460360436083608181436665
:1015C000C281036143618361194608225C30FEF7E2
:1015D000B9FF054B6362054BA362054BE362054B04
:1015E0002462236310BD00BFD91D0000FB1D000055
:1015F000331E0000571E000070B568234D1E5D436A
:101600000E4605F1740100F097F8044640B1002140
:1016100080E842000C30A06005F16802FEF792FFFE
:10162000204670BD836910B5044633BB8364C36430
:101630000365124B124A1B688262984204BF012361
:10164000836100F01FF86060204600F01BF8A06086
:10165000204600F017F80022E06004216068FFF7E0
:10166000A7FF01220921A068FFF7A2FF0222122191
:10167000E068FFF79DFF0123A36110BD90240000E7
:10168000A5150000F8B51C4B1E68B369074613B9D1
:101690003046FFF7C7FF4836B4687368013B04D48F
:1016A000B4F90C507DB16834F8E733680BB1366893
:1016B000F2E704213846FFF79FFF30600028F6D19B
:1016C0000C233B60F8BD4FF6FF73E3810123A38138
:1016D00065662560A560656025616561A561082274
:1016E000294604F15C00FEF72DFF6563A563A56440
:1016F000E5642046F8BD00BF902400002DE9F843C2
:101700008046894600F14804002694B1A5686768C0
:10171000013F0CD4AB89012B07D9B5F90E30013349
:1017200003D029464046C84706436835F0E7246899
:10173000EBE73046BDE8F88370B5CD1C25F0030516
:1017400008350C2D38BF0C25002D064601DBA942BB
:1017500002D90C23336046E000F0DAFD234B1C680D
:101760001A462146A1B10B685B1B0ED40B2B03D983
:101770000B60CC18CD501EE08C420DBF63684B68E7
:101780006360136018BF0C4615E00C464968E9E732
:10179000174C23681BB9304600F00EFB2060294629
:1017A000304600F009FB431C18D0C41C24F003048D
:1017B000A0420DD12560304600F0ABFD04F10B00D6
:1017C000231D20F00700C31A0ED05A42E25070BD0C
:1017D000211A304600F0F0FA0130EBD10C233360CF
:1017E000304600F096FD002070BD00BFEC020020E6
:1017F000E80200209368013B002B10B4936009DAE3
:101800009469A34202DBCBB20A2B03D15DF8044BEF
:1018100000F026BB1368581C10601970C8B25DF840
:10182000044B7047F8B506460F461446D518AC422F
:1018300008D03A4614F8011B3046FFF7DBFF431C83
:10184000F5D100E00020F8BD2DE9F04F9DB00C4629
:1018500017460393064618B183690BB9FFF7E2FEFA
:101860007F4B9C4201D1746808E07E4B9C4201D1C1
:10187000B46803E07C4B9C4208BFF468A389180756
:101880000CD5236953B10023099320238DF8293007
:1018900030238DF82A30DFF8D4B144E021463046B9
:1018A00000F044FB0028EED04FF0FF30D5E0039A63
:1018B000111D12680391002A80F28C80524243F07D
:1018C00002000792049098F800302E2B00F08480DC
:1018D000032298F80010654800F0CAFC48B1402384
:1018E000CBEB000003FA00F0049B1843049008F1CE
:1018F000010898F800105E488DF82810062208F1BB
:10190000010700F0B5FC002800F09580594B002B32
:1019100040F08880039B073323F0070308330393C9
:10192000099B53440993B846454615F8013B1BB93A
:10193000B8EB07090FD003E0252BF9D0A846F3E751
:101940004B463A4621463046FFF76CFF01307FD0C8
:10195000099B4B44099398F80030002B78D0002362
:101960004FF0FF3204930793059206938DF853309E
:101970001A930127052229783F4800F079FC05F1E8
:101980000108049B38B13C4A801A07FA00F018435A
:1019900004904546EEE7D90644BF20228DF8532037
:1019A0001A0744BF2B228DF853202A782A2A3FF4A5
:1019B0007EAF079A00210A20A846013598F800302A
:1019C000303B092B03D800FB02320121F4E7002948
:1019D0003FF479AF079276E798F801302A2B0BD1C4
:1019E000039B1A1D1B680392002BB8BF4FF0FF33F7
:1019F00008F1020805936BE70023059308F1010045
:101A000019460A258046013098F80020303A092A04
:101A100003D805FB01210123F4E7002B3FF458AF65
:101A2000059155E703AB00932246144B04A93046B9
:101A3000AFF3008007E003AB009322460F4B04A9ED
:101A4000304600F093F8B0F1FF3F82467FF468AF74
:101A5000A3895B063FF528AF09981DB0BDE8F08F5C
:101A6000E424000004250000242500004A2500008D
:101A70004E2500000000000044250000251800004D
:101A80002DE9F04791461F460A698B68DDF82080F2
:101A90009342B8BF1346C9F8003091F84320064678
:101AA0000C4612B10133C9F800302368990642BFD1
:101AB000D9F800300233C9F80030256815F0060562
:101AC00010D104F1190A07E0012352463946304685
:101AD000C04701301AD00135E368D9F800209B1ABD
:101AE0009D42F1DB94F843302268003318BF012394
:101AF00092060FD5E1185A1C302081F84300224489
:101B000094F8451082F84310023303E04FF0FF30A1
:101B1000BDE8F08704F1430239463046C047013042
:101B2000F4D02268D9F80050E36802F00602042AD3
:101B300008BF5D1B2269A3680CBF25EAE575002577
:101B40009342C4BF9B1AED184FF000091A344D455B
:101B500009D00123224639463046C0470130D5D04E
:101B600009F10109F3E70020BDE8F0872DE9F04312
:101B700017460A7E85B06E2A984606460C460C9B90
:101B800001F1430E00F0AE8011D8632A22D009D8AB
:101B9000002A00F0BB80582A40F0CA8081F8452016
:101BA000834955E0642A1ED0692A1CD0C0E0732AFC
:101BB00000F0B08009D86F2A2ED0702A40F0B8808B
:101BC0000A6842F020020A603EE0752A24D0782A92
:101BD0003AD0ADE01A6801F14205111D1960136891
:101BE00084F84230A8E021681A6811F0800F02D012
:101BF000111D196008E011F0400F02F10401196095
:101C000002D0B2F9003000E01368002B3CDA2D223C
:101C10005B4284F8432037E021681A6811F0800F96
:101C200002D0111D196007E011F0400F02F104010C
:101C3000196001D0138800E01368227E5C496F2A86
:101C400014BF0A2208221BE078225A4984F8452052
:101C50002268186812F0800F00F104051D6003D19E
:101C6000550601D5038800E00368D00744BF42F061
:101C7000200222601BB9226822F02002226010227A
:101C8000002084F8430001E049490A226568A56004
:101C9000002D08DB206820F0040020602BB9002D07
:101CA0007DD175460CE0002B79D07546B3FBF2F080
:101CB00002FB1033CB5C05F8013D03460028F5D14B
:101CC000082A0BD12368DA0708D5236962689A428B
:101CD000DEBF302305F8013C05F1FF35C5EB0E03EF
:101CE00023612EE008681A68496910F0800F03D05C
:101CF000101D1860136808E010F0400F02F1040096
:101D00001860136801D0198000E019600023236176
:101D1000754616E01A68111D196015686268002181
:101D2000284600F0A5FA08B1401B6060636804E033
:101D300004F1420584F8422001232361002384F842
:101D40004330CDF800803B4603AA21463046FFF7DA
:101D500097FE013002D14FF0FF3026E023692A467A
:101D600039463046C0470130F5D023689B0710D56F
:101D7000002504F1190907E001234A463946304697
:101D8000C0470130E7D00135E368039A9B1A9D42B2
:101D9000F2DBE068039B9842B8BF184605E00B7879
:101DA00084F8423004F142058AE705B0BDE8F083CB
:101DB000552500006625000038B5064C0023054671
:101DC0000846236000F048FB431C02D1236803B19E
:101DD0002B6038BDF402002010B50C46B1F90E108E
:101DE00000F0E6FA0028ABBF636DA3891B1823F44B
:101DF0008053ACBF6365A38110BD2DE9F0411F4640
:101E00008B89DB0505460C46164605D502230022C4
:101E1000B1F90E1000F0BAF9A389B4F90E1023F449
:101E20008053A38132463B462846BDE8F04100F08E
:101E30006BB810B50C46B1F90E1000F0A7F9431CB1
:101E4000A38915BF606523F4805343F48053A381B5
:101E500018BFA38110BDB1F90E1000F0D5B8000075
:101E6000F8B50F461446064618B183690BB9FFF75B
:101E7000D9FB224B9C4201D1746808E0204B9C4264
:101E800001D1B46803E01F4B9C4208BFF468A3690A
:101E9000A360A3891A0709D523693BB12368206988
:101EA000181A63699842FDB20FDB08E021463046FC
:101EB00000F03CF80028F1D04FF0FF30F8BD21468B
:101EC000304600F039F90028F6D1A368013BA36041
:101ED00023685A1C22601F706269431C934204D01D
:101EE000A389DB0707D50A2D05D12146304600F02E
:101EF00023F90028E0D12846F8BD00BFE424000003
:101F0000042500002425000038B5074C0546084686
:101F10001146002222601A46FEF79EFE431C02D1A3
:101F2000236803B12B6038BDF4020020324B70B53A
:101F30001D6806460C4625B1AB6913B92846FFF764
:101F400071FB2E4B9C4201D16C6808E02C4B9C42EB
:101F500001D1AC6803E02B4B9C4208BFEC68B4F99C
:101F60000C309AB215071DD4D00602D40922326073
:101F70003AE0510712D5616B41B104F14403994233
:101F800002D0304600F0C6F900236363A38923F032
:101F90002403A3810023636023692360A38943F0A2
:101FA0000803A38123694BB9A38903F42073B3F514
:101FB000007F03D02146304600F01EF9A28912F0BE
:101FC000010305D00023A36063695B42A36103E0C2
:101FD000920758BF6369A36023695BB9B4F90C30F9
:101FE00003F0800080B230B143F04003A3814FF092
:101FF000FF3070BD002070BD60000020E4240000B0
:10200000042500002425000038B5064C00230546B1
:102010000846236000F000FA431C02D1236803B194
:102020002B6038BDF40200208A892DE9F041054675
:1020300010070C4659D44B68002B02DC0B6C002BAC
:1020400017DDE66AAEB102F48052002392B22F6827
:102050002B600AB1606D15E0216A01232846B04764
:10206000411C0FD12B686BB11D2B01D0162B03D156
:102070002F600020BDE8F081A38943F04003A381D5
:10208000BDE8F081A3895A0705D56368C01A636B60
:102090000BB1236CC01A00230246E66A216A284667
:1020A000B047431CA38906D129681D293AD8214A83
:1020B000CA40D60736D500226260D9042269226060
:1020C00004D5421C01D12B6803B96065616B2F6098
:1020D0000029CED004F14403994202D0284600F0F2
:1020E00019F900206063BDE8F0810F69002FC0D0AE
:1020F00093070E6808BF4B690F6018BF0023C7EB3A
:1021000006088B6002E00744C0EB0808B8F1000F36
:10211000AFDD43463A46216AA66A2846B047002802
:10212000F1DCA38943F04003A3814FF0FF30BDE809
:10213000F08100BF0100402038B50B6905460C4610
:10214000DBB118B183690BB9FFF76CFA0C4B9C42F9
:1021500001D16C6808E00B4B9C4201D1AC6803E0F4
:10216000094B9C4208BFEC68B4F90C302BB12146F6
:102170002846BDE83840FFF757BF002038BD00BFF4
:10218000E4240000042500002425000038B5074C95
:10219000054608461146002222601A4600F054F90E
:1021A000431C02D1236803B12B6038BDF402002028
:1021B00070B50E46B1F90E10002990B014461D46B8
:1021C00006DA00232B60B3891A060ED540230EE0F1
:1021D00001AA00F0FFF80028F3DB029A02F4704233
:1021E000A2F500535A425A412A604FF480630020FE
:1021F000236010B070BD00008B8973B59E07054643
:102200000C4610D401AB6A46FFF7D2FF0099064690
:102210002846FFF791FA68B9B4F90C309A0522D430
:1022200043F00203A38104F14703236023610123E8
:10223000636118E00D4BAB62A389206043F080031B
:10224000A381009B6361019B20614BB1B4F90E1027
:10225000284600F0D1F818B1A38943F00103A38107
:10226000A0893043A08102B070BD00BFA515000059
:1022700001F0FF01102A2BDB10F0070F08D010F837
:10228000013B013A8B422DD010F0070F42B3F6D13B
:10229000F0B441EA012141EA014122F007047FF054
:1022A00000070023F0E80256083C85EA010586EAAB
:1022B000010685FA47F5A3FA87F586FA47F6A5FAE7
:1022C00087F68EB9EED1F0BC01F0FF0102F00702F3
:1022D00032B110F8013B013A83EA010313B1F8D19E
:1022E0000020704701387047002D06BF354603387F
:1022F000073815F0010F07D1013015F4807F02BFB8
:10230000013015F4C03F0130F0BC0138704700BF08
:102310007047704738B50546002946D051F8043C4F
:102320000C1F002BB8BFE418FFF7F2FF1F4A136819
:10233000114613B96360146032E0A3420ED92268DB
:10234000A018834204BF18685B68636004BF12185A
:1023500022600C6024E0A24203D813465A68002A87
:10236000F9D118681918A1420BD1216801445818F5
:102370008242196014D1106852685A600144196091
:102380000EE002D90C232B600AE02168601882421B
:1023900004BF10685268626004BF091821605C6065
:1023A0002846BDE83840FFF7B4BF38BDEC02002036
:1023B00038B5074C054608461146002222601A46E9
:1023C000FEF758FC431C02D1236803B12B6038BDD3
:1023D000F402002038B5074C002305460846114694
:1023E000236000F021F8431C02D1236803B12B6065
:1023F00038BD00BFF402002038B5064C0023054666
:102400000846236000F018F8431C02D1236803B18A
:102410002B6038BDF4020020024B58221A604FF0A6
:10242000FF307047F4020020024B58221A604FF030
:10243000FF307047F4020020024B58221A6000203F
:10244000704700BFF4020020024B58221A604FF080
:10245000FF307047F4020020044A05491368002B3E
:1024600008BF0B461844106018467047F002002061
:10247000F8020020F8B500BFF8BC08BC9E467047C3
:10248000F8B500BFF8BC08BC9E467047430000008A
:1024900000000020190000001A0000001C000000CD
:1024A0001B0000000100000000E0D7010D0A53747A
:1024B0006172743A200D0A00200D0A457869742172
:1024C0000D0A0000FFFFFFFFFFFFFFFFFFFFFFFF01
:1024D000FFFFFFFF00000000000000000000D60129
:1024E00006010000000000000000000000000000E5
:1024F00000000000000000000000000000000000DC
:1025000000000000000000000000000000000000CB
:1025100000000000000000000000000000000000BB
:1025200000000000000000000000000000000000AB
:10253000000000000000000000000000000000009B
:1025400000000000232D302B2000686C4C006566D5
:1025500067454647003031323334353637383941F4
:10256000424344454600303132333435363738390A
:0C2570006162636465660000000000000A
:08257C00E0DEFF7F010000001A
:1025840000000000E42400000425000024250000CD
:102594000000000000000000000000000000000037
:1025A4008C24000000000000000000000000000077
:1025B4000000000000000000000000000000000017
:1025C4000000000000000000000000000000000007
:1025D40000000000000000000000000000000000F7
:1025E400000000200090D003002000400000000004
:0C25F400250400000104000000000000AD
:04000003000005599B
:00000001FF
