:020000021000EC
:10F000000000012025FF01004DFF01004FFF01001E
:10F0100051FF010053FF010055FF010000000000F7
:10F0200000000000000000000000000057FF010089
:10F0300059FF0100000000005BFF01005DFF0100BF
:10F040009DFC01005FFF01005FFF01005FFF010009
:10F050005FFF01005FFF01005FFF01005FFF010034
:10F060005FFF01005FFF01005FFF01005FFF010024
:10F070005FFF01005FFF01005FFF01005FFF010014
:10F080005FFF0100A9F501005FFF01005FFF0100C4
:10F090006DF601005FFF0100DD0202005FFF01006D
:10F0A0005FFF01005FFF01005FFF01005FFF0100E4
:10F0B0005FFF01005FFF0100000000000000000092
:10F0C0005FFF01005FFF01005FFF01005FFF0100C4
:10F0D0005FFF01005FFF01005FFF01000000000013
:10F0E0000000000000000000000000000000000020
:10F0F0000000000000000000000000000000000010
:10F1000000000000000000000000000000000000FF
:10F1100000000000000000000000000000000000EF
:10F4000010B5054C237833B9044B13B10448AFF35E
:10F4100000800123237010BD38140020000000007C
:10F42000280302000C4B43B10C480D4910B5AFF353
:10F4300000800C48036823B910BD0A48036833B93B
:10F440007047094B002BF7D0BDE810401847064B1A
:10F45000002BF5D0184700BF000000002803020071
:10F460003C1400203414002000000000154B002B39
:10F4700008BF134B9D46A3F5803A00218B460F46EB
:10F480001348144A121A00F063F80F4B002B00D0F7
:10F4900098470E4B002B00D0984700200021040015
:10F4A0000D000D48002802D00C48AFF3008000F09A
:10F4B0002BF82000290000F03DFC00F011F800BFFF
:10F4C0000000080000000120000000000000000013
:10F4D00038140020A41400200000000000000000E8
:10F4E00008B5074B044613B10021AFF30080054B6C
:10F4F0001868836A03B19847204600F031F800BFCE
:10F50000000000002403020070B50D4E0D4CA41B3A
:10F51000A4100025A54209D10B4E0C4C00F0F6FEBC
:10F52000A41BA4100025A54205D170BD56F82530B6
:10F5300098470135EEE756F8253098470135F2E750
:10F540002C1400202C1400202C1400203014002037
:10F5500002440346934200D1704703F8011BF9E7C8
:10F56000FEE700BF00B585B000230390194601AA4D
:10F5700044F20100ADF80430029300F003F805B046
:10F580005DF804FBBFF34F8F0549064BCA6802F4D0
:10F59000E0621343CB60BFF34F8F00BFFDE700BFB6
:10F5A00000ED00E00400FA052DE9F843274A284B56
:10F5B0000025C2F84051C2F84451C2F84851C2F87F
:10F5C0004C51C2F80051C2F804511B681BB32149C9
:10F5D000D2F804450A68204FA41A1A6824F07F4420
:10F5E000A242A84609D8197CDE69A41A1544A1B91B
:10F5F0001EB133461A68A242F5D91849184A0B7849
:10F6000012789A421BD01749174A41F823504FF4F9
:10F610008013C2F80031BDE8F883D3F8149083F862
:10F6200010803A689B69484619462AB190470028DD
:10F63000DED0FFF797FFDBE71846C847D8E7531C33
:10F64000DBB2022B08BF00230B70DCE70010014087
:10F650007414002070140020541400206D14002035
:10F660006C1400206414002000E100E02DE9F04F4C
:10F67000A34AA44913780978A348994289B0D0F8DD
:10F6800000B000F0E5800133DBB2022B08BF00239D
:10F6900013709E4A52F823609B4A0BEB060323F03B
:10F6A0007F43136001230593994B93F80090994B86
:10F6B000D3F800A0964B5C785B680393944B9B78DF
:10F6C0000293954B1B7804938F4B00271B6806937E
:10F6D000CC465546D646B84601973B460097A445CA
:10F6E00023D00CEB4C020398029F10F832100CF15F
:10F6F000010C5FFA8CFCBC4508BF4FF0000C0229DE
:10F7000000EBC2027BD00329E9D1BEF1000FE6D0A5
:10F71000DEF81C208EF810309646002AF8D11546E7
:10F72000A4454FF001020092DBD1019B009F002B0A
:10F7300040F0A380B8F1000F02D0734B069A1A6014
:10F740000FB1744B1D60059B002B40F0C281BAEBDA
:10F750000E0318BF01230593002500230193049392
:10F760001F466D4BDFF8B4B11B780693664BD3F898
:10F770000080684B1B68009376464FF0010A35B352
:10F780006A68A9682B46ED69A2EB080020F07F406B
:10F79000584577D8014419605F609F6083F810A0D6
:10F7A000DF61002E00F08E803068884280F0828019
:10F7B000344603E0106888426DD21446E269091AA3
:10F7C000002AF7D11960DA61E361002DD8D10399DD
:10F7D00009EB490309F10102CC4501EBC3045FFACF
:10F7E00082F900F09D8011F83300029B4B4508BF61
:10F7F0004FF0000901286AD001230493E8E750681C
:10F80000BEF1000F3FF46BAF7045714617D0009FFB
:10F8100002E0904205D01146CA69002AF9D100974A
:10F820005DE7884200970BD0C2690068CA61002A70
:10F830003FF455AF116801441160AE464FE7704682
:10F84000DEF81C20964632B1154601220092EBE705
:10F850000026059628E702F1804202F588324FF033
:10F860000108C2F808807546CDF818E0CDF8008090
:10F87000CDF80480CDF81080D6E7274B9DF81020F6
:10F880001A7057E7A8EB020222F07F428A4208D2A0
:10F89000891A196080E7401A10601960DA61E36123
:10F8A00093E71F605F609F6083F810A0DF614EB137
:10F8B00030680021411A31600093DE611E46012349
:10F8C00001935CE700931E460123019357E76368A9
:10F8D0001A7C0492002A7FF47BAFA2685A60E16828
:10F8E000996007902069D86064699C61069C002C2F
:10F8F00000F0EC80049A5A600494002244E700BFB0
:10F900006C1400206D14002070140020641400207A
:10F91000581400207414002060140020FEFF7F00A3
:10F92000049B002B40F0A681019B13B1804B009AF1
:10F930001A60764500F0C080002E00F007817D4AF5
:10F940007D49D2F804050C783668A0EB080323F053
:10F950007F430333002C50D1784CDFF8E8E1784F37
:10F960004FF48035C2F84453C2F804534FF40035C5
:10F97000C4F88051256001241460DEF800502F2265
:10F9800000BF00BF00BF00BF00BF00BF00BF00BF7F
:10F99000BD422FD000BF00BF00BF00BF00BF00BFEF
:10F9A00000BF00BF00BF00BF00BF00BF00BF00BF5F
:10F9B00000BF00BF00BF00BF00BF00BF00BF00BF4F
:10F9C00000BF00BF00BF00BF00BF00BF00BF00BF3F
:10F9D00000BF00BF00BF00BF00BF00BF00BF00BF2F
:10F9E00000BF00BF00BF00BF00BF00BF00BF00BF1F
:10F9F00000BF00BF013AC3D10C709E422CBF08EB80
:10FA0000060343444B4923F07F43C1F84035D1F806
:10FA10000425121A1B1A22F07F4223F07F4303327F
:10FA20009A424DD9D1F80435464AC1F8403512689A
:10FA300043492F2300BF00BF00BF00BF00BF00BF6E
:10FA400000BF00BF8A422FD000BF00BF00BF00BF71
:10FA500000BF00BF00BF00BF00BF00BF00BF00BFAE
:10FA600000BF00BF00BF00BF00BF00BF00BF00BF9E
:10FA700000BF00BF00BF00BF00BF00BF00BF00BF8E
:10FA800000BF00BF00BF00BF00BF00BF00BF00BF7E
:10FA900000BF00BF00BF00BF00BF00BF00BF00BF6E
:10FAA00000BF00BF00BF00BF013BC3D1234B4FF4D9
:10FAB0000032C3F8002103E0059B002B7FF43CAF2C
:10FAC000214A0023137009B0BDE8F08F0798049015
:10FAD0005AE6174B002477462546214620461B68E8
:10FAE000DDF814E0A7B13A68B24218D8FC68386073
:10FAF000B61A1144FB693CB10BEB010222F07F42C4
:10FB0000FD61BC607A603D461F467446002FEAD115
:10FB1000BE46002C3FF421AE054A13601DE6BE46EA
:10FB2000002C40F0A480921BCEF8002015E600BF08
:10FB300074140020001001406114002000E100E076
:10FB40000024F40028140020601400204B4A4C4B81
:10FB50004C4D4D484FF480314FF400370124C3F829
:10FB60008070C2F848132F23C2F808135460296824
:10FB70001D4600BF00BF00BF00BF00BF00BF00BFE9
:10FB800000BF81422FD000BF00BF00BF00BF00BF39
:10FB900000BF00BF00BF00BF00BF00BF00BF00BF6D
:10FBA00000BF00BF00BF00BF00BF00BF00BF00BF5D
:10FBB00000BF00BF00BF00BF00BF00BF00BF00BF4D
:10FBC00000BF00BF00BF00BF00BF00BF00BF00BF3D
:10FBD00000BF00BF00BF00BF00BF00BF00BF00BF2D
:10FBE00000BF00BF00BF013DC3D19460274A16602B
:10FBF00000BF00BF00BF00BF00BF00BF00BF00BF0D
:10FC000081422FD000BF00BF00BF00BF00BF00BFB8
:10FC100000BF00BF00BF00BF00BF00BF00BF00BFEC
:10FC200000BF00BF00BF00BF00BF00BF00BF00BFDC
:10FC300000BF00BF00BF00BF00BF00BF00BF00BFCC
:10FC400000BF00BF00BF00BF00BF00BF00BF00BFBC
:10FC500000BF00BF00BF00BF00BF00BF00BF00BFAC
:10FC600000BF00BF013BC3D1094B1E7028E7094903
:10FC70000B6058E7084B83F800C055E600100140C0
:10FC800000E100E0281400200024F400701400209B
:10FC900061140020741400205814002010B51A4B71
:10FCA0001A6882B0A2B100221A601B6800934FF05C
:10FCB00080430122154C0099C3F80823A3686270A1
:10FCC00033B10CCB0020A2609847A368002BF8D179
:10FCD0000F4B1A68AAB100221A601B6801934FF0FB
:10FCE00080430222094C0199C3F8082323690122A9
:10FCF000A27033B10CCB0120226198472369002BFD
:10FD0000F8D102B010BD00BF0001004078140020FF
:10FD10000401004058B910B5054CA36833B10CCBB1
:10FD20000020A2609847A368002BF8D110BD70474F
:10FD30007814002030B400234FF0E0704FF0A04161
:10FD4000032203E0ED0748BF41F824200133202BB4
:10FD500040FA03F503F5E074F4D16F4B6F4D704832
:10FD60001C684FF0A043D3F80425D14301F480016F
:10FD700002F48002C3F808150146C3F80C2500BF41
:10FD800000BF00BF00BF00BF00BF00BF00BFAC424C
:10FD90002FD000BF00BF00BF00BF00BF00BF00BF2B
:10FDA00000BF00BF00BF00BF00BF00BF00BF00BF5B
:10FDB00000BF00BF00BF00BF00BF00BF00BF00BF4B
:10FDC00000BF00BF00BF00BF00BF00BF00BF00BF3B
:10FDD00000BF00BF00BF00BF00BF00BF00BF00BF2B
:10FDE00000BF00BF00BF00BF00BF00BF00BF00BF1B
:10FDF00000BF0139C3D1D3F80425D14301F4000178
:10FE000002F40002C3F808150146C3F80C2500BF30
:10FE100000BF00BF00BF00BF00BF00BF00BFAC42BB
:10FE20002FD000BF00BF00BF00BF00BF00BF00BF9A
:10FE300000BF00BF00BF00BF00BF00BF00BF00BFCA
:10FE400000BF00BF00BF00BF00BF00BF00BF00BFBA
:10FE500000BF00BF00BF00BF00BF00BF00BF00BFAA
:10FE600000BF00BF00BF00BF00BF00BF00BF00BF9A
:10FE700000BF00BF00BF00BF00BF00BF00BF00BF8A
:10FE800000BF0139C3D1D3F80425D14301F08071FB
:10FE900002F08072C3F808150146C3F80C2500BFB4
:10FEA00000BF00BF00BF00BF00BF00BF00BFAC422B
:10FEB0002FD000BF00BF00BF00BF00BF00BF00BF0A
:10FEC00000BF00BF00BF00BF00BF00BF00BF00BF3A
:10FED00000BF00BF00BF00BF00BF00BF00BF00BF2A
:10FEE00000BF00BF00BF00BF00BF00BF00BF00BF1A
:10FEF00000BF00BF00BF00BF00BF00BF00BF00BF0A
:10FF000000BF00BF00BF00BF00BF00BF00BF00BFF9
:10FF100000BF0139C3D126E7281400200024F400D3
:10FF200020A107000649074A074B9B1A03DD043B43
:10FF3000C858D050FBDC00F013F8FFF797FA000028
:10FF400034030200C813002038140020FEE7FEE747
:10FF5000FEE7FEE7FEE7FEE7FEE7FEE7FEE7FEE779
:10FF6000F0B4984B1B78062B1BD0974AD2F88830F8
:10FF700043F47003C2F88830BFF34F8FBFF36F8F25
:10FF80004FF01023D3F80022002AC0F2E980D3F802
:10FF90000432002BC0F2E4808C4B8D4A1A60F0BC16
:10FFA00070478C4B1B681D07DFD18B4B1B6803F020
:10FFB000F003302B02D1894B894A1A60864B1B68AB
:10FFC00003F0F002302A00F0BA8003F0E003402B87
:10FFD00000F0B580804B1B6803F0F003302B00F07D
:10FFE0009E807D4B1B6803F0F002302A00F0838076
:10FFF00003F0E003402B7ED0774B1B6803F0F00347
:020000022000DC
:10000000302B6AD0744B1B6803F0F003302B4DD0BB
:10001000714B1B6803F0F003502BA6D14FF08052B8
:10002000704BD2F80414C3F82015D2F80814C3F8A2
:100030002415D2F80C14C3F82815D2F81014C3F8FC
:100040002C15D2F81414C3F83015D2F81814C3F8CC
:100050003415D2F81C14C3F84015D2F82014C3F894
:100060004415D2F82414C3F84815D2F82814C3F85C
:100070004C15D2F82C14C3F85015D2F83014C3F82C
:100080005415D2F83414C3F86015D2F83814C3F8F4
:100090006415D2F83C14C3F86815D2F84014C3F8BC
:1000A0006C15D2F84424C3F870255EE7454B4E49E1
:1000B0001B784E4D4E484F4A05270F6001260024FD
:1000C0003F21062B2E60046011607FF44EAF414B40
:1000D0001B681B077FF449AF9AE73A4B464A1B78E7
:1000E0000321062B11607FF440AF3A4B1B681A07BF
:1000F0007FF43BAF86E7334B1B784FF08042002103
:10010000062BC2F80C11C2F81011C2F838157FF492
:100110002CAF304B1B6819077FF427AF6CE7374AC9
:100120002849D368097823F080730629D3607FF4C7
:100130001CAF284B1B6818077FF417AF51E7304AF4
:10014000204B12681B782F49C2F34232062B0A60FB
:100150007FF40BAF1F4B1B681C077FF406AF39E71A
:10016000294B0122C3F80425D3F80024002AFBD030
:100170004FF0102315222449C3F80022D1F800348F
:10018000002BFBD04FF0102215211F4BC2F8041298
:10019000D3F80024002AFBD000221B49C3F8042511
:1001A000D1F80034002BFBD0BFF34F8F0649174B1B
:1001B000CA6802F4E0621343CB60BFF34F8F00BF05
:1001C000FDE700BFE00F00F000ED00E02814002084
:1001D0000090D003E40F00F0E80F00F074C0074077
:1001E0000DF0ADBA00C000401056004088560040E7
:1001F0001856004014560040A0050040F0ED00E005
:10020000440200103C05004000E001400400FA05F3
:1002100048DF704761DF70472DE9F047DFF8B090A5
:10022000294DD9F80060DFF8AC80284FDFF8A8A08E
:10023000B6FA86F682B076092B7803F0FF04002B1D
:1002400036D101A8FFF7E4FF052834D010B3FFF73B
:1002500089F94EBB2B7803F0FF063BB128E0FFF78E
:1002600081F9002CE8D02B7801240BBB3B68B8F84F
:100270000020ADF80420184601A9FFF7CBFF0528A0
:1002800014D00028EBD11846D9F800309847002C3C
:10029000E9D1D1E70198FFF73DFDDAF8003073B1FD
:1002A00001989847002ED5D00126C5E7002CFBD039
:1002B00002B0BDE8F087002EFAD10124CAE7002E73
:1002C000C8D00126B8E700BF99140020A014002070
:1002D000901400208C1400209C14002008B5094BB9
:1002E0001B6833B1984700B908BDBDE80840FFF767
:1002F00039B9054B1B78002BF6D0BDE80840FFF755
:100300008BBF00BF9414002098140020F8B500BFE4
:10031000F8BC08BC9E467047F8B500BFF8BC08BCE6
:0C0320009E467047C8130020000000003B
:08032C0040F1FF7F0100000019
:1003340000000000000000000000000000000000B9
:1003440000000000000000000000000000000000A9
:100354000000000000000000000000000000000099
:100364000000000000000000000000000000000089
:100374000000000000000000000000000000000079
:100384000000000000000000000000000000000069
:100394000090D00325F4010001F4010000000000E6
:040000031000FF25C5
:00000001FF
