:020000021000EC
:10F000000000012081380200A9380200AB3802005C
:10F01000AD380200AF380200B13802000000000035
:10F02000000000000000000000000000B3380200F3
:10F03000B538020000000000B7380200B9380200FD
:10F0400021050200BB38020091130200BB38020008
:10F05000BB380200BB3802005D090200BB38020069
:10F06000BB380200BB380200BB380200BB380200CC
:10F07000BB380200BB380200BB380200BB380200BC
:10F08000BB380200F9F70100BB380200BB380200B0
:10F09000BDF80100BB380200AD3F0200BB380200E2
:10F0A000BB380200BB380200BB380200BB3802008C
:10F0B000BB380200BB380200000000000000000066
:10F0C000BB380200BB380200BB380200BB3802006C
:10F0D000BB380200BB380200BB3802000000000051
:10F0E0000000000000000000000000000000000020
:10F0F0000000000000000000000000000000000010
:10F1000000000000000000000000000000000000FF
:10F1100000000000000000000000000000000000EF
:10F4000010B5054C237833B9044B13B10448AFF35E
:10F4100000800123237010BDAC21002000000000FB
:10F42000B4500200084B10B51BB108490848AFF3AF
:10F4300000800848036803B910BD074B002BFBD0C0
:10F44000BDE81040184700BF00000000B0210020B8
:10F45000B4500200A821002000000000154B002B32
:10F4600008BF134B9D46A3F5803A00218B460F46FB
:10F470001348144A121A00F065F80F4B002B00D005
:10F4800098470E4B002B00D0984700200021040025
:10F490000D000D48002802D00C48AFF3008000F0AA
:10F4A0002BF82000290003F04BF800F011F800BF02
:10F4B0000000080000000120000000000000000023
:10F4C000AC2100202C2800200000000000000000DB
:10F4D00008B5074B044613B10021AFF30080054B7C
:10F4E0001868836A03B19847204600F033F800BFDC
:10F4F00000000000704F020070B50E4B0E4CE41A75
:10F50000A41000251E46A54204D056F82530984781
:10F510000135F8E705F01EFD084C094BE41AA4106C
:10F5200000251E46A54204D056F8253098470135DF
:10F53000F8E770BDA0210020A0210020A421002018
:10F54000A021002002440346934202D003F8011B8D
:10F55000FAE77047FEE700BF2DE9F84F244B1A7811
:10F560008AB3DFF890B0DFF89090DFF890A0002425
:10F57000012703E00134E4B2944224D226B2D9F840
:10F580000050DBF8003015F8360007FA00FE1EEADE
:10F59000030F05EBC608EDD0164A23EA0E031360ED
:10F5A00001F0D2F915F83650DAF8003007FA05F60E
:10F5B000334000FA05F6B34207D00D4B01341A78F8
:10F5C000E4B29442DAD3BDE8F88FD8F80430002BC7
:10F5D000F3D098F80110A1F10101B1FA81F14909C4
:10F5E000091AB1FA81F1490928469847E5E700BFB1
:10F5F000D0210020F8210020CC210020F42100207F
:10F6000070B50646114800F0CDFD40B9104D0124FB
:10F610002B68B4401C4203D023EA04042C6070BD64
:10F62000304601F091F90B4A136860B123432E680C
:10F630000949136034432C60044809680022BDE87E
:10F64000704000F057BD23EA0403F0E7D421002006
:10F65000F8210020F4210020C8210020042A01D82C
:10F66000072070472DE9F04182B0884605461746CD
:10F6700001F036F8002834D01C4C1D481D491E4AA4
:10F680001E4B2560002608F1FF340F6080F80080D3
:10F6900016601E60E4B20327B8F1000F03D11AE030
:10F6A000DBB2C4B11C4623B205EBC30215F833002C
:10F6B0009378134A8DF8053001A98DF804708DF800
:10F6C00006608DF8076001F015F8631E0028E7D08A
:10F6D00002B0BDE8F0810B4A0B48002100F0F8FCB5
:10F6E000F6E700F0BBFF0028C6D0F1E7CC210020F0
:10F6F000D0210020C8210020F4210020F821002082
:10F7000001F6010059F50100744F020070B5084D73
:10F710002B785BB1074E00243368012113F83400C5
:10F7200001F0B0F82B780134A342F5D8002070BD69
:10F73000D0210020CC21002000B585B0002303900B
:10F74000194601AA44F20100ADF80430029300F01A
:10F7500003F805B05DF804FBBFF34F8F0549064B76
:10F76000CA6802F4E0621343CB60BFF34F8F00BF5F
:10F77000FDE700BF00ED00E00400FA0559B10AB949
:10F7800009207047531E1A40FAD1826001608380BD
:10F79000C260104670470E20704700BF10B48468E6
:10F7A000C26803468088121B904203D204205DF891
:10F7B000044B7047DA681C6802400020A154DA68E4
:10F7C0000132DA605DF8044B704700BF0346806881
:10F7D000DA68904201D10520704710B49A68988881
:10F7E0001C6802400020A25C0A709A6801329A608C
:10F7F0005DF8044B704700BF2DE9F843274A284BBA
:10F800000025C2F84051C2F84451C2F84851C2F82C
:10F810004C51C2F80051C2F804511B681BB3214976
:10F82000D2F804250C68204F141B1A6824F07F447A
:10F83000A242A84609D8197CDE69A41A1544A1B9C8
:10F840001EB133461A68A242F5D9184B18491A78E6
:10F850000B789A421BD01749174A41F823504FF4AE
:10F860008013C2F80031BDE8F883D3F8149083F810
:10F8700010803A689B69484619462AB1904700288B
:10F88000DED0FFF759FFDBE71846C847D8E7531C1F
:10F89000DBB2022B08BF00230B70DCE70010014035
:10F8A00000220020FC210020042200200822002049
:10F8B000092200201422002000E100E02DE9F04F91
:10F8C000A44AA54913780978A44889B00068009033
:10F8D000994200F0EB800133DBB2022B08BF00231A
:10F8E00013709F4A52F82360009B9C4A334423F0D4
:10F8F0007F4313604FF0010E9A4B079693F800A0D8
:10F90000994BCDF818A0D3F80090964B5B780193F3
:10F910001D46944BD3F804B09B7802931C46934B3E
:10F920001B7804938D4B00271B68039351464A466E
:10F930004B460597BC4638462646B846A9421AD0DB
:10F9400001EB410401311BF83470C9B2B14208BF68
:10F950000021022F0BEBC40400F08380032FEDD1B4
:10F96000002BEBD0DA6918741346002AFAD1A942A9
:10F970004FF0010CE4D1DDF818A0079E4746BCF11A
:10F98000000F40F0A380059A12B1744A03991160E8
:10F99000002F40F09C82BEF1000F40F0C681B9EB11
:10F9A000030218BF01220792059375461E466B4A53
:10F9B000CDF810B0D2F800C06B4ADFF8B891D64647
:10F9C000D2F800A0694A0023127800931F460692DD
:10F9D0004FF001089B463DB36A68A9682C46ED6963
:10F9E000CCEB020323F07F434B4572D80B442360DA
:10F9F0006760A76084F81080E761002E00F08B80BC
:10FA0000316899427ED2304603E01168994269D24A
:10FA10001046C2695B1A002AF7D12360E2613346BF
:10FA2000C4611E46002DD7D1019B9E4500F0A480E5
:10FA30000EEB4E03049911F83320039210460EF199
:10FA4000010E029A5FFA8EFE724508BF4FF0000E5B
:10FA5000012801EBC30364D03346012200921E4605
:10FA6000E0E76468002B3FF469AF9C429A4601D1FD
:10FA700015E0BA46DAF81C70002F3FF45FAFBC42C5
:10FA8000F7D1BA450CD0FC693F68CAF81C40002C7D
:10FA90003FF454AF23683B44236013464EE71F46B0
:10FAA000DA6932B113464FF0010CECE70026B64696
:10FAB00022E72F4B4FF00108C3F80880C4461346D5
:10FAC0000392CDF81080CDF81480DCE726490A6057
:10FAD00059E7C2EB0C0222F07F428A4209D28B1A0C
:10FAE000236085E7C91A11602360E2613346C4616F
:10FAF00097E727606760A76084F81080E76156B1D8
:10FB000031680023CB1A33602346E661A2464FF0EA
:10FB1000010B1E4686E72346A2464FF0010B1E4608
:10FB200080E75C68227C009282B99A686260D9683A
:10FB3000A1601869E0605B69A361069B002B00F07F
:10FB4000F180009A626000932A4649E733461E46D8
:10FB500068E700BF0822002009220020FC210020C5
:10FB6000142200200C220020002200200A22002063
:10FB700000100140FEFF7F00009B5A46002B40F022
:10FB8000AE8112B1824BC3F800A0059BB34200F0D6
:10FB9000BF80002E00F00A817E497F4CD1F8040519
:10FBA00025783368CCEB000222F07F420332002D2F
:10FBB00050D17A4DDFF8ECE1794F4FF48036C1F83F
:10FBC0004463C1F804634FF40036C5F880612E60C9
:10FBD00001250D60DEF800602F2100BF00BF00BFCF
:10FBE00000BF00BF00BF00BF00BFBE422FD000BF9C
:10FBF00000BF00BF00BF00BF00BF00BF00BF00BF0D
:10FC000000BF00BF00BF00BF00BF00BF00BF00BFFC
:10FC100000BF00BF00BF00BF00BF00BF00BF00BFEC
:10FC200000BF00BF00BF00BF00BF00BF00BF00BFDC
:10FC300000BF00BF00BF00BF00BF00BF00BF00BFCC
:10FC400000BF00BF00BF00BF00BF00BF00BF013941
:10FC5000C3D1257093422CBF9C4494444D492CF051
:10FC60007F43C1F84035D1F80425121A1B1A22F03F
:10FC70007F4223F07F4303329A424DD9D1F80435B5
:10FC8000484AC1F84035126845492F2300BF00BFDC
:10FC900000BF00BF00BF00BF00BF00BF8A422FD01F
:10FCA00000BF00BF00BF00BF00BF00BF00BF00BF5C
:10FCB00000BF00BF00BF00BF00BF00BF00BF00BF4C
:10FCC00000BF00BF00BF00BF00BF00BF00BF00BF3C
:10FCD00000BF00BF00BF00BF00BF00BF00BF00BF2C
:10FCE00000BF00BF00BF00BF00BF00BF00BF00BF1C
:10FCF00000BF00BF00BF00BF00BF00BF00BF00BF0C
:10FD0000013BC3D1254B4FF40032C3F8002103E07F
:10FD1000079B002B7FF43DAF234A0023137009B0EB
:10FD2000BDE8F08F039B00935AE6194ADDF800C046
:10FD300017680020054601460446ABB11A68B24276
:10FD40001BD8D8681C60B61A1144DA6938B10CEBBC
:10FD5000010727F07F47DD6198605F601D4613460D
:10FD600017467046002BE9D1002840F0BC800023E4
:10FD7000059301230793059E19E6002840F0AC8007
:10FD8000921B05931A6001230793059E0FE600BF9F
:10FD900000220020001001401C22002000E100E0B1
:10FDA0000024F4009C2100200A2200204F4A504BDE
:10FDB000504D51484FF480314FF400370124C3F8BF
:10FDC0008070C2F848132F23C2F8081354602968C2
:10FDD0001D4600BF00BF00BF00BF00BF00BF00BF87
:10FDE00000BF81422FD000BF00BF00BF00BF00BFD7
:10FDF00000BF00BF00BF00BF00BF00BF00BF00BF0B
:10FE000000BF00BF00BF00BF00BF00BF00BF00BFFA
:10FE100000BF00BF00BF00BF00BF00BF00BF00BFEA
:10FE200000BF00BF00BF00BF00BF00BF00BF00BFDA
:10FE300000BF00BF00BF00BF00BF00BF00BF00BFCA
:10FE400000BF00BF00BF013DC3D194602B4A1660C4
:10FE500000BF00BF00BF00BF00BF00BF00BF00BFAA
:10FE600081422FD000BF00BF00BF00BF00BF00BF56
:10FE700000BF00BF00BF00BF00BF00BF00BF00BF8A
:10FE800000BF00BF00BF00BF00BF00BF00BF00BF7A
:10FE900000BF00BF00BF00BF00BF00BF00BF00BF6A
:10FEA00000BF00BF00BF00BF00BF00BF00BF00BF5A
:10FEB00000BF00BF00BF00BF00BF00BF00BF00BF4A
:10FEC00000BF00BF013BC3D10D4B1E7024E70D4A9C
:10FED0009DF8101011705EE50B490F6050E70B4B59
:10FEE00083F800E04DE6084B1F6040E7001001403A
:10FEF00000E100E09C2100200024F400FC2100200F
:10FF00001C2200200A220020002200200C220020B7
:10FF10002DE9F04712F0030402D00720BDE8F08776
:10FF2000002AFAD05F4D604EDFF88891DFF888C173
:10FF30004FF4803E4FF400374FF00108C6F8807050
:10FF4000C5F848E32F27C5F808E3C5F80480D9F8B9
:10FF500000E0B94600BF00BF00BF00BF00BF00BF48
:10FF600000BF00BFE6452FD000BF00BF00BF00BFED
:10FF700000BF00BF00BF00BF00BF00BF00BF00BF89
:10FF800000BF00BF00BF00BF00BF00BF00BF00BF79
:10FF900000BF00BF00BF00BF00BF00BF00BF00BF69
:10FFA00000BF00BF00BF00BF00BF00BF00BF00BF59
:10FFB00000BF00BF00BF00BF00BF00BF00BF00BF49
:10FFC00000BF00BF00BF00BFB9F10109C2D1C5F831
:10FFD000088000BF00BF00BF00BF00BF00BF00BF60
:10FFE00000BFE6452FD000BF00BF00BF00BF00BF6D
:10FFF00000BF00BF00BF00BF00BF00BF00BF00BF09
:020000022000DC
:1000000000BF00BF00BF00BF00BF00BF00BF00BFF8
:1000100000BF00BF00BF00BF00BF00BF00BF00BFE8
:1000200000BF00BF00BF00BF00BF00BF00BF00BFD8
:1000300000BF00BF00BF00BF00BF00BF00BF00BFC8
:1000400000BF00BF00BF013FC3D1DFF870E0DFF8A1
:1000500070A0164FDFF86C90DFF86C80DFF86CC092
:100060008EF80040CAF800304FF4801EC023B970EB
:100070003C707C70C9F8004088F800408CF8004063
:100080000B49C6F880E186F81433C6F800E0C5F8DD
:10009000080586F81133D5F804350B607A602046E0
:1000A000BDE8F0870010014000E100E00C220020D4
:1000B000FC2100209C2100200024F4001C220020B0
:1000C0000422002000220020082200200922002013
:1000D000074B5B6823B12AB120B10368187C18B1C3
:1000E000082070470720704759745A61704700BF55
:1000F0000C2200202DE9F043274C636883B033B114
:1001000028B1042907D8072003B0BDE8F0830820F0
:1001100003B0BDE8F0834369002BF8D0054602A880
:100120006B7C0026012B00F8016D0CBF8946B1469F
:1001300090460F4600F092F96378A07821785A1C17
:10014000D2B2904208BF324691421FD003EB430324
:100150006068DB00C11819D04FF0010E00F803E011
:100160000E4B4D60D3F804358B609DF80700CF60CF
:10017000C1F81090C1F81480627000F097F9084B34
:100180004FF480123046C3F80021C1E79DF8070004
:1001900000F08CF90420BBE70C2200200010014085
:1001A00000E100E0F0B51C4E736883B053B348B370
:1001B00043693BB3054602A8002400F8014D2C74A6
:1001C00000F04CF97378B07831785A1CD2B2904272
:1001D00008BF2246914218D003EB43037168DB004D
:1001E000CF1812D00220C8547D609DF807007270AD
:1001F00000F05CF9094B4FF480122046C3F800214F
:1002000003B0F0BD082003B0F0BD9DF8070000F07A
:100210004DF90420F7E700BF0C22002000E100E0C8
:1002200030B50478012C83B024D010D3022C0CD12B
:10023000C36829492948019301228DF8004000F044
:100240006BFF274B68461B68984703B030BD2549B4
:100250002548FFF7BBFA00282AD0234B9A68DB68B1
:100260009A42F2D102A8032300F8083D1C4B1B68F8
:100270009847EAE743681D4D19782846FFF78EFA3C
:1002800070B9AA68EB689A421ED1A968EB68AA887F
:100290005B1A9A4212D2164B01221A7003B030BD7B
:1002A0000F4B01908DF800401B6868469847ECE7BB
:1002B00001220C49094800F077FECEE701220649E9
:1002C000064800F029FFC0E702AB054A03F8080D15
:1002D000126818469047D8E7282200208C21002079
:1002E00024220020202200202C2200204022002056
:1002F0003C2200202DE9F0432F4C89B022600029D8
:1003000052D00C4680468A882C4809689946FFF7E7
:1003100035FA10B109B0BDE8F083A289A168284878
:10032000FFF72CFA0028F5D1264D98F810E0D8F800
:100330000C70D8F808600FCD6C460FC495E80F001C
:1003400098F8115002971EF1000E18BF4FF0010EE1
:10035000002D84E80F00D8F80050D8F804401A4A5D
:100360001A488DF81C9014BF0E2300238DF8153009
:100370006946D8F814308DF814E0069303968DE89A
:10038000300000F035FD0028C4D1D8F80030104A04
:1003900001331070BED09DF81D304BB101220D49C4
:1003A0000A4800F0B9FEB5E7072009B0BDE8F083C0
:1003B000064800F0C7FFF1E7242200204022002079
:1003C0002C220020784F0200210202008C21002004
:1003D0003C2200202822002070B50B4C01460B481F
:1003E0002678FFF7F3F905460EB9284670BD0023BD
:1003F000012207490748237000F08EFE0028F4D040
:10040000FFF79AF9284670BD3C22002040220020C8
:10041000282200208C21002010B501460C48FFF74F
:10042000BDF9044608B1204610BD0A4800F068FE38
:100430000028F8D108490648FFF7C8F90028F2D18A
:10044000012205490348BDE8104000F0ADBD00BFE2
:100450002C2200208C21002020220020F0B4EFF379
:10046000108472B60E4B9A68B2B90E4901259D6090
:10047000D1F880700C4D2E463D401D60C1F8806063
:10048000D1F884505D604FF0FF33C1F884300270C2
:1004900004B962B6F0BC704701230370F8E700BFEF
:1004A0001C28002000E100E0FC06FFBC094B9A6814
:1004B00072B168B910B4EFF3108272B606491C68C5
:1004C0000C605C684C60986002B962B65DF8044BE1
:1004D000704700BF1C28002000E100E020B1034B62
:1004E0005B6E03600020704703207047502200209D
:1004F00070B5161E07DD0C468D1914F8010BFFF7B9
:100500008BFFA542F9D1304670BD00BF10B50C4637
:100510002046FFF761FF0528FAD0012010BD00BF7B
:1005200010B51A4B1A6882B0A2B100221A601B687B
:1005300000934FF080430122154C0099C3F8082323
:10054000A368627033B10CCB0020A2609847A36807
:10055000002BF8D10F4B1A68AAB100221A601B6851
:1005600001934FF080430222094C0199C3F80823FC
:1005700023690122A27033B10CCB0120226198477C
:100580002369002BF8D102B010BD00BF000100406C
:10059000B82200200401004058B910B5054CA368EA
:1005A00033B10CCB0020A2609847A368002BF8D190
:1005B00010BD7047B822002010B582B002A80023F9
:1005C000114C00F8013DFFF749FF23788BB918461D
:1005D00006216360A3602361E36000F017F803F075
:1005E0008BFC20B94FF080430122C3F8182501236A
:1005F0002370E3689DF8070001330122E360A270D5
:10060000FFF754FF02B010BDB8220020002810B43C
:1006100018DB00F1604303F561434901C9B283F877
:100620000013C3B24009800000F1604000F5614052
:1006300003F01F0201239340C0F8803103605DF88E
:10064000044B7047C3B2044A03F00F04490122442B
:10065000C9B21176E6E700BFFCEC00E030B51D4CF6
:1006600094F8545083B015B1082003B030BD062172
:100670004FF0FF330846FF2223636363A363E36302
:1006800023646364A364E36423606360A360E36042
:1006900023616361A361E361236284F85030636284
:1006A000A36284F85230E36284F8533084F8512016
:1006B000FFF7ACFF084B094A1D601B6801930198C6
:1006C0004FF000430121284684F85410C2F8043347
:1006D00003B030BDCC2200207C61004000600040AF
:1006E000034B93F85400003018BF0120704700BF3F
:1006F000CC220020F0B5624C251895F93030002B43
:1007000001DB0820F0BD91F803E09446BEF1000F34
:1007100056D02368013300F0A380002508266B1C07
:10072000574F54F82320013251D0AB1C9E4245D97B
:1007300057F8232001324AD0EB1C9E423ED957F88D
:100740002320013243D02B1D9E4237D957F8232056
:1007500001323CD06B1D9E4230D957F823700137CF
:1007600035D0AB1D9E4229D954F82320444F013285
:100770002DD0EB1D9E4221D957F82320013226D0DF
:1007800005F108039E4219D957F8232001321ED0E3
:1007900005F109039E4211D957F82320013216D0E2
:1007A00005F10A039E4209D957F8237001370ED08C
:1007B0000B35AE4202D9E36A013307D00420F0BD05
:1007C000236A013353D008250C26A8E70B232618EB
:1007D0005DB244F823C086F83050BEF1000F02D15C
:1007E000234483F848008B78A3B94A784FF0A04699
:1007F00000F5E073920046F82320CB78A3B9083DBA
:100800002C44097894F8502042EA811284F8502050
:100810001846F0BD830003F1A043D3F8002722F06F
:100820000202C3F80027E8E7AB0003F1804303F5B9
:10083000C0430A78D3F8101521F4473121F44071F0
:10084000C3F810151204000202F44031D3F8104529
:1008500000F4F8520A432243C3F810250020F0BDEB
:10086000002385F83030C4F800C01D46BBE70826D9
:1008700085F830603346C4F820C03546B0E700BF85
:10088000CC220020F0B42E4D2E1882B096F93030D4
:10089000072B1CDD2B4493F848309B09032B41D0D8
:1008A000012B14BF4FF440334FF40033800000F1AC
:1008B000A040D0F8002722F44032C0F80027D0F83A
:1008C00000271343C0F8003702B0F0BC7047DAB21B
:1008D000072AF9D8980000F1804000F5C04003F1E4
:1008E00040029200D0F8104592B202F180420027F7
:1008F00044F0010402F5C042C0F810450197019888
:1009000017600029E0D096F9302055F82220002AFF
:10091000DAD001220B4902FA03F3C1F8043302B022
:10092000F0BC70474FF0A0420123D2F8102583405D
:1009300013420CBF4FF400334FF44033B6E700BF0F
:10094000CC220020006000404FF0A043D3F81035C7
:1009500023FA00F000F00100704700BF2DE9F047D6
:10096000C44B1A68012A82B000F0D2810027C24B22
:100970001A68012A00F0BE81C04B1A68012A00F0F3
:10098000AB81BF4B1A68012A00F09881BD4B1A68F1
:10099000012A00F08581BC4B1A68012A00F05C81B5
:1009A000BA4B1A68012A00F04981B94B1A68012A2A
:1009B00000F03681B74B1A68012A00F02581002625
:1009C00017F0FF0F1BD0DFF8D08201250024A30011
:1009D00003F180432F4203F5C0434FEA45050BD096
:1009E000D3F8100558F82420D3F81015C0F30420CC
:1009F000C1F3014102B190470134082CE7D1002F27
:100A000002DB02B0BDE8F087A34D95F95010481CF9
:100A10004FF0FF3A2F464FF000094FF0010800F069
:100A2000A980C9B221F0C0002AFA00F414F0010430
:100A30001BD03B18890993F9303057F82330002B2D
:100A400000F0CB80032908FA00F400F0CB8082008C
:100A500002F1A0423440D2F800E7CEF3014E40F05C
:100A6000A980BEF1030F00F07A8195F951104A1C5C
:100A700022D0C9B221F0C0002AFA00F3DB071BD54F
:100A80003B18890993F9303057F82330002B00F0D8
:100A9000B380032908FA00FC00F0B380820002F161
:100AA000A04216EA0C0FD2F800E7CEF3014E63D154
:100AB000BEF1030F00F07A8195F95210481C22D044
:100AC000C9B221F0C0002AFA00F3DA071BD53B189F
:100AD000890993F9303057F82330002B00F08580D6
:100AE000032908FA00FC00F08480820002F1A04291
:100AF00016EA0C0FD2F800E7CEF3014E46D1BEF154
:100B0000030F00F03F8195F953104B1C21D0C9B25F
:100B100021F0C0002AFA00FA1AF0010F19D03B1890
:100B2000890993F9303057F82320002A4ED0032941
:100B300008FA00FC4ED0830003F1A04316EA0C0F24
:100B4000D3F800E7CEF3014E2AD1BEF1030F00F037
:100B5000EF80002C3FF455AF4FF0A043D3F8103591
:100B60009E423FF44EAF95F95010481C1E46CA46AF
:100B70007FF457AF002478E7BEF1020F9CD1032920
:100B800000F02B81002B97D0984795E7BEF1020F1C
:100B9000B9D1032900F01E81002BB4D09847B2E7E9
:100BA000BEF1020FD5D1032900F01A81002AD0D05E
:100BB0009047CEE7BEF1020FDCD1032900F013818C
:100BC0000024002B3FF451AF98474EE70329C0D1D2
:100BD00008FA00FC49EA0C09ADE7032940F0A680B9
:100BE00008FA00F449EA040931E703298BD108FA2D
:100BF00000FC49EA0C0978E703297FF45DAF08FAA5
:100C000000FC49EA0C0949E700221A601B680193BD
:100C10004FF0A043019AD3F8106547F00047CFE6A4
:100C20001E4AD2F8042314067FF5C4AE00221A60CF
:100C30001B680093009B47F08007BBE6174AD2F879
:100C4000042355067FF5B1AE00221A601B6800939D
:100C5000009B47F04007A8E6104AD2F80423960606
:100C60007FF59EAE00221A601B680093009B47F040
:100C7000200795E6006100400461004008610040E3
:100C80000C61004010610040146100401861004098
:100C90001C6100407C610040CC22002000600040CC
:100CA000524AD2F80423D2067FF575AE00221A60AC
:100CB0001B680093009B47F010076CE64B4AD2F884
:100CC000042311077FF562AE00221A601B680093AF
:100CD000009B47F0080759E6444AD2F8042350071E
:100CE0007FF54FAE00221A601B680093009B47F00F
:100CF000040746E63D4AD2F8042394077FF53CAE4C
:100D000000221A601B680093009B47F0020733E63D
:100D10003649D1F8041311F001073FF428AE002141
:100D200019601B6800931746009B20E61C469CE652
:100D300003297FF43BAF4FF4003ED3F800C72CF4F7
:100D4000403CC3F800C7D3F800C74CEA0E0EC3F806
:100D500000E7002A3FF400AF0134E4B228E703299A
:100D60007FF42FAF4FF40034D2F800E72EF4403E6A
:100D7000C2F800E7D2F800E74EEA0404C2F80047E0
:100D800001241EE703297FF407AF4FF4003ED2F899
:100D900000C72CF4403CC2F800C7D2F800C70134A9
:100DA0004CEA0E0EE4B2C2F800E7F5E603297FF440
:100DB000E9AE4FF4003ED2F800C72CF4403CC2F834
:100DC00000C7D2F800C701344CEA0E0EE4B2C2F8F4
:100DD00000E7D7E64FF4403ED9E74FF4403EEAE75C
:100DE0004FF4403EA9E74FF44034BDE700600040B7
:100DF0002DE9F0410479694D64012E1986B0F37E26
:100E00001BB1082006B0BDE8F0814F7F37770E6830
:100E10004FF0A04E012707FA06F6CEF808650E68D7
:100E200006F5E0764FF0030C4EF826C04E6806F546
:100E3000E0764EF82630067905EB4616377F002F10
:100E400050D006688F69C6F8247591F815800F7D1B
:100E5000066848EA0707C6F86C7591E8400107681C
:100E6000C7F80C65C7F814850F7D012F00F08C8042
:100E70002B1906465A600B6948482B51EAB1337961
:100E8000097F326800EB4310037F002B5BD1C2F86F
:100E90001C31D2F81C7132680097009FC2F84431AF
:100EA000D2F84421336801923D48019AC3F8040303
:100EB000306840F30730FFF7A9FB3379326805EB60
:100EC00043131B7F002B3AD00823C2F800352C4473
:100ED00000200123E376E0752076A075A07606B0A9
:100EE000BDE8F08103688E69C3F8246591F8158028
:100EF0000E7D036848EA0606C3F86C6591E80801B0
:100F00000668C6F80C35C6F814850E7D012EAFD1E3
:100F10008B6803F5E0734EF82370CB6806FA03F391
:100F2000CEF80835CB6803F5E0734EF823C00368AC
:100F3000CF688E68C3F80875C3F8106598E7042376
:100F4000C2F80035C3E70023C2F81031D2F810719F
:100F500032680297029FC2F82031D2F820713268BD
:100F60000397039FC2F82431D2F8247132680497A2
:100F7000049FC2F84431D2F84421336805920948ED
:100F8000059AC3F8040393E78E6806F5E0764EF8F9
:100F90002630CB6807FA03F3C2E700BF2423002002
:100FA0008000020010030200F0B50379534C5B018E
:100FB000E51887B02D7F3DB10D0C2D04B5F1005F14
:100FC00002D0102007B0F0BD23444C4F9E7D16B1D7
:100FD000112007B0F0BD9A7599609E8205796D0168
:100FE0007A19137F13BB0168C1F81C31D1F81C6159
:100FF000016804960126049F8E600168D2F808E01B
:10100000C1F81C31D1F81C310593059B968A938A4F
:101010005768B6B201331EF806609BB29382C1F8DE
:101020001C65002F2FD0002007B0F0BD0368916829
:10103000C3F82061D3F8207103680197019FC3F8BA
:101040005861D3F8586103680296967D029FC3F8F1
:101050004415C3F848650368012199605368002B63
:10106000E1D1036801E0002945D1D3F82021D3F86C
:101070005811002AF7D0002914BF0F2000202C445B
:101080000023A3759EE7967D938A9BB29E4202F150
:10109000140122D9016804E0938A9BB2B3F5807FE2
:1010A00003D0D1F81C31002BF6D0938A9BB2B3F554
:1010B000807FE9D0C1F81C71D1F81C310393039BE8
:1010C000B2F814C0938A1FFA8CFC01331EF80CC0CE
:1010D0009BB29382C1F81CC5D6E70B889BB2B3F5CF
:1010E000807F08D00268D2F81C31002BFBD001238E
:1010F000D3600020C3E70F20C1E700BF24230020F6
:101100000279044B03EB4213987D003018BF012095
:10111000704700BF24230020F0B40379884E5B01A0
:10112000F41888B0257F4DB10D0C2D04B5F1005F8A
:1011300059D01022104608B0F0BC70476568002DE9
:1011400042D133447E4FDC7D002C2BD1DA75D9603F
:101150005C761C7605796D0173191F7F002F50D1C5
:101160009B7E8BB984B90368C3F82441D3F824214A
:1011700003680392039AC3F80841D3F8082103686F
:101180000492012204991A6071194B68002B6FD0E8
:1011900003684FF40172C3F804230022104608B01C
:1011A000F0BC70471C7ED4B1002D00F0A9800379FB
:1011B00007EB43173B7F002B53D003684FF40472B7
:1011C000C3F804231122B5E704684FF401773344D0
:1011D000C4F80873DC7D5A4F002CB7D0E2E71961E0
:1011E0001A760124B6E76568002DAAD004684FF48A
:1011F00004773344C4F80873DC7D514F002CA5D02C
:10120000D0E703680025C3F81051D3F810710368C4
:101210000197019FC3F84451D3F8445103680295E4
:10122000029DC3F83415C3F8382594B90368012228
:101230001A600179490173185B68002B62D003685A
:101240004FF40472C3F804230022104608B0F0BC27
:1012500070470268D2F8003243F02003C2F800322F
:10126000E7E703684FF40172C3F80423112261E732
:101270000268C2F84431D2F844310593059B0368F3
:10128000D3F82471D3F80841D3F8442144B9002A93
:101290002FD1002FF4D035440023EB75032249E70A
:1012A000002FF8D13ABBCC7DC3F80821CCB1D3F8DC
:1012B00008410694069CCF684C7ED3F818353B5500
:1012C0004B7ECC7D0133DBB24B764B7E9C42D6D835
:1012D00035440021AB7EE9756BB3036801211960C9
:1012E00028E7D3F808410794079CD3F818354B7EBC
:1012F000EEE7002FCFD135440023EB750F2219E71D
:10130000112217E7036801E042B980B9D3F8104110
:10131000D3F84421D3F82401002CF5D00E44002347
:10132000F3750028BAD19A4218BF0F2202E7314460
:10133000CA750322FEE6036801215960FAE600BF80
:1013400024230020114A037902EB4313197FD9B9F2
:101350009B7ECBB910B4016883B0C1F82431D1F8B9
:10136000244101680094009CC1F80831D1F808318B
:10137000016801930123019C0B60017902EB41128A
:10138000937603B05DF8044B704700BF2423002020
:1013900070B59B4C237F8EB0002B75D1994AD2F843
:1013A0000413890548D4974BD3F80423520704D576
:1013B000D3F80821002A40F0CA80924BD3F81C21B0
:1013C000C2B1A28AA07D8E4992B282424FF0000241
:1013D000C3F81C2180F0A980D3F81C210692069A3C
:1013E000888A8A8A8D6880B20132285C92B28A82A9
:1013F000C3F81C05834BD3F84421DAB10022C3F8AB
:101400004421D3F84411A27E04910499002A40F0AB
:101410008980E27D7A4B6AB10022587ED968DA75FC
:1014200001228DF830000B918DF828200AA893E84E
:10143000060090470EB070BDD2F824110029B2D03A
:10144000C2F82431D2F82411A37E07914FF4017120
:101450000798C2F808130BB901235360694A0223A5
:101460008DF82830D2F88034C2F88034E07DE2680C
:101470000D9300238DF83000E375237621680B92DD
:1014800063680AA8984798E75E4BD3F82421002A9E
:1014900040F09380D3F8101161B1C3F81021D3F854
:1014A000101103910399D3F83C15E07DC9B288422D
:1014B00000F0AA80534BD3F84421B2B10022C3F804
:1014C0004421D3F84411E07D019101994C4960B168
:1014D000D3F83C35C8688DF830300123CA750B90BD
:1014E0008DF828300AA80AC99847464BD3F820211E
:1014F000002A9FD00022C3F82021D3F82011A07D1C
:10150000009100993E49002894D0D3F84C058B688F
:101510008DF830008A750B938DF828200AC90AA827
:10152000984787E701221A6073E7D3F81C310593C7
:10153000059B00283FF45EAF8B688DF830008A75FC
:101540000B938DF828200AC90AA8984752E7E17D35
:101550002B4A002970D00021C3F80811D3F80811D4
:1015600008910899D068517ED3F818354354537EBA
:10157000D17D0133DBB25376627E214B8A427FF408
:101580001CAF1A7E002A6DD19B7E13B91D4B012220
:101590005A601C4AE06863684FF40171C2F808138E
:1015A000627E8DF83020002501220B902168E575C0
:1015B0008DF828200AA89847FFE60022C3F82421C6
:1015C000D3F82411029102218DF828100299D3F842
:1015D0008014C3F880140D91D3F83C15E368E275CC
:1015E00022768DF830100B93216863680AA898471B
:1015F000044BD3F84421002A3FF477AF5EE700BFE5
:101600002423002000200040217EF1B1D3F80062A5
:10161000E17526F02001E568C3F8001226698DF80F
:10162000300001238DF82830227621680B95E66082
:1016300063680AA898473DE7C3F80811D3F8082162
:101640000992099AD3F8183596E7E268E175012303
:101650008DF830008DF828300B9294E80A000AA823
:10166000984727E7DE685D7E1869DA750121002258
:10167000D8601A765A768DF828100B968DF830506F
:1016800093E806000AA8904797E600BF4FF0A042F3
:10169000D2F80435D94301F0807103F08073C2F8A9
:1016A0000815C2F80C35704708282DE9F04707D017
:1016B000092838D00C2838D00B2838D0BDE8F0875E
:1016C00000250129044611D020D30229F6D1214B4F
:1016D00005EB45051D446E78002EEFD01E4B1B68B0
:1016E000002BEBD03046BDE8F0471847DFF86480A8
:1016F0006F007B1908EB030218F803605378C3B935
:101700002F444744154BBA785A55E5E71448FEF77D
:1017100049FD1049114A05EB45030B44565D9B7882
:101720009E42CBD1D8E70125CBE70225C9E70325A7
:10173000C7E70C4BDFF830901968094801EB8101CD
:1017400049004A46FEF7D6FC0028D9D189F8004066
:10175000D6E700BFC023002074230020BC23002054
:1017600078230020702300206C230020C94B1B68C5
:10177000DB0700D4704770B5C74B1C78172C22D8F4
:10178000DFE814F0680075007500AE00D500F500C4
:101790001A013D01390022003900220018005001D1
:1017A00050015001500150014E0058009E00780138
:1017B000180018004FF0A0434FF0E0710022C3F86A
:1017C0000C15C3F8082570BD4FF0A042B34CD2F8F9
:1017D0000435B348D94301F4000103F40003C2F80F
:1017E0000815C2F80C352168002201EB8101BDE823
:1017F0007040FEF77FBC4FF0A042A84CD2F80435F1
:10180000A748D94301F4000103F40003C2F8081506
:10181000C2F80C3521680022BDE87040FEF76ABCB2
:101820004FF0A0434FF0E0710022C3F80815C3F851
:101830000C2570BD4FF0A04300224FF0C0704FF454
:101840008001C3F80805C3F80C25C3F80C15C3F8CC
:10185000082570BD934B1B684FF0A042DB4303F09B
:10186000E0730021C2F80835C2F80C1570BD8D4A2E
:1018700012684FF0A040D24302F0C0720025C0F8B9
:101880000825C0F80C55D0F8042582F0E07212F457
:10189000800200F03881022C4FF48002C0F8082545
:1018A00014BF28211221C0F80C557C4A1C70126804
:1018B0007B4802FB01F1BDE870400022FEF71ABC34
:1018C0004FF0A04300224FF0A0704FF40001C3F886
:1018D0000805C3F80C25C3F80C15C3F8082570BD1E
:1018E000704A12684FF0A040D24302F0C072002448
:1018F000C0F80825C0F80C45D0F8042582F0E07245
:1019000012F4800200F0F7804FF48002C0F808253E
:101910000821C0F80C45614A6148126803241C7014
:1019200002FB01F1BDE870400022FEF7E3BB5D4A17
:1019300012684FF0A040D24302F0C0720024C0F8F9
:101940000825C0F80C45D0F8042582F0E07212F4A6
:10195000800200F0C1804FF48002C0F808252821E1
:10196000C0F80C454D4A4E4812680424D7E74D4A4A
:1019700012684FF0A041D24302F0C0720020C1F8BB
:101980000825C1F80C05D1F8042582F0E07212F4A4
:10199000800200F0A9804FF48002C1F80825C1F848
:1019A0000C053E4A3E48116805241C70490000227F
:1019B000BDE87040FEF79EBB3A4A12684FF0A04166
:1019C000D24302F0C0720020C1F80825C1F80C050E
:1019D000D1F8042582F0E07212F4800275D04FF441
:1019E0008002C1F80825C1F80C052C4A2C48116862
:1019F00006241C700022BDE87040FEF77BBB294B1B
:101A00001B684FF0A042DB43002103F0C0734FF48A
:101A10008000C2F80835C2F80C15C2F80C05C2F8EF
:101A2000081570BD2048FEF7BDFBD4F11104024635
:101A30003ED000283CD11B4E4FF08073012C336008
:101A400010D0C825194B15491748096805FB04F43F
:101A5000A3FB04435B0901FB03F1FEF74BFB336877
:101A600003F0E0734FF0A0420021C2F80C35C2F839
:101A7000081570BD4FF0A04300224FF080704FF466
:101A80004001C3F80805C3F80C25C3F80C15C3F8CA
:101A9000082570BD682300209823002070230020B3
:101AA00044230020642300209C2300201F85EB5149
:101AB0001A4A13684FF0A040002103F0E073C0F809
:101AC0000835C0F80C15116070BD4FF48000C1F8E6
:101AD0000C05C1F8082588E74FF48001C0F80C1503
:101AE0000421C0F808253DE74FF48000C1F80C053B
:101AF000C1F8082555E74FF48001C0F80C15022104
:101B0000C0F8082507E74FF48001022CC0F80C1537
:101B100014BF04210221C0F80825C6E66423002072
:101B20000378082B15D0092B15D00C2B04D00B2BC8
:101B300008BF032301D070470223084A03EB430385
:101B4000134458780028F6D0054B1B68002BF2D0C0
:101B500018470023F1E70123EFE700BFC02300206F
:101B600074230020032803D900230B700020704742
:101B7000074A4FF0A04352F82000D3F81025012364
:101B80008340934314BF012300230B700020704750
:101B90009C4F020070B5BF4B1A6812F0010201D1D0
:101BA000104670BD0346172800F2EB81DFE810F005
:101BB0003901490149017C00A400CC00F200580021
:101BC0002F0018002F00180017017C017C017C01F8
:101BD0007C017C01A50125012F0144006F006F00ED
:101BE0004FF0A042AC4CD2F80435AC48D94301F4D4
:101BF000000103F40003C2F80815C2F80C3521688F
:101C0000002201EB8101BDE87040FEF773BA4FF08E
:101C1000A042A14CD2F80435A048D94301F40001F8
:101C200003F40003C2F80815C2F80C35216800223D
:101C3000BDE87040FEF75EBA99484FF0A0434FF000
:101C4000807200214FF440051524C3F80825C3F81D
:101C50000C150A46C3F80C55C3F8081504709FE725
:101C6000904B8F4C1B684FF0A041DB43002003F0EA
:101C7000C0734FF480060725C1F808350246C1F845
:101C80000C05C1F80C65C1F80805257088E74FF010
:101C9000A041834C4FF0E0720020C1F80C25C1F840
:101CA0000805024623707BE77E4B1B684FF0A0427D
:101CB000DB4303F0C0730020C2F80835C2F80C05FE
:101CC000D2F8043583F0E07313F4800300F042810E
:101CD0004FF48003C2F808350821C2F80C056E4A9B
:101CE0006F4B12686D4803241C7002FB01F1BDE8C4
:101CF00070400022FEF7FEB96A4B1B684FF0A0420D
:101D0000DB4303F0C0730020C2F80835C2F80C05AD
:101D1000D2F8043583F0E07313F4800300F02281DD
:101D20004FF48003C2F808352821C2F80C055A4A3E
:101D30005B4B1268594804241C7002FB01F1BDE89A
:101D400070400022FEF7D6B9564B1B684FF0A042F8
:101D5000DB4303F0C0730021C2F80835C2F80C154C
:101D6000D2F8043583F0E07313F4800300F00281AD
:101D70004FF48003C2F80835C2F80C15464A484BA8
:101D80001168464805241C7049000022BDE87040D7
:101D9000FEF7B0B9434B1B684FF0A042DB4303F0A2
:101DA000C0730021C2F80835C2F80C15D2F804350A
:101DB00083F0E07313F4800300F0BA804FF48003E3
:101DC000C2F80835C2F80C15354B334A3348116850
:101DD00006241C700022BDE87040FEF78BB94FF05E
:101DE000A0432F484FF0E07200210C24C3F80C25CB
:101DF000C3F808150A460470D2E64FF0A0432848FD
:101E00004FF0C07200214FF4800513241DE74FF0FE
:101E1000A04323484FF0A07200214FF40005142482
:101E200013E7204B1E4C1B684FF0A040DB43002102
:101E300003F0E073C0F808350A46C0F80C152170AD
:101E4000AEE6184A12684FF0A040D24302F0C072CA
:101E50000024C0F80825C0F80C45D0F8042582F00D
:101E6000E07212F480026AD0022B4FF48002C0F8B4
:101E7000082514BF28211221C0F80C45064A084C39
:101E80001268237002FB01F104480022BDE8704093
:101E9000FEF730B96823002070230020442300207F
:101EA000982300206423002004463748FEF77AF97F
:101EB000D4F1110302462ED068BB344D4FF080712F
:101EC000012B296011D0C824314E32492E480968AF
:101ED00004FB03F3A6FB03435B0901FB03F1FEF7DD
:101EE00009F92968024601F0E0714FF0A043002093
:101EF000C3F80C15C3F8080552E64FF0A043264876
:101F00004FF0E07200211224C3F80825C3F80C1525
:101F10000A46047044E61D490B684FF0A0440020B7
:101F200003F0E073C4F80835C4F80C05086037E620
:101F30004FF48001C2F80C15C2F8083544E74FF49D
:101F40008001022BC0F80C1514BF04210221C0F837
:101F5000082593E74FF48001C2F80C150221C2F85E
:101F60000835BCE64FF48001C2F80C150421C2F814
:101F70000835DCE64FF48001C2F80C15C2F80835CC
:101F8000FCE600220CE600BF9C2300206423002016
:101F90001F85EB517023002098230020F8B5224DB7
:101FA000224E234B2860044610F0020031601A6074
:101FB00011D0204B20484A080E270D210F2610254E
:101FC0001970DF7004219E715D72FDF747FBF8B157
:101FD000E30702D4F8BDE2070CD54FF0A0434FF061
:101FE000E0720021C3F80825C3F80C15C3F81825C2
:101FF0000028EFD1114A12480021FEF769F80028A5
:10200000E8D1104A10480121BDE8F840FEF760B859
:10201000FDF77CFB0028DBD101460C4A0C48FEF79B
:1020200057F8E107E4D5D8E76823002070230020A3
:1020300074230020C0230020B04F02006D1702005F
:10204000AC4F02008D160200D04F0200211B02008F
:10205000984F0200032801D907207047012A12D0A7
:10206000012917D008D30229F6D10D4B00EB40000F
:10207000034400205A707047094B00EB40000344B2
:1020800000209A707047012901D00022E8E700F192
:102090000D02D2B200EB400301490020CA54704740
:1020A000C023002070B41D4D1D4CD5F800371D49CC
:1020B0001D4A10F0010F14BF4FF44036002623F4E0
:1020C00040333343C5F80037D4F8003710F0020F1F
:1020D00014BF4FF44035002523F440332B43C4F89C
:1020E0000037D1F8003710F0040F14BF4FF440341C
:1020F000002423F440332343C1F80037D2F80037DB
:1021000010F0080F23F4403314BF4FF44031002186
:102110000B43C2F80037002070BC7047200000500D
:1021200024000050300000502C00005008B503205F
:10213000FFF7B8FF10B1062808BF002008BD00BF98
:1021400010B50388102B08D0112B05D1264B186829
:102150000138186038B110BD10BD234C216881B121
:102160000131216010BD01220221FFF773FF48B346
:10217000072827D01D4B1B68002BECD0BDE8104072
:10218000184701220846FFF765FF48B1072807D026
:10219000164B1B6803B1984721680131216010BDBF
:1021A000072202210120FFF755FF08B10728EFD1D0
:1021B000042202210020FFF74DFF0028ECD0072861
:1021C000E6D1E9E7072202210120FFF743FF08B12A
:1021D0000728CFD1002108460A22FFF73BFF00283D
:1021E000B9D00728C6D110BDD0230020CC230020B1
:1021F00010B5204B82B01860B1B10C4600200DF133
:102200000601FFF7AFFC08B102B010BD0DF10701E8
:102210000120FFF7A7FC0028F6D19DF8073013BB7B
:102220009DF8063013BB2370134B186810B10020C3
:1022300002B010BD01220221FFF70CFF08B10728F0
:10224000E2D1072202210120FFF704FF08B107288D
:10225000DAD1002108460A22FFF7FCFE0028E6D06A
:102260000728D1D1E3E702232370DDE70B23237096
:10227000DAE700BFCC230020D023002076DF7047B0
:102280007ADF70477CDF70477FDF7047A8DF7047D9
:10229000A9DF7047ADDF704767DF704732DF7047F7
:1022A0003EDF7047FDF748BA10B5044684B001F030
:1022B00087FA2146494801F061FC2388023B542BF0
:1022C00035D8DFE803F078343434343434343434FB
:1022D000343434342B7F344534343434343434346B
:1022E00034343434343434343434343434343434AE
:1022F0003434343434343434343434343434343C96
:10230000343434343434343434343434343434348D
:1023100034343434344F673434713C000720FFF7D1
:1023200039FC08B1FDF708FA2D4BA2881A80204627
:1023300001F0E0F82046FFF703FF04B010BD1321C1
:10234000A088FFF79BFF0028F1D0FDF7F5F9EEE735
:10235000234A0023108885211A46FFF795FF00289D
:10236000E5D0F2E7A279002AE1D0A37B043B022B5F
:10237000DDD8022A0CBF022201224FF4C173694644
:10238000A0888DF80020ADF80430FFF77FFF00280B
:10239000CDD0DAE7124A0023108819461A46FFF713
:1023A00077FF0028C3D0D0E71721A088FFF772FF7E
:1023B0000028BCD0C9E70021A088FFF76DFF0028E6
:1023C000B5D0C2E70020FFF7E5FB08B1FDF7B4F98F
:1023D000034B4FF6FF721A80A9E700BFB426002016
:1023E0009821002038B54AB10C468D182078FEF7A8
:1023F00013F80028FAD10134AC42F7D10D20FEF7D2
:102400000BF80028FAD10A20FEF706F80028FAD1C6
:1024100038BD00BF08B5037803B108BD054B3B21AB
:102420001888FFF72BFF0028F7D0BDE80840FDF71C
:1024300083B900BF98210020072808B51CD00A28BE
:102440000ED0042800D008BD144B13211888FFF7C4
:1024500015FF30F00803F6D0BDE80840FDF76CB971
:102460000020FFF797FBB0B9FFF760FE80B9FFF7D8
:1024700015FF0028F0D108BD084B1A884FF6FF73EE
:102480009A42E0D101F096F830F00803DBD0E3E7A0
:10249000FDF752F9EBE7FDF74FF9E5E7982100204A
:1024A00038B50378012B02D007D3022B04D1406842
:1024B000BDE83840FDF740B938BD0F4D0F4C2878C6
:1024C0002044FDF789FF2A780132D2B214442A70E1
:1024D00014F8013C0A2B01D0132A0BD907490848EC
:1024E00001F070FC30F0080301D0FDF725F900235E
:1024F0002B7038BD38BD00BF4C250020A026002021
:10250000B426002008B530B1032803D10220FFF71C
:1025100041FB50B908BDFFF73DFB50B9FFF706FE80
:1025200050B9FFF7BBFE0028F4D0BDE80840FDF726
:1025300003B9FDF701F9F1E7FDF7FEF8F1E700BF98
:1025400070B50023A6B01846724A0521FDF7E0FCDD
:1025500008B1FDF7F1F8704D704B0A930FCD18AC30
:102560000FC495E803006E4A6E4D0C9584E8030095
:1025700006234FF480740AA918A80B940D94FDF754
:10258000B9FE08B1FDF7D8F8674A40F6CD410320FF
:10259000FFF704FD08B1FDF7CFF818A90020FFF7F9
:1025A00027FE08B1FDF7C8F8604B614918680A902A
:1025B000002350220AA801F0A5FC08B1FDF7BCF8E1
:1025C00018AA0121002001F009FD08B1FDF7B4F8B7
:1025D000172318A8ADF8703001F018FD08B1FDF709
:1025E000ABF8544801F0D8FC08B1FDF7A5F89DF808
:1025F00028305148012262F3030362F307138DF878
:10260000283001F037FD4C4982B20AA8FFF73AFEA4
:1026100008B1FDF791F80822002118A8FCF792FFF5
:1026200010243C2100224FF4C87318A8ADF8604074
:10263000ADF86210ADF86420ADF86630FFF720FE0B
:1026400008B1FDF779F80021042218A8FCF77AFFF9
:102650003A4B3B48189318A901F0BCFA08B1FDF7B2
:102660006BF800210C4638220AA8FCF76BFF022504
:1026700021460523382218A88DF82A408DF82850C5
:102680008DF82B300125FCF75DFF21462D4B1D9366
:10269000202202A8ADF870504026FCF753FF0094AA
:1026A00002AAB4240AA8284B8DF80B5018A9069644
:1026B000079400F043FE08B1FDF73EF81C2200210C
:1026C00018A8FCF73FFF4FF4203600234FF4702585
:1026D00003241E491E4A189318A8ADF86E308DF8D1
:1026E000703019961A958DF86C401D911E9201F06C
:1026F0002DF808B1FDF720F8164801F0A3FC0320DF
:1027000000F0D8FE18B9FFF7CBFD0028FBD0FDF78D
:1027100013F8F8E7D4240020D44F0200A0250020AD
:10272000A1240200D423002039240200EC4F02002F
:1027300050250020A9220200F04F0200E5230200EC
:10274000B426002094210020052502001524020053
:10275000A5220200FC4F02006DDF704772DF704758
:1027600079DF70477DDF704765DF70472DE9F04FF7
:1027700083B004880C9FBDF83490B7F800A0002CFB
:102780004CD09846002316468B4605461C4603E06F
:102790002A880134A24224DD6A6852F8240001909C
:1027A00000220DF1030101A8FFF7DEFF10BB9DF829
:1027B0000320B242ECD103B33A8893194B4518DC9D
:1027C00042440DF1030101A80123FFF7CDFF88B9B1
:1027D0003A889DF803100A443A802A880134A242BC
:1027E000DADCDBB13B88013BCAEB03039BB2FF2B76
:1027F00012D90C2003B0BDE8F08F3B885A1C33443B
:1028000002334B4592B2F4DC3A8008F802B03A88C1
:10281000013292B23A80D3E708F80A30002003B0C0
:10282000BDE8F08F2DE9F04700231788138090F85A
:102830002D3084B0144605460E46002B49D1AA78A7
:10284000002A70D1EA78002A2ED16A68A2B1D91C78
:10285000B94225D8022192F90020F154238801338E
:102860009BB20A212380F154238801339BB2238039
:10287000F2542388013323802B89002B40F02A81D6
:102880002B8A002B40F03F812B8B002B40F0548192
:102890002A6A002A00F0A78021888B1DBB4262D9DA
:1028A0000C2004B0BDE8F087D91CB942F8D8022149
:1028B000F154238801339BB201212380F1542388F2
:1028C0000B449BB22380F25423880B449BB2238099
:1028D000BBE7082FE4D902A8FFF73EFF0028E0D1AC
:1028E00013880822CA54238801339BB21B222380F9
:1028F000CA542088013080B22080062208440DF19D
:10290000090101F093FB23889DF8082006339BB250
:1029100012F0FE0218BF01222380F25423880133F3
:102920009BB223808BE70433BB42B9D802A8FFF7E0
:1029300017FF0028B5D12388BDF808200321F154E2
:10294000238801339BB219212380F154238801335A
:102950009BB2F1182380F254120A4A702388023382
:102960009BB223806EE71388052B40F2AF806FF493
:10297000486803EB080080B24FF27D3E704540F29C
:10298000A5805088052840F2A1806FF4486C8444EB
:102990001FFA8CFCF44540F299804FF6FF7E734598
:1029A00004D0704502D0834200F290800523735416
:1029B000238801339BB212212380F15423880133F1
:1029C0009BB223801188F1543344090A597023883B
:1029D00002339BB223805288F2543344120A5A7055
:1029E000238802332380D5F82480B8F1000F30D03B
:1029F000B8F804202188131D0B44BB423FF650AFAA
:102A0000931CFE2B3FF64CAF0332725423880133E4
:102A10009BB2FF222380F254238801339BB2238090
:102A2000B8F80020F2543344120A5A702088023059
:102A300080B22080B8F804205AB1D8F808100029D4
:102A400044D0304401F0F2FAB8F80430228813443C
:102A5000238095F82C30002B40F08B8028780028BC
:102A60003FF41FAF2B88012B30D023889A1CBA4229
:102A70003FF616AF012805D16978023119448F421B
:102A8000FFF40EAF023FFB1A04A99BB221F8083DE8
:102A9000B018FFF767FE00287FF403AF2A78022AF8
:102AA00000F0B480012A60D01A460821FE2A3FF6C1
:102AB000F7AE2388551CF554238801339BB223803D
:102AC000F154238801331A442280EAE6072004B037
:102AD000BDE8F08705F1080802228DE89000404625
:102AE00011463346FFF742FE00287FF4DAAE8DE848
:102AF00090004046334610220621FFF737FE00289B
:102B00007FF4CFAEBCE605F110088DE8900040469A
:102B1000334602220321FFF729FE00287FF4C1AECD
:102B20008DE890004046334610220721FFF71EFE35
:102B300000287FF4B6AEA7E605F118088DE89000EE
:102B40004046334602221421FFF710FE00287FF48E
:102B5000A8AE8DE890004046334610221521FFF7BD
:102B600005FE00287FF49DAE92E66A7893429CD2DF
:102B70009AE7D5F82880B8F1000FA7D0B8F804205C
:102B80000232FE2A3FF68CAE23884FF000094FF048
:102B9000160A0132F254238801339BB2238006F8CF
:102BA00003A0238801339BB22380B8F80020F2549D
:102BB0003344120A5A70238802339BB22380B8F838
:102BC0000410F0180A4669B1D8F808301946002BED
:102BD0003FF47CAF01F02AFAB8F80430228813449D
:102BE0009BB2238009F1010995F82C205FFA89F93D
:102BF0004A4509EB49087FF631AFAA6A02EB88081B
:102C0000B8F804200232FE2AC3D949E6BDF80820EC
:102C10009342FFF449AF092148E700BF2DE9F04393
:102C200095B01F230D46ADF80E300446002800F085
:102C30008480C27853077CD590F82D300021ADF800
:102C40000C10002B40F0DD8183780CAF002B40F09E
:102C500019821946032014AE31445F1C023316FA60
:102C600087F74FF0020E16FA83F601F840EC83B2B4
:102C7000012107F8401CADF80C3006F8402C6668BE
:102C8000002E00F08C80D81C1F2874D90C2015B0A1
:102C9000BDE8F083A76A002F4BD0BA880232FE2A23
:102CA000F4D8BDF80C304FF0000804AE4FF0160910
:102CB0001AE001F0BBF9BDF80C20BB8894F82C1089
:102CC00013449BB2ADF80C3008F101085FFA88F8A4
:102CD000884508EB480780F0F080A26A02EB87077E
:102CE000BA880232FE2AD1D80DF1500E9E44581CEB
:102CF00001320DF1500C0EF8402C1CFA80F09A1C99
:102D000092B200F8409CADF80C203888B0543244A0
:102D1000000A50700433B7F804E09BB27246F01812
:102D2000ADF80C30BEF1000FCED0BB681946002BB9
:102D3000BFD1072015B0BDE8F083ADF80C00ADB1F0
:102D4000EB78002BF5D128460CA90DF10E02FFF708
:102D500069FD0028EED19DF80E300CAA20469DF8A2
:102D60000C10FFF7FBFC15B0BDE8F0832B46ADF867
:102D70000E502A46F2E714AF591C9A1C17FA81F13B
:102D80003B4417FA82F296F90060ADF80C00022776
:102D90000A2003F8407C01F8400C02F8406C2389BB
:102DA000002B40F08F80238A002B40F0AB80238BD8
:102DB000002B40F0C780226A002A42D0BDF80C30B8
:102DC000991D1F293FF662AF10880528B1D96FF40D
:102DD000486C00EB0C06B6B24FF27D37BE42A8D964
:102DE0005688052EA5D96FF4486EB6441FFA8EFE9C
:102DF000BE459ED94FF6FF77B84203D0BE4201D000
:102E0000B04296D814A8C7185E1C10FA86F64FF088
:102E1000050E981C07F840EC80B2122706F8407C9B
:102E2000ADF80C001788ADF80C1004AE311837540B
:102E300004333F0A4F709BB25288F2543344120A53
:102E40005A70676AA7B3B888BDF80C30811C9A1C09
:102E500056181F2E3FF61AAFFE293FF617AF14AED5
:102E60001E44591C0DF1500E1EFA81F1033006F874
:102E7000400C92B2FF2001F8400CADF80C203988CC
:102E800004AEB018B154090A41700433BA8898B23C
:102E9000ADF80C0062B1B96800293FF44AAF304484
:102EA00001F0C4F8BDF80C20BB881344ADF80C3019
:102EB00094F82C1000297FF4EDAE2378002B61D11B
:102EC00004AC3CE703A904F1080704AE4FF01F0867
:102ED0000222009138463346CDF804801146FFF7B0
:102EE00045FC00287FF426AF03AB0093CDF80480A7
:102EF0003346384610220621FFF738FC00287FF4BD
:102F000019AF50E703AA04F1100704AE4FF01F08F1
:102F1000009238463346CDF8048002220321FFF7A1
:102F200025FC00287FF406AF03AB0093CDF80480A6
:102F30003346384610220721FFF718FC00287FF49B
:102F4000F9AE34E703AA04F1180704AE4FF01F08E6
:102F5000009238463346CDF8048002221421FFF750
:102F600005FC00287FF4E6AE03AB0093CDF80480A7
:102F70003346384610221521FFF7F8FB00287FF46E
:102F8000D9AE18E72288012A3FF4D3AEBDF80C2051
:102F9000901C1F283FF67AAE012B05D163781344AD
:102FA00002331F2B3FF672AEC2F11D0314A99BB270
:102FB00004AE21F8203D3044FFF7D4FB00287FF415
:102FC000B9AE2278022A00F08780012A00F08B80B7
:102FD000ADF830301A460820FE2A3FF657AEBDF84D
:102FE0000C3014AC591CE71814FA81F10233134465
:102FF000013207F8402C3446ADF80C3001F8400C93
:103000009DE60CAF3846FFF7A7FB00287FF492AE91
:10301000BDF80C3014A903F1010E9A1C11FA8EFEB2
:103020000B4492B204AEB01808211B2603F8401CD2
:10303000ADF80C200DF1310106220EF8406C00F0C5
:10304000F5FFBDF80C209DF83010931D11F0FE0126
:103050009BB23BD114A8034403F8401CD31DA278B3
:103060009BB2ADF80C304AB9E278002A3FF407AEC3
:10307000D81C1F2819463FF609AEECE504331F2B78
:103080003FF604AE3846FFF76BFB00287FF452AEE4
:10309000BDF80C30BDF83010E2785F1C14AE16FAA3
:1030A00087F71E44981C4FF0030E06F840EC80B2E0
:1030B00004AE4FF0190E07F840EC043337183154C2
:1030C0009BB2090AADF80C307970CEE714A90B4415
:1030D000012103F8401CC1E7BDF830209342FFF402
:1030E00077AF092078E762789342FFF471AFADF8CB
:1030F0003020082070E700BF73DF704774DF70472F
:10310000F0B5844D85B00646072200218248FCF7C1
:1031100019FA6B78FBB9AB78804F002B70D17E4CDD
:103120006378002B70D1A378002B6DD1E378002B4E
:103130006AD12379002B67D16379002B64D1A379FD
:10314000003318BF0123701E032800F2DF80DFE880
:1031500000F0164F1C38714F3B78012B04D0AA7831
:10316000002ADCD0022BDAD16D4B6E4A1B68002B93
:1031700000F0C3800121082011709847CFE76A78DA
:10318000002A35D0002B40F0BA80EB78CBB1644BED
:103190001B6803223A70E3B9634B00221A701022B5
:1031A00068460021FCF7CEF93B7800228DF800201C
:1031B0008DF80820042B49D8DFE803F093876D4B86
:1031C00028002B79D3B1564B1B6804223A70002B90
:1031D000E2D02A78002ADFD0544A1278002ADBD1C4
:1031E000534851490270012207200A709847D6E7D8
:1031F000AA78002AC9D0002BC7D002233B70CBE7A6
:103200003B78012BAED1AFE701239CE72B78A9696E
:10321000EA69ADF80A10ADF80C20002B65D0434BDD
:103220001978002961D1424B1B78002B5DD0414BAE
:10323000042402221846DC708DF80820FFF7EEFC0B
:1032400000285FD13C4A3B7806211170002B33D017
:103250002EE02B7829696A69ADF80A10ADF80C20C8
:10326000002B46D0314B1978002942D1304B1B78C6
:10327000002B3ED02F4B042402221846DC708DF820
:103280000820FFF7CBFC00283CD12B4A3B780521D6
:1032900011708BB10CE02848EA68AB6801940121F9
:1032A000022404708DF80010ADF80C20ADF80A303F
:1032B0006846FFF721FF30B9194B1B6813B11E4A4E
:1032C00010789847002005B0F0BD1B4901940122F9
:1032D00000230A708DF80020ADF80C30ADF80A30EC
:1032E000E6E7154B00221A70E6E7134B04221A702A
:1032F000DEE7114B03221A70DAE713700FE70123A0
:103300003B7049E73B78002BD6D0D1E700233B70D8
:1033100042E700BF4C2700204427002092270020CE
:1033200018270020932700208F2700203F27002008
:1033300008270020D0260020A42700202DE9F84FE0
:10334000DDF828E0002800F09880002A00F0958041
:10335000144605469C460E460FCC494FDFF8449173
:10336000DFF844A1DFF84481DFF844B1C8F800C0B9
:103370000FC794E80F00002487E80F00414F424B2D
:103380004248CBF800E0012289F8002021460722BC
:103390004FF6FF79A3F800908AF80040FCF7D2F8C6
:1033A000214638223846FCF7CDF805F1100393E8A2
:1033B0000300AA78EB7895F800E0BA70FB7007F18B
:1033C000100395F801C087F800E083E8030005F1D9
:1033D000080393E8030007F1080E05F118038EE8CF
:1033E000030093E803006A6A87F801C007F1180335
:1033F00083E80300B2B1264B7B62686A254A9A6073
:10340000B0F804E001881980A3F804E0BEF1000FD1
:1034100008D0013A23468168C95C02F8011F0133D4
:103420007345F8D1AB6AB3B11B4BBB62A86A1B4AA8
:103430009A6084889C800188198044B1013A0023F5
:103440008168C95C02F8011F0133A342F8D195F8E5
:103450002C3087F82C302B6A33B1114B3B622A6A2F
:103460005188598012881A806B6803B17B6031469D
:103470000448BDE8F84FFFF7D1BB0E20BDE8F88F38
:103480004C270020D0260020902700204427002031
:103490000C270020202700209827002070270020DC
:1034A0006C27002094270020922700201827002056
:1034B000402700200C4B1B780BB90820704710B533
:1034C0000A4B82B0044601A81C70FDF707F8019B67
:1034D0002BB1074B01221A70002002B010BD20460C
:1034E000FFF70EFEF9E700BF942700209227002087
:1034F0001C27002010B50388112B82B019D01B2B7C
:103500000AD0102B01D002B010BDC37B012BFAD121
:10351000214B82881A80F6E7037A002BF3D11F4BE8
:103520001B78F3B908201E4B1B68002BEBD0984783
:10353000E9E7194A838812881A4900209A420870DC
:10354000E1D1164B1B78002BECD0174B012401A8BE
:103550001C70FCF7C3FF019BBBB1144B01221A7016
:10356000D1E71149124C0B78013384FB0324DA179D
:10357000C2EB640404EB84041B1BDCB201A80C70D6
:10358000FCF7ACFF019B002BE7D12046FFF7B8FD0D
:103590000028B8D0C7E700BF90270020942700205C
:1035A000402700203F270020922700201C270020D2
:1035B00067666666F0B583B0FFF7A0FD164A174C44
:1035C000174E002306271046012519462370D77091
:1035D0003570FFF723FB044608B103B0F0BD114B73
:1035E0001B783BB90820104B1B6803B1984700209B
:1035F00003B0F0BD0D4B01A81E78FCF76FFF019BD7
:103600001BB10B4B20461D70E7E73046FFF778FDF6
:103610000028ECD0E7E700BFD026002008270020D4
:103620003F270020942700204027002092270020D9
:103630001C27002075DF704776DF70477ADF704700
:103640007BDF7047184B18884FF6FF7398422AD0DB
:1036500010B5164A164C1378217B0133DBB2994220
:1036600082B013700CD2237C002111708BB9636976
:1036700023B102A8002200F8042D984702B010BD23
:103680000C49FFF7D7FF0028F8D0A369002BF4D12D
:10369000F4E73B21FFF7D0FF0028E8D0A369002B17
:1036A000E5D09847E3E77047F0270020B0270020D7
:1036B000B4270020F427002070B51E4B1E4A5B88FB
:1036C0001188994282B00FD852889A420CD31B4B72
:1036D0005B6923B102A8012200F8042D9847184C19
:1036E0000023237002B070BD154C227862B1134BD9
:1036F0005B69002BF4D002A8002200F8042D984743
:103700000023237002B070BD0C4D0E486968067826
:10371000AB680D48002E18BF1946FCF7EBFC0028DB
:10372000DED0AB69002BDBD098470023237002B0BA
:1037300070BD00BFA8270020F4270020B427002078
:10374000A5270020B0270020D0270020F8B5054687
:103750000FCD144C144F0FC4064695E80700002304
:1037600084E807003B70B6B13068104B716803C342
:10377000A3F10800FFF762FF90B90D4D0D4C0E4A02
:103780000E4800234FF6FF762E8023701946BDE8C1
:10379000F840FCF79DBC0548FFF752FF0028ECD02D
:1037A000F8BD00BFB4270020A5270020F427002083
:1037B000F0270020B0270020453602000C50020000
:1037C00070B50388112B27D012D9122B07D0502B9C
:1037D00047D1244CC288E3899A4230D070BD08306A
:1037E00003C8214B83E80300BDE87040FFF764BFC6
:1037F000102B35D11D491B4C1B4B1D4DE48900F18D
:1038000010028088088092E80300002283E8030009
:103810002A70002CE8D070BD1449154B15484FF69E
:10382000FF7400220C801A70FCF7BCFC0028D5D075
:103830000C4B9B69002BD1D0BDE870401847038A20
:10384000022BCBD1123000F017F80028CCD1094858
:10385000FCF7A8FC0028C1D0A369002BECD1BDE780
:1038600070BD70BDB4270020A8270020F0270020DD
:10387000B0270020D0270020007800F0010070471A
:103880000649074A074B9B1A03DD043BC858D05032
:10389000FBDC00F013F8FBF7E1FD0000C050020074
:1038A00028210020AC210020FEE7FEE7FEE7FEE72E
:1038B000FEE7FEE7FEE7FEE7FEE7FEE7F0B4984B23
:1038C0001B78062B1BD0974AD2F8883043F470033C
:1038D000C2F88830BFF34F8FBFF36F8F4FF01023C4
:1038E000D3F80022002AC0F2E980D3F80432002B7A
:1038F000C0F2E4808C4B8D4A1A60F0BC70478C4B50
:103900001B681D07DFD18B4B1B6803F0F003302BC6
:1039100002D1894B894A1A60864B1B6803F0F0027A
:10392000302A00F0BA8003F0E003402B00F0B580AD
:10393000804B1B6803F0F003302B00F09E807D4B22
:103940001B6803F0F002302A00F0838003F0E003EC
:10395000402B7ED0774B1B6803F0F003302B6AD0EE
:10396000744B1B6803F0F003302B4DD0714B1B6878
:1039700003F0F003502BA6D14FF08052704BD2F8D9
:103980000414C3F82015D2F80814C3F82415D2F88B
:103990000C14C3F82815D2F81014C3F82C15D2F85B
:1039A0001414C3F83015D2F81814C3F83415D2F82B
:1039B0001C14C3F84015D2F82014C3F84415D2F8EB
:1039C0002414C3F84815D2F82814C3F84C15D2F8BB
:1039D0002C14C3F85015D2F83014C3F85415D2F88B
:1039E0003414C3F86015D2F83814C3F86415D2F84B
:1039F0003C14C3F86815D2F84014C3F86C15D2F81B
:103A00004424C3F870255EE7454B4E491B784E4D64
:103A10004E484F4A05270F60012600243F21062B00
:103A20002E60046011607FF44EAF414B1B681B0792
:103A30007FF449AF9AE73A4B464A1B780321062B9D
:103A400011607FF440AF3A4B1B681A077FF43BAF1D
:103A500086E7334B1B784FF080420021062BC2F8DB
:103A60000C11C2F81011C2F838157FF42CAF304B8E
:103A70001B6819077FF427AF6CE7374A2849D368DA
:103A8000097823F080730629D3607FF41CAF284B9C
:103A90001B6818077FF417AF51E7304A204B1268B4
:103AA0001B782F49C2F34232062B0A607FF40BAF1A
:103AB0001F4B1B681C077FF406AF39E7294B012217
:103AC000C3F80425D3F80024002AFBD04FF01023BC
:103AD00015222449C3F80022D1F80034002BFBD072
:103AE0004FF0102315221F49C3F80422D1F80024F7
:103AF0001C4B002AFAD00022C3F80425D3F8002476
:103B0000002AFBD0BFF34F8F0649174BCA6802F457
:103B1000E0621343CB60BFF34F8F00BFFDE700BFF0
:103B2000E00F00F000ED00E09C2100200090D003A9
:103B3000E40F00F0E80F00F074C007400DF0ADBADC
:103B400000C0004010560040885600401856004003
:103B500014560040A0050040F0ED00E044020010C3
:103B60003C05004000E001400400FA05A0DF70477A
:103B7000A2DF7047A6DF704763DF704748B141B1ED
:103B80000B88112B13D0502B04D0102B04BF8B8823
:103B900083827047CB88028A9A420CD082889A42EC
:103BA000F7D18369002BF4D00A8A123118474FF6F7
:103BB000FF73838270470A8A022AEFD110B5044648
:103BC00008461230FFF758FE10B10123A37510BD4F
:103BD000A07510BD2DE9F047794B94B09A68064660
:103BE0000D4618685968DB6804AC0FC48EB185B106
:103BF0004FF6FF73B3822B68B361002304A8B3753B
:103C00003146FFF7B9FF48B10446204614B0BDE87D
:103C1000F0870E24204614B0BDE8F087324614A980
:103C2000012512F8023B21F8485D28468DF80A303C
:103C3000FFF79CFF04460028ECD12146032268468A
:103C4000FBF780FC9DF800709DF801309DF802E0C4
:103C500065F3030765F3030365F3071365F3420E8A
:103C6000214665F307171C220DA88DF800708DF80A
:103C700001308DF802E0B046FBF764FC9DF834306B
:103C800018F80CEB0E944FF0030A43F01003214692
:103C9000524601A81094119413948DF834308DF885
:103CA0000EE0CDF848D0ADF80CA0FBF74BFC9DF82A
:103CB00006209DF804E09DF8053065F3420264F3A8
:103CC000C30264F30412D2B242EA050165F3030EA3
:103CD00065F3030365F3071E65F3071314228DF8DC
:103CE000061008A821468DF804E08DF805304FF045
:103CF0001409FBF727FC01AFADF82A40434603AC9B
:103D000008AA0DA9708808940997ADF82850ADF855
:103D10002C90FFF72DFF044600287FF47BAF01466F
:103D2000B0461C220DA8FBF70DFC9DF8343018F8A6
:103D3000040B8DF80E0043F00C0321465246022777
:103D400001A80E9410941194129413948DF83430A9
:103D5000ADF80C70FBF7F6FB9DF806209DF804000B
:103D60009DF8057065F3420264F3C30264F3041224
:103D700065F30300D2B265F3071065F3030742EA67
:103D8000050321464A468DF8040065F3071708A885
:103D90008DF806308DF80570FBF7D4FB7088ADF810
:103DA0002A4003AE0896434608AA0DA901AE09961B
:103DB000ADF82850ADF82C90FFF7DAFE044629E75D
:103DC0001050020070B586B0ADF8062048B1828A66
:103DD0004FF6FF739A4201D0837D2BB9082006B0BD
:103DE00070BD0E2006B070BDBDF80630142B02D990
:103DF000072006B070BD04460D4602A8102200211F
:103E0000FBF7A0FBA689A08A05950DF10602012308
:103E100002A9ADF8086004928DF80A30FFF7AAFEF7
:103E2000DDE700BF48DF704710DF704760DF704795
:103E300061DF7047FBF790BC2DE9F047DFF8B090E9
:103E4000284ED9F80040DFF8AC80274FB4FA84F44C
:103E500082B064090025B5B93378DFF888A07BB952
:103E600001A8FFF7DFFF052834D020B3FBF764FC7F
:103E70006CB13378DFF86CA001240025002BEFD063
:103E800002B0BDE8F087002CFAD1DFF858A09AF80C
:103E90000030002BF4D102A93A68B8F8003021F8BC
:103EA000043D1046FFF7C4FF052817D068B1FBF7A3
:103EB00043FC0024CFE70198FCF76EFB0B4B1B681B
:103EC000002BD5D001989847D2E71046D9F800309A
:103ED0009847EEE7002CD3D10125D8E7002DC8D0B4
:103EE000CEE700BFFC270020002800200428002087
:103EF00008280020FE270020014B1878704700BFDB
:103F0000FD27002011B111F0030F01D007207047E9
:103F1000F8B51A4F1A4E1B4D1B4C396032802B607E
:103F20002368DB0708D50123C4F880301749FFF761
:103F30007BFF30B12360F8BD1449FFF775FF00B176
:103F4000F8BD134B01221A70FCF736FB0E4A92F8AB
:103F50001633C3F34113012B0CD90E4B986818B9D3
:103F60004FF480031360F8BD1A6842F480021A60AF
:103F70000020F8BD42F20200F8BD00BF002800207A
:103F8000FE2700200C28002000E100E0353E020062
:103F9000FD2700201C280020034618B1024A0020FB
:103FA000136070470E2070470828002008B5094BA1
:103FB0001B6833B1984700B908BDBDE80840FBF75E
:103FC000BBBB054B1B78002BF6D0BDE80840FFF7C4
:103FD00033BF00BF0C280020FD27002070B5144619
:103FE00005460E46104600211C22FBF7ABFA227D47
:103FF0002672002363F30002012165722275A3611A
:10400000218005B1A172002070BD00BF00B583B052
:10401000054B019302A9019B41F8083DFFF706FFFC
:10402000019B03B05DF804FB2821002010B5431E5E
:104030000A44914204D011F8014B03F8014FF8E70C
:1040400010BD00000FB40A4B13B51C6824B1A3695E
:1040500013B9204600F056F805AB049AA168019305
:10406000204600F061F902B0BDE8104004B070478E
:1040700088210020034613F8012B002AFBD1181ACF
:1040800001387047014900F0A9B800BF194C02007F
:10409000002310B50446036043608360818143665A
:1040A000C281036143618361194608225C30FBF7DA
:1040B00049FA054B6362054BA362054BE362054B6E
:1040C0002462236310BD00BFB9480200DB48020030
:1040D000134902003749020070B568234D1E5D4345
:1040E0000E4605F1740100F097F8044640B1002136
:1040F00080E842000C30A06005F16802FBF722FA6C
:10410000204670BD836910B5044633BB8364C36425
:104110000365124B124A1B688262984204BF012356
:10412000836100F01FF86060204600F01BF8A0607B
:10413000204600F017F80022E06004216068FFF7D5
:10414000A7FF01220921A068FFF7A2FF0222122186
:10415000E068FFF79DFF0123A36110BD704F0200CF
:1041600085400200F8B51C4B1E68B369074613B9B9
:104170003046FFF7C7FF4836B4687368013B04D484
:10418000B4F90C507DB16834F8E733680BB1366888
:10419000F2E704213846FFF79FFF30600028F6D190
:1041A0000C233B60F8BD4FF6FF73E3810123A3812D
:1041B00065662560A560656025616561A561082269
:1041C000294604F15C00FBF7BDF96563A563A564AE
:1041D000E5642046F8BD00BF704F02002DE9F843AA
:1041E0008046894600F14804002694B1A5686768B6
:1041F000013F0CD4AB89012B07D9B5F90E3001333F
:1042000003D029464046C84706436835F0E724688E
:10421000EBE73046BDE8F88370B5CD1C25F003050B
:1042200008350C2D38BF0C25002D064601DBA942B0
:1042300002D90C23336046E000F0DAFD234B1C6802
:104240001A462146A1B10B685B1B0ED40B2B03D978
:104250000B60CC18CD501EE08C420DBF63684B68DC
:104260006360136018BF0C4615E00C464968E9E727
:10427000174C23681BB9304600F00EFB206029461E
:10428000304600F009FB431C18D0C41C24F0030482
:10429000A0420DD12560304600F0ABFD04F10B00CB
:1042A000231D20F00700C31A0ED05A42E25070BD01
:1042B000211A304600F0F0FA0130EBD10C233360C4
:1042C000304600F096FD002070BD00BF142800208D
:1042D000102800209368013B002B10B4936009DA8A
:1042E0009469A34202DBCBB20A2B03D15DF8044BE5
:1042F00000F026BB1368581C10601970C8B25DF836
:10430000044B7047F8B506460F461446D518AC4224
:1043100008D03A4614F8011B3046FFF7DBFF431C78
:10432000F5D100E00020F8BD2DE9F04F9DB00C461E
:1043300017460393064618B183690BB9FFF7E2FEEF
:104340007F4B9C4201D1746808E07E4B9C4201D1B6
:10435000B46803E07C4B9C4208BFF468A38918074B
:104360000CD5236953B10023099320238DF82930FC
:1043700030238DF82A30DFF8D4B144E021463046AE
:1043800000F044FB0028EED04FF0FF30D5E0039A58
:10439000111D12680391002A80F28C80524243F072
:1043A00002000792049098F800302E2B00F08480D1
:1043B000032298F80010654800F0CAFC48B1402379
:1043C000CBEB000003FA00F0049B1843049008F1C3
:1043D000010898F800105E488DF82810062208F1B0
:1043E000010700F0B5FC002800F09580594B002B28
:1043F00040F08880039B073323F0070308330393BF
:10440000099B53440993B846454615F8013B1BB92F
:10441000B8EB07090FD003E0252BF9D0A846F3E746
:104420004B463A4621463046FFF76CFF01307FD0BD
:10443000099B4B44099398F80030002B78D0002357
:104440004FF0FF3204930793059206938DF8533093
:104450001A930127052229783F4800F079FC05F1DD
:104460000108049B38B13C4A801A07FA00F018434F
:1044700004904546EEE7D90644BF20228DF853202C
:104480001A0744BF2B228DF853202A782A2A3FF49A
:104490007EAF079A00210A20A846013598F800301F
:1044A000303B092B03D800FB02320121F4E700293D
:1044B0003FF479AF079276E798F801302A2B0BD1B9
:1044C000039B1A1D1B680392002BB8BF4FF0FF33EC
:1044D00008F1020805936BE70023059308F101003A
:1044E00019460A258046013098F80020303A092AFA
:1044F00003D805FB01210123F4E7002B3FF458AF5B
:10450000059155E703AB00932246144B04A93046AE
:10451000AFF3008007E003AB009322460F4B04A9E2
:10452000304600F093F8B0F1FF3F82467FF468AF69
:10453000A3895B063FF528AF09981DB0BDE8F08F51
:1045400020500200405002006050020086500200DD
:104550008A50020000000000805002000543020063
:104560002DE9F04791461F460A698B68DDF82080E7
:104570009342B8BF1346C9F8003091F8432006466D
:104580000C4612B10133C9F800302368990642BFC6
:10459000D9F800300233C9F80030256815F0060557
:1045A00010D104F1190A07E001235246394630467A
:1045B000C04701301AD00135E368D9F800209B1AB2
:1045C0009D42F1DB94F843302268003318BF012389
:1045D00092060FD5E1185A1C302081F8430022447E
:1045E00094F8451082F84310023303E04FF0FF3097
:1045F000BDE8F08704F1430239463046C047013038
:10460000F4D02268D9F80050E36802F00602042AC8
:1046100008BF5D1B2269A3680CBF25EAE57500256C
:104620009342C4BF9B1AED184FF000091A344D4550
:1046300009D00123224639463046C0470130D5D043
:1046400009F10109F3E70020BDE8F0872DE9F04307
:1046500017460A7E85B06E2A984606460C460C9B85
:1046600001F1430E00F0AE8011D8632A22D009D8A0
:10467000002A00F0BB80582A40F0CA8081F845200B
:10468000834955E0642A1ED0692A1CD0C0E0732AF1
:1046900000F0B08009D86F2A2ED0702A40F0B88080
:1046A0000A6842F020020A603EE0752A24D0782A87
:1046B0003AD0ADE01A6801F14205111D1960136886
:1046C00084F84230A8E021681A6811F0800F02D007
:1046D000111D196008E011F0400F02F1040119608A
:1046E00002D0B2F9003000E01368002B3CDA2D2232
:1046F0005B4284F8432037E021681A6811F0800F8C
:1047000002D0111D196007E011F0400F02F1040101
:10471000196001D0138800E01368227E5C496F2A7B
:1047200014BF0A2208221BE078225A4984F8452047
:104730002268186812F0800F00F104051D6003D193
:10474000550601D5038800E00368D00744BF42F056
:10475000200222601BB9226822F02002226010226F
:10476000002084F8430001E049490A226568A560F9
:10477000002D08DB206820F0040020602BB9002DFC
:104780007DD175460CE0002B79D07546B3FBF2F075
:1047900002FB1033CB5C05F8013D03460028F5D140
:1047A000082A0BD12368DA0708D5236962689A4280
:1047B000DEBF302305F8013C05F1FF35C5EB0E03E4
:1047C00023612EE008681A68496910F0800F03D051
:1047D000101D1860136808E010F0400F02F104008B
:1047E0001860136801D0198000E01960002323616C
:1047F000754616E01A68111D196015686268002177
:10480000284600F0A5FA08B1401B6060636804E028
:1048100004F1420584F8422001232361002384F837
:104820004330CDF800803B4603AA21463046FFF7CF
:1048300097FE013002D14FF0FF3026E023692A466F
:1048400039463046C0470130F5D023689B0710D564
:10485000002504F1190907E001234A46394630468C
:10486000C0470130E7D00135E368039A9B1A9D42A7
:10487000F2DBE068039B9842B8BF184605E00B786E
:1048800084F8423004F142058AE705B0BDE8F083C0
:1048900091500200A250020038B5064C0023054694
:1048A0000846236000F048FB431C02D1236803B193
:1048B0002B6038BD2828002010B50C46B1F90E1029
:1048C00000F0E6FA0028ABBF636DA3891B1823F440
:1048D0008053ACBF6365A38110BD2DE9F0411F4635
:1048E0008B89DB0505460C46164605D502230022BA
:1048F000B1F90E1000F0BAF9A389B4F90E1023F43F
:104900008053A38132463B462846BDE8F04100F083
:104910006BB810B50C46B1F90E1000F0A7F9431CA6
:10492000A38915BF606523F4805343F48053A381AA
:1049300018BFA38110BDB1F90E1000F0D5B800006A
:10494000F8B50F461446064618B183690BB9FFF750
:10495000D9FB224B9C4201D1746808E0204B9C4259
:1049600001D1B46803E01F4B9C4208BFF468A369FF
:10497000A360A3891A0709D523693BB1236820697D
:10498000181A63699842FDB20FDB08E021463046F1
:1049900000F03CF80028F1D04FF0FF30F8BD214680
:1049A000304600F039F90028F6D1A368013BA36036
:1049B00023685A1C22601F706269431C934204D012
:1049C000A389DB0707D50A2D05D12146304600F023
:1049D00023F90028E0D12846F8BD00BF205002008E
:1049E000405002006050020038B5074C05460846AA
:1049F0001146002222601A46FBF77AFD431C02D1C1
:104A0000236803B12B6038BD28280020324B70B5D5
:104A10001D6806460C4625B1AB6913B92846FFF759
:104A200071FB2E4B9C4201D16C6808E02C4B9C42E0
:104A300001D1AC6803E02B4B9C4208BFEC68B4F991
:104A40000C309AB215071DD4D00602D40922326068
:104A50003AE0510712D5616B41B104F14403994228
:104A600002D0304600F0C6F900236363A38923F027
:104A70002403A3810023636023692360A38943F097
:104A80000803A38123694BB9A38903F42073B3F509
:104A9000007F03D02146304600F01EF9A28912F0B3
:104AA000010305D00023A36063695B42A36103E0B7
:104AB000920758BF6369A36023695BB9B4F90C30EE
:104AC00003F0800080B230B143F04003A3814FF087
:104AD000FF3070BD002070BD8821002020500200F2
:104AE000405002006050020038B5064C00230546D5
:104AF0000846236000F000FA431C02D1236803B18A
:104B00002B6038BD282800208A892DE9F041054610
:104B100010070C4659D44B68002B02DC0B6C002BA1
:104B200017DDE66AAEB102F48052002392B22F681C
:104B30002B600AB1606D15E0216A01232846B04759
:104B4000411C0FD12B686BB11D2B01D0162B03D14B
:104B50002F600020BDE8F081A38943F04003A381CA
:104B6000BDE8F081A3895A0705D56368C01A636B55
:104B70000BB1236CC01A00230246E66A216A28465C
:104B8000B047431CA38906D129681D293AD8214A78
:104B9000CA40D60736D500226260D9042269226055
:104BA00004D5421C01D12B6803B96065616B2F608D
:104BB0000029CED004F14403994202D0284600F0E7
:104BC00019F900206063BDE8F0810F69002FC0D0A3
:104BD00093070E6808BF4B690F6018BF0023C7EB2F
:104BE00006088B6002E00744C0EB0808B8F1000F2C
:104BF000AFDD43463A46216AA66A2846B0470028F8
:104C0000F1DCA38943F04003A3814FF0FF30BDE8FE
:104C1000F08100BF0100402038B50B6905460C4605
:104C2000DBB118B183690BB9FFF76CFA0C4B9C42EE
:104C300001D16C6808E00B4B9C4201D1AC6803E0E9
:104C4000094B9C4208BFEC68B4F90C302BB12146EB
:104C50002846BDE83840FFF757BF002038BD00BFE9
:104C600020500200405002006050020038B5074C4E
:104C7000054608461146002222601A4600F054F903
:104C8000431C02D1236803B12B6038BD28280020C3
:104C900070B50E46B1F90E10002990B014461D46AD
:104CA00006DA00232B60B3891A060ED540230EE0E6
:104CB00001AA00F0FFF80028F3DB029A02F4704228
:104CC000A2F500535A425A412A604FF480630020F3
:104CD000236010B070BD00008B8973B59E07054638
:104CE0000C4610D401AB6A46FFF7D2FF0099064686
:104CF0002846FFF791FA68B9B4F90C309A0522D426
:104D000043F00203A38104F14703236023610123DD
:104D1000636118E00D4BAB62A389206043F0800310
:104D2000A381009B6361019B20614BB1B4F90E101C
:104D3000284600F0D1F818B1A38943F00103A381FC
:104D4000A0893043A08102B070BD00BF8540020041
:104D500001F0FF01102A2BDB10F0070F08D010F82C
:104D6000013B013A8B422DD010F0070F42B3F6D130
:104D7000F0B441EA012141EA014122F007047FF049
:104D800000070023F0E80256083C85EA010586EAA0
:104D9000010685FA47F5A3FA87F586FA47F6A5FADC
:104DA00087F68EB9EED1F0BC01F0FF0102F00702E8
