:020000021000EC
:10F0000000000120450F02006D0F02006F0F02008B
:10F01000710F0200730F0200750F02000000000064
:10F02000000000000000000000000000770F020058
:10F03000790F0200000000007B0F02007D0F02002C
:10F04000190A02007F0F02007F0F02007F0F0200EB
:10F050007F0F02007F0F02007F0F02007F0F020070
:10F060007F0F02007F0F02007F0F02007F0F020060
:10F070007F0F02007F0F02007F0F02007F0F020050
:10F080007F0F0200FDFF01007F0F02007F0F0200D3
:10F09000C10002007F0F0200051302007F0F020073
:10F0A0007F0F02007F0F02007F0F02007F0F020020
:10F0B0007F0F02007F0F0200000000000000000030
:10F0C0007F0F02007F0F02007F0F02007F0F020000
:10F0D0007F0F02007F0F02007F0F02000000000080
:10F0E0000000000000000000000000000000000020
:10F0F0000000000000000000000000000000000010
:10F1000000000000000000000000000000000000FF
:10F1100000000000000000000000000000000000EF
:10F4000010B5054C237833B9044B13B10448AFF35E
:10F4100000800123237010BD68140020000000004C
:10F42000101E0200084B10B51BB108490848AFF385
:10F4300000800848036803B910BD074B002BFBD0C0
:10F44000BDE81040184700BF000000006C14002009
:10F45000101E02006414002000000000154B002B59
:10F4600008BF134B9D46A3F5803A00218B460F46FB
:10F470001348144A121A00F065F80F4B002B00D005
:10F4800098470E4B002B00D0984700200021040025
:10F490000D000D48002802D00C48AFF3008000F0AA
:10F4A0002BF82000290001F05BFB00F011F800BFF1
:10F4B0000000080000000120000000000000000023
:10F4C00068140020301F0020000000000000000031
:10F4D00008B5074B044613B10021AFF30080054B7C
:10F4E0001868836A03B19847204600F033F800BFDC
:10F4F000000000007C1C020070B50E4B0E4CE41A9C
:10F50000A41000251E46A54204D056F82530984781
:10F510000135F8E702F0A4FB084C094BE41AA410EB
:10F5200000251E46A54204D056F8253098470135DF
:10F53000F8E770BD5C1400205C140020601400200B
:10F540005C14002002440346934202D003F8011BDE
:10F55000FAE77047FEE700BF2DE9F04FC7B0174646
:10F560001C46DDF844A10D46002900F01A81002B4D
:10F5700000F0F0800A23019300231A4606AE539B45
:10F5800020250AEB030B9146019809EB0003029337
:10F590003133F71806EB0903002861D05A4202F014
:10F5A0000302824228BF0246062800F2CA800246B1
:10F5B000012A06F8095003F1010100F0C080022A77
:10F5C0005D7003F1020100F0BA80032A9D7003F11F
:10F5D000030100F0B480042ADD7003F1040100F09F
:10F5E000AE80062A1D7103F1050140F0B0805D7107
:10F5F000991D96460198904230D0801A03900438A5
:10F600004FEA9008019800F1FF3CC2EB0C0C08F1A6
:10F610000100BCF1020F4FEA800813D94A444FF0B1
:10F62000203C012806EB020946F802C005D002285A
:10F63000C9F804C001D0C9F808C0039A90454144F4
:10F64000C6440BD001980D700EF10102824205D222
:10F650000EF1020E86454D7000D28D70019A134452
:10F66000DA1C781C03F1330CDDF848810CE002F859
:10F67000035C02F8025C02F8015C0332624500F8A8
:10F68000015C00F1010034D0A345F0D9A24588BF48
:10F69000509902F8015C96BFCAEB0401095D18F8A5
:10F6A00001104FEA211E5FFA8EF9BEF1090F01F039
:10F6B0000F0ED4BF09F1300909F13709BEF1090F66
:10F6C00002F8039C94BF0EF1300E0EF1370EA1F13B
:10F6D000200902F802ECB9F15E0F02F1030288BFC3
:10F6E0002E21624500F8011C04F1010400F1010023
:10F6F000CAD102990D2201F143094FF00A083A7468
:10F7000087F81180002783F830504B46B9461F46D2
:10F710003A4606EB0901002001F0F2FA81443F1A53
:10F7200010B9B8F1010801D0002FF1D15C454FF0BC
:10F730000009FFF429AF204647B0BDE8F08F964698
:10F7400058E7002A7FF434AF1946964655E74FF044
:10F75000050E4FE7174B93E8030006AE04908DF8B3
:10F760001410042204A9304601F0E4FD2A6812496D
:10F7700007A801F0EBFD0028DDDB0A23051D01933E
:10F78000384601F00FFEC22828BFC220024680463C
:10F790003946701901F0CEFD08EB050300241A4626
:10F7A000EDE61BB90194254606AEE9E701910A464C
:10F7B00006AEE4E6881C0200801C02002DE9F04140
:10F7C0009046C6B01F4611B3524B0C4693E8030057
:10F7D00006AE04908DF81410042204A9304601F0FE
:10F7E000A9FD22684C4907A801F0B0FD00280ADBFA
:10F7F0004C9B051D062B00F28B80DFE803F03C4C90
:10F80000555F6B791300002046B0BDE8F0814C9B3A
:10F81000062B7BD8DFE803F02E3D46505C6A0400DF
:10F82000002506AE7869396997E80C000390FC68FA
:10F83000BF680097029101944146701901F086FD5E
:10F840000446002CDFDB2C44B4F5807FDBD80A278C
:10F85000002506AE22467119002001F051FA054438
:10F86000241A08B9013F01D0002CF3D1012046B081
:10F87000BDE8F0810025404601F094FD4319FF2BBF
:10F880000446DED806AE41467019224601F052FD0C
:10F89000D7E7002506AE3A684146701901F056FDDB
:10F8A0000446CEE7002506AE4146701997E80C00E5
:10F8B00001F04CFD0446C4E7002506AEB96897E8A0
:10F8C0000C0070190091414601F040FD0446B8E774
:10F8D000002506AEF968BC6897E80C007019019124
:10F8E0000094414601F032FD0446AAE7002506AE29
:10F8F0003969FC6897E80C00BF6800970291019491
:10F900004146701901F022FD04469AE700249EE763
:10F91000002498E7881C0200801C020070B50F4D7F
:10F920002B7882B01BB10E4B1B78834212D001267C
:10F93000044600964FF480730A4A0B49002001F0F8
:10F940009DFA10B1082002B070BD054B2E701C70DE
:10F9500002B070BD002002B070BD00BF8515002050
:10F960008415002084140020901C02000048704779
:10F97000BDF701000048704759F50100C8B170B5E6
:10F9800005460020FFF7CAFF044600B170BDFFF72F
:10F99000EDFF0646FFF7EEFF074BFF22C3F8140406
:10F9A000C3F810641C605C60C3F80C549A60204675
:10F9B00070BD0720704700BF881500200120FFF7A9
:10F9C000ADBF00BF2DE9F04F384C85B08346A66827
:10F9D000D4F800A001F0E6FC074604A84FF00009A7
:10F9E00000F8019D00F07AFF2068A56807F104087F
:10F9F0004FEA980825EA000108F1010E01F1010C17
:10FA0000E64507F1010725D8616829440EEB00029D
:10FA1000431C01311D40891A04EB8505012905F1BC
:10FA20000C0522603CD99DF80F0000F07FFF06EA2C
:10FA30000A06002304EB860469F38F1368F39F53CF
:10FA40003A4659462846E36001F074FC284605B062
:10FA5000BDE8F08F636805EA0302964513D2421EA3
:10FA600062442B44724401339B1A012B226017D944
:10FA70009DF80F00019100F059FF019904F10C0568
:10FA8000C1F30909D3E72B4401331B1A012B07D912
:10FA90009DF80F0000F04AFF484605B0BDE8F08F22
:10FAA0009DF80F0000F042FF0020D0E788150020ED
:10FAB0002DE9F04383B002AB4FF0000903F8019D3C
:10FAC0002C4C804618460F46A568266800F006FFB5
:10FAD00094E80C00A1680B4401339B1A032B26D831
:10FAE000012B1DD901204B4660F3010369F382030A
:10FAF000052060F3C503204DD4F80C6401EA020030
:10FB000004EB800069F3891365F39F23951C25603E
:10FB10000132C36002EA0105B04704EB8501C86009
:10FB20009DF8070000F002FF03B0BDE8F083023249
:10FB30009DF80700226000F0F9FE0122002362F325
:10FB4000010369F3820305EA060268F3C50304EBC7
:10FB5000820269F3891367F39F23D3600136D4F8D7
:10FB60000C343540984704EB8504E06003B0BDE8F1
:10FB7000F08300BF88150020981C02002DE9F04793
:10FB800082B002AB4FF0000A03F801AD304C814661
:10FB9000184688461746A568266800F09FFE94E838
:10FBA0000C00A1680B4401339B1A042B26D8012BAF
:10FBB0001DD90120534660F301036AF38203052037
:10FBC00060F3C503234DD4F80C6401EA020004EB92
:10FBD00080006AF3891365F39F23951C2560013229
:10FBE000C36002EA0105B04704EB8501C8609DF8D7
:10FBF000070000F09BFE02B0BDE8F08703329DF8DD
:10FC00000700226000F092FE0121002361F301034E
:10FC10006AF3820305EA060269F3C50304EB820274
:10FC200061F3891368F39F23D36006EB0108D4F8CE
:10FC30000C340236984708EA0508354004EB88087A
:10FC400004EB8504C8F80C00E76002B0BDE8F0875B
:10FC500088150020981C02002DE9F04F83B002ADFA
:10FC6000002705F8017D344C834628468A46914694
:10FC70009846A568266800F031FE94E80C00A1685B
:10FC80000B4401339B1A052B26D8012B1DD90120CB
:10FC90003B4660F3010367F38203052060F3C5036D
:10FCA000264DD4F80C6401EA020004EB800067F3EF
:10FCB000891365F39F23951C25600132C36002EA16
:10FCC0000105B04704EB8501C8609DF8070000F00E
:10FCD0002DFE03B0BDE8F08F04329DF807002260CE
:10FCE00000F024FE0122002362F3010367F3820384
:10FCF000022105EA06026BF3C50304EB820261F3FD
:10FD000089136AF39F23D360D4F80C349847771C87
:10FD1000B31C03362F402B40354004EB870704EB20
:10FD2000830304EB8504F860C3F80C90C4F80C80DE
:10FD300003B0BDE8F08F00BF88150020981C0200BA
:10FD40002DE9F04F85B004AE002506F8015D444C66
:10FD5000019198468346033330464FEAA30A914601
:10FD60002768A66800F0BAFD94E80A00A06803447A
:10FD700001335B1A0AF1050E734501F1020C26D21C
:10FD8000012B1DD901222B4662F3010365F3820387
:10FD9000052262F3C503334EC4F800C000EA010235
:10FDA00065F3891304EB820266F39F230131D3606C
:10FDB000D4F80C3401EA0005984704EB8501C860CB
:10FDC0009DF80F0000F0B2FD05B0BDE8F08F0AF11C
:10FDD000010262449DF80F00226000F0A7FD02239B
:10FDE00063F3010507EA06036BF3C50504EB830320
:10FDF00068F39F55DD60D4F80C349847A568019AE4
:10FE000007F1010BFB1C33400BEA060B02370135EF
:10FE10003E4004EB8B0BED1A04EB8606AD00CBF8ED
:10FE20000C00454504EB8300F26000F10C0006D3A2
:10FE30004246494601F07EFA05B0BDE8F08F2A46F9
:10FE4000494601F077FAC5EB080292B209EB0501C9
:10FE500004F10C0001F06EFA05B0BDE8F08F00BFB0
:10FE600088150020981C02002DE9F047534E96E8B3
:10FE70000C009A428AB07FD0D6F808C004E0C4F3E0
:10FE8000891202EB945213440CEA0305023506EB87
:10FE9000850201335468E2B212F00300EFD052073A
:10FEA0005DBF03EA0C0106EB81010C310021022841
:10FEB00003F101072CD0C4F38312C4F395290DF18B
:10FEC000100A8AB1501C0DF1100A1844D0463D4664
:10FED0000CEA050E06EB8E0E0135DEF80C3048F804
:10FEE000043B8542F4D117440092C4F3C200534648
:10FEF0004A46D6F81044314DA04738B17760306893
:10FF0000C01B18BF01200AB0BDE8F0876F68F6E794
:10FF100003F102082CEA08000CEA0707013006EB9F
:10FF2000870780004FEA94598145FA68234FC4F34C
:10FF3000891325D9002836D00CEA080E5FFA80FA1A
:10FF400007EB8E0ECAEB09000EF10C0E0C37C0B297
:10FF500003900297CDF804A0CDF800E0D6F8147411
:10FF6000C4F3C200B847484523D006EB850560F3CB
:10FF70008F146C607768C2E700200AB0BDE8F08794
:10FF80000CEA080E07EB8E0E0EF10C0E0020CDF8D9
:10FF900000E0CDF80490D7F8147403900290C4F3F5
:10FFA000C200B847DFE707F10C0E5FFA89FA07468F
:10FFB000CEE7033008EB9007A0E700BF88150020CC
:10FFC00000B585B000230390194601AA44F2010050
:10FFD000ADF80430029300F003F805B05DF804FBBF
:10FFE00008B505490120FFF763FDFFF7E7FCFFF7C0
:10FFF0003BFF0028FBD1FFDEAC1C02002DE9F843DB
:020000022000DC
:10000000274A284B0025C2F84051C2F84451C2F893
:100010004851C2F84C51C2F80051C2F804511B6853
:100020001BB32149D2F804250C68204F141B1A6811
:1000300024F07F44A242A84609D8197CDE69A41A9C
:100040001544A1B91EB133461A68A242F5D9184B1E
:1000500018491A780B789A421BD01749174A41F869
:1000600023504FF48013C2F80031BDE8F883D3F871
:10007000149083F810803A689B69484619462AB163
:1000800090470028DED0FFF79BFFDBE71846C84704
:10009000D8E7531CDBB2022B08BF00230B70DCE750
:1000A00000100140A4190020A0190020A819002068
:1000B000AC190020AD190020B819002000E100E0C3
:1000C0002DE9F04FA24BA3491A785E7893F802E02D
:1000D0000878A14CB24285BF0EEB06030133B31A78
:1000E0009B1ADBB2984238BF0B709C489C49007841
:1000F0000B7824688BB09842019400F08F80013314
:10010000DBB2022B08BF00230B709649964851F8CA
:1001100023C0019B90490690634423F07F43B24281
:10012000D0F800B00B6000F02882012302938F4BBF
:10013000874907931B78486803938749069B09689A
:100140001B6808914FF00008CDF81080C146414669
:100150005D4602EB4204013210F83470D2B296458B
:1001600008BF0022022F00EBC40430D0032F3BD184
:100170002C460DB938E01C46E3692174002BFAD1F6
:100180009A464FF0010996425546E2D1CDF814A0A7
:10019000B9F1000F40F03082049B13B16E4B089A06
:1001A0001A60B8F1000F04D0079B1A469DF80C3076
:1001B0001370029B002B40F0E481059A0196BBEB83
:1001C000020218BF012208921D46059E39E0D4F8AC
:1001D00004A04DB1AA452C4603D115E0BA4505D07F
:1001E0003C46E769002FF9D1AA46CCE7A742009721
:1001F0000BD0AA46FD693F68E561002DC3D02C688D
:100200003C442C609A46BEE70095EB69002B00F059
:10021000A1819A464FF00109009FEBE7524B0693EC
:10022000B242D3F800B004D04FF0000CCDF808C0B3
:100230007DE700254D4B0192CDF814B0089507934A
:100240005E46454BDFF82891D3F800C0069BD3F8F3
:1002500000A03F4B5B6802933D4B9B7803933C4B64
:1002600093F800E0079B4FF0000B1B780993CDF843
:1002700000B05F464FF0010835B36A68A9682C46A4
:10028000ED69CCEB020323F07F434B4538D80B4498
:1002900023606760A76084F81080E761002E51D06A
:1002A0003168994245D2304603E01168994230D214
:1002B0001046C2695B1A002AF7D12360E261334617
:1002C000C4611E46002DD8D1019B73456AD00EEB48
:1002D0004E03029911F83320049210460EF1010EDC
:1002E000039A5FFA8EFE964508BF4FF0000E012874
:1002F00001EBC3033ED03346012200921E46E1E7E4
:10030000C2EB0C0222F07F428A4209D28B1A236090
:10031000BFE7C91A11602360E2613346C461D0E7C8
:1003200027606760A76084F81080E76156B1316884
:100330000023CB1A33602346E661A2464FF0010B3F
:100340001E46BFE72346A2464FF0010B1E46B9E703
:10035000B0190020AE190020A0190020AD1900200E
:10036000AC190020B8190020A4190020AF190020F2
:10037000FEFF7F005C68227C009282B99A6862600E
:10038000D968A1601869E0605B69A361099B002BD3
:1003900000F0DD80009A626000932A4671E73346E0
:1003A0001E468FE7009B002B40F0E280BBF1000F60
:1003B00040F02581059B9E4200F0BF80002E00F09A
:1003C000C0809149914CD1F8040525783368CCEB75
:1003D000000222F07F420332002D50D18C4DDFF815
:1003E00038E28C4F4FF48036C1F84463C1F804639F
:1003F0004FF40036C5F880612E6001250D60DEF8EF
:1004000000602F2100BF00BF00BF00BF00BF00BFC2
:1004100000BF00BFBE422FD000BF00BF00BF00BF63
:1004200000BF00BF00BF00BF00BF00BF00BF00BFD4
:1004300000BF00BF00BF00BF00BF00BF00BF00BFC4
:1004400000BF00BF00BF00BF00BF00BF00BF00BFB4
:1004500000BF00BF00BF00BF00BF00BF00BF00BFA4
:1004600000BF00BF00BF00BF00BF00BF00BF00BF94
:1004700000BF00BF00BF00BF0139C3D12570934248
:100480002CBF9C44944460492CF07F43C1F8403514
:10049000D1F80425121A1B1A22F07F4223F07F4361
:1004A00003329A424DD9D1F804355B4AC1F8403540
:1004B000126858492F2300BF00BF00BF00BF00BF14
:1004C00000BF00BF00BF8A422FD000BF00BF00BFE7
:1004D00000BF00BF00BF00BF00BF00BF00BF00BF24
:1004E00000BF00BF00BF00BF00BF00BF00BF00BF14
:1004F00000BF00BF00BF00BF00BF00BF00BF00BF04
:1005000000BF00BF00BF00BF00BF00BF00BF00BFF3
:1005100000BF00BF00BF00BF00BF00BF00BF00BFE3
:1005200000BF00BF00BF00BF00BF013BC3D1384BBD
:100530004FF40032C3F8002103E0089B002B7FF446
:100540003DAF079A002313700BB0BDE8F08F049BFA
:10055000009396E62C4D4FF00108C5F808809A46A6
:100560000893CDF80C80CDF81080C146009F41E67D
:100570002A4B9DF804201A7018E7294B0793CDF8F1
:1005800014B0069A059B1768DDF804E000200546C4
:1005900001460446B3B11A6862451BD8D8681C608E
:1005A000C2EB0C0C1144DA6938B10EEB010727F0ED
:1005B0007F47DD6198605F601D4613461746012046
:1005C000002BE8D1A8B900230593012301960893D5
:1005D000059E36E650B9CCEB02021A6005930F4B2C
:1005E000059E5B780193012308932AE606990F6024
:1005F000F1E7069B1F60E6E7069A1360CCE5069BD1
:10060000C3F800A0D6E600BF00100140C0190020CA
:1006100000E100E00024F40058140020B01900208C
:10062000AF1900202DE9F04712F0030402D0072093
:10063000BDE8F087002AFAD0614D624EDFF8909154
:10064000DFF890C14FF4803E4FF400374FF00108BF
:10065000C6F88070C5F848E32F27C5F808E3C5F849
:100660000480D9F800E0B94600BF00BF00BF00BF5A
:1006700000BF00BF00BF00BFE6452FD000BF00BFD6
:1006800000BF00BF00BF00BF00BF00BF00BF00BF72
:1006900000BF00BF00BF00BF00BF00BF00BF00BF62
:1006A00000BF00BF00BF00BF00BF00BF00BF00BF52
:1006B00000BF00BF00BF00BF00BF00BF00BF00BF42
:1006C00000BF00BF00BF00BF00BF00BF00BF00BF32
:1006D00000BF00BF00BF00BF00BF00BFB9F10109EC
:1006E000C2D1C5F8088000BF00BF00BF00BF00BF77
:1006F00000BF00BF00BFE6452FD000BF00BF00BF56
:1007000000BF00BF00BF00BF00BF00BF00BF00BFF1
:1007100000BF00BF00BF00BF00BF00BF00BF00BFE1
:1007200000BF00BF00BF00BF00BF00BF00BF00BFD1
:1007300000BF00BF00BF00BF00BF00BF00BF00BFC1
:1007400000BF00BF00BF00BF00BF00BF00BF00BFB1
:1007500000BF00BF00BF00BF00BF013FC3D1DFF833
:1007600078C0DFF878E08CF80040174FDFF870A011
:10077000DFF87090DFF87080DFF870C0CEF80030DE
:100780004FF4801EC023B9703C707C70CAF80040E2
:1007900089F8004088F800408CF800400B49C6F802
:1007A00080E186F81433C6F800E0C5F8080586F83D
:1007B0001133D5F804350B607A602046BDE8F08728
:1007C0000010014000E100E0B0190020A019002055
:1007D000581400200024F400C0190020A81900209B
:1007E000A4190020AC190020AD190020AE1900207A
:1007F000074B5B6823B12AB120B10368187C18B19C
:10080000082070470720704759745A61704700BF2D
:10081000B01900202DE9F043274C636883B033B151
:1008200028B1042907D8072003B0BDE8F0830820C9
:1008300003B0BDE8F0834369002BF8D0054602A859
:100840006B7C0026012B00F8016D0CBF8946B14678
:1008500090460F4600F042F86378A07821785A1C41
:10086000D2B2904208BF324691421FD003EB4303FD
:100870006068DB00C11819D04FF0010E00F803E0EA
:100880000E4B4D60D3F804358B609DF80700CF60A8
:10089000C1F81090C1F81480627000F047F8084B5E
:1008A0004FF480123046C3F80021C1E79DF80700DD
:1008B00000F03CF80420BBE7B01900200010014014
:1008C00000E100E0014BD3F804057047001001403F
:1008D000411A21F07F41116000207047F0B4EFF31E
:1008E000108472B60E4B9A68B2B90E4901259D600C
:1008F000D1F880700C4D2E463D401D60C1F88060DF
:10090000D1F884505D604FF0FF33C1F8843002703D
:1009100004B962B6F0BC704701230370F8E700BF6A
:10092000A81E002000E100E0FC06FFBC094B9A680D
:1009300072B168B910B4EFF3108272B606491C6840
:100940000C605C684C60986002B962B65DF8044B5C
:10095000704700BFA81E002000E100E010B50C4C5D
:1009600023780BB1852010BD184606216360A36073
:100970002361E36000F09CF800F0BEFC20B94FF06A
:1009800080430122C3F8182501232370002010BDE5
:10099000C419002030B51D4CA37883B0054693B12F
:1009A00010B143680120984702A8002300F8043DD5
:1009B000FFF794FFE3689DF804000133E360FFF75D
:1009C000B5FF03B030BD02A803F0FF0200F8052D0B
:1009D000FFF784FF15B123692B602561E36863B9D4
:1009E0000B4A0C491360136801934FF080420220B8
:1009F0000123019DC2F804030B60E3689DF8030026
:100A00000133E360FFF792FF03B030BDC41900204B
:100A1000040100400800004010B51A4B1A6882B06B
:100A2000A2B100221A601B6800934FF0804301229C
:100A3000154C0099C3F80823A368627033B10CCB3E
:100A40000020A2609847A368002BF8D10F4B1A68CA
:100A5000AAB100221A601B6801934FF08043022262
:100A6000094C0199C3F8082323690122A27033B10C
:100A70000CCB0120226198472369002BF8D102B0EA
:100A800010BD00BF00010040C41900200401004057
:100A900058B910B5054CA36833B10CCB0020A26047
:100AA0009847A368002BF8D110BD7047C4190020E7
:100AB000002810B418DB00F1604303F561434901DD
:100AC000C9B283F80013C3B24009800000F160404E
:100AD00000F5614003F01F0201239340C0F880310C
:100AE00003605DF8044B7047C3B2044A03F00F047F
:100AF00049012244C9B21176E6E700BFFCEC00E0F0
:100B000070B582B002AC002344F8043D0F4DFFF7EE
:100B1000D9FE224629680646FFF7DAFE08B1FFF73C
:100B20004FFA019A0A492E604FF47A7303FB02F2DE
:100B300012F580424FF00003086843F10003D20B26
:100B400042EA43421044086002B070BD541A0020CB
:100B5000501A002001490320FEF7AABFCC1C020056
:100B600070B52DED028BFFF7F9FE08B1FFF728FAFB
:100B70000020FFF70FFF002318464D4A0521FFF71D
:100B800051FD08B1FFF71CFA4A4A4B480121FFF713
:100B90002FFE08B1FFF714FA00224FF4A0214748B6
:100BA000FFF738FE08B1FFF70BFA4548FEF7E6FEFF
:100BB00008B1FFF705FA434C434E444D9FED448A7C
:100BC00044490320FEF774FF43490220FEF770FFFB
:100BD00042490120FEF76CFF226841490320FEF7DD
:100BE000CDFF23883F4A40490320FFF7A9F8D6EDFF
:100BF000007A3E49BDEEE77A0320F8EEC76A17EEA9
:100C0000102A77EEE67A67EE887AFCEEE77A17EE3E
:100C1000903AFFF721F83648FEF7D4FE35490246F0
:100C20000320FEF7ABFFFFF71FF90028FBD1324B83
:100C30002A68324900BF00BF00BF00BF00BF00BF2D
:100C400000BF00BF8A422FD000BF00BF00BF00BF5F
:100C500000BF00BF00BF00BF00BF00BF00BF00BF9C
:100C600000BF00BF00BF00BF00BF00BF00BF00BF8C
:100C700000BF00BF00BF00BF00BF00BF00BF00BF7C
:100C800000BF00BF00BF00BF00BF00BF00BF00BF6C
:100C900000BF00BF00BF00BF00BF00BF00BF00BF5C
:100CA00000BF00BF00BF00BF013BC3D188E700BF4A
:100CB000D8190020550B0200C01D0200581A002050
:100CC000010B0200541400202C14002058140020A2
:100CD0000000C842EC1C0200081D0200301D02008A
:100CE000541D02004C140020781D0200881D0200D3
:100CF00030140020B01D020040420F000024F40018
:100D00002DE9F84F4300DFF870A11E180AEBC60664
:100D10008846F16A0129174641D031D3022939D1D9
:100D2000013000EB4000756A4FEAC0094FF0000B3C
:100D30001CE0326A641BBC420AEB09012346A2EBA9
:100D4000050428BF3B469C42486828BF1C462844EF
:100D50004146224600F0EEFA336A25449D4208BF20
:100D600000253F1BA344A044756215D0B36AAB4273
:100D700003F1FF34DDD8326A1344013B5C1BDAE730
:100D8000B16A726A91429CBF346A091901398A1AA0
:100D9000974236D94FF0000B5846BDE8F88FB16A3C
:100DA000756AA94227D90139326AC5EB010B0344A0
:100DB0000AEBC30ABB45DAF824502F4B28BFBB46C9
:100DC000561B0130B34500EB40003BD303EBC0049E
:100DD0003246606841462844C6EB0B0500F0AAFA8B
:100DE000606808EB06012A4600F0A4FACAF824500D
:100DF0005846BDE8F88F326A8C18013CC5EB040BED
:100E0000D5E703440AEBC30A0130DAF82460DAF8C4
:100E10002040194BA41BA74200EB40001ED303EB5C
:100E2000C00522466868414630443E1B00F082FA05
:100E3000686808EB0401324600F07CFABB46CAF849
:100E40002460A9E703EBC003414658685A4628448A
:100E50005D4400F06FFACAF824509DE703EBC0032D
:100E6000414658683A4630443E4400F063FABB4677
:100E7000CAF8246090E700BFB41E00202DE9F043BB
:100E80002A4C267883B0054688461746994656B3BD
:100E90002369264AAB4246D9EFF311834FF0800114
:100EA00081F31188019365B92846054404EBC50414
:100EB0000A9A019BE26283F31188002003B0BDE827
:100EC000F083691C01EB4101C9006800431902EB82
:100ED000C30342F80180114400229A624F60C3F8B4
:100EE00020905A62E1E70222114B226111486261AF
:100EF0004FF48061104AA361A3641023A6622365A6
:100F00006662E061A6652162E2640C49E662E6651C
:100F10006665E01D00F03EFA0949204600F03AFA05
:100F20002023A371B4E74FF0FF30C7E7B41E0020C1
:100F3000C41D0200881A0020781A0020D01D02006B
:100F4000D41D02000649074A074B9B1A03DD043BE8
:100F5000C858D050FBDC00F013F8FEF77FFA000011
:100F60001C1E0200C813002068140020FEE7FEE7E4
:100F7000FEE7FEE7FEE7FEE7FEE7FEE7FEE7FEE749
:100F8000F0B4984B1B78062B1BD0974AD2F88830C8
:100F900043F47003C2F88830BFF34F8FBFF36F8FF5
:100FA0004FF01023D3F80022002AC0F2E980D3F8D2
:100FB0000432002BC0F2E4808C4B8D4A1A60F0BCE6
:100FC00070478C4B1B681D07DFD18B4B1B6803F0F0
:100FD000F003302B02D1894B894A1A60864B1B687B
:100FE00003F0F002302A00F0BA8003F0E003402B57
:100FF00000F0B580804B1B6803F0F003302B00F04D
:101000009E807D4B1B6803F0F002302A00F0838045
:1010100003F0E003402B7ED0774B1B6803F0F00316
:10102000302B6AD0744B1B6803F0F003302B4DD08B
:10103000714B1B6803F0F003502BA6D14FF0805288
:10104000704BD2F80414C3F82015D2F80814C3F872
:101050002415D2F80C14C3F82815D2F81014C3F8CC
:101060002C15D2F81414C3F83015D2F81814C3F89C
:101070003415D2F81C14C3F84015D2F82014C3F864
:101080004415D2F82414C3F84815D2F82814C3F82C
:101090004C15D2F82C14C3F85015D2F83014C3F8FC
:1010A0005415D2F83414C3F86015D2F83814C3F8C4
:1010B0006415D2F83C14C3F86815D2F84014C3F88C
:1010C0006C15D2F84424C3F870255EE7454B4E49B1
:1010D0001B784E4D4E484F4A05270F6001260024CD
:1010E0003F21062B2E60046011607FF44EAF414B10
:1010F0001B681B077FF449AF9AE73A4B464A1B78B7
:101100000321062B11607FF440AF3A4B1B681A078E
:101110007FF43BAF86E7334B1B784FF080420021D2
:10112000062BC2F80C11C2F81011C2F838157FF462
:101130002CAF304B1B6819077FF427AF6CE7374A99
:101140002849D368097823F080730629D3607FF497
:101150001CAF284B1B6818077FF417AF51E7304AC4
:10116000204B12681B782F49C2F34232062B0A60CB
:101170007FF40BAF1F4B1B681C077FF406AF39E7EA
:10118000294B0122C3F80425D3F80024002AFBD000
:101190004FF0102315222449C3F80022D1F800345F
:1011A000002BFBD04FF0102315221F49C3F8042257
:1011B000D1F800241C4B002AFAD00022C3F80425E1
:1011C000D3F80024002AFBD0BFF34F8F0649174BFA
:1011D000CA6802F4E0621343CB60BFF34F8F00BFD5
:1011E000FDE700BFE00F00F000ED00E05814002024
:1011F0000090D003E40F00F0E80F00F074C0074047
:101200000DF0ADBA00C000401056004088560040B6
:101210001856004014560040A0050040F0ED00E0D4
:10122000440200103C05004000E001400400FA05C3
:1012300048DF704761DF70472DE9F047DFF8B09075
:10124000284ED9F80040DFF8AC80274FB4FA84F478
:1012500082B064090025B5B93378DFF888A07BB97E
:1012600001A8FFF7E5FF052834D020B3FEF7A8FE5C
:101270006CB13378DFF86CA001240025002BEFD08F
:1012800002B0BDE8F087002CFAD1DFF858A09AF838
:101290000030002BF4D102A93A68B8F8003021F8E8
:1012A000043D1046FFF7C6FF052817D068B1FEF7CA
:1012B00087FE0024CFE70198FFF7EAFB0B4B1B6882
:1012C000002BD5D001989847D2E71046D9F80030C6
:1012D0009847EEE7002CD3D10125D8E7002DC8D0E0
:1012E000CEE700BF881E00208C1E0020901E00202C
:1012F000941E00208A1E0020014B1878704700BF02
:10130000891E002008B5094B1B6833B1984700B906
:1013100008BDBDE80840FEF753BE054B1B78002B07
:10132000F6D0BDE80840FFF787BF00BF981E002039
:10133000891E002010B5431E0A44914204D011F8C2
:10134000014B03F8014FF8E710BD00000EB400B5E3
:101350009CB04FF402711DABADF8141002900690D2
:101360006FF000410A48049107914FF6FF7153F85E
:10137000042BADF816100068019302A900F074F870
:10138000029B00221A701CB05DF804EB03B070479A
:1013900028140020034611F8012B03F8012B002A22
:1013A000F9D17047034613F8012B002AFBD1181A14
:1013B000013870472DE9F0478E689E4282460C4600
:1013C000914698463ED88A8912F4906F3AD02568A3
:1013D00009696F1A6569022305EB450595FBF3F56D
:1013E0007B1C43449D4238BF1D4653050FD52946FB
:1013F00000F088FB064698B13A462169FFF79AFF4C
:10140000A38923F4906343F08003A38113E02A4669
:1014100000F0D6FB064670B92169504600F024FB67
:101420000C23CAF80030A38943F04003A3814FF096
:10143000FF30BDE8F087266165613E44ED1B266004
:10144000A5604646464528BF46463246494620687E
:1014500000F0EEFAA3689B1BA36023681E4426607D
:101460000020BDE8F08700002DE9F04F9DB08046D8
:1014700003938B891C060D4616460DD50B695BB987
:10148000402100F03FFB2860286118B90C23C8F800
:101490000030CDE040236B610023099320238DF8B9
:1014A0002930DFF89CB130238DF82A3037463C468E
:1014B00014F8013B1BB9B7EB060910D003E0252B4C
:1014C000F9D02746F3E74B46324629464046FFF718
:1014D00071FF013000F0A780099B4B4409933B78D2
:1014E000002B00F0A08000234FF0FF3204930793FD
:1014F000059206938DF853301A9301260522217820
:101500004E4800F045FA671C049B38B14B4A801ADC
:1015100006FA00F0184304903C46EFE7D90644BFB2
:1015200020228DF853201A0744BF2B228DF8532018
:1015300022782A2A03D0079A00210A200BE0039A76
:10154000111D12680391002A10DA524243F0020082
:10155000079204900BE0274601343B78303B092B7F
:1015600003D800FB02320121F5E701B107923B7875
:101570002E2B1ED17B782A2B0AD1039B1A1D1B68A8
:101580000392002BB8BF4FF0FF330237059310E0F2
:1015900000230593781C19460A24074601303A783F
:1015A000303A092A03D804FB01210123F5E703B1EE
:1015B000059103223978224800F0EAF940B140232E
:1015C000CBEB000003FA00F0049B184304900137B2
:1015D00039781C488DF8281006227E1C00F0D8F9B6
:1015E00088B1194B33B9039B073323F00703083342
:1015F000039314E003AB00932A46144B04A940461E
:10160000AFF3008007E003AB00932A460F4B04A919
:10161000404600F093F8B0F1FF3F824603D0099BAB
:101620005344099342E7AB895B0601D4099801E072
:101630004FF0FF301DB0BDE8F08F00BFDC1D020091
:10164000E21D0200E61D020000000000B5130200CA
:101650002DE9F04791461F460A698B68DDF8208026
:101660009342B8BF1346C9F8003091F843200646AC
:101670000C4612B10133C9F800302368990642BF05
:10168000D9F800300233C9F80030256815F0060596
:1016900010D104F1190A07E00123524639463046B9
:1016A000C04701301AD00135E368D9F800209B1AF1
:1016B0009D42F1DB94F843302268003318BF0123C8
:1016C00092060FD5E1185A1C302081F843002244BD
:1016D00094F8451082F84310023303E04FF0FF30D6
:1016E000BDE8F08704F1430239463046C047013077
:1016F000F4D02268D9F80050E36802F00602042A08
:1017000008BF5D1B2269A3680CBF25EAE5750025AB
:101710009342C4BF9B1AED184FF000091A344D458F
:1017200009D00123224639463046C0470130D5D082
:1017300009F10109F3E70020BDE8F0872DE9F04346
:1017400017460A7E85B06E2A984606460C460C9BC4
:1017500001F1430E00F0AE8011D8632A22D009D8DF
:10176000002A00F0BB80582A40F0CA8081F845204A
:10177000834955E0642A1ED0692A1CD0C0E0732A30
:1017800000F0B08009D86F2A2ED0702A40F0B880BF
:101790000A6842F020020A603EE0752A24D0782AC6
:1017A0003AD0ADE01A6801F14205111D19601368C5
:1017B00084F84230A8E021681A6811F0800F02D046
:1017C000111D196008E011F0400F02F104011960C9
:1017D00002D0B2F9003000E01368002B3CDA2D2271
:1017E0005B4284F8432037E021681A6811F0800FCB
:1017F00002D0111D196007E011F0400F02F1040141
:10180000196001D0138800E01368227E5C496F2ABA
:1018100014BF0A2208221BE078225A4984F8452086
:101820002268186812F0800F00F104051D6003D1D2
:10183000550601D5038800E00368D00744BF42F095
:10184000200222601BB9226822F0200222601022AE
:10185000002084F8430001E049490A226568A56038
:10186000002D08DB206820F0040020602BB9002D3B
:101870007DD175460CE0002B79D07546B3FBF2F0B4
:1018800002FB1033CB5C05F8013D03460028F5D17F
:10189000082A0BD12368DA0708D5236962689A42BF
:1018A000DEBF302305F8013C05F1FF35C5EB0E0323
:1018B00023612EE008681A68496910F0800F03D090
:1018C000101D1860136808E010F0400F02F10400CA
:1018D0001860136801D0198000E0196000232361AB
:1018E000754616E01A68111D1960156862680021B6
:1018F000284600F04DF808B1401B6060636804E0C2
:1019000004F1420584F8422001232361002384F876
:101910004330CDF800803B4603AA21463046FFF70E
:1019200097FE013002D14FF0FF3026E023692A46AE
:1019300039463046C0470130F5D023689B0710D5A3
:10194000002504F1190907E001234A4639463046CB
:10195000C0470130E7D00135E368039A9B1A9D42E6
:10196000F2DBE068039B9842B8BF184605E00B78AD
:1019700084F8423004F142058AE705B0BDE8F083FF
:10198000ED1D0200FE1D020000000000000000002E
:1019900001F0FF01102A2BDB10F0070F08D010F820
:1019A000013B013A8B422DD010F0070F42B3F6D124
:1019B000F0B441EA012141EA014122F007047FF03D
:1019C00000070023F0E80256083C85EA010586EA94
:1019D000010685FA47F5A3FA87F586FA47F6A5FAD0
:1019E00087F68EB9EED1F0BC01F0FF0102F00702DC
:1019F00032B110F8013B013A83EA010313B1F8D187
:101A00000020704701387047002D06BF3546033867
:101A1000073815F0010F07D1013015F4807F02BFA0
:101A2000013015F4C03F0130F0BC0138704700BFF1
:101A3000884210B501EB020301D8421E0BE0984228
:101A4000FBD28118D21AD34204D013F8014D01F809
:101A5000014DF8E710BD994204D011F8014B02F88E
:101A6000014FF8E710BD000038B50546002946D003
:101A700051F8043C0C1F002BB8BFE41800F0D6F856
:101A80001F4A1368114613B96360146032E0A34221
:101A90000ED92268A018834204BF18685B6863608F
:101AA00004BF121822600C6024E0A24203D813463F
:101AB0005A68002AF9D118681918A1420BD1216877
:101AC000014458188242196014D1106852685A6053
:101AD000014419600EE002D90C232B600AE0216852
:101AE0006018824204BF10685268626004BF09181F
:101AF00021605C602846BDE8384000F098B838BDE9
:101B0000A01E002070B5CD1C25F0030508350C2D56
:101B100038BF0C25002D064601DBA94202D90C2353
:101B2000336046E000F082F8234B1C681A462146D9
:101B3000A1B10B685B1B0ED40B2B03D90B60CC1827
:101B4000CD501EE08C420DBF63684B68636013602C
:101B500018BF0C4615E00C464968E9E7174C2368A6
:101B60001BB9304600F052F820602946304600F09C
:101B70004DF8431C18D0C41C24F00304A0420DD11E
:101B80002560304600F053F804F10B00231D20F0CF
:101B90000700C31A0ED05A42E25070BD211A3046D7
:101BA00000F034F80130EBD10C233360304600F004
:101BB0003EF8002070BD00BFA01E00209C1E00202B
:101BC000F8B5074615460E4621B91146BDE8F8405E
:101BD000FFF798BF1AB9FFF747FF2846F8BD00F096
:101BE00027F885420ED929463846FFF78BFF044671
:101BF00050B131462A46FFF79DFB31463846FFF784
:101C000033FF01E03046F8BD2046F8BD38B5064C3C
:101C1000002305460846236000F014F8431C02D157
:101C2000236803B12B6038BD2C1F0020704770471C
:101C300051F8040C0028BEBF091851F8043CC01824
:101C400004387047044A05491368002B08BF0B4647
:101C50001844106018467047A41E0020301F002052
:101C6000F8B500BFF8BC08BC9E467047F8B500BF89
:101C7000F8BC08BC9E46704743000000C813002013
:101C80005B253038645D00001B5B306D0000000098
:101C90004E6F726D616C00001B5B313B33316D4FD9
:101CA000766572666C6F770D0A0000001B5B313B36
:101CB00033316D4150505F4552524F523A45525266
:101CC0004F523A466174616C0D0A00001B5B306D27
:101CD0003A494E464F3A54657473696E6720746989
:101CE0006D65722E2E2E0D0A000000001B5B306DFC
:101CF0003A494E464F3A54657473696E6720696E6F
:101D0000666F2E2E2E0D0A001B5B313B33336D3A6E
:101D10005741524E494E473A54657473696E672075
:101D20007761726E696E672E2E2E0D0A000000001C
:101D30001B5B313B33316D3A4552524F523A546539
:101D40007374696E67206572726F722E2E2E0D0A83
:101D5000000000001B5B306D3A494E464F3A546517
:101D60007374696E672025642062797465732C2012
:101D7000646174613A0D0A001B5B306D3A494E464E
:101D80004F3A0D0A000000001B5B306D3A494E4689
:101D90004F3A54657374696E6720666C6F61742086
:101DA00076616C75653A25642E253032640D0A0023
:101DB0001B5B306D3A494E464F3A257300000000D8
:101DC000581A00205465726D696E616C0000000045
:101DD000525454005345474745520000232D302BA1
:101DE0002000686C4C00656667454647003031321C
:101DF0003334353637383941424344454600303173
:101E000032333435363738396162636465660000D1
:041E100000000000CE
:081E140048D6FF7F0100000029
:101E1C0000000000000000000000000000000000B6
:101E2C0000000000000000000000000000000000A6
:101E3C00781C020000000000000000000000000000
:101E4C000000000000000000000000000000000086
:101E5C000000000000000000000000000000000076
:101E6C000000000000000000000000000000000066
:101E7C00C8130020D1225B3E54657374696E6720D1
:101E8C00737472696E67206F6E20737461636B0D6F
:101E9C000A0000006461746100000000040000008E
:101EAC000090D00325F4010001F4010000000000B3
:0400000320000F4585
:00000001FF
