:1000000000000120A1300000C9300000CB3000000A
:10001000CD300000CF300000D130000000000000E3
:10002000000000000000000000000000D3300000CD
:10003000D530000000000000D7300000D9300000AB
:10004000A5180000DB3000005D29000085270000B6
:10005000DB300000DB3000006D190000DB300000F9
:10006000DB300000DB300000DB300000911E0000C0
:10007000DB300000DB300000DB300000DB30000054
:10008000DB3000009D0C0000DB300000DB300000A6
:10009000610D0000DB300000DB300000DB300000D1
:1000A000DB300000DB300000DB300000DB30000024
:1000B000DB300000DB30000000000000000000002A
:1000C000DB300000DB300000DB300000DB30000004
:1000D000DB300000DB300000DB30000000000000FF
:1000E0000000000000000000000000000000000010
:1000F0000000000000000000000000000000000000
:1001000000000000000000000000000000000000EF
:1001100000000000000000000000000000000000DF
:1004000010B5054C237833B9044B13B10448AFF34E
:1004100000800123237010BD940000200000000024
:10042000083E00000C4B43B10C480D4910B5AFF32A
:1004300000800C48036823B910BD0A48036833B92B
:100440007047094B002BF7D0BDE810401847064B0A
:10045000002BF5D0184700BF00000000083E000048
:10046000980000209000002000000000154B002B99
:1004700008BF134B9D46A3F5803A00218B460F46DB
:100480001348144A121A00F063F80F4B002B00D0E7
:1004900098470E4B002B00D0984700200021040005
:1004A0000D000D48002802D00C48AFF3008000F08A
:1004B0002BF82000290002F0FDFB00F011F800BF2E
:1004C0000000080000000120000000000000000003
:1004D00094000020600B00200000000000000000DD
:1004E00008B5074B044613B10021AFF30080054B5C
:1004F0001868836A03B19847204600F031F800BFBE
:1005000000000000C43C000070B50D4E0D4CA41B53
:10051000A4100025A54209D10B4E0C4C03F0C6FBDC
:10052000A41BA4100025A54205D170BD56F82530A6
:1005300098470135EEE756F8253098470135F2E740
:100540008800002088000020880000208C00002007
:1005500002440346934200D1704703F8011BF9E7B8
:10056000FEE700BF2DE9F04FC7B017461C46DDF887
:1005700044A18B46002900F02381002B00F0F78076
:100580000A23009300231A4606AE539B20250AEB4C
:10059000030B9146009803464B4402933133F718FE
:1005A00006EB0903002867D05A4202F00302824298
:1005B00028BF02460628019200F2CF800146184665
:1005C000012900F8015B00F0C68002295D7003F18B
:1005D000020000F0C08003299D7003F1030000F0C9
:1005E000BA800429DD7003F1040000F0B48006290C
:1005F0001D7103F1050040F0B7805D71981D0191F8
:10060000009A8A4236D0521AA2F1040E0392009A3E
:1006100002F1FF3C4FEA9E0EACEB010C0EF1010E15
:10062000BCF1020F4FEA8E0817D949444FF0203C25
:10063000BEF1010F06EB010946F801C006D0BEF17C
:10064000020FC9F804C001D0C9F808C0019A424499
:100650000192039A424540440CD0019A0570511C06
:10066000009A914206D21146019A457002328A429E
:1006700000D28570009A1344DA1C781C03F1330C05
:10068000DDF848810CE002F8035C02F8025C02F835
:10069000015C0332624500F8015C00F1010034D0D6
:1006A000A345F0D9A24588BF509902F8015C96BFD6
:1006B000A4EB0A01095D18F801104FEA211E5FFA48
:1006C0008EF9BEF1090F01F00F0ED4BF09F1300908
:1006D00009F13709BEF1090F02F8039C94BF0EF12E
:1006E000300E0EF1370EA1F1200902F802ECB9F13B
:1006F0005E0F02F1030288BF2E21624500F8011C43
:1007000004F1010400F10100CAD102990D2201F1A6
:1007100043094FF00A083A7487F81180002783F8DC
:1007200030504B46B9461F463A4606EB09010020B9
:1007300002F08EFB81443F1A10B9B8F1010801D0D4
:10074000002FF1D15C454FF00009FFF423AF2046A4
:1007500047B0BDE8F08F019152E71146002A7FF4BF
:100760002EAF1846009A4EE70522019248E7194B32
:1007700093E8030006AE04908DF81410042204A937
:10078000304602F003FEDBF80020134907A802F010
:1007900009FE0028DBDB041D0A23351900933846C7
:1007A00002F02CFEC22828BFC220804642463946AD
:1007B000284602F0EBFD08EB04031A460024E4E6A9
:1007C0001BB906AE35460094E9E700910A4606AE2D
:1007D000DBE600BFD83C0000D03C00002DE9F04132
:1007E0009046C6B01F4611B3564B0C4693E8030023
:1007F00006AE04908DF81410042204A9304602F0CD
:10080000C5FD2268504907A802F0CCFD00280ADB8C
:100810004C9B051D062B00F29380DFE803F0133399
:100820003A424C586600002046B0BDE8F0814C9B2F
:10083000062B00F28380DFE803F004717477686BA5
:100840006E004C9D404602F0D9FD4319FF2B044633
:100850006DD9002CE7DB2C44B4F5807FE3D80A2760
:10086000002506AE22467119002002F0F1FA054477
:10087000241A08B9013F01D0002CF3D1012046B061
:10088000BDE8F08170193A68414602F08BFD0446DC
:10089000DFE77019414697E80C0002F083FD04463B
:1008A000D7E77019B96897E80C000091414602F04B
:1008B00079FD0446CDE77019F968BC6897E80C002B
:1008C00001910094414602F06DFD0446C1E77019A4
:1008D000BC68FE68396997E80C0002918DE8500009
:1008E000414602F05FFD0446B3E770197C6939693F
:1008F00097E80C000394BC68FE6802918DE85000F4
:10090000414602F04FFD0446A3E706A80025D3E7C1
:1009100006A80025DCE706A80025E7E706A80025CD
:10092000B1E706A80025B5E706A80025BAE706AE98
:1009300041467019224602F029FD8AE700248EE71D
:10094000002488E7D83C0000D03C000070B50F4D73
:100950002B7882B01BB10E4B1B78834212D001263C
:10096000044600964FF480730A4A0B49002002F0B7
:100970002BFB10B1082002B070BD054B2E701C700F
:1009800002B070BD002002B070BD00BFB1000020F9
:10099000B0000020B4000020C83C000000487047B0
:1009A000DD070000004870476505000038B50020ED
:1009B000FFF7CCFF044668B9FFF7F0FF0546FFF7E5
:1009C000F1FF054BFF22C3F810541C605C60C3F8B4
:1009D00014049A60204638BDB40100200120FFF7BE
:1009E000B5BF00BF2DE9F041214C074600200E465F
:1009F000A568D4F8008000F0F7FE94E80C00A16828
:100A00000B4401339B1A012B19D89BB10120002301
:100A100060F301036FF382030520114060F3C50307
:100A2000144804EB81016FF38913013260F39F23B3
:100A30002260CB600020BDE8F04100F0DDBE013255
:100A40000020226000F0D8FE0122002362F301039F
:100A50006FF3820305EA080567F3C50304EB850419
:100A60006FF3891366F39F23E360BDE8F08100BF55
:100A7000B4010020E03C00002DE9F843234C8146FE
:100A8000002088461746A668256800F0ADFE94E869
:100A90000C00A1680B4401339B1A022B19D89BB19F
:100AA0000120002360F301036FF38203052011404E
:100AB00060F3C503164804EB81016FF3891301321B
:100AC00060F39F232260CB600020BDE8F84300F074
:100AD00093BE02320020226000F08EFE012100232E
:100AE00061F301036A186FF38203354069F3C503AC
:100AF000164004EB850561F3891304EB860468F363
:100B00009F23EB60E760BDE8F88300BFB4010020DD
:100B1000E03C00002DE9F0434F4E716832688A4294
:100B20008BB078D0B76807EA0105023506EB85027D
:100B30000131546814F003030ED1C4F3891303EB9D
:100B400094530B4407EA0305023506EB8502591C52
:100B5000546814F00303F0D0022B2CD0C4F3831399
:100B6000C4F39522002B73D00DF1100C604601EBFD
:100B7000030E07EA010506EB850501F10108F045C2
:100B8000E96840F8041B4146F3D10093C4F3C20066
:100B90006346D6F810440021A04748B1C6F8048047
:100BA0003068B0EB080018BF01200BB0BDE8F0833F
:100BB000D6F80480F4E701F1010827EA080001EA09
:100BC0000703013006EB830380004FEA9459814507
:100BD000DA68C4F3891322D988B307EA0801C7B2D7
:100BE0000331A9EB0700DFF874E006EB8101C0B226
:100BF0008DE882400390D6F814740021C4F3C2003B
:100C0000B847484520D006EB850560F38F146C602B
:100C1000D6F80480C4E700200BB0BDE8F08307EAF3
:100C20000800033006EB800000218DE801020391EB
:100C30000291D6F81474C4F3C200B847E1E78646BF
:100C40005FFA89F70549D3E7033008EB9008A5E779
:100C500088460DF1100C98E7B4010020C001002077
:100C600000B585B000230390194601AA44F20100A3
:100C7000ADF80430029300F003F805B05DF804FB12
:100C800008B505490120FFF7ADFEFFF7A7FEFFF706
:100C900041FF0028FBD1FFDEF43C00002DE9F843C2
:100CA000274A284B0025C2F84051C2F84451C2F8E7
:100CB0004851C2F84C51C2F80051C2F804511B68A7
:100CC0001BB32149D2F804450A68204FA41A1A68B8
:100CD00024F07F44A242A84609D8197CDE69A41AF0
:100CE0001544A1B91EB133461A68A242F5D9184974
:100CF000184A0B7812789A421BD01749174A41F8C4
:100D000023504FF48013C2F80031BDE8F883D3F8C4
:100D1000149083F810803A689B69484619462AB1B6
:100D200090470028DED0FFF79BFFDBE71846C84757
:100D3000D8E7531CDBB2022B08BF00230B70DCE7A3
:100D400000100140EC050020E8050020CC05002043
:100D5000E5050020E4050020DC05002000E100E0BE
:100D60002DE9F04FA34AA44913780978A348994282
:100D700089B0D0F800B000F0E5800133DBB2022B7F
:100D800008BF002313709E4A52F823609B4A0BEB66
:100D9000060323F07F43136001230593994B93F8D7
:100DA0000090994BD3F800A0964B5C785B68039356
:100DB000944B9B780293954B1B7804938F4B0027A1
:100DC0001B680693CC465546D646B84601973B4627
:100DD0000097A44523D00CEB4C020398029F10F817
:100DE00032100CF1010C5FFA8CFCBC4508BF4FF0CF
:100DF000000C022900EBC2027BD00329E9D1BEF12D
:100E0000000FE6D0DEF81C208EF810309646002A3F
:100E1000F8D11546A4454FF001020092DBD1019BA9
:100E2000009F002B40F0A380B8F1000F02D0734B5D
:100E3000069A1A600FB1744B1D60059B002B40F0A1
:100E4000C281BAEB0E0318BF0123059300250023CE
:100E5000019304931F466D4BDFF8B4B11B780693E2
:100E6000664BD3F80080684B1B68009376464FF0C2
:100E7000010A35B36A68A9682B46ED69A2EB080040
:100E800020F07F40584577D8014419605F609F602B
:100E900083F810A0DF61002E00F08E803068884259
:100EA00080F08280344603E0106888426DD2144698
:100EB000E269091A002AF7D11960DA61E361002DAD
:100EC000D8D1039909EB490309F10102CC4501EBA3
:100ED000C3045FFA82F900F09D8011F83300029B91
:100EE0004B4508BF4FF0000901286AD00123049345
:100EF000E8E75068BEF1000F3FF46BAF70457146F4
:100F000017D0009F02E0904205D01146CA69002A1E
:100F1000F9D100975DE7884200970BD0C26900685D
:100F2000CA61002A3FF455AF116801441160AE4612
:100F30004FE77046DEF81C20964632B11546012276
:100F40000092EBE70026059628E702F1804202F5C1
:100F500088324FF00108C2F808807546CDF818E0D5
:100F6000CDF80080CDF80480CDF81080D6E7274B6F
:100F70009DF810201A7057E7A8EB020222F07F427A
:100F80008A4208D2891A196080E7401A10601960F5
:100F9000DA61E36193E71F605F609F6083F810A0F0
:100FA000DF614EB130680021411A31600093DE618B
:100FB0001E46012301935CE700931E460123019323
:100FC00057E763681A7C0492002A7FF47BAFA2681B
:100FD0005A60E168996007902069D86064699C61F3
:100FE000069C002C00F0EC80049A5A6004940022C5
:100FF00044E700BFE4050020E5050020E8050020E7
:10100000DC050020D0050020EC050020D8050020DC
:10101000FEFF7F00049B002B40F0A681019B13B1D3
:10102000804B009A1A60764500F0C080002E00F0D8
:1010300007817D4A7D49D2F804050C783668A0EB1B
:10104000080323F07F430333002C50D1784CDFF8A2
:10105000E8E1784F4FF48035C2F84453C2F80453A6
:101060004FF40035C4F88051256001241460DEF887
:1010700000502F2200BF00BF00BF00BF00BF00BF55
:1010800000BF00BFBD422FD000BF00BF00BF00BFE8
:1010900000BF00BF00BF00BF00BF00BF00BF00BF58
:1010A00000BF00BF00BF00BF00BF00BF00BF00BF48
:1010B00000BF00BF00BF00BF00BF00BF00BF00BF38
:1010C00000BF00BF00BF00BF00BF00BF00BF00BF28
:1010D00000BF00BF00BF00BF00BF00BF00BF00BF18
:1010E00000BF00BF00BF00BF013AC3D10C709E42D9
:1010F0002CBF08EB060343444B4923F07F43C1F860
:101100004035D1F80425121A1B1A22F07F4223F031
:101110007F4303329A424DD9D1F80435464AC1F88B
:101120004035126843492F2300BF00BF00BF00BFF6
:1011300000BF00BF00BF00BF8A422FD000BF00BF6A
:1011400000BF00BF00BF00BF00BF00BF00BF00BFA7
:1011500000BF00BF00BF00BF00BF00BF00BF00BF97
:1011600000BF00BF00BF00BF00BF00BF00BF00BF87
:1011700000BF00BF00BF00BF00BF00BF00BF00BF77
:1011800000BF00BF00BF00BF00BF00BF00BF00BF67
:1011900000BF00BF00BF00BF00BF00BF013BC3D105
:1011A000234B4FF40032C3F8002103E0059B002BD2
:1011B0007FF43CAF214A0023137009B0BDE8F08FE3
:1011C000079804905AE6174B002477462546214697
:1011D00020461B68DDF814E0A7B13A68B24218D87F
:1011E000FC683860B61A1144FB693CB10BEB010294
:1011F00022F07F42FD61BC607A603D461F46744626
:10120000002FEAD1BE46002C3FF421AE054A136000
:101210001DE6BE46002C40F0A480921BCEF80020B4
:1012200015E600BFEC05002000100140D9050020A4
:1012300000E100E00024F40084000020D805002034
:101240004B4A4C4B4C4D4D484FF480314FF40037D6
:101250000124C3F88070C2F848132F23C2F8081382
:10126000546029681D4600BF00BF00BF00BF00BF1B
:1012700000BF00BF00BF81422FD000BF00BF00BF32
:1012800000BF00BF00BF00BF00BF00BF00BF00BF66
:1012900000BF00BF00BF00BF00BF00BF00BF00BF56
:1012A00000BF00BF00BF00BF00BF00BF00BF00BF46
:1012B00000BF00BF00BF00BF00BF00BF00BF00BF36
:1012C00000BF00BF00BF00BF00BF00BF00BF00BF26
:1012D00000BF00BF00BF00BF00BF013DC3D194608D
:1012E000274A166000BF00BF00BF00BF00BF00BF9D
:1012F00000BF00BF81422FD000BF00BF00BF00BFB2
:1013000000BF00BF00BF00BF00BF00BF00BF00BFE5
:1013100000BF00BF00BF00BF00BF00BF00BF00BFD5
:1013200000BF00BF00BF00BF00BF00BF00BF00BFC5
:1013300000BF00BF00BF00BF00BF00BF00BF00BFB5
:1013400000BF00BF00BF00BF00BF00BF00BF00BFA5
:1013500000BF00BF00BF00BF013BC3D1094B1E70DF
:1013600028E709490B6058E7084B83F800C055E6A9
:101370000010014000E100E0840000200024F4009F
:10138000E8050020D9050020EC050020D00500204C
:10139000C0B2002388724B72704700BFF0B500786E
:1013A00085B00C46002840F098800B7ACA6801335B
:1013B000127BDBB29A4200F29880E3681B6823B18B
:1013C000E268E36851681B689847002504F110063D
:1013D00017E0597901F001018DF8041003958DF89B
:1013E00007509B7913F0010F0CBF0022202201A9A6
:1013F000304601F063F900286DD0E3681B68002BCC
:101400006DD1002000F0F0F96379A279DBB293424C
:101410005AD05A1C207921681BB2D2B251F823301D
:10142000904238BF00226271E360E068002850D02B
:10143000002000F0E1F92572227AE368D2B29868C0
:1014400017B24FEAC70E00EB0E03597949088DF821
:10145000051050F83710029119798DF80610997916
:10146000C907B6D5587910F00101B5D1E7683F7BBF
:101470000132BA42B0DAE26892680EF1080E7244A4
:1014800052795208B2EB500FA6D1E368227A9B68DA
:1014900053F80E1003919E44531C9EF804208DF8BF
:1014A00007209EF8052012F0010F0CBF0322022234
:1014B0008DF804209EF80620DBB212F0010F0CBF5D
:1014C00000222022237292E70023E360E0680028D4
:1014D000AED100F091F905B0F0BD03206DE7E268F0
:1014E000E36851681B68984770E70B720A7ACB680B
:1014F000D2B2986815B2EE008319597949088DF86F
:10150000051050F83510029119798DF80610997967
:10151000C8072DD5587910F001012CD1E5682D7B35
:101520000132AA4227DAE268956806F108021544FA
:101530006D796D08B5EB500F1DD1E368217A9B687A
:10154000985803901A444B1C11798DF80710517963
:1015500011F0010F0CBF032102218DF804109279C4
:10156000DBB212F0010F0CBF0022202223720DE02B
:10157000597901F00101002203928DF807208DF8BE
:1015800004109B7913F0010F18BF202201A904F168
:10159000100001F093F800287FF40FAF9BE700BF25
:1015A0002DE9F041044600F11006174698463046F2
:1015B0002346094A00F0CEFE054648B9304601F000
:1015C0006DF86571C4F80080A57127716572E560DA
:1015D0002846BDE8F08100BF9D130000F0B5044629
:1015E00085B000200D4600F0FFF8A3792279DBB228
:1015F0009A4200F0B3806279013A934200F0B280DF
:1016000019B2226842F8215001332279DBB29A42A2
:1016100038BF0023A371002000F0EEF8002000F096
:10162000E3F8E568002D40F092802F4604F11006A3
:101630001CE0597901F0010103979B798DF80410A2
:1016400013F0010F0CBF0022202201A930468DF8B3
:10165000075001F033F80346002870D0E3681B6898
:10166000002B40F08680184600F0BEF86379A2791E
:10167000DBB2934266D05A1C207921681BB2D2B2E9
:1016800051F82330904238BF00226271E360E36872
:10169000002B5CD0002000F0AFF82572227AE368BE
:1016A000D2B298680FFA82FE4FEACE0C00EB0C0320
:1016B000597949088DF8051050F83E100291997932
:1016C00018798DF80600C907B3D5587910F00101D3
:1016D000B2D1D4F80CE09EF80CE001327245ABDADE
:1016E000E26892680CF1080C624452795208B2EB3D
:1016F000500FA1D1E368227A9B6853F80C10039134
:101700009C44531C9CF805209CF806109CF804008F
:101710008DF8070012F0010F0CBF03220222DBB28A
:1017200011F0010F8DF8042023720CBF002220223B
:1017300001A9304600F0C2FF034600288ED11846AA
:1017400005B0F0BD0023E360E368002BA2D10020C8
:1017500000F052F80023184605B0F0BD6279002A67
:101760007FF449AF002000F047F81123184605B078
:10177000F0BDE268E36851681B689847002000F0FC
:1017800033F853E7F0B5044685B000201F460E46F7
:10179000154600F029F8637AC3B903F0FF0001236E
:1017A000637200F029F80F4B0194694620460296B7
:1017B0008DF80C500093FFF711FF28B967B9637AD1
:1017C000002BFCD1A07AC0B205B0F0BD002000F023
:1017D00013F8112005B0F0BD637A002BF2D0B847A2
:1017E000ECE700BF9113000072B6024A13680133A0
:1017F00013607047F0050020034A1368013B136033
:1018000003B962B6704700BFF005002038B50A4D35
:101810002C780CB1852038BD204606216C60AC6068
:101820002C61EC6000F07AF84FF080420123C2F89E
:1018300018352B70204638BDF405002030B5164C05
:10184000A37883B0054673B110B14368012098476F
:101850000020FFF7C9FFE36800200133E360FFF7D2
:10186000CBFF03B030BD03F0FF00FFF7BDFF15B1A4
:1018700023692B602561E368002BECD1074A0849F6
:101880001360136801934FF0804202200123019DF1
:10189000C2F804030B60DEE7F405002004010040F9
:1018A0000800004010B51A4B1A6882B0A2B100229D
:1018B0001A601B6800934FF080430122154C009979
:1018C000C3F80823A368627033B10CCB0020A26078
:1018D0009847A368002BF8D10F4B1A68AAB10022D1
:1018E0001A601B6801934FF080430222094C019952
:1018F000C3F8082323690122A27033B10CCB012065
:10190000226198472369002BF8D102B010BD00BFB7
:1019100000010040F405002004010040002810B43C
:1019200018DB00F1604303F561434901C9B283F854
:101930000013C3B24009800000F1604000F561402F
:1019400003F01F0201239340C0F8803103605DF86B
:10195000044B7047C3B2044A03F00F044901224408
:10196000C9B21176E6E700BFFCEC00E02DE9F043D8
:10197000C34B1A68012A83B000F0D0810027C14B05
:101980001A68012A00F0BC81BF4B1A68012A00F0D6
:10199000A981BE4B1A68012A00F09681BC4B1A68D7
:1019A000012A00F08381BB4B1A68012A00F05A819A
:1019B000B94B1A68012A00F04781B84B1A68012A0E
:1019C00000F03481B64B1A68012A00F0238100260A
:1019D00017F0FF0F1BD0DFF8CC8201250024A300F5
:1019E00003F180432F4203F5C0434FEA45050BD076
:1019F000D3F8100558F82420D3F81015C0F30420AC
:101A0000C1F3014102B190470134082CE7D1002F06
:101A100002DB03B0BDE8F083A24C94F95010481CDF
:101A20004FF0FF394FF000084FF0010700F0A98098
:101A3000C9B221F0C00029FA00F515F001051BD04C
:101A40002318890993F9303054F82330002B00F023
:101A5000CB80032907FA00F500F0CA80820002F16A
:101A6000A0423540D2F800E7CEF3014E40F0A98005
:101A7000BEF1030F00F09F8194F951104A1C22D04F
:101A8000C9B221F0C00029FA00F3DB071BD52318E7
:101A9000890993F9303054F82320002A00F0B280ED
:101AA000032907FA00FC00F0B280830003F1A04391
:101AB00016EA0C0FD3F800E7CEF3014E63D1BEF166
:101AC000030F00F0648194F95210481C22D0C9B26F
:101AD00021F0C00029FA00F3DA071BD52318890981
:101AE00093F9303054F82320002A00F08480032931
:101AF00007FA00FC00F08380830003F1A04316EA9C
:101B00000C0FD3F800E7CEF3014E46D1BEF1030F20
:101B100000F0298194F953104B1C21D0C9B221F057
:101B2000C00029FA00F919F0010F19D0231889090A
:101B300093F9303054F82390B9F1000F4DD00329B8
:101B400007FA00FE4DD0830003F1A04316EA0E0F02
:101B5000D3F80027C2F3014229D1032A00F0EB8019
:101B6000002D3FF456AF4FF0A043C146D3F81035D7
:101B70009E423FF44EAF94F95010481C1E467FF42D
:101B800057AF002578E7BEF1020F9CD1032900F082
:101B90002581002A97D0904795E7BEF1020FB9D171
:101BA000032900F01E81002AB4D09047B2E7022A30
:101BB000D6D1032900F01881B9F1000FD0D0C84761
:101BC000CEE7BEF1020FDCD1032900F01081002521
:101BD000002B3FF451AF98474EE70329C0D107FAD5
:101BE00000FE48EA0E08AEE70329CAD107FA00F55D
:101BF00048EA050832E703298CD107FA00FC48EAD5
:101C00000C0879E703297FF45EAF07FA00FC48EA85
:101C10000C084AE700221A601B6801934FF0A043AA
:101C2000019AD3F8106547F00047D1E61E4AD2F872
:101C3000042314067FF5C6AE00221A601B680093C9
:101C4000009B47F08007BDE6174AD2F804235506EB
:101C50007FF5B3AE00221A601B680093009B47F02B
:101C60004007AAE6104AD2F8042396067FF5A0AEF4
:101C700000221A601B680093009B47F0200797E63C
:101C80000061004004610040086100400C610040B8
:101C90001061004014610040186100401C61004068
:101CA0007C6100400806002000600040514AD2F8E4
:101CB0000423D2067FF577AE00221A601B680093DA
:101CC000009B47F010076EE64A4AD2F8042311073A
:101CD0007FF564AE00221A601B680093009B47F0FA
:101CE00008075BE6434AD2F8042350077FF551AE5C
:101CF00000221A601B680093009B47F0040748E627
:101D00003C4AD2F8042394077FF53EAE00221A60C5
:101D10001B680093009B47F0020735E6354AD2F86E
:101D2000047317F001073FF42AAE00221A601B6803
:101D30000093009B23E603297FF43EAF4FF4003E5F
:101D4000D3F8002722F44032C3F80027D3F8002745
:101D500042EA0E02C3F80027B9F1000F3FF403AFC7
:101D60000135EDB22BE703297FF41DAF4FF4003CA2
:101D7000D3F800E72EF4403EC3F800E7D3F800E7BD
:101D800001354EEA0C0EEDB2C3F800E70BE703296C
:101D90007FF4FFAE4FF4003CD3F800E72EF4403E52
:101DA000C3F800E7D3F800E701354EEA0C0EEDB2B8
:101DB000C3F800E7EDE603297FF40AAF4FF4003ED5
:101DC000D2F8005725F44035C2F80057D2F8005732
:101DD00045EA0E05C2F800570125F9E64FF4403CEC
:101DE000DAE74FF4403CC3E74FF4403EA8E74FF436
:101DF000403EE5E7006000405AB1F8B54379114F25
:101E0000114D03EB430445F823203C5D1CB1082031
:101E1000F8BD0720704705460E4690F90400897802
:101E2000FFF77CFD2B683288C3F808256B79F178C1
:101E3000357903EB4303FA180126FE54557091706F
:101E40002046F8BD60060020640600200368044AAE
:101E500001211960437903EB43030221D1547047F8
:101E60006006002010B403680022C3F8002183B08C
:101E7000D3F80031026801930123019CC2F8443376
:101E800011B10268C2F8043303B05DF8044B704727
:101E900010B53B4BD3F80423D20384B003D5394AA1
:101EA000116800293CD1364BD3F80423940303D5A1
:101EB000354A1168002942D1314BD3F8042350032D
:101EC00003D5324A1168002949D12D4BD3F8042398
:101ED000D10702D5D3F80021B2B9294BD3F8042396
:101EE000920702D5D3F804210AB904B010BD00222C
:101EF000C3F80421264AD3F804310193052013685E
:101F0000019A984704B010BD0022C3F80021204A6E
:101F1000D3F80031029304201368029A9847DCE753
:101F20004FF480310020C3F84813194CC3F808134C
:101F30001060136803932368039A9847B3E74FF43C
:101F400000310024C3F848131148C3F80813146083
:101F5000136803930368039A01209847ACE74FF492
:101F600080210024C3F848130948C3F808131460FB
:101F7000136803930368039A02209847A5E700BFFC
:101F800000B0004040B1004044B1004048B10040C2
:101F9000640600202DE9F0410024C1F804418EB010
:101FA000D1F804510495049DC1F82441D1F824517D
:101FB0000395039DC1F81C41D1F81C510295029D67
:101FC000C1F80841D1F808510195012B80F826404D
:101FD00080F823404FF001060CBF02240124019D2C
:101FE000C1F800420E620E6004684CB140F28623D4
:101FF00083608368C1F8043300200EB0BDE8F0812F
:1020000003F1FF3E4FF0020C90F82350002D3BD11E
:10201000D1F8247190F82680002F48D0C1F82451BF
:10202000D1F824510A950A9D4E6180F823604345FA
:10203000EAD1D1F80451002DE6D00023C1F80431D3
:10204000D1F8042190F823300592059AC3B1D1F854
:10205000C434C1F8C4349BB113F0010F18BF4FF45E
:10206000024048F2012208BF032013F0020F18BFFC
:10207000104648F2022213F0040F18BF1046BCE7C6
:1020800000200EB0BDE8F081C1F82441D1F8245100
:102090000B950B9DC1F81C41D1F81C510C950C9D62
:1020A000C1F80841D1F808510D950D9DC1E7D1F84F
:1020B0001C51ADB1C1F81C71D1F81C510995099D95
:1020C000D1F824511DBB90F82650AB423DD9555D47
:1020D000C1F81C5590F82650013580F82650A6E727
:1020E000D1F80871002FA2D0C1F80851D1F80871B9
:1020F0000797079FD1F824719FB1C1F82451D1F8F7
:1021000024510695069D4E6180F823608FE7C1F843
:102110002471D1F824510895089D4E6180F8236000
:1021200085E790F82650AB4281D9D1F818755755FC
:1021300090F826500135EDB2754580F8265006D04E
:10214000AB423FF474AF0E6271E74E616FE7C1F8C6
:1021500000C2F8E72DE9F0430024C1F804418FB034
:10216000D1F804510495049DC1F82441D1F82451BB
:102170000395039DC1F81C41D1F81C510295029DA5
:10218000C1F80841D1F8085101950125019EC1F817
:10219000004280F8264080F823400D628D6090F860
:1021A00026409DF85870A34213D9145DC1F81C4510
:1021B00090F826402C4480F8264004687CB140F218
:1021C000862383608368C1F8043300200FB0BDE824
:1021D000F083002F48D0CD610468002CEFD103F1CB
:1021E000FF3C4FF0010E4FF0020890F82350002DF5
:1021F0003CD1D1F8246190F82690002E49D0C1F846
:102200002451D1F824510A950A9DC1F814E080F8B0
:1022100023E04B45E9D1D1F80451002DE5D000234E
:10222000C1F80431D1F804310593059B90F82330AF
:10223000002B6AD0D1F8C434C1F8C434002B64D068
:1022400013F0010F18BF4FF4024048F2012208BFFB
:10225000032013F0020F18BF104648F2022213F0B9
:10226000040F18BF1046B1E74D61A6E7C1F824413D
:10227000D1F824510B950B9DC1F81C41D1F81C518C
:102280000C950C9DC1F80841D1F808510D950D9D94
:10229000C1E7D1F81C51ADB1C1F81C61D1F81C5196
:1022A0000995099DD1F8245125BB90F82650AB42E1
:1022B00045D9555DC1F81C5590F82650013580F878
:1022C0002650A6E7D1F80861002EA2D0C1F8085127
:1022D000D1F808610796079ED1F82461CEB1C1F804
:1022E0002451D1F824510695069DC1F814E080F8D8
:1022F00023E08EE7C1F82461D1F824510895089DA8
:10230000C1F814E080F823E083E700200FB0BDE8B7
:10231000F08390F82650AB427FF67BAFD1F818657A
:10232000565590F826500135EDB2654580F8265097
:102330000CD0AB423FF46DAFC1F820E069E717B1B4
:102340000123CB6172E7C1F814E062E7C1F80082B3
:10235000F2E700BF2DE9F04F0579244EAF0007EBFF
:10236000050E4FEACE0E06EB0E0C83B09CF8224011
:102370001CB1082003B0BDE8F08F46F80E20CCF861
:102380000840CCF804308CF825408CF824408B7B36
:102390008CF827304B7B5BBB0B684FF0A04403F5F8
:1023A000E07340F20C6E44F823E04B6803F5E073F1
:1023B00044F823E091E810400368C3F80845C3F8E7
:1023C0000CE58C68C3F824452AB10068097B40F30A
:1023D0000730FFF7A3FA3D4406EBC50601230020B2
:1023E00086F8223003B0BDE8F08F00BF68060020F9
:1023F0000B68DFF8A092DFF8A0E24FF0A04C03F5E5
:10240000E07340F20C6A4CF823A04B6803F5E073CC
:102410004FF001084CF823A00B6808FA03F3CCF83E
:1024200008354B6808FA03F3CCF808350B6803F558
:10243000E07340F20D6B4CF823B04B6803F5E0738A
:102440004FF0040A4CF823B05346D9F8009000BF6F
:1024500000BF00BF00BF00BF00BF00BF00BFF1450D
:102460002FD000BF00BF00BF00BF00BF00BF00BF34
:1024700000BF00BF00BF00BF00BF00BF00BF00BF64
:1024800000BF00BF00BF00BF00BF00BF00BF00BF54
:1024900000BF00BF00BF00BF00BF00BF00BF00BF44
:1024A00000BF00BF00BF00BF00BF00BF00BF00BF34
:1024B00000BF00BF00BF00BF00BF00BF00BF00BF24
:1024C00000BF013BC3D1F3460195D1F804E0DCF82D
:1024D000103523FA0EF3DB07554600F1D6800B6862
:1024E00008FA03F3CCF80C3500BF00BF00BF00BFF3
:1024F00000BF00BF00BF00BFD9452FD000BF00BF45
:1025000000BF00BF00BF00BF00BF00BF00BF00BFD3
:1025100000BF00BF00BF00BF00BF00BF00BF00BFC3
:1025200000BF00BF00BF00BF00BF00BF00BF00BFB3
:1025300000BF00BF00BF00BF00BF00BF00BF00BFA3
:1025400000BF00BF00BF00BF00BF00BF00BF00BF93
:1025500000BF00BF00BF00BF00BF00BF013DC3D12F
:102560000B6808FA03F3CCF80835534600BF00BFE8
:1025700000BF00BF00BF00BF00BF00BFD9452FD0C4
:1025800000BF00BF00BF00BF00BF00BF00BF00BF53
:1025900000BF00BF00BF00BF00BF00BF00BF00BF43
:1025A00000BF00BF00BF00BF00BF00BF00BF00BF33
:1025B00000BF00BF00BF00BF00BF00BF00BF00BF23
:1025C00000BF00BF00BF00BF00BF00BF00BF00BF13
:1025D00000BF00BF00BF00BF00BF00BF00BF00BF03
:1025E000013BC3D10134092C7FF46FAF019D4B68CF
:1025F000DFF8A48001244FF0A04E04FA03F34FF05B
:10260000040CCEF80C35634600BF00BF00BF00BF0E
:1026100000BF00BF00BF00BFC1452FD000BF00BF3B
:1026200000BF00BF00BF00BF00BF00BF00BF00BFB2
:1026300000BF00BF00BF00BF00BF00BF00BF00BFA2
:1026400000BF00BF00BF00BF00BF00BF00BF00BF92
:1026500000BF00BF00BF00BF00BF00BF00BF00BF82
:1026600000BF00BF00BF00BF00BF00BF00BF00BF72
:1026700000BF00BF00BF00BF00BF00BF013BC3D110
:102680004B689C40CEF8084586E6019D7346002CB9
:10269000AED181E6840000200024F4000379064ACC
:1026A000016803EB830302EBC3030220052283F8D6
:1026B0002200C1F80025704768060020930701D06A
:1026C000062070472DE9F04305792D4ED0F800E043
:1026D000AF007B194FF0FF3006EBC303CEF80803C1
:1026E00093F8240083B030B19B68CEF804331120F6
:1026F00003B0BDE8F08382F00400C0F3800012F064
:10270000080983F8240003D0062003B0BDE8F08355
:102710009A610C46944607C903F10C0888E8070043
:10272000A27883F820206268DA616278CEF8882582
:10273000227805EB8500012A06EBC00018D0AAB963
:10274000CCF340137A1906EBC202009382F82130D1
:10275000A37862687146FFF7FDFC3D44ED007359B4
:10276000002BC5D1354485F82430C1E70123E9E7C2
:1027700083F821907146A3786268FFF70BFCECE7C1
:1027800068060020F0B5724C724B94F8232091B08B
:10279000AAB9D3F8241194F8205094F826000029FF
:1027A00049D0C3F82421D3F82421089201220899A2
:1027B00084F823205A61854214D011B0F0BD002264
:1027C000C3F82421D3F8241109910999C3F81C21D5
:1027D000D3F81C110A910A99C3F80821D3F80831DB
:1027E0000B930B9B5B4BD3F80421002AE5D000220E
:1027F000C3F80421D3F804310393039B94F82330E6
:10280000002B33D1217B8B1E012B6AD9524B93E8CD
:10281000070010AD05E9070000238DF83030A369EB
:102820000022590784F82420C7D4236861680CA8C3
:10283000984711B0F0BDD3F81C21E6696AB3C3F81C
:102840001C11D3F81C210792079AD3F8242194F87D
:102850002170002A5AD0C3F82411D3F824210692FB
:102860000122069984F823205A61A4E73A4B394D96
:1028700093E8070010AB03E90700D5F8C434C5F8A6
:10288000C4349A0703D501238DF83030C7E75807C1
:1028900044BF02238DF83030C1E7D3F80811002976
:1028A00089D0C3F80821D3F8081105910599D3F808
:1028B0002411002937D185427FF67DAFD3F8182542
:1028C000325494F826200132D2B2691E8A4284F82A
:1028D000262033D095423FF46EAF1E4B01221A6280
:1028E00069E7E26923699A4290D1A0696269E37B52
:1028F000E261C0F34010032984F8210084F82030FD
:1029000020D014491248FFF745FB56E7854203D80B
:1029100001228FB1DA6171E7325CC3F81C25431CD8
:1029200084F8263047E7C3F82421D3F82421049201
:102930000499012284F823205A613CE70222C3F85B
:102940000022CAE7009003490148FFF703FC34E77F
:1029500068060020003000407406002070B5A54CC9
:10296000237F8EB0002B73D1A34AD2F804138905BC
:1029700046D4A14BD3F80423520704D5D3F8082139
:10298000002A40F0C9809C4BD3F81C21BAB1A28A1E
:10299000A17D92B28A424FF00002C3F81C2180F060
:1029A000A880D3F81C210692069AA18AA28AA06860
:1029B00089B20132415C92B2A282C3F81C158E4BDF
:1029C000D3F84421D2B10022C3F84421D3F84411F2
:1029D000A27E04910499002A40F08880E37D6BB1C7
:1029E0000023617EE268E37501238DF830108DF8D5
:1029F00028300B9294E80A000AA898470EB070BDE0
:102A0000D2F824110029B4D0C2F82431D2F824110C
:102A1000A37E07914FF401710798C2F808130BB910
:102A200001235360744A02238DF82830D2F8803491
:102A3000C2F88034E07DE2680D9300238DF8300009
:102A4000E375237621680B9263680AA898479AE792
:102A5000694BD3F82421002A40F09280D3F810115A
:102A600061B1C3F81021D3F8101103910399D3F881
:102A70003C15E07DC9B2884200F0A4805E4BD3F8DB
:102A80004421B2B10022C3F84421D3F84401E17DCE
:102A90000190019869B1D3F83C35E1688DF8303088
:102AA00001230B918DF82830E27594E80A000AA8FA
:102AB0009847514BD3F82021002A9FD00022C3F819
:102AC0002021D3F82001A17D00900098002995D005
:102AD000D3F84C15A3688DF830100B938DF828208F
:102AE000A27594E80A000AA8984787E701221A60AD
:102AF00074E7D3F81C310593059B00293FF45FAFC1
:102B0000A3688DF830100B938DF82820A27594E8F7
:102B10000A000AA8984752E7E27D002A6ED00022F8
:102B2000C3F80821D3F808210892089AE168627E68
:102B3000D3F818358B54637EE27D0133DBB26376C4
:102B4000637E93427FF41FAF237E002B6CD1A37E64
:102B500013B9294B01225A60274AE06863684FF491
:102B60000171C2F80813627E8DF830200025012221
:102B70000B902168E5758DF828200AA8984702E790
:102B80000022C3F82421D3F82411029102218DF8E8
:102B900028100299D3F88014C3F880140D91D3F84B
:102BA0003C15E368E27522768DF830100B932168AE
:102BB00063680AA89847104BD3F84421002A3FF4D1
:102BC00078AF5FE7217E11B3D3F80062E568E17565
:102BD00026F02006C3F8006226698DF83000012334
:102BE0008DF82830227621680B95E66063680AA884
:102BF000984743E79006002000200040C3F80821D2
:102C0000D3F8081109910999D3F8183598E7E268C3
:102C1000E17501238DF830008DF828300B9294E88F
:102C20000A000AA8984729E7607EE5682169E375EC
:102C3000012200238DF83000E160237663760B9546
:102C40008DF8282094E80A000AA898479BE600BF60
:102C5000042800D0704710B54FF0A0420A49D2F8BE
:102C600004350A48DC4304F0807403F08073C2F832
:102C70000845C2F80C35FEF7B1FC00B910BDBDE83F
:102C80001040FDF7EDBF00BF9C3D00006400002038
:102C900028B9054B05491A790320FDF7EDBE024618
:102CA00003490320FDF7E8BE7C000020803D0000C2
:102CB0005C3D000070B5002384B001204FF0A041BE
:102CC000032203E0ED0148BF41F824200133202B0B
:102CD00000FA03F503F5E074F4D14FF0A0434FF090
:102CE00080710022C3F80815C3F80C25FEF78EFD8D
:102CF00008B1FDF7B5FF0020FEF7A0FD0020FDF7AD
:102D000055FE08B1FDF7ACFF46490320FDF76AFE0A
:102D1000FDF700FF02460028FAD106240392072699
:102D20004FF0CC756946404B40480096052201940F
:102D30008DF80C400295FEF733FC08B1FDF790FFCB
:102D4000002301223A493948FEF71CFD08B1FDF77E
:102D500087FF384A384B1268384900BF00BF00BFB0
:102D600000BF00BF00BF00BF00BF8A422FD000BF1E
:102D700000BF00BF00BF00BF00BF00BF00BF00BF5B
:102D800000BF00BF00BF00BF00BF00BF00BF00BF4B
:102D900000BF00BF00BF00BF00BF00BF00BF00BF3B
:102DA00000BF00BF00BF00BF00BF00BF00BF00BF2B
:102DB00000BF00BF00BF00BF00BF00BF00BF00BF1B
:102DC00000BF00BF00BF00BF00BF00BF00BF013B8E
:102DD000C3D1002301221A491448FEF7D3FC08B1DD
:102DE000FDF73EFF174B184A18689B880090ADF816
:102DF0000430164840F2FF336946ADF80030FEF764
:102E0000FBFF08B1FDF72CFF10480121FFF72AF85E
:102E10000E48FFF71BF830BFFDF77CFE0028FBD102
:102E2000F9E700BF243D0000B00600206400002048
:102E3000483D000084000020A08601000024F4002A
:102E4000503D0000143D0000512C00001C3D0000CE
:102E50002DE9F84F4300DFF86CA11E180AEBC606F7
:102E60008B46D6F82C80B8F1010F17465FD037D3C8
:102E7000B8F1020F2FD1013000EB4000756A4FEA24
:102E8000C0094FF000081CE0326A641BBC420AEB28
:102E900009012346A2EB050428BF3B469C42486833
:102EA00028BF1C4628445946224600F06FFA336A70
:102EB00025449D4208BF00253F1BA044A3447562E2
:102EC0000BD0B36AAB4203F1FF34DDD8326A13444E
:102ED000013B5C1BDAE74FF000084046BDE8F88F85
:102EE000B26A746AA24253D9013A121B9742F4D8CB
:102EF00003440AEBC3040130666A256AAD1B00EB8C
:102F00004000AF420AEBC00A51D3DAF804002A4667
:102F1000304459467E1B00F039FADAF804000BEB16
:102F20000501324600F032FAB8466662D5E7B16A6A
:102F3000756AA94226D90139366AA1EB050803440E
:102F40000AEBC304B845656A28BFB846761B013052
:102F500000EB4000B0450AEBC00A1ED3DAF80400CB
:102F6000324659462844A8EB060500F00FFADAF875
:102F700004000BEB06012A4600F008FA65624046A1
:102F8000BDE8F88F366A8C19013CA4EB0508D6E73A
:102F9000316A114401390A1BA8E7DAF804005946DE
:102FA00028444246454400F0F1F9656295E7DAF8B5
:102FB0000400594630443A463E4400F0E7F9B8462A
:102FC00066628AE7E40A00202DE9F0412E4C94F86D
:102FD00000E082B005460F4616469846BEF1000F47
:102FE00028D02369AB424BD9EFF311834FF0800116
:102FF00081F31188019365B92846054404EBC504A3
:10300000089A019BE26283F31188002002B0BDE8B8
:10301000F081691C01EB4101C9006800431904EB10
:10302000C3036750214400229A624E60C3F8208097
:103030005A62E2E70222154B2261154862614FF4A1
:103040008061144AA361A3641023C4F828E02365B7
:10305000C4F824E0C4F82CE0C4F858E0C4F85CE0FC
:10306000C4F854E0E0612162E2640B49E01D00F025
:10307000BDF90A49204600F0B9F92023A371B0E751
:103080004FF0FF30C2E700BFE40A0020BC3D000063
:10309000D8060020C8060020C83D0000CC3D000036
:1030A0000649074A074B9B1A03DD043BC858D0501A
:1030B000FBDC00F013F8FDF7D9F90000143E000026
:1030C0000000002094000020FEE7FEE7FEE7FEE798
:1030D000FEE7FEE7FEE7FEE7FEE7FEE7F0B4984B0B
:1030E0001B78062B1BD0974AD2F8883043F4700324
:1030F000C2F88830BFF34F8FBFF36F8F4FF01023AC
:10310000D3F80022002AC0F2E980D3F80432002B61
:10311000C0F2E4808C4B8D4A1A60F0BC70478C4B37
:103120001B681D07DFD18B4B1B6803F0F003302BAE
:1031300002D1894B894A1A60864B1B6803F0F00262
:10314000302A00F0BA8003F0E003402B00F0B58095
:10315000804B1B6803F0F003302B00F09E807D4B0A
:103160001B6803F0F002302A00F0838003F0E003D4
:10317000402B7ED0774B1B6803F0F003302B6AD0D6
:10318000744B1B6803F0F003302B4DD0714B1B6860
:1031900003F0F003502BA6D14FF08052704BD2F8C1
:1031A0000414C3F82015D2F80814C3F82415D2F873
:1031B0000C14C3F82815D2F81014C3F82C15D2F843
:1031C0001414C3F83015D2F81814C3F83415D2F813
:1031D0001C14C3F84015D2F82014C3F84415D2F8D3
:1031E0002414C3F84815D2F82814C3F84C15D2F8A3
:1031F0002C14C3F85015D2F83014C3F85415D2F873
:103200003414C3F86015D2F83814C3F86415D2F832
:103210003C14C3F86815D2F84014C3F86C15D2F802
:103220004424C3F870255EE7454B4E491B784E4D4C
:103230004E484F4A05270F60012600243F21062BE8
:103240002E60046011607FF44EAF414B1B681B077A
:103250007FF449AF9AE73A4B464A1B780321062B85
:1032600011607FF440AF3A4B1B681A077FF43BAF05
:1032700086E7334B1B784FF080420021062BC2F8C3
:103280000C11C2F81011C2F838157FF42CAF304B76
:103290001B6819077FF427AF6CE7374A2849D368C2
:1032A000097823F080730629D3607FF41CAF284B84
:1032B0001B6818077FF417AF51E7304A204B12689C
:1032C0001B782F49C2F34232062B0A607FF40BAF02
:1032D0001F4B1B681C077FF406AF39E7294B0122FF
:1032E000C3F80425D3F80024002AFBD04FF01023A4
:1032F00015222449C3F80022D1F80034002BFBD05A
:103300004FF0102215211F4BC2F80412D3F80024ED
:10331000002AFBD000221B49C3F80425D1F8003451
:10332000002BFBD0BFF34F8F0649174BCA6802F43E
:10333000E0621343CB60BFF34F8F00BFFDE700BFD8
:10334000E00F00F000ED00E0840000200090D003CA
:10335000E40F00F0E80F00F074C007400DF0ADBAC4
:1033600000C00040105600408856004018560040EB
:1033700014560040A0050040F0ED00E044020010AB
:103380003C05004000E001400400FA0510B5431E72
:103390000A44914200D110BD11F8014B03F8014FCE
:1033A000F7E700000EB400B59CB04FF402711DABFE
:1033B000ADF81410029006906FF000410A48049195
:1033C00007914FF6FF7153F8042BADF81610006803
:1033D000019302A900F076F8029B00221A701CB03B
:1033E0005DF804EB03B0704700000020034611F8BD
:1033F000012B03F8012B002AF9D17047034613F87B
:10340000012B002AFBD1181A013870472DE9F0472B
:103410008E689E4282460C469146984635D88A89E7
:1034200012F4906F31D0256809696F1A656902231B
:1034300005EB450595FBF3F508F101033B449D427F
:1034400038BF1D46530531D5294600F081FB06469D
:1034500050B90C23CAF80030A38943F04003A3817C
:103460004FF0FF30BDE8F0873A462169FFF78EFF45
:10347000A38923F4906343F08003A38126616561EF
:103480003E44ED1B2660A5604646464528BF46469D
:1034900032464946206800F0F3FAA3689B1BA360FC
:1034A00023681E4426600020BDE8F0872A4600F00D
:1034B000ADFB06460028E1D12169504600F0FAFA3A
:1034C000C7E700002DE9F04F9DB0804603938B893C
:1034D0001C060D4616460FD50B696BB9402100F04E
:1034E00037FB2860286128B90C23C8F800304FF05A
:1034F000FF30C5E040236B610023099320238DF842
:10350000293030238DF82A304FF0010B37463C46E6
:1035100014F8013B002B3CD1B7EB060A0BD0534605
:10352000324629464046FFF771FF013000F0A38084
:10353000099B534409933B78002B00F09C800023A7
:103540004FF0FF3204930793059206938DF85330A2
:103550001A9305222178504800F042FA671C049B18
:10356000D8B9D90644BF20228DF853201A0744BF8A
:103570002B228DF8532022782A2A16D0079A002170
:103580000A20274601343B78303B092B51D9C9B179
:1035900011E0252BC0D02746B9E73F4A801A0BFA25
:1035A00000F0184304903C46D3E7039A111D1268BB
:1035B0000391002A01DB079204E0524243F0020328
:1035C000079204933B782E2B0ED17B782A2B07F1A0
:1035D000010132D1039B1A1D1B680392002BB8BF57
:1035E0004FF0FF33023705932C4C397803222046E5
:1035F00000F0F6F938B14023001B03FA00F0049BF9
:10360000034304930137397825488DF828100622A2
:103610007E1C00F0E5F9002835D0224BFBB9039B56
:10362000073323F0070308330393099B4B440993A3
:103630006CE700FB02320121A3E700230593184643
:103640000A240F4601313A78303A092A03D9002B6F
:10365000CAD00590C8E704FB00200123F1E703ABC3
:1036600000932A46104B04A94046AFF30080B0F106
:10367000FF3F8146D9D1AB895B063FF538AF09984A
:103680001DB0BDE8F08F03AB00932A46064B04A99A
:10369000404600F081F8EAE7D43D0000DA3D000042
:1036A000DE3D0000000000000D3400002DE9F04771
:1036B00091461F468A680B69DDF820809342B8BFA7
:1036C0001346C9F8003091F8432006460C4612B163
:1036D0000133C9F800302368990642BFD9F8003099
:1036E0000233C9F80030256815F0060507D104F14A
:1036F000190AE368D9F800209B1A9D4229DB94F847
:1037000043302268003318BF012392062ED404F1FF
:10371000430239463046C047013021D02368E5686E
:10372000D9F8002003F00603042B08BFAD1AA368E4
:1037300022690CBF25EAE57500259342C4BF9B1A98
:10374000ED184FF000091A344D451BD10020BDE89B
:10375000F0870123524639463046C047013003D135
:103760004FF0FF30BDE8F0870135C2E7E1185A1C81
:10377000302081F84300224494F8451082F8431029
:103780000233C4E70123224639463046C0470130A0
:10379000E6D009F10109D7E72DE9F04317460A7E83
:1037A00085B06E2A984606460C460C9B01F1430EE6
:1037B00000F0BC801AD8632A2ED00AD8002A00F064
:1037C000C880582A00F08A8004F1420584F842201B
:1037D0002AE0642A01D0692AF6D121681A6811F01A
:1037E000800F23D0111D1960136827E0732A00F0A1
:1037F000B48008D86F2A2AD0702AE5D10A6842F02E
:1038000020020A6003E0752A21D0782ADCD17822D0
:1038100084F845206E4964E01A6801F14205111DE3
:103820001960136884F842300123A3E011F0400FBF
:1038300002F104011960D7D0B2F90030002B03DA8D
:103840002D225B4284F8432062490A2217E0206857
:10385000196810F0800F03D0081D18600B6806E08F
:1038600010F0400F01F104001860F7D00B8859499F
:103870006F2A14BF0A220822002084F843006568DA
:10388000A560002DC0F29C80206820F0040020601C
:10389000002B3FD1002D40F095807546082A0BD1B2
:1038A0002368DA0708D5236962689A42DEBF3023AD
:1038B00005F8013C05F1FF35AEEB05032361CDF8BA
:1038C00000803B4603AA21463046FFF7EFFE013059
:1038D00055D14FF0FF3005B0BDE8F08381F84520A9
:1038E0003C492268186812F0800F00F104051D6041
:1038F00001D0036802E05506FBD50388D00744BF1A
:1039000042F0200222601BB9226822F020022260CD
:103910001022B1E77546B3FBF2F002FB1033CB5C2B
:1039200005F8013D03460028F5D1B7E708681A6895
:10393000496910F0800F04D0101D186013681960D9
:1039400007E010F0400F02F1040018601368F6D091
:103950001980002323617546B1E71A68111D1960AB
:10396000156862680021284600F03AF808B1401B4B
:10397000606063682361002384F843309FE7236914
:103980002A4639463046C0470130A2D023689B07FB
:1039900007D5002504F11909E368039A9B1A9D4293
:1039A00005DBE068039B9842B8BF184693E7012304
:1039B0004A4639463046C04701308AD00135EBE7E8
:1039C000002BA7D10B7884F8423004F1420565E75B
:1039D000F63D0000E53D0000000000000000000092
:1039E00001F0FF01102A2BDB10F0070F08D010F8B0
:1039F000013B013A8B422DD010F0070F42B3F6D1B4
:103A0000F0B441EA012141EA014122F007047FF0CC
:103A100000070023F0E80256083C85EA010586EA23
:103A2000010685FA47F5A3FA87F586FA47F6A5FA5F
:103A300087F68EB9EED1F0BC01F0FF0102F007026B
:103A400032B110F8013B013A83EA010313B1F8D116
:103A50000020704701387047002D06BF35460338F7
:103A6000073815F0010F07D1013015F4807F02BF30
:103A7000013015F4C03F0130F0BC0138704700BF81
:103A8000884210B501EB020303D8421E99420CD1C3
:103A900010BD9842F9D28118D21AD34200D110BD7C
:103AA00013F8014D01F8014DF7E711F8014B02F849
:103AB000014FEBE738B50546002945D051F8043CE5
:103AC0000C1F002BB8BFE41800F0D6F81F4A13688B
:103AD000104633B9636014602846BDE8384000F0F2
:103AE000CCB8A3420CD921686218934204BF1A686B
:103AF0005B68636004BF521822600460ECE7134601
:103B00005A680AB1A242FAD919685818A0420BD1D2
:103B100020680144581882421960DDD1106852684B
:103B20005A6001441960D7E702D90C232B60D3E710
:103B3000206821188A4204BF11685268626004BF7D
:103B4000091821605C60C7E738BD00BFD80A0020B3
:103B500070B5CD1C25F0030508350C2D38BF0C259C
:103B6000002D064601DBA94203D90C233360002057
:103B700070BD00F081F8234A1468214691B9224CA7
:103B800023681BB9304600F067F8206029463046AC
:103B900000F062F8431C26D10C233360304600F05D
:103BA0006CF8E4E70B685B1B1AD40B2B0FD90B6086
:103BB000CD50CC18304600F060F804F10B00231D06
:103BC00020F00700C31A1BD05A42E25070BD8C424D
:103BD0000DBF63684B686360136018BF0C46E9E76C
:103BE0000C464968CAE7C41C24F00304A04205D06F
:103BF000211A304600F030F80130CDD02560D9E7E9
:103C000070BD00BFD80A0020DC0A0020F8B50746C6
:103C100014460E4621B91146BDE8F840FFF798BF9B
:103C200022B9FFF747FF25462846F8BD00F026F8E1
:103C300084420FD921463846FFF78AFF05460028FF
:103C4000F2D031462246FFF7A1FB31463846FFF756
:103C500031FFE9E73546E7E738B5064C002305466E
:103C60000846236000F014F8431C02D1236803B116
:103C70002B6038BD5C0B00207047704751F8040C76
:103C80000028A0F10400BCBF0B58C018704700000A
:103C9000044A05491368002B08BF0B4618441060FE
:103CA00018467047E00A0020600B0020F8B500BFFE
:103CB000F8BC08BC9E467047F8B500BFF8BC08BC0D
:103CC0009E467047040000204E6F726D616C0000CC
:103CD0005B253038645D00001B5B306D0000000028
:103CE0001B5B313B33316D4F766572666C6F770DC0
:103CF0000A0000001B5B313B33316D4150505F4582
:103D000052524F523A4552524F523A466174616C88
:103D10000D0A0000000006410000000000B0004055
:103D20000B0003001B5B306D4150503A494E464F2B
:103D30003A545749206D6173746572206578616DDE
:103D4000706C650D0A0000007C00002002D00000AD
:103D50007E00002002D00000750000001B5B306D6B
:103D60004150503A494E464F3A726561645F636212
:103D7000202D206572726F723A2025640D0A0000B2
:103D80001B5B306D4150503A494E464F3A57484FB1
:103D9000414D493A2025640D0A000000912C000095
:103DA00000000000AC3D000002000000583D000093
:103DB00001D001008000002001D100005465726D27
:103DC000696E616C0000000052545400534547472F
:103DD00045520000232D302B2000686C4C00656696
:103DE000674546470030313233343536373839414C
:103DF0004243444546003031323334353637383962
:0C3E000061626364656600000000000061
:083E0C0060C6FF7F0100000009
:103E1400040000200000000000000000000000007A
:103E2400000000000000000000000000000000008E
:103E3400000000000000000000000000000000007E
:103E4400000000000000000000000000000000006E
:103E5400000000000000000000000000000000005E
:103E6400000000000000000000000000000000004E
:103E7400000000000000000000000000000000003E
:103E84000000000000300040000000006B806B0068
:103E9400000000000090D00325040000010400008D
:043EA400000000001A
:04000003000030A128
:00000001FF
